:10000000008000200D890000D5880000F7880000DE
:1000100000000000000000000000000000000000E0
:10002000000000000000000000000000F788000051
:100030000000000000000000F78800006189000057
:10004000F7880000F7880000A5410000D96500008E
:1000500099880000F788000065570000F9880000C3
:10006000F788000069670000F7880000F788000043
:1000700041450000F788000079670000F78800001C
:10008000F7880000F7880000F7880000F788000074
:10009000F5700000F7880000F7880000A5650000F3
:1000A000F7880000F7880000F7880000F788000054
:1000B0000000000010B5064C2378002B07D1054B3B
:1000C000002B02D0044800E000BF0123237010BDC4
:1000D000400400200000000080F70000044B10B531
:1000E000002B03D00349044800E000BF10BDC04608
:1000F000000000004404002080F700000122014BB2
:100100001A707047DD0E002070B506000C2008F054
:10011000D9FD08250024300008F03EFE013D0419F9
:1001200024B2002DF7D10723E01718400019C010A2
:1001300080B270BD70B505000C00272917DD002ABC
:1001400000D00334782C00DD78242000FE245021D8
:100150002838FF344942604309F0B8F98B239B00EB
:10016000C11889B20E20698008F08EFE70BDEE21A4
:10017000FF3141800E2008F087FE283C054B6400CB
:10018000E35E0A220D215A43AB80034804F050FA83
:10019000ECE7C046ECDB00005401002010B54388BA
:1001A00004888B4215D20179104B5B1AA34200DD03
:1001B00023005B1803800188C2880023914205D385
:1001C0004379994200D31300038001230372007A1C
:1001D00010BD42791300A24206D80179034B5B1A85
:1001E000A34200DD23009BB29B1AE3E7FFFF000060
:1001F00010B5084C01233C220221200005F06AFFC3
:10020000200005F0F3FE200006F050F8024B636179
:1002100010BDC046AC04002001000100F0B5324D15
:1002200085B02800002405F0E1FE202708260123E0
:10023000220021002800029303942C4B0197009682
:1002400004F09AFE01232200310028000293039457
:10025000274B0197009604F08FFE0123220028000F
:1002600002931021234B03940197009604F084FE1F
:10027000012322002800029318211F4B03940197A9
:10028000009604F079FE0123220039002800029331
:1002900003941A4B0197009604F06EFE012322008E
:1002A000280002932821164B03940197009604F02E
:1002B00063FE01232200280002933021114B039496
:1002C0000197009604F058FE0123220038212800EF
:1002D000029303940C4B0197009604F04DFE280006
:1002E00005F0E4FF05B0F0BDAC040020620400207E
:1002F00042000020660000208A000020AE0000209E
:10030000D2000020F60000208604002010B5044C26
:10031000200005F06BFE200005F0C8FF10BDC046B0
:10032000AC04002010B50C4C200005F05FFE20004E
:10033000022105F02CF8002320002361074906F074
:100340008DFA80235B0306492361200006F086FABC
:10035000200005F0ABFF10BDAC04002020D9000048
:1003600025D9000010B50C4C200005F03FFE200000
:10037000022105F00CF8002320002361074906F054
:100380006DFA80235B0306492361200006F066FABC
:10039000200005F08BFF10BDAC04002029D900001F
:1003A0002DD90000F0B58027032685B07F031E4CB1
:1003B0004B25200005F01AFE0221200004F0E7FF83
:1003C00000231A492361200006F048FA184920004A
:1003D000276106F043FA200005F068FF0A20013D7E
:1003E00008F002FB002DF9D1200005F0FFFD0123EC
:1003F00003931F330193203320002A002900009328
:1004000002950C4B04F05DFD200005F04FFF4B24DE
:100410000A20013C08F0E8FA002CF9D1013EB6B2FE
:10042000002EC4D105B0F0BDAC04002032D90000CC
:100430002DD90000ECDA0000F0B50025092791B0B5
:1004400000900191019BAB422BDD174C200005F081
:10045000CDFD2000022104F09AFF144E2A00310045
:10046000276103A80CF0BEFB200003A906F0F6F9F3
:100470000F4B009A23616B00D25A310003A80CF095
:10048000B1FB200003A906F0E9F9200005F00EFFFA
:1004900021240A20013C08F0A7FA002CF9D10135EB
:1004A000D0E711B0F0BDC046AC04002038D9000040
:1004B00009001000F8B50600264C0D00200005F0DC
:1004C00095FD0321200004F062FF30000AF004F8DB
:1004D000214909F0F3FB0BF025FE060028000F0070
:1004E00009F0FAFF0BF01EFE1C4A1D4B0AF0E6FF56
:1004F00000221C4B0AF0DCFB02000B00300039002C
:100500000BF048FA0BF056FE0BF00CFE164A174B98
:100510000AF0D4FF0022164B0AF060F809F048F9FF
:100520000100632813D8134B0A222361200006F030
:100530001AFA114B20002361012104F028FF0F4912
:10054000200006F08BF9200005F0B0FEF8BD8023F6
:10055000DB02E9E7AC040020000020416666666625
:100560006666204000408F40C3F5285C8F82324091
:10057000000034400D000400320010003DD900009E
:10058000AA4AF8B51168050001230800184019426D
:1005900002D1A74913608870A64A01231168080098
:1005A0001840194202D1A44913608870A34A01235C
:1005B000116808001840194202D1A14913608870DF
:1005C000A04A0123116808001840194202D19E492F
:1005D000136088709D4A0123116808001840194271
:1005E00002D19B49136088709A4A01231168080060
:1005F0001840194202D1984913608870974F984E5D
:10060000002D20D00123974A0B241370964A1370B3
:10061000964A1370964A1370964A1370964A13704E
:100620000023964A3B701370954A33701370954AB5
:100630001370954A1370954A1370954A1370954A32
:1006400013702000F8BD3B78002B21D0290078489A
:1006500003F0C6FD0B24002800D03D703778002F32
:100660005CD00021744803F0BBFD002801D00023BA
:100670003370884B1D78002D00D194E00021704824
:1006800003F0AEFD0028DCD00023824A1370D8E7C7
:10069000032008F03BFD03005A1E9341744A137077
:1006A000704B1B78002822D1674C002B0BD03221D5
:1006B0005F4803F087FD0123200077493B7003F07A
:1006C00081FD0B240EE02900200003F089FD0028A5
:1006D000F7D0FA210122694B200049001A70042446
:1006E00003F070FD624B5F4A1B781370B6E7664CEF
:1006F000002B07D132214E4803F064FD01233B70EB
:100700002370DEE72378002BDBD05C4B25701A7852
:100710000924002AE6D01D700234E3E7042008F023
:10072000F5FC03005A1E9341524A13704E4B0028A9
:1007300021D11978464D00290ED032213E4803F0D0
:1007400041FD012328005449337003F03BFD494B20
:10075000454A1B7813708CE7280003F041FD002800
:10076000F5D0FA210122464B280049001A700524D1
:1007700003F028FDEBE71B78444D002B07D1322115
:100780002D4803F01FFD012333702B70DFE72B781A
:10079000002BDCD03A4B2F701A78002A01D01F7042
:1007A000D5E70A24D3E7072008F0B0FC03005A1E5F
:1007B0009341314A2D4F137000281DD13978264DB1
:1007C00000290ED032211E4803F0FCFC0123314ADF
:1007D00031491370280003F0F5FC274B1B783B7060
:1007E0002FE7280003F0FCFC0028F6D00124FA21B2
:1007F000244B49001C70EDE73B78254E002B08D1B7
:1008000032210F4803F0DEFC0123224A33701370BB
:10081000E3E73378002BE0D01A4B35701A78002AC2
:1008200001D01D70D9E70624D7E7C046400E00204E
:100830005E0E0020480E0020680E0020500E0020A2
:10084000720E0020440E0020620E00204C0E00208C
:100850006E0E0020540E0020780E00205A0E00204C
:100860005C0E00201D0100201E0100201F01002041
:100870001A0100201B0100201C010020660E002030
:100880006C0E0020760E0020580E0020590E00201D
:100890005B0E00205D0E00201A040000F8B524272E
:1008A00006260C2502242F4B08001980012108F090
:1008B000D1FB3A002C492D480BF09EFD2C4B3A0001
:1008C0002C492D481E800BF097FD2C4B2A002C49FB
:1008D0002C481E800BF090FD2B4B2A002B492C48F6
:1008E0001C800BF089FD2B4B2A002B492B481C80C8
:1008F0000BF082FD2A4B2A002A492B48AD191C8097
:100900000BF07AFD294B2A0029492A481C800BF05C
:1009100073FD294B2A000134284929481C800BF01B
:100920006BFD284B2A00284928481C800BF064FDE9
:10093000274B3622274928481C800BF05DFD0922F1
:10094000264B27491A8027483A000BF055FD264BC5
:100950001822264926481E800BF04EFD0422254B06
:100960001A80F8BD400000207ADD0000A80C0020AD
:100970006213002026DD0000F80700205613002037
:100980002ADC0000700D0020641300206EDD0000E2
:1009900030070020541300201EDC0000E00B002074
:1009A0006013002062DD0000180B00205E130020A1
:1009B0009EDD0000D80400204E13002000E200005D
:1009C000A0050020501300206CE200006806002003
:1009D0005213002012E20000880900205A13002060
:1009E00048E20000500A00205C1300204ADD0000AD
:1009F000C00800205813002010B5012907D1C822D3
:100A00002F490BF0F9FC2F4B1B88180010BD022951
:100A100005D1C8222C490BF0EFFC2C4BF4E703293D
:100A200005D1C8222A490BF0E7FC2A4BECE7042940
:100A300005D1C82228490BF0DFFC284BE4E7052943
:100A400005D1C82226490BF0D7FC264BDCE7062946
:100A500005D1C82224490BF0CFFC244BD4E7072949
:100A600005D1C82222490BF0C7FC224BCCE708294C
:100A700005D1C82220490BF0BFFC204BC4E709294F
:100A800005D1C8221E490BF0B7FC1E4BBCE70A2952
:100A900005D1C8221C490BF0AFFC1C4BB4E70B2955
:100AA00005D1C8221A490BF0A7FC1A4BACE700236A
:100AB0000C29AAD1C82218490BF09EFC174BA3E7BA
:100AC000A80C002062130020F80700205613002015
:100AD000700D002064130020300700205413002004
:100AE000E00B002060130020180B00205E13002094
:100AF000D80400204E130020A00500205013002031
:100B00006806002052130020880900205A13002094
:100B1000500A00205C130020C00800205813002059
:100B2000F0B5B3B081B26846FFF766FF0A21050051
:100B3000154803F047FB00240321200008F03CFC8B
:100B400080B2A8421ED2104E0021300003F048FBB4
:100B50000028F8D06B466946671C7F00DA5B6300AB
:100B6000C95A0A4B188806F0EFF96A46A31C5B00C5
:100B7000D15AD35B3000C91889B2033403F022FB89
:100B8000A4B2D9E733B0F0BD8C13002040000020A0
:100B9000F0B5A54CA54DA5446B696A4606000F004B
:100BA0002800296905F074FCE022A14C6946200068
:100BB00092000BF021FC607CA37C002861D1002B0B
:100BC0005BD1FA22520062800222FF3222611A00B7
:100BD00098486360A360E36026756775A375A36199
:100BE000C2520233642BFBD100239C466146924AD9
:100BF0009A1802331180522BF8D100238F4A99188A
:100C0000002202330A802A2BF8D12388F733FF33DE
:100C1000DF19DF23BE1917009B00E650C25B0237C5
:100C200094466644642FF9D1E6500023824AD05A94
:100C300002333618522BF9D1DF2300219B00E650F6
:100C40007E4A505A023136182A29F9D1E022210071
:100C500092006846E6500BF0CFFB28006A692969CC
:100C600005F004FC6A4628006B69296905F0B2FBAF
:100C70007349744805F004FE0120E1239B009D4464
:100C8000F0BD00208342F8D16E4D6F49280005F079
:100C9000F7FD6E49280005F0F3FD0A22218828009F
:100CA00005F057FE0A226188280005F052FE0A224C
:100CB000A188280005F04DFE0A22E188280005F0F1
:100CC00048FE0A222189280005F043FE0A22618994
:100CD000280005F03EFE0A22A189280005F039FE11
:100CE0000A22E189280005F034FE0A22217C28002E
:100CF00005F02FFE0A22617C280005F02AFE0A2258
:100D0000A17C280005F025FE0A22E17C280005F0E0
:100D100020FE0A22217D280005F01BFE0A22617DAB
:100D2000280005F016FE0A22A17D280005F011FE1C
:100D30000A22218B280005F00CFE0A222800618B74
:100D400005F007FE2600B18B0A22280005F0FDFD04
:100D50003F4F2800390005F081FD3E4B02369E4290
:100D6000F1D1280005F084FD0026334B0A22995B5F
:100D7000280005F0EAFD02363900280005F06EFD76
:100D8000522EF2D1280005F073FD00262B4B0A22CB
:100D9000995B280005F0D9FD02363900280005F0DE
:100DA0005DFD2A2EF2D1280005F062FD63882088BF
:100DB0000022C018A3881B18E088C01823891B18BC
:100DC0006089C018A3891B18E089C018237C1B18F0
:100DD000607CC018A37C1B18E07CC018237D1B1806
:100DE000607DC018A37D1B18208BC018638B1B1857
:100DF0001048815A02325B18642AFAD100220E4947
:100E0000895A02325B18522AF9D100220B49895AB9
:100E100002325B182A2AF9D1DF229200A058C01AA8
:100E200043425841C0B228E77CFCFFFFEC0E002093
:100E30000C0F0020280F00208C0F0020DE0F002058
:100E400040D90000A01F00204DD9000062D9000049
:100E500073D90000700F00200839030010B5080096
:100E60000A2909D808F09EFA363B404508080808C8
:100E7000091E0600214AD38110BDFA22181CD20097
:100E8000934200DD101C030400D50020322100B283
:100E900008F01CFB00B2194A40304000835A01336D
:100EA0008352E9E7164A181C934200DD101C154BCB
:100EB00002B29A4200DA181C134B00B2C018142177
:100EC00008F004FB0D4B68304000181843880133CC
:100ED0004380D1E719004A1E9141084AD174190094
:100EE0004A1E9141054A117519004A1E9141034A53
:100EF0005175581E8341014A9375BDE70C0F0020C0
:100F000004100000E40C00001CF3FFFF00B50428EF
:100F100009DC002809DB0138114B032806D808F04A
:100F200041FA090D1115172814D000BDDA880132D5
:100F3000DA80FAE71A8901321A81F6E75A89013212
:100F40005A81F2E79A8901329A81EEE79A88013252
:100F50009A80EAE7024A538B01335383E5E7C046A0
:100F60000C0F002030B52B4900204A880B882A4CF2
:100F70009B188A88294D9B18CA88A5449B180A8902
:100F80009B184A899B188A899B18CA899B180A7CD6
:100F90009B184A7C9B188A7C9B18CA7C9B180A7DEC
:100FA0009B184A7D9B188A7D9B180A8B9B184A8B3D
:100FB0009B18DF2292008B502C5A02301B19642898
:100FC000FAD18B500022164CA05A02321B18522A1A
:100FD000FAD1DF2200209200124D8B502C5A0230A1
:100FE0001B192A28FAD18B50E022684692000BF098
:100FF00003FA0D4C20006269216905F037FA6A4650
:1010000020006369216905F0E5F9E1239B009D4417
:1010100030BDC0460C0F00207CFCFFFF280F0020D5
:101020008C0F0020DE0F0020EC0E0020F7B5A0256D
:10103000A126009200220193124B6D007600A2249B
:10104000A4465F889C4464461F801F002488A03704
:101050003C80F1249F5B64005F531F5B0132023CC4
:101060001F5302334F2AEAD1074B4C32FF329852BA
:10107000064A99520099064A9952064A019999528C
:10108000F7BDC046081000200C0F00203A020000F7
:10109000DA0200007A03000030B5394C3948A54423
:1010A00001AD436901692A0005F0F2F9E022364CEE
:1010B0002900200092000BF09FF923683348019328
:1010C00063680293A3680393E3680493237C2B82F1
:1010D000637C6B82A37CAB82E37CEB82237D2B83DE
:1010E000637D6B83A37DAB83238BEB83638B2B842B
:1010F0000023C15AEA1802335184642BF9D18A22A1
:10110000002323486A44C15AD1520233A02BFAD19A
:101110009522002352001F486A44C15AD15202331B
:10112000A02BFAD1E522002352001B486A44C15A81
:10113000D1520233A02BFAD10023184A18486A442E
:10114000C15AD1520233A02BFAD10023154A1648B6
:101150006A44C15AD1520233522BFAD100231348A8
:10116000D7AAC15AD15202332A2BFAD1C221280060
:10117000FF31FFF761F9E3239B009D4430BDC0467A
:1011800074FCFFFFEC0E00200C0F0020280F002045
:1011900008100020A8100020481100206A0200005A
:1011A000E81100200A0300008C0F0020DE0F002051
:1011B000074B70B504001A003234057801309D8366
:1011C0000233A042F9D11183FFF7CCFE70BDC046B7
:1011D0000C0F0020064B01001A0010B532319C8B19
:1011E0000233047001308842F9D1108B10BDC04623
:1011F0000C0F0020F0B595B007AF3800FFF7EAFFFD
:1012000000243A4D0590280004F0F0FE0221280049
:1012100004F0BDF8280036492C6105F01FFB0C23B3
:10122000059A03265343334A403B1BB21380A34223
:1012300033DA314B1C80059BA34212DD2E4E3B5D01
:101240000022B15E0222029200220192013200923B
:1012500028000F3204F012F8338801340C33338045
:10126000E9E7280005F022F815B0F0BD1F4805F0A9
:101270001DF80A2007F0B8FB0A2007F0B5FB0A208A
:1012800007F0B2FB0A2007F0AFFB0A2007F0ACFB27
:10129000013403E0013E002EE6D000240321154B6B
:1012A00000229A5ED3170B409B189B100133A34278
:1012B000F0DB042300255B4263430F4A1380059B48
:1012C000AB42D3DD0C4F07AB0022B95E0222EB5CD0
:1012D0000292002201920132009204480F3203F080
:1012E000CDFF3B8801350C333B80E8E7AC040020A0
:1012F00075D90000DE120020C80E0020F0B585B0C0
:10130000002903D04D4B1A684D4B1A6009F0E4F8E0
:10131000051C0AF007FF4B4C02000B0020004A4955
:1013200005F0B8FA464E4949306808F0C7FC8321F9
:10133000071CC905281C08F0CDFD454908F0BEFC76
:10134000011C381C08F0E0FE051C0AF0EBFE020050
:101350000B0020003F4905F09DFA3F4F38680AF026
:10136000E1FE02000B0020003C4905F093FA3868CA
:10137000291C08F0C9FE051C0AF0D4FE02000B006F
:101380002000374905F086FAFF21281C890508F05E
:10139000A1FD01900AF0C6FE02000B0020003149B9
:1013A00005F078FA304F281C396808F0EBFA2F491D
:1013B000386008F08FFD02900AF0B4FE02000B00C6
:1013C00020002B4905F066FA2A4F386809F084F8A6
:1013D000011C281C08F098FE274908F07BFD0390AB
:1013E0000AF0A0FE02000B002000244905F052FA8A
:1013F0003068164908F062FC019908F0C3FA0299B6
:1014000008F0C0FA039908F0BDFA30600AF08AFECD
:1014100002000B0020001A4905F03CFA0B49306825
:1014200008F058FD041C3060281C09F035F83860BD
:10143000201C09F031F805B0F0BDC046380E002080
:10144000E4130020D422002079D9000000002041BC
:1014500000007A4489D900003C0E002094D9000095
:10146000A0D90000AFD90000080F00208FC2F53CC2
:10147000BAD90000181300200AD7A33CC5D9000030
:10148000D0D9000070B50E1C0A49041C08F016FCE7
:101490008321051CC905301C08F01CFD064908F015
:1014A0000DFC011C281C08F02FFE044B1860044B97
:1014B0001C6070BD0000204100007A443C0E0020FA
:1014C000380E002010B50449044805F0E3F9FA206D
:1014D000800007F089FA10BDDAD90000A01F0020B3
:1014E000F7B505000C200E000192082707F0EAFB73
:1014F0000024280007F050FC013F041924B2002FFB
:10150000F7D10723E017184004192248E410444398
:10151000E0170005000D0019FA240013604396211E
:1015200007F0D4FF64251C4BC4186C431B4B9C4232
:1015300015DB1B4B9C4228DC20001A4907F0C6FF34
:10154000194B05B29C420CDC0123019A092013704F
:101550003370FFF7E5FAFEF725FF2800FEBD3D00DA
:10156000F2E7124B9C4210DC019B19241F700123EF
:101570003370FEF7F7FE0B20FFF7D2FA0A20013C8A
:1015800007F032FA002CF9D1E7E70023019A337013
:101590001370E2E7B80B00001CF3FFFF13FDFFFF21
:1015A000E5270100EE02000093110000DF2E00008D
:1015B00030B5002185B04948002404F0FBFCE0224E
:1015C000474B48499C709200474804F0EBFE642169
:1015D000464B14229C70464B96209C70454B8000D5
:1015E000D980FA215A80F6321C809A80424B8900B9
:1015F0001C8059809A80D880404B41481C8058807C
:10160000C82080009A80D8803E4B0B2059803E49EC
:101610001C809980C8214900D9803C4B3C499A8064
:10162000423ADA80C8221C8059803A4B12015A8013
:101630000222FF321C809A809622374D1201DA80F6
:101640002880012107F006FD0023E85E210007F055
:1016500031FD324D22002800302102F085FF0023A9
:10166000322202210092019328000294313A03F0C1
:101670004BF82B4B9C702B4B9C702B4B9C702B4B2B
:101680009C702B4B9C702B4B9C702B4B9C702B4B52
:101690009C702B4B9C702B4B9C702B4B9C702B4B42
:1016A0009C702B4B9C702B4B9C702B4B9C702B4B32
:1016B0009C702B4B9C702B4B9C702B4B9C702B4B22
:1016C0009C702B4B9C702B4B9C702B4B9C702B4B12
:1016D0009C702B4B9C7005B030BDC046AC04002004
:1016E0008C13002000DE0000EC0E002020130020F0
:1016F000820E0020860E0020E2120020FC12002044
:1017000088130000E8130020010A000034130020B1
:101710006C0700008E1200205C04002054010020A1
:101720001C130020C813002094130020C0130020B5
:10173000DC130020B0130020A81300209813002011
:10174000AC1300209C130020C4130020B813002009
:10175000B413002090130020E01300208013002019
:1017600088130020D4130020D0130020CC130020B5
:10177000D8130020A0130020BC130020A4130020C5
:101780008413002073B51B4C06000421200003F0D5
:10179000FEFD194B002163611E230A002000019108
:1017A0000093223303F0E6F80A21300007F08EFEA2
:1017B0000A2501B26D424D430F23AD19632E00DDA2
:1017C0000E4B23610A22200005F0BFF8012301938C
:1017D0000233200000931922262103F0CBF82C239A
:1017E00029000A222361200005F0AFF8200004F050
:1017F0005DFD73BDAC04002001000100FCFF000092
:10180000F0B5334C060085B0200004F0EFFB6425F2
:10181000642E02DCF543ED1735400321200003F070
:10182000B6FD2C4B002163611C230A0000932000AD
:101830000191243303F09EF8092E3EDC264B29004B
:1018400023610A22200005F080F8002601272023CA
:101850000822200001930092322132001F4B039690
:10186000029703F089FB20230822200001930092B5
:101870003A2132001A4B0396029703F07DFB1223A4
:1018800000930C3B1A0020003621019703F072F8F8
:101890000A20372168434942019607F017FE0623C4
:1018A000123000B21A0036210090200003F062F8D6
:1018B000200004F0FBFC05B0F0BD132E01DC094B49
:1018C000BDE7632E01DC084BB9E78023DB02B6E7F6
:1018D000AC040020010001001F00040000000020F3
:1018E00020000020120004000D000400F0B50123C8
:1018F00005002A4C2A4E85B0002923D023600023FE
:1019000033602368274F9BB2019320231E2200934C
:1019100002213800DB1803F02DF8002D14DC2368B9
:1019200038009BB2019320231E2200930221DB1872
:1019300003F020F8380004F0B9FC1A4804F0B6FCB3
:1019400005B0F0BD2160DBE7291C0F2D00DD0F2164
:1019500000250BB203933368124F9BB20193072308
:10196000ADB2A90000931E22053B380009B203F076
:1019700001F80135039B2DB2AB42ECDA1900236864
:1019800001319BB201931223890000931E2238007B
:1019900009B22E3302F0EEFFCFE7C046A80E0020BA
:1019A00040010020AC04002070B50A4C0D0000225C
:1019B000A35E834200DA20800023E05EA62153303C
:1019C00007F084FD290000B2FFF790FF0023238079
:1019D00070BDC0467C0E002013B5134B0124134A82
:1019E000002914D000211C601160114C002811D076
:1019F000136800219BB2019307231E220093053B2D
:101A0000200002F0B7FF200004F050FC13BD196065
:101A10001460EAE71B681E229BB2019307230100B2
:101A20000093053BECE7C046A80E002040010020D3
:101A3000AC040020F0B500250224012689B0FEF791
:101A4000D7FBCC4F380004F0D1FA0221380003F064
:101A50009EFCC94B3D617B612A001B232900380095
:101A600002940195009603F009FC41232A001C21F1
:101A7000380002940195009603F000FC1A232A0016
:101A80003421380002940195009603F0F7FB3800EA
:101A900004F00CFC1022B94B1D80B94B1A80B64BD8
:101AA0000793B84B1B78002B00D006E2B64D2B886D
:101AB0000B2B2DD10020FEF763FDFA212880490071
:101AC000B24802F08DFB0028F0D0B14BB14D00219F
:101AD000595EAB4B00229A5E2B78002B0FD000236F
:101AE00001260193009616333800029403F0C6FBDA
:101AF0002B785E402E70380004F0D8FBD6E701202A
:101B00002870009002943800019303F0B7FBF2E7CD
:101B1000092B01D0042B32D19F4AA04E1288337872
:101B2000013A0021934201D00133D9B2317000252E
:101B30000E232A000093102116333800019502F07D
:101B400019FF3378964AD35C112B12D11023954993
:101B50003B61380004F082FE934B1B78002B35D19B
:101B6000380004F0A3FB0020FEF70AFD864B188026
:101B700097E7FA2B13D110238C493B61E9E70A2B35
:101B800001D0052B15D1854E3278531EDBB2002AC9
:101B900003D1814B1B88013BDBB23370C7E70122C5
:101BA0001C21009238002A000294019503F066FB84
:101BB000D2E7062B01D0012BCED1784B784A1B7887
:101BC000D25CFA2A45D1784BF93A1A7000260125E1
:101BD000380004F00BFA5923320031003800029427
:101BE0000196009503F04AFB4E2332003421380061
:101BF00002940196009503F041FB059606956A4E06
:101C00003378002BACD00020FEF7BAFC5E4B80B2DC
:101C10001880092802D0042800D081E00025069B06
:101C2000102229003800009302942B00019503F044
:101C300025FB069B102200933421182338000294C0
:101C4000019503F01BFB01230593380004F02EFBE4
:101C5000D5E7574B1B88112A3BD1002B11D000210F
:101C6000544AD218013A1170013B1A1C9BB20F2B37
:101C700000D90F224E4B91B21A804F480A2204F02D
:101C800068FE1022002540232900009238000195AB
:101C900002F070FE464B394A198804291DD8158078
:101CA000364E0023F15E424B1B88AB4233DD344A93
:101CB000404B0020125E0020EB5C01900130009050
:101CC0000294380003F0DAFA338801350C3333809C
:101CD000E6E73849CA540133C7E70C235B424B435C
:101CE00034331380254E0023F15E314B1B88AB4209
:101CF00011DD234A2F4B0020125E0020EB5C019087
:101D0000013000900294380003F0B8FA33880135AE
:101D10000C333380E6E7194B1A881D4B1A801BE7FA
:101D20000A2801D0052816D10025069B102229007B
:101D30003800009302941823019503F09FFA069B44
:101D40001022009334212B0038000294019503F0F7
:101D500095FA022378E7062802D0012800D074E71C
:101D6000059B022B2AD1074B069A1A700023337069
:101D70006BE7C046AC04002001000100C80E002043
:101D8000CC0E0020CE0E0020A00E0020820E0020DF
:101D9000CA0E00206901002062010020A40E00206C
:101DA00020010020EDD900007E0E0020F1D90000B6
:101DB000DC120020A8120020A01F0020059B002597
:101DC000012B78D13800357004F010F9210038006B
:101DD00003F0DDFA079B3D617B61059B2A0029002A
:101DE0003800009302941B23019503F047FA059BEA
:101DF0002A001C213800009302944123019503F02E
:101E00003DFA059B2A0034213800009302941A23DE
:101E1000019503F033FA380004F048FA102140230A
:101E20000A0000913800019502F0A4FD744B754A38
:101E30001988042919D81580724E0023F15E704B61
:101E40001B88AB422FDD704A704B0020125E0020D1
:101E5000EB5C0190069802940090380003F00EFAB3
:101E6000338801350C333380E6E70C235B424B4368
:101E700034331380634E0023F15E614B1B88AB4209
:101E800011DD614A614B0020125E0020EB5C019085
:101E9000069802940090380003F0F0F93388013579
:101EA0000C333380E6E7574B1A88594B1A800022CF
:101EB000584B1A70C9E60595C7E60024380004F0AF
:101EC00095F8554938003C6104F0C8FC4C4B534828
:101ED0001A880C2353439BB21900403909B2018080
:101EE000A1422CDA0226474B1C80454B1B88A3429B
:101EF00014DD444D444A454B0021525E0020295ECA
:101F00000020E35C0190013000900296380003F05D
:101F1000B5F92B8801340C332B80E6E7380004F048
:101F2000C5F9374B39481988FFF742F9C8240A2008
:101F3000013C06F059FD002CF9D109B0F0BD1400A8
:101F4000324988180138013C02D306784671F9E716
:101F50005700C81949000D0005240026391A013C14
:101F600006714E550138002CF8D125490A320A80F5
:101F70002A4A38331380033400250321274B0022DB
:101F80009A5ED3170B409B189B100133AB4233DB97
:101F9000042300265B426B431A4A1380184B1B88AC
:101FA000B34215DD174F184A184B0021525E00202E
:101FB000395E0220F35C0290002001900130009015
:101FC000174803F05BF93B8801360C333B80E5E7AB
:101FD000134804F06BF90A2006F006FD0A2006F00B
:101FE00003FD0A2006F000FD0A2006F0FDFC0A2091
:101FF00006F0FAFC0135C0E7013C002CBCD190E7AB
:10200000DC120020C80E0020CC0E0020A8120020F8
:10201000CA0E0020A40E002075D90000DE12002098
:10202000AC0400200023F0B50125B74F87B03B700A
:10203000B64C2388A12B00D1DAE0A22B00D1F5E029
:10204000032007F063F8002800D0FBE00A2006F028
:10205000CBFCF5E73B780493002BE9D02388A12B38
:102060005ED10025AA4C0226200003F0BFFF02210A
:10207000200003F08CF9A7492000256104F0EEFB55
:102080001E2320002361A44904F0E8FBA34B1F7822
:102090000296AF4200D00CE101231D0000931022F4
:1020A0003B0008212000019703F0E8F82B0002967E
:1020B00001970095173310222C21200003F0DEF841
:1020C0000120FEF75DFA01270A2006F08DFC0020B2
:1020D000FEF756FA924B80B28D4E1880092802D036
:1020E000042800D0F4E0002502231022082130004B
:1020F000029301952B00009703F0C0F802231022F1
:1021000002932A21163330000195009703F0B6F8A8
:10211000824B1D70049D7E4804F0C8F8002DD3D179
:102120007A4B1B88A22B61D10025794C0226200016
:1021300003F05CFF0221200003F029F9754920001B
:10214000256104F08BFB1E2320002361724904F0FB
:1021500085FB744B1F780296AF4200D077E10123D4
:102160001D00009310223B0008212000019703F07E
:1021700085F82B00029601970095173310222C2129
:10218000200003F07BF80120FEF7FAF901270A206E
:1021900006F02AFC0020FEF7F3F9614B80B25C4E9A
:1021A0001880092802D0042800D05FE1002502230E
:1021B000102208213000029301952B00009703F0B4
:1021C0005DF80223102202932A2116333000019574
:1021D000009703F053F8534B1D70049D4C4804F0D6
:1021E00065F8002DD3D101224F4B1A7007B0F0BD16
:1021F000474E300003F0FAFE2900300003F0C7F824
:102200004A4B4B493361300004F028FB0022202365
:102210001100300000930195DB1802F0DFFB300065
:1022200004F044F80720FEF77BFC09E7384E300045
:1022300003F0DCFE2900300003F0A9F83D4B3E49D5
:102240003361E0E7042006F061FF002800D1FDE6DD
:1022500032260A20013E06F0C7FB002EF9D12800E5
:10226000FEF78EF9354E30800022B35E0B2B00D086
:10227000F0E60A2006F0B8FB0020FEF781F9308076
:10228000092801D0042805D12388A22BECD1A12351
:102290002380E9E70A2801D0052804D12388A12B4F
:1022A000F3D10133F4E7062801D00128DCD13D70D9
:1022B000DAE701231F0000931022173308212000C2
:1022C000019502F0DBFF2B00029601950097F2E6E4
:1022D0000A2801D0052833D1002502231022082125
:1022E0003000029301951633009702F0C7FF0223D6
:1022F000102202932A212B0030000195009702F052
:10230000BDFF064B1F7005E7E40E002050010020C2
:10231000AC04002006DA000009DA0000DA1200201E
:10232000A00E0020031400206801002011000C0002
:10233000F5D9000003000C00FBD900003C0100208F
:10234000062803D0049D012800D0E4E600252000E3
:1023500003F04CFE3900200003F019F895492000E5
:10236000256104F07BFA10231022009329003033FA
:102370002000019702F032FB10230593642128000E
:1023800007F0A4F8059A03B20021300000920197EB
:10239000102202F0EFFA0A2006F026FB0A2006F0CF
:1023A00023FB300003F082FFCA2340355B019D42CE
:1023B000E4D132250A20013D06F016FB002DF9D1AB
:1023C0007D4E09213078FEF747FDFEF7CBFD3378CF
:1023D00020007A4E002B1DD003F008FE02212000C1
:1023E00002F0D5FF31002561200004F037FA802388
:1023F0005B0373492361200004F030FA200003F0EE
:1024000055FFC8350A20013D06F0EEFA002DF9D13E
:10241000002580E603F0EAFD0221200002F0B7FF6C
:1024200031002561200004F019FA80235B0365491F
:102430002361200004F012FA200003F037FFC825C2
:102440000A20013D06F0D0FA002DF9D1E0E7012382
:102450001F0000931022173308212000019502F07D
:102460000DFF2B0002960195009787E60A2801D000
:10247000052817D1002502231022082130000293DD
:1024800001951633009702F0F9FE02231022029301
:102490002A212B0030000195009702F0EFFE4A4BF5
:1024A0001F709AE6062803D0049D012800D095E607
:1024B0000025200003F09AFD3900200002F067FF9C
:1024C0003C492000256104F0C9F910231022009333
:1024D000290030332000019702F080FA1023059381
:1024E0006421280006F0F2FF059A03B200213000B3
:1024F00000920197102202F03DFA0A2006F074FAC9
:102500000A2006F071FA300003F0D0FECA234035ED
:102510005B019D42E4D132250A20013D06F064FAB8
:10252000002DF9D1284E0A213078FEF795FCFEF7F0
:1025300019FD33782000254E002B1DD003F056FDE9
:102540000221200002F023FF31002561200004F069
:1025500085F980235B031A492361200004F07EF98A
:10256000200003F0A3FEC8350A20013D06F03CFA26
:10257000002DF9D1002531E603F038FD02212000BD
:1025800002F005FF31002561200004F067F9802387
:102590005B030C492361200004F060F9200003F084
:1025A00085FEC8250A20013D06F01EFA002DF9D14E
:1025B000E0E7C0460DDA0000DA120020F5D900008D
:1025C00006DA000009DA00000314002017DA000020
:1025D000E121F0B5BC4D87B02800090205F028FEC6
:1025E000BA49280004F04CF9B94801F06DFEB94829
:1025F00001F0D2FDB84C02002080B849280004F058
:1026000049F92388B64CDA0700D406E12800B54919
:1026100004F036F9102323800221072006F01AFD6A
:102620000221032006F016FD0221042006F012FD0F
:1026300001210D2006F00EFD0121080006F00AFD23
:1026400001210D2006F036FD0121080006F032FDC3
:1026500023881A00113A012A00D843E3152B00D130
:10266000AFE2A14B11201988FEF718F9FDF7C0FD64
:1026700000210800FEF78CFA002802D101229B4BB2
:102680001A709B4B1B7C002B00D105E10122994B5A
:1026900099481A7003F0AAFCFA219848890001F0C1
:1026A00091FD944B1C78002C00D1E6E00F20FDF743
:1026B0002BFD0A23924C0F2160430013584306F070
:1026C00005FF904B18801220FDF71EFDD023272117
:1026D000584306F0FBFE44438B4B241300218748EC
:1026E0001C8001F07DFD002848D0884B884F1C6875
:1026F0003868210006F060FE864E210038603068A0
:1027000006F05AFE002300227B4C306001932033F8
:10271000110020000093123302F02CF90121200057
:1027200002F035FE002320003A687B49236104F063
:10273000B1F880235B03326878492361200004F0FC
:10274000A9F8774A3B6877499B1832222261642BAB
:1027500000D97549200004F09DF8C821734A3368F8
:1027600089009B18724A22618B4200D97EE06D4934
:10277000200004F08FF8200003F098FD64216D48DC
:1027800001F02EFD002817D0614A5E4B11681B88AE
:102790000D205B1813605F4A5B4B11681B885B1848
:1027A00001211360594A136801331360624B1A7890
:1027B0005140197006F07EFC3221604801F010FD96
:1027C000002807D001215E4B0B201A785140197068
:1027D00006F070FCFA215B48490001F001FD002879
:1027E00010D0434B0A222800198804F0B2F8564C46
:1027F00056482278002A3BD000223C21FDF79AFC63
:1028000000232370072006F081FC002800D048E751
:10281000374B1874374B187043E79A0705D52800D3
:102820004B4904F02DF81123F5E65A0705D5280089
:10283000484904F025F81223EDE6DA0605D528000C
:10284000454904F01DF81423E5E69A0605D528004D
:10285000424904F015F81523DDE65B0600D4DBE6FB
:1028600028003F4904F00CF81623D4E62E497FE7F0
:102870007821FDF75FFC0123C3E721000B2006F060
:1028800019FC01210D2006F015FC220032212F48F1
:10289000FDF750FCFEF766FB1320324A3249FEF783
:1028A0001FFE0024314F38802000FEF7A9FF2100D1
:1028B000642006F00BFE00250600AE4258D0012031
:1028C00006F092F80135F8E7A01F00201DDA00009D
:1028D00008140020041400202613002026DA00002B
:1028E000241300202CDA000040000020D60E002027
:1028F0000C0F002076130020AC040020D813002019
:10290000B80B0000281300202E130020C40E002056
:10291000781300207C13002084DA000089DA00009C
:102920004AFCFFFF8EDA000091DA000050E2FFFF60
:1029300032001000D413002077130020D0130020A1
:1029400075130020CC130020741300205C040020B9
:1029500041DA00004DDA000059DA000068DA0000C0
:1029600077DA0000D70E0020DE0E0020A20E002035
:102970003B880134A34297DA64240A20013C06F024
:1029800033F8002CF9D1FDF7C1FCDD4CE37C002BC2
:1029900000D0BDE0FDF7BAFC0320FEF7C1F8E289E4
:1029A000D84B1A80002A00D1BCE0227DD64BD749F3
:1029B0001A70627DD64B1A700023D64A1380D64A0D
:1029C0001380D64AD488201C8C4201D9D448008870
:1029D0001080D44A1380D44BD888021C884201D975
:1029E000CF4A1288D149D2481A8001F0EBFBD14E70
:1029F0003378002B00D1F2E0032006F087FB00289B
:102A000000D093E0043006F081FB051E00D08DE07D
:102A1000C94C2778002F00D1AFE0C84C0127200017
:102A200003F0E4FA0121200002F0B1FCC4492000C7
:102A3000256103F013FF1022019740232900200095
:102A4000009201F0CBFF059709376421280006F0BA
:102A50003DFD059A03B20192102200210092200050
:102A600001F088FF380005F0BFFF380005F0BCFF1B
:102A7000380005F0B9FF380005F0B6FF380005F062
:102A8000B3FF200003F012FCCA2340355B019D42D6
:102A9000DBD1C8250A20013D05F0A6FF002DF9D1A4
:102AA000FDF734FCC8350A20013D05F09DFF002DDF
:102AB000F9D1200003F09AFA2000012102F067FC0E
:102AC000A04B20002361A04903F0C8FE012301931D
:102AD0001F332A00290020000093203301F07EFFDD
:102AE000200003F0E3FBC8240720FEF719F8640078
:102AF0000A20013C05F078FF002CF9D1FEF79AFF7F
:102B000008210120FEF7A8F9FDF700FC34703EE033
:102B1000FEF770FBC8250A20013D05F065FF002D7A
:102B2000F9D137E73222E2811A803EE7002180485E
:102B300001F056FB041E3BD1844B00229B5E012B0F
:102B400025D10221824A30701180824A1070824A57
:102B50001070824A1380824A1070824A1070824A32
:102B60001370824A1370FDF759FBFA2180488900DF
:102B700001F028FB7F4B1C7009E07F4D0023E95ECC
:102B800001290AD17D497E4801F01CFB2F800020DD
:102B9000FDF7F6FC6D4B188029E70029F7D178483E
:102BA00001F01EFB0028F2D0012323702B80EEE7FA
:102BB000002302223370694B1A80654B013A1A8058
:102BC000E5E71720FEF7A2F900210800FDF7E0FF76
:102BD000002802D101226B4B1A70FEF7C3F905F0F1
:102BE000D3FE694B474F186064233A880F20534344
:102BF000664A0A249B18494A604D5380FDF784FABF
:102C0000684300130F21604306F060FC604B18809E
:102C10000F2006F0C1F86843000B0F21604306F057
:102C2000CBFB5C4B18601220FDF76EFAD0232721F6
:102C3000584306F04BFC0300FA216B43564A1B1322
:102C40001380534A98B212888900504306F03EFC24
:102C5000524B18801320FDF757FAFA2368430013EC
:102C60009621584306F032FC4D4C494B4D4E208086
:102C700019883000FDF792FA0595002800D1A3E0ED
:102C80000122494B1A70324B00255D5F022D00D0A6
:102C9000EFE00127454D464E2978464C3770002914
:102CA00006D1334801F09CFA002800D193E02F7040
:102CB0002378002B00D095E03378002B00D1AAE0D8
:102CC00001233D493D4A13202370FEF709FC3C4B8C
:102CD00080B21880FEF794FDFA213A48890001F08D
:102CE00071FA98E0122B00D079E700210800FDF777
:102CF0004FFF002800D072E70122224B1A706EE7C6
:102D00000C0F002066010020DA120020FEFF0000F8
:102D100003140020E2120020FC120020E81300201F
:102D2000EADA0000341300208E120020881300001D
:102D3000E01300204E010020E30E0020AC04002030
:102D400095DA000008000C00A0DA00003C01002029
:102D5000640100206A130020DC0E00204C010020DA
:102D6000E20E0020E70E0020D80E002068010020AF
:102D7000AC130020480100204A010020B80B0000DD
:102D800080130020D60E00206C13002030F8FFFFC7
:102D900028130020301300202E1300202A130020B7
:102DA0002C130020860E0020E0120020E10E0020EF
:102DB000E80E0020D50E0020DE0E0020D70E0020E9
:102DC000A20E0020941300203388002B00D05AE775
:102DD000DC4A137057E72A782378002A00D067E787
:102DE000002B18D0D84D0021280001F0F9F9002857
:102DF00006D1D64B00229B5E012B0CD1D44B35E083
:102E0000D34C2378002B30D0FA212800890001F020
:102E1000D9F900232370CF4DCF4C0022AB5ECF4EAB
:102E2000022B01D000F0DEFFCD4A1378002B01D138
:102E300001F02CF804232B8000231370C94ACA49DF
:102E40001370CA4A0B70CA491370CA4A0B702370B8
:102E500001331370C84AC949C948137001F0B2F967
:102E6000FA21C848890001F0C3F8BD4B01221A704D
:102E7000D1E7002D62D0042D01D000F0D3FCC24C6C
:102E8000217800291ED1BF4801F0AAF9002819D0E5
:102E90000122B84B21001A701320BC4AFEF720FB18
:102EA000BB4B80B218802378002B0BD0FEF7A8FC18
:102EB0004B240A20013C05F097FD002CF9D101229A
:102EC000AD4B1A70A14BAE4C00229B5E0B2B00D079
:102ED0006DE20021200001F083F900280CD0AD4AFA
:102EE000138801331BB213801E2B00D05AE201213C
:102EF000A94B197000231380032006F007F9A74D92
:102F0000002814D1043006F001F900280FD1A4499B
:102F1000A44801F057F9032006F0F8F8002800D182
:102F20004DE20120FDF72CFB00229F4B1A8000236D
:102F30009E4A2B7013609E4A138048E09D4B9E4E24
:102F400019883000FDF72AF9002814D00122142432
:102F50009A4B03201A709A4B1C80FDF7D7FF002371
:102F6000FA5E8B4B35800021595E964B0020185E2F
:102F70002300FEF75BF8944B1C78002C00D039E15D
:102F800021000D2006F096F8904D220032212800F5
:102F9000FDF7D0F8462005F027FD8D4B1E78002E5A
:102FA00053D131000D2006F085F82800320064214D
:102FB000FDF7C0F82D2005F017FD01222800398803
:102FC000FDF7B8F801235F4A13707F4A137003209E
:102FD00006F09CF85F4E002800D14DE200217D48AC
:102FE00001F0FEF8002800D041E3584B624D00226A
:102FF0009B5E0B2B00D052E3774B1A78002A01D04E
:1030000000221A700021754801F0EAF8002800D16A
:103010006DE3012300222B70634B1A80644B002068
:10302000185E002801D0FDF77BFD0023F85E6C4B95
:103030001B78002B05D06B4B1B78002B01D000F0C8
:10304000E5FBFEF79FFB00F0EAFB2200322128009F
:10305000FDF770F821000D2006F02CF8322005F065
:10306000C3FC32260A24012231005848FDF762F8D9
:103070000F2005F091FE059B0F215843000B604384
:1030800006F09AF9584B81B218605848FDF786F857
:10309000142005F0A9FC07360F20FDF735F8782E2F
:1030A000E1D10F2005F078FE059B0F215843000B5E
:1030B000604306F081F93F4B0A241880122005F086
:1030C0006BFED0232721584306F076F9FA21059BA1
:1030D000474A43431B0B1380364A98B21288890033
:1030E000504306F0F3F9374B18801C4B00B21978A7
:1030F000FEF75AFC3D880A21701B06F0E7F9010033
:1031000061434919314D01222800FDF713F80F20C2
:1031100005F042FE059B0F2158430A23000B58433C
:1031200006F04AF9304B81B218603048FDF736F8A6
:10313000062005F059FC0F20FCF7E6FF013CD9D230
:103140003BE7C046E0120020941300203C01002021
:10315000D30E0020640100206A13002068130020B1
:10316000DB0E0020E80E002002140020D50E002007
:10317000E10E0020D90E002068010020307500000B
:10318000A8130020C0130020DE0E0020D70E002060
:10319000A20E0020AC0E0020E60E0020E00E002063
:1031A000EE020000A01300208C120020C00E0020B0
:1031B000661300202813002034130020DA0E0020AC
:1031C000D00E00202A1300207F0E00205C04002077
:1031D000DA120020BC130020E50E0020C4130020EA
:1031E00003140020040F002030130020860E00205E
:1031F0002E130020FA21D648890000F0F1FF0028A4
:103200003AD0D44AD4491368013313600A680132B2
:103210000A60062B30D1D14B6421188806F0CCF817
:10322000CF4BD04C0021595E02B20023E05E002358
:10323000FDF7FCFE0023E05E1021FDF70DFECA4BFA
:10324000CA4A1B88181C1BB2934200DD101CC84BD5
:1032500002B29A4200DA181CC64B00B2C018142100
:1032600006F034F90022C44B683040001818438837
:1032700001334380B74B1A60BB4BC04C1988200008
:10328000FCF78CFF00281ED12388002B1BD1E2887D
:10329000BB49131C8A4201D9BA4B1B882380BA4B05
:1032A000AD4C1D78002D72D0962322685B009A42A7
:1032B00009D3FDF757F80B20FDF732FC0122B34B81
:1032C0001A7000232360B24BB24E19883000FCF70D
:1032D00065FFA44C002813D001201025AE4B1870B8
:1032E000AE4B1D80FDF712FE002333800023FA5EF3
:1032F0009B4B0021595E0023E05E2B00FDF796FEFC
:10330000A74D21882800FCF749FF002814D001228E
:10331000A14B99491A701123A04A1380CA8801321F
:10332000CA8000222A8000217A5E8D490020095E31
:103330000025605FFDF77AFE884B9A481988FCF7F4
:103340002DFF002800D042E6964B1B88002B00D0B2
:103350003DE60122904B02301A70904B11321A80D8
:10336000FDF7D4FD8F4B8649DA88131C8A4201D9B8
:10337000844B1B888B4A13800023FA5E784B002114
:10338000595E0023E05E1223FDF750FE1FE6012682
:103390001E70FCF7E7FF0B20FDF7C2FB7B4B25609F
:1033A0001E7090E72000804900F00CFFA4E520008B
:1033B0007D4900F007FF00227C4B1A809CE5042029
:1033C00005F0A4FE041E00D0ABE52B780593002B7E
:1033D0004CD17749774800F003FF002826D0764E7D
:1033E0000320336801333360FDF79AFB3368734C75
:1033F000012B22D1200002F0F9FD08238026236151
:103400000221200001F0C3FF76036D49200003F084
:1034100025FA02212000266101F0B9FF69492661E1
:10342000200003F01BFA654802F040FF0122574BD1
:103430001A700B23644A13806DE5022B04D180239C
:103440005B0362492361EBE7032B04D180235B0319
:103450005F492361E4E7042BE5D120005D4903F0D7
:10346000FDF901232B70059B3360DCE7FEF7DAFDE5
:10347000514B2C701C60D9E7072005F047FE041E55
:1034800000D0ABE5544B1D780023F65E002E00D033
:10349000B7E04A4C002D44D14F4B01361E703C4BD7
:1034A000188807F05FF80590388807F05BF80599F1
:1034B000FDF7E8FF200002F099FD3100200001F047
:1034C00066FF464B46492361200003F0C7F9454B90
:1034D00045492361200003F0C1F920232A00290077
:1034E00000930196DB18200001F078FA200002F02A
:1034F000DDFE200002F07AFD0720FDF711FBFA2027
:10350000800005F071FA032005F000FE002871D05C
:103510000120FDF735F801222B4B18801B4B1A7048
:1035200063E52D4B20001E7002F060FD012120009C
:1035300001F02DFF2D4B2E492361200003F08EF961
:10354000012301931F330093320031002033CAE777
:10355000B4130020B00E0020B40E00202E13002063
:10356000A20E00202A1300202C13002004100000BB
:10357000E40C00001CF3FFFF0C0F00208E12002053
:10358000FEFF0000EADA0000DF0E002068010020E4
:1035900028130020E2120020DA0E0020D00E0020B6
:1035A000FC120020E813002030750000AC0E002053
:1035B000EE020000A0130020C00E0020AC0400208A
:1035C000A9DA000057DA00003C010020AEDA000062
:1035D000B3DA0000B9DA0000681300200F0007001A
:1035E000BFDA00000F001200C6DA00000F000C0066
:1035F000CDDA0000072005F089FD002800D182E720
:1036000086E7002D00D1F0E4AA4DAB4B18702800DE
:1036100002F0ECFC0121280001F0B9FEA74BA849FB
:103620002B61280003F01AF9012301931F332200B4
:10363000210028000093203301F0D0F9280002F087
:1036400035FE280002F0D2FC0720FDF769FAFA20C7
:10365000800005F0C9F9032005F058FD002800D0CE
:1036600056E7072005F052FD0028F4D050E700226D
:10367000B35E002B00D0B8E4924B188806F072FFBE
:10368000041C388806F06EFF211CFDF7FBFE0123A9
:103690008D4A1370884A13708C4A1370A5E4002178
:1036A0008B4A1180012B74D18A4E32888A4207D10D
:1036B00089490B70804B1978884B19707E4B1A70B2
:1036C000FA21013286488900328000F07BFD338880
:1036D000012B28D1834A1278002A22D075483C2237
:1036E000022102F0F7FC804B1888FEF789F82B784E
:1036F000002B00D092E400217C4800F071FD0028EE
:1037000006D0704B0021595E0023F85EFCF7D2FE14
:10371000694B1978764B0020185EFEF745F9FFF7E4
:103720007AFB3280E3E7DA1E022A2AD8614C2000B5
:1037300002F05CFC102302212361200001F027FE2F
:103740006C49200003F08AF880235B032361022187
:10375000200001F01CFE3388042B0BD0052B0ED06B
:103760006549032B07D0200002F0A0FD0320FDF7E0
:10377000D7F9BCE76149200003F070F8F3E760492E
:10378000F9E7062BB3D101225E4B1A700023338078
:10379000ADE7042B14D13B88772B05D80A333B8047
:1037A00003231380023B2B70434B1B78002B22D04A
:1037B0006421554800F006FD00233F4A13701AE0CB
:1037C000092B04D13B88772BEED80133E7E7052B93
:1037D00008D13B88282BE7D90A3B3B800423138080
:1037E000033BE0E70A2B04D13B88282BDCD9013BC3
:1037F000F3E7062BD8D13A88131C782A00D978230E
:103800009AB2282A00D228233B8070E72D4B002152
:10381000595EFCF74FFEC821344800F0D3FC00236A
:103820002B7068E7012D00D007E2384B384E1A782C
:10383000002A2BD0002235701A700122354B1A70E5
:103840003378354E002B09D03388934206D1962128
:10385000002332488900338000F0B4FC3588002D05
:1038600062D12E4F2900380000F0BAFC002801D1A7
:10387000FFF7BFFA2A4C2378002B16D09621380088
:10388000890000F09FFC2570FFF7C5FA3778002FFC
:10389000D3D1FCF747FD3900224800F0A1FC0028F5
:1038A000CBD03570FCF732FDC7E702233380FFF73A
:1038B000B2FAC046AC0400206813002008000C00D7
:1038C000CDDA0000281300206001002068010020EC
:1038D000661300208C120020E50E002069130020E2
:1038E000C4130020D90E0020A20E0020A413002033
:1038F0002A13002009DA000057DA0000AEDA0000CF
:10390000B3DA0000E60E0020BC13002048010020BE
:10391000E20E0020E70E00204C010020DC13002006
:10392000D30E00209C130020022D01D0FFF773FA64
:10393000CB4FCC4D3B78002B53D02B78002B01D0B4
:1039400000232B70FDF70EFB002308262380132095
:1039500005F022FA059B96215843FA23000B5843A1
:1039600005F02AFD2388013EC0182080322005F092
:103970003BF8002EEBD12388BB4ADB102380934217
:1039800007DD3100012005F095FB01210B2005F03A
:1039900091FBB64C0323B64A0721200002F0D6FD66
:1039A000200002F0A9FD072004F036FF01210800E5
:1039B00005F080FB00210B2005F07CFB642005F066
:1039C00013F8FCF715FC2B78002B01D1FFF723FA35
:1039D000002301223B70A74BA749A8481A80FFF794
:1039E0007EF92B78002B01D1FFF715FA072005F09F
:1039F0008DFB002811D00021A04800F0F1FB002829
:103A000000D016E19E4B00229B5E012B01D0FFF7F8
:103A100002FA9C4A1370FFF7FEF9042005F076FBCA
:103A20000028E8D1984B1B78002B01D1FFF7F3F960
:103A3000964D01272A78002A7ED18E4C2388012BAF
:103A400004D1934993482280FFF749F9002B01D014
:103A5000FFF7E1F900218F4800F0C2FB002801D1F7
:103A6000FFF7D9F901232B702380FFF7D4F90A203F
:103A700004F0BAFFAAE00A2802D0052800D0D4E05A
:103A800000232370D1E0814B1B78002B54D00926F2
:103A9000814C6425200002F0A9FA0221200001F0E7
:103AA00076FC7E4B0A2231002361200002F04DFF9C
:103AB000200002F0FBFB0A20013D04F095FF002DE1
:103AC000F9D1013EE4D2FDF7E7FA200002F08EFAC8
:103AD00073492561200002F0C1FE80235B03714918
:103AE0002361200002F0BAFE200002F0DFFB643503
:103AF0000A20013D04F078FF002DF9D1200002F0EA
:103B000075FA69492000256102F0A8FE80235B0355
:103B100066492361200002F0A1FE200002F0C6FBEE
:103B20005A4B08201D70FCF7FBFF200002F05EFAE4
:103B30005149524800F046FB544B1B78002B01D1F1
:103B4000FFF769F9544C6425200002F04FFA022176
:103B5000200001F01CFC564B0022236120231100A1
:103B6000200000930197DB1800F038FF4C4920003B
:103B700002F074FE200002F099FB0720FCF7D0FF52
:103B80000A20013D04F030FF002DF9D1022620006B
:103B900002F02CFA20004749256102F05FFE200068
:103BA00059231022290002960195009701F066FB27
:103BB00020004E231022342102960195009701F037
:103BC0005DFB200002F072FB3B4C2770072005F0E4
:103BD0009DFA002800D14AE7042005F097FA002852
:103BE00000D144E7032005F091FA002800D13EE718
:103BF0003800FCF7C5FC2378002B00D143E70020F8
:103C0000FCF7BEFC1E4B244D1880092802D0042866
:103C100000D030E700231D4A28002370137002F003
:103C2000E5F91549154800F0CDFA280002F03EFBF1
:103C3000E1E701233B70FFF7EEF8032D01D0FFF71A
:103C4000EAF81E4C2378002B76D11D4B18881038CB
:103C5000042852D805F0A6FB9136AE519100C0461B
:103C60004F010020DD0E0020470D0000981C0020B1
:103C7000FD00000046010020E2040000B013002017
:103C80003C010020DC0E0020D80E0020D40E0020C5
:103C90008813000090130020AC0400201C000A00D0
:103CA000D4DA0000F1D90000DFDA0000E5DA000024
:103CB0000A000A00D9DA0000D20E002044010020D8
:103CC000D00E00200123D84D0E221F212800009382
:103CD0000C3300F0CDFF00260C23062200931E219A
:103CE000093B2800019600F045FE032314220196AB
:103CF00000931E21280000F03DFEC821CB4800F0B3
:103D00006FFACB4B002803D0012219784A401A7071
:103D1000197800295CD02023002100931E22C2487C
:103D20000191DB1800F026FE0021C24800F058FA8D
:103D3000002851D0012323700023BF4ABF491370CC
:103D4000BF4A1380BF4A1380BF4AD088021C8842F2
:103D500001D9BE4A1288BC480280BD4A1380BD4BBF
:103D6000D888021C884201D9B84A12881A80FCF708
:103D7000CDFAFDF7F7F8FFF74EF801232F22AA4DF1
:103D8000039319331F21280002930192009300220C
:103D90000B3B00F09AFF00260C23072200931E2104
:103DA000093B2800019600F0E5FD0323152201964A
:103DB00000939EE70123002102931D3301932233D8
:103DC00000930A00A44B9848039101F07AF894E715
:103DD0000F20FDF78BFDA7E72378002B01D1FFF71C
:103DE0001AF8A9E7002B00D0AEE09C4B00229B5EA6
:103DF000062B01D0012B20D104232B800023012787
:103E0000974A23701370974A06201370964A1360DE
:103E1000964A1360964A1370964A1360964B1F7029
:103E2000FCF77EFE9549964800F0CCF9FA219548BA
:103E3000890000F0C7F9944B1F707F4B1B78002B53
:103E400024D003232B80002501210D20257005F0AF
:103E500001F901210D2005F02DF9824B8B491D70D0
:103E6000814B74481D60814B1D60814B1D70814BDF
:103E70001D60874B1D7000F0A5F9FCF747FA28007C
:103E80002900FDF733FD0C20FCF74AFE2278814D16
:103E9000814B002A00D025E1002401210D201C7057
:103EA00005F008F920003178FDF796FD644B634971
:103EB0001C80644B1C80644BD888021C884201D94A
:103EC000624A12881A80624B1C80624BD888021C9E
:103ED000884201D95D4A12881A80FA212A886F4BDC
:103EE0006F488900DA8100F07BF9002817D0E122C1
:103EF0006C4C920023680133236093420FD16A4DCA
:103F00002B78002B00D12DE100210800FCF740FEAA
:103F10000123002800D000232B7000232360002001
:103F2000FCF72EFB4D4B188004F02EFD5F4C604BD0
:103F3000206022681B68D31A5E4A934201D9FEF7BB
:103F40004EFE04F021FDF2E7042B36D100225A4B3D
:103F50001A70424B00229B5E062B0BD1574B1B78ED
:103F6000002B1DD00920FCF7DBFDFCF71BFA012319
:103F7000454A1370524A1378002B87D001232B80B7
:103F80000025504915700D704F49504A0D70FA21A7
:103F90004F4889002570137000F014F9357075E7EB
:103FA00001272F4A05201770334A2B801370277082
:103FB000FCF7B6FD344B1F70DCE7012B1BD14549E4
:103FC0000A78002A00D161E702222A8000220A70C2
:103FD000414922700B803B490A703B490A703F4AB5
:103FE0001370294A1370FCF719F9FA213C4889002B
:103FF00000F0E8F84AE7032B00D047E70E4B1A78A9
:10400000D3B2002A00D041E704322A800125144AA5
:1040100023701370184B194919481D7000F0D2F81D
:10402000194B1D70FEF71CFFAC0400208813002004
:10403000800E002098130020DA0E0020FEFF000002
:10404000E2120020FC120020E8130020EADA00004F
:10405000341300208E12002036DC00003C010020CA
:1040600002140020DE0E0020B00E0020B40E00204E
:10407000DF0E0020B80E0020D90E002030750000A1
:10408000A8130020C013002068010020DC050000F8
:104090004401002066010020040F00200C0F0020C6
:1040A000C8130020BC0E0020D60E00207013002084
:1040B0006C130020A76100007F0E0020D70E0020A7
:1040C000E60E0020E20E0020E70E00204F01002047
:1040D0009C130020DC0E00204C010020D80E002094
:1040E000AC130020224A1278002A00D1D4E6012223
:1040F0001A70204B1A783378002B20D0002A27D052
:104100001D4C1E4B21781888FDF7F8F8002323700A
:10411000031C80B278280DD97823194A99B21380EC
:10412000184B19481A78FCF705F800210D2004F007
:10413000C1FF0DE09AB2282AEFD22823EDE72988A3
:104140000B1C782909D9782399B22B80002AE7D152
:1041500001203178FDF740FCBFE689B22829F3D26F
:104160002823F1E70420FCF7D1FEFCF7FBFED4E6A0
:10417000021400207F0E0020600100202813002080
:1041800016130020E01200205C0400200022014BE6
:104190001A70704704140020014B1878C0B27047A1
:1041A000380400400221064B1A788A431A70DA79E3
:1041B000D209FCD1997901320A439A717047C046FD
:1041C000001000400B005A1E934170B505000C1EF4
:1041D000837004D004F0D2FB013C24182C8070BD05
:1041E00070B5847805000E00002C0AD0048804F015
:1041F000C5FB074A231A9BB20024934205D95B42B0
:10420000DCB231002800FFF7DDFF200070BDC046A2
:1042100060EA000000207047F8B505000E001700A6
:104220000024BC4208D02B682800315D1B689847E9
:10423000002801D00134F4E72000F8BD70470300E6
:10424000FC33196ADA69914203D01B6AC018007EF8
:10425000704701204042FBE70300FC33D8691B6A2A
:10426000C01A01D50130FF3070470000F7B5019347
:10427000FA238027002504009B008360114B7F00F8
:1042800008330E0045602900009203603A001830A0
:1042900008F0BBF823002000FC332130DD613A0038
:1042A0001D622900FF3008F0B0F887239B00E31857
:1042B0005D609D60009B20002375019B2661A575B4
:1042C0006375FEBD80E2000070B5040018260C493D
:1042D000006902F0E7FD206902F036FC3300082196
:1042E000207D084D4343EB18595604F027FF082161
:1042F000607D4643AD19695604F020FF70BDC0468D
:10430000A086010020F0000070B504000D000069D7
:1043100002F02FFC2900206902F0C4FD206902F0A0
:1043200013FC70BD8A2300229B00C1540C3BC318B0
:104330005A609A600123837570470200FC3253680B
:1043400010B501339468DBB29C4202D05468015529
:10435000536010BD10B50300827D002082420ED054
:10436000872292009C186268A4680132D2B2A242ED
:1043700005D02133FF331800FFF7DFFF012010BD08
:104380000300FC3399685A68914206D09A68805CB1
:104390009A680132D2B29A60704701204042FBE72E
:1043A00000228A2370B59B00827505000E00C15C57
:1043B000006902F011FC002806D10321286902F0EF
:1043C000F5FB0224200070BD872328009B00EA181B
:1043D000536894682130FF301C1B01D50134FF3431
:1043E000002C0ED02C69FFF7CBFFC1B2200002F0E9
:1043F00031FC0028E8D10321286902F0D7FB03240F
:10440000E0E7002EDED00321286902F0CFFBD9E7D8
:1044100010B50121FFF7C4FF10BD10B51830FFF72C
:10442000AFFF10BD70B50400006902F035FC002834
:1044300014D0206902F03EFC002810D0206902F060
:10444000ABFB0321206902F0B1FB8C239B00E558F4
:10445000002D39D10023FC34E361236270BD206953
:1044600002F032FC002809D0206902F028FC002864
:1044700004D0206902F02DFC0028DFD0206902F072
:1044800023FC002826D1206902F00FFC0028E5D08B
:10449000206902F01EFC002837D087239B00E21819
:1044A000536892689B1A01D50133FF33FF21002B1B
:1044B00005D020002130FF30FFF762FFC1B2206934
:1044C00002F0DBFBA075C9E7236820001B69984751
:1044D000A847BFE7206902F05FFB2069032102F0D3
:1044E00065FB206902F0F5FB0028B7D08723002286
:1044F0009B00E3185A609A600123A3758B239B00ED
:10450000E3589342AAD09847A8E72200FC32D36927
:10451000126A0133DBB22069934206D102F033FB09
:104520000321206902F042FB98E702F0D7FB01006B
:1045300020001830FFF701FF206902F02DFBEFE7A4
:1045400010B50248FFF76EFF10BDC04608140020EA
:1045500010B51523142202490248FFF787FE10BD4B
:10456000A82200200814002030B5234B002A37D0A1
:10457000224A5A605A78D209FCD1214A9A605A7864
:10458000D209FCD11F4A5A805A78D209FCD15F2443
:104590001D4A94641D4CD46402221D4C25782A4384
:1045A00022701C4A5A605A78D209FCD10132027139
:1045B000FF291CD9FF210422016009021143164A78
:1045C00011605A78D209FCD1144A154911805978E2
:1045D000C909FCD1134911805A78D209FCD130BDE8
:1045E000114A124C14605A78D209FCD1DFE7002935
:1045F000E1D10131DFE7C046000C004005070300B0
:1046000005300000014500000008004028100000AF
:104610004408004004080300080C0040020C00405D
:104620001A4400001B440000040C0040040703006F
:10463000F8B50400182500200B0020492E00464341
:104640008E599E4204D001300E28F7D1002034E06C
:104650000020834231DB01266B43C9184B68184D9B
:104660008868DB015B191D1840352F7840083E43F0
:104670001B182E70303318784D69CE682843C0B2AD
:10468000187028237343A4680E4D20000F69EB189F
:10469000944200D910009A69DB69002105F060F8A6
:1046A0002200002305F03CF828235E43AA59386015
:1046B00093685B021B0FFBD10120F8BDA4E2000050
:1046C0000044004170010020002010B5022913D8D9
:1046D00028234B430B4CE318981CC2775B680220DD
:1046E000002A0AD01A6810431860282359436258D8
:1046F00093689B07FCD4012010BD1A6882431A609E
:10470000F3E7C04670010020F7B508AB30CB1E7848
:10471000009401950023022958D81C00012A17D0C3
:10472000022A13D0042A53D0082A54D0102A54D075
:10473000402A55D00133FF339A4253D08023E024DE
:10474000DB009A424AD00024012201E08024640068
:1047500028254D43244B5D196F686A613A681443FC
:104760006A1CD677AA683C6015680224002E00D126
:104770001E4C2C43146028224A439C58A2685206BF
:10478000FCD4019A009F9446002A02D1022F00D245
:1047900002272822150000264D435D192D69664524
:1047A00003D1BD4201D93D0066464A439A1895613E
:1047B000D661D2681560A2685203FCD428224A430D
:1047C0009B180233DA7FFFF77FFF01231800FEBD3D
:1047D0008024A400BCE7C024FBE78024E400B7E702
:1047E000A024FBE7C024F9E77001002005000F00BA
:1047F0007047F0B515000C001E0089B00EAB00220A
:104800009B5E0FAA1288019005925A1BD11752186D
:104810004A400292321BD11752184A400392039920
:10482000029A8A4205DD32001E00130022002C008D
:104830001500B44205DD2A001D00130022003400DB
:104840001600321B91B20691591BC8170918414036
:1048500012B20791D10F8A185210009201220492CD
:104860009D4202DB01235B420493B44222DC019BA4
:10487000039A1B689B691F00029B934216DD22006E
:104880002900059B0198B847009B079A9A1A11B214
:1048900093B20091120406D5049AAD18069A2DB26F
:1048A000D3181BB20093013424B2DEE72A002100A2
:1048B000059BE7E709B0F0BD704710B504682469AF
:1048C000A04710BD37B506AC258804680095A46BD9
:1048D000A04737BD37B506AC258804680095E46B62
:1048E000A04737BD73B506AC0025655F07AC2688C9
:1048F000046801960095246CA04773BDF0B51600BE
:1049000004000D0085B003930AAB1F8803685B6940
:104910009847039B2268013B9B191BB200930197A8
:104920002B0029002000976A3200B8472368200036
:10493000DB6A984705B0F0BDF0B505001C000E001D
:10494000170085B00AAB1B88013C03930368A419C8
:104950005B69984703992A68019100973100280004
:1049600023B2946A3A00A0472B682800DB6A984774
:1049700005B0F0BDF0B50E0087B003930CAB02920A
:1049800000229B5E040004930DAB1B883500059349
:1049900003685B699847039A2368B21895420BDA5B
:1049A000059A290000921B6A20001F00029A049BAE
:1049B0000135B8472DB2EEE72000DB6A984707B013
:1049C000F0BD13B501910E24015F0C22835E0268D5
:1049D0000091146C00221100A04713BDF0B5040033
:1049E00015000E0087B004930CAB00229B5E05936C
:1049F0000DAB1B88039303685B699847039A236890
:104A0000009231002A0020005F6A049BB847059B92
:104A100003995A1E236800915219310020005F6AE1
:104A200012B2049BB847039A2368009231002A000F
:104A300020001F6A059BB8470499039A236801392F
:104A4000009289192A0020001F6A09B2059BB84705
:104A500023682000DB6A984707B0F0BD7047F0B5C7
:104A600085B002930AAB0027DF5F0BAB1B881600F3
:104A70000393029B04000D000268994210D1BE42CC
:104A800002DD33003E001F00039901370091BB1B7C
:104A9000976B1BB2320029002000B84705B0F0BD6B
:104AA000BE420CD1029B994201DD029D0291029B04
:104AB000039901335B1B0091D76B1BB2EAE7536983
:104AC0009847039A23680192009720009F6A32005A
:104AD000029B2900B84723682000DB6A9847DDE77E
:104AE00003230B4010B583760822835E0A24025FFD
:104AF000C90702D48381C28110BD8281C381FBE7D3
:104B00004281C2810122002310B55242064C42610B
:104B1000064A083443600460018181810361826137
:104B20000377036210BDC046F4E8000001010001F4
:104B3000F0B51C008FB00692012214AB1B780591D2
:104B4000079315AB0021595E16AB1B88050008932F
:104B5000A3B2D01A93405B421BB289180C938BB25C
:104B600009930493002300B2029003930D92039BD8
:104B7000A3427BDA029B2700002B09DB0C9B671EFC
:104B800002331AB20C92029A3FB29B181BB20293E4
:104B90006B469B890A9301339AB21BB203930B9223
:104BA0005300029A01339B181BB20293039B9F424E
:104BB0002CDB079B0D9A134212D00999BAB253000D
:104BC000CB1806990B988A1A05992E6841180898EF
:104BD0001BB20090306A12B2060009B22800B0473A
:104BE0000222079B134211D00999BAB25300CB1885
:104BF00006990B988A1A0599089E091A2868009642
:104C0000066A1BB2280012B209B2B047BC4227D0D4
:104C1000079B0D9A13420FD06B460A9910229B5E98
:104C2000069A089E521A0599286809190096066A7C
:104C300012B2280009B2B0470222079B13420FD0DC
:104C40006B460A9910229B5E069A2868521A0599AB
:104C500012B2091B089C09B20094066A2800B047EA
:104C6000049B3C0002339BB2049380E70FB0F0BD7D
:104C7000F0B51E0004000F0087B00CAB1B88049237
:104C8000059303685B69984704990598B2B253008D
:104C90008A1A21680090096A01330D00200039004A
:104CA0001BB212B2A847059B39000293002301935F
:104CB00003332000049A00933300FFF739FF236881
:104CC0002000DB6A984707B0F0BDF0B591B01D0039
:104CD00016AB029200229B5E0700039317AB0026DF
:104CE0009E5F18AB00229B5E039A049319AB1B884E
:104CF0000C000993029B934200DCD7E0049A934294
:104D00001DDD049B039A934212DA1300049A039266
:104D1000029A02932B003500260004921C000EE03C
:104D2000029B039A0393230002922C001D00E8E7E4
:104D3000029B049A0493230034001E0002923B68F5
:104D400038005B699847039B049A93421DD1A542A2
:104D500002DD2B0025001C00B54205DC231CB442FB
:104D600000DA331C2E001CB209993A680134009114
:104D7000A31B556A31003800039A1BB2A8473B6851
:104D80003800DB6A984711B0F0BDA3B2ADB205930D
:104D90005B1B1BB26A460D936B4691891B89B6B2A9
:104DA0005A1A12B20E92721B12B208926A46128AF4
:104DB000511A09B20B910599D21A761A31B212B270
:104DC0000C910F920499029A0A928A4202D0013BF6
:104DD0001BB20A930023039E079306930A9B9E42ED
:104DE0002ADC0E99069804F071FB28180B9904B27E
:104DF000079804F06BFB0D9A069B9446089A63444F
:104E000094460693079B2818634400B20793844294
:104E100002DD23000400180009993A680091526AE3
:104E200001309446031B32002100380064461BB257
:104E30000136A04736B2D1E7029BF21A0C9B5343CE
:104E40000293039B089AF31A5A430392049B9E42CF
:104E500000DD94E70F99029804F038FB059B0B994D
:104E6000181804B2039804F031FB0C9A029B944684
:104E7000089A634494460293039B2818634400B243
:104E80000393844202DD23000400180009993A6864
:104E90000091526A01309446031B32002100380011
:104EA00064461BB20136A04736B2CFE7039B049A93
:104EB000934200DD34E7029A029303922B000D0027
:104EC0002CE7F0B58DB0079312AB069200229B5EE3
:104ED0000591019313AB00229B5E0400089314AB71
:104EE0001B880026099315AB1B8835000A930368BD
:104EF0005B6998470722019B0B92D91DCB17134082
:104F00005B18DB10029333009AB20392069A99B2AF
:104F10008A1812B20492089A934227DA0023019A5F
:104F200093421DDA9AB200920B9A6D00EDB21342D1
:104F300003D1079ADB109219D55C2368059A9B6907
:104F40001F00009B99186AB2099B09B2002A00DB76
:104F50000A9B2000049AB847009B01331BB2DEE78E
:104F6000039B029A01331BB2B618CDE723682000D9
:104F7000DB6A98470DB0F0BDF0B585B00AAC0025EE
:104F8000645F0BAD0026AD5F0DAF0CAE36883F8879
:104F90000296039701950094FFF793FF05B0F0BDCB
:104FA000F0B595B01D001AAB1B88049205931BAB9E
:104FB0001E881CAB1B78026A02931DAB1B78040091
:104FC00008910393002A00D0C4E00C22835E8B4238
:104FD00000DC7DE00E22835E049A934278DD062396
:104FE000029A53435B18002B72DD039B049ADB008B
:104FF0009B18002B6CDD037F002B03D1AF2D01D953
:105000000135EDB2236820005B6998470522002333
:1050100055430793984B0B925B190F93079A0F9B7D
:105020009B5C0A936B469B8B09936B461B89099A81
:105030000E936B461F8C029B5343FB181BB20D93C0
:1050400008230C930023069301220A9B2068134235
:1050500052D06B461A8B198A029B012B3AD1039BC3
:10506000012B37D1099B52188569D919059B12B2BA
:1050700009B22000A847069B01335BB206930A9B46
:105080005B080A930C9B013BDBB20C93002BDBD13A
:10509000079B01335BB207930B9B013BDBB20B9386
:1050A000002BBBD1059BB3420ED0029B2268012B83
:1050B0003FD1039B012B3CD105370096156A200098
:1050C000049A39B20733A84723682000DB6A98475F
:1050D00015B0F0BD6B4608255B5F039D6A438A18D7
:1050E000059912B2019169460C25495F0091C56985
:1050F0000D992000A847BEE7059BB342BBD06B4685
:105100001A8B198A029B012B0AD1039B012B07D111
:10511000099B5218D9198569330012B209B2A8E760
:105120006B4608255B5F039D01966A438A1812B29D
:10513000D9E76B4608215B5E05210E980196414335
:1051400003987918C0000090D5692000049A09B22C
:10515000A847B9E7137A5168ED1A1268EDB2ED006D
:1051600013924A5B4B1909929A780D92DA78119250
:1051700005229A569B790E925BB20F93029B012BEC
:1051800002D8039B012B56D96B4638229B5E0B93AA
:105190006B463C229B5E0C930027236820005B69D2
:1051A000984707970697119B069A9A4200D38BE778
:1051B0006B461B8A00260A930C9B9B18039A534349
:1051C0000A9AD3181BB210933B000D9A96424BD209
:1051D0005A1CD2B212920722134207D1099B099995
:1051E000139A0133525C9BB2079209936B461B7F63
:1051F0005BB2002B17DA6B46198C029B2068012BDF
:105200001DD1039B012B1AD10A9B0F9A9A18069B5A
:10521000D2180E9B12B2C918836989191D0020008B
:10522000059B09B2A847079B01365B00DBB20793D9
:10523000F6B2129BC9E700230C930B93ACE76B46C5
:1052400008229B5E0B9A029D92196A438918059A5F
:1052500009B201926A460C25525F0092C269200091
:105260001500109AA847DEE7069D0D9B0135FF1833
:10527000EBB2FFB2069396E7F4E300007FB508AC0B
:10528000258809AC26880AAC2478019600950394F9
:105290000294FFF785FE7FBDF0B5026A04000D00A1
:1052A00085B0002A2CD10A2908D1437E0282DB0076
:1052B000628A9B186382012005B0F0BD0D29FAD0E7
:1052C0001223C25E1023C15E437E0393037E0293CA
:1052D000C38A0193838A00932B00FFF761FE227E2D
:1052E000238A312D08D1042A02D113332382E2E725
:1052F000032A01D10E33F9E706214A439B18F5E74B
:105300000A2905D100230382127B437E5343CFE752
:105310000D29D0D0137A9942CDD3917AA942CAD31C
:10532000EB1A5168DBB2DB00CE18B178002929D026
:10533000F378002B26D0E37E007E677E002B13D00F
:105340000523F3565B1843439C461023E15E8C44CF
:105350000C23E15E8C4507DD1223E15E00232382EE
:10536000137B7B435B1863821223E25E1023E15EB2
:10537000E38A02900193A38A2000009303972B00F5
:10538000FFF70EFE227E33795343228AB6E70B1CC9
:10539000002900D1012303764376704710B500F051
:1053A0002DFB0022024B8000C35849331A7010BDF8
:1053B00090160020F0B5040085B01E000AAB1B78E3
:1053C000103001930BAB1B78170002930CAB1B78CA
:1053D0000D00039300F094F92000243000F090F9C0
:1053E000220000234832A363E363236463641370E1
:1053F000537063729D4205D12721084B084A094822
:1054000006F08AFF2000019B25606371029B2771D3
:10541000E371039BA671237205B0F0BD4CE9000057
:105420005DE90000B1E9000030B5040085B002ADCF
:1054300000680291039201F042FB6B79227AE179D4
:1054400020680093002301F003FD2979029A206867
:1054500001F05AFB206801F028FB05B030BD0000C8
:1054600007B5837A00910192002B07D09A070AD5DD
:10547000EFF310835A425341C37272B60099019AF6
:10548000FFF7D2FF07BDDB07F8D5C368014A9BB21F
:105490009360F3E70018004010B5006801F018FBB6
:1054A00010BD000010B5006801F026FC03000020CC
:1054B000834203DB0C304343014A985810BDC04679
:1054C00018EA000010B5006801F016FC002805DBA2
:1054D0000C2343430348C018406810BD01204042DC
:1054E000FBE7C04618EA000010B5006801F004FCB4
:1054F000002805DB0C2343430348C018806810BD17
:1055000001204042FBE7C04618EA0000F0B5060063
:105510001036050089B0300000F048F900286CD141
:105520002F002437380000F041F9041E62D1280012
:10553000FFF7DAFFC1B2300000F018FA02213000A4
:1055400000F038FA01222E49300000F00BFA30004A
:1055500000F054FA2B4B8000C5502800FFF7B2FF33
:10556000C1B2380000F002FA0221380000F022FA3D
:10557000380000F043FA234B8000C5502800FFF7A5
:1055800091FF0123010022000293300023000494C4
:1055900003940194009400F033FAA8632800FFF705
:1055A00081FF0123020021000193380023000494AD
:1055B00003940294009400F023FAE863402006F07C
:1055C00007FF2A0048322864079200280BD00123E5
:1055D000137068646B6C10221819E96B103406F0B4
:1055E0000BFF402CF6D1079B1B78002B05D1380010
:1055F00000F076F9300000F073F909B0F0BDC04654
:105600009D5300009016002070B5437A0400002BD3
:1056100003D1012243814272C360230048331B78C7
:10562000002B02D12000FFF771FF1826330008215C
:1056300020790D4D4343EB18595603F07FFD33009D
:105640000821A0794343EB18595603F077FD082150
:1056500060794643AD19695603F070FD034B200095
:1056600006CBFFF7E1FE70BD20F000008816002099
:105670001FB5094A094B0A4913600023938002931E
:105680000133019316330093162201330548FFF7C7
:1056900091FE05B000BDC0468816002000093D00FF
:1056A000AC2200203C160020084B1968002909D1C3
:1056B000EFF31080064A002803D172B6BFF35F8F64
:1056C000013111701A6801321A60704748180020C1
:1056D00044180020084B1A68002A0CD01A68013AB6
:1056E0001A601B68002B06D1044B1B78002B02D0DC
:1056F000BFF35F8F62B6704748180020441800203F
:10570000FF2310B50370C023002104009B004170EB
:10571000418083800C22083006F077FE200010BD07
:1057200001230A0010B51A40194208D00C4A137020
:10573000033343708368002B00D0984710BD0223C9
:10574000194204D006490B70C3684270F3E7042382
:105750001942F3D0024A1370033343700369EAE736
:105760004E48004110B5FFF79FFF0C4B1B8C1B07E9
:105770001B0F0B2B0FD80A4A9900885800280AD013
:105780000F2408490A78A24313430B70064B19787B
:10579000C9B2FFF7C5FFFFF79DFF10BD00480041EC
:1057A0004C1800203F4800414E480041F8B5002306
:1057B0000278050018000B2A77D93C4E2B702B7805
:1057C0000B2B07D801229A403168114204D00133D3
:1057D0002B70F4E7012068E0FFF766FF3768344C70
:1057E000002F2BD12022334B334859690A435A6189
:1057F0001022D9690A43DA610222238839009343CF
:1058000023802388013A134323802C4B6063BF32EB
:10581000A36306F0FAFDC0223900284806F0F5FD22
:105820004022C120264B80002380264B26491A6047
:105830001A581140C02212040A431A5001231A00B8
:10584000297830688A40024332600F261F4A880058
:1058500085501F4831400278B2430A43027002204B
:105860001C4A1178814311701178194311702978FD
:1058700022698B409A43226160223F21636C9343EB
:1058800063642A79636C0A40134912020B400321B6
:10589000134363646A79636C0A40104992050B40B4
:1058A00013436364FFF716FF0020F8BD4018002083
:1058B000004800410004004080170020C01600206E
:1058C000020F000000E100E0FFFF00FF4C18002085
:1058D0003F48004140480041FFC0FFFFFFFF3FFF3E
:1058E00070B50500FFF7E0FE6B785CB2062B2BD09D
:1058F0002B7802240B2B27D801229A40144B1968CD
:10590000114221D01968914319601B68002B14D1F2
:105910004022104BDA67BFF34F8FBFF36F8F210028
:105920000D4A0E311388A34313800C4BDA698A4366
:10593000DA615A6910318A435A6100242B78084A87
:105940009B009C50FF232B70FFF7C4FE200070BD0E
:105950004018002004E100E000480041000400403D
:105960004C1800200232920011507047037870B535
:1059700005000C0001710B2B14D8FFF795FE297858
:105980000F25094829400378084AAB430B430370AD
:105990003F23516C1C40064B240219400C435464B5
:1059A000FFF798FE70BDC0463F48004100480041E7
:1059B000FFC0FFFF037870B505000C0041710B2B91
:1059C00014D8FFF771FE29780F250948294003787C
:1059D000084AAB430B4303700323516C1C40064B36
:1059E000A40519400C435464FFF774FE70BDC04613
:1059F0003F48004100480041FFFF3FFF00787047EB
:105A0000F0B587B001930CAB1E780DAB1B78050089
:105A100002930EAB1B780078039310AB1F780491B0
:105A200005920B2802D9002007B0F0BD6B78062B39
:105A3000F9D0AB78002B00D179E01021080006F0F6
:105A4000BDFC0028EFD02B783B4A1B019B181A00A5
:105A5000D168002904D0D1688B4201D0D268F7E721
:105A6000D06001220223AA70964203D0DB18022ED6
:105A700000D0130006240188114301800188A1434E
:105A8000018001881234A1430180153C0188264021
:105A90002A4C360221400E430680029E0188284C83
:105AA00016402140B6020E430680039E0188254C15
:105AB00016402140F6020E4306800188224E3A40ED
:105AC000314012030A43072102800F9A11400288D5
:105AD0004903D204D20C0A4302806A46928842806B
