:10000000008000204D84000015840000378400002B
:1000100000000000000000000000000000000000E0
:100020000000000000000000000000003784000015
:10003000000000000000000037840000A1840000E0
:1000400037840000378400009D3D000001610000FE
:10005000D9830000378400008D52000039840000ED
:10006000378400009162000037840000378400006C
:10007000F142000037840000A162000037840000D4
:100080003784000037840000378400003784000084
:10009000316C00003784000037840000CD60000020
:1000A0003784000037840000378400003784000064
:1000B0000000000010B5064C2378002B07D1054B3B
:1000C000002B02D0044800E000BF0123237010BDC4
:1000D000B00300200000000040C70000044B10B532
:1000E000002B03D00349044800E000BF10BDC04608
:1000F00000000000B403002040C70000012210B53A
:10010000034B044904481A7006F04EF910BDC0466E
:10011000410E002000A80000901E002070B50600CF
:100120000C2008F06FFB08250024300008F0D4FBF9
:10013000013D041924B2002DF7D10723E017184020
:100140000019C01080B270BD10B5002900D0033076
:10015000782811DD7820DD2346215B0032385843B2
:10016000494208F05DFFEA30054BFF3081B259800B
:100170000E2008F029FC10BD3228ECDA3220EAE724
:10018000CC03002010B5438804888B4215D2017936
:10019000104B5B1AA34200DD23005B18038001882B
:1001A000C2880023914205D34379994200D31300BA
:1001B000038001230372007A10BD42791300A2422A
:1001C00006D80179034B5B1AA34200DD23009BB2E2
:1001D0009B1AE3E7FFFF000010B5084C01233C2207
:1001E0000221200005F00AFD200005F093FC20000C
:1001F00005F0F0FD024B636110BDC04618040020FD
:1002000001000100F0B5324D85B02800002405F052
:1002100081FC2027082601232200210028000293C8
:1002200003942C4B0197009604F03AFC0123220022
:100230003100280002930394274B0197009604F0A5
:100240002FFC01232200280002931021234B03944A
:100250000197009604F024FC012322002800029359
:1002600018211F4B03940197009604F019FC0123F9
:10027000220039002800029303941A4B019700963C
:1002800004F00EFC01232200280002932821164BC3
:1002900003940197009604F003FC01232200280038
:1002A00002933021114B03940197009604F0F8FB60
:1002B0000123220038212800029303940C4B01975C
:1002C000009604F0EDFB280005F084FD05B0F0BDBC
:1002D00018040020D0030020420000206600002007
:1002E0008A000020AE000020D2000020F60000208E
:1002F000F403002010B5044C200005F00BFC200096
:1003000005F068FD10BDC0461804002010B50C4C67
:10031000200005F0FFFB2000022104F0CCFD0023AB
:1003200020002361074906F02DF880235B0306496E
:100330002361200006F026F8200005F04BFD10BDDB
:10034000180400200BA8000010A8000010B50E49EA
:100350000E4806F033F80E4C200005F0DBFB2000C1
:10036000022104F0A8FD002320002361094906F0C2
:1003700009F880235B0308492361200006F002F896
:10038000200005F027FD10BD14A80000901E0020DD
:100390001804002025A8000029A80000F0B528496D
:1003A000284885B006F00AF800263200264925487C
:1003B00006F004F8254C4B25200005F0ABFB02218C
:1003C000200004F078FD002321492361200005F07E
:1003D000D9FF80235B031F492361200005F0D2FF72
:1003E000200005F0F7FC0A2008F09EF81A4F013DA6
:1003F000380003F0B7FC002DF5D1200005F08AFB92
:10040000012303931F330193203320002A00290086
:1004100000930295114B04F0E8FA200005F0DAFC95
:100420004B240A2008F080F8013C380003F09AFCC5
:10043000002CF6D10136032EB7D105B0F0BDC04671
:100440002EA80000901E002045A8000018040020DF
:100450005FA8000029A80000F31200200CAD0000E6
:10046000F0B50025092791B000900191019BAB42A6
:100470002EDD184C200005F04DFB2000022104F079
:100480001AFD154E2A003100276103A809F01AFB56
:10049000200003A905F076FF104B009A23616B0042
:1004A000D25A310003A809F00DFB200003A905F082
:1004B00069FF200005F08EFC2124094803F052FC5E
:1004C000013C0A2008F030F8002CF6D10135CDE7C8
:1004D00011B0F0BD1804002065A80000090010004C
:1004E000F3120020974AF8B511680123080018405C
:1004F000194202D1944913608870944A012311680B
:1005000008001840194202D1914913608870914A3D
:100510000123116808001840194202D18E49136066
:1005200088708E4A0123116808001840194202D1D0
:100530008B49136088708B4A0123116808001840AA
:10054000194202D1884913608870884A01231168D2
:1005500008001840194202D1854913608870854D02
:100560002F78002F23D00021774803F011FD0B24B2
:10057000002801D000232B707F4D2E78002E5BD0F9
:100580000021734803F004FD002801D000232B70E4
:100590007A4D2E78002E00D193E000216E4803F0B2
:1005A000F7FC002801D000232B702000F8BD0320A9
:1005B00008F04CFB03005A1E9341714A714E1370B0
:1005C000002821D13178664C00290BD032215E48B9
:1005D00003F0D0FC012320006B492B7003F0CAFC10
:1005E0000B240DE0200003F0D3FC0028F8D0FA2102
:1005F0000122664B200049001A70042403F0BAFC63
:100600005F4B1B783370B7E73378614C002B07D111
:1006100032214D4803F0AEFC01232B702370DFE73D
:100620002378002BDCD0594B27701A780924002A34
:10063000E6D01F700234E3E7042008F007FB030054
:100640005A1E9341534A1370534B002821D11978F5
:10065000454E00290ED032213D4803F08BFC01238A
:10066000300049492B7003F085FC4A4B4A4A1B78FD
:1006700013708DE7300003F08BFC0028F5D0FA21D1
:100680000122464B300049001A70052403F072FC29
:10069000EBE71B78424F002B07D132212C4803F0A7
:1006A00069FC01232B703B70DFE73B78002BDCD02B
:1006B0003A4B3E701A78002A01D01E70D5E70A2402
:1006C000D3E7072008F0C2FA03005A1E9341354AC7
:1006D0001370354B00281DD11978254E00290ED0F6
:1006E00032211D4803F046FC012327492B703000BE
:1006F00003F040FC2B4B2C4A1B78137055E730005D
:1007000003F046FC0028F5D00124FA21274B4900CC
:100710001C70ECE71B78264F002B07D132210E48C6
:1007200003F028FC01232B703B70E3E73B78002BA0
:10073000E0D01E4B3E701A78002A01D01E70D9E717
:100740000624D7E7A40D0020C20D0020AC0D002028
:10075000CC0D0020B40D0020D60D0020A80D0020E7
:10076000C60D0020B00D0020D20D0020B80D0020D5
:10077000DC0D0020BE0D0020C00D0020C10D0020AA
:100780001A0100201D0100201A040000CA0D0020DB
:10079000BC0D00201B0100201E010020D00D0020F8
:1007A000BD0D00201C0100201F010020DA0D0020DB
:1007B000BF0D0020F8B5242706260C2502242F4B58
:1007C00008001980012108F0E5F93A002C492D486C
:1007D00008F082FD2C4B3A002C492D481E8008F071
:1007E0007BFD2C4B2A002C492C481E8008F074FD00
:1007F0002B4B2A002B492C481C8008F06DFD2B4BFD
:100800002A002B492B481C8008F066FD2A4B2A0041
:100810002A492B48AD191C8008F05EFD294B2A009F
:1008200029492A481C8008F057FD294B2A00013429
:10083000284929481C8008F04FFD284B2A002849E8
:1008400028481C8008F048FD274B362227492848B5
:100850001C8008F041FD0922264B27491A802748B1
:100860003A0008F039FD264B1822264926481E80FA
:1008700008F032FD0422254B1A80F8BD400000200C
:1008800068AF0000140C00206212002014AF0000BA
:10089000640700205612002018AE0000DC0C002077
:1008A000641200205CAF00009C060020541200205F
:1008B0000CAE00004C0B00206012002050AF000076
:1008C000840A00205E1200208CAF00004404002047
:1008D0004E12002000B400000C0500205012002031
:1008E0006CB40000D40500205212002012B40000A5
:1008F000F40800205A12002048B40000BC0900206F
:100900005C12002038AF00002C0800205812002094
:1009100010B5012907D1C8222F4908F0DDFC2F4B63
:100920001B88180010BD022905D1C8222C4908F0E7
:10093000D3FC2C4BF4E7032905D1C8222A4908F03F
:10094000CBFC2A4BECE7042905D1C822284908F042
:10095000C3FC284BE4E7052905D1C822264908F045
:10096000BBFC264BDCE7062905D1C822244908F048
:10097000B3FC244BD4E7072905D1C822224908F04B
:10098000ABFC224BCCE7082905D1C822204908F04E
:10099000A3FC204BC4E7092905D1C8221E4908F051
:1009A0009BFC1E4BBCE70A2905D1C8221C4908F054
:1009B00093FC1C4BB4E70B2905D1C8221A4908F057
:1009C0008BFC1A4BACE700230C29AAD1C82218498A
:1009D00008F082FC174BA3E7140C002062120020E1
:1009E0006407002056120020DC0C00206412002056
:1009F0009C060020541200204C0B002060120020A6
:100A0000840A00205E120020440400204E120020C0
:100A10000C05002050120020D405002052120020A6
:100A2000F40800205A120020BC0900205C120020AB
:100A30002C08002058120020F0B504000200B3B0CA
:100A40001C491D4805F0BAFCA1B26846FFF760FFDB
:100A50000A210500194803F08DFA00240321200023
:100A600008F054FA80B2A84222D2144E002130007D
:100A700003F08EFA002803D1114803F073F9F4E76C
:100A80006B466946671C7F00DA5B6300C95A0D4BF1
:100A9000188805F0F7FF6A46A31C5B00D15AD35BA8
:100AA0003000C91889B2033403F064FAA4B2D5E760
:100AB00033B0F0BD6AA80000901E0020881200200C
:100AC000F312002040000020F0B5C44CC448A544F7
:100AD00003F048F9C34D03AA6B692800296905F0A2
:100AE0006BFAD522C04C920003A9200008F0F4FB59
:100AF000BB4803F037F9607CA67C002800D09EE05C
:100B0000002E00D097E0B94FB949380005F04CFCF1
:100B10003800B84905F036FC0123A3700223666053
:100B2000A660E660A67427002600FF332382002318
:100B3000AB483B8303F016F9AF4B0237BB42F6D10B
:100B400000231F00A3820022AC4BA548FB181A808B
:100B5000023703F007F95C2FF5D100270022A84BDC
:100B60009F48FB181A80023703F0FCF82A2FF5D1B2
:100B70000023D427A278E3822388BF009B18A28891
:100B80009B18E2889B1822899B1862899B18A2896E
:100B90009B18E2899B18227C9B18627C9B18A27C84
:100BA0009B18E351904C338BE2598D48D318E35195
:100BB00003F0D8F8904B0236B342F3D1E259A38A3E
:100BC0000026D318E351D427BF008C4BE2599B5B1E
:100BD0008348D3180236E35103F0C4F85C2EF4D1F5
:100BE000D4260027B600864BA259DB5B7C48D3187D
:100BF0000237A35103F0B6F82A2FF4D1A259E38AA1
:100C00002100D318D52203A89200A35108F064FB59
:100C100028006A69296905F0BDF96B69296903AA89
:100C2000280005F06BF96E4803F09CF875496F4891
:100C300005F0BAFB0120D9239B009D44F0BD0020A4
:100C40008642F8D1694D7049280005F0ADFB2800B7
:100C50006E4905F0A9FB0A222800218805F00DFC49
:100C60000A222800A17805F01EFC0A222800A1888B
:100C700005F003FC0A222800E18805F0FEFB0A22A9
:100C80002800218905F0F9FB0A222800618905F076
:100C9000F4FB0A222800A18905F0EFFB0A222800B4
:100CA000E18905F0EAFB0A222800217C05F0E5FB3A
:100CB0000A222800617C05F0E0FB0A222800A17CC2
:100CC00005F0DBFB280025000A22A18A05F0D5FBF0
:100CD0000194464E298B0A22300005F0CAFB3000F1
:100CE0004B4905F04FFB444B02359D42F1D130009A
:100CF00005F052FB0025414B3C4F595B0A2238005E
:100D000005F0B7FB02353800414905F03BFB5C2D8F
:100D1000F1D1380005F040FB0026394B334D995B8B
:100D20000A22280005F0A5FB02362800384905F004
:100D300029FB2A2EF1D1280005F02EFB28000A22DB
:100D4000E18A05F09AFBA3782588A07CED18A3889A
:100D50005D19E3885B192589EB186589ED18A3896E
:100D60005D19E3895B19257CEB18657CED18451945
:100D7000019B1B481B8BED1802F0F4FF019B1E4AE0
:100D8000023301939342F3D10026A08A45191B4BED
:100D900013489B5B0236ED1802F0E4FF5C2EF6D19F
:100DA0000026174B0E489B5B0236ED1802F0DAFF67
:100DB0002A2EF6D1D426E08A16494519B600380005
:100DC00005F0F2FA2A003800A359134905F0F6FAA3
:100DD000A059401B45426841C0B22CE79CFCFFFF74
:100DE000F31200204C0E0020680E0020901E002000
:100DF00074A800008BA800009A0E0020B20E0020FC
:100E00000E0F00209CA80000A9A80000BEA80000AA
:100E1000CFA80000D1A80000EFA800000839030007
:100E200010B50800072907D808F05CF83806060650
:100E3000060720041C4AD38110BD1C4A181C93428B
:100E400000DD101CFA2302B25B009A4200DA181C83
:100E500000B2F5386421FF3808F0E2F8124B243074
:100E600040001818438801334380E5E7104A181CF6
:100E7000934200DD101C0F4B02B29A4200DA181C9C
:100E80000D4B00B2C018142108F0CAF8064B5030C0
:100E900040001818C3880133C380CDE7581E834132
:100EA000014AD374C8E7C046680E002088130000CA
:100EB00004100000E40C00001CF3FFFF00B5042840
:100EC00009DC002809DB0138114B032806D808F09B
:100ED00009F8090D1115142814D000BDDA88013263
:100EE000DA80FAE71A8901321A81F6E75A89013263
:100EF0005A81F2E79A8901329A81EEE79A880132A3
:100F00009A80EAE7024AD38A0133D382E5E7C046F2
:100F1000680E0020F0B5324CD425A544314CAD000C
:100F20002700A27823889B18A2889B18E2889B1828
:100F300022899B1862899B18A2899B18E2899B18B9
:100F4000227C9B18627C9B18A27C9B1863513B8B74
:100F50006259254ED3183000635102F003FF234B32
:100F60000237BB42F3D16259A38AD427D318635105
:100F70000025BF001E4BE2595B5B3000D3180235E1
:100F8000E35102F0EFFE5C2DF4D1D4250027AD0033
:100F9000184B6259DB5B3000D3180237635102F003
:100FA000E1FE2A2FF4D16259E38A3000D31863514D
:100FB00002F0D8FED5222100920001A808F08CF999
:100FC0000D4C20006269216904F0E4FF2000636990
:100FD000216901AA04F092FFD7239B009D44F0BD34
:100FE000A4FCFFFF680E0020F31200209A0E0020E0
:100FF000B20E00200E0F00204C0E0020F0B585B080
:10100000019104001849194802920393A02505F0A4
:10101000CBF9A126F1200022154B6D00760040008F
:10102000A2218C465F889C4461461F801F0009886E
:10103000A0373980F0219F5B49005F531F5A01326E
:101040005F5202334F2AEBD10A4B2032FF329C52BF
:101050000199094A99520299084A9952084A0399F2
:10106000995205B0F0BDC04610A90000901E0020A6
:10107000380F0020680E00200E020000AE020000B3
:101080004E030000F0B5414C4148A5440DAC436906
:101090000169220004F090FFD5223E4D2100280076
:1010A000920008F019F92B883B482380AB786380C5
:1010B0006B680E93AB680F93EB6810932B7C2382C5
:1010C0006B7C6382AB7CA382EB7CE3826B691393C2
:1010D0000023C15AE21802339183322BF9D18222C4
:1010E00000232E486A44C15AD1520233A02BFAD1B0
:1010F0009122002352002A486A44C15AD152023335
:10110000A02BFAD1E1220023520026486A44C15A9A
:10111000D1520233A02BFAD10023234A23486A4438
:10112000C15AD1520233A02BFAD10023204A2148C0
:101130006A44C15AD15202335C2BFAD100231E4AB1
:101140001E486A44C15AD15202332A2BFAD1D527FC
:1011500000257F006B00E25A1949684608F0B2FC8E
:10116000184E6946300005F00DF90135164802F0B9
:10117000F9FDBD42EED1300005F00EF92900200046
:10118000FFF76EF9E3239B009D44F0BD74FCFFFF65
:101190004C0E0020680E0020800E0020380F00202A
:1011A000D80F0020781000206202000018110020E3
:1011B00002030000B20E00205E0300000E0F0020AC
:1011C0001BA90000901E0020F3120020074B70B5F1
:1011D00004001A001934057801301D830233A0423F
:1011E000F9D19182FFF796FE70BDC046680E0020CF
:1011F000064B01001A0010B519311C8B0233047024
:1012000001308842F9D1908A10BDC046680E002096
:10121000F0B5404C8FB04049200007AF05F0C4F84E
:101220003800FFF7E5FF01000590200000240A22A6
:1012300005F023F9394D0326280004F06BFC022148
:10124000280003F038FE280035492C6105F09AF893
:101250000C23059A5343334A403B1BB21380A342ED
:101260002EDA314B1C80059BA34212DD2E4E3B5DD6
:101270000022B15E0222029200220192013200920B
:1012800028000F3203F08EFD338801340C33338095
:10129000E9E7280004F09EFD0FB0F0BD1F4804F000
:1012A00099FD05250A2007F03FF9013D1F4802F08E
:1012B00059FD002DF6D1013403E0013E002EEBD0A4
:1012C00000240321174B00229A5ED3170B409B1872
:1012D0009B100133A342F0DB042300255B426343F0
:1012E000114A1380059BAB42D8DD0F4F07AB00229C
:1012F000B95E0222EB5C029200220192013200925E
:1013000006480F3203F04EFD3B8801350C333B801D
:10131000E8E7C046901E002023A900001804002022
:101320002CA90000E01100202C0E0020F312002058
:1013300070470000F7B505000C200E000192082749
:1013400007F060FA0024280007F0C6FA013F0419EC
:1013500024B2002FF7D10723E017184004192448BE
:10136000E4104443E0170005000D0019FA240013AF
:101370006043962107F054FE64251E4BC4186C434D
:101380001D4B9C4215DB1D4B9C422BDC20001C4955
:1013900007F046FE1B4B05B29C420CDC0123019A70
:1013A000092013703370FFF747FBFEF7F7FF2800A3
:1013B000FEBD3D00F2E7144B9C4213DC019B192457
:1013C0001F7001233370FEF7C1FF0B20FFF734FBC2
:1013D0000A2007F0A9F8013C0C4802F0C3FC002CDD
:1013E000F6D1E4E70023019A33701370DFE7C046BB
:1013F000B80B00001CF3FFFF13FDFFFFE527010002
:10140000EE02000093110000DF2E0000F312002016
:1014100070B500213748002404F060FBD522364B1C
:1014200036499C709200364804F050FD6421354BDB
:1014300014229C70344B96209C70344B8000D980D1
:10144000FA215A80F6321C809A80314B89001C8028
:1014500059809A80D8802F4B2F481C805880C820F4
:1014600080009A80D8802D4B0B2059802C491C80FD
:101470009980C8214900D9802A4B2B4D2B499A804D
:10148000423A1C805980DA802880012107F082FBD3
:101490000023E85E210007F0ADFB254B9C70254B37
:1014A0009C70254B9C70254B9C70254B9C70254B4C
:1014B0009C70254B9C70254B9C70254B9C70254B3C
:1014C0009C70254B9C70254B9C70254B9C70254B2C
:1014D0009C70254B9C70254B9C70254B9C70254B1C
:1014E0009C70254B9C70254B9C70254B9C70254B0C
:1014F0009C7070BD180400208812002000B000000D
:101500004C0E002020120020E60D0020EA0D0020E5
:10151000E4110020FE11002088130000D8120020E2
:10152000010A000034120020CC0300206C070000E8
:101530001C120020BC12002090120020B4120020C7
:10154000D0120020A8120020A01200209412002027
:10155000A412002098120020B8120020B01200201F
:10156000AC1200208C120020D41200208012002027
:1015700084120020C8120020C4120020C0120020D3
:10158000CC1200209C12002073B51B4C06000421D5
:10159000200003F090FC194B002163611E230A0018
:1015A000200001910093223302F078FF0A213000DD
:1015B00007F036FD0A2501B26D424D430F23AD19E8
:1015C000632E00DD0E4B23610A22200004F051FF40
:1015D000012301930233200000931922262102F0F7
:1015E0005DFF2C2329000A222361200004F041FF23
:1015F000200004F0EFFB73BD18040020010001007F
:10160000FCFF0000F0B5334C060085B0200004F06C
:1016100081FA6425642E02DCF543ED173540032181
:10162000200003F048FC2C4B002163611C230A00BE
:10163000009320000191243302F030FF092E3EDC9C
:10164000264B290023610A22200004F012FF002605
:10165000012720230822200001930092322132002A
:101660001F4B0396029703F01BFA20230822200049
:10167000019300923A2132001A4B0396029703F02D
:101680000FFA122300930C3B1A0020003621019719
:1016900002F004FF0A20372168434942019607F00F
:1016A000BFFC0623123000B21A0036210090200041
:1016B00002F0F4FE200004F08DFB05B0F0BD132E07
:1016C00001DC094BBDE7632E01DC084BB9E7802341
:1016D000DB02B6E718040020010001001F0004002F
:1016E0000000002020000020120004000D00040073
:1016F000F7B5041E1A4E03DB0F2812DC002811D1A7
:10170000002301932033300000931E220421203354
:1017100002F0C4FE300004F05DFB300004F05AFB20
:10172000F7BD0F24002501270723ADB2A90001351D
:1017300000931E22300009B20197053B2DB202F042
:10174000ADFEAC42F0DA00230134A4000193123361
:1017500000931E22300021B22E3302F09FFEDCE700
:101760001804002010B5094C0022A35E834200DA61
:1017700020800023E05EA621533007F051FC00B228
:10178000FFF7B6FF0023238010BDC046E00D002008
:1017900013B50723011E0A4C0CD00122002101922F
:1017A00000931D32053B200002F078FE200004F07B
:1017B00011FB13BD00931E2202230190F3E7C046E4
:1017C00018040020F0B500240225012789B0FEF797
:1017D00003FDD44E300004F09DF90221300003F0E7
:1017E0006AFBD14B3461736122001B23210030005E
:1017F00002950194009703F0D5FA412322001C21A1
:10180000300002950194009703F0CCFA1A232200CD
:101810003421300002950194009703F0C3FA3000A0
:1018200004F0D8FA1022C14B05951C80C04B1A80D9
:10183000BD4B0793BF4BC04F1B78002B00D019E264
:10184000380002F08FFABD4C23880B2B31D13800C1
:1018500002F088FAFEF746FEFA2120804900B848D7
:1018600002F096FB0028EED0B64BB74C0021595E33
:10187000AF4B00229A5E2378002B10D0059B0125E8
:1018800002930023009501933000163303F08AFA87
:1018900023785D402570300004F09CFAD3E70120E6
:1018A0002070059C009002943000019303F07AFAB6
:1018B000F1E7092B01D0042B34D1A44AA44D12889E
:1018C0002B78013A0021934201D00133D9B229701B
:1018D00000240E23220000931021163330000194BF
:1018E00002F0DCFD2B789B4AD35C112B14D1102322
:1018F00099493361300004F045FD984B1B78002B6B
:1019000038D1300004F066FA8B4802F02BFAFEF76B
:10191000E9FD8A4B18808DE7FA2B13D110239049EB
:101920003361E7E70A2B01D0052B16D1884D2A78C1
:10193000531EDBB2002A03D1844B1B88013BDBB270
:101940002B70C5E7059A1C210292012230000092FB
:101950000194220003F026FACFE7062B01D0012BD9
:10196000CBD17B4B7B4A1B78D25CFA2A4CD17B4B88
:10197000F93A1A7000270124300004F0CBF8059BD7
:101980003A0039003000029301975923009403F084
:1019900009FA059B3A00029334214E233000019747
:1019A000009403F0FFF906946C4D2B78002BA8D01F
:1019B000614802F0D7F9FEF795FD604B80B21880C0
:1019C000092802D0042800D081E00024059B1022C1
:1019D0000293069B2100300000930194230003F042
:1019E000E1F9059B10220293069B342100933000FD
:1019F0001823019403F0D6F90127300004F0EAF926
:101A00004D4802F0AFF9CFE7564D2B88112A33D15C
:101A1000002B06D00021544AD218013A1170013B24
:101A20002B801022002400922100402330000194DA
:101A300002F034FD29883D4A042921D814803B4D09
:101A40000023E95E474B1B88A3423BDD384A464BE7
:101A50000020125E0598E35C0290002001900130A6
:101A60000090300003F09EF92B8838000C332B8057
:101A7000013402F077F9E2E73B49CA540133CFE77A
:101A80000C235B424B4334331380284D0023E95E23
:101A9000344B1B88A34215DD254A334B0020125ED0
:101AA0000598E35C02900020019001300090300026
:101AB00003F078F92B8838000C332B80013402F0C6
:101AC00051F9E2E7194B1A881E4B1A8015E70A28CC
:101AD00001D0052818D10024059B10220293069BF3
:101AE0002100300000930194182303F05BF9059B5B
:101AF00010220293069B34210093300023000194AE
:101B000003F050F9022778E7062802D0012800D018
:101B100073E7022F2AD1074B069A1A7000232B7005
:101B20006BE7C04618040020010001002C0E0020C5
:101B3000300E0020320E0020F3120020040E002090
:101B4000E60D00202E0E002057010020500100203D
:101B5000080E00202001002030A90000E20D002026
:101B600034A90000DE110020C41100200024012F40
:101B700000D07DE030002C7003F0CCFF30000599E0
:101B800003F099F9079B34617361059B22002100E2
:101B90003000029301941B23009703F003F9059B87
:101BA00022001C213000029301944123009703F08E
:101BB000F9F8059B220034213000029301941A2386
:101BC000009703F0EFF8300004F004F9814802F0C8
:101BD000C9F8102140230A0000913000019402F05E
:101BE0005DFC7D4B7D4A198804291AD814807B4DF1
:101BF0000023E95E784B1B88A34231DD784A794B9C
:101C00000020125E0598E35C029000200190069887
:101C100001340090300003F0C5F82B880C332B8082
:101C2000E5E70C235B424B43343313806B4D0023B9
:101C3000E95E694B1B88A34212DD694A694B0020AB
:101C4000125E0598E35C0290002001900698013432
:101C50000090300003F0A6F82B880C332B80E5E7CA
:101C60005E4B1A88604B1A800022604B1A70C4E6E3
:101C70002700C2E60024300003F04CFF5C4930002E
:101C8000346104F07FFB380002F06CF80C23524DF5
:101C900058492A885343403B1BB20B80A34232DA97
:101CA0004E4B1C804C4B1B88A34218DD4B4D4C4ABD
:101CB0004C4B0021525E0020295E0220E35C029022
:101CC0000020019001300090300003F06BF82B8869
:101CD00038000C332B80013402F044F8E2E7300086
:101CE00004F078F83C4B3F481988FFF76FFAC82496
:101CF0000A2006F019FC013C364802F033F8002CAB
:101D0000F6D109B0F0BD1400364B9E18013E013CDF
:101D100005D333783800737102F024F8F6E7012414
:101D200000222B882F495B0005331B1BCA540B0074
:101D3000013BE31838001A70013402F013F8062C46
:101D4000EED10C222B88033C0A339BB22B805343E9
:101D5000284A403B138000250321264B00229A5E2F
:101D6000D3170B409B189B100133AB422EDB04238F
:101D700000265B426B43194A1380174B1B88B34202
:101D800015DD164F164A174B0021525E0020395EB2
:101D90000220F35C02900020019001300090164870
:101DA00003F000F83B8801360C333B80E5E712482E
:101DB00004F010F805260A2006F0B6FB013E05489F
:101DC00001F0D0FF002EF6D10135C5E7013C002C13
:101DD000C1D187E7F3120020DE1100202C0E002075
:101DE000300E0020C41100202E0E0020080E00200E
:101DF0002CA90000E011002018040020F0B5B8491B
:101E0000B84887B004F0D0FAB74DB84F2B88A12B53
:101E100020D1B74C200003F07DFE0121200003F00B
:101E20004AF8B44BB4492361200004F0ABFA012313
:101E3000002201931F33110020000093203302F091
:101E400061FB200003F0C6FF380001F08BFF072084
:101E5000FEF7F2FD032006F0F9FE002806D10A2065
:101E600006F062FB380001F07DFFF3E7042006F086
:101E7000EDFE0028F3D032260A2006F055FB013E85
:101E8000380001F06FFF002EF6D19C4C2670380010
:101E900001F068FFFEF726FB994B188083B21A0009
:101EA000093A012A09D9043B012B06D9062801D099
:101EB000012802D10123237002E02378002BE6D011
:101EC0002B88A12B5AD18A4D0024280003F022FE32
:101ED0000126022322002100280002930194573397
:101EE000009602F05FFF02232200342128000293B3
:101EF00001944C33009602F055FF0223102221007A
:101F00002800029301941633009602F04BFF02233F
:101F1000102202933421230028000194009602F03D
:101F200041FF022305960493380001F01BFFFEF7E2
:101F3000D9FA744B80B26E4C1880092801D004285D
:101F40001ED100250126049B2900102220000293A7
:101F500001952B00009602F025FF01953500049BAA
:101F600010220293342118232000009602F01AFF59
:101F700005965F4803F02EFF002DD5D107B0F0BDC8
:101F80000A2801D0052819D100250126049B290023
:101F900010222000029301951823009602F002FF00
:101FA000049B0195029310222B00342120000096FF
:101FB00002F0F8FE022335000593DAE7062802D086
:101FC0000125A842D5D10025200003F0A3FD012161
:101FD000200002F070FF4C492000256104F0D2F986
:101FE00010260123320001932900200000963F3380
:101FF00002F088FA380001F0B5FE6421280007F0ED
:102000000FF801223A4C03B2002120000192009601
:102010000F3202F043FA0A2006F086FA380001F087
:10202000A1FE0A2006F080FA380001F09BFE200095
:1020300003F0D0FECA2340355B019D42DAD1322540
:102040000A2006F071FA013D380001F08BFE002DE8
:10205000F6D1059B2000284E012B1FD103F05AFD1D
:102060002000049902F027FF31002561200004F0D0
:1020700089F980235B0325492361200004F082F95C
:10208000200003F0A7FEC8350A2006F04DFA013DF6
:10209000380001F067FE002DF6D16AE703F03AFD43
:1020A0002000049902F007FF31002561200004F0B0
:1020B00069F980235B0316492361200004F062F96B
:1020C000200003F087FEC8250A2006F02DFA013D06
:1020D000380001F047FE002DF6D1049B059348E738
:1020E00038A90000901E00204A010020F3120020B1
:1020F0001804002011000C0052A90000480E002016
:102100003C010020040E002058A9000062A9000034
:1021100065A90000F0B5012189B0092006F03AFD5B
:102120000021092006F066FDE121C94F09023800AF
:1021300005F01EFEC749380004F036F9002264217C
:10214000C54801F069FEC54801F096FFC24801F09C
:1021500013FEC34C02002080C249380004F02EF95F
:102160002388C14CDA0700D410E13800BF4904F0DD
:102170001BF91023238023881A00113A012A01D861
:1021800000F0F8FB152B00D168E30221072006F0D0
:1021900001FD0221032006F0FDFC0221042006F0CF
:1021A000F9FC01210D2006F0F5FC0121080006F0E4
:1021B000F1FC01210D2006F01DFD0121080006F0B3
:1021C00019FDAB4B11201988FEF7F4FAFEF704F85D
:1021D000FEF77AFCA749002803D10122A64BA749A4
:1021E0001A70380004F0E0F8A54B1B7C002B00D1DE
:1021F0000DE10122A34BA4481A7003F08BFCFA21D5
:10220000A248890001F0B6FE9E4B934D1C78002C2D
:1022100000D1EBE0280001F0A5FD0F20FDF77EFFC7
:102220000A239B4C0F2160430013584306F0F8FE2D
:10223000984B18801220FDF771FFD02327215843B7
:1022400006F0EEFE4443944B280024131C8001F05A
:1022500089FD00218D4801F09BFE002848D08F4B5E
:102260008F4D1C682868210006F050FE8D4E21001D
:102270002860306806F04AFE00230022824C30605D
:1022800001932033110020000093123302F006F96D
:102290000121200002F00FFE002320002A6882495D
:1022A000236104F08BF880235B0332687F4923614C
:1022B000200004F083F87E4A2B687E499B18322266
:1022C0002261642B00D97C49200004F077F8C821F2
:1022D0007A4A336889009B18794A22618B4200D977
:1022E0007DE07449200004F069F8200003F072FDDD
:1022F0006421744801F04CFE002817D0684A654BF1
:1023000011681B880D205B181360664A624B1168C8
:102310001B885B1801211360604A13680133136046
:10232000694B1A785140197006F064FC32216748F5
:1023300001F02EFE002807D00121654B0B201A78F2
:102340005140197006F056FCFA216248490001F02C
:102350001FFE00280FD04A4B0A221988380004F0CB
:102360008CF85D4C217800293BD000213C20FDF702
:10237000EBFE00232370072006F068FC002800D045
:1023800042E73F4B18743F4B18703DE79A0705D55D
:102390003800524904F008F81123EBE65A0705D536
:1023A00038004F4904F000F81223E3E6DA0605D5B9
:1023B00038004C4903F0F8FF1423DBE69A0605D5F4
:1023C0003800494903F0F0FF1523D3E65B0600D43B
:1023D000D1E63800454903F0E7FF1623CAE636493F
:1023E00080E77820FDF7B0FE0123C3E721000B2032
:1023F00006F000FC01210D2006F0FCFB322021003C
:10240000FDF7A2FEFEF786FD280001F0ABFC124EA0
:102410000024300001F0A6FC1320354A3549FEF7B0
:1024200089FF354B18802000FFF7ECF8210064206D
:1024300006F0F6FD00250590059BAB425ED001201D
:1024400006F072F8300001F08DFC0135F4E7C0466B
:10245000901E002069A90000F3120020F412002051
:102460002612002072A900002412002078A9000082
:1024700040000020EBA900003A0E0020D0A9000087
:10248000680E00207612002018040020CC120020D4
:10249000B80B0000281200202E120020280E002069
:1024A000781200207C12002006AA00000BAA00006F
:1024B0004AFCFFFF10AA000013AA000050E2FFFF31
:1024C00032001000C812002077120020C412002031
:1024D00075120020C0120020741200208DA9000087
:1024E00099A90000A5A90000B4A90000C3A9000093
:1024F0003B0E0020420E0020060E0020B24B01349D
:102500001B88A3428FDA64240A2006F00DF8013CF0
:10251000300001F027FC002CF6D1FDF7EBFEAB4CB0
:10252000E37C002B00D0E1E0300001F01BFCFDF764
:10253000E1FE0320FEF780FA300001F013FCE2898F
:10254000A34B1A80002A00D1E0E00023A14AA24C4C
:102550001380A24A1380A24AD088011CA04201D94C
:10256000A04909881180A04AA049A148138001F020
:1025700001FDA04B1B78002B00D184E1300001F05D
:10258000F1FB032006F062FB002800D0C2E004301B
:1025900006F05CFB041E00D0BCE0974D2B78059341
:1025A000002B00D1C6E09549380003F0FDFE9449A8
:1025B000380003F0F9FE934D280003F0ABFA012137
:1025C000280002F078FC904928002C6103F0DAFE24
:1025D000012301930F330093102230332100280090
:1025E00001F090FF012306930F330793300001F0B1
:1025F000B9FB6421200006F013FD069A03B2019294
:10260000079A002100922800102201F047FF0523BD
:1026100005930A2005F088FF300001F0A3FB059B1D
:10262000013B0593002BF4D1280003F0D3FBCA2310
:1026300040345B019C42D9D1C8240A2005F074FFC4
:10264000013C300001F08EFB002CF6D1FDF752FE6C
:10265000C8250A2005F068FF013D300001F082FB2B
:10266000002DF6D16949380003F09EFE654C20002C
:1026700003F050FA2000012102F01DFC644B200001
:102680002361644903F07EFE012301931F332A0076
:10269000290020000093203301F034FF200003F0D4
:1026A00099FB300001F05EFBC8240720FEF7C4F957
:1026B00064000A2005F038FF013C300001F052FBB5
:1026C000002CF6D15449380003F06EFE300001F0C2
:1026D00049FBFFF777F801223C4BDA74FDF70AFE5D
:1026E000300001F03FFB434B1C7032E0300001F042
:1026F00039FBC825FEF78CFD0A2005F015FF013DCA
:10270000300001F02FFB002DF6D10DE73222E281DF
:102710001A801AE70021364801F03AFC041E27D03F
:10272000300001F01FFB0023324A137001223B4BA3
:102730001A800EE03A4C0023E15E01290ED139499E
:10274000380003F031FE3849384801F013FC059B8E
:102750002380FDF7C7FE364B18800AE70029F8D121
:10276000324801F015FC0028F3D001232B70EFE76D
:102770002F4B00255D5F012DEBD1300001F0F2FA07
:1027800002221C4B38001C70244B2A491A802A4B09
:102790001C702A4B1C702A4B1D802A4B1C702A4B24
:1027A0001C702A4B1D7003F009FE294B1D70FDF7AC
:1027B00029FDFA212748890001F0DCFB264B300077
:1027C0001C7001F0CFFAC4E7060E0020680E00204E
:1027D00054010020E4110020FEFF0000FE11002043
:1027E000D81200200AAD0000341200208813000027
:1027F000D412002048010020470E00202EAA00001D
:102800003EAA00001804002046AA000051AA0000B9
:1028100008000C005DAA000066AA0000520100201A
:102820004401002017AA0000B80B0000801200200D
:102830003C0100207BAA000068120020400E00200E
:1028400046010020460E00204A0E00203C0E0020CB
:1028500056010020A4120020420100201420FEF79F
:102860002DFBA249380003F0A9FDFEF72DF9A04980
:10287000002803D101229F4B9F491A70380003F0B2
:1028800093FDFEF747FB9D4801F06CFA05F01CFE36
:102890009B4B9C4F186064233A889B4E53439B4A42
:1028A0000F209B187380FDF739FC0A25984C0F21E7
:1028B00060430013684306F0B3FB964B18800F206B
:1028C00006F00AF86043000B0F21684306F01EFB78
:1028D000914B18601220FDF721FCD023272158438B
:1028E00006F09EFBFA2160438C4B00131880894B45
:1028F00080B21B8889005843059306F091FB884DF0
:10290000059928808748FDF73DFC059400284BD0A9
:102910000122854B1A70854B00241C5F022C00D0CD
:1029200098E00127824D834E2978834C3770002927
:1029300005D1824801F02CFB00283CD02F70237871
:10294000002B3ED13378002B54D001236B482370E9
:1029500001F008FA7A497B4A1320FEF7EBFC7A4B28
:1029600080B21880FEF74EFEFA217848890001F007
:1029700001FB3FE0122B86D10121092006F03AF934
:102980007349380003F01AFDFEF79EF858490028F5
:1029900003D10122574B58491A70380003F004FD47
:1029A000564801F0DFF9FBE75E4B1B88002BB2D1E4
:1029B0005D4A1370AFE72A782378002ABFD1002B35
:1029C00018D0624D0021280001F0E2FA002806D15B
:1029D000604B00229B5E012B0CD15F4B37E05E4CBD
:1029E0002378002B32D0FA212800890001F0C2FAA6
:1029F000002323704D4D574F0023EE5E574C022E9F
:102A000001D000F05AFF564A1378002B01D100F094
:102A1000B0FF04232B80002352491370454A0B70EA
:102A200043491370444A0B704F4850491370237048
:102A300003F0BAFC01224E4B4E494F481A7001F088
:102A400099FAFA214D48890001F067F8444B0122B8
:102A50001A70CFE7002C00D198E0042C00D0A8E336
:102A6000374C264D2178002921D1444801F090FAB5
:102A700000281CD00122424B21001A701320314A39
:102A8000FEF758FC304B80B218802378002B0ED014
:102A9000FEF7B8FD4B240A2005F046FD013C280056
:102AA00001F060F9002CF6D10122314B1A70294B4C
:102AB000314C00229B5E0B2B00D016E2002120003F
:102AC00001F066FA00280CD02E4A138801331BB29D
:102AD00013801E2B00D003E201212B4B1970002321
:102AE0001380280001F03EF9F2E0C0468CAA0000F5
:102AF000EBA900003A0E0020D0A90000F31200203C
:102B00006C12002054010020D812002030F8FFFF82
:102B1000B80B000028120020301200202E120020D6
:102B20002A120020EA0D0020E211002052010020AC
:102B3000450E00204B0E0020390E0020A41200206C
:102B4000420E00203B0E0020060E002090120020B6
:102B50009BAA00003C010020370E002068120020D4
:102B60003F0E0020F2120020901E0020BDAB00009E
:102B70005601002030750000A0120020B412002081
:102B80003D0E00200A0E0020490E0020DB4BDC4DDC
:102B900019882800FDF7F6FA00280DD00122D94B3C
:102BA00003201A70D84B13321A80FEF787F9D749E1
:102BB000D7482C8003F002FCD64B1C78002C00D0A8
:102BC000B9E021003220FDF7BFFA21000D2006F008
:102BD00011F8D14801F0C6F8322005F0A5FC0A250D
:102BE0003234CD4801F0BEF801212000FDF7ACFAE7
:102BF0000F2005F071FE059B0F215843000B684321
:102C000006F084F9C54E81B23060C548FDF7BAFAC6
:102C1000142005F089FC07340F20FDF77FFA782C8B
:102C2000DFD10F2005F058FE059B0F215843000B04
:102C3000684306F06BF9B14B0A251880122005F0A5
:102C40004BFED0232721584306F060F9FA21059B5B
:102C5000B44A43431B0B1380A84A98B212888900D8
:102C6000504306F0DDF9B04B188000B2FEF77AFD54
:102C70000694A94801F076F8069B3C880A21181BA7
:102C800006F0CEF9684301210019FDF75DFA0F2027
:102C900005F022FE059B0F2158430A23000B5843E1
:102CA00006F034F981B230609D48FDF76BFA0620DA
:102CB00005F03AFC0F20FDF731FA013DD9D2012190
:102CC0003888FDF741FA0123984A1370914A13702E
:102CD000974B984C00255D5F0B2D00D0D0E1002173
:102CE000954801F055F9002804D0012300222370F3
:102CF000924B1A80032005F0A9FF002800D14DE176
:102D000000238F4A13708F4A13602378002B0CD056
:102D10008D4B0020185E002801D0FDF78DFE0023AA
:102D2000F85EFEF731FC002323707F4B0020185E15
:102D3000FEF718FD5EE6FA218448890001F028F9C3
:102D400000286CD0824D834A2B68132001332B60FE
:102D500013680133136005F0BFFD059C96214443C1
:102D6000FA20240B604306F0D1F87B4B82B2188026
:102D70006E4B7A491B78664800932B6803F01EFB64
:102D80002B68062B2DD10023FA5E674C744B002173
:102D9000595E0023E05E0023FEF730F92388714A74
:102DA000181C1BB2934200DD101CFA2302B25B0018
:102DB0009A4200DA181C00B2F5386421FF3806F098
:102DC0002FF9694B24304000181843880E21013335
:102DD0004380614B0020185EFEF720F800225C4B18
:102DE0001A60C8215C48614A00881368090188425A
:102DF00074D8042B6FD95E4B4E4E1D78554C002D68
:102E00005ED0962322685B009A4208D3FDF79EFAB3
:102E10000B20FDF711FE0123337000232360374B95
:102E2000544C19882000FDF7ADF900280DD0012081
:102E30001022344B1870344B1A80FEF73FF80023F1
:102E40004D493348238003F0B9FA374B4B4C19886E
:102E50002000FDF797F900280FD00122294B48499F
:102E60001A70294B10321A803F4A2948D3880133FF
:102E7000D3800023238003F0A1FA2A4B414C198808
:102E80002000FDF77FF9002800D021E72388002BE0
:102E900000D01DE701221B4B02301A701A4B113271
:102EA0001A80FEF70BF8E2883749131C8A4201D9D1
:102EB000364B1B8836491648238003F07FFA07E714
:102EC00001221A70FDF742FA0B20FDF7B5FD012231
:102ED00025603270A3E701331360A0E7013BFBE7F5
:102EE00020002C4901F046F8FBE52000294901F0BB
:102EF00041F80022284B1A80F3E5C0462812002032
:102F0000341200203E0E0020340E0020A8AA00003B
:102F1000901E0020E30D0020F3120020301200204C
:102F2000EA0D00202E1200202A120020E2110020BB
:102F30003C01002056010020B8120020BC110020E6
:102F4000440E0020240E002066120020AC12002047
:102F50000C0E0020140E00202C120020AEAA00003F
:102F6000060E002088130000680E0020180E0020B6
:102F7000430E0020E4110020CCAA0000FE11002026
:102F8000D2AA0000D8120020FEFF00000AAD000007
:102F9000D7AA0000307500000A0E0020042005F0BA
:102FA00055FE002800D0ABE6032005F04FFE0028B8
:102FB00000D0AAE6043005F049FE051E00D0A4E6C4
:102FC000C54800F0CFFEC54B1B780593002B52D1AE
:102FD000FA21C348890000F0DBFF002821D0C14E50
:102FE0000320336801333360FDF726FD3368BE4D9F
:102FF000012B1CD1280002F08DFD0C2302212B6136
:10300000280001F058FFB949280003F0BBF98023DC
:103010005B03022128002B6101F04DFFB24802F052
:10302000D9FE0123B24A23700A331380BCE7022B76
:1030300007D18023AF495B032B61280003F0A2F97D
:10304000ECE7032B04D180235B03AB492B61F4E74E
:10305000042B04D180235B03A8492B61EDE7052BEA
:10306000DCD12800A64903F08DF901229B4B1A7090
:10307000059B3360D2E7FEF7C1FE984B1D70D0E789
:103080000023A04E3380012D5ED19F499F4803F05D
:103090008BF9FA219E4E9F48338889000133338093
:1030A00000F068FF3388012B19D19B4A1278002A5F
:1030B00013D08D483C22022102F0A0FD974B1888C6
:1030C000FEF7A0FA3A88131C782A00D978239AB21E
:1030D000322A00D232233B8017E63280F2E79A1E72
:1030E000022A2AD8804D280002F014FD1023022164
:1030F0002B61280001F0DFFE8949280003F042F926
:1031000080235B032B610221280001F0D4FE338869
:10311000032B0BD0042B0ED07649022B07D02800AE
:1031200002F058FE0320FDF787FCCBE77249280028
:1031300003F028F9F3E77149F9E7052BC2D1794B80
:103140001D7000233380BDE7042D0DD176496F48F3
:1031500003F02AF93B88772BB4D80A333B8003234A
:103160003380023B2370ADE7092D08D16F496748D2
:1031700003F01AF93B88772BA4D80133EEE7052D2D
:103180000CD16B49614803F00FF93B88322B99D978
:103190000A3B3B8004233380033BE3E70A2D91D1B4
:1031A00064495A4803F000F93B88322B8AD9013B25
:1031B000EFE7012C00D03BE25F4B604D1A78002A0C
:1031C0002BD000222C701A7001225D4B1A702B78C4
:1031D0005C4D002B09D02B88934206D19621002309
:1031E000594889002B8000F0C5FE2C88002C27D17F
:1031F000554F2100380000F0CBFE002801D1FFF729
:10320000E7FB524E3378002B16D096213800890008
:1032100000F0B0FE3470FFF7EDFB2E78002ED3D116
:10322000FDF774F831004A4800F0B2FE0028CBD018
:103230002C70FDF75FF8C7E702232B80FFF7DAFB5E
:10324000022C01D0FFF7D6FB424B434C1B78002BDE
:1032500000D191E02378002B01D000232370FDF7EB
:1032600059FE0021012005F0C5FC3C4F03233C4AD8
:103270000721380002F0FEFE244D3A49280003F0F1
:1032800093F8154E300000F07DFD380002F0C8FEC6
:10329000072005F061F80121080005F0ABFC64206F
:1032A00005F042F9FCF798FF00226421300000F09D
:1032B000B3FD2378002B01D1FFF79CFB2A4928009E
:1032C00003F072F80023234A284913700122284B87
:1032D00028481A80FFF74BFBF3120020440E002011
:1032E0009C120020240E002018040020DDAA0000FB
:1032F0003C010020A3A90000E2AA0000E7AA000008
:10330000EDAA000066120020F3AA0000901E002023
:10331000BC110020B81200203D0E0020060E002037
:1033200065A90000490E002004AB000011AB0000AD
:103330001AAB000029AB000042010020460E00201D
:103340004A0E002046010020D0120020370E002037
:103350009812002049010020410E0020881B002007
:10336000FD00000034AB000038AB0000E2040000B8
:1033700040010020A81200202378002B01D1FFF784
:1033800039FB072005F062FC00280FD00021E2483D
:1033900000F0FEFD002800D13FE10123DF4AE049B3
:1033A0001370E04803F000F8FFF724FB042005F059
:1033B0004DFC0028EAD1DC4B1B78002B01D1FFF734
:1033C00019FBDA4D2E78002E00D0BFE0D84C2388B0
:1033D000012B08D1D749D34802F0E6FFD649D74898
:1033E0002680FFF7C4FA002B01D0FFF703FB002172
:1033F000D24800F0CDFD002801D1FFF7FBFAD049FB
:10340000C84802F0D1FF01232B702380FFF7F2FAA6
:10341000042005F01BFC002800D1F7E0032005F094
:1034200015FC002800D1F1E03378002B28D0C548E6
:1034300000F098FCFDF756F8C34B1880092801D01E
:10344000042812D10023B94AC049280033701370F0
:1034500002F0AAFF200002F05DFBBD49AE4800F07B
:1034600089FD200002F0B6FCDEE70A2801D005281D
:10347000F7D100232800B749337002F095FFF0E739
:10348000AA4B1B78002B61D00927200002F042FBD9
:103490000221200001F00FFDAF4B0A223900236109
:1034A000200002F0E6FF200002F094FC64260A20CF
:1034B00005F03AF8013EA34800F054FC002EF6D186
:1034C000013FE2D2A549280002F06EFFFDF7DAFDC8
:1034D000200002F01FFBA2492661200002F052FFEB
:1034E00080235B039F492361200002F04BFF2000F3
:1034F00002F070FC64360A2005F016F8013E91488F
:1035000000F030FC002EF6D1200002F003FB9649BB
:103510002000266102F036FF80235B03934923617C
:10352000200002F02FFF200002F054FC7F4B904956
:1035300028001E7002F038FF0820FDF77DFA2000F9
:1035400002F0E8FA8249744800F014FD774B1B78CA
:10355000002B01D1FFF74EFA7A4C6426200000F0D0
:1035600001FC844D280002F0D5FA0221280001F068
:10357000A2FC814B00222B61012301931F33110018
:1035800028000093203300F0BDFF7549280002F0A9
:10359000F9FE280002F01EFC0720FDF74DFA0A2074
:1035A00004F0C2FF013E200000F0DCFB002EF6D14B
:1035B0005C4D7249280002F0F7FE6E4C0227200095
:1035C00002F0A8FA6E492661200002F0DBFE01231A
:1035D000310010222000029701960093583301F029
:1035E000E1FB0297013F4E23102234212000019677
:1035F000009701F0D7FB200002F0ECFB614E377022
:10360000072005F023FB002800D001E70A2004F082
:103610008BFF4C4800F0A6FBF2E74B4B00229B5E71
:10362000012B01D0FFF7E6F9574A58491370B8E665
:10363000032C01D0FFF7DEF9554B1B78002B54D13A
:10364000544B1888103804282DD8534C05F054FCDE
:10365000BA000500E400F90001010123454C0E22E7
:103660001F21200000930C3301F096F800250C2355
:1036700006221E21200000930195093B00F00EFF59
:103680000323142200931E212000019500F006FF61
:103690000023FA5E404B0021595E404B0020185E2B
:1036A0001123FDF7ABFCC8213D4800F071FC3D4BF8
:1036B000002803D0012219784A401A701B78002B89
:1036C00000D1F0E02023002100931E22294801911F
:1036D000DB1800F0E3FE0021334800F059FC2C4BCE
:1036E000002800D1E3E001221A7000232F4A30485D
:1036F0001370304A1380304A1380F1880A1C8142CB
:1037000001D92E4A128832802D4A1380FCF7F2FD2F
:10371000FDF700FCFFF76EF9A81200204901002018
:10372000ADAB0000901E00203C0E0020380E0020A3
:10373000400100203DAB0000881300008C120020E7
:103740004DAB0000F31200203C01002079AB0000DB
:10375000E20400007CAB00001C000A0080AB00000B
:103760005DAB000034A9000093AB000099AB0000F2
:103770009DAB0000180400200A000A0062AB0000A4
:1037800073AB0000360E0020400E0020B5AB0000E9
:103790003E010020340E0020060E00202A120020D8
:1037A00084120020E40D0020941200203E0E002020
:1037B000FEFF0000E4110020FE1100200AAD000011
:1037C0003412002001232F22DD4C039319331F21D3
:1037D000200002930192009300220B3B01F009F8B4
:1037E00000250C2307221E21200000930195093B90
:1037F00000F054FE0323152200931E2120000195A2
:1038000000F04CFE0023FA5ECE4B0021595ECE4BF9
:103810000020185E102344E70123002102931D338A
:10382000019322330A00C64803910093C74B01F06D
:10383000DCF80023FA5E0023E15E0023E85E122339
:103840002FE70023FA5E0023E15E0023E85E1323E6
:1038500027E701232F22BA4C039319331F2120009D
:1038600002930192009300220B3B00F0C2FF00255F
:103870000C2307221E21200000930195093B00F034
:103880000DFE0323152200931E212000019500F058
:1038900005FE0023FA5EAB4B0021595EAA4B0020C7
:1038A000185E1423FDE60F20FDF722FF13E71B78B7
:1038B000002B01D1FFF79EF817E7002E00D0FFE0A4
:1038C0000022BB5E062B01D0012B1FD104232B80CD
:1038D00000239F4A9F4913709F4AA0481370A04A33
:1038E000237013609F4A13609F4A13709F4A1360AE
:1038F00002F05AFD0620FDF79FF89D499D4800F013
:1039000039FBFA219C48890000F034FB9B4B1B7863
:10391000002B2ED003232B8000258F4B8F4E1D7044
:103920008F4B97491D608F4B30001D608E4B25706B
:103930001D708E4B1D6002F037FD924B92499348EB
:103940001D7000F017FBFCF7D5FC2800FDF7D0FE3A
:103950000C20FDF771F88E4B18881038042808D811
:1039600005F0C0FAA403A6A8AC008A49300002F012
:1039700025FD2278884D894B002A00D099E100244A
:1039800001210D201C7005F035F92000FDF700FF26
:10399000834B84481C80844B1C80844BD9880A1C30
:1039A000814201D9824A12881A80824B1C80FA21F6
:1039B0002A88814B81488900DA8100F0E9FA0028E1
:1039C0001AD0E1227E4D92002B6801332B60934286
:1039D00012D17C4E614C3378002B00D18CE1FDF785
:1039E00073F8002800D083E1012377493370200069
:1039F00002F0DAFC00232B60FCF774FD388004F041
:103A000063FD724A724B1860136801331360714B87
:103A10001B68C01A704B1A68904200D918606F4B2F
:103A20001A68904200D21860FA216D4C8900236810
:103A3000181820606B4800F0ABFA002828D06A4FB5
:103A400020683B6801333B60604B196805F05EFA03
:103A5000424D614E654932682060280002F0AEFC9C
:103A600028002268624902F0A9FC5C4B28001A6811
:103A7000604902F0A3FC3A685F49280002F09EFC0E
:103A80000023524A31681360544A23601160336046
:103A90004F4C504B22681B68D31A584A934201D9A5
:103AA000FEF7F1FE04F010FD2060F1E754495DE7F8
:103AB00054495BE73000544902F080FC534955E714
:103AC000042E00D0BAE00022514B1A700022BB5ED7
:103AD000062B0BD14F4B1B78002B21D00920FCF774
:103AE000ABFFFCF75BFC01224B4B1A704B490B7888
:103AF000002B00D13DE70023012249480B700370E1
:103B0000484823700370484B484914482A801A706B
:103B100002F054FCFA214648890000F02BFA28E70D
:103B200001220B4922700A70424A43490B482B80FC
:103B3000137002F043FC0520FCF77EFFD6E7C04679
:103B400018040020060E00202A12002024AE0000D7
:103B5000F2120020BDAB0000420E0020901E00209B
:103B60000C0E0020140E0020430E0020180E002022
:103B700030750000A0120020B41200203E0E00207C
:103B8000CCAB00003E010020DC05000094120020B8
:103B9000340E0020DCAB000054010020640E002035
:103BA000E4110020FEFF0000FE110020D8120020CA
:103BB0000AAD000034120020680E0020BC12002064
:103BC000200E00203A0E0020D0A900001C0E00207C
:103BD000701200206C120020C01100204C01002047
:103BE00018120020B0120020100E0020A1AC00001E
:103BF000BCAC0000D7AC0000F2AC0000A761000034
:103C0000EDAB000000AC00001BAC000035AC0000C8
:103C1000E30D00203B0E002056010020490E00203D
:103C2000460E00204A0E00204901002058AC00003A
:103C3000981200203D0E002049AC0000012E1DD13D
:103C4000334A1378002B00D193E602232B80002304
:103C50001370304A237016802F4A30491370304A4F
:103C600030481370304B1E7002F0A8FB2F4B1E70B3
:103C7000FCF7C8FAFA212E4889004EE7032E00D03F
:103C800077E62C4B1A78D3B2002A00D071E60432C2
:103C90002A80294A294923481370237002F08EFB99
:103CA0002749284800F066F90122204B1A70FEF7D8
:103CB000C8FE214A1278002A00D160E601221A705B
:103CC0002A88131C782A0ED9782398B22B801E4B91
:103CD0001978FCF739FA00210D2004F08BFF012040
:103CE000FDF756FD63E692B2322AEED23223ECE7BC
:103CF0000023164933707AE61549200002F054FB80
:103D00000420FDF7DBF8FDF705F912496FE6C04620
:103D1000400E002046010020460E00207BAA000035
:103D20004A0E0020901E00203C0E0020560100206C
:103D3000A41200203E0E0020F212002069AC000008
:103D400030750000A0120020E2110020EBA9000055
:103D500079AC00008DAC00000022014B1A70704756
:103D6000F3120020034AD379DB09FCD1A533137287
:103D70007047C04600100040014B1878C0B2704731
:103D8000380400400221044B1A788A431A70DA7909
:103D9000D209FCD17047C046001000400221064BFA
:103DA0001A788A431A70DA79D209FCD199790132EA
:103DB0000A439A717047C046001000400F4B104AEA
:103DC00030B59A600F4A5A605A78D209FCD10E4A2F
:103DD0000E495A8004220E4BCA67BFF34F8FBFF3C0
:103DE0006F8FC021C02449005A50A4001959094DB1
:103DF000294019511A600123037030BD000C0040A6
:103E000002040000020311000342000004E100E08C
:103E100000E100E0FFFF00FFF8B5037806000D00A9
:103E20001700002B01D1FFF7C9FF0023464C237078
:103E3000E379DB09FCD1FA239B019D424DDA002D89
:103E40004BD0424BAD029D424BDC414B9D424CDC82
:103E5000404B9D424DDC404B9D424EDC3F4B9D42D2
:103E60004FDC3F4B9D4250DC3E4B9D4251DC3E4B74
:103E70009D4251DC3D4B9D4251DC3D4B9D4251DC0E
:103E8000002308250F2101220B40002F4DD060791F
:103E90001B01024362710B22607888430243627007
:103EA000627811400B43637004232278134323701C
:103EB000E379DB09FCD13000FFF754FF02232278BD
:103EC00013432370E379DB09FCD1FA2080238000BF
:103ED00068439B00C0188012F8BD80250B23ED01BC
:103EE000D0E780250A23AD01CCE7802509236D01A9
:103EF000C8E7802508232D01C4E780250723ED00AE
:103F0000C0E780250623AD00BCE7802505236D00B2
:103F1000B8E704238025B5E703234025B2E7022351
:103F20002025AFE701231025ACE720790243227159
:103F300062788A4313430422637023789343237087
:103F4000E379DB09FCD1B6E7001000400BFE7C00F2
:103F50000B7E3E000B3E1F000B9E0F000BCE07009A
:103F60000BE603000BF201000BF800000B7B0000D6
:103F70008B3C00000B005A1E934170B505000C1ECF
:103F8000837004D004F09AFA013C24182C8070BD90
:103F900070B5847805000E00002C0AD0048804F067
:103FA0008DFA074A231A9BB20024934205D95B423B
:103FB000DCB231002800FFF7DDFF200070BDC046F5
:103FC00060EA000000207047F8B505000E001700F9
:103FD0000024BC4208D02B682800315D1B6898473C
:103FE000002801D00134F4E72000F8BD7047030039
:103FF000FC33196ADA69914203D01B6AC018007E4B
:10400000704701204042FBE70300FC33D8691B6A7C
:10401000C01A01D50130FF3070470000F7B5019399
:10402000FA238027002504009B008360114B7F004A
:1040300008330E0045602900009203603A001830F2
:1040400005F053F923002000FC332130DD613A00F4
:104050001D622900FF3005F048F987239B00E31813
:104060005D609D60009B20002375019B2661A57506
:104070006375FEBD80B4000070B5040018260C49BD
:10408000006902F0ADFC206902F0FCFA330008215F
:10409000207D084D4343EB18595604F0EFFD0821ED
:1040A000607D4643AD19695604F0E8FD70BDC04619
:1040B000A086010020C1000070B504000D00006959
:1040C00002F0F5FA2900206902F08AFC206902F06A
:1040D000D9FA70BD8A2300229B00C1540C3BC3183F
:1040E0005A609A600123837570470200FC3253685E
:1040F00010B501339468DBB29C4202D0546801557C
:10410000536010BD10B50300827D002082420ED0A6
:10411000872292009C186268A4680132D2B2A2423F
:1041200005D02133FF331800FFF7DFFF012010BD5A
:104130000300FC3399685A68914206D09A68805C03
:104140009A680132D2B29A60704701204042FBE780
:1041500000228A2370B59B00827505000E00C15CA9
:10416000006902F0D7FA002806D10321286902F07D
:10417000BBFA0224200070BD872328009B00EA18A8
:10418000536894682130FF301C1B01D50134FF3483
:10419000002C0ED02C69FFF7CBFFC1B2200002F03B
:1041A000F7FA0028E8D10321286902F09DFA0324D8
:1041B000E0E7002EDED00321286902F095FAD9E766
:1041C00010B50121FFF7C4FF10BD10B51830FFF77F
:1041D000AFFF10BD70B50400006902F0FBFA0028C3
:1041E00014D0206902F004FB002810D0206902F0EE
:1041F00071FA0321206902F077FA8C239B00E558BD
:10420000002D39D10023FC34E361236270BD2069A5
:1042100002F0F8FA002809D0206902F0EEFA00282E
:1042200004D0206902F0F3FA0028DFD0206902F000
:10423000E9FA002826D1206902F0D5FA0028E5D055
:10424000206902F0E4FA002837D087239B00E218A7
:10425000536892689B1A01D50133FF33FF21002B6D
:1042600005D020002130FF30FFF762FFC1B2206986
:1042700002F0A1FAA075C9E7236820001B699847DE
:10428000A847BFE7206902F025FA2069032102F060
:104290002BFA206902F0BBFA0028B7D0872300224E
:1042A0009B00E3185A609A600123A3758B239B003F
:1042B000E3589342AAD09847A8E72200FC32D3697A
:1042C000126A0133DBB22069934206D102F0F9F998
:1042D0000321206902F008FA98E702F09DFA010034
:1042E00020001830FFF701FF206902F0F3F9EFE733
:1042F00010B50248FFF76EFF10BDC046F412002053
:1043000010B51523142202490248FFF787FE10BD9D
:1043100098210020F41200207047F0B515000C0021
:104320001E0089B00EAB00229B5E0FAA128801907E
:1043300005925A1BD11752184A400292321BD117CC
:1043400052184A4003920399029A8A4205DD3200CC
:104350001E00130022002C001500B44205DD2A00C7
:104360001D001300220034001600321B91B206918A
:10437000591BC8170918414012B20791D10F8A186A
:1043800052100092012204929D4202DB01235B4203
:104390000493B44222DC019B039A1B689B691F00B3
:1043A000029B934216DD22002900059B0198B84725
:1043B000009B079A9A1A11B293B20091120406D583
:1043C000049AAD18069A2DB2D3181BB2009301348B
:1043D00024B2DEE72A002100059BE7E709B0F0BD23
:1043E000704710B504682469A04710BD37B506AC06
:1043F000258804680095A46BA04737BD37B506AC87
:10440000258804680095E46BA04737BD73B506ACFA
:104410000025655F07AC2688046801960095246C2A
:10442000A04773BDF0B5160004000D0085B00393DE
:104430000AAB1F8803685B699847039B2268013BAE
:104440009B191BB2009301972B0029002000976A4B
:104450003200B84723682000DB6A984705B0F0BDFA
:10446000F0B505001C000E00170085B00AAB1B88D4
:10447000013C03930368A4195B69984703992A6870
:10448000019100973100280023B2946A3A00A047B6
:104490002B682800DB6A984705B0F0BDF0B50E0028
:1044A00087B003930CAB029200229B5E040004933E
:1044B0000DAB1B883500059303685B699847039A29
:1044C0002368B21895420BDA059A290000921B6AFC
:1044D00020001F00029A049B0135B8472DB2EEE779
:1044E0002000DB6A984707B0F0BD13B501910E2498
:1044F000015F0C22835E02680091146C002211009F
:10450000A04713BDF0B5040015000E0087B004935A
:104510000CAB00229B5E05930DAB1B8803930368D5
:104520005B699847039A2368009231002A002000B3
:104530005F6A049BB847059B03995A1E2368009144
:104540005219310020005F6A12B2049BB847039AE7
:104550002368009231002A0020001F6A059BB8479B
:104560000499039A23680139009289192A002000CE
:104570001F6A09B2059BB84723682000DB6A984789
:1045800007B0F0BD7047F0B585B002930AAB0027C5
:10459000DF5F0BAB1B8816000393029B04000D002A
:1045A0000268994210D1BE4202DD33003E001F0076
:1045B000039901370091BB1B976B1BB23200290096
:1045C0002000B84705B0F0BDBE420CD1029B994215
:1045D00001DD029D0291029B039901335B1B009157
:1045E000D76B1BB2EAE753699847039A2368019295
:1045F000009720009F6A3200029B2900B847236879
:104600002000DB6A9847DDE703230B4010B5837673
:104610000822835E0A24025FC90702D48381C28113
:1046200010BD8281C381FBE74281C2810122002348
:1046300010B55242064C4261064A08344360046099
:1046400001818181036182610377036210BDC046ED
:10465000A4B9000001010001F0B51C008FB0069262
:10466000012214AB1B780591079315AB0021595E0D
:1046700016AB1B8805000893A3B2D01A93405B4287
:104680001BB289180C938BB209930493002300B2D8
:10469000029003930D92039BA3427BDA029B2700B7
:1046A000002B09DB0C9B671E02331AB20C92029A94
:1046B0003FB29B181BB202936B469B890A9301334E
:1046C0009AB21BB203930B925300029A01339B18C8
:1046D0001BB20293039B9F422CDB079B0D9A134254
:1046E00012D00999BAB25300CB1806990B988A1ABE
:1046F00005992E68411808981BB20090306A12B2D2
:10470000060009B22800B0470222079B134211D0CD
:104710000999BAB25300CB1806990B988A1A0599D1
:10472000089E091A28680096066A1BB2280012B271
:1047300009B2B047BC4227D0079B0D9A13420FD055
:104740006B460A9910229B5E069A089E521A05999A
:10475000286809190096066A12B2280009B2B04703
:104760000222079B13420FD06B460A9910229B5ED0
:10477000069A2868521A059912B2091B089C09B2B8
:104780000094066A2800B047049B3C0002339BB2A9
:10479000049380E70FB0F0BDF0B51E0004000F00D9
:1047A00087B00CAB1B880492059303685B6998473C
:1047B00004990598B2B253008A1A21680090096AD8
:1047C00001330D00200039001BB212B2A847059B2F
:1047D000390002930023019303332000049A0093CD
:1047E0003300FFF739FF23682000DB6A984707B0E2
:1047F000F0BDF0B591B01D0016AB029200229B5E99
:104800000700039317AB00269E5F18AB00229B5E48
:10481000039A049319AB1B880C000993029B9342E3
:1048200000DCD7E0049A93421DDD049B039A934277
:1048300012DA1300049A0392029A02932B003500B5
:10484000260004921C000EE0029B039A03932300AF
:1048500002922C001D00E8E7029B049A04932300B7
:1048600034001E0002923B6838005B699847039B46
:10487000049A93421DD1A54202DD2B0025001C00A5
:10488000B54205DC231CB44200DA331C2E001CB2F6
:1048900009993A6801340091A31B556A3100380028
:1048A000039A1BB2A8473B683800DB6A984711B0EF
:1048B000F0BDA3B2ADB205935B1B1BB26A460D936C
:1048C0006B4691891B89B6B25A1A12B20E92721BAC
:1048D00012B208926A46128A511A09B20B910599CE
:1048E000D21A761A31B212B20C910F920499029A2E
:1048F0000A928A4202D0013B1BB20A930023039E14
:10490000079306930A9B9E422ADC0E99069804F0B0
:1049100087FB28180B9904B2079804F081FB0D9AC5
:10492000069B9446089A634494460693079B28186E
:10493000634400B20793844202DD230004001800A0
:1049400009993A680091526A01309446031B32007B
:104950002100380064461BB20136A04736B2D1E7C9
:10496000029BF21A0C9B53430293039B089AF31A7F
:104970005A430392049B9E4200DD94E70F990298EC
:1049800004F04EFB059B0B99181804B2039804F031
:1049900047FB0C9A029B9446089A63449446029300
:1049A000039B2818634400B20393844202DD230072
:1049B0000400180009993A680091526A013094463F
:1049C000031B32002100380064461BB20136A047A9
:1049D00036B2CFE7039B049A934200DD34E7029A94
:1049E000029303922B000D002CE7F0B58DB00793D6
:1049F00012AB069200229B5E0591019313AB00223D
:104A00009B5E0400089314AB1B880026099315AB2A
:104A10001B8835000A9303685B6998470722019B4E
:104A20000B92D91DCB1713405B18DB100293330098
:104A30009AB20392069A99B28A1812B20492089A0C
:104A4000934227DA0023019A93421DDA9AB2009228
:104A50000B9A6D00EDB2134203D1079ADB10921945
:104A6000D55C2368059A9B691F00009B99186AB260
:104A7000099B09B2002A00DB0A9B2000049AB84770
:104A8000009B01331BB2DEE7039B029A01331BB28A
:104A9000B618CDE723682000DB6A98470DB0F0BD5B
:104AA000F0B585B00AAC0025645F0BAD0026AD5FA4
:104AB0000DAF0CAE36883F8802960397019500949F
:104AC000FFF793FF05B0F0BDF0B595B01D001AAB30
:104AD0001B88049205931BAB1E881CAB1B78026AD3
:104AE00002931DAB1B78040008910393002A00D0A9
:104AF000C4E00C22835E8B4200DC7DE00E22835EEC
:104B0000049A934278DD0623029A53435B18002BE4
:104B100072DD039B049ADB009B18002B6CDD037F86
:104B2000002B03D1AF2D01D90135EDB22368200050
:104B30005B6998470522002355430793984B0B92D6
:104B40005B190F93079A0F9B9B5C0A936B469B8B99
:104B500009936B461B89099A0E936B461F8C029B27
:104B60005343FB181BB20D9308230C9300230693A9
:104B700001220A9B2068134252D06B461A8B198A75
:104B8000029B012B3AD1039B012B37D1099B521871
:104B90008569D919059B12B209B22000A847069B66
:104BA00001335BB206930A9B5B080A930C9B013BA3
:104BB000DBB20C93002BDBD1079B01335BB2079375
:104BC0000B9B013BDBB20B93002BBBD1059BB3428C
:104BD0000ED0029B2268012B3FD1039B012B3CD1BD
:104BE00005370096156A2000049A39B20733A847A2
:104BF00023682000DB6A984715B0F0BD6B46082596
:104C00005B5F039D6A438A18059912B20191694658
:104C10000C25495F0091C5690D992000A847BEE7A2
:104C2000059BB342BBD06B461A8B198A029B012BA2
:104C30000AD1039B012B07D1099B5218D919856909
:104C4000330012B209B2A8E76B4608255B5F039DEB
:104C500001966A438A1812B2D9E76B4608215B5E57
:104C600005210E980196414303987918C0000090E1
:104C7000D5692000049A09B2A847B9E7137A5168A8
:104C8000ED1A1268EDB2ED0013924A5B4B190992CE
:104C90009A780D92DA78119205229A569B790E92A3
:104CA0005BB20F93029B012B02D8039B012B56D9B9
:104CB0006B4638229B5E0B936B463C229B5E0C93AB
:104CC0000027236820005B69984707970697119B88
:104CD000069A9A4200D38BE76B461B8A00260A93FA
:104CE0000C9B9B18039A53430A9AD3181BB2109338
:104CF0003B000D9A96424BD25A1CD2B21292072216
:104D0000134207D1099B0999139A0133525C9BB254
:104D1000079209936B461B7F5BB2002B17DA6B4639
:104D2000198C029B2068012B1DD1039B012B1AD1EA
:104D30000A9B0F9A9A18069BD2180E9B12B2C9189A
:104D4000836989191D002000059B09B2A847079BAC
:104D500001365B00DBB20793F6B2129BC9E7002372
:104D60000C930B93ACE76B4608229B5E0B9A029D5B
:104D700092196A438918059A09B201926A460C256C
:104D8000525F0092C26920001500109AA847DEE722
:104D9000069D0D9B0135FF18EBB2FFB2069396E717
:104DA000A4B400007FB508AC258809AC26880AACFD
:104DB00024780196009503940294FFF785FE7FBD49
:104DC000F0B5026A04000D0085B0002A2CD10A2932
:104DD00008D1437E0282DB00628A9B186382012035
:104DE00005B0F0BD0D29FAD01223C25E1023C15EBA
:104DF000437E0393037E0293C38A0193838A0093C5
:104E00002B00FFF761FE227E238A312D08D1042A70
:104E100002D113332382E2E7032A01D10E33F9E7EB
:104E200006214A439B18F5E70A2905D1002303828E
:104E3000127B437E5343CFE70D29D0D0137A99429A
:104E4000CDD3917AA942CAD3EB1A5168DBB2DB0009
:104E5000CE18B178002929D0F378002B26D0E37E34
:104E6000007E677E002B13D00523F3565B18434367
:104E70009C461023E15E8C440C23E15E8C4507DDEB
:104E80001223E15E00232382137B7B435B18638242
:104E90001223E25E1023E15EE38A02900193A38A6B
:104EA0002000009303972B00FFF70EFE227E33793C
:104EB0005343228AB6E70B1C002900D10123037655
:104EC0004376704710B500F02DFB0022024B8000A6
:104ED000C35849331A7010BD7C150020F0B504008A
:104EE00085B01E000AAB1B78103001930BAB1B780A
:104EF000170002930CAB1B780D00039300F094F99C
:104F00002000243000F090F9220000234832A363EF
:104F1000E363236463641370537063729D4205D12D
:104F20002721084B084A094804F066F92000019B34
:104F300025606371029B2771E371039BA671237245
:104F400005B0F0BDFCB900000DBA000061BA000068
:104F500030B5040085B002AD00680291039201F003
:104F60004CFB6B79227AE17920680093002301F0F1
:104F70000DFD2979029A206801F064FB206801F098
:104F800032FB05B030BD000007B5837A0091019275
:104F9000002B07D09A070AD5EFF310835A425341EA
:104FA000C37272B60099019AFFF7D2FF07BDDB0703
:104FB000F8D5C368014A9BB29360F3E7001800403C
:104FC00010B5006801F022FB10BD000010B50068AC
:104FD00001F030FC03000020834203DB0C3043432C
:104FE000014A985810BDC046C8BA000010B5006804
:104FF00001F020FC002805DB0C2343430348C018C4
:10500000406810BD01204042FBE7C046C8BA00001E
:1050100010B5006801F00EFC002805DB0C234343AB
:105020000348C018806810BD01204042FBE7C0461D
:10503000C8BA0000F0B506001036050089B030008F
:1050400000F048F900286CD12F002437380000F018
:1050500041F9041E62D12800FFF7DAFFC1B2300027
:1050600000F018FA0221300000F038FA01222E492F
:10507000300000F00BFA300000F054FA2B4B8000A7
:10508000C5502800FFF7B2FFC1B2380000F002FAA5
:105090000221380000F022FA380000F043FA234BD6
:1050A0008000C5502800FFF791FF01230100220076
:1050B000029330002300049403940194009400F0C0
:1050C00033FAA8632800FFF781FF012302002100C3
:1050D000019338002300049403940294009400F098
:1050E00023FAE863402004F0E3F82A0048322864F9
:1050F000079200280BD00123137068646B6C102298
:105100001819E96B103404F0E7F8402CF6D1079B2E
:105110001B78002B05D1380000F076F9300000F044
:1051200073F909B0F0BDC046C54E00007C150020E3
:1051300070B5437A0400002B03D1012243814272EF
:10514000C360230048331B78002B02D12000FFF7F7
:1051500071FF18263300082120790D4D4343EB18C9
:10516000595603F08BFD33000821A0794343EB1817
:10517000595603F083FD082160794643AD196956FD
:1051800003F07CFD034B200006CBFFF7E1FE70BD72
:1051900020C10000741500201FB5094A094B0A49B7
:1051A000136000239380029301330193163300931D
:1051B000162201330548FFF791FE05B000BDC04639
:1051C0007415002000093D009C21002028150020B6
:1051D000084B1968002909D1EFF31080064A00280E
:1051E00003D172B6BFF35F8F013111701A680132BB
:1051F0001A6070473817002034170020084B1A68CF
:10520000002A0CD01A68013A1A601B68002B06D1DC
:10521000044B1B78002B02D0BFF35F8F62B6704740
:105220003817002034170020FF2310B50370C02367
:10523000002104009B004170418083800C220830D3
:1052400004F053F8200010BD01230A0010B51A40E5
:10525000194208D00C4A1370033343708368002B43
:1052600000D0984710BD0223194204D006490B70A4
:10527000C3684270F3E704231942F3D0024A137063
:10528000033343700369EAE74E48004110B5FFF766
:105290009FFF0C4B1B8C1B071B0F0B2B0FD80A4AB5
:1052A0009900885800280AD00F2408490A78A24398
:1052B00013430B70064B1978C9B2FFF7C5FFFFF710
:1052C0009DFF10BD004800413C1700203F480041B1
:1052D0004E480041F8B500230278050018000B2A5B
:1052E00077D93C4E2B702B780B2B07D801229A4094
:1052F0003168114204D001332B70F4E7012068E0DB
:10530000FFF766FF3768344C002F2BD12022334B38
:10531000334859690A435A611022D9690A43DA614C
:10532000022223883900934323802388013A1343C0
:1053300023802C4B6063BF32A36303F0D6FFC022EF
:105340003900284803F0D1FF4022C120264B8000BD
:105350002380264B26491A601A581140C022120495
:105360000A431A5001231A00297830688A40024300
:1053700032600F261F4A880085501F48314002784E
:10538000B2430A43027002201C4A11788143117013
:10539000117819431170297822698B409A43226150
:1053A00060223F21636C934363642A79636C0A40F3
:1053B000134912020B400321134363646A79636C3F
:1053C0000A40104992050B4013436364FFF716FF30
:1053D0000020F8BD301700200048004100040040C4
:1053E00070160020B0150020020F000000E100E060
:1053F000FFFF00FF3C1700203F48004140480041AC
:10540000FFC0FFFFFFFF3FFF70B50500FFF7E0FEA5
:105410006B785CB2062B2BD02B7802240B2B27D871
:1054200001229A40144B1968114221D01968914306
:1054300019601B68002B14D14022104BDA67BFF3B0
:105440004F8FBFF36F8F21000D4A0E311388A34396
:1054500013800C4BDA698A43DA615A6910318A4346
:105460005A6100242B78084A9B009C50FF232B7024
:10547000FFF7C4FE200070BD3017002004E100E0FB
:1054800000480041000400403C1700200232920016
:1054900011507047037870B505000C0001710B2B9B
:1054A00014D8FFF795FE29780F250948294003787D
:1054B000084AAB430B4303703F23516C1C40064B1F
:1054C000240219400C435464FFF798FE70BDC04697
:1054D0003F48004100480041FFC0FFFF037870B51E
:1054E00005000C0041710B2B14D8FFF771FE2978D1
:1054F0000F25094829400378084AAB430B43037042
:105500000323516C1C40064BA40519400C43546402
:10551000FFF774FE70BDC0463F480041004800419F
:10552000FFFF3FFF00787047F0B587B001930CABE9
:105530001E780DAB1B78050002930EAB1B7800782C
:10554000039310AB1F78049105920B2802D9002019
:1055500007B0F0BD6B78062BF9D0AB78002B00D1EB
:1055600079E01021080003F099FE0028EFD02B7895
:105570003B4A1B019B181A00D168002904D0D1684E
:105580008B4201D0D268F7E7D06001220223AA70D3
:10559000964203D0DB18022E00D0130006240188A7
:1055A000114301800188A143018001881234A14385
:1055B0000180153C018826402A4C360221400E43CA
:1055C0000680029E0188284C16402140B6020E43F8
:1055D0000680039E0188254C16402140F6020E43AA
:1055E00006800188224E3A40314012030A430721C7
:1055F00002800F9A114002884903D204D20C0A4358
:1056000002806A4692884280049A4260029A002A86
:1056100008D0019A41685A43002F01D00F9CA24044
:105620008A184260059A8260039A002A09D0019A7A
:1056300084685A431300002F01D10F9A9340E31856
:1056400083600023EA789A4203D02B78044A1B0136
:105650009B18C3607CE7024B0001C01895E7C04669
:1056600070160020FFFCFFFFFFFBFFFFFFF7FFFFAF
:10567000FFEFFFFFF0B5150005AA1488827E022A0D
:1056800000D16BE0032A00D19FE0012A00D06DE039
:10569000EA430589AD182DB2002D5EDB0826825F36
:1056A000AA425ADD002902DA5B1800211BB20A2245
:1056B000825EC818904201DD531A1BB2002B4CDDEC
:1056C000C8B2C2085E49920152195218072501005A
:1056D000DBB2294028421CD008205A4D401AC0B2E3
:1056E0002D5C834200D3A3E0FF26C71A3E4135401C
:1056F000012C00D16EE0022C00D16FE0002C2CD1E7
:105700001678AE431670834227D308395B18DBB294
:105710004032072B14D9022C63D1100019000578F0
:105720000839ED43C9B2057040300729F7D8190090
:105730000839C9B2C90801318901521807210B4043
:10574000002B0AD04049CB5C012C58D0022C5AD0F7
:10575000002C02D1117899431170F0BDEA434589BC
:10576000C918AD1802892DB2511A09B2002DF4DB07
:105770000A26825FAA42F0DD002902DA5B180021C6
:105780001BB20822825EC818904201DD531A1BB278
:10579000002BE2DDEA1092015118294A01208A18F3
:1057A00007210D40A840C0B2012C2FD0022C36D0CA
:1057B000002CD2D1C043C0B2013B1BB2591CCCD08B
:1057C0001178014011700132F6E74289C918511A67
:1057D00009B261E716783543157094E7167875407D
:1057E000FAE7611E48424141150018004942C9B21A
:1057F0000838C0B2297040350728F9D897E71178E2
:105800000B431370A9E711784B40FAE7013B1BB239
:10581000591CA2D01178014311700132F6E7013B07
:105820001BB2591C99D01178414011700132F6E732
:10583000012CCFD0022CD1D0002C00D065E75FE73F
:10584000680100206001002058010020F0B50C0024
:1058500005A90D88817E02293CD0032900D1A1E051
:1058600001293FD10189D2188A1A12B2002C00DA1C
:1058700097E00A26815FA14200DC92E0002A02DA6A
:105880009B1800221BB20821415ED018884201DD1E
:105890008B1A1BB2002B00DC83E0E11089018A180F
:1058A0005D490120511807221440A040C0B2012DCB
:1058B00000D17CE0022D00D182E0002D71D1C043E7
:1058C000C0B2013B1BB25A1C6BD00A7802400A706E
:1058D0000131F6E7E1430489D2186418418924B202
:1058E0008A1A12B2002C5CDB0826815FA14258DDC7
:1058F000002A02DA9B1800221BB20A21415ED0184E
:10590000884201DD8B1A1BB2002B4ADDD2B2D108CE
:10591000414889010919091814000720DBB2044025
:1059200002421AD001303D4A001BC0B2125C8342D1
:1059300000D36AE0FF26C71A3E413240012D48D00D
:10594000022D4AD0002D2CD10E7896430E70834242
:1059500027D3083C1B19DBB24031072B14D9022D89
:105960003ED108001A000478083AE443D2B2047029
:105970004030072AF7D81A00083AD2B2D2080132CA
:105980009201891807221340002B0AD0244AD35CC5
:10599000012D33D0022D35D0002D02D10A789A4343
:1059A0000A70F0BDE1434489641824B25EE7013B0C
:1059B0001BB25A1CF5D00A7802430A700131F6E78F
:1059C000013B1BB25A1CECD00A7842400A700131EC
:1059D000F6E70E7832430A70B9E70E787240FAE7BC
:1059E0006A1E504242410C0018005242D2B208389E
:1059F000C0B2227040340728F9D8BCE70A781343B4
:105A00000B70CEE70A785340FAE7012DE1D0022D62
:105A1000E3D0002D9DD197E76801002060010020B0
:105A20005801002030B5002947DB0C25445F8C422B
:105A300043DD002A41DB0E25445F94423DDD847E38
:105A4000022C1ED0032C25D0012C04D1D243008976
:105A500080180A0001B2012B22D0022B2ED0002B7D
:105A60002BD10720D31703409B18DB109B0159183B
:105A70000123024093401A00174C635C9343635424
:105A80001BE00489013C611AD443428909B212190E
:105A900012B2E0E740890138401A110002B2DAE799
:105AA0000724D0172040801822409340C010800166
:105AB00041180948425C1343435430BD0720D317B3
:105AC00003409B18DB109B015918012302409340AF
:105AD000014C625C5340D2E76801002070B50400BD
