:10000000008000204D5300001553000035530000C0
:1000100000000000000000000000000000000000E0
:100020000000000000000000000000003553000048
:10003000000000000000000035530000A153000044
:10004000355300003553000035530000914E000039
:10005000D9520000355300003553000039530000D9
:100060003553000021500000355300003553000087
:10007000F13F0000355300003150000035530000BF
:100080003553000035530000355300003553000050
:10009000AD62000035530000355300005D4E000096
:1000A0003553000035530000355300003553000030
:1000B0000000000010B5064C2378002B07D1054B3B
:1000C000002B02D0044800E000BF0123237010BDC4
:1000D0001003002000000000C09C0000044B10B57D
:1000E000002B03D00349044800E000BF10BDC04608
:1000F0000000000014030020C09C00000122014BFE
:100100001A707047E511002010B5044C103C201DFA
:1001100007F09FFB024B9C42F8D110BDCC11002090
:100120008C10002010B50021062005F0CFFB012225
:10013000014B1A7010BDC046E3110020F7B5040052
:1001400001910C20144903F067FF0C2005F0B0FA70
:100150002300220000261633083200215D5E023B98
:10016000AE199D8036B29342F7D108270025019839
:1001700005F008FB013F45192DB2002FF7D10723E9
:10018000E81718404519ED10AD19EE171E40761905
:10019000F610B0B26681FEBD07080000030010B57E
:1001A0000800052A07D80023FF219A4200DCEDE071
:1001B000C1540133F9E77649202B00D1E4E07549B9
:1001C000212B00D1E0E07449222B00D1DCE07349FF
:1001D000232B00D1D8E07249242B00D1D4E07149FF
:1001E000252B00D1D0E07049262B00D1CCE06F49FF
:1001F000272B00D1C8E06E49282B00D1C4E06D49FF
:10020000292B00D1C0E06C492A2B00D1BCE06B49FE
:100210002B2B00D1B8E06A492C2B00D1B4E06949FE
:100220002D2B00D1B0E068492E2B00D1ACE06749FE
:100230002F2B00D1A8E06649302B00D1A4E06549FE
:10024000312B00D1A0E06449322B00D19CE06349FE
:10025000332B00D198E06249342B00D194E06149FE
:10026000352B00D190E06049362B00D18CE05F49FE
:10027000372B00D188E05E49382B00D184E05D49FE
:10028000392B00D180E05C493A2B7DD05B493B2B78
:100290007AD05B493C2B77D05A493D2B74D05A49D0
:1002A0003E2B71D059493F2B6ED05949402B6BD012
:1002B0005849412B68D05849422B65D05749432BA8
:1002C00062D05749442B5FD05649452B5CD05649E4
:1002D000462B59D05549472B56D05549482B53D01A
:1002E0005449492B50D054494A2B4DD053494B2B9C
:1002F0004AD053494C2B47D052494D2B44D05249F8
:100300004E2B41D051494F2B3ED05149502B3BD021
:100310005049512B38D05049522B35D04F49532B8F
:1003200032D04F49542B2FD04E49552B2CD04E490B
:10033000562B29D04D49572B26D04D49582B23D029
:100340004C49592B20D04C495A2B1DD04B495B2B83
:100350001AD04B495C2B17D04A495D2B14D04A491F
:100360005E2B11D049495F2B0ED04949602B0BD031
:1003700048497B2B08D048497C2B05D047497D2B29
:1003800002D07E2B02D1464907F094FE10BDC04634
:10039000960C00207C00002048010020D6000020A0
:1003A0005E000020300100200A0000201000002024
:1003B000240100204000002016000020360100200B
:1003C00052000020DC000020640000206C010020AE
:1003D000C0010020180100208A01002084010020B3
:1003E0009A00002094000020660100206001002097
:1003F000700000200C0100204C0000205A01002059
:10040000FA00002076000020CA00002042010020EF
:100410001C000020220000202E0000205800002098
:100420006A00002082000020A0000020D0000020F0
:10043000E2000020E8000020EE000020F400002090
:100440000001002006010020120100202A010020E6
:100450003C0100204E010020540100207E010020BC
:10046000900100209C010020A8010020AE01002086
:10047000B4010020BA010020C60100207201002052
:1004800028000020460000203400002096010020B3
:10049000040000201E010020A20100203A000020DC
:1004A0007801002007B50623002100930A0001917E
:1004B000093303F085FE07BDF0B501278BB0069028
:1004C000059114008F49072208A8079307F0F2FD51
:1004D0008D4E33683B420AD18C4D8D49280007F080
:1004E00000FA28008B4A8C49376007F00DFC8B4AD4
:1004F0000123116808001840194202D1884913608D
:100500008870079A1423002A00D10F3B854A864F32
:1005100013803B78854D002B01D1002C36D0002470
:100520007A4E069930002C8007F00EFAB3689C4290
:1005300016D22100300007F0B9FA07F0ABFE030035
:10054000203BDBB25E2B08D8FF2318402038784BC5
:1005500040002A88C35A9B182B800134A4B2E5E7D7
:1005600000233B700023E95E724A0F2907DC102349
:100570005B1A5B1013806C4B18780BB0F0BD07232F
:1005800013804B21664803F075FBF4E70022AB5E55
:100590000F2B53DC062508270F2322002100059886
:1005A0000194009503F00CFE624B06951A88624B8D
:1005B0001A80564883689C423CD2210007F076FAA4
:1005C00007F068FE0500C0B20300203B072208A91F
:1005D0005E2B1AD8FFF7E2FD574E00220023F15E92
:1005E000504B05981B88EDB20293069B0097019330
:1005F00008AB03F01AFF203D4D4B6D003288EB5ADB
:100600009B1833800134A4B2D3E72020FFF7C6FD46
:10061000494D00220023E95E424B05981B88009754
:100620000293069B019308AB03F0FFFE2B88043373
:100630002B80E7E701223C4B1A709CE721003848E9
:1006400003F026FB002800D195E7062508270F2395
:100650002200210005980194009503F0B1FD354B6F
:1006600006951A88344B1A80284883689C423CD2ED
:10067000210007F01BFA07F00DFE0500C0B20300D1
:10068000203B072208A95E2B1AD8FFF787FD2A4EC8
:1006900000220023F15E234B05981B88EDB20293E4
:1006A000069B0097019308AB03F0BFFE203D204B53
:1006B0006D003288EB5A9B1833800134A4B2D3E723
:1006C0002020FFF76BFD1C4D00220023E95E154B37
:1006D00005981B8800970293069B019308AB03F0D3
:1006E000A4FE2B8804332B80E7E7124900228B5E9F
:1006F0000E4A0020125E524293429BD0013B0B8077
:100700003FE7C046A2860000B80C0020180E00206B
:10071000768400000000002053780000BC0C00200C
:10072000280E00202C030020D2010020140E0020EF
:100730003C870000240E0020260E0020F0B50600A5
:10074000404F8FB00C0015003900072205A807F0B4
:10075000B1FC0722390007A807F0ACFC07223900DA
:1007600009A807F0A7FC0A2231000BA807F01FF91F
:100770000D9B022B51D10722202007A9FFF70EFD68
:1007800000210BA807F092F905A90722FFF706FD43
:1007900001210BA807F08AF9072209A9FFF7FEFC3F
:1007A0001423002D00D10F3B00250627264E2A00DA
:1007B0003380290020000F230195009703F000FDEE
:1007C00033882A000293082320000093012107ABFD
:1007D000019703F02AFE338805AA0293082320001C
:1007E00000930421130001972A0003F01EFE20004D
:1007F00033880522092104F06BF833882A0002931C
:1008000008230B2120000093019709AB03F00DFE94
:100810000BA807F01EF80FB0F0BD032BC0D10021CC
:100820000BA807F043F9072207A9FFF7B7FC01213E
:100830000BA807F03BF905A90722FFF7AFFC02213F
:10084000A7E7C046A28600002C030020F0B50500F3
:10085000514F8DB00C0016003900072205A807F093
:1008600029FC3900072207A807F024FC291C642D65
:1008700000DD64210B0400D50021142309B2002EF1
:1008800000D10F3B454E0A2209A8338007F08FF8AC
:10089000632D3ADD002506270F232A0029002000BA
:1008A0000195009703F08CFC33882A0002930823FB
:1008B0000121200000930197394B03F0B6FD3388E6
:1008C0002A00029308230521200000930197354B4D
:1008D00003F0ABFD33882A0002930823092100931B
:1008E0002000314B019703F0A0FD33882A000293CA
:1008F00008230C2100932C4B0197200003F095FD59
:1009000009A806F0A6FF0DB0F0BD0B9B012B37D157
:1009100005A907222020FFF741FC002109A807F0C4
:10092000C5F8072207A9FFF739FC002506260F2383
:100930002A00290020000195009603F041FC174F82
:100940002A003B880B210293082320000093019684
:10095000164B03F06AFD3B8805AA02930823012188
:1009600000932000130001962A0003F05EFD3B88EF
:100970002A000293082331000093019607ABBCE7DD
:10098000022BD2D1002109A807F090F805A907226F
:10099000FFF704FC0121C1E7A28600002C03002020
:1009A000A00000209C010020000100203001002058
:1009B00070B5142305000C00002A00D10F3B0C4E2B
:1009C0003380002D0CD12B0006222900200003F0DB
:1009D0007FFF2B0006220121200003F079FF70BD6C
:1009E0009BB206220021200003F072FF3388F1E75A
:1009F0002C0300200022F0B5050089B007AB9A70E7
:100A0000344B05934B2107A803F042F90028F9D095
:100A100014230024304F22003B800D3B210028008E
:100A200000930194083303F0CBFB6B461421595E0D
:100A30003B88082602930623220028000193009693
:100A4000264B03F0F2FC3B880599029306230839F4
:100A500001932200224B280009B2009603F0E5FC26
:100A6000059B01339BB20593092BCBD13B88220018
:100A7000029306233100280001930096174B03F0E0
:100A8000D4FC3B8822000293062321002800019316
:100A90000096134B03F0C9FCFA20C00004F0C4FC1C
:100AA00005233B800293013322003100280001938B
:100AB00000960A4B03F0B9FC3B8822000293062300
:100AC000210001932800064B009603F0AEFC09B00C
:100AD000F0BDC046FAFF00002C030020C400002037
:100AE000BE0000200022F0B50500072487B005AB4A
:100AF0009A70322105A803F0CBF80028F9D014230E
:100B00000026164F32003B800E3B31002800009338
:100B10000196093303F054FB3B8808220293062315
:100B200021B22800019300920D4B320003F07DFCAE
:100B30003B88210008220293062308390193009282
:100B4000084B3200280009B203F06FFC013C064B51
:100B5000A4B29C42CDD107B0F0BDC0462C0300200A
:100B6000C4000020BE000020F8FF0000F0B5002403
:100B7000062687B005AB9C7022000F23210001944C
:100B80000096050003F01CFB242C1CD0C82105A8EE
:100B900003F07EF80028F7D00823A7B2002208212E
:100BA000280000930297094B019603F03EFC0823AE
:100BB0000022009311002800054B0297019603F0D4
:100BC00034FC0634E0E707B0F0BDC0468E000020DC
:100BD000880000204B6843600A4B8A6903608B6879
:100BE0008360CB68C3600B6903614B6943610B7F12
:100BF000826103770B6A03628B8C8384024B0360F0
:100C00007047C046B88F0000689000003C4AF0B5BD
:100C100011680400012308003A4D8FB018401942B2
:100C200001D1A8701360384B1F78002F2BD0210002
:100C300004A8FFF7CFFF04A8FFF734FC0825002223
:100C40000627324E11003388200002930197304B63
:100C5000009503F0EAFB338800222900200002936C
:100C600001972C4B009503F0E0FB962125484900A5
:100C700003F000F80023244A1370274A1360224B24
:100C800018780FB0F0BD3900280003F001F80028F3
:100C9000F5D0224A1678002E29D11F490B6801335E
:100CA0000B600121042B02D1174B1970E7E7174B9A
:100CB00011701B88082702930623320031002000A0
:100CC00001930097124B03F0B0FB104A39001388D0
:100CD0002000029306233200019300970D4B03F08E
:100CE000A4FB96212800490002F0C4FFC7E72100B9
:100CF00004A81770FFF76EFF04A8FFF7D3FBF0E717
:100D0000C00C00202E0E0020D40100202C03002057
:100D1000A6000020AC000020340E0020D3010020EB
:100D2000F0B5142308250626002204000A4F85B0DA
:100D30003B80110002930196084B009503F075FB70
:100D40003B880022029329002000054B0196009564
:100D500003F06BFB05B0F0BD2C030020B2000020B7
:100D6000B800002007B50623002289B20191009344
:100D70001100093303F024FA07BD0000974AF8B5C3
:100D80001168012308001840194202D194491360E8
:100D90008870944A0123116808001840194202D152
:100DA000914913608870914A012311680800184026
:100DB000194202D18E49136088708E4A012311684E
:100DC00008001840194202D18B49136088708B4A81
:100DD0000123116808001840194202D188491360A4
:100DE0008870884A0123116808001840194202D10E
:100DF000854913608870854D2F78002F23D00021FE
:100E0000774802F045FF0B24002801D000232B7007
:100E10007F4D2E78002E5BD00021734802F038FF02
:100E2000002801D000232B707A4D2E78002E00D19F
:100E300093E000216E4802F02BFF002801D0002330
:100E40002B702000F8BD032004F06CFD03005A1E37
:100E50009341714A714E1370002821D13178664C4C
:100E600000290BD032215E4802F004FF012320004C
:100E70006B492B7002F0FEFE0B240DE0200002F007
:100E800007FF0028F8D0FA210122664B2000490014
:100E90001A70042402F0EEFE5F4B1B783370B7E744
:100EA0003378614C002B07D132214D4802F0E2FE2D
:100EB00001232B702370DFE72378002BDCD0594B04
:100EC00027701A780924002AE6D01F700234E3E75D
:100ED000042004F027FD03005A1E9341534A137067
:100EE000534B002821D11978454E00290ED03221CC
:100EF0003D4802F0BFFE0123300049492B7002F04B
:100F0000B9FE4A4B4A4A1B7813708DE7300002F055
:100F1000BFFE0028F5D0FA210122464B30004900DF
:100F20001A70052402F0A6FEEBE71B78424F002B57
:100F300007D132212C4802F09DFE01232B703B701B
:100F4000DFE73B78002BDCD03A4B3E701A78002A62
:100F500001D01E70D5E70A24D3E70D2004F0E2FC8F
:100F600003005A1E9341354A1370354B00281DD19A
:100F70001978254E00290ED032211D4802F07AFE44
:100F8000012327492B70300002F074FE2B4B2C4AB2
:100F90001B78137055E7300002F07AFE0028F5D078
:100FA0000124FA21274B49001C70ECE71B78264FDF
:100FB000002B07D132210E4802F05CFE01232B707A
:100FC0003B70E3E73B78002BE0D01E4B3E701A7875
:100FD000002A01D01E70D9E70624D7E7A00C002014
:100FE000F60D0020A80C0020000E0020B00C002000
:100FF0000A0E0020A40C0020FA0D0020AC0C0020EA
:10100000060E0020B40C0020100E0020F20D00206F
:10101000F40D0020F50D0020CC010020CF010020B0
:101020001A040000FE0D0020F00D0020CD0100206C
:10103000D0010020040E0020F10D0020CE01002080
:10104000D10100200E0E0020F30D0020F8B5012183
:101050000400022004F00AFC242243484349444F80
:10106000444D454E112C56D107F024F80B3C242258
:10107000310028003C8007F01DF8404B0C2240490D
:1010800040481C8007F016F83F4B043C0C223F49B7
:101090003F481C8007F00EF83E4B0C223E493F486B
:1010A0001C8007F007F83E4B0C223E493E481C804E
:1010B00007F000F83D4B12223D493E481C8006F0E7
:1010C000F9FF3D4B013412223C493D481C8006F09B
:1010D000F1FF3C4B12223C493C481C8006F0EAFFE1
:1010E0003B4B36223B493C481C8006F0E3FF09227B
:1010F0003A4B3B491A803B48273206F0DBFF082277
:10110000394B3A491A803A48103206F0D3FF04228C
:10111000384B1A80F8BD062406F0CCFF242231009B
:1011200028003C8006F0C6FF144B0C2214491548D9
:101130001C8006F0BFFF144B043C0C2213491448DA
:101140001C8006F0B7FF134B0C22134913481C8078
:1011500006F0B0FF124B0C22124913481C8006F017
:10116000A9FF124B1C80D5E7060B00201A8800004F
:10117000EA12002056060020C6870000DE1200207A
:1011800030870000CE0B0020EC1200200E880000FB
:101190008E050020DC120020248700003E0A00207B
:1011A000E81200200288000076090020E6120020E4
:1011B000B888000036030020D6120020008A000004
:1011C000FE030020D8120020788A0000C604002008
:1011D000DA120020128A0000E6070020E212002046
:1011E000488A0000AE080020E4120020EA870000D0
:1011F0001E070020E012002010B5012907D1C822E7
:101200002F4906F057FF2F4B1B88180010BD0229ED
:1012100005D1C8222C4906F04DFF2C4BF4E70329D9
:1012200005D1C8222A4906F045FF2A4BECE70429DC
:1012300005D1C822284906F03DFF284BE4E70529DF
:1012400005D1C822264906F035FF264BDCE70629E2
:1012500005D1C822244906F02DFF244BD4E70729E5
:1012600005D1C822224906F025FF224BCCE70829E8
:1012700005D1C822204906F01DFF204BC4E70929EB
:1012800005D1C8221E4906F015FF1E4BBCE70A29EE
:1012900005D1C8221C4906F00DFF1C4BB4E70B29F1
:1012A00005D1C8221A4906F005FF1A4BACE7002306
:1012B0000C29AAD1C822184906F0FCFE174BA3E757
:1012C000060B0020EA12002056060020DE12002045
:1012D000CE0B0020EC1200208E050020DC12002036
:1012E0003E0A0020E812002076090020E6120020C5
:1012F00036030020D6120020FE030020D812002062
:10130000C6040020DA120020E6070020E2120020C6
:10131000AE080020E41200201E070020E01200208A
:10132000F8B5264D264F2E78002E1CD1254C81B2C3
:101330002000FFF761FF244B21881880234B0220F7
:101340001E80628804F0E6FE204B1B885A1C023384
:1013500052005B00115B1B5BC918380089B202F0B8
:1013600089FC012314E00021380002F091FC0028E0
:101370000FD0164B03211C880334A4B21C8020001C
:1013800006F0D4FC104B80B21B88834203D80023A4
:101390002B702878F8BD0B4E631C5B0064009A5BD1
:1013A000A15B022004F0B6FE084B1B885A1C0233D6
:1013B00052005B00915B9B5BCEE7C046020F0020B2
:1013C000FE1200203A0E0020380E0020040F0020EC
:1013D000F8B50F000821460B144D0E40983104005B
:1013E0003143280003F053FC002802D100242000E0
:1013F000F8BD210A2800C9B203F00DFC0028F5D081
:101400002800E1B203F007FC0028EFD0A12128005A
:10141000314303F04EFC041EE8D00121280003F004
:101420005AFC3870280003F0DFFBE0E7D2120020FE
:10143000082370B50E00144D410B19409833040079
:101440001943280003F023FC002802D100242000C7
:1014500070BD210A2800C9B203F0DDFB0028F5D0D9
:101460002800E1B203F0D7FB0028EFD031002800BC
:1014700003F0D1FB041EE9D0280003F0B5FB0620E1
:1014800003F0D2FFE3E7C046D212002013B56A464C
:101490000023911D9371D3710400FFF799FF6B46F0
:1014A000601CD91DFFF794FF6B466A46DB79907983
:1014B0001B02184316BD70B50C000500C9B22412FA
:1014C000FFF7B6FF681CE1B2FFF7B2FF70BDF7B5DA
:1014D0000500160000240191A64208DD6700E81906
:1014E00000B2FFF7D3FF019B0134D853F4E7F7BDF7
:1014F00010B5002420000021FFF79AFF024B0134B1
:101500009C42F7D110BDC046FF030000F0B5012199
:10151000C1B00D2004F0AAF901210A2004F0A6F9B7
:1015200084486A464369016903F038FB80226946B2
:101530005200814806F0BEFD804C00202100FFF7DC
:1015400047FF2378A52B09D0FFF7D2FFA521002064
:10155000FFF76EFF01210800FFF7ADFF784C794DD2
:10156000794E7A4F30007A49658006F00FFA794952
:101570006782794806F00AFA78496784784806F065
:1015800005FA78496586784806F000FAF5877749C4
:10159000774806F0FBF9230026005233FE361D8003
:1015A0007449754806F0F2F97449B586744806F036
:1015B000EDF92300734F62331F807349734806F0BF
:1015C000E5F90320FFF762FF230060331880230052
:1015D00072331F806E496F4806F0D8F90520FFF777
:1015E00055FF230070331880230082331F806A491F
:1015F0006A4806F0CBF94220FF30FFF747FF23008F
:1016000080331880230092331F806549654806F0B7
:10161000BDF94420FF30FFF739FF230090331880D5
:101620002300A2331F806049604806F0AFF94620CE
:10163000FF30FFF72BFF2300A03318802300B233C5
:101640001F805B495B4806F0A1F94820FF30FFF797
:101650001DFF2300B03318802300574FC2331F8073
:101660005649574806F092F923000022C0331A80E9
:101670002300E2331F80534F5348390006F086F9A8
:1016800023000021E033198023004B4AD2331A8013
:1016900039004E4806F07AF923000021D033198032
:1016A0002300F2331D804A494A4806F06FF94A4F39
:1016B000B5803900494806F069F90120FFF7E6FED8
:1016C00039007080B584464806F060F94A20FF3042
:1016D000FFF7DCFE384A43497084B282424806F084
:1016E00055F96F2207204149FFF7F1FE2E22E52030
:1016F0003F49FFF7ECFE002101250B000A003D48A1
:101700000160E678432E08D10B4E5300F35A0132A4
:1017100023807F2A00DD7F222B0001311034142921
:10172000EFD1002B00D0026002210D2004F09EF8C2
:1017300041B0F0BD70100020080F0020F111002012
:101740008C100020584300009010002053430000EC
:101750005C8300006D830000A01000207C830000EB
:10176000B01000208E830000C0100020A78300006E
:10177000D0100020BE830000E0100020D1830000C4
:10178000C011002058420000E2830000F010002049
:10179000F083000000110020FE83000010110020E3
:1017A0000884000020110020148400003011002063
:1017B00026840000401100205358000034840000AB
:1017C000501100204484000070110020601100209E
:1017D00052840000801100206484000090110020D9
:1017E000B01100206A840000A011002066130020C0
:1017F000621200208810002070B50D000400012145
:101800000D2004F033F801210A2004F02FF82B1CDE
:10181000142D00DD14231A0400D50023074A1BB23F
:101820001B01995EA14203D0012005499C5208701A
:1018300002210D2004F01AF870BDC0468C10002063
:10184000060F002010B5040001210D2004F00EF851
:1018500001210A2004F00AF8014B2401185B10BD95
:101860008C10002070B50C00050001210D2003F044
:10187000FDFF01210A2003F0F9FF0122054B24019D
:10188000E05A02214019E052034B0D201A7003F078
:10189000EDFF70BD8C100020060F002070B50121F7
:1018A0000D2003F0E3FF01210A2003F0DFFF0E4CBF
:1018B00026004136FF36A378532B0AD10B4D002367
:1018C000E15E0A22280004F036F92800084904F0F5
:1018D000C6F81034B442EED1044804F0C9F802212D
:1018E0000D2003F0C3FF70BD8C1000206421002088
:1018F00073840000F0B501210D20C1B003F0B6FFE4
:1019000001210A2003F0B2FF1D4D2E78002E31D0A8
:1019100000221C4B14211A6013001B48C778432F68
:1019200008D10788194C5A00013317537F2B00DD6B
:101930007F233200013989B210300029EED1002A0C
:1019400001D0104A1360114901220B00FE331A70B6
:101950006846FF3206F0AEFB0D4C2000626921693B
:1019600003F00AF963696A462000216903F0B8F8B8
:1019700000232B7002210D2003F078FF41B0F0BD51
:10198000060F0020881000208C100020080F002077
:101990007010002030B50121D1B00D2003F066FF9A
:1019A00001210A2003F062FF0520FFF76FFD454C7F
:1019B000230070330021595E814202D00520FFF7D9
:1019C0007AFD0320FFF762FD230060330021595E9A
:1019D000814202D00320FFF76EFD4220FF30FFF767
:1019E00055FD230080330021595E814203D04220FF
:1019F000FF30FFF760FD4620FF30FFF747FD230073
:101A0000A0330021595E814203D04620FF30FFF70A
:101A100052FD4420FF30FFF739FD230090330021B1
:101A2000595E814203D04420FF30FFF744FD482037
:101A3000FF30FFF72BFD2300B0330021595E8142B8
:101A400003D04820FF30FFF736FD4A20FF30FFF774
:101A50001DFDFE342223E15E814203D04A20FF3087
:101A6000FFF729FD18AD6F2229000720FFF72FFD92
:101A70000024154B195B2B5B8B4204D0E01D09B28F
:101A800000B2FFF718FD0234DE2CF2D101AD2E2298
:101A90002900E520FFF71BFD00240C4BE15A2B5BCE
:101AA0008B4205D02000E53009B200B2FFF703FDFC
:101AB00002345C2CF1D102210D2003F0D7FE51B08D
:101AC00030BDC0468C10002066130020621200203A
:101AD00070B501210D2003F0C9FE01210A2003F099
:101AE000C5FE0024114A124D6300D15A28000A2273
:101AF00004F021F80F4E28003100013403F0AFFF4D
:101B00006F2CEFD100240C4B6200D15A28000A221E
:101B100004F011F801343100280003F0A0FF2E2C4E
:101B2000F1D102210D2003F0A1FE70BD661300204B
:101B3000642100207384000062120020F8B50121A6
:101B40000D2003F093FE01210A2003F08FFE374C95
:101B50003749200003F083FF364D0A222F00FE375D
:101B60000223F95E200003F0E6FF334E200031002F
:101B700003F075FF2B0060330021595E0A2220001C
:101B800003F0D9FF3100200003F069FF2B00A033E0
:101B90000021595E0A22200003F0CDFF3100200011
:101BA00003F05DFF2B0090330021595E0A222000D4
:101BB00003F0C1FF3100200003F051FF2B00B033D0
:101BC0000021595E0A22200003F0B5FF31002000F9
:101BD00003F045FF2B0070330021595E0A222000DC
:101BE00003F0A9FF80353100200003F038FF002307
:101BF000E95E0A22200003F09EFF3100200003F07E
:101C00002EFF0A222223F95E200003F094FF310008
:101C1000200003F024FFFFF75BFF2000074903F0DB
:101C20001EFF02210D2003F021FEF8BD64210020DB
:101C3000758400008C10002073840000719A0000ED
:101C4000F7B514230E00002A00D10F3B0021134FDB
:101C50003B80884206DC0F2306223000009102F010
:101C600091FAF7BD041C0F2800DD0F24002524B2D3
:101C700029000135062230003B882DB202F028FEF3
:101C8000AC42F5DA0F2CECD0210000230622300004
:101C9000013402F01DFE24B2F4E7C0462C030020FC
:101CA000F0B5114C15000022A35E0E008BB08342EC
:101CB00000DA208032210D4801F0EAFF002811D01F
:101CC0000023E05EA621533006F0BAF8310007B2D7
:101CD0006846FEF77FFF2A0069463800FFF7B0FF2D
:101CE000002323800BB0F0BD2C0E0020C612002074
:101CF00070470000F8B50026DF4B0D229E700A21C8
:101D00000123DE4802F050FFDD4CDE4D2700413755
:101D1000FF37073510220021200006F0D4F90222F7
:101D200029002680A01C06F0C5F9201DD6491034D4
:101D300005F0D7FDBC42EDD1D44CD549220000209E
:101D400005F0E2FF8022D3495200D34802F0B0FEF2
:101D50000022D24BD24F9A703800D24905F0C1FD13
:101D6000D14D22002900380005F0CEFFCF4FD049D9
:101D7000380005F0B6FD29002200380005F0C4FF48
:101D8000CC4FCD49380005F0ACFD290022003800C9
:101D900005F0BAFFC94FCA49380005F0A2FD290075
:101DA0002200380005F0B0FFC64FC749380005F0E3
:101DB00098FD29002200380005F0A6FFC34FC44952
:101DC000380005F08EFD29002200380005F09CFF48
:101DD000C04FC149380005F084FD290022003800B9
:101DE00005F092FFBD4FBE49380005F07AFD29008D
:101DF0002200380005F088FFBA4FBB49380005F0D3
:101E000070FD29002200380005F07EFFB74FB84969
:101E1000380005F066FD29002200380005F074FF47
:101E2000B44FB349380005F05CFD290022003800AA
:101E300005F06AFFB04FB149380005F052FD2900A6
:101E40002200380005F060FFAD4FAE49380005F0C4
:101E500048FD29002200380005F056FFAA4FAB4983
:101E6000380005F03EFD29002200380005F04CFF47
:101E7000A74FA849380005F034FD2900220038009A
:101E800005F042FFA44FA549380005F02AFD2900BE
:101E90002200380005F038FFA14FA249380005F0B4
:101EA00020FD29002200380005F02EFF9E4F9F499B
:101EB000380005F016FD29002200380005F024FF47
:101EC0009B4F9C49380005F00CFD2900220038008A
:101ED00005F01AFF984F9949380005F002FD2900D6
:101EE0002200380005F010FF954F9649380005F0A4
:101EF000F8FC29002200380005F006FF924F9349B4
:101F0000380005F0EEFC29002200380005F0FCFE48
:101F10008F4F9049380005F0E4FC2900220038007A
:101F200005F0F2FE8C4F8D49380005F0DAFC2900EF
:101F30002200380005F0E8FE894F8A49380005F094
:101F4000D0FC29002200380005F0DEFE3222864B4C
:101F500086495A80D8329A80A63A1E80DA80844B0D
:101F6000844AD980FA215A80834A1E809A80834B02
:101F7000090159800A211E809A80D980804B8149AD
:101F80001E805980FA2189009A80D9807E4BE121F8
:101F90009A80C822C9001E80DA8059807B4802F0EE
:101FA0004DFC0B207A4F0121B88003F05FFC042325
:101FB000F85E002103F08AFC764B774F9E70774BDA
:101FC00038009E70764B77499E70774B9E70774BAA
:101FD0009E70774B9E70774B9E70774B9E70774BC1
:101FE0009E70774B9E70774B9E70774B9E70774BB1
:101FF0009E7005F076FC29002200380005F084FE72
:10200000734F7449380005F06CFC29002200380039
:1020100005F07AFE704F7149380005F062FC290026
:102020002200380005F070FE6D4F6E49380005F053
:1020300058FC29002200380005F066FE6A4F6B4903
:10204000380005F04EFC29002200380005F05CFE47
:10205000674B684F1A88684B380068491A8005F04A
:1020600040FC29003800220005F04EFE644B9E70B3
:10207000644B9E70F8BDC046FE120020D2120020B4
:102080008C100020A2860000778400000000002051
:10209000090100000089000070100020C612002015
:1020A000180D00207E840000537800009C0D002055
:1020B00082840000900D00208B8400006C0D0020B5
:1020C00093840000480D00209D840000780D0020BE
:1020D000A6840000540D0020B0840000300D0020C4
:1020E000B98400000C0D0020C3840000B40D002052
:1020F000CC840000A80D0020E40D0020D78400004F
:10210000D80D0020E4840000CC0D0020F0840000F5
:10211000C00D0020FC840000D00C002007850000CA
:10212000C40C00200F850000000D00201685000063
:10213000DC0C00201F850000E80C00202985000031
:10214000F40C002035850000240D00203D850000A2
:102150003C0D002046850000600D002050850000E9
:10216000840D00205B85000010100020DC050000BD
:102170002E120020660200000A0A00004812002009
:102180002E130020AA0A00004C130020F411002096
:102190002E0300200E130020F0120020C212002097
:1021A0000213002067850000261300201E13002064
:1021B00006130020221300202A1300201A130020E7
:1021C00016130020121300200A13002058100020BC
:1021D000201200206C850000D411002075850000BD
:1021E000641000207C85000030100020BF840000B7
:1021F000EE0100204C100020BE120020768400006A
:102200005C1000200A10002070B5A0291ADDA02162
:10221000283989B20D4B0180002A00D10C4B5D5C3E
:102220000C4C85706021200001F0D4FD4421200079
:1022300001F0E8FD2900200001F0E4FD200001F09C
:102240003FFE70BD2829E3DA2821E1E7AB860000D4
:102250003E88000044140020F0B5022191B00D200A
:1022600003F004FB0221032003F000FB0221042001
:1022700003F0FCFA0221052003F0F8FA02210C20F9
:1022800003F0F4FA0221092003F0F0FA01210620FC
:1022900003F0ECFA0121002003F0E8FA01210D20FF
:1022A00003F0E4FA01210A2003F0E0FA01210720FB
:1022B00003F0DCFA0021062003F008FB01210020D6
:1022C00003F004FB03220C20C64902F003FF962111
:1022D000C548890104F0BCF89621C448890105F07D
:1022E00087F8C34801F048FDC24D7421280002F070
:1022F00081FB1120FEF7AAFEFFF708F90F20FFF778
:10230000A1FABD4B2900188006A8FEF763FC012145
:1023100006A8FEF727FDFA20800003F085F81321B8
:10232000B648FDF70BFFA723B54C642160430013AB
:10233000584305F085FDB34A83B21380B24A019435
:10234000002493420AD9B14A6434934206D8180053
:10235000AF4B0721C01805F073FD84B2AD4B2900C7
:1023600006A81C80FEF736FC012220B206A9FEF763
:102370006DFA290006A8FEF72DFC0122002006A90F
:10238000FFF75EFCFA20800003F04EF80222A24B19
:102390001A806424984BA14A1B88A14E63430F21E5
:1023A0009B18A0487380FDF7C9FE9F4F132138800A
:1023B0009248FDF7C3FE019B21005843A723001359
:1023C000584305F03DFD8F4D122128803000FDF768
:1023D000B5FEBD232721584305F032FDFA21019BAC
:1023E000924A43431B1313803888019A9BB250438F
:1023F0000013604300125843890005F021FD8C4B07
:10240000210018808B4801F043FC002828D029883F
:10241000764D0A22280003F08EFB874E28003100FB
:1024200003F01DFB814B0A221988280003F083FB6F
:102430003100280003F013FB019B39880A2259431D
:10244000091361432800091203F075FB31002800CD
:1024500003F005FB764B0A222800198803F06FFB76
:10246000704B714A198810885A88904215D91C7986
:10247000724A121B8A4200DD0A0012191A801A8859
:10248000D888824216D359798A4200D301000122AA
:1024900019801A726A4B1A7010E05879020088424B
:1024A00006D81C79654A121B8A4200DD0A0092B2E6
:1024B000121AE3E7002119728A42EBD0564B00242E
:1024C0001C5F022C00D099E101255E4E494906A807
:1024D0003570FEF77FFB06A900203278FFF7B0FBCE
:1024E000594B1D70594D0023E95E002933D15848DE
:1024F00001F0CEFB002800D02C80564B564D1B78A7
:10250000002B32D101332B70544B554D1B78002BCF
:102510004BD101232B704D4B524C00229B5E022B62
:1025200000D00DE14C4B1B78002B00D108E1237843
:10253000002B00D1A6E04C4D0021280001F0A8FBA3
:10254000002800D04AE1494B00229B5E012B00D0BD
:10255000FAE0474B4FE10129CFD1FA213C488900ED
:1025600001F088FB00232B80C7E72F78002FCBD109
:10257000404903A805F0F8F91E4906A8FEF72AFB12
:102580003D4C304B22781B7806A903A8FDF794FF39
:102590003A4E307003A805F05CF933782770002BB1
:1025A000B2D001232B702370AEE72B78002BB2D171
:1025B000284B1B78002B0BD1164B0E4900241C5FB7
:1025C00006A8FEF707FB0122200006A9FEF73EF948
:1025D00000210120FEF7A4FE294B1870002898D096
:1025E00099E7C04625010000642100209C1D0020C1
:1025F00044140020F4110020EE0100204C130020B0
:10260000B80B0000D0120020A50D00006E100000D5
:1026100054F2FFFF2C100020EC01002030F8FFFFE7
:102620002E13002010100020CA120020CE1200200D
:10263000CC1200205810002075840000FFFF00001D
:102640002D120020E1010020F0010020DA0100201D
:102650000E130020D3110020E8110020D211002019
:10266000EC110020E211002006130020D60100200A
:10267000E1110020F0120020E4010020D901002027
:102680002B1000202A78002A5ED001222270CA4A2C
:10269000CA4F1588CA4ACB4E954224D833800125AB
:1026A000C94B1B78002B35D1390006A8FEF792FAEA
:1026B00006A8FEF7ABFA002804D0C44B1A78002A0B
:1026C00000D11D70C24E3178002905D10B20FEF7D4
:1026D00027FE00281AD13570BC4B1B78002BDFD0A9
:1026E000B94B1D70DCE7BB4B9D4205D96423338099
:1026F0000022B54B1A7012E0B74B0721E81805F01D
:102700009FFBB64B30809D42F2D8C8E73378002B50
:10271000C6D0E1E70023AD4A1370AD4A1370A94B50
:10272000390000255D5F06A8FEF754FA280006A9C7
:102730000122FEF78BF8FA21A948890001F09AFAE4
:102740002378002B00D0F6E6A64D0023EC5E022C89
:1027500001D000F0A4FFA44A1378002B21D0042359
:102760002B80A24BA2491C7000230B70A14913704F
:102770000B700121A04A06A81370A04A1180A04A3C
:102780008E4913709F4B00241C5FFEF723FA9E4B6B
:10279000200006A91A78FDF7D1FF9C499C4801F05A
:1027A00069FA9C4B1B78002B01D100F0D1FF9A4BAA
:1027B0001B78002B01D000F06AFF01228C4B1A70AD
:1027C00007232B80894B92181A707C4906A8FEF7C4
:1027D00001FA06A8FEF70EF900F0BAFF8F4C237835
:1027E000002B07D0FA212800890001F043FA0023CA
:1027F0002370A9E77C4B012200F063FD002C4CD034
:10280000042C00D0A8E100226F4C854B26781A706A
:10281000964227D1834F3100380001F039FA002861
:1028200020D0654B1D88664B9D4200D9AAE0654BC0
:102830001E806E4B01271B78604E032B00D00AE1EF
:1028400027700023614A31001370614A06A8137093
:102850005C4B00241C5FFEF7BDF90122200006A995
:10286000FDF7F4FF704B6A4C00229B5E0B2B00D0EF
:1028700018E10021200001F00BFA002836D06B4A45
:10288000138801331BB213801E2B00D005E10121F8
:10289000674B19700023138028E00127654D604BBA
:1028A0002C781F70002C21D1634E22003221300081
:1028B000FFF7AAFC0620390003F008F8C82002F050
:1028C000B3FD504B0A211888323805F0B9FA0100DF
:1028D0006143002230003231FFF796FC01341420AE
:1028E00002F0A2FD0A2CECD101232B70534B454C76
:1028F00000255D5F4C4B524E00229B5E0B2B00D09F
:10290000E9E0002D00D0D5E029004E4801F0C0F9E3
:10291000002808D03C4B494A1D7002231380013B1C
:102920003370494B1D802288131CA02A00D9A02394
:102930009AB2322A00D2322323803378002B13D06C
:10294000414D0022AB5E002B00D0FDE01B4906A8E4
:102950000023E45EFEF73EF92B4B20001A7806A90F
:10296000FDF7ECFE00233370384B144900241C5F44
:1029700006A8FEF72FF9244B20001A7806A9FFF7C6
:102980008FF9E1E6134B9D420AD964230D4A138067
:10299000FA21002338008900237001F06BF961E708
:1029A0000D4B0721E81805F04BFA064B18800B4B2E
:1029B0009D42EDD83DE7C046D0120020F411002022
:1029C000A50D00002C100020E71100201C12002093
:1029D0001D1200206E10000054F2FFFFF80D0000E1
:1029E00006130020EC010020EF110020E20100207E
:1029F000FC120020E2110020E8110020DA01002082
:102A0000EC110020EE010020E101002030750000F3
:102A10001213002048130020CC110020E1110020E7
:102A20004913002022130020D6010020421000206C
:102A3000EB1100200E1000202E030020DC010020EE
:102A4000F00100201A130020E6010020CC12002023
:102A50002B78002B1BD12378002B00D0F1E631001E
:102A600006A8FEF7B7F806A8FEF7D0F8002804D0AD
:102A7000A64B1A78002A00D11F70A54D297800298D
:102A800005D10B20FEF74CFC0028E1D12F709F4BA5
:102A90001B78002BDFD02770DDE720009D4901F077
:102AA000E9F823E720009B4901F0E4F800229A4B63
:102AB0001A801BE7012D07D19849994801F0DAF8EF
:102AC0000023984A13802EE7022D00D02BE7002226
:102AD000954B1A7027E70023944F3B809D4215D1F8
:102AE0008E498F4801F0C6F801228F4B1A70904B27
:102AF0000021595E238804290ED19F2B00D912E7AB
:102B00000A33238003233B8032700CE7022DEBD184
:102B10000123844A1380E7E7092904D19F2B00D9B8
:102B200001E70133EDE7052906D1322B00D8FAE69B
:102B30000A3B23800423E6E70A2900D0F3E6322B80
:102B400000D8F0E6013BF4E700210023E85EFEF741
:102B5000E7FB0028F8D1F9E6062C00D016E10123A6
:102B6000714A744D1370744A744E1278002A50D012
:102B7000734933700A78002A00D083E00B70714BE0
:102B800032701978002906D1200002F09FFEFA2049
:102B9000800002F049FC6C4B6C4F1C886C4B9C42D3
:102BA00025D800233B8000236A4F3B70290006A8EC
:102BB000FEF710F806A8FEF729F8002805D0534BB9
:102BC0001A78002A01D101321A70514C217800295B
:102BD00006D10B20FEF7A4FB002848D10123237067
:102BE0004A4B1B78002B45D001233B7045E05A4BE4
:102BF0009C4232D964233B80544B290006A8002410
:102C00001C5FFDF7E7FF484B20001A7806A9FDF787
:102C10001DFE3378002B35D15049514801F02AF878
:102C20000123337000214E4801F032F8002863D0B0
:102C30004C49414A08884C4B012856D91078002845
:102C40004AD00020107001221A703C4B0880187086
:102C5000464B290000241C5F8AE6454B0721E018FB
:102C600005F0EEF8434B38809C42C5D89BE72378AB
:102C7000002BB5D13B78002B98D00023234A23703A
:102C80001370B9E7384B1B78002BCBD03A4B1B782D
:102C9000002B03D1394B1B78002BC3D1384903A833
:102CA00004F062FE290006A8FDF794FF324C1E4B8B
:102CB00022781B7806A903A8FDF7FEFB2F4B18709E
:102CC00003A804F0C6FD0023237000210320FEF7B3
:102CD00027FB0028F9D1A5E71C78002CB8D0088084
:102CE0000121284C11702170B1E70124264814708D
:102CF000047000200880AAE70D4B00229B5E012B88
:102D0000A6D1184A138801331380A1E71C120020B2
:102D10001D120020307500004210002088130000B2
:102D20001A130020DC010020E1010020E601002050
:102D3000D6010020F4110020E8010020E21100205B
:102D4000E0110020E2010020D01200202C10002011
:102D5000A50D0000E71100206E1000004C040000DB
:102D6000061300203E100020EE120020CC1200209E
:102D700054F2FFFFF80D0000E3010020D90100200C
:102D800030100020EB110020EA110020012C00D0AF
:102D9000D6E0DD4BDD4F1D783C70DD4B002D43D17F
:102DA000DC4E1C70310006A8FDF714FF06A8FDF7E5
:102DB00079FB310006A8FDF70DFF2200280006A9C7
:102DC000FEF73EFFD44BD54C1B78002B55D1012389
:102DD0002370CF4BD24D1B78002B0DD00022AB5E61
:102DE000012B09D12378002B06D096210023CD4852
:102DF00089002B8000F03EFF0023EC5E002C4AD1BE
:102E0000C84F2100380000F043FF002801D1FFF730
:102E10009AFBC54E3378002B3AD0962138008900B2
:102E200000F028FF34708FE41D78002DCAD1B94E10
:102E300006A83100FDF7CEFE3A78280006A9FEF775
:102E4000FFFEBA4903A804F08FFD310006A8FDF784
:102E5000C1FEB74A3B78127806A903A8FDF72CFB00
:102E6000B44F387003A804F0F4FCB14B1D703B78EC
:102E7000002BA7D0A64B1C7094E721780029A8D17D
:102E80000220FEF74DFAAC4B187000289FD0A0E747
:102E900002232B8058E4022C00D055E4A74CA84D07
:102EA00021782B78002937D0002B01D000232B70FC
:102EB000A44B1A78002A01D000221A70FEF71AFDDE
:102EC0000021080002F002FD9F4E03239F4A0D21BE
:102ED000300001F097FF300001F06AFF0D2002F092
:102EE000BBF90121002002F0F1FC7421894801F0B6
:102EF00081FD2B78DAB2002B07D09621002394486D
:102F0000C900237000F0B6FE1EE48E4B1B78002B28
:102F100000D119E4227017E4002B00D114E48C488E
:102F200000F0B6FE002801D0012361E4894B0022A5
:102F30009B5E012B01D0FFF707FC874A137057E413
:102F4000032C38D10125854C704B26781D70002E3E
:102F50000DD1704906A8FDF73DFE06A8FDF7E0FE7D
:102F600031007F4800F094FE002800D025707D4D90
:102F70002B78002B06D000210C20FEF7D1F9002879
:102F8000F9D128702378002B0AD00023764A1370D9
:102F9000764A1380764A1380764A1380764A1380E5
:102FA000764C2378002B01D0FFF7CEFBFEF7A2FC76
:102FB000FEF7F0FCB8E7072C01D0FFF7C5FB704E19
:102FC0003378002B47D16F4D6F4A2800137003F000
:102FD000B1F9002801D1FFF7B7FB290006A803F0DB
:102FE0005DF86A4C06A9200004F0C8FC06A804F0AD
:102FF00030FC200004F05EFD2100280002F028FDD6
:103000002000634904F026FD002801D1FFF79CFB56
:10301000FA21012400255F4B5F4849001C7000F035
:1030200029FE5E49594804F0B1FC3470394C374EE2
:10303000210006A83570FDF7CDFD2800327806A9DD
:10304000FEF7FEFD210006A8FDF7C4FD06A8FDF76A
:103050008DFDFFF779FB4F4A1378002B1ED000231C
:1030600049494F4C0B702178042913D84A4D190057
:10307000280000F00DFE002801D1FFF765FBFA21C2
:103080002800490000F0F6FDFEF758FD23780133D3
:10309000FFF7AEFB23701370FFF756FB414E394C20
:1030A0003378002B00D083E20026374B20001E70BF
:1030B00003F040F9B04201D1FFF746FB210006A81A
:1030C00002F0ECFF314D06A9280004F057FC06A8D9
:1030D00004F0BFFB280004F0EDFC2900200002F002
:1030E000CFFC2800304904F0B5FCB04262D02F4B31
:1030F000052130001E70FEF77FFB2D49200002F0F5
:10310000C9FCFFF721FBC046CF110020E1010020E0
:10311000E9110020F4110020CE110020EC11002054
:10312000DE0100202A130020E111002020120020DF
:10313000E5010020D90100202B100020E001002033
:10314000E5110020E6110020941A0020FD00000087
:1031500016130020D6010020E4110020D801002021
:103160000A1300202A100020E31100204A13002037
:1031700040100020340300209C0C0020ED110020A2
:103180006010002064210020491300204C10002012
:10319000180D0020C01200201E13002076840000AD
:1031A00048100020D11100209C0D0020D3110020D8
:1031B000818500002800D04904F04CFC061E00D197
:1031C00082E00125CD4B052128001D70FEF714FB80
:1031D000CB49200002F05EFCCA49200002F05AFCF4
:1031E000C949200002F03BFC2000C84902F048FC1D
:1031F000C74F3B78002B62D1200003F09BF80028DA
:10320000F6D0210006A802F049FFC24E06A9300000
:1032100004F0B4FB06A804F01CFB300004F04AFCE8
:103220003100200002F02CFC3000BB4904F020FCEF
:1032300000283CD0B949200002F02CFCB849B9481C
:1032400000F018FDB84E317800292BD1B54800F0B8
:103250001FFD002807D0B54A13780133DBB2137085
:103260000A2B00D13570200003F064F80028E9D063
:10327000210006A802F012FFA64E06A9300004F0B5
:103280007DFB06A804F0E5FA300004F013FC3100E1
:10329000200002F0F5FB31009C4804F055FBA24BE6
:1032A0001D70CFE700233370994B1D70A0E73000ED
:1032B0009F4904F0DDFB00289AD03D7098E700227A
:1032C000934B1A70FFF740FA28009A4904F0C2FBAA
:1032D000002807D0984B132130001E70FEF78CFA9F
:1032E00096490BE72800964904F0B4FB061E7DD0F2
:1032F0000125914B132128001D70FEF77DFA91499D
:10330000200002F0C7FB7F49200002F0C3FB7E498A
:10331000200002F0A4FB20008B4902F0B1FB7C4F9F
:103320003B78002BCBD1200003F004F80028F6D026
:10333000210006A802F0B2FE764E06A9300004F085
:103340001DFB06A804F085FA300004F0B3FB310041
:10335000200002F095FB30006F4904F089FB002843
:103360003CD07A49200002F095FB6D496D4800F091
:1033700081FC6D4E317800292BD16A4800F088FC21
:10338000002807D0694A13780133DBB213700A2B87
:1033900000D13570200002F0CDFF0028E9D02100D7
:1033A00006A802F07BFE5B4E06A9300004F0E6FAA8
:1033B00006A804F04EFA300004F07CFB3100200037
:1033C00002F05EFB3100604804F0BEFA564B1D70FF
:1033D000CFE7002333704E4B1D70A0E730005449F7
:1033E00004F046FB00289AD03D7098E72800584921
:1033F00004F030FB071E07D0564B310030001E7022
:10340000FEF7FAF9544979E62800544904F022FB02
:10341000061E07D001204F4B39001870FEF7ECF95B
:103420004F496BE628004F4904F014FB002807D0F1
:103430004D4B012130001E70FEF7DEF94B495DE671
:1034400028004B4904F006FB002807D00120464B1A
:1034500001001870FEF7D0F946494FE628004649AA
:1034600004F0F8FA002807D000200421434B18701C
:10347000FEF7C2F9424941E62800424904F0EAFA5F
:1034800006000120002EF0D128003F4904F0E2FAA6
:10349000002804D03D4B032130001E70E8E72800CF
:1034A0003B4904F0D7FA002804D00120374B032110
:1034B0001870DDE72800374904F0CCFA002804D062
:1034C0000120354B02211870D2E72800334904F05F
:1034D000C1FA0028F4D13249280004F0BBFA31497E
:1034E000002800D10AE6FA2101222F4B2F4889003B
:1034F0001A7000F0BFFBBDE7900D0020D311002033
:1035000098850000AD850000BA850000F01200200B
:103510003C1000204C100020C2850000C685000031
:10352000307500000A1000202C1200200810002026
:10353000E08500006C0D0020CF110020E385000025
:10354000480D0020F7850000201200200A860000A8
:10355000780D0020D211002022860000540D00209A
:1035600039860000300D0020CE1100204E8600006C
:103570000C0D002063860000B40D0020D011002047
:1035800077860000A80D0020E40D0020CD1100205A
:10359000D80D0020CC0D0020CC110020C00D002043
:1035A000C40C00208C860000D11100205C1000208B
:1035B000DA4D0021280000F06BFB002806D0FA212C
:1035C0002800890000F056FBFEF768F9200002F0A1
:1035D000B1FE002801D1FFF7B7F8210006A802F0DC
:1035E0005DFDCF4D06A9280004F0C8F906A804F037
:1035F00030F9280004F05EFA2900200002F040FAB9
:103600002800C84904F026FA041E02D0C64BFFF772
:10361000F2F82800C54904F01DFA002803D0C24B77
:103620001C70FFF791F82800C14904F013FA002834
:1036300005D0C04A138801331380FFF785F82800AE
:10364000BD4904F007FA002803D0BA4A13880A33A8
:10365000F2E72800B94904F0FDF9002803D0B54A83
:103660001388013BE8E72800B54904F0F3F9041E8C
:1036700003D0B04A13880A3BDEE72800B14904F0C2
:10368000E9F9002801D1FFF75FF8FFF7CBFB002134
:103690000720FDF745FE0028F9D1FFF78EF8002C32
:1036A00000D0E6E0A84B00229B5E012B00D0BEE0DC
:1036B00006222A80A54A1470A54A1370A54B1C80C7
:1036C000A54B1B78002B13D0A44B1B78002B00D0EC
:1036D000C8E00122A24BA3491A70072300222B80C5
:1036E0009A4B06A81A70FDF775FA06A8FDF782F93D
:1036F0009D4B1B78002B2BD00024994B21000620DA
:103700001C7002F0E3F80323FA210125974A984838
:1037100013808E4B49001C70964B1C70964B1D708D
:1037200000F0A8FA29000C20FDF7FAFD8D4D06A83F
:103730002900FDF74FFA06A8FCF7B4FE290006A8F9
:10374000FDF748FA8D4B20001A7806A9FEF778FAA3
:103750008B4C2378002B09D0642001F065FE0123F7
:103760007D4A11784B401370002323706E4B7D4EC1
:103770001A78824D834B002A00D028E200240620CC
:1037800021001C7002F0A2F87F4B1C807F4B1C8034
:103790007F4B1C80310006A8FDF71CFA2A78200018
:1037A00006A9FDF705F9634B0C210020185EFEF712
:1037B00023F8604B0F210020185EFEF71DF8754BB3
:1037C00075481B880D215843001300B2FEF714F80A
:1037D000724B0E210020185EFEF70EF8704B11217F
:1037E0000020185EFEF708F8FA216E48890000F004
:1037F0004FFA002815D0E1226B4C120123680133E7
:10380000236093420DD107210120FEF72BF80821F8
:103810000120FEF727F8FEF7BDF8FEF76BF800234E
:103820002360FDF7ABFA484B1880FEF7B2FD062B7C
:1038300000D045E74A4B1C7004232B80434B1C707F
:1038400000210620FDF76CFD041EF9D157495848A8
:1038500000F010FAFA21574B574889001C7000F00D
:1038600009FA2DE700210720FDF75AFD0028F9D1BC
:103870002FE7042C00D0ABE00022504B1A70324BE3
:1038800000215B5E012B33D106322A802F4A14704F
:103890002F4A13702F4A1480494A13802E4B1B78ED
:1038A000002B12D02D4B1B78002B30D101222C4B3A
:1038B0002C491A7007232B80244B033206A81A7058
:1038C000FDF788F906A8FDF795F83E4A1378002B16
:1038D00000D13DE70021224B0424197001231B482D
:1038E0002B800470384811700370384803702FE73C
:1038F000062BD3D101211A4B2A801970134B1C704F
:1039000000210520FDF70CFD0028F9D1C6E70021B4
:103910000720FDF705FD0028F9D1C7E75C1000205E
:103920004C100020DC0C002049130020E80C002083
:10393000F40C0020EE010020240D00203C0D00209E
:10394000600D0020840D0020D6010020E20100203F
:10395000E3010020EA01002048130020CC110020E0
:10396000FC120020F4110020E3110020EC010020E3
:103970000A130020D80100202A100020E1010020B5
:10398000EE110020F0110020401000203403002030
:103990009C0C0020CA120020E40C0000CC12002075
:1039A0002C10002026130020441000203075000049
:1039B00012130020E7110020221300200E10002017
:1039C000DC010020EB110020E9110020EC110020A7
:1039D000062C4ED187490B78002B0FD00023864A46
:1039E0000B701370012285492A800A70844A854829
:1039F0001370854A04701370844A1370844C2378C2
:103A0000002B1DD0834B844900229B5E06A82B808F
:103A10005A425341784A137006227A4B1A707F4BF0
:103A200000269E5FFDF7D6F87D4B30001A7806A978
:103A3000FCF784FE0023724A23701370734A1370DC
:103A4000784B1B78002B00D182E6774B1B78002B3C
:103A500008D10122684B1A70072305322B80694B6D
:103A6000FEF7B2FE00210720FDF75AFC0028F9D12D
:103A7000EFE7012C49D16D4A1378002B2CD000239D
:103A80005D4913700B706A496A4A0C8002212980D3
:103A90005C4913700C7068490C7068490B70684978
:103AA0000B70684B1B78002B16D0674B1B78002BD4
:103AB00012D1664B07211888654BC01804F0C0F975
:103AC0000600644B5449188006A8FDF783F82200CD
:103AD00030B206A9FCF7BAFE524B1B78002B00D17E
:103AE00036E6514B1B78002B08D10123424A137054
:103AF00007222A80434A1370FEF767FE0021072041
:103B0000FDF70EFC0028F9D1EFE7032C22D1524B30
:103B10001E78002E00D01BE6374B50491E70042340
:103B20002B80384B4E481C7000F0A4F8FA21414B12
:103B30004C4889001E7000F09DF8384B364900242F
:103B40001C5F06A8FDF746F80122200006A9FCF735
:103B5000F5FDFDE5072C00D0FAE5324B1978002978
:103B600000D0F5E5244B0620197001F0AFFE2E4B76
:103B70001B78002B24D1284C06A82100FDF72AF839
:103B800006A8FCF7AFFF334B210000269E5F06A876
:103B9000FDF720F8012206A93000FCF757FEFA20B5
:103BA000800001F041FC07210123164A2B8011708F
:103BB000224A1370224A137000222B4B1A70C7E559
:103BC00000210820FDF7ACFB0028F9D1D3E70A4A11
:103BD0001278002A00D1D1E501241C70234B24481F
:103BE0001A780E4B1988FEF70FFB2100062001F012
:103BF0006DFECFE5EB110020FC120020E501002056
:103C0000E2110020E2010020E3010020E011002089
:103C1000EA110020EA010020F4110020EE0100204A
:103C2000E101002048130020CC110020E411002005
:103C3000DE010020E7110020E4010020E91100204E
:103C4000EC110020D2110020D3110020D01200204E
:103C500054F2FFFF2C100020E3110020307500000B
:103C60001213002022130020601000202D120020CB
:103C70002E0300200B005A1E934170B505000C1E48
:103C8000837004D001F09AFB013C24182C8070BD95
:103C900070B5847805000E00002C0AD0048801F06D
:103CA0008DFB074A231A9BB20024934205D95B423D
:103CB000DCB231002800FFF7DDFF200070BDC046F8
:103CC00060EA000000207047F8B505000E001700FC
:103CD0000024BC4208D02B682800315D1B6898473F
:103CE000002801D00134F4E72000F8BD704703003C
:103CF000FC33196ADA69914203D01B6AC018007E4E
:103D0000704701204042FBE70300FC33D8691B6A7F
:103D1000C01A01D50130FF3070470000F7B501939C
:103D2000FA238027002504009B008360114B7F004D
:103D300008330E0045602900009203603A001830F5
:103D400004F0C1F923002000FC332130DD613A008A
:103D50001D622900FF3004F0B6F987239B00E318A9
:103D60005D609D60009B20002375019B2661A57509
:103D70006375FEBD8C8A000070B5040018260C49DE
:103D8000006902F049F9206901F0C2FF33000821FF
:103D9000207D084D4343EB18595601F0DBFD082107
:103DA000607D4643AD19695601F0D4FD70BDC04633
:103DB000A08601002096000070B504000D00006987
:103DC00001F0BBFF2900206902F026F9206901F00B
:103DD0009FFF70BD8A2300229B00C1540C3BC31877
:103DE0005A609A600123837570470200FC32536861
:103DF00010B501339468DBB29C4202D0546801557F
:103E0000536010BD10B50300827D002082420ED0A9
:103E1000872292009C186268A4680132D2B2A24242
:103E200005D02133FF331800FFF7DFFF012010BD5D
:103E30000300FC3399685A68914206D09A68805C06
:103E40009A680132D2B29A60704701204042FBE783
:103E500000228A2370B59B00827505000E00C15CAC
:103E6000006901F09DFF002806D10321286901F0B7
:103E700081FF0224200070BD872328009B00EA18E0
:103E8000536894682130FF301C1B01D50134FF3486
:103E9000002C0ED02C69FFF7CBFFC1B2200001F03F
:103EA000BDFF0028E8D10321286901F063FF032446
:103EB000E0E7002EDED00321286901F05BFFD9E79F
:103EC00010B50121FFF7C4FF10BD10B51830FFF782
:103ED000AFFF10BD70B50400006901F0C1FF0028FC
:103EE00014D0206901F0CAFF002810D0206901F029
:103EF00037FF0321206901F03DFF8C239B00E5582B
:103F0000002D39D10023FC34E361236270BD2069A8
:103F100001F0BEFF002809D0206901F0B4FF00289D
:103F200004D0206901F0B9FF0028DFD0206901F03A
:103F3000AFFF002826D1206901F09BFF0028E5D0C3
:103F4000206901F0AAFF002837D087239B00E218E0
:103F5000536892689B1A01D50133FF33FF21002B70
:103F600005D020002130FF30FFF762FFC1B2206989
:103F700001F067FFA075C9E7236820001B69984717
:103F8000A847BFE7206901F0EBFE2069032101F09B
:103F9000F1FE206901F081FF0028B7D087230022BD
:103FA0009B00E3185A609A600123A3758B239B0042
:103FB000E3589342AAD09847A8E72200FC32D3697D
:103FC000126A0133DBB22069934206D101F0BFFED1
:103FD0000321206901F0CEFE98E701F063FF0100A4
:103FE00020001830FFF701FF206901F0B9FEEFE76C
:103FF00010B50248FFF76EFF10BDC0464414002004
:1040000010B51523142202490248FFF787FE10BDA0
:10401000A4200020441400200822074B00050905B5
:10402000090D000DD884998499880A439A805A7E94
:10403000D209FCD17047C046004000427047F0B53D
:1040400015000C001E0089B00EAB00229B5E0FAA6B
:104050001288019005925A1BD11752184A400292B9
:10406000321BD11752184A4003920399029A8A428E
:1040700005DD32001E00130022002C001500B442A2
:1040800005DD2A001D001300220034001600321B3B
:1040900091B20691591BC8170918414012B20791F5
:1040A000D10F8A1852100092012204929D4202DB25
:1040B00001235B420493B44222DC019B039A1B68F8
:1040C0009B691F00029B934216DD22002900059B7D
:1040D0000198B847009B079A9A1A11B293B20091BF
:1040E000120406D5049AAD18069A2DB2D3181BB245
:1040F0000093013424B2DEE72A002100059BE7E7A4
:1041000009B0F0BD704710B504682469A04710BD20
:1041100037B506AC258804680095A46BA04737BD69
:1041200037B506AC258804680095E46BA04737BD19
:1041300073B506AC0025655F07AC26880468019658
:104140000095246CA04773BDF0B5160004000D0067
:1041500085B003930AAB1F8803685B699847039B8C
:104160002268013B9B191BB2009301972B00290089
:104170002000976A3200B84723682000DB6A98471E
:1041800005B0F0BDF0B505001C000E00170085B0AD
:104190000AAB1B88013C03930368A4195B69984729
:1041A00003992A68019100973100280023B2946A8C
:1041B0003A00A0472B682800DB6A984705B0F0BD9D
:1041C000F0B50E0087B003930CAB029200229B5E09
:1041D000040004930DAB1B883500059303685B69ED
:1041E0009847039A2368B21895420BDA059A29007A
:1041F00000921B6A20001F00029A049B0135B847F9
:104200002DB2EEE72000DB6A984707B0F0BD13B58A
:1042100001910E24015F0C22835E02680091146CF0
:1042200000221100A04713BDF0B5040015000E00D8
:1042300087B004930CAB00229B5E05930DAB1B88EB
:10424000039303685B699847039A236800923100DF
:104250002A0020005F6A049BB847059B03995A1EF9
:10426000236800915219310020005F6A12B2049B4A
:10427000B847039A2368009231002A0020001F6A81
:10428000059BB8470499039A23680139009289195C
:104290002A0020001F6A09B2059BB8472368200046
:1042A000DB6A984707B0F0BD7047F0B585B0029360
:1042B0000AAB0027DF5F0BAB1B8816000393029B42
:1042C00004000D000268994210D1BE4202DD3300A5
:1042D0003E001F00039901370091BB1B976B1BB277
:1042E000320029002000B84705B0F0BDBE420CD115
:1042F000029B994201DD029D0291029B03990133C9
:104300005B1B0091D76B1BB2EAE753699847039A8E
:1043100023680192009720009F6A3200029B2900C7
:10432000B84723682000DB6A9847DDE703230B408A
:1043300010B583760822835E0A24025FC90702D47F
:104340008381C28110BD8281C381FBE74281C2812A
:104350000122002310B55242064C4261064A08343D
:10436000436004600181818103618261037703629C
:1043700010BDC046B08F000001010001F0B58DB046
:10438000089312AB079200229B5E0691029313AB37
:1043900000229B5E0400099314AB1B8800260A933D
:1043A000036835005B6998470722029B0B92D91D71
:1043B000CB1713405B18DB10039333009AB20492BF
:1043C000079A99B28A1812B20592099A934226DA8C
:1043D0000023029A93421CDA9AB201920B9A6D0062
:1043E000EDB2134203D1089ADB109219D55C6BB27F
:1043F000002B0ADA019B069A200099182368059A77
:104400009B6909B21F000A9BB847019B01331BB28D
:10441000DFE7049B039A01331BB2B618CEE723688B
:104420002000DB6A98470DB0F0BD7FB508AC0025D1
:10443000645F09AD0026AD5F0AAE3688019502962D
:104440000094FFF79BFF7FBDF0B595B01D001AAB40
:104450001B88049205931BAB1E881CAB1B78026A59
:1044600002931DAB1B78040008910393002A00D02F
:10447000C4E00C22835E8B4200DC7DE00E22835E72
:10448000049A934278DD0623029A53435B18002B6B
:1044900072DD039B049ADB009B18002B6CDD037F0D
:1044A000002B03D1AF2D01D90135EDB223682000D7
:1044B0005B6998470522002355430793984B0B925D
:1044C0005B190F93079A0F9B9B5C0A936B469B8B20
:1044D00009936B461B89099A0E936B461F8C029BAE
:1044E0005343FB181BB20D9308230C930023069330
:1044F00001220A9B2068134252D06B461A8B198AFC
:10450000029B012B3AD1039B012B37D1099B5218F7
:104510008569D919059B12B209B22000A847069BEC
:1045200001335BB206930A9B5B080A930C9B013B29
:10453000DBB20C93002BDBD1079B01335BB20793FB
:104540000B9B013BDBB20B93002BBBD1059BB34212
:104550000ED0029B2268012B3FD1039B012B3CD143
:1045600005370096156A2000049A39B20733A84728
:1045700023682000DB6A984715B0F0BD6B4608251C
:104580005B5F039D6A438A18059912B201916946DF
:104590000C25495F0091C5690D992000A847BEE729
:1045A000059BB342BBD06B461A8B198A029B012B29
:1045B0000AD1039B012B07D1099B5218D919856990
:1045C000330012B209B2A8E76B4608255B5F039D72
:1045D00001966A438A1812B2D9E76B4608215B5EDE
:1045E00005210E980196414303987918C000009068
:1045F000D5692000049A09B2A847B9E7137A51682F
:10460000ED1A1268EDB2ED0013924A5B4B19099254
:104610009A780D92DA78119205229A569B790E9229
:104620005BB20F93029B012B02D8039B012B56D93F
:104630006B4638229B5E0B936B463C229B5E0C9331
:104640000027236820005B69984707970697119B0E
:10465000069A9A4200D38BE76B461B8A00260A9380
:104660000C9B9B18039A53430A9AD3181BB21093BE
:104670003B000D9A96424BD25A1CD2B2129207229C
:10468000134207D1099B0999139A0133525C9BB2DB
:10469000079209936B461B7F5BB2002B17DA6B46C0
:1046A000198C029B2068012B1DD1039B012B1AD171
:1046B0000A9B0F9A9A18069BD2180E9B12B2C91821
:1046C000836989191D002000059B09B2A847079B33
:1046D00001365B00DBB20793F6B2129BC9E70023F9
:1046E0000C930B93ACE76B4608229B5E0B9A029DE2
:1046F00092196A438918059A09B201926A460C25F3
:10470000525F0092C26920001500109AA847DEE7A8
:10471000069D0D9B0135FF18EBB2FFB2069396E79D
:10472000B08A0000F0B5026A04000B0085B0002AD0
:1047300034D10A2908D1437E0282DB00628A9B18A9
:104740006382012005B0F0BD0D29FAD0E17E007E24
:10475000657E00290ED01026A15F062646438919E2
:104760000C27E65FB14205DD1226A15F2282EA0036
:10477000521862820290E08A1221625E0190A08A41
:104780001026A15F009003952000FFF75DFE062232
:10479000237E5343228A9B182382D2E70A2905D11C
:1047A00000230382127B437E5343C7E70D29C8D001
:1047B000117A8B42C5D3907A9842C2D3591A506865
:1047C000C9B2C9004518AF78002F28D0E978002970
:1047D00025D0E17E207E667E002913D00521695612
:1047E000C91941438C461021675EBC440C21675EA9
:1047F000BC4507DD1227E15F00272782127B724349
:10480000521862820290E08A1221625E0190A08AB0
:104810001027E15F009003962000FFF715FE2B792B
:10482000227EB6E710B50400FFF790FD024B200092
:104830000833236010BDC0460890000010B5040086
:1048400007220F21FFF7EEFF024B20000833236001
:1048500010BDC0466090000070B50D00084C0530DA
:10486000C17F2000FFF7B6FAFD212000FFF7CAFA4A
:1048700029002000FFF7C6FA2000FFF721FB70BDDA
:104880004414002070B5040016001D000534FFF725
:10489000E3FFE17F074C2000FFF79CFA3100200086
:1048A000FFF7B0FA29002000FFF7ACFA2000FFF76D
:1048B00007FB70BD4414002070B50C0015001900F2
:1048C0008F2C04D824342B00E2B2FFF7DBFF70BD3D
:1048D00070B51D00837E022B21D0032B26D0012B27
:1048E00003D10D339B1A0A0019B28BB20F2B15D8C6
:1048F00092B2062A12D807291DDD0F210832C91AE3
:1049000009B214B2831DDB7F2A1CFF2D00D9FF22C0
:1049100009010919D2B2C9B2FFF7CEFF70BD0E234B
:10492000591A083B9A1A09B212B2DEE708235B1A39
:1049300011001AB2D9E70724A41A24B2E2E770B52D
:104940001D00837E1400022B1AD0032B1FD0012BD5
:1049500003D10E339B1A0C0019B28BB20F2B0ED859
:10496000A3B2082B0BD8831DDB7F2A1CFF2D00D997
:10497000FF2224016118D2B2C9B2FFF79DFF70BDBA
:104980000F230822591A141B09B224B2E5E70823A1
:104990005B1A1CB21100E0E70B0010B5002900D033
:1049A000012306220B21FFF76DFF10BDF8B5831D13
:1049B000D97F05002424FFF74FFF0D4F6B1DD97FD2
:1049C0003800FFF707FA21003800FFF71BFA182616
:1049D000013E01213800F6B2FFF714FA002EF7D19C
:1049E00018343800E4B2FFF76BFAB42CE5D1F8BD07
:1049F00044140020F8B505000F0000241F4E3000BD
:104A0000FFF7BAF930001E49FFF7D6F96B1DDF77C3
:104A1000AB1D3900DC773000FFF7DCF93000FFF721
:104A20004FFA23000A220B212800FFF72BFF0A2050
:104A300000F0FAFC01230A220B212800FFF722FFD5
:104A40002800230022000B21FFF71CFF2800FFF79E
:104A5000ADFF002632000136FF2321002800F6B208
:104A6000FFF710FF122EF5D10134E4B2082CF0D17B
:104A700028000021FFF790FF0120F8BD441400201A
:104A8000801A060010B5054A0549064800F010F8DE
:104A90000022054B05491A705A5410BD010400004C
:104AA000009100007C1A002078160020020400000B
:104AB00030B5094D094CAB685B035B0F9B001C597B
:104AC0000460AB6801619BB243606343A4008360F0
:104AD000C460426130BDC046004000410096000005
:104AE000F7B58026194D01916F6803333E439B084B
:104AF0006E60002B29D0164E2E802E7DF107FCD53E
:104B00001E000768991BBF088F4217D9002E15D0C9
:104B1000FF2117788C433C430E4957780C403F02E5
:104B20003C439778A4B23904D7780C433F060199E7
:104B30003C4310C101910432013EE2E7064B2B8059
:104B40002B7DDB07FCD53300D3E7F7BD00400041E8
:104B500044A5FFFFFF00FFFF04A5FFFF044B054A2C
:104B60004908D9611A801A7DD207FCD57047C04622
:104B70000040004102A5FFFF70B504000D001600C3
:104B8000E36829002000B34205D2FFF7E7FFE3689E
:104B9000ED18F61AF4E7FFF7E1FF70BD10B510004D
:104BA0001A0003F087FA10BD41708270C37070471D
:104BB00010B50C0072B6C378002B03D00021200082
:104BC00000F084FE0121200000F050FE62B610BD0E
:104BD000030010B5080072B6D978002900D0022170
:104BE00000F044FE62B610BD70B540254178040067
:104BF000FFF7DEFF2B00013BFDD12000A178FFF77E
:104C0000E7FF2B00013BFDD120006178FFF7E0FFBB
:104C1000013DFDD170BDF8B504000F0008258026C8
:104C2000200061783E422FD0FFF7D2FF2000A1780C
:104C3000FFF7CEFF4023013BFDD12000A178013DCD
:104C4000FFF7B6FF7608002DEAD120262000617814
:104C5000FFF7BEFF2000A178FFF7BAFF3300013B4A
:104C6000FDD1607800F05EFEA17805002000FFF71E
:104C70009FFF013EFDD12000EDB26178FFF798FF64
:104C800068426841C0B2F8BDFFF792FFCEE770B549
:104C90000D0041780400FFF78BFF4023013BFDD15D
:104CA0002000A178FFF784FF29002000FFF7B3FF61
:104CB00070BD70B504000D004178FFF789FF20003A
:104CC000A178FFF785FF4023013BFDD1290020009B
:104CD000FFF7DDFF70BDF7B50191417804000826AC
:104CE000FFF776FF002501276D004023EDB2013B61
:104CF000FDD12000A178FFF76BFF607800F012FE75
:104D0000002800D03D43013E2000A178F6B2FFF715
:104D10004FFF002EE8D1019B20006178002B15D0B9
:104D2000FFF756FF20262000A178FFF751FF330040
:104D3000013BFDD12000A178FFF73AFF013EFDD1F4
:104D400020006178FFF734FF2800FEBDFFF730FF39
:104D5000E8E70000114B12495A880A405A805A78F5
:104D6000D209FCD10F4A5A805A78D209FCD10E4A96
:104D70005A605A7852B2002AFBDB802259689203AB
:104D80000A435A605A7852B2002AFBDBC023074A12
:104D90009B0051680B4353607047C046000C0040B5
:104DA000FFBFFFFF05460000060301000040004171
:104DB00070B5104801F04EFB0024A04203D10E480C
:104DC00001F050FE013402220C4B0D48196891434A
:104DD00019600421056929430161BFF34F8F30BF7A
:104DE00019680A431A60002C02D0034801F0FEFD46
:104DF00070BDC046642100208021002010E000E04A
:104E000000ED00E070B50500140008001A001A2932
:104E10000AD9FF2907D10021280000F099F82100C4
:104E2000280000F043F870BD182116254143094BB6
:104E30005B185D576B1CF6D0102DF4D0210000F0EC
:104E400049F9FFF787FF0123AB40034A51690B4340
:104E50005361E8E720960000001800400423044A4C
:104E600010B5117E0B431376024B5B68984710BD5B
:104E700000400042941A002010B5024800F004F8E7
:104E800010BDC046941A0020002303707047000034
:104E9000044B10B51B68002B00D098470122024B31
:104EA0001A7210BD9C1A002000140040014B1960BA
:104EB0007047C0469C1A0020094B0A4A9A605A78EB
:104EC00052B2002AFBDB084A5A605A7852B2002AD2
:104ED000FBDB064A5A805A78D209FCD17047C0469B
:104EE000000C004002040000020511000442000012
:104EF0000221044B1A888A431A809A7AD209FCD17B
:104F00007047C046001400400222044B19880A432F
:104F10001A809A7AD209FCD17047C046001400402A
:104F20000122044B19880A431A809A7AD209FCD1CB
:104F30007047C046001400400121044B1A888A4380
:104F40001A809A7AD209FCD17047C04600140040FA
:104F50002023F7B500272A4A0E00916905000B436C
:104F60009361284B284A294C9A82BE420BD1284B88
:104F700037001A7870231A4205D023881B0702D500
:104F80000127236901932800FFF796FF2800FFF708
:104F9000AFFF2800FFF7C4FF63881E4A13406380F9
:104FA0001D4B2380A37ADB09FCD1C0211B4A0833A7
:104FB0001360890053581B021B0A53500123E279E6
:104FC00013430722E371237F93432377A37ADB09FB
:104FD000FCD12800FFF798FF2800FFF7ADFF002E57
:104FE0000BD1002F09D0019B002B06D02361A37A9F
:104FF000DB09FCD101332B70F7BD8423DB03F5E71C
:105000000004004000080040CE06000000140040EC
:1050100038040040FFBFFFFF080A000000E100E085
:1050200010B5024802F01CFB10BDC046A01A0020BB
:1050300010B5024802F014FB10BDC0469C1D0020B4
:10504000F7B501240326154F1549380000F0CAFDB5
:105050001449154800F0C6FD1449154800F0C2FD7A
:105060001449154800F0BEFD1449154800F0BAFD7A
:10507000144D1549280000F0B5FD390023000096B5
:1050800000220194114802F081FA290000961E23A3
:105090001F2201940E4802F079FAF7BD98200020F3
:1050A00000080042000C00429C200020001000423A
:1050B000A020002000140042A4200020001800427C
:1050C000A8200020AC200020001C0042A01A0020D4
:1050D0009C1D0020F7B50092182216264243544B1F
:1050E00007009B189E570191731C52D0514B524C94
:1050F0001D68002D2BD129004422504802F0E3FF07
:10510000290044224E4802F0DEFF10224D4B4E494A
:105110001D604E4BCA67BFF34F8FBFF36F8FC02127
:10512000C12049005A5080001958FF35A943195031
:105130001A60474B474A5A80022322781343237050
:105140006378DB09012BFBD001223A4B1A60012363
:105150001D00B54062692A436261019A002A18D095
:10516000102E1FD1E2781343E370009B042B0BD861
:1051700018000723A2789A4302F0CEFD030C0E100C
:10518000120005231343A3702D4B019A1A64ADB28C
:10519000E560F7BD0423F5E70323F3E70223F1E716
:1051A0000123EFE738000027002100F0D3FB254B57
:1051B00022499C461B68BA00BB421DD160460133A0
:1051C00003601F4B8D5001999950072E19DD320055
:1051D0000123083A92000720904017499B005B1872
:1051E00099698143996100990429D0D8080002F097
:1051F00093FD0B1215181B008858A842E1D0013707
:10520000D9E70023B200E6E70521986991400A003A
:1052100002439A61BBE704219869F7E70321986983
:10522000F4E702219869F1E701219869EEE7C046A9
:10523000209600003821002000180040F4200020B3
:10524000B02000203C21002004E100E000E100E06B
:10525000000C004005400000182316224343194863
:1052600070B5C0188256531C0ED0174B102A0CD1A3
:10527000072099788143997001200023134C9040B6
:105280002168134A994208D170BD0121914088B22A
:105290009860586988435861EEE79D00AE58864291
:1052A0000AD00133EEE75568013320C2456820C0BB
:1052B0009942F8D82160E7E70648521940190139A8
:1052C000F6E7C04620960000001800403C21002070
:1052D000F4200020B020002070B50024094D0A4BB6
:1052E0001B68A34200D870BD084E2A6833691A4271
:1052F00005D0074BA200D35898472B68336101347F
:105300000435ECE7F42000203C2100200018004088
:10531000B0200020054B10B51B6C002B00D0984727
:105320000123034AD1780B43D37010BDB020002075
:1053300000180040FEE70000034B10B51B68002B6F
:1053400000D0984710BDC046402100200F4A1048A9
:10535000110010B50F4B824202D0934209D11300C5
:10536000824209D100F084F802F0D0FBFEE710CBB6
:1053700010C18142FBD3F3E7074A8B42F2D00021F0
:10538000064B9A42EED202C2FBE7C0460000002064
:1053900010030020C49C000010030020642700209C
:1053A00010B500F062F8002801D100F053F810BDEC
:1053B000014B18607047C04640210020014B18681F
:1053C0007047C04644210020F7B5134801228446A7
:1053D0001249134C8E68636805689B0E1340019256
:1053E00088686268019F920E3A4067463F68934220
:1053F0000ED1BD420CD186420AD35B19FA2548680A
:10540000AD00861B07486B437043000DC018FEBDFE
:105410003D0013000600E3E74421002010E000E017
:1054200000ED00E05555000070B5041E11D0FFF7E7
:10543000CBFFFA260500B60000F016F8FFF7C4FF10
:10544000401BB042F8D3FA23013C9B00ED18002C1E
:10545000F4D170BD10B5034A13680133136000F036
:1054600087FB10BD442100207047002070470000DA
:105470001E2270B546484749436893431C3A13437C
:10548000436008238C6923438B61434C434B9C82CC
:105490009C8A14439C82DC681442FCD00124404A5C
:1054A00014701578254203D055786DB2002DF8DBC5
:1054B00001249460547864B2002CFBDB394C5460B6
:1054C000547864B2002CFBDB8224E40154805478CD
:1054D00064B2002CFBDB02249C840E34DD68254280
:1054E000FCD0314CDC621024DD682542FCD09D8C60
:1054F0002E4C2C439C841024DD682542FCD00224D1
:105500009D8C80262C439C844024DD683542FCD051
:10551000DD682542F9D01024DD682542FCD0002446
:105520009460547864B2002CFBDB214C54605478B6
:1055300064B2002CFBDB1C6A1E4D2C4080251C62D3
:105540001C6AAC431C62032393601B4B536053786B
:105550005BB2002BFBDB0023FF240B72174A4B725C
:105560008B72CB72164B1A60164B174A1B68116868
:105570009A065B01C90E2340520F12020B431343DC
:10558000124A1385802342681343436070BDC046AE
:1055900000400041000400400C06000000080040EC
:1055A000000C004001050100B905FF7D040A000060
:1055B00000070300FFFCFFFF03060100006CDC0294
:1055C000F401002024608000206080000040004240
:1055D000FA212E4B10B51868890002F0A7FB802332
:1055E00001385B0498424FD229492A4A4860C020BA
:1055F000136A00061B021B0A0343136200238B601D
:1056000007330B608021136A09061B021B0A0B4338
:105610001362FC22204B196A0A431A62FF22196A9C
:1056200012020A431A62A022196AD2020A431A62BB
:105630001A4B1C005A7852B2002AFBDB184A5A80D7
:10564000184B1A00597EC9090129FBD0C8218900CD
:1056500099800521D970537EDB09012BFBD0C02333
:1056600000205B011361907000F048F863785BB232
:10567000002BFBDB0C4B0D4A6380D379DB09012B3C
:10568000FBD04123537010BDFEE7C046F40100205B
:1056900010E000E000ED00E000040040000C0040DD
:1056A0001E4000000040004221400000004800422F
:1056B0000F4B302218600F490F4B0A2809DD9888DC
:1056C00090439880243A0A605A7ED209012AFBD07E
:1056D0007047082806DD98889043202202439A806C
:1056E0000A22F0E7988802439A800822EBE7C04636
:1056F000FC010020F8010020004000421F4900B5D5
:105700000B004A7ED209012AFBD001380A282FD883
:1057100002F002FB1B2E2E2E2E2E062E2E24110002
:105720001A6917490A400F211A615A788A431100F1
:1057300001220A4310E01A6911490A400F211A6137
:105740005A788A4311000322F3E71A690C490A4088
:105750000F211A615A788A435A7000BD1A690849A4
:105760000A400F211A615A788A4311000222E0E7A9
:10577000F022196912050A43F3E7C04600400042CF
:10578000FFFFFFF010B5040006285ED007285ED0AA
:10579000052800D80E340121200000F0DBF80E2C83
:1057A0000DD12D4B1900DA79D209012AFBD0022044
:1057B0001A7882431A70CB79DB09012BFBD0274979
:1057C0000B004A7ED209012AFBD018206043244CEA
:1057D0000A692418207C1F242040A24302430A6146
:1057E0005A7ED209012AFBD0022219780A431A7084
:1057F0005A7ED209012AFBD00222197B0A431A736E
:1058000001221A765A7ED209012AFBD00222197B84
:105810000A431A731A7ED207FCD5588B80B25A7E7F
:10582000D209012AFBD002211A788A431A705A7EC3
:10583000D209012AFBD00B4B1A680B4B1B689A420A
:1058400002D006D9D31AD84010BD2C24A3E72D24AA
:10585000A1E79B1A9840F7E7004800420040004249
:1058600020960000F8010020FC010020182310B54C
:1058700008245843134A13181C57013412D001242A
:105880005B6882569C4003290CD808000E49D2015F
:105890005218D318403302F03FFA0210060B0221CF
:1058A0001970546010BD0621197054609461F9E7B5
:1058B0000621197054605461F4E702211970946054
:1058C000F0E7C04620960000004400411823F0B5E0
:1058D00008245843114A13181C5701341BD00126C1
:1058E00035005F688356BD400D4ADB019A18906809
:1058F00005420BD10C00601E8441D2194032107851
:1059000034400336A400B04320431070044A9B186F
:10591000002901D15D61F0BD9D61FCE7209600008A
:1059200000440041182310B50824434307490020D0
:10593000CA181457013408D05B560549DB015B18BF
:10594000186A5368D8400123184010BD2096000003
:1059500000440041182370B5082643432A4AD5184D
:10596000AE573400013607D0072907DC00291DDABD
:1059700001314C424C416442200070BD0B00083B99
:10598000DBB20024032BF7D8092903D12100FFF74C
:105990006DFFF1E70A2904D10839FFF767FF0024FA
:1059A000EAE700240B29E7D10A39F0E76C68012502
:1059B00020009B56C9B262082840DB012C4211D05E
:1059C00012480E351B189A183032107809012840F9
:1059D0000143C9B2117041221B19403319780A439F
:1059E0001A70DCE70F26094D5B199A1830321578CA
:1059F0001B19B54329431170412240331978040023
:105A00000A431A70B8E7C0462096000000440041DF
:105A1000F8B505000E0017000024BC4208D02B6822
:105A20002800315D1B689847002801D00134F4E755
:105A30002000F8BD70B505000C00081E07D002F06C
:105A400021FC2B680200210028005B68984770BD8C
:105A500010B503688A685B680968984710BD10B57F
:105A6000FFF7E8FF10BD10B503681B68984710BD2D
:105A700010B50249FFF7DEFF10BDC046709A000066
:105A800070B50500FFF7E4FF04002800FFF7F0FF02
:105A9000201870BD70B50400FFF7CCFF0500200092
:105AA000FFF7E6FF401970BDF0B58BB06B461400F0
:105AB0000022053307000D00DA77012C00D80A24F4
:105AC00009AE2800210002F0B7F90300CAB20800AD
:105AD00029001D0013003733DBB2092802D8130058
