:1000000000800020FD6400000D640000E564000035
:1000100000000000000000000000000000000000E0
:10002000000000000000000000000000E564000087
:100030000000000000000000E564000051650000C1
:10004000E5640000E5640000E5640000FD40000098
:10005000D1630000E56400005D320000E964000047
:10006000E56400008D420000E5640000E5640000E6
:100070002D260000E56400009D420000E5640000BC
:10008000E5640000E5640000E5640000E56400004C
:10009000214C0000E5640000E5640000C940000058
:1000A000E5640000E5640000E5640000E56400002C
:1000B0000000000010B5064C2378002B07D1054B3B
:1000C000002B02D0044800E000BF0123237010BDC4
:1000D000F004002000000000E4DA0000044B10B53A
:1000E000002B03D00349044800E000BF10BDC04608
:1000F00000000000F4040020E4DA00000122014BBB
:100100001A707047AE10002010B578280FDD7820E7
:10011000094B32385843462106F0DCFFEA30FF3005
:10012000064B81B20E20598006F0A4FC10BD322887
:10013000EEDA3220ECE7C04646FEFFFF0C05002059
:1001400010B5438804888B4219D20179124B5B1A8F
:10015000A34200DD23005B1803800288C1880023CE
:100160008A4209D343799A4204D3131C8A4200D9A4
:100170000B1C9BB2038001230372007A10BD4279ED
:100180001300A24206D80179034B5B1AA34200DD9B
:1001900023009BB29B1ADFE7FFFF0000F7B50500C5
:1001A00001910C20144902F055FA0C2006F084FB52
:1001B0002B002A0000261633083200215C5E023B29
:1001C0009C80A61936B29342F7D1082700240198E3
:1001D00006F0DCFB013F041924B2002FF7D10723FE
:1001E000E01718400419E410A419E6171E40361948
:1001F000F6106E81B0B2FEBD0708000010B5074CC6
:1002000001233C220221200003F0F8FC200003F02F
:1002100085FC200003F0DCFD10BDC0465805002021
:10022000F0B5324D85B02800002403F077FC20277C
:10023000082601232200029321002800039401973D
:1002400000962B4B02F01FFC012322000293310089
:100250002800039401970096264B02F014FC01231A
:10026000220002932800039401970096224B10214C
:1002700002F009FC01232200029328000394019755
:1002800000961E4B182102F0FEFB01232200029370
:1002900039002800039401970096194B02F0F3FBF4
:1002A0000123220002932800039401970096154B26
:1002B000282102F0E8FB0123220002932800039486
:1002C00001970096104B302102F0DDFB0123220044
:1002D000029338210D4B280003940197009602F0F9
:1002E000D2FB280003F074FD05B0F0BD58050020D6
:1002F00010050020460000206A0000208E0000202B
:10030000B2000020D6000020FA00002034050020B2
:1003100010B5044C200003F001FC200003F058FD50
:1003200010BDC0465805002010B50C4C200003F04D
:10033000F5FB2000022102F0ACFD002308492361F7
:10034000200004F026F880235B0323610549200088
:1003500004F01FF8200003F03BFD10BD58050020FD
:1003600050BD000055BD000010B50C4C200003F03E
:10037000D5FB2000022102F08CFD002308492361F7
:10038000200004F006F880235B0323610549200068
:1003900003F0FFFF200003F01BFD10BD58050020F7
:1003A0005FBD000063BD0000F0B58026032585B069
:1003B00076030027194C013D200003F0AFFB02211A
:1003C000200002F066FD16492761200003F0E1FFDE
:1003D00014492661200003F0DCFF200003F0F8FC44
:1003E000114806F0F9F8200003F098FB012303936D
:1003F0001F33019320333A003900009320000B4B48
:10040000029702F0E1FA200003F0E2FCADB20648E8
:1004100006F0E2F8BD42CCD105B0F0BD5805002091
:1004200059BD000063BD0000EE020000FBBD0000EE
:100430000121914AF8B513680B4002D18F48116031
:10044000837001218E4A13680B4002D18D481160E0
:10045000837001218C4A13680B4002D18B481160D4
:10046000837001218A4A13680B4002D189481160C8
:1004700083700121884A13680B4002D187481160BC
:1004800083700121864A13680B4002D185481160B0
:100490008370854D2F78002F23D00021774801F0FD
:1004A00015FF0B24002801D000232B707F4D2E78E0
:1004B000002E5BD00021734801F008FF002801D016
:1004C00000232B707A4D2E78002E00D193E000216E
:1004D0006E4801F0FBFE002801D000232B702000A5
:1004E000F8BD032006F008FC03005A1E9341714A30
:1004F000714E1370002821D13178664C00290BD041
:1005000032215E4801F0D4FE01236C4920002B709B
:1005100001F0CEFE0B240DE0200001F0D7FE0028F4
:10052000F8D0FA210122664B200049001A700424F9
:1005300001F0BEFE5F4B1B783370B7E73378614C38
:10054000002B07D132214D4801F0B2FE01232B7060
:100550002370DFE72378002BDCD0594B27701A7803
:100560000924002AE6D01F700234E3E7042006F0D5
:10057000C3FB03005A1E9341534A1370534B002888
:1005800021D11978454E00290ED032213D4801F085
:100590008FFE0123494930002B7001F089FE4A4B40
:1005A0004A4A1B7813708DE7300001F08FFE002857
:1005B000F5D0FA210122464B490030001A7005247B
:1005C00001F076FEEBE71B78424F002B07D132217A
:1005D0002C4801F06DFE01232B703B70DFE73B7868
:1005E000002BDCD03A4B3E701A78002A01D01E70E6
:1005F000D5E70A24D3E7072006F07EFB03005A1E46
:100600009341354A1370354B00281DD11978254E7A
:1006100000290ED032211D4801F04AFE012327494E
:100620002B70300001F044FE2B4B2C4A1B781370CA
:1006300055E7300001F04AFE0028F5D00124FA21E8
:10064000274B49001C70ECE71B78264F002B07D185
:1006500032210E4801F02CFE01232B703B70E3E7A2
:100660003B78002BE0D01E4B3E701A78002A01D058
:100670001E70D9E70624D7E7E80E002032100020CC
:10068000F00E00203C100020F80E00204610002044
:10069000EC0E002036100020F40E00204210002046
:1006A000FC0E00204C1000202E10002030100020E6
:1006B000311000201E010020210100201A0400003A
:1006C0003A1000202C1000201F01002022010020E1
:1006D000401000202D1000202001002023010020C8
:1006E0004A1000202F100020F8B5242706260C25DC
:1006F00002242F4B08001980012106F0A1FA3A00CC
:100700002C492D4808F022FC2C4B3A002C492D484E
:100710001E8008F01BFC2C4B2A002C492C481E8004
:1007200008F014FC2B4B2A002B492C481C8008F0A5
:100730000DFC2B4B2A002B492B481C8008F006FC93
:100740002A4B2A002A492B48AD191C8008F0FEFBD1
:10075000294B2A0029492A481C8008F0F7FB294B1D
:1007600001342A00284929481C8008F0EFFB284B57
:100770002A00284928481C8008F0E8FB274B36222D
:10078000274928481C8008F0E1FB0922264B27490D
:100790001A8027483A0008F0D9FB264B1822264930
:1007A00026481E8008F0D2FB0422254B1A80F8BD93
:1007B0004400002068BF0000560D0020E81400200F
:1007C00014BF0000A6080020DC14002008BF0000B1
:1007D0001E0E0020EA1400205CBF0000DE0700208F
:1007E000DA140020FCBE00008E0C0020E61400206D
:1007F00050BF0000C60B0020E41400208CBF000096
:1008000086050020D414002000C400004E060020FD
:10081000D61400206CC4000016070020D814002055
:1008200012C40000360A0020E014002048C4000072
:10083000FE0A0020E214002038BF00006E090020EC
:10084000DE14002010B5012907D1C8222F4908F075
:100850007DFB2F4B1B88180010BD022905D1C82233
:100860002C4908F073FB2C4BF4E7032905D1C8226F
:100870002A4908F06BFB2A4BECE7042905D1C82272
:10088000284908F063FB284BE4E7052905D1C82275
:10089000264908F05BFB264BDCE7062905D1C82278
:1008A000244908F053FB244BD4E7072905D1C8227B
:1008B000224908F04BFB224BCCE7082905D1C8227E
:1008C000204908F043FB204BC4E7092905D1C82281
:1008D0001E4908F03BFB1E4BBCE70A2905D1C82284
:1008E0001C4908F033FB1C4BB4E70B2905D1C82287
:1008F0001A4908F02BFB1A4BACE700230C29AAD1AC
:10090000C822184908F022FB174BA3E7560D002018
:10091000E8140020A6080020DC1400201E0E002091
:10092000EA140020DE070020DA1400208E0C0020DC
:10093000E6140020C60B0020E414002086050020E9
:10094000D41400204E060020D614002016070020E4
:10095000D8140020360A0020E0140020FE0A0020EF
:10096000E21400206E090020DE140020F0B504001F
:10097000244F254DB5B000223900280003F024FD96
:10098000A1B202A8FFF75EFF3900020006002800AE
:1009900003F01AFD0A211D4801F08AFC00240321FE
:1009A000200006F00DFB80B2B04228D233002200B6
:1009B0001749280003F008FD144F0021380001F00A
:1009C00085FC0028F8D0631C5B000193019A02AB00
:1009D000D25A02A96300595A0E4B188804F052F8F3
:1009E000A31C02AA5B00995A1300019A3800D35A3B
:1009F0000334C91889B201F05BFCA4B2CFE735B06B
:100A0000F0BDC046E3BD000000210020001500201D
:100A1000F4BD000044000020F0B5764C764EA544AD
:100A200073696A463169300003F0C4FAEE22734CF0
:100A300092006946200008F089FA237B002B4FD1F1
:100A4000657B002D4CD16E4F6E49380003F0B2FC2F
:100A50006D49380003F09DFC80232A005B00236071
:100A6000FF3B6560A5602373657363190235DA8106
:100A70008E2DFAD1002319001A006A32A21802330F
:100A800011802A2BF8D102221D335900611A9C31A2
:100A90000988013B5218002BF7D119006A31615ABD
:100AA000023352182A2BF8D1ED239B00E250EE229C
:100AB00021009200EEA808F049FA7269316930000D
:100AC00003F066FA7369EEAA3169300003F010FA98
:100AD0004E49380003F06EFC01204D4B9D44F0BDA3
:100AE0000020667B8642F8D1454D4A49280003F034
:100AF00061FC4949280003F05DFC21780A222800A6
:100B000003F0D3FC61780A22280003F0CEFC618850
:100B10000A22280003F0B3FCA1880A22280003F06F
:100B2000AEFCE1880A22280003F0A9FC21890A22F0
:100B3000280003F0A4FC61890A22280003F09FFC2E
:100B4000217B0A22280003F09AFC617B0A222800FC
:100B500003F095FCA319D9890A22280003F08BFC25
:100B60002E4F28003900023603F013FC8E2EF1D1EF
:100B7000280003F017FC002633006A33E15A0A22EA
:100B8000280003F078FC02363900280003F001FC4D
:100B90002A2EF1D1280003F005FC4723667820783F
:100BA000801966883018A6883618E088861920894A
:100BB000801966893018267B3618607B86195A00A2
:100BC000A21A9C321288013BB618002BF7D11A00EA
:100BD0006A32A25A0233B6182A2BF8D110492800DB
:100BE00003F0E8FBED239B00E058801B4642704178
:100BF000C0B272E78CF8FFFFB8100020D4100020BC
:100C00000021002068BD00007FBD000090BD0000F5
:100C1000740700009DBD0000B2BD0000C3BD000010
:100C2000C5BD000000B5032807D806F0BFF90207CC
:100C30000C110E4A93880133938000BD0B4AD38870
:100C40000133D380F9E7094A138901331381F4E7AB
:100C5000074A1368013313600A2BEED103494B880E
:100C600001334B8000231360E7E7C046D410002017
:100C70005410002010B51D491D4C4A780B78A5442E
:100C80009B184A889B188A889B18CA889B180A89CF
:100C90009B184A899B180A7B9B184A7B9B18472202
:100CA0005000081A9C300088013A1B18002AF7D11E
:100CB00010006A30085A02321B182A2AF8D1ED2295
:100CC00092008B506846043208F040F9094C626982
:100CD0002169200003F05CF963696A4621692000FC
:100CE00003F006F9EE239B009D4410BDD4100020B4
:100CF00048FCFFFFB8100020F7B507000E001C48A5
:100D00001C491500019303F055FB00211A4A8B186A
:100D100018009630008802318446180064469430EA
:100D20000480CA3000888446180064465D30FF3075
:100D30000480124818180088844689206446800080
:100D400018180480BB240E48A400181800881B192A
:100D50001880C629DBD1AD2369465B00D752094B09
:100D60008988D652084BD552084BD152F7BDC046A0
:100D70000021002045BD0000D41000202602000004
:100D8000EE02000022020000EA020000B2030000AE
:100D900070470000F7B507000E000C2029490192AA
:100DA00001F058FC0C2005F087FD082400253800D0
:100DB00005F0ECFD013C45192DB2002CF7D10723BD
:100DC000FA27E817184045191F48ED104543E81762
:100DD0000005000D401900137843962106F07AF9BA
:100DE0001A4B984217DD1A4B984225DC0722194905
:100DF0004318D8171040C018C01005B205280CDCE5
:100E00000123019A092013703370FFF7AFFDFFF73C
:100E1000CBFA2800FEBD2500F2E70F280DDC019B70
:100E20001C7001233370FFF79FFA0B20FFF79EFD24
:100E3000380005F0D1FBECE764250023019A3370FC
:100E40001370E6E707080000B80B0000DC0C000098
:100E50000B1000001CF3FFFFF8B50021B54802F0AD
:100E600041FEEE220024B44B9200B449B4489C7079
:100E700003F026F8B34FB44BB44938009C7005F02A
:100E80001DFBB34EB34D32002900380006F086F842
:100E9000B14FB249380005F011FB3200290038008B
:100EA00006F07CF8AE4FAF49380005F007FB320082
:100EB0002900380006F072F8AB4FAC49380005F055
:100EC000FDFA32002900380006F068F8A84FA94959
:100ED000380005F0F3FA32002900380006F05EF819
:100EE000A54FA649380005F0E9FA3200290038007C
:100EF00006F054F8A24FA349380005F0DFFA32009B
:100F00002900380006F04AF89F4FA049380005F044
:100F1000D5FA32002900380006F040F89C4F9D4970
:100F2000380005F0CBFA32002900380006F036F818
:100F3000994F9A49380005F0C1FA3200290038006B
:100F400006F02CF8964F9549380005F0B7FA3200B4
:100F50002900380006F022F8924F9349380005F036
:100F6000ADFA32002900380006F018F88F4F90498A
:100F7000380005F0A3FA32002900380006F00EF818
:100F80008C4F8D49380005F099FA3200290038005D
:100F900006F004F8894F8A49380005F08FFA3200CC
:100FA0002900380005F0FAFF864F8749380005F020
:100FB00085FA32002900380005F0F0FF834F84499C
:100FC000380005F07BFA32002900380005F0E6FF12
:100FD000804F8149380005F071FA3200290038004D
:100FE00005F0DCFF7D4F7E49380005F067FA3200DE
:100FF0002900380005F0D2FF7A4F7B49380005F010
:101000005DFA32002900380005F0C8FF774F7849B3
:10101000380005F053FA32002900380005F0BEFF11
:10102000744F7549380005F049FA3200290038003C
:1010300005F0B4FF714F7249380005F03FFA3200F5
:101040002900380005F0AAFF6E4F6F49380005F0FF
:1010500035FA32002900380005F0A0FF6B4F6C49CB
:10106000380005F02BFA32002900380005F096FF11
:101070003222684B68495A80D8329A80A63A1C803E
:10108000DA80664B5F32D980FA21FF325A80644A97
:101090001C809A80634B09015980FA21C9001C8089
:1010A0009A80D980604B0B209A80FA229200DA80D5
:1010B00059805E4F1C805E4B01219C70388005F08A
:1010C000BFFD0023F85E210005F0EAFD594B9C703E
:1010D000594B9C70594B9C70594B9C70594B9C7050
:1010E000594B9C70594B9C70594B9C70594B9C7040
:1010F000594B9C70594B9C70594B9C70594B9C7030
:10110000594B9C70594B9C70594B9C70594B5A4F82
:101110009C705A4B38005A499C7005F0CFF9320048
:101120002900380005F03AFF564B9C70564B9C70D6
:10113000F8BDC046580500200015002000C0000082
:10114000B8100020540F0020C81400205CBC000020
:10115000000000202D640000D80F002060BC0000BB
:10116000CC0F002069BC0000A80F002071BC00005B
:10117000840F00207BBC0000B40F002084BC000062
:10118000900F00208EBC00006C0F002097BC000068
:10119000480F0020A1BC0000F00F0020AABC0000F6
:1011A000E40F002020100020B5BC00001410002027
:1011B000C2BC000008100020CEBC0000FC0F0020C4
:1011C000DABC00000C0F0020E5BC0000000F00207E
:1011D000EDBC00003C0F0020F4BC0000180F002004
:1011E000FDBC0000240F002007BD0000300F0020D0
:1011F00013BD0000600F00201BBD0000780F002011
:1012000024BD00009C0F00202EBD0000C00F002058
:1012100039BD00005E100020DC0500008E140020A7
:101220000A0A0000A8140020441500200C05002024
:1012300010150020C2140020041500203C150020C9
:101240002C15002008150020301500204015002026
:1012500024150020181500200C1500201C15002056
:101260009C100020381500202015002014150020A7
:10127000341500202815002090100020FC140020B8
:1012800072D60000A01000205810002073B51B4C2F
:1012900006000421200001F0FCFD194B00216361D0
:1012A0001C230A00019100932000243301F0A6FAC8
:1012B0000A21300005F00EFF0A2501B26D424D43B0
:1012C0000F23AD19632E00DD0E4B23610A2220008F
:1012D00003F0D1F801230193023300932000192277
:1012E000262101F08BFA2C23290023610A222000F9
:1012F00003F0C1F8200002F06BFD73BD580500201B
:1013000001000100FCFF0000F0B5334C85B0060081
:10131000200002F003FC6425642E02DCF543ED1787
:1013200035400321200001F0B4FD2C4B0021636106
:101330001C23019100930A002433200001F05EFA7F
:10134000092E3EDC264B236129000A22200003F0EF
:1013500092F8002601272023082201930092200002
:101360003200039602971F4B322101F08CFB2023A1
:1013700008220193009220003200039602971A4B34
:101380003A2101F080FB122300930C3B1A0020004D
:101390000197362101F032FA0A2040426843372192
:1013A000019605F097FE0623123000B200901A0055
:1013B0003621200001F022FA200002F009FD05B0DC
:1013C000F0BD132E01DC094BBDE7632E01DC084B99
:1013D000B9E78023DB02B6E75805002001000100D1
:1013E0001F0004000400002024000020120004005C
:1013F0000D000400F7B500240700194EA0420FDCD1
:101400002023300000930194DB181E22042101F0F8
:10141000F5F9300002F0DCFC300002F0D9FCF7BD39
:10142000250001230193063329B200931E22053BB8
:101430003000013401F0E2F9043524B23B1C282FBE
:1014400000DD28231BB2A342EBDA00230193123301
:10145000009329B22E331E22300001F0CFF9DBE7D2
:101460005805002010B50C4C0022A35E834200DA20
:1014700020801921094800F029FF00280AD0002304
:10148000E05EA621533005F025FE00B2FFF7B2FF63
:101490000023238010BDC04650100020C814002037
:1014A000012307B50193063300931E22053B00215B
:1014B000014801F0A3F907BD5805002007B5011E3A
:1014C00002D0FFF7EDFF07BD0723019000931E2216
:1014D000053B024801F092F9F5E7C04658050020A7
:1014E000E121F8B5B44F0902380004F03FFCB349DC
:1014F000380002F05FFF0221072005F0A1FB022166
:10150000032005F09DFB0221042005F099FB012139
:101510000D2005F095FB0121080005F091FBA8487E
:1015200000F048FF01210D2005F0BAFB0121080061
:1015300005F0B6FBA34B11201988FFF7D5F8FEF78D
:101540005DFEFFF769FA002802D101229E4B1A7056
:101550009E4A9F491320FFF71DFC00249D4D2880C3
:101560002B88A3420ADB2000FFF7CEFE2100C82013
:1015700005F0B0FD05F030F80134F1E79649974BDE
:101580004A891A80002A02D132324A811A80032005
:10159000FFF7ECF9FA20800005F01EF8FEF7B8FE20
:1015A00004F0EAFF64258E4B8E4A18608B4B0F21A6
:1015B0001B888D486B439B188C4A8D4C5380FEF7DB
:1015C000EDFD0421604300136843FF3105F082FD07
:1015D000884E122130808548FEF7E0FDC92327217F
:1015E000584305F077FDFA216043834B001336889A
:1015F000188080B28900704305F06CFD7F4D31008A
:1016000028807948FEF79CFD002833D001227C4BCE
:101610001A707C4B00269E5F022E00D08CE07A4B25
:101620007A4C1B78002B2CD101232370784B794DF9
:101630001B78794E002B2BD101232B70764B2A7807
:101640001B78002A2FD0002B2FD12378002B42D0DB
:1016500001235F495D4A13203370FFF79BFB5D4B0D
:1016600080B21880FFF750FEFA216C48890000F024
:101670001FFE30E05C4B1B88002BCAD1604A137000
:10168000C7E72378002BD1D10120FFF76FF9CBE713
:101690002978002901D000F0AEFD614800F016FE67
:1016A0000028C9D1CAE7002B15D05C4D00212800C5
:1016B00000F00CFE002838D05A4C2378002B07D0BD
:1016C000FA212800890000F0F3FD0023237002E0D6
:1016D000554B01221A704B4D544C0023EE5E022EE6
:1016E00000D0DDE3504A1378002B01D100F076FCE6
:1016F00004232B8000234E491370444A0B70454944
:101700001370454A0B7038004A491370237002F079
:101710005BFE0122484B494949481A7000F0C8FD58
:10172000FA214848890000F0F0FC474B00229B5EFC
:10173000012BD0D13B4BCCE7002E00D18EE0042E04
:1017400000D061E2224B197800291AD13D4800F0FF
:10175000BDFD002815D001243C4B1C4A1C49132018
:101760001C70FFF717FB1B4B80B21880184B1B78BF
:10177000002B06D0FFF7C8FD354804F02DFF2E4B97
:101780001C70314B2E4C00229B5E0B2B00D048E18D
:101790000021200000F09AFD002800D18DE02D4AA4
:1017A000138801331BB213801E2B00D034E10121BA
:1017B000294B197000230BE1002100207EC400009A
:1017C0006015002044000020AA100020AB1000206B
:1017D000AF10002078100020D4100020320100202B
:1017E000F014002030F8FFFF5E10002044150020A8
:1017F000B80B0000CC140020D2140020CE1400201E
:101800008D1400202E010020A5100020B41000200F
:1018100028010020B0100020A91000200815002089
:1018200020150020A8100020B6100020EE14002083
:101830005E15002001C50000340100203075000055
:10184000181500203015002024010020B5100020BC
:10185000EE02000084100020B2100020C14B1D7861
:10186000002D5CD13220FEF74FFC29000D2005F041
:1018700017FA322004F0B0FE32242000FEF744FCB8
:101880000734142004F0A8FE782CF6D10A25B64BB4
:101890000A211E88A01B05F01DFC68438019FEF775
:1018A00033FC062004F098FE013DF0D2AE4B1888C0
:1018B000FEF72AFC0122AB4B1A70AC4BAC4D002456
:1018C0001C5F0B2C00D0B4E00021AA4800F0FEFC05
:1018D000002804D0012300222B70A74B1A80A44CAF
:1018E0002378002B0DD0A54B0020185E002801D0D6
:1018F000FFF73CF89C4B0020185EFFF7C7FC002365
:1019000023709F4A9F4913880A339BB28B4200D1B0
:1019100026E113800023D05EFFF7A4FDDBE6FA2169
:101920009948890000F0D2FC00282CD0974D2B68F4
:1019300001332B603C2B0CD18B4B00229A5E944BD5
:101940000021595E8E4B0020185E3300FFF7D4F95A
:101950002E60132005F01AF84443FA20240B60434C
:10196000962105F02DFB8B4C82B220808A493800ED
:1019700002F02AFD894B22889A4204D8FEF7F4FC33
:101980000B20FEF7F3FF864D2B78002B35D1854BCE
:10199000854C19882000FEF7D3FB00288DD12388C1
:1019A000002B8AD1814A138801331BB21380062B86
:1019B00010D101227E4B02301A707E4B11321A80F8
:1019C000FFF730F9E3887C4A934200D17B4B764A9B
:1019D000138072E77A4B7B4900229A5E380002F04E
:1019E000F3FC6421784800F063FC0122774B1A7005
:1019F000E3882A70D34023805FE7744B1B78002B69
:101A000000D15AE70021704800F060FC002800D1A6
:101A100053E700232B7050E76D49200000F048FC8D
:101A20004BE76B49200000F043FC0022694B1A8011
:101A300043E70023514E3380012C58D166493800CA
:101A400002F0C2FCFA214C4D89002B884948013331
:101A50002B8000F02DFC2B88012B13D15F4B1B78C2
:101A6000002B42D04A4B1888FFF74EFC3E4A1188A3
:101A70000B1C782900D9782399B2322900D232235D
:101A800013802CE79A1E022A2AD8554C200002F017
:101A900045F8102302212361200001F0FAF9514991
:101AA000200002F076FC80235B03236102212000EA
:101AB00001F0EFF92B88032B0BD0042B0ED04A49F1
:101AC000022B07D0200002F083F90320FEF74EFF1F
:101AD000CCE74649200002F05CFCF3E74449F9E713
:101AE000052BC3D1434B1C7000232B80BEE7042C75
:101AF0000ED14149380002F067FC1B4A1388772B4E
:101B0000B4D80A33138003233380023B2B70ADE734
:101B1000092C09D13949380002F056FC124A1388C1
:101B2000772BA3D80133EDE7052C0DD134493800CC
:101B300002F04AFC0C4A1388322B97D90A3B1380D7
:101B400004233380033BE1E70A2C8FD12D49380071
:101B500002F03AFC044A1388322B87D9013BEEE7A6
:101B60000023D6E65C100020320100202401002072
:101B700034010020341500207A100020EC140020DD
:101B8000CE140020C4090000FC14002080100020A6
:101B900078100020D014002087C40000E40C00005E
:101BA0008C140020D214002044150020E60E0020E2
:101BB000AC100020A6100020FFFF0000FEFF000078
:101BC0007C10002090C40000C2140020C614002025
:101BD000307500008410002099C40000B51000206A
:101BE000580500209DBC0000AAC40000ACC4000041
:101BF000B1C40000B2100020B7C40000C4C400008B
:101C0000CDC40000DCC40000012E00D09AE0C94B16
:101C1000C94D1A78002A02D000222E701A70C74BC4
:101C20001B78002B32D101232B70FEF771FBC44BC4
:101C3000C44C1B78002B35D1012323702B78C24D67
:101C4000002B0DD00022AB5E012B09D12378002B95
:101C500006D0962100238900BC482B8000F028FB89
:101C60000023EC5EBA4E002C29D12100B74800F0C9
:101C70002DFB002820D0B74E3378002B19D09621A9
:101C8000B248890000F014FB347024E52C78002C55
:101C9000CDD1FEF749FB2100AF4800F017FB00282B
:101CA000C5D0C0E72378002BC8D10220FEF75EFE26
:101CB000C2E702232B800EE50022B35E38E5022C3A
:101CC00000D008E5A54CA64B2178002927D01A782A
:101CD000002A01D000221A70FEF7CCFF002101205B
:101CE00004F0DEFF9F4C03239F4A0721200002F0EF
:101CF000BFF9200002F092F9072004F029FB01212E
:101D0000080004F0CDFF964B1B78002B00D1E2E4D5
:101D100000229621914BC9001A709448A7E41B78C1
:101D2000002B00D1D7E4914800F0D0FA002801D070
:101D30000123CBE40022B35E012B00D0CBE48C4A1C
:101D40001370C8E4032E00D048E18A4B1B78002BA7
:101D50003FD18026884B894C1888360310380328D9
:101D600000D98DE005F022F941025A73200001F0FC
:101D7000D5FE02212000266101F08BF88049200069
:101D800002F007FB200002F023F87E4B00229A5E4F
:101D90007D4B0021595E0023E85E1123FEF7ACFF66
:101DA00000217A4800F092FA794C002804D0FA21F8
:101DB0002000890000F07CFA0021200000F086FA63
:101DC0006C4B002801D001221A701B78002B00D127
:101DD00081E400236F4A13706F4A13806F4A1380A7
:101DE0006F4A1380FEF746FF75E4200001F096FE6F
:101DF00002212000266101F04CF86A49200002F01F
:101E0000C8FA200001F0E4FF5E4B00229A5E5E4BB0
:101E10000021595E0023E85E1023BFE7200001F097
:101E20007DFE02212000266101F033F85E4920008A
:101E300002F0AFFA200001F0CBFF524B00229A5E75
:101E4000514B0021595E0023E85E1223A6E72000D3
:101E500001F064FE02212000266101F01AF85349C6
:101E6000200002F096FA200001F0B2FF454B00225C
:101E70009A5E454B0021595E0023E85E13238DE7EF
:101E8000200001F04BFE20002661022101F001F844
:101E90004749200002F07DFA200001F099FF7FE71A
:101EA0002B4B002E00D004E100229B5E062B01D0BC
:101EB000012B17D104232B8000233E4A3E49137087
:101EC0003E4A38002370137002F07EFA0620FEF7B7
:101ED0004DFD3B493B4800F0EBF9FA213A488900B7
:101EE00000F0E6F92B4B1B78002B77D0032300255D
:101EF000364A37491380314B38001D70257002F087
:101F000063FAFA211B4B490020481D7000F0D0F9FC
:101F1000FEF7FEF92800FFF76DFA0C20FEF726FD0C
:101F2000154B18881038032858D805F03FF8BC53D3
:101F3000BEC0C04630010020B110002027010020A3
:101F4000A4100020B31000202A010020401500201A
:101F500024010020A8100020141500202C010020CE
:101F6000AE100020F81D0020FD0000002415002008
:101F7000AD10002026010020A610002058050020EA
:101F8000E7C4000032010020781000200C1500206A
:101F90001C150020AC1000207C10002084050020BF
:101FA000E60E0020ECC40000F1C40000F6C40000FE
:101FB000FBC400005E15002001C50000AF1000202A
:101FC0003075000018150020301500202E0100206B
:101FD00012C500008949380002F0F6F9884B1A78DA
:101FE000884B002A00D0DDE000221A701C78002CFB
:101FF00000D1E4E0844A11880B1C782900D8D8E08D
:10200000782398B21380FEF77FF800210D2004F0AA
:1020100047FEFFF745FAFA217B4B89001A887B4B74
:102020007B485A8100F052F9002814D0E122794C03
:10203000920023680133236093420CD1764D2B78B4
:10204000002B00D1C9E07549380002F0B3F9002334
:102050002B7000232360FEF7EBF9714B188004F01E
:102060008BFA704C206004F087FAFA216E4B8900DD
:1020700018606E4800F02AF9002807D06C4B6D49B3
:102080001A68380001321A6002F09EF96A4B226821
:102090001B68D31A694A934201D9FFF781FA04F009
:1020A0006BFA2060F2E7664995E7664993E766496F
:1020B00091E7042E3BD10021644A117000229B5EFF
:1020C000062B0BD1624B1B788B4221D00920FEF7E7
:1020D0004DFCFEF769F901225E4B1A705E490B78E0
:1020E000002B00D17AE7002301225C480B700370BB
:1020F0005B48237003705B4B5B4938002A801A7081
:1021000002F062F9FA215948890000F0D1F865E738
:102110000122574922700A70564A380056492B80CE
:10212000137002F051F90520FEF720FCD6E7012ECE
:102130001DD1524A1378002B00D14FE702232B8088
:10214000002313704E4A4F491680444A38001370DA
:10215000434A2370137002F037F9FEF74FF83D4BF6
:102160001E70FEF75DF8FA2147488900CDE7032E7F
:1021700000D033E7454B1B78DBB2002B00D02DE7B6
:1021800004222A803A4A424938001370237002F030
:102190001BF94049404800F08BF801222D4B1A7082
:1021A000FFF7BEFA324A1278002A00D11CE701225A
:1021B0001BE789B2322900D323E7322321E701212B
:1021C0000D2004F06DFD354B20001C80344B1C802D
:1021D000344B1C80FFF772F91DE73349380002F0D9
:1021E000E9F80320FEF71EFDFEF744FD2F493800F5
:1021F00002F0E0F82DE73378FFF725FA24C5000058
:10220000EE140020D010002032010020D410002055
:102210003C1500208C100020AA10002086C500006C
:1022200024010020F4140020F814002028150020B8
:102230008810002094C40000F014002087130000D0
:102240002FC500003AC5000046C500005C10002004
:10225000AB10002034010020B2100020B11000208B
:10226000B31000202C01002062C5000014150020CE
:102270005E150020B510002052C50000AD100020F2
:102280002A01002074C5000020150020AC10002099
:1022900001C5000030750000181500207C100020DA
:1022A00084050020E60E00209DC50000B1C5000099
:1022B0000B005A1E934170B505000C1E837004D0AC
:1022C00004F054F9013C24182C8070BD70B584785A
:1022D00005000E00002C0AD0048804F047F9074AD4
:1022E000231A9BB20024934205D95B42DCB2310031
:1022F0002800FFF7DDFF200070BDC04660EA000047
:1023000000207047F8B505000E0017000024BC42FD
:1023100008D02B682800315D1B689847002801D041
:102320000134F4E72000F8BD70470300FC33196A5C
:10233000DA69914203D01B6AC018007E7047012001
:102340004042FBE70300FC33D8691B6AC01A01D581
:102350000130FF3070470000F7B50193FA23802762
:10236000002504009B008360114B7F0008330E00A2
:1023700045602900009203603A00183006F002FE22
:1023800023002000FC332130DD613A001D6229006A
:10239000FF3006F0F7FD87239B00E3185D609D602A
:1023A000009B20002375019B2661A5756375FEBD0A
:1023B000C8C5000070B5040018260C49006902F079
:1023C0000FFB206902F060F933000821207D084DE1
:1023D0004343EB18595604F0A7FC0821607D46439F
:1023E000AD19695604F0A0FC70BDC046A08601007E
:1023F00020D2000070B504000D00006902F059F908
:102400002900206902F0ECFA206902F03DF970BD64
:102410008A2300229B00C1540C3BC3185A609A6067
:102420000123837570470200FC32536810B50133F5
:102430009468DBB29C4202D054680155536010BDD1
:1024400010B50300827D002082420ED087229200C8
:102450009C186268A4680132D2B2A24205D021332E
:10246000FF331800FFF7DFFF012010BD0300FC332E
:1024700099685A68914206D09A68805C9A680132DD
:10248000D2B29A60704701204042FBE700228A23C3
:1024900070B59B00827505000E00C15C006902F0FA
:1024A0003BF9002806D10321286902F01FF9022414
:1024B000200070BD872328009B00EA1853689468A9
:1024C0002130FF301C1B01D50134FF34002C0ED00D
:1024D0002C69FFF7CBFFC1B2200002F05BF90028A6
:1024E000E8D10321286902F001F90324E0E7002E76
:1024F000DED00321286902F0F9F8D9E710B50121EF
:10250000FFF7C4FF10BD10B51830FFF7AFFF10BDC7
:1025100070B50400006902F05DF9002814D020694C
:1025200002F066F9002810D0206902F0D5F80321E6
:10253000206902F0DBF88C239B00E558002D39D18F
:102540000023FC34E361236270BD206902F05AF974
:10255000002809D0206902F050F9002804D0206931
:1025600002F055F90028DFD0206902F04BF900286D
:1025700026D1206902F037F90028E5D0206902F061
:1025800046F9002837D087239B00E21853689268E9
:102590009B1A01D50133FF33FF21002B05D020000A
:1025A0002130FF30FFF762FFC1B2206902F004F969
:1025B000A075C9E7236820001B699847A847BFE7B3
:1025C000206902F089F82069032102F08FF8206960
:1025D00002F01DF90028B7D0872300229B00E318E2
:1025E0005A609A600123A3758B239B00E3589342A2
:1025F000AAD09847A8E72200FC32D369126A0133B7
:10260000DBB22069934206D102F05DF80321206914
:1026100002F06CF898E702F0FFF801002000183093
:10262000FFF701FF206902F057F8EFE710B5024805
:10263000FFF76EFF10BDC0466015002010B51523D2
:10264000142202490248FFF787FE10BD082400202B
:10265000601500200822074B00050905090D000D33
:10266000D884998499880A439A805A7ED209FCD1E9
:102670007047C046004000427047F0B51D0089B069
:102680000EAB00241C5F0FAB1B8816000693A31A29
:10269000DA179B18534002936B1ADA179B185340B2
:1026A0000393039A029B0190934205DC23002C00C4
:1026B0001D0033000E001900A64205DC2B000D00A2
:1026C0001900230034001E00331B9BB204934B1BE4
:1026D000DA179B18534007936B4610229A5ED30F6C
:1026E0009B185B10009301238D4221DA0593B442BD
:1026F00024DC019B039A1B689B691F00029B934289
:1027000018DD22002900069B0198B847009B079A14
:102710009B1A9BB21AB20092002A06DA059AAD18EB
:10272000049A2DB2D3181BB20093013424B2DEE711
:102730005B42DBE7069B2A002100E5E709B0F0BD1C
:10274000704710B504682469A04710BD37B506ACC2
:10275000258804680095A46BA04737BD37B506AC43
:10276000258804680095E46BA04737BD73B506ACB7
:102770000025655F07AC2688046801960095246CE7
:10278000A04773BDF0B5160004000D0085B003939B
:102790000AAB1F8803685B699847039B2268013B6B
:1027A0009B191BB200930197976A2B0032002900F6
:1027B0002000B84723682000DB6A984705B0F0BDC9
:1027C000F0B505001C000E00170085B00AAB1B8891
:1027D000013C03930368A4195B69984703992A682D
:1027E0000191009723B23100946A28003A00A04773
:1027F0002B682800DB6A984705B0F0BDF0B50E00E5
:1028000087B003930CAB029200229B5E05000493F9
:102810000DAB1B883400059303685B699847039AE6
:102820002B68B21894420ADA059A210000921F6AB6
:10283000029A049B28000134B84724B2EFE7DB6A10
:102840002800984707B0F0BD13B501910E24015F31
:102850000C22835E02680091146C00221100A047D4
:1028600013BDF0B5040015000E0087B004930CAB47
:1028700000229B5E05930DAB1B88039303685B6985
:102880009847039A236800925F6A2A00049B3100EC
:102890002000B847059B03995A1E236800915219DE
:1028A0005F6A3100049B200012B2B847039A236884
:1028B00000921F6A2A00059B31002000B847049946
:1028C000039A236801390092891909B21F6A2A0004
:1028D000059B2000B84723682000DB6A984707B0B3
:1028E000F0BD7047F0B585B01E000AAB0027DF5F72
:1028F0000BAB1B8814000500029103930268B142E0
:1029000010D1BC4202DC3B0027001C0003990134BB
:102910000091E31B966B1BB23A0002992800B04766
:1029200005B0F0BDBC4211D1029BB34202DC3300C2
:10293000029E0293029B0399013300919B1BD76B6C
:102940001BB2220031002800B847E9E753699847D5
:10295000039A2B68019200979F6A28003300220097
:102960000299B8472B682800DB6A9847D8E7032309
:10297000194010B50822835E81760A24025F01297E
:1029800004D0032902D08381C28110BD8281C3811A
:10299000FBE700004281C2810122524242610222D1
:1029A000002310B5FF32074C0283013A0834FF3A86
:1029B000436004600181818103618376C27603777D
:1029C000036210BDECCA0000F0B58DB0079312ABE6
:1029D000029200229B5E0691039313AB00229B5E42
:1029E0000400089314AB1B88099315AB1B880A934A
:1029F00003685B6998470722039B029FD91DCB1789
:102A000013405B18DB10049300231D0000930B920E
:102A1000029ABBB205939B1A089A1BB29A422CDD0C
:102A20000023039A93421FDA9AB201920B9A6D0027
:102A300099B2EDB2114204D1079A0099DB105218F5
:102A4000D55C2368019A9B691E00069BD1186AB267
:102A500009B2099B002A00DB0A9B3A002000B0471C
:102A6000019E013633B2DCE7049A009B9446059F31
:102A70006344013700933FB2CAE723682000DB6A52
:102A800098470DB0F0BDF0B585B00AAC0025645F85
:102A90000BAD0026AD5F0DAF0CAE36883F880296B9
:102AA000039701950094FFF78FFF05B0F0BD00007C
:102AB000F0B595B01D001AAB1B88040005931BAB45
:102AC0001E881CAB1B78089103931DAB1B780492E6
:102AD0000293036A002B00D0C4E00C22835E8B4279
:102AE00000DC7DE00E22835E049A934278DD0623AB
:102AF000039A53435B18002B72DD029B049ADB00A0
:102B00009B18002B6CDD037F002B03D1AF2D01D967
:102B10000135EDB2236820005B69984705235D43CA
:102B20000B9300230793984B5B190F93079A0F9B06
:102B30009B5C0A936B469B8B09936B469B890D9319
:102B40006B460D9A1F8C099B5343FB181BB20E93C7
:102B500008230C930023069301220A9B206813424A
:102B600052D06B461A8B198A039B012B3AD1029BD8
:102B7000012B37D1099B52188569D919059B12B2CF
:102B800009B22000A847069B01335BB206930A9B5B
:102B90005B080A930C9B013BDBB20C93002BDBD14F
:102BA000079B01335BB207930B9B013BDBB20B939B
:102BB000002BBBD1059BB3420ED0039B2268012B97
:102BC0003FD1029B012B3CD105370096156A39B2E3
:102BD0000733049A2000A84723682000DB6A98473F
:102BE00015B0F0BD6B460C255B5F029D6A438A18E9
:102BF000059912B2019169460825495F0091C5699E
:102C00000E992000A847BEE7059BB342BBD06B4698
:102C1000198B1A8A039B012B0AD1029B012B07D126
:102C2000099B5218D91912B209B285693300A8E775
:102C30006B460C255B5F029D01966943521812B2E8
:102C4000D9E76B460C215B5E05210D980196414347
:102C500002987918C0000090D56909B2049A200042
:102C6000A847B9E71A7AAD1AEDB25A68ED001B68A9
:102C7000551913932B880993AB780D93EB78119327
:102C80000523EB560E930623EB560F93039B012B64
:102C900002D8029B012B56D96B4638229B5E0B93C0
:102CA0006B463C229B5E0C930027236820005B69E7
:102CB000984707970697119B069A9A4200D38BE78D
:102CC0006B461B8A00260A930C9B9B18029A53435F
:102CD0000A9AD3181BB210933B000D9A96424BD21E
:102CE0005A1CD2B212920722134207D1099B0999AA
:102CF000139A0133525C9BB2079209936B461B7F78
:102D00005BB2002B17DA6B46198C039B2068012BF2
:102D10001DD1029B012B1AD10A9B0F9A9A18069B70
:102D2000D2180E9B12B2C918836989191D0009B205
:102D3000059B2000A847079B01365B00DBB2079389
:102D4000F6B2129BC9E700230C930B93ACE76B46DA
:102D50000C229B5E0B9A039D92196A438918059A6F
:102D600009B201926A460825525F0092C2692000AA
:102D70001500109AA847DEE7069D0D9B0135FF1848
:102D8000EBB2FFB2069396E7ECC50000F0B5026A1D
:102D900085B004000D00002A2AD10A2908D1437EFB
:102DA0000282DB00628A9B186382012005B0F0BDBD
:102DB0000D29FAD01223C25E1023C15E437E039315
:102DC000037E0293C38A0193838A00932B00FFF74B
:102DD0006FFE237E0622312D4ED1042B03D1238A90
:102DE00013332382E1E7032BDFD1238A0E33F8E785
:102DF0000A2905D100230382127B437E5343D1E786
:102E00000D29D2D0137A9942CFD3917AA942CCD34B
:102E1000EB1A5168DBB2DB00CE18B178002929D05B
:102E2000F378002B26D0E37E007E677E002B13D044
:102E30000523F3565B1843439C461023E15E8C4404
:102E40000C23E15E8C4507DD1223E15E0023238223
:102E5000137B7B435B1863821223E25E1023E15EE7
:102E6000E38A02900193A38A0397009320002B002A
:102E7000FFF71EFE3379227E5343228A9B18B0E768
:102E8000002900D101310176002A00D101324276B9
:102E9000704710B50A00FFF7F3FF10BD0378034A2F
:102EA0009B009B58002249331A707047E817002096
:102EB000F0B5040085B01E000AAB1B7810300193FA
:102EC0000BAB1B78170002930CAB1B780D00039320
:102ED00000F090F92000243000F08CF9220000234B
:102EE0004832A363E36323646364137053706372B3
:102EF0009D4205D12221084B084A094805F096FF5A
:102F00002000019B25606371029B2771E371039B85
:102F1000A671237205B0F0BD44CB000055CB000074
:102F2000A9CB000030B5040085B002AD0068029165
:102F3000039201F064FB6B79227AE17920680093B7
:102F4000002301F023FD2979029A206801F07CFB1F
:102F5000206801F04AFB05B030BD000007B5837A58
:102F600000910192002B07D09A070AD5EFF3108346
:102F70005A425341C37272B60099019AFFF7D2FFC9
:102F800007BDDB07F8D5C368014A9BB29360F3E73E
:102F90000018004010B5006801F03AFB10BD0000B9
:102FA00010B5006801F046FC03000020834203DBFB
:102FB0000C304343014A985810BDC0460CCC000069
:102FC00010B5006801F036FC002805DB0C234343F4
:102FD0000348C018406810BD01204042FBE7C046CE
:102FE0000CCC000010B5006801F024FC002805DBC3
:102FF0000C2343430348C018806810BD01204042A1
:10300000FBE7C0460CCC0000F0B50600103605000A
:1030100089B0300000F046F9002869D12F0024372C
:10302000380000F03FF9041E5FD12800FFF7DAFFF7
:10303000C1B2300000F018FA0221300000F038FA76
:103040002C490122300000F00BFA2B7C2A4A9B000D
:1030500028009D50FFF7B4FFC1B2380000F004FA19
:103060000221380000F024FA6B1DDB7F224A9B000E
:1030700028009D50FFF794FF0123010022000293D6
:1030800030002300049403940194009400F034FA77
:10309000A8632800FFF784FF0123020021000193A9
:1030A00038002300049403940294009400F024FA5E
:1030B000E863402005F024FF2A0048322864079284
:1030C00000280BD00123137068646B6C1022181950
:1030D000E96B103405F03AFF402CF6D1079B1B78C2
:1030E000002B05D1380000F077F9300000F074F9BA
:1030F00009B0F0BD9D2E0000E817002070B5437A9E
:103100000400002B03D1012243814272C3602300DB
:1031100048331B78002B02D12000FFF775FF1826DB
:103120003300082120790D4D4343EB18595603F025
:10313000FBFD33000821A0794343EB18595603F0F7
:10314000F3FD082160794643AD19695603F0ECFDA3
:10315000034B200006CBFFF7E5FE70BD20D2000038
:10316000E01700201FB5094A094B0A4913600023E4
:103170009380029301330193163300931622013397
:103180000548FFF795FE05B000BDC046E0170020DA
:1031900000093D000C24002094170020084B1968FA
:1031A000002909D1EFF31080064A002803D172B636
:1031B000BFF35F8F013111701A6801321A607047D6
:1031C000A8190020A4190020084B1A68002A0CD066
:1031D0001A68013A1A601B68002B06D1044B1B7851
:1031E000002B02D0BFF35F8F62B67047A819002092
:1031F000A4190020FF23002110B504000370FC3B3C
:1032000041708170C170017143710C22083005F06A
:10321000B9FE200010BD000001220B0010B51340C4
:1032200008D00D4B1A70042343708368002B00D024
:10323000984710BD0222114204D007490A7043701A
:10324000C368F3E704231942F3D0034A137003332E
:1032500043700369EAE7C0464E48004110B5FFF7E6
:103260009DFF0C4B1B8C1B071B0F0B2B0FD80A4A07
:103270009900885800280AD00F2408490A78A243E8
:1032800013430B70064B1978C9B2FFF7C5FFFFF760
:103290009BFF10BD00480041AC1900203F48004191
:1032A0004E480041F8B500230278050018000B2AAB
:1032B00077D93C4E2B702B780B2B07D801229A40E4
:1032C0003168114204D001332B70F4E7012068E02B
:1032D000FFF764FF3768344C002F2BD12022334B8B
:1032E000334859690A435A611022D9690A43DA619D
:1032F000022223883900934323802388013A134311
:1033000023802C4B6063BF32A36305F03BFEC022D9
:103310003900284805F036FE4022C120264B8000A7
:103320002380264B26491A601A581140C0221204E5
:103330000A431A5001231A00297830688A40024350
:1033400032600F261F4A880085501F48314002789E
:10335000B2430A43027002201C4A11788143117063
:10336000117819431170297822698B409A432261A0
:1033700060223F21636C934363642A79636C0A4043
:10338000134912020B400321134363646A79636C8F
:103390000A40104992050B4013436364FFF714FF82
:1033A0000020F8BDA01900200048004100040040A2
:1033B000E018002020180020020F000000E100E0CB
:1033C000FFFF00FFAC1900203F480041404800418A
:1033D000FFC0FFFFFFFF3FFF70B50500FFF7DEFEF8
:1033E0006B785BB21C00062B2BD02B7802240B2BA6
:1033F00027D801229A40154B1968114221D019682B
:10340000914319601B68002B14D14022104BDA67DE
:10341000BFF34F8FBFF36F8F21000E4A0E31138819
:10342000A34313800C4BDA698A43DA615A6910317D
:103430008A435A6100242B78084A9B009C50FF2342
:103440002B70FFF7C1FE200070BDC046A019002000
:1034500004E100E00048004100040040AC190020F5
:10346000023292001150704770B50500297103783F
:103470000C000B2B14D8FFF791FE29780F25094873
:1034800029400378084AAB430B433F210370536C38
:103490000C40064924020B401C435464FFF794FE81
:1034A00070BDC0463F48004100480041FFC0FFFFDB
:1034B00070B50500697103780C000B2B14D8FFF769
:1034C0006DFE29780F25094829400378084AAB4347
:1034D0000B4303210370536C0C400649A4050B40B9
:1034E0001C435464FFF770FE70BDC0463F48004166
:1034F00000480041FFFF3FFFF0B587B001930CABE0
:103500001E780DAB1B78050002930EAB1B7800787C
:10351000039310AB049105921F780B2802D9002069
:1035200007B0F0BD6B78062BF9D0AB78002B00D13B
:1035300078E01021080005F0D9FC0028EFD02B78A6
:103540003A4A1B019B181A00D168002904D0D1689F
:103550008B4201D0D268F7E7D06001230221AB7023
:103560009E4203D04918022E00D01900062402887A
:103570001A4302800288A243028002881234A243C6
:103580000280153C02882640294C36022240164310
:103590000680029E0288274C1E402240B602164337
:1035A0000680039E0288244C1E402240F6021643E9
:1035B00006800288214E3B4032401B031343072202
:1035C00003800F9B1A4003885203DB04DB0C134378
:1035D00003806B469B884380049B4360029B002BC7
:1035E00008D0019B42684B43002F01D00F9CA340A1
:1035F000D3184360059B8360039B002B08D0019C7C
:103600004C438168002F01D10F9B9C400C198460B2
:103610000023EA789A4203D02B78044A1B019B18B6
:10362000C3607DE7014B0001C01896E7E018002059
:10363000FFFCFFFFFFFBFFFFFFF7FFFFFFEFFFFFB9
:1036400070B5140004AA1588827E022A3AD0032A93
:1036500000D16FE0012A3DD1E2430489A41824B2CD
:10366000002C2EDB0826825FA2422ADD002902DA26
:103670005B1800211BB20A22825EC818904201DD4D
:10368000531A1BB2002B1CDD0720C9B2CA089201D5
:103690001419644ADBB2A41801405CD00130401A0E
:1036A000614AC0B2125C834200D3B2E0FF21C61A65
:1036B00031410A40012D42D0002D44D0022D00D1CD
:1036C000ADE070BDE2434489C918A418028924B250
:1036D000511A09B2002CF4DB0A26825FA242F0DD07
:1036E000002902DA5B1800211BB20822825EC8188A
:1036F000904201DD531A1BB2002BE2DD0726E017D2
:1037000030400019C0108001411801203440A04011
:10371000444AC0B28A18012D65D0002D6DD0022D0B
:10372000CFD1013B1BB2591CCBD011784140117055
:103730000132F6E74289C918511A09B290E7217897
:103740000A43227002E02178914321708342B8D36A
:103750001B1ADBB24034072B2ED9022D16D12100C3
:103760001A000878083AC043D2B208704031072ADC
:10377000F7D81A000721083AD2B2D20801329201D2
:10378000A4180B409DD0294AD35C21E06A1E514207
:103790004A41200019005242D2B20839C9B202701F
:1037A00040300729F9D81A00083AD2B2D2080132BB
:1037B0009201A41807221340002B00D181E71B4A75
:1037C000D35C012D07D0002D09D0022D00D078E761
:1037D0002278534001E022781343237071E7227866
:1037E0009A4322706DE7013B1BB2591C00D168E778
:1037F0001178014311700132F5E7C043C0B2013BBB
:103800001BB2591C00D15CE71178014011700132E4
:10381000F5E7012D93D0002D95D0022D98D1217878
:103820004A408EE7450100203D010020350100207F
:1038300070B50C0004A90D88817E02293CD00329B3
:1038400078D0012940D10189D2188A1A12B2002CED
:1038500000DAD9E00A26815FA14200DCD4E0002A28
:1038600002DA9B1800221BB20821415ED018884260
:1038700001DD8B1A1BB2002B00DCC5E00726E01728
:1038800030400019C0108001821801203440A0404F
:103890006249C0B25118012D51D0002D58D0022DCF
:1038A00000D0B1E0013B1BB25A1C00D1ACE00A7859
:1038B00042400A700131F5E7E1430489D2186418E7
:1038C000418924B28A1A12B2002C00DA9CE0082640
:1038D000815FA14200DC97E0002A02DA9B180022F7
:1038E0001BB20A21415ED018884201DD8B1A1BB23F
:1038F000002B00DC88E0D2B2D10889010C194749BD
:10390000DBB2641807210A4039D001318A1A4449D0
:10391000D2B2895C934200D377E0FF20D61A3041BF
:103920000140012D1FD0002D21D0022D6CD1207817
:1039300041401AE0E1434489641824B287E7013B1F
:103940001BB25A1C60D00A7802430A700131F6E7B4
:10395000C043C0B2013B1BB25A1C55D00A7802408A
:103960000A700131F6E720780143217002E02078E7
:1039700088432070934247D39B1ADBB24034072B15
:103980002ED9022D16D121001A000878083AC0431A
:10399000D2B208704031072AF7D81A00083AD2B2DA
:1039A000D20801329201A418072213402CD01D4ADC
:1039B000D35C1FE06A1E51424A4120001900524266
:1039C000D2B20839C9B2027040300729F9D81A00BA
:1039D000083AD2B2D20801329201A4180722134049
:1039E000002B11D00F4AD35C012D06D0002D08D03A
:1039F000022D09D12278534001E02278134323702D
:103A000002E022789A43227070BD012DABD0002DC8
:103A1000ADD0022D00D18AE7AEE7C04645010020B7
:103A20003D0100203501002030B500291BDB0C25AD
:103A3000445F8C4217DD002A15DB0E25445F94425B
:103A400011DD847E022C0FD0032C16D0012C04D162
:103A5000D243008980180A0001B2012B13D0002B39
:103A60001FD0022B2DD030BD0489013C611AD443F4
:103A7000428909B2121912B2EFE740890138401A9F
:103A8000110002B2E9E70724D01720408018224035
:103A90009340C010800141181148425C13434354C5
:103AA000E1E70720D31703409B18DB109B0159184F
:103AB0000123024093401A00094C635C9343635412
:103AC000D1E70720D31703409B18DB109B0159183F
:103AD000012302409340024C625C5340EFE7C04632
:103AE0004501002070B504000D0020224021FEF7A2
:103AF00051FF094BFF220833236023002A331A7039
:103B00002200012328325B42E3841370230029330F
:103B10001D70200070BDC04654CC0000802210B53E
:103B200052000021014805F02DFA10BD450100208A
:103B30000300F7B52B331B7806000F00002B03D0D2
:103B40001148FFF727FAF7BD0824802533001F200E
:103B5000083301931856002103F0A2F829001F2012
:103B6000F31D39401856002900D0012103F098F8C0
:103B70001F20019B01211856013C03F091F86D08AC
:103B8000002CE3D1DFE7C0469417002070B5C31DB9
:103B9000DB7F04005BB20D0001331AD00600002069
:103BA0002A363056012103F07BF8282000212056C8
:103BB00003F076F800200021305603F071F8290058
:103BC0002000FFF7B5FF00200121305603F068F810
:103BD00070BD0534E17F084C2000FEF719FC002180
:103BE0002000FEF72DFC29002000FEF729FC200014
:103BF000FEF784FCECE7C04660150020F0B585B008
:103C00000093831DD977431DDA771F23C71DFB5609
:103C100004000D00013300D1C8E003002020083368
:103C200001931856012103F00BF826002A200121E8
:103C300020562B3603F004F83378002B0AD11F20CE
:103C40000121385602F0FCFF1F20019B012118566C
:103C500002F0F6FF3378002B0CD0594E3000FFF7FE
:103C60004DFA002302AA537113715649039A30008A
:103C7000FFF774F9009B002B1DD026000020293689
:103C80003056002817DB012102F0DAFF0020012165
:103C9000305603F005F8012002F09EFC00200021C0
:103CA000305602F0FDFF0A2002F096FC00200121B0
:103CB000305602F0F5FFAE212000FFF767FFD52157
:103CC0002000FFF763FF80212000FFF75FFFA8219E
:103CD0002000FFF75BFF1F212000FFF757FFD321D4
:103CE0002000FFF753FF00212000FFF74FFF402186
:103CF0002000FFF74BFF8D212000FFF747FF102129
:103D0000012D00D014212000FFF740FF20212000CA
:103D1000FFF73CFF00212000FFF738FFA121200022
:103D2000FFF734FFC8212000FFF730FFDA21200021
:103D3000FFF72CFF12212000FFF728FF8121200030
:103D4000FFF724FFCF212000FFF720FFD92120001B
:103D5000FFF71CFF2221012D00D0F1212000FFF7E9
:103D600015FFD9212000FFF711FF2221012D00D0DE
:103D7000F1212000FFF70AFF2000DB21FFF706FFFB
:103D800020004021FFF702FF2000A421FFF7FEFEE4
:103D90002000A621FFF7FAFE20002E21FFF7F6FEF5
:103DA000AF212000FFF7F2FE05B0F0BD064E300057
:103DB000FEF700FB05493000FEF71CFB5AE7C04642
:103DC0009417002000127A0060150020801A060067
:103DD000F8B505002121FFF7D9FE20212800FFF7C3
:103DE000D5FE5F212800FFF7D1FE22212800FFF732
:103DF000CDFE00212800FFF7C9FE03212800FFF7B0
:103E0000C5FEEB1DDB7F00245BB2013320D02E000A
:103E100000202A363056012102F042FF28200121DD
:103E2000285602F03DFF002021003056802702F086
:103E300037FF7F00154B2800195D0134FFF778FE2E
:103E4000BC42F7D100200121305602F029FFF8BD15
:103E50000F4E6B1DD97F30002700FEF7D9FA4021A5
:103E60003000FEF7EDFA1037BFB2084B3000195D95
:103E70000134A4B2FEF7E4FABC42F6D13000FEF7FA
:103E80003DFB80235B009C42E2D1E0E7450100203E
:103E90006015002010B5054A0549064800F010F8E5
:103EA0000022054B05491A705A5410BD0104000048
:103EB00000CD0000E01D0020DC19002002040000FD
:103EC00030B5094D094CAB685B035B0F9B001C5977
:103ED0000460AB6801619BB243606343A4008360EC
:103EE000C460426130BDC0460040004100D20000C5
:103EF000F7B580261A4D01916F6803333E439B0846
:103F00006E60002B2BD0174E2E802E7DF107FCD536
:103F10001E000768991BBF088F4219D9002E17D0C1
:103F2000FF2117788C433C430F4957780C403F02E0
:103F30003C439778013E39040C4F2740D478BFB2F8
:103F40000F43240601993C4310C101910432E0E77C
:103F5000074B2B802B7DDB07FCD53300D1E7F7BD6A
:103F60000040004144A5FFFFFF00FFFFFFFF00FFEF
:103F700004A5FFFF044B054A4908D9611A801A7D40
:103F8000D207FCD57047C0460040004102A5FFFFA4
:103F900070B504000D001600E36829002000B3424C
:103FA00005D2FFF7E7FFE368ED18F61AF4E7FFF72D
:103FB000E1FF70BD10B510001A0004F0C7FF10BD7E
:103FC000114B12495A880A405A805A78D209FCD1BA
:103FD0000F4A5A805A78D209FCD10E4A5A605A7850
:103FE00052B2002AFBDB8022596892030A435A60CE
:103FF0005A7852B2002AFBDBC023074A9B00516863
:104000000B4353607047C046000C0040FFBFFFFFEA
:1040100005460000060301000040004170B510484D
:1040200000F0D0FE0024A04203D10E4801F0DCF9DC
:10403000013402220C4B0D48196891431960042188
:10404000056929430161BFF34F8F30BF19680A43E7
:104050001A60002C02D0034801F088F970BDC046F8
:10406000342400205024002010E000E000ED00E0A7
:1040700070B50500140008001A001A290AD9FF2992
:1040800007D10021280000F099F82100280000F055
:1040900043F870BD182116254143094B5B185D5745
:1040A0006B1CF6D0102DF4D0210002F095F8FFF72C
:1040B00087FF0123AB40034A51690B435361E8E793
:1040C00020D20000001800400423044A10B5117EDD
:1040D0000B431376024B5B68984710BD00400042CB
:1040E000F81D002010B5024800F004F810BDC046CD
:1040F000F81D00200023037070470000044B10B52A
:104100001B68002B00D098470122024B1A7210BD89
:10411000001E002000140040014B19607047C0468B
:10412000001E0020094B0A4A9A605A7852B2002AAF
:10413000FBDB084A5A605A7852B2002AFBDB064A77
:104140005A805A78D209FCD17047C046000C004012
:104150000204000002051100044200000221044B89
:104160001A888A431A809A7AD209FCD17047C046CD
:10417000001400400222044B19880A431A809A7ADC
:10418000D209FCD17047C046001400400122044B04
:1041900019880A431A809A7AD209FCD17047C0461E
:1041A000001400400121044B1A888A431A809A7A2D
:1041B000D209FCD17047C046001400402023F7B557
:1041C00000262A4A0F00916905000B439361284B92
:1041D000284A294C9A82B7420BD1284B3E001A78C4
:1041E00070231A4205D023881B0702D501262369B4
:1041F00001932800FFF796FF2800FFF7AFFF280084
:10420000FFF7C4FF63881E4A134063801D4B238061
:10421000A37ADB09FCD1C0211B4A08331360890053
:1042200053581B021B0A53500123E2791343072200
:10423000E371237F93432377A37ADB09FCD1280022
:10424000FFF798FF2800FFF7ADFF002F0BD1002EDE
:1042500009D0019B002B06D02361A37ADB09FCD196
:1042600001332B70F7BD8423DB03F5E70004004026
:1042700000080040CE060000001400403804004052
:10428000FFBFFFFF080A000000E100E010B5024890
:1042900001F0ACFE10BDC046041E002010B502485F
:1042A00001F0A4FE10BDC04600210020F7B5012496
:1042B0000326154F1549380000F001F91449154837
:1042C00000F0FDF81449154800F0F9F814491548B4
:1042D00000F0F5F81449154800F0F1F8144D1549AF
:1042E000280000F0ECF83900230000960022019429
:1042F000114801F00FFE290000961E231F22019491
:104300000E4801F007FEF7BDFC2300200008004224
:10431000000C004200240020001000420424002071
:104320000014004208240020001800420C24002041
:1043300010240020001C0042041E00200021002048
:10434000F7B506000D000C008B180193019B671B4D
:104350009C4207D0336821781B68300098470134AD
:104360000028F3D13800FEBD70B5040008000D0030
:1043700005F0BEFC2368020029005B682000984716
:1043800070BD10B50B1E02D0FFF7EEFF0300180042
:1043900010BD10B5FFF7F5FF10BD10B503681B6821
:1043A000984710BD10B50249FFF7DEFF10BDC046AB
:1043B00070D6000070B50400FFF7E3FF0500200091
:1043C000FFF7F0FF401970BD0EB410B5040097B0B0
:1043D00019AB04CB502102A8019305F0BBFC02A944
:1043E0002000FFF7CEFF17B010BC08BC03B0184781
:1043F000F0B58BB06B461500002205330600DA7766
:104400000800012D00D80A2509AC290002F05EFE43
:10441000CAB2130037330700DBB2092902D81300F0
:104420003033DBB2013C2370002FEED1210030008D
:10443000FFF7A7FF0BB0F0BDF8B506000C00151E86
:1044400004D10368C9B21B689847F8BD0A2A0CD189
:1044500000290BDA2D21FFF7A0FF614207002A0097
:104460003000FFF7C5FF3818EFE7D2B22100300067
:10447000FFF7BEFFE9E710B5FFF7DEFF10BD70B52F
:104480000400FFF7D9FF05002000FFF78BFF40195C
:1044900070BD10B5002A04D10368C9B21B689847E3
:1044A00010BDD2B2FFF7A4FFFAE770B50400FFF722
:1044B000F0FF05002000FFF775FF401970BD016097
:1044C00070479446F0B59E1E721E9641624605687E
:1044D00092072F6836063A4332432A60072505AC17
:1044E00024780068A4012940214342680024022B5B
:1044F00000D05C03114321434160F0BD30B5C025BD
:104500000368AD031C6812052A402243C024090435
:10451000A40221401143196003685A6814435C6087
:1045200030BD0123026811680B43136003681A68E9
:10453000D207FCD4DA69D207F9D4704702230268A3
:1045400011680B4313600268D3699B07FCD4704762
:1045500003681A7ED20702D41A7E9207FCD57047F0
:10456000002203685A8370470368187E4007C00F13
:1045700070470368187EC0097047802302685B4259
:10458000117E0B43137670470368588B8007C00F6A
:10459000704702230268518B0B43538370470368B3
:1045A000187EC007C00F70470368188DC0B27047EF
:1045B00003681A7ED207FCD589B20120198570479D
:1045C000012203689A757047012203681A757047C3
:1045D0000123026811680B43136003681A68D2074D
:1045E000FCD4DA69D207F9D4704702230268116853
:1045F0000B4313600268D3699B07FCD470470368C0
:10460000DA699207FCD402211A688A431A6070475B
:104610000268936A5B0A5B021943916203681A7E1F
:104620005207FCD5986AC0B27047000010B5490027
:10463000044802F0C5FC80B2002801D0013880B2E5
:10464000C0B210BD006CDC0270B54B080C0001213B
:1046500005680B400C402E6824075B072343334357
:104660002B6011000468FFF7E1FF207370BD012388
:10467000026811680B43136003681A68D207FCD400
:10468000DA69D207F9D470470223026811680B4334
:1046900013600368DA699207FCD430215A8B8A438D
:1046A000110010220A435A830268D3695B07FCD4C5
:1046B00070470221026813688B4313600268D36954
:1046C0009B07FCD4704780230268DB0211685168A5
:1046D0000B43536070470000036803491A685A6827
:1046E0000A405A607047C046FFFFFBFF032230B507
:1046F000036811401C68074D5A6809042A40E40603
:104700001143640F5960052C03D10268D3695B071C
:10471000FCD430BDFFFFFCFF30B503680400588BAC
:104720008006800F022814D05D8B0020AD06AD0FEF
:10473000032D2ED0588B800705D55D8B0020AD064C
:10474000AD0F012D25D100205D8BAD06AD0F85424B
:104750001FD04800596A1043C90AC0B2C9020143B8
:1047600059622368002A08D11A7ED207FCD5588BDB
:104770004007C30F012058400BE0187E8007C00F90
:10478000F5D11A7ED207F8D5C022596892020A43A1
:104790005A6030BD0368283319700368187EC0075B
:1047A000C00F03D15A8BD207F8D57047588B4007FA
:1047B000C30F01205840F8E70368283319700368D5
:1047C00000201A7E520704D5588B01234007C00FE2
:1047D0005840704703681868C006400F04384342C9
:1047E0005841C0B270470368187E4007C00F704739
:1047F0000368187EC007C00F70470368588BC00657
:10480000C00F70470368187E8007C00F70470368A9
:10481000588B0007C00F704703681A68D206520F02
:10482000052A02D11A7E9207FCD528331878C0B227
:10483000704700000368104A934213D00F4A934216
:1048400012D00F4A934211D00E4A934210D00E4A12
:1048500093420FD001200D4A4042934201D10630CD
:1048600040B270470020FBE70120F9E70220F7E79C
:104870000320F5E70420F3E700080042000C0042A3
:10488000001000420014004200180042001C0042C8
:10489000F8B5FFF7CFFF00282CDBC3001C48FF2230
:1048A000C01805230479C35603201840C000824075
:1048B000C021D2438140002B1DDB1F2501201D405C
:1048C000C026A840134D7600A851C0269B089B0027
:1048D0005B19B6009F593A401143995128603F2314
:1048E00023408024E4011C430B4B5C805A7852B275
:1048F000002AFBDBF8BD0F200340083B07489B085C
:104900009B001B18D86902401143D961E7E7C046F4
:1049100074D6000000E100E0000C004000ED00E073
:10492000F8B504000F0016001D00FFF7B1FF2000CE
:10493000FFF7F7FD1C21BB000B4071072268090C33
:104940000B431360842322689375012F1AD1102121
:10495000012E00D008390C4B69431868C00002F0E2
:104960002FFB0722216802408B895203DB04DB0CFA
:1049700013438B81226803049089DB0C400B4003B6
:1049800018439081F8BDC046E4020020F7B5050049
:10499000019308AB1F780E001400FFF719FE2800E2
:1049A000FFF776FFC022240592031440BA070C27B4
:1049B00017433C43C02707223604BF022B683E4002
:1049C00026431E60019B296813401A0080239B0226
:1049D00013434B602A68D3695B07FCD4F7BD000022
:1049E000F8B504000F00FFF753FF2000FFF73FFE6C
:1049F0001422236879001A600C4B25681E68300069
:104A000002F0DEFA0A490400300002F0D9FA7D23F0
:104A1000FA215843C90002F0D3FAFF23241AE868A8
:104A2000053C1C4098430443EC60F8BDE4020020C0
:104A300040420F000221084B1A888A431A80DA7B11
:104A4000D209FCD101321A80DA7BD209FCD11A8852
:104A5000D207FCD47047C04600340042074B10B563
:104A60001B780400002B08D0FFF7E4FF0021200092
:104A700002F016F90022024B1A7010BD1424002017
:104A800030240020F7B504000E1E009202D1FFF77B
:104A9000E5FFF7BD802350495B03504ACB67BFF366
:104AA0004F8FBFF36F8FC021C520490053504C4B2F
:104AB0008039FF39197080001358FE318B4319007B
:104AC00040230B4313504749474B598001925A7872
:104AD000D209FCD1454B1B78002B05D0444B1868FC
:104AE000A04201D0FFF7BAFF424B3100186802F034
:104AF00067FA414A002394460427451E65450FD9AD
:104B0000050019005A1CD540B943C9B2013D03291B
:104B100002D0D2B2062A01D10233DAB21300EDE795
:104B2000013B0027092B02D8344A5B009F5A009BA7
:104B3000002B4CD0FA2158007043890002F040FA53
:104B4000002302002E492F4E0A604B60FFF772FFD0
:104B50002023328813431F433780F37BDB09FCD1CA
:104B6000ADB23583F17BC909FCD118206043264AD8
:104B7000264D83561218DB015F19254D2F60254DF8
:104B80005B19254D2B60012553682A009A40234B61
:104B90001A601023727B13437373154B1A68A24279
:104BA00009D020001C6002F07BF82900200002F0F0
:104BB00047F80E4B1D700223328813433380F37B7A
:104BC000DB09FCD18023019A5B03136061E70122BA
:104BD0005242D317B6E7C04604E100E000E100E02E
:104BE000142400201C400000000C00403024002051
:104BF0006002002064020020FFFF0000A4D6000035
:104C0000282400200034004220D200001C4400412F
:104C100020240020144400411C24002018240020DB
:104C2000154B70B5186859680500144C0D4319D020
:104C3000134A21681268116018685968002902DC5B
:104C40000AD1002808D01868596801246442E51781
:104C5000001969411860596010230A4A917B0B437F
:104C6000937370BDFFF7E6FE074B22681B681A605E
:104C7000064B1D70F5E7C0462824002018240020AC
:104C800020240020003400421C2400203024002076
:104C90003F20704713B56B460268D97107335468DB
:104CA00019000122A04716BD10B50221006900F0CD
:104CB00057FC10BD10B50321006900F067FC10BD62
:104CC00010B51300084A0400D279002A03D1012349
:104CD0000020636010BD0A000069032100F04EFD52
:104CE0000028F4D0F6E7C0466C02002010B5054C51
:104CF00023685A1C04D103685B699847030020604D
:104D0000180010BDB8020020074B0200186810B54B
:104D1000411C03D0012252421A6010BD02211069C9
:104D200000F01EFDF9E7C046B802002010B5037878
:104D30004222023303700249024800F0CBFD10BD4D
:104D4000740200205024002010B50178020043783E
:104D50000020A12908D1212B05D107221649174887
:104D600000F0B8FD012010BD2129FCD1202B13D16A
:104D700007221149114800F04DFC96220E4BD2003B
:104D8000196891420ED10124D87904400AD1FA2041
:104D900002F02CF80020E6E7222B06D19278064B91
:104DA000DA71EAE702F028F8F4E7232BDBD1528826
:104DB000034B1A60D7E7C0466C0200205024002045
:104DC0006802002010B501F0D1FBF423FF3300246A
:104DD000984207D9044B0A20DC79631E9C41E4B257
:104DE00001F0FAFB200010BD6C020020FA22002125
:104DF000054B92009A60054A596008321A60044ACD
:104E000019761A617047C04634240020B8D60000D5
:104E100050240020704770B50F26CB1D01390200C9
:104E20003240D5B22C0000093034092A00DD0734A5
:104E30001C70013B8B42F2D170BD10B5040080693B
:104E400004F068F8A06A04F065F8200010BD10B501
:104E50000400FFF7F2FF200001F00AFC200010BD63
:104E600070B5032908D1324B8000C058002802D009
:104E70000368DB68984770BD82291FD1C3B22D4DEE
:104E80005A01AA1891692C4C80010C40C021890557
:104E900021439161294908334018802150612A68D3
:104EA0005B01D01804794942214301717020995C5B
:104EB00081430800302101439954DCE70029DAD10D
:104EC000C024C1B21B4E4A01B21893681A4DA40502
:104ED0002B40234393601A4B8001C0180B00506095
:104EE0003068072608335B01195CB1430E000121CD
:104EF0003143195491690D402C43946170240F493A
:104F00005161195CA1430C0010212143195491688F
:104F10000C4CC3180C4080214903214391609168D7
:104F2000890B89039160402259790A435A71A2E79B
:104F30005424002008290020FFFFFF8F7C2400203C
:104F40003C260020FF3F00F0EFF3108303600123B5
:104F5000436072B670470368002B02D162B6BFF39C
:104F60006F8F704737B5056904006846002D14D16E
:104F7000FFF7EAFF019B621D013B02D3D57FEDB233
:104F8000FAE768460193FFF7E6FF002D01D1002004
:104F90003EBD206AE369C01AFAE7FFF7D5FF220099
:104FA0000025019B3432013B02D31578EDB2FAE7BC
:104FB00068460193FFF7CFFF002DE8D0206BE36A2E
:104FC000E9E70000FF2130B54368164D1A68836891
:104FD0000B405B01D21801235218947A2343937239
:104FE000836842680B405B01D418C268A3689204CE
:104FF0002B4012091343A360836842680B405B0196
:10500000D3189A68920B92039A6043681A6883686F
:105010000B4008335B01D318402219790A431A71F7
:1050200030BDC046FF3F00F0F7B5036904000E0035
:1050300017006846002B45D1FFF786FF019B611DD5
:10504000013B5A1C0CD0CD7F5A1EEDB2002D05D16C
:1050500068460193FFF77FFF2800FEBD1300F0E7CD
:10506000684601930025FFF776FFE369AF420AD057
:10507000226A9A4207D95A1CE261A269D3181B78A6
:1050800073550135F1E7226A9A42E5D10023E361C5
:10509000013323616846FFF757FF22000021019B7F
:1050A000671D013B3532581CD2D0F97710785E1E4F
:1050B000002805D0117020000193FFF783FFECE773
:1050C0003300F0E7FFF740FF2100019B3431013B43
:1050D0005A1C06D00D785A1EEDB2002DB8D0130020
:1050E000F6E7684601930025FFF735FFE36ABD4206
:1050F00002D0226B9A421CD8226B9A42ACD1002378
:105100006846E3622361FFF71FFF270022000021AA
:10511000019B3437013B3532581C99D039701078D7
:105120005E1E00280DD0117020000193FFF74AFF8A
:10513000EBE75A1CE262A26AD3181B78735501355B
:10514000D4E73300E8E7F7B5FF21826843680A40F7
:105150001B68083252019A18D3790400DB072AD55C
:105160000125D571836842680B405B01D3189A68AA
:1051700040699204920C002821D12262226A002AFE
:105180003ED0A26A656168465A60FFF7DDFE2700DF
:105190002100019B661D013B343735315A1C2BD051
:1051A000F5773A78581ED2B2002A05D001936846A6
:1051B0000D70FFF7D0FEF7BD0A700300EEE7226323
:1051C000226B002A1CD000226261A26968465A60E4
:1051D000FFF7BAFE26002100019B3436013B671D14
:1051E00035315A1C08D03570FA7F581ED2B2002AC9
:1051F000DCD10A700300F4E768460193FFF7ABFEC9
:105200002000FFF7DFFED6E737B56B46DC1D002335
:105210000D0020002370FFF789FD2B681818286007
:1052200001F062FE210001F02BFE2B6818182860A7
:1052300020783EBD03290ED180220E4B62311B68BF
:10524000FF31585C524202435A5468226339FF329C
:10525000FF39995470470129FCD18022054B243134
:105260001B68FF31585C524202435A5428222339AA
:10527000FF32EDE70829002070B50025304B0121F1
:1052800004001A201D7001F0DBFC01211A2001F03E
:1052900007FD2C4B012119201D7001F0D1FC0121CB
:1052A000192001F0FDFC2023274A0F20D1690B4370
:1052B000D361012225490B7813430B70244B1978D5
:1052C0008143197006211D782943197021490D78F1
:1052D0002A430A701A7802401A70602219780A4329
:1052E0001A701D4B1D4A5A805A78D209FCD11C48AD
:1052F00001F036F91B4D280001F008FE280001F0EE
:105300001DFE7F212A68C120137880000B40137096
:1053100004232A6811780B430C2113702A6813891F
:105320008B43114913810B581B021B0A0B5080231E
:105330000B6011787E3B0B4313700123237070BD0B
:1053400071240020702400200004004058440041D3
:105350003C44004159440041000C0040064000001C
:10536000495D00000829002000E100E000780028E5
:1053700010D00121084B1B681A898A431A81082220
:10538000198B0A431A830422198B0A431A830022B9
:10539000024B1A607047C0460829002000290020EF
:1053A00010B50F4A93699B0B9B039361136802220C
:1053B000FF331A729879823A02439A711A7A9207E5
:1053C000FCD57F24074A2140937A0800A3431900A3
:1053D000802301439172917A5B420B43937210BD1B
:1053E00008290020005000410078002805D0034B18
:1053F0001A68012311890B43138170470829002083
:1054000010B50B790C00002B0CD10800FFF79CFCA9
:10541000002801D0012010BD094A93699B0B9B0312
:105420009361F7E701F060FD210001F04DFD0028D8
:10543000F0D1034A93699B0B9B039361EBE7C04652
:1054400008290020F8B50D00832A19D1CBB2364CBB
:105450005A01A21891693548AD010840C02189055B
:1054600001439161324920686D18702108335561FC
:105470005B011A5C8A43110040220A431A54F8BDAA
:10548000022A4CD12B4A8B009858002802D003687E
:105490005B699847382001F0E7F8274B80270360C5
:1054A0000023214E7F00421D036203614361C361FB
:1054B00046608560C760D3772F320400C362036300
:1054C00013703800537003F01BFDA061380003F027
:1054D00017FD2A00A062FF200240510171188B685D
:1054E000124FAD001F40C0239B053B438B60130050
:1054F0003168072608335B015A5CB2431600032269
:1055000032435A54A368626803405B01D318A2690E
:1055100020005A60FFF756FD064B5C51AFE71100C3
:105520002800FFF79DFCAAE708290020FFFFFF8F56
:105530007C24002054240020E4D6000070B505002F
:105540000124064BA200D258002A05D021002800D1
:10555000FFF778FF0134F4E770BDC046BC020020BD
:10556000084B8A00D05810B5002803D003689B6808
:10557000984710BDC9B2044B490159188868800486
:10558000800CF6E7542400200829002010B50C00F8
:10559000FFF7E6FF00280CD0064BE4B21B68083486
:1055A00064011C19802362795B42134363710223F7
:1055B000E37110BD0829002070B5CBB2124A134820
:1055C0005C0189018918021951609168104D0833F6
:1055D0000D40802189022943402591609168890B03
:1055E0008903916001685A018A181679354315714B
:1055F00095796D06FCD55B01C918CB79DB07FCD525
:1056000000198068C0B270BD3C2600200829002027
:10561000FF3F00F070B5140040220B4B0D001B68DB
:10562000FF3359790A435A710021FFF7C5FFA042A1
:1056300000D9200000230549A34203D0CA5CEA54E4
:105640000133F9E770BDC046082900203C26002040
:1056500010B5C9B20B484901421893689B049B0CD2
:105660003F2B0BD99468403B9B04A40B9B0CA403D9
:105670002343936041188868C0B210BD93689B0BA8
:105680009B03F6E708290020F0B51C002F4B85B0DE
:105690001B6806000D000192002B54D02C4F397866
:1056A000C9B2002902D1192001F0FAFA64233B7033
:1056B000284BAA00D058002808D0036822005B6855
:1056C000019998470400200005B0F0BD2900300082
:1056D000FFF746FF844204D929003000FFF740FF5E
:1056E000040029003000FFF7B3FF0121EBB21A4F8D
:1056F00003935B010293029A3B6801989B18FF3366
:105700005A7A0A435A72154BA901C918220003F0AC
:105710001DFC002CD7D029003000FFF721FF002806
:10572000D1D14021039B3A6808335B01D318187923
:10573000014319710121D971029BD318FF339A7A61
:105740000A439A72BFE701246442BCE700290020A3
:105750007024002054240020082900203C2600202A
:1057600013B56B46DC1D22000123FFF78DFF0128D6
:1057700001D1207816BD01204042FBE7F0B51E00A4
:105780003A4B85B01B680F000192002B3FD080235D
:10579000DB019E423BD8364C2178C9B2002902D1A8
:1057A0001A2001F07DFA642300252370314BBA01E1
:1057B000D3180293002E2CD02F4B1B680393FF238A
:1057C0003B401C0000930834039B64011C19A3791F
:1057D000DB0921D0294B2A49186801F0F1FB294B3C
:1057E0001721584301F0ECFB274BE279920713D4C1
:1057F000DA5D002A01D10138F7D20122DA55009B87
:105800005A011D4B9B189A69920B92039A610125CC
:105810006D42280005B0F0BD00221B4B3400DA5564
:10582000402E00D9402422000199029803F08EFBFB
:10583000009BA1045A01104B890C9B18029A2D1948
:105840005A619A69361B920B92030A439A61009B34
:10585000039A08335B01D3180222DA715979823A2C
:105860000A435A71019B1B190193A3E700290020E9
:10587000712400207C24002008290020E40200205C
:1058800040420F00701101007324002070B50D001C
:105890001C000D4BAE01F61811003000220003F081
:1058A00055FBEDB209496D014D196E61AB69084AAE
:1058B00020001340AB61AB69A2049B0B920C9B03CD
:1058C0001343AB6170BDC0467C2400200829002032
:1058D000FF3F00F0F7B5104B01901B780F0015004B
:1058E000002B0CD10D4B16001C78002C09D00C4E4F
:1058F0000C4834882018641903F028FB34802800F1
:10590000FEBD002EFBD03A19330000210198FFF7AD
:10591000BDFF2418361AF4E7FC270020FD280020DC
:10592000FE280020FD270020F8B5002000AF0E0063
:105930001500012A27D9D31D6A46DB08DB00D31ADC
:105940009D46080004F0D4F96C460323022200218E
:105950000130400020706370AA420DD230780028D8
:105960000AD0531CDBB20136A0549D4203D0023250
:10597000E154D2B2F0E72A0021000448FFF7AAFF61
:10598000431E9841C0B2BD46F8BDC0465024002019
:10599000F0B50024012685B0184B0F0069461E7033
:1059A00005000094FFF730FC154B01A90B806A3B02
:1059B000FF3BCB716E3B0B72009B8C7109334B80AC
:1059C0000E4B4E7108711C703A00092F0FD00D4F0D
:1059D00009223E700C4E280000943480FFF77AFFB5
:1059E00069462800FFF710FC328808493C702800FF
:1059F000FFF770FF012005B0F0BDC046FC27002076
:105A000009020000FD280020FE280020FD270020BC
:105A1000F0B5CF7893B005000E00022F09D1C988E8
:105A20002B48FFF7B5FF441EA041C4B2200013B0BD
:105A3000F0BD01F059FA310001F036FA002803D028
:105A4000C417241AE40FF1E7012F0BD1F288214982
:105A5000112A11D8D2B2002A0ED02800FFF73AFF3F
:105A60000124E3E70400032FE0D1B378002B05D134
:105A7000F2881949032AEDD90A78EEE7022B06D1FC
:105A8000B27916492800FFF74FFF0400CEE7012B3B
:105A900002D1B2791249F5E7032BC7D1114B01A905
:105AA0001868FFF7B8F9104B03A91868FFF7B3F9A6
:105AB0000E4B05A91868FFF7AEF90D4B07A918683A
:105AC000FFF7A9F96B460533DC77B27901A9D9E76D
:105AD0005024002015D7000008D70000FCD6000095
