:1000000000800020CD6A0000DD690000B56A0000B4
:1000100000000000000000000000000000000000E0
:10002000000000000000000000000000B56A0000B1
:100030000000000000000000B56A0000216B000015
:10004000B56A0000B56A0000B56A0000CD46000040
:10005000A1690000B56A00005D380000B96A0000BF
:10006000B56A00005D480000B56A0000B56A00008E
:100070002D2C0000B56A00006D480000B56A000034
:10008000B56A0000B56A0000B56A0000B56A0000F4
:10009000F1510000B56A0000B56A00009946000001
:1000A000B56A0000B56A0000B56A0000B56A0000D4
:1000B0000000000010B5064C2378002B07D1054B3B
:1000C000002B02D0044800E000BF0123237010BDC4
:1000D000F004002000000000E4E40000044B10B530
:1000E000002B03D00349044800E000BF10BDC04608
:1000F00000000000F4040020E4E400000122014BB1
:100100001A707047B310002010B5002900D00530D8
:10011000782811DD7820DD2346215B0032385843F2
:10012000494207F0BFFAEA30054BFF3081B25980EF
:100130000E2006F087FF10BD3228ECDA3220EAE705
:100140000C050020EE23002230B51049104C9B0016
:10015000C858104DA544AC5A023200192A2AFAD1C7
:10016000EF22C850920001A809F04AFA0A4C200078
:100170006269216904F0F4F920006369216901AA28
:1001800004F0A2F9F1239B009D4430BDD81000205B
:100190003CFCFFFF46110020BC10002010B5438836
:1001A00004888B4215D20179104B5B1AA34200DD03
:1001B00023005B1803800188C2880023914205D385
:1001C0004379994200D31300038001230372007A1C
:1001D00010BD42791300A24206D80179034B5B1A85
:1001E000A34200DD23009BB29B1AE3E7FFFF000060
:1001F000F7B5040001910C20144902F02BFD0C20EE
:1002000006F042FE230022000026163308320021A9
:100210005D5E023BAE199D8036B29342F7D108274E
:100220000025019806F09AFE013F45192DB2002FD6
:10023000F7D10723E81718404519ED10AD19EE174F
:100240001E407619F610B0B26681FEBD07080000A8
:1002500010B5084C01233C220221200003F0B4FF1A
:10026000200003F03DFF200004F09AF8024B636188
:1002700010BDC0465805002001000100F0B5324D08
:1002800085B02800002403F02BFF20270826012337
:10029000220021002800029303942C4B0197009622
:1002A00002F0E5FE012322003100280002930394AE
:1002B000274B0197009602F0DAFE01232200280066
:1002C00002931021234B03940197009602F0CFFE76
:1002D000012322002800029318211F4B0394019749
:1002E000009602F0C4FE0123220039002800029388
:1002F00003941A4B0197009602F0B9FE01232200E5
:10030000280002932821164B03940197009602F0CF
:10031000AEFE01232200280002933021114B0394EA
:100320000197009602F0A3FE012322003821280045
:10033000029303940C4B0197009602F098FE28005C
:1003400004F02EF805B0F0BD58050020100500207F
:10035000460000206A0000208E000020B20000202D
:10036000D6000020FA0000203405002010B5044C0F
:10037000200003F0B5FE200004F012F810BDC046C6
:100380005805002010B50C4C200003F0A9FE2000F9
:10039000022103F078F8002320002361074904F0CC
:1003A000E0FA80235B0306492361200004F0D9FAB8
:1003B000200003F0F5FF10BD5805002038C50000EF
:1003C0003DC5000010B50C4C200003F089FE022151
:1003D000200003F058F8002308492361200004F0AE
:1003E000C0FA80235B0320000549236104F0B9FAB9
:1003F000200003F0D5FFC0465805002041C500008D
:1004000045C500007FB5802676030025174C2000E7
:1004100003F066FE2000022103F035F820001449A5
:10042000256104F09EFA13492000266104F099FA30
:10043000200003F0B5FF104806F0B6FB200003F0E3
:100440004FFE012303931F33019320332A00290019
:10045000200000930295094B02F0AEFD200003F04E
:100460009FFF054806F0A0FBCFE7C04658050020D7
:100470004AC5000045C50000EE02000034C9000076
:10048000F0B50E00002591B00190AE4229DD164C6A
:10049000200003F025FE0221200002F0F4FF0923D2
:1004A000124F2A002361390003A809F0B3FF03A902
:1004B000200004F056FA0E4B019A23616B00D25AC9
:1004C000390003A809F0A6FF03A9200004F049FAA7
:1004D000200003F065FF4E20FF3006F065FB01357C
:1004E000D3E711B0F0BDC0465805002050C500004C
:1004F00009001000974AF8B5116801230800184058
:10050000194202D1944913608870944A01231168FA
:1005100008001840194202D1914913608870914A2D
:100520000123116808001840194202D18E49136056
:1005300088708E4A0123116808001840194202D1C0
:100540008B49136088708B4A01231168080018409A
:10055000194202D1884913608870884A01231168C2
:1005600008001840194202D1854913608870854DF2
:100570002F78002F23D00021774802F0A5F90B2413
:10058000002801D000232B707F4D2E78002E5BD0E9
:100590000021734802F098F9002801D000232B7045
:1005A0007A4D2E78002E00D193E000216E4802F0A3
:1005B0008BF9002801D000232B702000F8BD032008
:1005C00006F082FE03005A1E9341714A714E137069
:1005D000002821D13178664C00290BD032215E48A9
:1005E00002F064F9012320006B492B7002F05EF9E0
:1005F0000B240DE0200002F067F90028F8D0FA2162
:100600000122664B200049001A70042402F04EF9C2
:100610005F4B1B783370B7E73378614C002B07D101
:1006200032214D4802F042F901232B702370DFE79D
:100630002378002BDCD0594B27701A780924002A24
:10064000E6D01F700234E3E7042006F03DFE03000D
:100650005A1E9341534A1370534B002821D11978E5
:10066000454E00290ED032213D4802F01FF90123EA
:10067000300049492B7002F019F94A4B4A4A1B785D
:1006800013708DE7300002F01FF90028F5D0FA2131
:100690000122464B300049001A70052402F006F989
:1006A000EBE71B78424F002B07D132212C4802F098
:1006B000FDF801232B703B70DFE73B78002BDCD08B
:1006C0003A4B3E701A78002A01D01E70D5E70A24F2
:1006D000D3E7072006F0F8FD03005A1E9341354A80
:1006E0001370354B00281DD11978254E00290ED0E6
:1006F00032211D4802F0DAF8012327492B7030001F
:1007000002F0D4F82B4B2C4A1B78137055E73000BD
:1007100002F0DAF80028F5D00124FA21274B49002D
:100720001C70ECE71B78264F002B07D132210E48B6
:1007300002F0BCF801232B703B70E3E73B78002B01
:10074000E0D01E4B3E701A78002A01D01E70D9E707
:100750000624D7E7E80E002032100020F00E00201B
:100760003C100020F80E002046100020EC0E002067
:1007700036100020F40E002042100020FC0E002055
:100780004C1000202E1000203010002031100020CE
:100790001E010020210100201A0400003A10002050
:1007A0002C1000201F0100202201002040100020FA
:1007B0002D10002020010020230100204A100020DD
:1007C0002F100020F8B5242706260C2502242F4BD5
:1007D00008001980012106F01BFD3A002C492D4824
:1007E00008F00EFF2C4B3A002C492D481E8008F0D3
:1007F00007FF2C4B2A002C492C481E8008F000FFD4
:100800002B4B2A002B492C481C8008F0F9FE2B4B5F
:100810002A002B492B481C8008F0F2FE2A4B2A00A4
:100820002A492B48AD191C8008F0EAFE294B2A0002
:1008300029492A481C8008F0E3FE294B2A0001348C
:10084000284929481C8008F0DBFE284B2A0028494B
:1008500028481C8008F0D4FE274B36222749284818
:100860001C8008F0CDFE0922264B27491A80274814
:100870003A0008F0C5FE264B1822264926481E805D
:1008800008F0BEFE0422254B1A80F8BD440000206B
:10089000A0CA0000560D00200C1500204CCA000014
:1008A000A60800200015002040CA00001E0E0020EF
:1008B0000E15002094CA0000DE070020FE14002060
:1008C00034CA00008E0C00200A15002088CA0000DF
:1008D000C60B002008150020C4CA000086050020B1
:1008E000F814002000CF00004E060020FA1400206B
:1008F0006CCF000016070020FC14002012CF00006F
:10090000360A00200415002048CF0000FE0A00200F
:100910000615002070CA00006E0900200215002094
:1009200010B5012907D1C8222F4908F069FE2F4BC5
:100930001B88180010BD022905D1C8222C4908F0D7
:100940005FFE2C4BF4E7032905D1C8222A4908F0A1
:1009500057FE2A4BECE7042905D1C822284908F0A4
:100960004FFE284BE4E7052905D1C822264908F0A7
:1009700047FE264BDCE7062905D1C822244908F0AA
:100980003FFE244BD4E7072905D1C822224908F0AD
:1009900037FE224BCCE7082905D1C822204908F0B0
:1009A0002FFE204BC4E7092905D1C8221E4908F0B3
:1009B00027FE1E4BBCE70A2905D1C8221C4908F0B6
:1009C0001FFE1C4BB4E70B2905D1C8221A4908F0B9
:1009D00017FE1A4BACE700230C29AAD1C8221849EC
:1009E00008F00EFE174BA3E7560D00200C15002053
:1009F000A6080020001500201E0E00200E15002065
:100A0000DE070020FE1400208E0C00200A150020B6
:100A1000C60B00200815002086050020F8140020D1
:100A20004E060020FA14002016070020FC140020B7
:100A3000360A002004150020FE0A002006150020BA
:100A40006E09002002150020F0B50400244F254E49
:100A5000B5B000223900300003F09EFFA1B202A819
:100A6000FFF75EFF390002000500300003F094FF3D
:100A70000A211D4801F01AFF00240321200006F07E
:100A800087FD80B2A84228D22B00220030001749EF
:100A900003F082FF144F0021380001F015FF0028F9
:100AA000F8D0631C5B000193019A02ABD25A02A9F1
:100AB0006300595A0E4B188804F0CCFAA31C02AA02
:100AC0005B00995A1300019A3800D35A0334C918AD
:100AD00089B201F0EBFEA4B2CFE735B0F0BDC0465D
:100AE00055C50000202100202415002066C5000007
:100AF00044000020F0B5794C794EA544300073696C
:100B0000316903AA03F03EFDEF22764C92002000EB
:100B100003A908F075FD207C657C00284CD1002DD0
:100B200046D1714F7149380003F02CFF38007049ED
:100B300003F017FF01232A00A37023826D4B656029
:100B4000A560E5605A5302358E2DFBD100231900B4
:100B500069481A18023311802A2BFAD12100002289
:100B6000238802334D8A01325B190231472AF9D1B9
:100B7000EE2200219200A350455A02315B192A2926
:100B8000FAD1A350EF222100920003A808F038FD0B
:100B900030007269316903F0E3FC30007369316938
:100BA00003AA03F091FC3800544903F0EBFE012046
:100BB000F3239B009D44F0BD00208542F8D1260020
:100BC000494D4F49280003F0DDFE4E49280003F04F
:100BD000D9FE0A222188280003F039FF0A22A178D1
:100BE000280003F04AFF0A22A188280003F02FFF03
:100BF0000A22E188280003F02AFF0A22218928001E
:100C000003F025FF0A226189280003F020FF0A2251
:100C1000A189280003F01BFF0A22E189280003F0C4
:100C200016FF0A22217C280003F011FF0A22280067
:100C3000617C03F00CFF0194718A0A22280003F002
:100C400002FF314F2800390003F08BFE2F4B023694
:100C50009E42F1D1280003F08DFE0026264B0A2289
:100C6000995B280003F0EFFE02363900280003F0FC
:100C700078FE2A2EF2D1280003F07CFE0023208883
:100C8000A6788619A0888019E68830182689361833
:100C900060898619A0898019E6893018267C361863
:100CA000607C8619019A0133528AB618019A023281
:100CB0000192472BF6D100230F4AD25A0233B618BD
:100CC0002A2BF9D12800124903F05CFEEE239B0089
:100CD000E058801B46427041C0B269E734FCFFFF18
:100CE000BC100020D8100020202100206DC500007D
:100CF00084C50000EA1000204611002095C50000C0
:100D0000A2C50000B7C50000C8C5000066110020DC
:100D1000CAC5000000B5042808D806F02FFC030857
:100D20000D121700104AD3880133D38000BD0E4A3C
:100D3000138901331381F9E70B4A53890133538136
:100D4000F4E7094A938901339381EFE7074A13686F
:100D5000013313600A2BE9D103498B8801338B805F
:100D600000231360E2E7C046D81000205410002092
:100D700010B5114A9178138810005B1891885B18A0
:100D8000D1885B1811895B1851895B1891895B18B0
:100D9000D1895B18117C5B18517C5B180021448A57
:100DA00001311B1902304729F9D1EE218900535036
:100DB000FFF7C8F910BDC046D8100020F0B585B0C7
:100DC00001910400C825C9261649174802920393C9
:100DD00003F0D8FD0022154B15486D007600CA219E
:100DE0008C465F889C4461461F801F000988C83775
:100DF000398096219F5B89005F531F5A01325F52F1
:100E00000233632AEBD10B4BFB329C5201990A4A05
:100E100099520299094A9952094A0399995205B07F
:100E2000F0BDC046E8C50000202100207011002060
:100E30005A020000D810002026020000EE02000036
:100E4000B603000070B5354C3548A5440DAC436978
:100E50000169220003F096FBEF22324D21002800A9
:100E6000920008F0CDFB2B882F482380AB7863805D
:100E70006B680E93AB680F93EB6810932B7C238207
:100E80006B7C63820023C15AE21802339182C82B23
:100E9000F9D10023254844AAC15AD1520233C82BA4
:100EA000FAD10023224876AAC15AD1520233C82B64
:100EB000FAD100231F48A8AAC15AD1520233C82B25
:100EC000FAD100231C48DAAAC15AD15202335C2B52
:100ED000FAD100231948F1AAC15AD15202332A2B60
:100EE000FAD100256B00E25A1549684609F092FADA
:100EF000144E6946300003F034FDDE230135FF3324
:100F00009D42EFD1300003F035FD29002000FFF7AE
:100F1000B7FAFC239B009D4470BDC04610FCFFFF48
:100F2000BC100020D81000207011002038120020C2
:100F300000130020C8130020EA10002046110020F2
:100F4000F3C500002021002070470000F7B50E0017
:100F5000019025490C20150001F07CFE0C2005F0C5
:100F600093FF08270024019805F0F8FF013F0419BA
:100F700024B2002FF7D10723E017184004191B48AB
:100F8000E4106043C4172405240D2418F3332413FC
:100F90005C43174B9C4211DD164B9C421EDC962194
:100FA000200006F07FFB072213494318D817104092
:100FB000C018124BC01000B29C4207DC012309206C
:100FC0002B703370FFF740FDFFF71CFA0C4B9C426F
:100FD00005DC01232F703370FFF7F4F96420002340
:100FE00033702B70FEBDC04607080000B80B000030
:100FF0007D890700076709001CF3FFFFB7A90700F9
:1010000097D80700F8B50021B848002403F04CF841
:10101000EF22B74B92009C70B649B74803F03CFAF8
:10102000B64BB74F9C703800B64905F02FFDB64E51
:10103000B64D32002900380006F098FAB44FB54991
:10104000380005F023FD32002900380006F08EFA42
:10105000B14FB249380005F019FD320029003800BF
:1010600006F084FAAE4FAF49380005F00FFD3200AC
:101070002900380006F07AFAAB4FAC49380005F089
:1010800005FD32002900380006F070FAA84FA94982
:10109000380005F0FBFC32002900380006F066FA43
:1010A000A54FA649380005F0F1FC320029003800B0
:1010B00006F05CFAA24FA349380005F0E7FC3200C5
:1010C0002900380006F052FA9F4FA049380005F079
:1010D000DDFC32002900380006F048FA9C4F9D499B
:1010E000380005F0D3FC32002900380006F03EFA43
:1010F000994F9849380005F0C9FC320029003800A2
:1011000006F034FA954F9649380005F0BFFC3200DE
:101110002900380006F02AFA924F9349380005F06A
:10112000B5FC32002900380006F020FA8F4F9049B4
:10113000380005F0ABFC32002900380006F016FA42
:101140008C4F8D49380005F0A1FC32002900380091
:1011500006F00CFA894F8A49380005F097FC3200F6
:101160002900380006F002FA864F8749380005F05A
:101170008DFC32002900380006F0F8F9834F8449CD
:10118000380005F083FC32002900380006F0EEF943
:10119000804F8149380005F079FC32002900380081
:1011A00006F0E4F97D4F7E49380005F06FFC32000F
:1011B0002900380006F0DAF97A4F7B49380005F04B
:1011C00065FC32002900380006F0D0F9774F7849E5
:1011D000380005F05BFC32002900380006F0C6F943
:1011E000744F7549380005F051FC32002900380071
:1011F00006F0BCF9714F7249380005F047FC320027
:101200002900380006F0B2F96E4F6F49380005F03A
:101210003DFC32002900380006F0A8F93222FA21FC
:101220006A4B6B485A80D8329A80A63A1C80DA8082
:10123000684B694A890059801C809A80D880674B26
:1012400067481C805880FA20C0009A80D880654B7F
:101250000B2059801C809A80D980634B63499A8007
:10126000FA225200624FDA8059801C80614B38802C
:101270009C70012105F0CCFF0023F85E210005F0F1
:10128000F7FF5D4B9C705D4B9C705D4B9C705D4BA4
:101290009C705D4B9C705D4B9C705D4B9C705D4B7E
:1012A0009C705D4B9C705D4B9C705D4B9C705D4B6E
:1012B0009C705D4B9C705D4B9C705D4B9C705D4B5E
:1012C0009C705D4B5D499C705D4B9C705D4B9C7050
:1012D0005D4B9C705D4B9C705D4C200005F0D6FB17
:1012E00032002900200006F041F9F8BD5805002021
:1012F0002415002000CB0000BC100020D0140020DA
:10130000540F0020FBC5000000000020FD69000014
:10131000D80F0020FFC50000CC0F002008C6000039
:10132000A80F002010C60000840F00201AC600007D
:10133000B40F002023C60000900F00202DC600002F
:101340006C0F002036C60000480F002040C6000089
:10135000F00F002049C60000E40F002020100020FC
:1013600054C600001410002061C6000008100020C0
:101370006DC60000FC0F002079C600000C0F002095
:1013800084C60000000F00208CC600003C0F002027
:1013900093C60000180F00209CC60000240F0020F8
:1013A000A6C60000300F0020B2C60000600F00206B
:1013B000BAC60000780F0020C3C600009C0F0020B2
:1013C000CDC60000C00F0020D8C60000601000206D
:1013D000DC050000961400200A0A0000B01400206A
:1013E000881300006C150020DC140020B80B0000EE
:1013F0000C05002038150020CA1400202C150020F0
:1014000064150020541500203015002058150020C8
:10141000681500204C1500204015002034150020D0
:1014200044150020A0100020601500204815002061
:101430003C1500205C1500205015002072E00000D3
:1014400020150020A41000205A100020281500208C
:101450009410002073B51B4C06000421200002F0FC
:1014600012F8194B002163611C230A00200001912E
:101470000093243301F0C2FC0A21300006F012F977
:101480000A2501B26D424D430F23AD19632E00DDD5
:101490000E4B23610A22200003F0D5FA01230193A9
:1014A0000233200000931922262101F0A7FC2C23EF
:1014B00029000A222361200003F0C5FA200002F06F
:1014C0006FFF73BD5805002001000100FCFF000004
:1014D000F0B5334C060085B0200002F001FE642513
:1014E000642E02DCF543ED1735400321200001F0A6
:1014F000CAFF2C4B002163611C230A0000932000CB
:101500000191243301F07AFC092E3EDC264B2900A0
:1015100023610A22200003F096FA002601272023E7
:101520000822200001930092322132001F4B0396C3
:10153000029701F09CFD20230822200001930092D5
:101540003A2132001A4B0396029701F090FD1223C4
:1015500000930C3B1A0020003621019701F04EFC4D
:101560000A20372168434942019606F09BF806237A
:10157000123000B21A0036210090200001F03EFC2B
:10158000200002F00DFF05B0F0BD132E01DC094B69
:10159000BDE7632E01DC084BB9E78023DB02B6E729
:1015A00058050020010001001F0004000400002075
:1015B00024000020120004000D000400F7B51B4EAB
:1015C000002810DC002301932033300000931E22FA
:1015D0000421203301F012FC300002F0E1FE300063
:1015E00002F0DEFEF7BD041C282800DD28240025BB
:1015F000012724B20723ADB2A900013500931E22B2
:10160000300009B20197053B2DB201F0F7FBAC4267
:10161000F0DA00230134A4000193123300931E2258
:10162000300021B22E3301F0E9FBD8E75805002045
:1016300010B50C4C0022A35E834200DA20801921F1
:10164000094801F041F900280AD00023E05EA621F4
:10165000533006F027F800B2FFF7B0FF00232380D5
:1016600010BDC04650100020D0140020012307B543
:101670000193063300931E2200210248053B01F02E
:10168000BDFB07BD5805002007B5011E02D0FFF7BE
:10169000EDFF07BD0723019000931E220248053B82
:1016A00001F0ACFBF5E7C04658050020E121F0B59C
:1016B000B64F87B03800090204F040FEB449380044
:1016C00003F060F90221072005F0A2FD02210320AA
:1016D00005F09EFD0221042005F09AFD01210D2058
:1016E00005F096FD0121080005F092FDA94801F0E2
:1016F00061F901210D2005F0BBFD0121080005F075
:10170000B7FDA54B11201988FFF75CF8FEF7A0FD87
:10171000FFF7F0F9A149002803D10122A04BA1490C
:101720001A70380003F02EF913209F4A9F49FFF7E3
:101730000DFC00249E4D28802000FFF7C9FE2100EB
:10174000C82005F0AFFF05F02FFA2B880134A34223
:10175000F2DA984A9849D3890B80002B02D13233B0
:10176000D3810B800320FFF76FF9FA20800005F08A
:101770001BFAFEF7FBFD05F0E7F964258F4B904A55
:1017800018608D4B8F4C1B880F216B439B188E4A22
:1017900020005380FEF72CFD04218C4EFF31704356
:1017A0000013684305F07EFF894B1221188086489C
:1017B000FEF71EFDC9232721584305F073FFFA21C8
:1017C0007043844B00131880814B80B21D888900C0
:1017D000684305F067FF804B290018802000FEF762
:1017E000DDFC00282FD001227C4B1A707C4B00249A
:1017F0001C5F022C00D089E07A4B7B4C1B78002BBD
:1018000027D101232370794B794E1B78794D002B1A
:1018100026D1012333702B78002B2FD12378002B76
:1018200045D001236149604A13202B70FFF78EFBDE
:101830005F4B80B21880FFF74BFEFA216E4889009B
:1018400001F034F833E02388002BCFD1634A1370C2
:10185000CCE72378002BD6D10120FFF7F5F8D0E7AD
:1018600031780029D7D1654801F02EF80028D0D171
:1018700032782B78002ACED1002B18D05E4D002173
:10188000280001F021F8002806D15D4B00229B5E64
:10189000012B0CD15B4B36E05A4C2378002B31D016
:1018A000FA212800890001F001F8002323704C4D33
:1018B000554C0023EE5E022E01D000F0F1FD534A9C
:1018C0001378002B01D100F08DFE04232B80002320
:1018D0004F491370444A0B7045491370454A0B70C9
:1018E00038004C491370237003F056F801224A4B1C
:1018F0004A494B481A7000F0D9FFFA21494889003B
:1019000000F00EFF414B01221A70D0E7002C00D1ED
:1019100092E0042C00D0EFE2244C2178002919D168
:10192000404800F0D1FF002814D001253E4B210093
:1019300013201D4A1D70FFF709FB1D4B80B2188054
:101940002378002B06D0FFF7C3FD384805F02CF9AB
:10195000314B1D702A4B324C00229B5E0B2B00D06A
:10196000BFE10021200000F0AFFF002800D1B2E06D
:101970002F4A138801331BB213801E2B00D0ABE11A
:1019800001212C4B1970002360E1C046202100206A
:10199000E4C60000881500204400002008C70000AD
:1019A000AF100020EDC60000B0100020B4100020E1
:1019B0007A100020D81000203401002014150020D7
:1019C00030F8FFFF601000206C150020B80B0000FD
:1019D000D4140020DA140020D6140020951400201E
:1019E00030010020A9100020B9100020280100209B
:1019F000B5100020AE100020301500204815002042
:101A000024010020AC10002012150020BB10002083
:101A10008615002029C8000036010020307500001E
:101A20004015002058150020BA100020EE020000DA
:101A300088100020B7100020CD4BCE4D198828000B
:101A4000FEF7ACFB002810D0CB4A138801331BB241
:101A50001380062B61D10122C84B03201A70C84B9A
:101A600013321A80FFF756F92C80C64D2C78002CC3
:101A70005DD121003220FEF747FB21000D2005F04B
:101A8000F7FB322005F090F8322630000021FEF7F7
:101A90003BFB0736142005F087F8782EF5D10A2491
:101AA0000596B94E0A2133880493049A059B981A27
:101AB00005F0F8FD6043049B0021C018FEF724FBED
:101AC000062005F071F8013CEBD200213088FEF7CA
:101AD0001BFB01232B70AD4BAB4C00269E5FAC4D26
:101AE0000B2E00D005E10021AA4800F0EDFE0028F1
:101AF00000D128E1012300222B70A74B1A80A74BAD
:101B00000020185E002801D0FEF79EFF0023E05E53
:101B1000FFF7A0FC00232B7019E16421A04800F01E
:101B2000C5FE01229F4B1A709F4B2B809DE7FA2127
:101B30009E48890000F0C8FE00282AD09C4C2368EB
:101B4000013323603C2B0DD18F4B00229A5E994BC1
:101B50000021595E984B0020185E0023FFF72EF9F4
:101B600000232360132005F0F9F94643FA20360BD1
:101B70009621704305F00CFD904C82B22080904974
:101B8000380002F009FF8F4B22889A4201D8FEF7F5
:101B900019FC8D4C2678002E00D08EE0744B8B4DB6
:101BA00019882800FEF7FAFA00280FD0884A13880F
:101BB00001331BB21380062B4AD1012010226F4B38
:101BC00018706F4B1A80FFF7A5F82E807A4B814C66
:101BD00019882000FEF7E2FA002811D07E4A138807
:101BE00001331BB21380062B3DD10122634B002031
:101BF0001A70634B10321A80FFF78CF80023238091
:101C0000764B77481988FEF7C9FA002800D062E7BA
:101C1000734B1B88002B00D05DE7724A1388013399
:101C20001BB21380062B32D10122544B02301A70A2
:101C3000534B11321A80FFF76DF8694B6A49DA8805
:101C4000131C8A4201D9694B1B88654A138042E7FD
:101C50006421534800F02AFE0123524A2370137076
:101C6000514A2A80B2E75A4B380000229A5E6049F6
:101C700002F092FE64214A4800F018FE0122494B0E
:101C80001A70E388D34023804F4B1A70B8E7504B4B
:101C9000380000229A5E574902F07EFE64214048D7
:101CA00000F004FE01223F4B4D491A704C4BDB887B
:101CB000D3400B80444B1A700DE73A4B1B78002B36
:101CC00000D108E70021364800F0FEFD002800D1D1
:101CD00001E700232370FEE62000474900F0E6FDFF
:101CE000F9E62000444900F0E1FD0022434B1A8050
:101CF000F1E60022294B1A80012E00D0BEE0380008
:101D00003F4902F049FEFA21234B234A1B88214810
:101D100001338900138000F0C9FD1F4B1B88012B84
:101D200074D1384B1B78002B1FD0224B1888FFF73B
:101D3000CFFB2288131C782A00D978239AB2322A42
:101D400000D2322323802B78002B00D0D7E61A4A0A
:101D50002D4913880A339BB28B4200D1CAE013800D
:101D60000023D05EFFF764FCA1E50B4A1380E0E797
:101D7000D4140020DC140020F6140020B110002040
:101D8000AA1000205E100020340100202401002051
:101D9000360100205C1500207C100020101500206A
:101DA000CA140020CE140020EE02000020150020EE
:101DB000841000207A100020D6140020D8140020AF
:101DC00023C70000E40C00009414002096140020A7
:101DD00080100020B014002084050020DA140020B8
:101DE0006C150020E60E0020FEFF000032C9000046
:101DF0002CC7000034C70000307500008810002098
:101E00003DC70000BA100020C40900009A1E022A33
:101E10002BD8C74E300002F063F910230221336142
:101E2000300001F030FBC349300002F09AFD8023FE
:101E30005B0333610221300001F025FBBE4B1B88A0
:101E4000032B0BD0042B0ED0BC49022B07D0300043
:101E500002F0A6FA0320FEF7F7FD6AE7B849300062
:101E600002F07FFDF3E7B749F9E7052B00D060E703
:101E70000022B54B1E70B04B1A805AE7042E0FD1CA
:101E80003800B24902F088FD2388772B00D950E74B
:101E90000A3323800323AE4A1380023B2B7048E7AA
:101EA000092E09D13800AB4902F076FD2388772B43
:101EB00000D93EE70133ECE7052E0ED13800A649E4
:101EC00002F06AFD2388322B00D832E70A3B2380D8
:101ED00004239F4A1380033BE0E70A2E00D028E743
:101EE00038009E4902F058FD2388322B00D820E7A5
:101EF000013BECE7002332E7012C00D0FFE1984BD7
:101F0000984D1A78002A02D000222C701A70964B35
:101F10001B78002B32D101232B70FEF727FA934B4D
:101F2000934C1B78002B35D1012323702B78914DD6
:101F3000002B0CD02B88012B09D12378002B06D045
:101F4000962100238C4889002B8000F0AFFC2C8860
:101F5000002C29D1884E2100300000F0B5FC00286B
:101F600000D192E4854B1B78002B1AD096213000CB
:101F7000890000F09BFC814B1C7098E42C78002CAD
:101F8000CDD1FEF7FFF921007D4800F09DFC00282F
:101F9000C5D0C0E72378002BC8D10220FEF754FD3E
:101FA000C2E702232B8082E4022C00D07FE4754E2E
:101FB000754D3378002B29D02B78002B01D00023CE
:101FC0002B70FEF7D5FE0021012005F051F96F4C72
:101FD000032307216E4A200002F032FB200002F0AA
:101FE00005FB072004F09CFC0121080005F040F9E6
:101FF0002B78002B00D15AE400230122AF2133704B
:10200000644B65481A808900FFF71AFC2B78002B77
:1020100000D14CE4072005F057F900280DD000212D
:102020005D4800F051FC002800D15DE101235B49CF
:102030003370380002F0A6FC39E4042005F044F9BE
:102040000028ECD1564D2E78002E64D00125049442
:10205000534B1B78002B00D129E40024FEF7F8F83D
:102060005049380002F08EFC314E300002F038F852
:10207000049B220021003000029301945923009513
:1020800001F078F9049B220034213000029301947E
:102090004E23009501F06EF9300002F081F9424BB9
:1020A0001D70072005F010F90028FAD0042005F073
:1020B0000BF90028F5D0032005F006F90028F0D030
:1020C000394E33780593002B00D1CEE0FEF712FA9B
:1020D000364B174C1880092802D0042800D083E022
:1020E0000026049B10223100200002930196330049
:1020F000009501F03FF9049B10220293342118232C
:1021000020000196009501F035F9294B1D80084803
:1021100002F046F9D4E71F4C2188012950D1254906
:10212000380002F02FFC244924482680FFF788FB62
:10213000580500203CC600007C1000204EC700005F
:1021400050C7000055C70000B71000205BC7000053
:102150001015002068C7000071C7000080C700008C
:1021600032010020B610002027010020A810002016
:10217000B81000202C01002068150020AC100020B1
:102180003C1500202E010020B3100020181E002056
:10219000FD0000002A0100204C150020F9C70000B6
:1021A000AD100020ABC70000581000202401002013
:1021B0007E1000208BC70000881300002815002027
:1021C000002901D0FFF773FBDA4800F07DFB0028FF
:1021D00001D1FFF76CFB3800D74902F0D3FB012394
:1021E0002B702380FFF763FB0A2801D0052818D144
:1021F0000026049B10223100200002930196182330
:10220000009501F0B7F8049B1022029334213300AB
:1022100020000196009501F0ADF8C84B049A1A8091
:1022200075E7062802D0012800D070E7C34B1B8851
:10223000022B06D10023C249C248337002F0A2FB30
:1022400065E7012B00D062E70023BF4ABF49BD48C4
:102250003370137002F096FB200001F041FFAF21B4
:10226000BB48890000F022FB51E7B74B1B78002BDD
:1022700000D1EDE6B34EB749300002F083FBFEF724
:10228000E1FDB54C200001F02BFF059B20002361F0
:10229000B24902F066FB80235B032361B049200052
:1022A00002F05FFB200002F07BF8FA20C00004F08F
:1022B0007BFC200001F014FF059A20002261A9494F
:1022C00002F04FFB80235B032361A749200002F04B
:1022D00048FB200002F064F89B4B059A3000A349AC
:1022E0001A7002F04FFBB3E6A14B00229B5E012B5C
:1022F00001D0FFF7DCFA9F4A9F49137099E6032C3F
:1023000001D0FFF7D4FA9D4E3378002B3DD18025C4
:102310009B4B914C18882D031038042800D9A9E054
:1023200005F02CF940035A748E00200001F0D8FE0D
:1023300002212000256101F0A6F89249200002F058
:1023400010FB200002F02CF88F4B00229A5E8F4B7E
:102350000021595E8E4B0020185E1123FEF72EFDE2
:1023600000218C4800F0B0FA8B4C002804D0FA21F0
:102370002000890000F09AFA0021200000F0A4FA61
:10238000002800D186E0012333700023834A1370B4
:10239000834A1380834A1380834A1380FEF7E8FC44
:1023A000FFF785FA200001F09BFE02212000256145
:1023B00001F069F87D49200002F0D3FA200001F015
:1023C000EFFF714B00229A5E704B0021595E704BFB
:1023D0000020185E1023C1E7200001F081FE0221D9
:1023E0002000256101F04FF87149200002F0B9FA90
:1023F000200001F0D5FF644B00229A5E634B002160
:10240000595E634B0020185E1223A7E7200001F0FD
:1024100067FE02212000256101F035F865492000A2
:1024200002F09FFA200001F0BBFF574B00229A5E9A
:10243000564B0021595E564B0020185E13238DE742
:10244000200001F04DFE02212000256101F01BF863
:102450005949200002F085FA200001F0A1FF4A4B03
:1024600000229A5E494B0021595E494B0020185EBC
:10247000142373E7200001F033FE200002212561C0
:1024800001F001F820004D4902F06BFA200001F044
:1024900087FF65E73378002B01D1FFF708FA74E76F
:1024A000002E00D004E1324B00229B5E062B01D0AF
:1024B000012B17D104232B800023414A414913707B
:1024C000414A38002370137002F066FA0620FEF7C6
:1024D000BBFA3E493E4800F0E9F9FA213D4889003F
:1024E00000F0E4F92D4B1B78002B00D17AE0032398
:1024F0002B800025344B380037491D70257002F0C1
:102500004BFAFA211D4B490022481D7000F0CEF90C
:10251000FDF72CFF2800FFF751F80C20FEF794FA86
:10252000174B1888103804285CD805F027F8B757DF
:10253000B9BBBF00281500209BC700007E100020FB
:10254000BCC7000020210020AD100020C0C7000043
:102550004C150020C3C7000058050020D6C7000056
:10256000DBC70000DFC70000E5C70000E9C70000C7
:1025700024010020B210002001C800002601002024
:10258000AA10002009C80000340100207A100020A1
:10259000D61400203415002044150020B11000206E
:1025A0008010002084050020E60E00200EC80000E8
:1025B00013C8000018C800001DC8000023C8000090
:1025C0008615002029C80000B410002030750000D6
:1025D00040150020581500203AC8000085493800F1
:1025E00002F0DAF92278844D844B002A00D0D5E03D
:1025F00000240D2001211C7004F03AFE804B2000C5
:102600001C80804B1C80804B1C80FFF73DF8FA211A
:102610002A887E4B7E488900DA8100F055F900282F
:1026200014D0E1227B4C9200236801332360934253
:102630000CD1794D2B78002B00D1CDE038007749B3
:1026400002F0A0F900232B7000232360FDF752FF56
:10265000734B188004F078FA724C206004F074FA1E
:10266000FA21714B89001860704800F02DF900289C
:1026700007D06F4B38001A686E4901321A6002F0B9
:102680008BF96D4B22681B68D31A6C4A934201D9AF
:10269000FFF771F804F058FA2060F2E768499EE706
:1026A00068499CE73800684902F076F9674996E77F
:1026B000042E38D10022664B1A70594B00229B5EC3
:1026C000062B16D1634B1B78002B04D00920FEF794
:1026D000BBF9FDF797FE01225F4922700A705F4A3D
:1026E00038005F492B80137002F056F90520FEF781
:1026F000ABF95C490B78002B00D173E70023012272
:1027000059480B700370594823700370584B3800B8
:1027100058492A801A7002F03FF9FA215648890078
:1027200000F0C4F85EE7012E1DD1544A1378002B47
:1027300000D157E702232B8000231370504A380042
:102740001680494A4F491370484A2370137002F0AB
:1027500023F9FDF77DFD4C4B1E70FDF78FFDFA212F
:102760004A488900DCE7032E00D03BE7484B1A7843
:10277000D3B2002A00D035E704322A80364A380026
:1027800044491370237002F007F94349434800F0AD
:102790008DF801223C4B1A70FFF7AFF82E4A1278E1
:1027A000002A00D124E701221A702A88131C782AF3
:1027B0000DD9782398B22B80394B1978FDF7A4FCFA
:1027C00000210D2004F054FDFEF750FF1FE792B2E8
:1027D000322AEFD23223EDE73249380002F0D2F844
:1027E0000420FEF797FAFEF7C3FA38002E4902F0EC
:1027F000C9F829E74CC8000034010020D41000209B
:102800008010002084050020E60E0020D810002053
:102810006415002090100020AF100020F2C80000C6
:1028200024010020181500201C1500205015002040
:102830008C1000202FC70000141500208713000003
:102840005EC8000072C800008EC80000A9C8000061
:102850005E100020B010002086150020BA10002065
:10286000BEC80000B7100020B6100020B81000202D
:102870002E010020CEC800003C150020B210002020
:102880002C010020E0C8000036010020481500207F
:10289000B110002029C8000030750000401500204C
:1028A0009514002009C900001DC900000B005A1E24
:1028B000934170B505000C1E837004D004F03EF9FE
:1028C000013C2018288070BD70B5847805000E008A
:1028D000002C0AD0048804F031F9074B201A80B28A
:1028E0000024984205D94042C4B231002800FFF7C5
:1028F000DDFF200070BDC04660EA00000020704788
:10290000F8B505000E0017000024BC4208D02B6863
:10291000315D1B6828009847002801D00134F4E796
:102920002000F8BD70470300FC33196ADA69914250
:1029300003D01B6AC018007E704701204042FBE7AD
:102940000300FC33D8691B6AC01A01D50130FF307F
:1029500070470000F7B50193FA2380260025040094
:102960009B008360124B760008330F0045602900FE
:10297000009203603200183006F05EFE2300200053
:10298000FC332130DD6132001D622900FF3006F08A
:1029900053FE87239B00E3185D609D606B461B78A8
:1029A000276123756B461B79A57520006375FEBDF5
:1029B00080CF000070B5060018250C49006902F0B0
:1029C000F7FA306902F048F92B000821307D084CF5
:1029D0004343E318595604F08FFC0821707D4543AA
:1029E0006419615604F088FC70BDC046A0860100E1
:1029F00020DC000070B504000D00006902F041F910
:102A00002900206902F0D4FA206902F025F970BD8E
:102A10008A2300229B00C1540C3BC3185A609A6061
:102A2000012383757047020010B5FC325368946827
:102A30000133DBB29C4202D054680155536010BD93
:102A4000002210B5837D93420DD087239B00C418CC
:102A50006368A4680133DBB2A34204D02130FF30A5
:102A6000FFF7E1FF0122100010BD0300FC3399685D
:102A70005A68914206D09A68805C9A680132D2B254
:102A80009A60704701204042FBE700228A2370B51C
:102A90009B00827505000E00C15C006902F024F9FC
:102AA000002806D10321286902F008F90224200039
:102AB00070BD872328009B00EA1853689468213072
:102AC000FF301C1B01D50134FF34002C0ED02C69C3
:102AD000FFF7CBFFC1B2200002F044F90028E8D193
:102AE0000321286902F0EAF80324E0E7002EDED093
:102AF0000321286902F0E2F8D9E710B50121FFF7B8
:102B0000C4FF10BD10B51830FFF7AFFF10BD70B592
:102B10000400006902F046F9002814D0206902F090
:102B20004FF9002810D0206902F0BEF80321206977
:102B300002F0C4F88C239B00E558002D39D1002306
:102B4000FC34E361236270BD206902F043F9002880
:102B500009D0206902F039F9002804D0206902F078
:102B60003EF90028DFD0206902F034F9002826D190
:102B7000206902F020F90028E5D0206902F02FF941
:102B8000002837D087239B00E218536892689B1A6D
:102B900001D50133FF33FF21002B05D02000213068
:102BA000FF30FFF762FFC1B2206902F0EDF8A075B7
:102BB000C9E7236820001B699847A847BFE7206939
:102BC00002F072F82069032102F078F8206902F01F
:102BD00006F90028B7D0872300229B00E3185A602B
:102BE0009A600123A3758B239B00E3589342AAD0DC
:102BF0009847A8E72200FC32D369126A0133DBB29E
:102C00002069934206D102F046F80321206902F0C0
:102C100055F898E702F0E8F8010020001830FFF7B7
:102C200002FF206902F040F8EFE7000010B502480B
:102C3000FFF76DFF10BDC0468815002010B51523A5
:102C4000142202490248FFF785FE10BD2824002007
:102C5000881500200822074B00050905090D000D05
:102C6000D884998499880A439A805A7ED209FCD1E3
:102C70007047C046004000427047F0B515000C0098
:102C80001E0089B00EAB00229B5E0FAA1288019035
:102C900005925A1BD11752184A400292321BD11783
:102CA00052184A4003920399029A8A4205DD320083
:102CB0001E00130022002C001500B44205DD2A007E
:102CC0001D001300220034001600321B91B2069141
:102CD000591BC8170918414012B20791D10F8A1821
:102CE00052100092012204929D4202DB01235B42BA
:102CF0000493B44222DC019B039A1B689B691F006A
:102D0000029B934216DD22002900059B0198B847DB
:102D1000009B079A9A1A11B293B20091120406D539
:102D2000049AAD18069A2DB2D3181BB20093013441
:102D300024B2DEE72A002100059BE7E709B0F0BDD9
:102D4000704710B504682469A04710BD37B506ACBC
:102D5000258804680095A46BA04737BD37B506AC3D
:102D6000258804680095E46BA04737BD73B506ACB1
:102D70000025655F07AC2688046801960095246CE1
:102D8000A04773BDF0B5160004000D0085B0039395
:102D90000AAB1F8803685B699847039B2268013B65
:102DA0009B191BB2009301972B0029002000976A02
:102DB0003200B84723682000DB6A984705B0F0BDB1
:102DC000F0B505001C000E00170085B00AAB1B888B
:102DD000013C03930368A4195B69984703992A6827
:102DE000019100973100280023B2946A3A00A0476D
:102DF0002B682800DB6A984705B0F0BDF0B50E00DF
:102E000087B003930CAB029200229B5E04000493F4
:102E10000DAB1B883500059303685B699847039ADF
:102E20002368B21895420BDA059A290000921B6AB2
:102E300020001F00029A049B0135B8472DB2EEE72F
:102E40002000DB6A984707B0F0BD13B501910E244E
:102E5000015F0C22835E02680091146C0022110055
:102E6000A04713BDF0B5040015000E0087B0049311
:102E70000CAB00229B5E05930DAB1B88039303688C
:102E80005B699847039A2368009231002A0020006A
:102E90005F6A049BB847059B03995A1E23680091FB
:102EA0005219310020005F6A12B2049BB847039A9E
:102EB0002368009231002A0020001F6A059BB84752
:102EC0000499039A23680139009289192A00200085
:102ED0001F6A09B2059BB84723682000DB6A984740
:102EE00007B0F0BD7047F0B585B002930AAB00277C
:102EF000DF5F0BAB1B8816000393029B04000D00E1
:102F00000268994210D1BE4202DD33003E001F002C
:102F1000039901370091BB1B976B1BB2320029004C
:102F20002000B84705B0F0BDBE420CD1029B9942CB
:102F300001DD029D0291029B039901335B1B00910D
:102F4000D76B1BB2EAE753699847039A236801924B
:102F5000009720009F6A3200029B2900B84723682F
:102F60002000DB6A9847DDE703230B4010B583762A
:102F70000822835E0A24025FC90702D48381C281CA
:102F800010BD8281C381FBE74281C28101220023FF
:102F900010B55242064C4261064A08344360046050
:102FA00001818181036182610377036210BDC046A4
:102FB000A4D4000001010001F0B58DB0079312AB5D
:102FC000069200229B5E0591019313AB00229B5E4B
:102FD0000400089314AB1B880026099315AB1B88CB
:102FE00035000A9303685B6998470722019B0B929F
:102FF000D91DCB1713405B18DB10029333009AB234
:103000000392069A99B28A1812B20492089A9342CD
:1030100027DA0023019A93421DDA9AB200920B9AA2
:103020006D00EDB2134203D1079ADB109219D55C03
:103030002368059A9B691F00009B99186AB2099B37
:1030400009B2002A00DB0A9B2000049AB847009BC3
:1030500001331BB2DEE7039B029A01331BB2B618A1
:10306000CDE723682000DB6A98470DB0F0BDF0B5CE
:1030700085B00AAC0025645F0BAD0026AD5F0DAFD7
:103080000CAE36883F880296039701950094FFF7AF
:1030900093FF05B0F0BD0000F0B595B01D001AAB70
:1030A0001B88049205931BAB1E881CAB1B78026A1D
:1030B00002931DAB1B78040008910393002A00D0F3
:1030C000C4E00C22835E8B4200DC7DE00E22835E36
:1030D000049A934278DD0623029A53435B18002B2F
:1030E00072DD039B049ADB009B18002B6CDD037FD1
:1030F000002B03D1AF2D01D90135EDB2236820009B
:103100005B6998470522002355430793984B0B9220
:103110005B190F93079A0F9B9B5C0A936B469B8BE3
:1031200009936B461B89099A0E936B461F8C029B71
:103130005343FB181BB20D9308230C9300230693F3
:1031400001220A9B2068134252D06B461A8B198ABF
:10315000029B012B3AD1039B012B37D1099B5218BB
:103160008569D919059B12B209B22000A847069BB0
:1031700001335BB206930A9B5B080A930C9B013BED
:10318000DBB20C93002BDBD1079B01335BB20793BF
:103190000B9B013BDBB20B93002BBBD1059BB342D6
:1031A0000ED0029B2268012B3FD1039B012B3CD107
:1031B00005370096156A2000049A39B20733A847EC
:1031C00023682000DB6A984715B0F0BD6B460825E0
:1031D0005B5F039D6A438A18059912B201916946A3
:1031E0000C25495F0091C5690D992000A847BEE7ED
:1031F000059BB342BBD06B461A8B198A029B012BED
:103200000AD1039B012B07D1099B5218D919856953
:10321000330012B209B2A8E76B4608255B5F039D35
:1032200001966A438A1812B2D9E76B4608215B5EA1
:1032300005210E980196414303987918C00000902B
:10324000D5692000049A09B2A847B9E7137A5168F2
:10325000ED1A1268EDB2ED0013924A5B4B19099218
:103260009A780D92DA78119205229A569B790E92ED
:103270005BB20F93029B012B02D8039B012B56D903
:103280006B4638229B5E0B936B463C229B5E0C93F5
:103290000027236820005B69984707970697119BD2
:1032A000069A9A4200D38BE76B461B8A00260A9344
:1032B0000C9B9B18039A53430A9AD3181BB2109382
:1032C0003B000D9A96424BD25A1CD2B21292072260
:1032D000134207D1099B0999139A0133525C9BB29F
:1032E000079209936B461B7F5BB2002B17DA6B4684
:1032F000198C029B2068012B1DD1039B012B1AD135
:103300000A9B0F9A9A18069BD2180E9B12B2C918E4
:10331000836989191D002000059B09B2A847079BF6
:1033200001365B00DBB20793F6B2129BC9E70023BC
:103330000C930B93ACE76B4608229B5E0B9A029DA5
:1033400092196A438918059A09B201926A460C25B6
:10335000525F0092C26920001500109AA847DEE76C
:10336000069D0D9B0135FF18EBB2FFB2069396E761
:10337000A4CF00007FB508AC258809AC26880AAC2C
:1033800024780196009503940294FFF785FE7FBD93
:10339000F0B5026A04000D0085B0002A2CD10A297C
:1033A00008D1437E0282DB00628A9B18638201207F
:1033B00005B0F0BD0D29FAD01223C25E1023C15E04
:1033C000437E0393037E0293C38A0193838A00930F
:1033D0002B00FFF761FE227E238A312D08D1042ABB
:1033E00002D113332382E2E7032A01D10E33F9E736
:1033F00006214A439B18F5E70A2905D100230382D9
:10340000127B437E5343CFE70D29D0D0137A9942E4
:10341000CDD3917AA942CAD3EB1A5168DBB2DB0053
:10342000CE18B178002929D0F378002B26D0E37E7E
:10343000007E677E002B13D00523F3565B184343B1
:103440009C461023E15E8C440C23E15E8C4507DD35
:103450001223E15E00232382137B7B435B1863828C
:103460001223E25E1023E15EE38A02900193A38AB5
:103470002000009303972B00FFF70EFE227E337986
:103480005343228AB6E70B1C002900D1012303769F
:10349000437670470378034A9B009B5800224933C8
:1034A0001A70704710180020F0B5040085B01E0097
:1034B0000AAB1B78103001930BAB1B7817000293FB
:1034C0000CAB1B780D00039300F096F9200024301C
:1034D00000F092F9220000234832A363E3632364DF
:1034E00063641370537063729D4205D10A4B0B4A9B
:1034F00022210B4806F006F86B461B792000637109
:103500006B461B7A2560E3716B461B7B2771A671A6
:10351000237205B0F0BDC04644D50000B7D5000009
:1035200055D5000030B5040085B002AD00680291A9
:10353000039201F04CFB6B79227AE17900932068C9
:10354000002301F00BFD2979029A206801F064FB49
:10355000206801F032FB05B030BD000007B5837A6A
:1035600000910192002B07D09A070AD5EFF3108340
:103570005A425341C37272B60099019AFFF7D2FFC3
:1035800007BDDB07F8D5C368014A9BB29360F3E738
:103590000018004010B5006801F022FB10BD0000CB
:1035A00010B5006801F02EFC0023984203DB0C33B9
:1035B0005843024BC358180010BDC046FCD400004D
:1035C00010B5006801F01EFC002805DB0C23434306
:1035D0000348C018406810BD01204042FBE7C046C8
:1035E000FCD4000010B5006801F00CFC002805DBDD
:1035F0000C2343430348C018806810BD012040429B
:10360000FBE7C046FCD40000F0B50600103689B0D8
:103610000500300000F046F9002869D12F0024375A
:10362000380000F03FF9041E5FD12800FFF7DAFFF1
:10363000C1B2300000F016FA0221300000F036FA74
:103640002C490122300000F009FA2B7C2A4A9B0009
:1036500028009D50FFF7B4FFC1B2380000F002FA15
:103660000221380000F022FA6B1DDB7F224A9B000A
:1036700028009D50FFF794FF0123010022000293D0
:1036800004942300039401940094300000F032FA73
:10369000A8632800FFF784FF0123020001932100A3
:1036A00023000494039402940094380000F022FA5A
:1036B000E863402005F090FF2A0048322864079212
:1036C00000280BD00123137068646B6C102218194A
:1036D000E96B103405F094FF402CF6D1079B1B7862
:1036E000002B05D1380000F077F9300000F074F9B4
:1036F00009B0F0BD953400001018002070B5437A71
:103700000400002B04D18372C372C360013343727F
:10371000230048331B78002B02D12000FFF774FFF1
:1037200018263300082120790D4D4343EB185956D4
:1037300003F0E2FD33000821A0794343EB1859560A
:1037400003F0DAFD082160794643AD19695603F0AC
:10375000D3FD044B200006CBFFF7E4FE70BDC0464E
:1037600020DC0000081800201FB5094A094B0A494F
:1037700013600023537113710293013301931633C5
:103780000093162201330548FFF78EFE05B000BDF9
:103790000818002000093D002C240020BC17002040
:1037A000084B1968002909D1EFF31080064A002858
:1037B00003D172B6BFF35F8F013111701A68013205
:1037C0001A607047C8190020C4190020084B1A68F5
:1037D000002A0CD01A68013A1A601B68002B06D127
:1037E000044B1B78002B02D0BFF35F8F62B670478B
:1037F000C8190020C4190020FF2310B50370C0238E
:10380000002104009B004170418083800C2208301D
:1038100005F012FF200010BD01230A0010B51A4068
:10382000194208D00C4A1370033343708368002B8D
:1038300000D0984710BD0223194204D006490B70EE
:10384000C3684270F3E704231942F3D0024A1370AD
:10385000033343700369EAE74E48004110B5FFF7B0
:103860009FFF0C4B1B8C1B071B0F0B2B0FD80A4AFF
:103870009900885800280AD00F2408490A78A243E2
:1038800013430B70064B1978C9B2FFF7C5FFFFF75A
:103890009DFF10BD00480041CC1900203F48004169
:1038A0004E480041F8B500230278050018000B2AA5
:1038B00077D93C4E2B702B780B2B07D801229A40DE
:1038C0003168114204D001332B70F4E7012068E025
:1038D000FFF766FF3768344C002F2BD12022334B83
:1038E000334859690A435A611022D9690A43DA6197
:1038F000022223883900934323802388013A13430B
:1039000023802C4B6063BF32A36305F095FEC02279
:103910003900284805F090FE4022C120264B800047
:103920002380264B26491A601A581140C0221204DF
:103930000A431A5001231A00297830688A4002434A
:1039400032600F261F4A880085501F483140027898
:10395000B2430A43027002201C4A1178814311705D
:10396000117819431170297822698B409A4322619A
:1039700060223F21636C934363642A79636C0A403D
:10398000134912020B400321134363646A79636C89
:103990000A40104992050B4013436364FFF716FF7A
:1039A0000020F8BDC019002000480041000400407C
:1039B0000019002040180020020F000000E100E084
:1039C000FFFF00FFCC1900203F4800414048004164
:1039D000FFC0FFFFFFFF3FFF70B50500FFF7E0FEF0
:1039E0006B785CB2062B2BD02B7802240B2B27D8BC
:1039F00001229A40144B1968114221D01968914351
:103A000019601B68002B14D14022104BDA67BFF3FA
:103A10004F8FBFF36F8F21000D4A0E311388A343E0
:103A200013800C4BDA698A43DA615A6910318A4390
:103A30005A6100242B78084A9B009C50FF232B706E
:103A4000FFF7C4FE200070BDC019002004E100E0B3
:103A50000048004100040040CC19002002329200CE
:103A600011507047037870B505000C0001710B2BE5
:103A700014D8FFF795FE29780F25094829400378C7
:103A8000084AAB430B4303703F23516C1C40064B69
:103A9000240219400C435464FFF798FE70BDC046E1
:103AA0003F48004100480041FFC0FFFF037870B568
:103AB00005000C0041710B2B14D8FFF771FE29781B
:103AC0000F25094829400378084AAB430B4303708C
:103AD0000323516C1C40064BA40519400C4354644D
:103AE000FFF774FE70BDC0463F48004100480041EA
:103AF000FFFF3FFFF0B587B001930CAB1E780DAB15
:103B00001B78050002930EAB1B780078039310AB73
:103B10001F78049105920B2802D9002007B0F0BD50
:103B20006B78062BF9D0AB78002B00D179E010210F
:103B3000080005F047FD0028EFD02B783B4A1B0119
:103B40009B181A00D168002904D0D1688B4201D09B
:103B5000D268F7E7D06001220223AA70964203D010
:103B6000DB18022E00D013000624018811430180C7
:103B70000188A143018001881234A1430180153CD2
:103B8000018826402A4C360221400E430680029EC0
:103B90000188284C16402140B6020E430680039E41
:103BA0000188254C16402140F6020E43068001880C
:103BB000224E3A40314012030A43072102800F9AF5
:103BC000114002884903D204D20C0A4302806A469B
:103BD00092884280049A4260029A002A08D0019A90
:103BE00041685A43002F01D00F9CA2408A184260BE
:103BF000059A8260039A002A09D0019A84685A4380
:103C00001300002F01D10F9A9340E3188360002323
:103C1000EA789A4203D02B78044A1B019B18C360B0
:103C20007CE7024B0001C01895E7C0460019002050
:103C3000FFFCFFFFFFFBFFFFFFF7FFFFFFEFFFFFB3
:103C4000F0B5150005AA1488827E022A00D16BE027
:103C5000032A00D19FE0012A00D06DE0EA430589E4
:103C6000AD182DB2002D5EDB0826825FAA425ADD18
:103C7000002902DA5B1800211BB20A22825EC818F2
:103C8000904201DD531A1BB2002B4CDDC8B2C208B2
:103C90005E4992015219521807250100DBB22940F2
:103CA00028421CD008205A4D401AC0B22D5C8342D5
:103CB00000D3A3E0FF26C71A3E413540012C00D1B6
:103CC0006EE0022C00D16FE0002C2CD11678AE43B0
:103CD0001670834227D308395B18DBB24032072BBA
:103CE00014D9022C63D11000190005780839ED436E
:103CF000C9B2057040300729F7D819000839C9B290
:103D0000C90801318901521807210B40002B0AD044
:103D10004049CB5C012C58D0022C5AD0002C02D147
:103D2000117899431170F0BDEA434589C918AD185F
:103D300002892DB2511A09B2002DF4DB0A26825FE6
:103D4000AA42F0DD002902DA5B1800211BB208222A
:103D5000825EC818904201DD531A1BB2002BE2DDCF
:103D6000EA1092015118294A01208A1807210D40B2
:103D7000A840C0B2012C2FD0022C36D0002CD2D1BA
:103D8000C043C0B2013B1BB2591CCCD011780140DA
:103D900011700132F6E74289C918511A09B261E778
:103DA00016783543157094E716787540FAE7611E6A
:103DB00048424141150018004942C9B20838C0B212
:103DC000297040350728F9D897E711780B4313700D
:103DD000A9E711784B40FAE7013B1BB2591CA2D06E
:103DE0001178014311700132F6E7013B1BB2591CF7
:103DF00099D01178414011700132F6E7012CCFD0F3
:103E0000022CD1D0002C00D065E75FE747010020ED
:103E10003F01002037010020F0B50C0005A90D88F6
:103E2000817E02293CD0032900D1A1E001293FD1A4
:103E30000189D2188A1A12B2002C00DA97E00A26F9
:103E4000815FA14200DC92E0002A02DA9B18002286
:103E50001BB20821415ED018884201DD8B1A1BB2CB
:103E6000002B00DC83E0E11089018A185D49012004
:103E7000511807221440A040C0B2012D00D17CE0AF
:103E8000022D00D182E0002D71D1C043C0B2013BB0
:103E90001BB25A1C6BD00A7802400A700131F6E757
:103EA000E1430489D2186418418924B28A1A12B2F3
:103EB000002C5CDB0826815FA14258DD002A02DA73
:103EC0009B1800221BB20A21415ED018884201DDF6
:103ED0008B1A1BB2002B4ADDD2B2D10841488901AE
:103EE0000919091814000720DBB2044002421AD055
:103EF00001303D4A001BC0B2125C834200D36AE02D
:103F0000FF26C71A3E413240012D48D0022D4AD02B
:103F1000002D2CD10E7896430E70834227D3083C97
:103F20001B19DBB24031072B14D9022D3ED10800FA
:103F30001A000478083AE443D2B204704030072AE9
:103F4000F7D81A00083AD2B2D20801329201891881
:103F500007221340002B0AD0244AD35C012D33D012
:103F6000022D35D0002D02D10A789A430A70F0BD97
:103F7000E1434489641824B25EE7013B1BB25A1C3A
:103F8000F5D00A7802430A700131F6E7013B1BB213
:103F90005A1CECD00A7842400A700131F6E70E78DC
:103FA00032430A70B9E70E787240FAE76A1E50424F
:103FB00042410C0018005242D2B20838C0B22270FE
:103FC00040340728F9D8BCE70A7813430B70CEE7D2
:103FD0000A785340FAE7012DE1D0022DE3D0002DFD
:103FE0009DD197E7470100203F01002037010020C5
:103FF00030B5002947DB0C25445F8C4243DD002AA5
:1040000041DB0E25445F94423DDD847E022C1ED0B0
:10401000032C25D0012C04D1D243008980180A003A
:1040200001B2012B22D0022B2ED0002B2BD1072046
:10403000D31703409B18DB109B0159180123024042
:1040400093401A00174C635C934363541BE004894C
:10405000013C611AD443428909B2121912B2E0E755
:1040600040890138401A110002B2DAE70724D0175C
:104070002040801822409340C01080014118094818
:10408000425C1343435430BD0720D31703409B18B1
:10409000DB109B015918012302409340014C625CE4
:1040A0005340D2E74701002070B504000D002022E4
:1040B0004021FEF769FF094BFF22083323602300EC
:1040C0002A331A702200012328325B42E3841370E2
:1040D0002300293320001D7070BDC0460CD600009F
:1040E000802210B500210248520005F0A5FA10BD4B
:1040F000470100200300F7B52B331B7804000D00A7
:10410000002B03D01348FFF745FAF7BD082380269C
:104110000127009323001F20083301931856002124
:1041200003F0A6F831001F20E31D185629402E4247
:1041300000D0390003F09CF81F20019B390018566D
:1041400003F096F8009B7608013B0093002BE1D129
:10415000DBE7C046BC17002070B5C31DDB7F040041
:104160005BB20D0001331AD0060000202A3601216F
:10417000305603F07DF828200021205603F078F80F
:1041800000200021305603F073F829002000FFF7CB
:10419000B1FF00200121305603F06AF870BD0534EC
:1041A000E17F084C2000FEF733FC00212000FEF7E1
:1041B00047FC29002000FEF743FC2000FEF79DFC91
:1041C000ECE7C04688150020F0B585B00093831D4C
:1041D000D977431DDA771F23C71DFB5604000D0056
:1041E000013300D1CAE003002020083301931856A0
:1041F000012103F00DF826002A20012120562B363C
:1042000003F006F83378002B00D1A7E0604E3000B1
:10421000FFF774FA002302AA938030005D49039AE5
:10422000FFF79CF9009B002B1DD0260000202936AB
:104230003056002817DB012102F0EAFF002001219F
:10424000305603F015F8012002F0AEFC00200021EA
:10425000305603F00DF80A2002F0A6FC00200121E0
:10426000305603F005F8AE212000FFF775FFD52189
:104270002000FFF771FF80212000FFF76DFFA821CC
:104280002000FFF769FF1F212000FFF765FFD32102
:104290002000FFF761FF00212000FFF75DFF4021B4
:1042A0002000FFF759FF8D212000FFF755FF102157
:1042B000012D00D014212000FFF74EFF2021200007
:1042C000FFF74AFF00212000FFF746FFA121200051
:1042D000FFF742FFC8212000FFF73EFFDA21200050
:1042E000FFF73AFF12212000FFF736FF812120005F
:1042F000FFF732FFCF212000FFF72EFFD92120004A
:10430000FFF72AFF2221012D00D0F1212000FFF725
:1043100023FFD9212000FFF71FFF2221012D00D00C
:10432000F1212000FFF718FF2000DB21FFF714FF29
:1043300020004021FFF710FF2000A421FFF70CFF11
:104340002000A621FFF708FF20002E21FFF704FF21
:10435000AF212000FFF700FF05B0F0BD1F200121B5
:10436000385602F055FF1F20019B0121185602F01C
:104370004FFF3378002B00D154E747E7064E30005B
:10438000FEF718FB30000549FEF734FB4AE7C0464C
:10439000BC17002000127A0088150020801A060041
:1043A000F8B504002121FFF7D7FE20212000FFF7F8
:1043B000D3FE5F212000FFF7CFFE22212000FFF770
:1043C000CBFE00212000FFF7C7FE03212000FFF7EE
:1043D000C3FEE31DDB7F10265BB2013321D0260034
:1043E00000202A360121305602F042FF2820012108
:1043F000205602F03DFF002000218027305602F0B9
:1044000037FF00257F00174B2000595D0135FFF76E
:1044100071FEBD42F7D100200121305602F028FF85
:10442000F8BD3500104F631D3800D97FFEF7F0FA54
:10443000103D40213800ADB2FEF702FB094B3800B9
:10444000595D0135ADB2FEF7FBFAAE42F6D1380048
:10445000FEF753FB88231036B6B25B009E42E0D1D4
:10446000DEE7C046470100208815002010B5054A48
:104470000549064800F010F80022054B05491A705E
:104480005A5410BD0104000000D70000001E002097
:10449000FC1900200204000030B5094D094CAB683E
:1044A0005B035B0F9B001C590460AB6801619BB20E
:1044B00043606343A4008360C460426130BDC04672
:1044C0000040004100DC0000F7B58026194D019145
:1044D0006F6803333E439B086E60002B29D0164E55
:1044E0002E802E7DF107FCD51E000768991BBF08A2
:1044F0008F4217D9002E15D0FF2117788C433C43EB
:104500000E4957780C403F023C439778A4B23904D7
:10451000D7780C433F0601993C4310C10191043206
:10452000013EE2E7064B2B802B7DDB07FCD53300F9
:10453000D3E7F7BD0040004144A5FFFFFF00FFFFA8
:1045400004A5FFFF044B054A4908D9611A801A7D6A
:10455000D207FCD57047C0460040004102A5FFFFCE
:1045600070B504000D001600E36829002000B34276
:1045700005D2FFF7E7FFE368ED18F61AF4E7FFF757
:10458000E1FF70BD10B510001A0005F039F810BD3C
:10459000114B12495A880A405A805A78D209FCD1E4
:1045A0000F4A5A805A78D209FCD10E4A5A605A787A
:1045B00052B2002AFBDB8022596892030A435A60F8
:1045C0005A7852B2002AFBDBC023074A9B0051688D
:1045D0000B4353607047C046000C0040FFBFFFFF15
:1045E00005460000060301000040004170B5104878
:1045F00000F0D0FE0024A04203D10E4801F0DCF907
:10460000013402220C4B0D481968914319600421B2
:10461000056929430161BFF34F8F30BF19680A4311
:104620001A60002C02D0034801F088F970BDC04622
:10463000542400207024002010E000E000ED00E091
:1046400070B50400150008001A290AD9FF2907D1FE
:104650000021200000F09AF82900200000F044F822
:1046600070BD18244C430A49091916240C57621CC2
:10467000F6D0102CF4D01A00290002F095F8FFF7BC
:1046800087FF0123A340034A51690B435361E7E7C6
:1046900020DC000000180040042310B5034A117EFE
:1046A0000B431376024B5B68984710BD00400042F5
:1046B000181E002010B5024800F004F810BDC046D6
:1046C000181E00200023037070470000044B10B533
:1046D0001B68002B00D098470122024B1A7210BDB4
:1046E000201E002000140040014B19607047C04696
:1046F000201E0020094B0A4A9A605A7852B2002ABA
:10470000FBDB084A5A605A7852B2002AFBDB064AA1
:104710005A805A78D209FCD17047C046000C00403C
:104720000204000002051100044200000221044BB3
:104730001A888A431A809A7AD209FCD17047C046F7
:10474000001400400222044B19880A431A809A7A06
:10475000D209FCD17047C046001400400122044B2E
:1047600019880A431A809A7AD209FCD17047C04648
:10477000001400400121044B1A888A431A809A7A57
:10478000D209FCD17047C046001400402023F7B581
:1047900000272A4A0E00916905000B439361284BBC
:1047A000284A294C9A82BE420BD1284B37001A78EE
:1047B00070231A4205D023881B0702D501272369DD
:1047C00001932800FFF796FF2800FFF7AFFF2800AE
:1047D000FFF7C4FF63881E4A134063801D4B23808C
:1047E000A37ADB09FCD1C0211B4A0833136089007E
:1047F00053581B021B0A53500123E279134307222B
:10480000E371237F93432377A37ADB09FCD128004C
:10481000FFF798FF2800FFF7ADFF002E0BD1002F08
:1048200009D0019B002B06D02361A37ADB09FCD1C0
:1048300001332B70F7BD8423DB03F5E70004004050
:1048400000080040CE06000000140040380400407C
:10485000FFBFFFFF080A000000E100E010B50248BA
:1048600001F0ACFE10BDC046241E002010B5024869
:1048700001F0A4FE10BDC04620210020F7B50124A0
:104880000326154F1549380000F001F91449154861
:1048900000F0FDF81449154800F0F9F814491548DE
:1048A00000F0F5F81449154800F0F1F8144D1549D9
:1048B000280000F0ECF83900009623000194002253
:1048C000114801F00FFE0096290001941E231F22BB
:1048D0000E4801F007FEF7BD1C240020000800422E
:1048E000000C00422024002000100042242400205C
:1048F0000014004228240020001800422C2400202C
:1049000030240020001C0042241E00202021002012
:10491000F7B506000D000C008B180193019B671B77
:104920009C4207D0336821781B68300098470134D7
:104930000028F3D13800FEBD70B5040008000D005A
:1049400005F090FD2368020029005B68200098476D
:1049500070BD10B50B1E02D0FFF7EEFF030018006C
:1049600010BD10B5FFF7F5FF10BD10B503681B684B
:10497000984710BD10B50249FFF7DEFF10BDC046D5
:1049800070E0000070B50400FFF7E3FF05002000B1
:10499000FFF7F0FF401970BD0EB410B5040097B0DA
:1049A00019AB04CB502102A8019305F08DFD02A99B
:1049B0002000FFF7CEFF17B010BC08BC03B01847AB
:1049C000F0B58BB06B461500002205330600DA7790
:1049D0000800012D00D80A2509AC290002F05EFE6E
:1049E000CAB2130037330700DBB2092902D813001B
:1049F0003033DBB2013C2370002FEED121003000B8
:104A0000FFF7A7FF0BB0F0BDF8B506000C00151EB0
:104A100004D10368C9B21B689847F8BD0A2A0CD1B3
:104A200000290BDA2D21FFF7A0FF614207002A00C1
:104A30003000FFF7C5FF3818EFE7D2B22100300091
:104A4000FFF7BEFFE9E710B5FFF7DEFF10BD70B559
:104A50000400FFF7D9FF05002000FFF78BFF401986
:104A600070BD10B5002A04D10368C9B21B6898470D
:104A700010BDD2B2FFF7A4FFFAE770B50400FFF74C
:104A8000F0FF05002000FFF775FF401970BD0160C1
:104A900070479446F0B59E1E721E964162460568A8
:104AA00092072F6836063A4332432A60072505AC41
:104AB00024780068A4012940214342680024022B85
:104AC00000D05C03114321434160F0BD30B5C025E7
:104AD0000368AD031C6812052A402243C024090460
:104AE000A40221401143196003685A6814435C60B2
:104AF00030BD0123026811680B43136003681A6814
:104B0000D207FCD4DA69D207F9D4704702230268CD
:104B100011680B4313600268D3699B07FCD470478C
:104B200003681A7ED20702D41A7E9207FCD570471A
:104B3000002203685A8370470368187E4007C00F3D
:104B400070470368187EC0097047802302685B4283
:104B5000117E0B43137670470368588B8007C00F94
:104B6000704702230268518B0B43538370470368DD
:104B7000187EC007C00F70470368188DC0B2704719
:104B800003681A7ED207FCD589B2012019857047C7
:104B9000012203689A757047012203681A757047ED
:104BA0000123026811680B43136003681A68D20777
:104BB000FCD4DA69D207F9D470470223026811687D
:104BC0000B4313600268D3699B07FCD470470368EA
:104BD000DA699207FCD402211A688A431A60704786
:104BE0000268936A5B0A5B021943916203681A7E4A
:104BF0005207FCD5986AC0B27047000010B5490052
:104C0000044802F0C5FC80B2002801D0013880B20F
:104C1000C0B210BD006CDC0270B54B080C00012165
:104C200005680B400C402E6824075B072343334381
:104C30002B6011000468FFF7E1FF207370BD0123B2
:104C4000026811680B43136003681A68D207FCD42A
:104C5000DA69D207F9D470470223026811680B435E
:104C600013600368DA699207FCD430215A8B8A43B7
:104C7000110010220A435A830268D3695B07FCD4EF
:104C800070470221026813688B4313600268D3697E
:104C90009B07FCD4704780230268DB0211685168CF
:104CA0000B43536070470000036803491A685A6851
:104CB0000A405A607047C046FFFFFBFF032230B531
:104CC000036811401C68074D5A6809042A40E4062D
:104CD0001143640F5960052C03D10268D3695B0747
:104CE000FCD430BDFFFFFCFF30B503680400588BD7
:104CF0008006800F022814D05D8B0020AD06AD0F1A
:104D0000032D2ED0588B800705D55D8B0020AD0676
:104D1000AD0F012D25D100205D8BAD06AD0F854275
:104D20001FD04800596A1043C90AC0B2C9020143E2
:104D300059622368002A08D11A7ED207FCD5588B05
:104D40004007C30F012058400BE0187E8007C00FBA
:104D5000F5D11A7ED207F8D5C022596892020A43CB
:104D60005A6030BD0368283319700368187EC00785
:104D7000C00F03D15A8BD207F8D57047588B400724
:104D8000C30F01205840F8E70368283319700368FF
:104D900000201A7E520704D5588B01234007C00F0C
:104DA0005840704703681868C006400F04384342F3
:104DB0005841C0B270470368187E4007C00F704763
:104DC0000368187EC007C00F70470368588BC00681
:104DD000C00F70470368187E8007C00F70470368D4
:104DE000588B0007C00F704703681A68D206520F2D
:104DF000052A02D11A7E9207FCD528331878C0B252
:104E0000704700000368104A934213D00F4A934240
:104E100012D00F4A934211D00E4A934210D00E4A3C
:104E200093420FD001200D4A4042934201D10630F7
:104E300040B270470020FBE70120F9E70220F7E7C6
:104E40000320F5E70420F3E700080042000C0042CD
:104E5000001000420014004200180042001C0042F2
:104E6000F8B5FFF7CFFF00282CDBC3001C48FF225A
:104E7000C01805230479C35603201840C00082409F
:104E8000C021D2438140002B1DDB1F2501201D4086
:104E9000C026A840134D7600A851C0269B089B0051
:104EA0005B19B6009F593A401143995128603F233E
:104EB00023408024E4011C430B4B5C805A7852B29F
:104EC000002AFBDBF8BD0F200340083B07489B0886
:104ED0009B001B18D86902401143D961E7E7C0461F
:104EE00074E0000000E100E0000C004000ED00E094
:104EF000F8B504000F0016001D00FFF7B1FF2000F9
:104F0000FFF7F7FD1C21BB000B4071072268090C5D
:104F10000B431360842322689375012F1AD110214B
:104F2000012E00D008390C4B69431868C00002F00C
:104F30002FFB0722216802408B895203DB04DB0C24
:104F400013438B81226803049089DB0C400B4003E0
:104F500018439081F8BDC046E4020020F7B5050073
:104F6000019308AB1F780E001400FFF719FE28000C
:104F7000FFF776FFC022240592031440BA070C27DE
:104F800017433C43C02707223604BF022B683E402C
:104F900026431E60019B296813401A0080239B0250
:104FA00013434B602A68D3695B07FCD4F7BD00004C
:104FB000F8B504000F00FFF753FF2000FFF73FFE96
:104FC0001422236879001A600C4B25681E68300093
:104FD00002F0DEFA0A490400300002F0D9FA7D231B
:104FE000FA215843C90002F0D3FAFF23241AE868D3
:104FF000053C1C4098430443EC60F8BDE4020020EB
:1050000040420F000221084B1A888A431A80DA7B3B
:10501000D209FCD101321A80DA7BD209FCD11A887C
:10502000D207FCD47047C04600340042074B10B58D
:105030001B780400002B08D0FFF7E4FF00212000BC
:1050400002F016F90022024B1A7010BD3424002021
:1050500050240020F7B504000E1E009202D1FFF785
:10506000E5FFF7BD802350495B03504ACB67BFF390
:105070004F8FBFF36F8FC021C520490053504C4B59
:105080008039FF39197080001358FE318B431900A5
:1050900040230B4313504749474B598001925A789C
:1050A000D209FCD1454B1B78002B05D0444B186826
:1050B000A04201D0FFF7BAFF424B3100186802F05E
:1050C00067FA414A002394460427451E65450FD9D7
:1050D000050019005A1CD540B943C9B2013D032946
:1050E00002D0D2B2062A01D10233DAB21300EDE7C0
:1050F000013B0027092B02D8344A5B009F5A009BD2
:10510000002B4CD0FA2158007043890002F040FA7D
:10511000002302002E492F4E0A604B60FFF772FFFA
:105120002023328813431F433780F37BDB09FCD1F4
:10513000ADB23583F17BC909FCD118206043264A02
:10514000264D83561218DB015F19254D2F60254D22
:105150005B19254D2B60012553682A009A40234B8B
:105160001A601023727B13437373154B1A68A242A3
:1051700009D020001C6002F07BF82900200002F01A
:1051800047F80E4B1D700223328813433380F37BA4
:10519000DB09FCD18023019A5B03136061E70122E4
:1051A0005242D317B6E7C04604E100E000E100E058
:1051B000342400201C400000000C0040502400203B
:1051C0006002002064020020FFFF0000A4E0000055
:1051D000482400200034004220DC00001C44004130
:1051E00040240020144400413C24002038240020A6
:1051F000154B70B5186859680500144C0D4319D04B
:10520000134A21681268116018685968002902DC85
:105210000AD1002808D01868596801246442E517AB
:10522000001969411860596010230A4A917B0B43A9
:10523000937370BDFFF7E6FE074B22681B681A6088
:10524000064B1D70F5E7C046482400203824002096
:1052500040240020003400423C2400205024002040
:105260003F20704713B56B460268D9710733546805
:1052700019000122A04716BD10B50221006900F0F7
:1052800057FC10BD10B50321006900F067FC10BD8C
:1052900010B51300084A0400D279002A03D1012373
:1052A0000020636010BD0A000069032100F04EFD7C
:1052B0000028F4D0F6E7C0466C02002010B5054C7B
:1052C00023685A1C04D103685B6998470300206077
:1052D000180010BDB8020020074B0200186810B576
:1052E000411C03D0012252421A6010BD02211069F4
:1052F00000F01EFDF9E7C046B802002010B50378A3
:105300004222023303700249024800F0CBFD10BD77
:10531000740200207024002010B501780200437848
:105320000020A12908D1212B05D1072216491748B1
:1053300000F0B8FD012010BD2129FCD1202B13D194
:1053400007221149114800F04DFC96220E4BD20065
:10535000196891420ED10124D87904400AD1FA206B
:1053600002F02CF80020E6E7222B06D19278064BBB
:10537000DA71EAE702F028F8F4E7232BDBD1528850
:10538000034B1A60D7E7C0466C020020702400204F
:105390006802002010B501F0D1FBF423FF33002494
:1053A000984207D9044B0A20DC79631E9C41E4B281
:1053B00001F0FAFB200010BD6C020020FA2200214F
:1053C000054B92009A60054A596008321A60044AF7
:1053D00019761A617047C04654240020B8E00000D6
:1053E00070240020704770B50F26CB1D01390200D4
:1053F0003240D5B22C0000093034092A00DD0734D0
:105400001C70013B8B42F2D170BD10B50400806965
:1054100004F0ECF8A06A04F0E9F8200010BD10B523
:105420000400FFF7F2FF200001F00AFC200010BD8D
:1054300070B5032908D1324B8000C058002802D033
:105440000368DB68984770BD82291FD1C3B22D4D18
:105450005A01AA1891692C4C80010C40C021890581
:1054600021439161294908334018802150612A68FD
:105470005B01D01804794942214301717020995C85
:1054800081430800302101439954DCE70029DAD137
:10549000C024C1B21B4E4A01B21893681A4DA4052C
:1054A0002B40234393601A4B8001C0180B005060BF
:1054B0003068072608335B01195CB1430E000121F7
:1054C0003143195491690D402C43946170240F4964
:1054D0005161195CA1430C001021214319549168BA
:1054E0000C4CC3180C408021490321439160916802
:1054F000890B89039160402259790A435A71A2E7C6
:105500007424002028290020FFFFFF8F9C24002006
:105510005C260020FF3F00F0EFF3108303600123BF
:10552000436072B670470368002B02D162B6BFF3C6
:105530006F8F704737B5056904006846002D14D198
:10554000FFF7EAFF019B621D013B02D3D57FEDB25D
:10555000FAE768460193FFF7E6FF002D01D100202E
:105560003EBD206AE369C01AFAE7FFF7D5FF2200C3
:105570000025019B3432013B02D31578EDB2FAE7E6
:1055800068460193FFF7CFFF002DE8D0206BE36A58
:10559000E9E70000FF2130B54368164D1A688368BB
:1055A0000B405B01D21801235218947A2343937263
:1055B000836842680B405B01D418C268A3689204F8
:1055C0002B4012091343A360836842680B405B01C0
:1055D000D3189A68920B92039A6043681A6883689A
:1055E0000B4008335B01D318402219790A431A7122
:1055F00030BDC046FF3F00F0F7B5036904000E0060
:1056000017006846002B45D1FFF786FF019B611DFF
:10561000013B5A1C0CD0CD7F5A1EEDB2002D05D196
:1056200068460193FFF77FFF2800FEBD1300F0E7F7
:10563000684601930025FFF776FFE369AF420AD081
:10564000226A9A4207D95A1CE261A269D3181B78D0
:1056500073550135F1E7226A9A42E5D10023E361EF
:10566000013323616846FFF757FF22000021019BA9
:10567000671D013B3532581CD2D0F97710785E1E79
:10568000002805D0117020000193FFF783FFECE79D
:105690003300F0E7FFF740FF2100019B3431013B6D
:1056A0005A1C06D00D785A1EEDB2002DB8D013004A
:1056B000F6E7684601930025FFF735FFE36ABD4230
:1056C00002D0226B9A421CD8226B9A42ACD10023A2
:1056D0006846E3622361FFF71FFF270022000021D5
:1056E000019B3437013B3532581C99D03970107802
:1056F0005E1E00280DD0117020000193FFF74AFFB5
:10570000EBE75A1CE262A26AD3181B787355013585
:10571000D4E73300E8E7F7B5FF21826843680A4021
:105720001B68083252019A18D3790400DB072AD586
:105730000125D571836842680B405B01D3189A68D4
:1057400040699204920C002821D12262226A002A28
:105750003ED0A26A656168465A60FFF7DDFE270009
:105760002100019B661D013B343735315A1C2BD07B
:10577000F5773A78581ED2B2002A05D001936846D0
:105780000D70FFF7D0FEF7BD0A700300EEE722634D
:10579000226B002A1CD000226261A26968465A600E
:1057A000FFF7BAFE26002100019B3436013B671D3E
:1057B00035315A1C08D03570FA7F581ED2B2002AF3
:1057C000DCD10A700300F4E768460193FFF7ABFEF3
:1057D0002000FFF7DFFED6E737B56B46DC1D002360
:1057E0000D0020002370FFF789FD2B681818286032
:1057F00001F062FE210001F02BFE2B6818182860D2
:1058000020783EBD03290ED180220E4B62311B68E9
:10581000FF31585C524202435A5468226339FF32C6
:10582000FF39995470470129FCD18022054B24315E
:105830001B68FF31585C524202435A5428222339D4
:10584000FF32EDE72829002070B50025304B0121FB
:1058500004001A201D7001F0DBFC01211A2001F068
:1058600007FD2C4B012119201D7001F0D1FC0121F5
:10587000192001F0FDFC2023274A0F20D1690B439A
:10588000D361012225490B7813430B70244B1978FF
:105890008143197006211D782943197021490D781B
:1058A0002A430A701A7802401A70602219780A4353
:1058B0001A701D4B1D4A5A805A78D209FCD11C48D7
:1058C00001F036F91B4D280001F008FE280001F018
:1058D0001DFE7F212A68C120137880000B401370C1
:1058E00004232A6811780B430C2113702A6813894A
:1058F0008B43114913810B581B021B0A0B50802349
:105900000B6011787E3B0B4313700123237070BD35
:1059100091240020902400200004004058440041BD
:105920003C44004159440041000C00400640000046
:10593000196300002829002000E100E00078002819
:1059400010D00121084B1B681A898A431A8108224A
:10595000198B0A431A830422198B0A431A830022E3
:10596000024B1A607047C0462829002020290020D9
:1059700010B50F4A93699B0B9B0393611368022236
:10598000FF331A729879823A02439A711A7A92070F
:10599000FCD57F24074A2140937A0800A3431900CD
:1059A000802301439172917A5B420B43937210BD45
:1059B00028290020005000410078002805D0034B22
:1059C0001A68012311890B4313817047282900208D
:1059D00010B50B790C00002B0CD10800FFF79CFCD4
:1059E000002801D0012010BD094A93699B0B9B033D
:1059F0009361F7E701F060FD210001F04DFD002803
:105A0000F0D1034A93699B0B9B039361EBE7C0467C
:105A100028290020F8B50D00832A19D1CBB2364CC5
:105A20005A01A21891693548AD010840C021890585
:105A300001439161324920686D1870210833556126
:105A40005B011A5C8A43110040220A431A54F8BDD4
:105A5000022A4CD12B4A8B009858002802D00368A8
:105A60005B699847382001F0E7F8274B80270360EF
:105A70000023214E7F00421D036203614361C36125
:105A800046608560C760D3772F320400C36203632A
:105A900013703800537003F09FFDA061380003F0CD
:105AA0009BFD2A00A062FF200240510171188B6803
:105AB000124FAD001F40C0239B053B438B6013007A
:105AC0003168072608335B015A5CB2431600032293
:105AD00032435A54A368626803405B01D318A26939
