:10000000008000204D6B00005D6A0000356B000031
:1000100000000000000000000000000000000000E0
:10002000000000000000000000000000356B000030
:100030000000000000000000356B0000A16B000014
:10004000356B0000356B0000356B00004D4700003C
:10005000216A0000356B0000AD380000396B0000EC
:10006000356B0000DD480000356B0000356B00008B
:10007000512C0000356B0000ED480000356B00008E
:10008000356B0000356B0000356B0000356B0000F0
:1000900071520000356B0000356B000019470000FD
:1000A000356B0000356B0000356B0000356B0000D0
:1000B0000000000010B5064C2378002B07D1054B3B
:1000C000002B02D0044800E000BF0123237010BDC4
:1000D000F004002000000000E4E20000044B10B532
:1000E000002B03D00349044800E000BF10BDC04608
:1000F00000000000F4040020E4E200000122014BB3
:100100001A707047B010002010B578280FDD7820E5
:10011000094B32385843462107F004FBEA30FF30E0
:10012000064B81B20E20598006F0CCFF10BD32285C
:10013000EEDA3220ECE7C04646FEFFFF0C05002059
:1001400010B5438804888B4219D20179124B5B1A8F
:10015000A34200DD23005B1803800288C1880023CE
:100160008A4209D343799A4204D3131C8A4200D9A4
:100170000B1C9BB2038001230372007A10BD4279ED
:100180001300A24206D80179034B5B1AA34200DD9B
:1001900023009BB29B1ADFE7FFFF0000F7B50500C5
:1001A00001910C20144902F067FD0C2006F0ACFE12
:1001B0002B002A0000261633083200215C5E023B29
:1001C0009C80A61936B29342F7D1082700240198E3
:1001D00006F004FF013F041924B2002FF7D10723D2
:1001E000E01718400419E410A419E6171E40361948
:1001F000F6106E81B0B2FEBD0708000010B5084CC5
:1002000001233C220221200004F020F8200003F00A
:10021000ADFF200004F004F9024B636110BDC0463D
:100220005805002001000100F0B5324D85B02800CE
:10023000002403F09BFF20270826012322000293BD
:10024000210028000394019700962B4B02F02DFF0C
:1002500001232200029331002800039401970096A5
:10026000264B02F022FF0123220002932800039470
:1002700001970096224B102102F017FF0123220064
:10028000029328000394019700961E4B182102F058
:100290000CFF0123220002933900280003940197E8
:1002A0000096194B02F001FF01232200029328005F
:1002B000039401970096154B282102F0F6FE0123C6
:1002C000220002932800039401970096104B3021DE
:1002D00002F0EBFE01232200029338210D4B28008F
:1002E00003940197009602F0E0FE280004F098F8CD
:1002F00005B0F0BD58050020100500204600002084
:100300006A0000208E000020B2000020D6000020ED
:10031000FA0000203405002010B5044C200003F042
:1003200025FF200004F07CF810BDC04658050020D1
:1003300010B50C4C200003F019FF2000022103F03F
:10034000C9F8002308492361200004F04AFB8023F8
:100350005B0323610549200004F043FB200004F007
:100360005FF810BD58050020EDC30000F2C3000087
:1003700010B50C4C200003F0F9FE2000022103F020
:10038000A9F8002308492361200004F02AFB8023F8
:100390005B0323610549200004F023FB200004F0E7
:1003A0003FF810BD58050020FCC3000000C4000049
:1003B000F0B58026032585B076030027194C013D52
:1003C000200003F0D3FE0221200003F083F8164939
:1003D0002761200004F005FB14492661200004F089
:1003E00000FB200004F01CF8114806F01DFC200062
:1003F00003F0BCFE012303931F33019320333A0023
:100400003900009320000B4B029702F0EFFD200013
:1004100004F006F8ADB2064806F006FCBD42CCD1A9
:1004200005B0F0BD58050020F6C3000000C4000070
:10043000EE0200008AC40000F0B50F00002591B064
:100440000190AF4229DD164C200003F08FFE0221FF
:10045000200003F03FF80923124E2A0023613100E7
:1004600003A809F065FF03A9200004F0BAFA0E4BB7
:10047000019A23616B00D25A310003A809F058FF9A
:1004800003A9200004F0ADFA200003F0C9FF4E20BC
:10049000FF3006F0C9FB0135D3E711B0F0BDC0460F
:1004A00058050020D5C30000090010000121914A21
:1004B000F8B513680B4002D18F4811608370012199
:1004C0008E4A13680B4002D18D4811608370012160
:1004D0008C4A13680B4002D18B4811608370012154
:1004E0008A4A13680B4002D1894811608370012148
:1004F000884A13680B4002D187481160837001213C
:10050000864A13680B4002D1854811608370854D7F
:100510002F78002F23D00021774802F0E7F90B2431
:10052000002801D000232B707F4D2E78002E5BD049
:100530000021734802F0DAF9002801D000232B7063
:100540007A4D2E78002E00D193E000216E4802F003
:10055000CDF9002801D000232B702000F8BD032026
:1005600006F0F2FE03005A1E9341714A714E137059
:10057000002821D13178664C00290BD032215E4809
:1005800002F0A6F901236C4920002B7002F0A0F9BB
:100590000B240DE0200002F0A9F90028F8D0FA2180
:1005A0000122664B200049001A70042402F090F9E1
:1005B0005F4B1B783370B7E73378614C002B07D162
:1005C00032214D4802F084F901232B702370DFE7BC
:1005D0002378002BDCD0594B27701A780924002A85
:1005E000E6D01F700234E3E7042006F0ADFE0300FE
:1005F0005A1E9341534A1370534B002821D1197846
:10060000454E00290ED032213D4802F061F9012308
:10061000494930002B7002F05BF94A4B4A4A1B787B
:1006200013708DE7300002F061F90028F5D0FA214F
:100630000122464B490030001A70052402F048F9A7
:10064000EBE71B78424F002B07D132212C4802F0F8
:100650003FF901232B703B70DFE73B78002BDCD0A8
:100660003A4B3E701A78002A01D01E70D5E70A2452
:10067000D3E7072006F068FE03005A1E9341354A6F
:100680001370354B00281DD11978254E00290ED046
:1006900032211D4802F01CF9012327492B7030003C
:1006A00002F016F92B4B2C4A1B78137055E73000DB
:1006B00002F01CF90028F5D00124FA21274B49004B
:1006C0001C70ECE71B78264F002B07D132210E4817
:1006D00002F0FEF801232B703B70E3E73B78002B20
:1006E000E0D01E4B3E701A78002A01D01E70D9E768
:1006F0000624D7E7E80E002032100020F00E00207C
:100700003C100020F80E002046100020EC0E0020C7
:1007100036100020F40E002042100020FC0E0020B5
:100720004C1000202E10002030100020311000202E
:100730001E010020210100201A0400003A100020B0
:100740002C1000201F01002022010020401000205A
:100750002D10002020010020230100204A1000203D
:100760002F100020F8B5242706260C2502242F4B35
:1007700008001980012106F08BFD3A002C492D4814
:1007800008F00CFF2C4B3A002C492D481E8008F035
:1007900005FF2C4B2A002C492C481E8008F0FEFE39
:1007A0002B4B2A002B492C481C8008F0F7FE2B4BC2
:1007B0002A002B492B481C8008F0F0FE2A4B2A0007
:1007C0002A492B48AD191C8008F0E8FE294B2A0065
:1007D00029492A481C8008F0E1FE294B01342A00EF
:1007E000284929481C8008F0D9FE284B2A002849AE
:1007F00028481C8008F0D2FE274B3622274928487B
:100800001C8008F0CBFE0922264B27491A80274876
:100810003A0008F0C3FE264B1822264926481E80BF
:1008200008F0BCFE0422254B1A80F8BD44000020CD
:10083000F6C50000560D00200C150020A2C50000D2
:10084000A60800200015002096C500001E0E0020FE
:100850000E150020EAC50000DE070020FE1400206F
:100860008AC500008E0C00200A150020DEC500009D
:10087000C60B0020081500201AC6000086050020BF
:10088000F814002000CB00004E060020FA140020CF
:100890006CCB000016070020FC14002012CB0000D7
:1008A000360A00200415002048CB0000FE0A002074
:1008B00006150020C6C500006E09002002150020A4
:1008C00010B5012907D1C8222F4908F067FE2F4B28
:1008D0001B88180010BD022905D1C8222C4908F038
:1008E0005DFE2C4BF4E7032905D1C8222A4908F004
:1008F00055FE2A4BECE7042905D1C822284908F007
:100900004DFE284BE4E7052905D1C822264908F009
:1009100045FE264BDCE7062905D1C822244908F00C
:100920003DFE244BD4E7072905D1C822224908F00F
:1009300035FE224BCCE7082905D1C822204908F012
:100940002DFE204BC4E7092905D1C8221E4908F015
:1009500025FE1E4BBCE70A2905D1C8221C4908F018
:100960001DFE1C4BB4E70B2905D1C8221A4908F01B
:1009700015FE1A4BACE700230C29AAD1C82218494E
:1009800008F00CFE174BA3E7560D00200C150020B5
:10099000A6080020001500201E0E00200E150020C5
:1009A000DE070020FE1400208E0C00200A15002017
:1009B000C60B00200815002086050020F814002032
:1009C0004E060020FA14002016070020FC14002018
:1009D000360A002004150020FE0A0020061500201B
:1009E0006E09002002150020F0B50400B3B002002B
:1009F0001A491B4804F010F8A1B26846FFF760FFDF
:100A00000A210600174801F063FF0024032120009B
:100A100006F0FEFD80B2B0421ED2124D0021280029
:100A200001F064FF0028F8D06B466946671C7F0020
:100A3000DA5B6300C95A0C4B188804F04BFB6A461A
:100A4000A31C5B00D15AD35B2800C91889B20334B8
:100A500001F03EFFA4B2D9E733B0F0BD80C400007E
:100A6000202100202415002044000020F0B57A4CFD
:100A70007A4EA54473696A463169300003F0C2FDBD
:100A8000EF22774C92006946200008F087FD237C16
:100A9000002B4FD1657C002D4CD1724F724938002C
:100AA00003F0B0FF7149380003F09BFF01232A00D7
:100AB000A3706560A560E5602374657463190235F1
:100AC0005A828E2DFAD1002319001A006E32A21814
:100AD000023311802A2BF8D122881D3302325900AB
:100AE000611AA0310988013B5218002BF7D1190077
:100AF0006E31615A023352182A2BF8D1EE239B0033
:100B0000E250EF2221009200EFA808F047FD726941
:100B10003169300003F064FD7369EFAA3169300078
:100B200003F00EFD5249380003F06CFF0120514BD9
:100B30009D44F0BD0020667C8642F8D1494D4E4967
:100B4000280003F05FFF4D49280003F05BFF218878
:100B50000A22280003F0BBFFA1780A22280003F034
:100B6000CCFFA1880A22280003F0B1FFE1880A2205
:100B7000280003F0ACFF21890A22280003F0A7FF18
:100B800061890A22280003F0A2FFA1890A22280015
:100B900003F09DFFE1890A22280003F098FF217CE1
:100BA0000A22280003F093FF617C0A22280003F048
:100BB0008EFFA319598A0A22280003F084FF304FC0
:100BC00028003900023603F00CFF8E2EF1D12800E8
:100BD00003F010FF002633006E33E15A0A2228008A
:100BE00003F071FF02363900280003F0FAFE2A2EC6
:100BF000F1D1280003F0FEFE47232088A67886194D
:100C0000A0888019E68830182689361860898619E8
:100C1000A0898019E6893018267C3618607C8619F0
:100C20005A00A21AA0321288013BB618002BF7D145
:100C30001A006E32A25A0233B6182A2BF8D1114983
:100C4000280003F0DFFEEE239B00E058801B4642A5
:100C50007041C0B26BE7C04684F8FFFFBC100020B3
:100C6000D81000202021002005C400001CC4000072
:100C70002DC400007C0700003AC400004FC40000EF
:100C800060C4000062C4000000B5042808D806F063
:100C9000B5FC03080D121700104AD3880133D38026
:100CA00000BD0E4A138901331381F9E70B4A5389BA
:100CB00001335381F4E7094A938901339381EFE7C4
:100CC000074A1368013313600A2BE9D103498B8863
:100CD00001338B8000231360E2E7C046D810002068
:100CE0005410002010B51E491E4C8A780B88A5446C
:100CF0009B188A889B18CA889B180A899B184A895E
:100D00009B188A899B18CA899B180A7C9B184A7C65
:100D10009B1847225000081AA0300088013A1B187F
:100D2000002AF7D110006E30085A02321B182A2A06
:100D3000F8D1EE2292008B5001A8043208F02EFC6C
:100D4000094C62692169200003F04AFC636901AA29
:100D50002169200003F0F4FBF0239B009D4410BDAB
:100D6000D810002040FCFFFFBC100020F7B50700A2
:100D70000E001C481C491500019303F043FE00219E
:100D80001A4A8B1818009A300088023184461800DD
:100D9000644698300480CA3000888446180064464F
:100DA0006130FF30048012481818008884468A2079
:100DB0006446800018180480BC240E48A40018184B
:100DC00000881B191880C629DBD1AF2369465B0058
:100DD000D752094B8988D652084BD552084BD1526D
:100DE000F7BDC04620210020DAC30000D810002043
:100DF0002A020000F202000026020000EE020000BB
:100E0000B603000070B5404C4048A54443690169F1
:100E1000FDAA03F0F7FBEF223D4D9200FDA928004B
:100E200008F0BCFB2B880EAC2380AB786380AB88CA
:100E3000A380EB88E3802B8923816B896381AB8955
:100E4000A381EB89E3812B7C23826B7C638200236B
:100E500019009831695AE21802339182C82BF7D1F0
:100E6000002319001A006131FF31695ADC32023364
:100E7000A152C82BF5D100238A211A0089005918E4
:100E8000A532695AFF320233A152C82BF4D1002394
:100E9000BC219B22890059189200695A9A18023382
:100EA000A152C82BF4D10023CD22E9189200498A1F
:100EB0009A180233A1525C2BF6D100231900E422C8
:100EC0006E319200695A9A180233A1522A2BF5D139
:100ED00000256B00E25A0F4901A809F029FA0E4ECD
:100EE00001A9300003F07DFDDE230135FF339D4273
:100EF000EFD1300003F07EFD29002000FFF79CFABF
:100F0000F623DB009D4470BD50F8FFFFBC100020AD
:100F1000D8100020E5C30000202100207047000009
:100F2000F7B507000E000C202949019201F0A4FE3C
:100F30000C2005F0E9FF08240025380006F04EF8E3
:100F4000013C45192DB2002CF7D10723FA27E817E9
:100F5000184045191F48ED104543E8170005000DDE
:100F6000401900137843962106F0DCFB1A4B984297
:100F700017DD1A4B984225DC072219494318D81768
:100F80001040C018C01005B205280CDC0123019ADE
:100F9000092013703370FFF727FDFFF709FA2800C7
:100FA000FEBD2500F2E70F280DDC019B1C7001231C
:100FB0003370FFF7DDF90B20FFF716FD380005F061
:100FC00033FEECE764250023019A33701370E6E7E3
:100FD00007080000B80B0000DC0C00000B1000003C
:100FE0001CF3FFFFF8B50021B84803F0A3F8EF2287
:100FF0000024B74B9200B749B7489C7003F088FAB9
:10100000B64FB74BB74938009C7005F07FFDB64E20
:10101000B64D32002900380006F0E8FAB44FB54961
:10102000380005F073FD32002900380006F0DEFAC2
:10103000B14FB249380005F069FD3200290038008F
:1010400006F0D4FAAE4FAF49380005F05FFD32002C
:101050002900380006F0CAFAAB4FAC49380005F059
:1010600055FD32002900380006F0C0FAA84FA94902
:10107000380005F04BFD32002900380006F0B6FAC2
:10108000A54FA649380005F041FD3200290038007F
:1010900006F0ACFAA24FA349380005F037FD320044
:1010A0002900380006F0A2FA9F4FA049380005F049
:1010B0002DFD32002900380006F098FA9C4F9D491A
:1010C000380005F023FD32002900380006F08EFAC2
:1010D000994F9849380005F019FD32002900380071
:1010E00006F084FA954F9649380005F00FFD32005E
:1010F0002900380006F07AFA924F9349380005F03B
:1011000005FD32002900380006F070FA8F4F904933
:10111000380005F0FBFC32002900380006F066FAC2
:101120008C4F8D49380005F0F1FC32002900380061
:1011300006F05CFA894F8A49380005F0E7FC320076
:101140002900380006F052FA864F8749380005F02A
:10115000DDFC32002900380006F048FA834F84494C
:10116000380005F0D3FC32002900380006F03EFAC2
:10117000804F8149380005F0C9FC32002900380051
:1011800006F034FA7D4F7E49380005F0BFFC32008E
:101190002900380006F02AFA7A4F7B49380005F01A
:1011A000B5FC32002900380006F020FA774F784964
:1011B000380005F0ABFC32002900380006F016FAC2
:1011C000744F7549380005F0A1FC32002900380041
:1011D00006F00CFA714F7249380005F097FC3200A6
:1011E0002900380006F002FA6E4F6F49380005F00A
:1011F0008DFC32002900380006F0F8F93222FA217D
:101200006A4B6B485A80D8329A80A63A1C80DA80A2
:10121000684B694A890059801C809A80D880674B46
:1012200067481C805880FA20C0009A80D880654B9F
:101230000B2059801C809A80D980634B63499A8027
:10124000FA225200DA80624F59801C80614B0121E2
:101250009C70388006F01CF80023F85E210006F030
:1012600047F85D4B9C705D4B9C705D4B9C705D4B7B
:101270009C705D4B9C705D4B9C705D4B9C705D4B9E
:101280009C705D4B9C705D4B9C705D4B9C705D4B8E
:101290009C705D4B9C705D4B9C705D4B9C705D4B7E
:1012A0009C705D4B5D499C705D4B9C705D4B9C7070
:1012B0005D4B9C705D4B9C705D4C200005F026FCE6
:1012C00032002900200006F091F9F8BD58050020F1
:1012D0002415002000C70000BC100020540F00207F
:1012E000D0140020ECC20000000000207D6A000045
:1012F000D80F0020F0C20000CC0F0020F9C200007F
:10130000A80F002001C30000840F00200BC30000C1
:10131000B40F002014C30000900F00201EC3000073
:101320006C0F002027C30000480F002031C30000CD
:10133000F00F00203AC30000E40F0020201000202E
:1013400045C300001410002052C300000810002004
:101350005EC30000FC0F00206AC300000C0F0020D9
:1013600075C30000000F00207DC300003C0F00206B
:1013700084C30000180F00208DC30000240F00203C
:1013800097C30000300F0020A3C30000600F0020AF
:10139000ABC30000780F0020B4C300009C0F0020F6
:1013A000BEC30000C00F0020C9C3000060100020B1
:1013B000DC050000961400200A0A0000B01400208A
:1013C000881300006C150020DC140020B80B00000E
:1013D0000C05002038150020CA1400202C15002010
:1013E00064150020541500203015002058150020E9
:1013F000681500204C1500204015002034150020F1
:10140000441500209C100020601500204815002085
:101410003C1500205C1500205015002072DE0000F5
:1014200020150020A01000205A10002028150020B0
:101430009010002073B51B4C06000421200002F020
:1014400049F8194B002163611C230A0001910093A4
:101450002000243301F0E4FC0A21300006F062F998
:101460000A2501B26D424D430F23AD19632E00DDF5
:101470000E4B23610A22200003F025FB0123019378
:101480000233009320001922262101F0C9FC2C23ED
:10149000290023610A22200003F015FB200002F03E
:1014A000BFFF73BD5805002001000100FCFF0000D4
:1014B000F0B5334C85B00600200002F057FE6425DD
:1014C000642E02DCF543ED1735400321200002F0C5
:1014D00001F82C4B002163611C23019100930A0049
:1014E0002433200001F09CFC092E3EDC264B2361B6
:1014F00029000A22200003F0E6FA00260127202313
:1015000008220193009220003200039602971F4B9D
:10151000322101F0CAFD202308220193009220000D
:101520003200039602971A4B3A2101F0BEFD1223B6
:1015300000930C3B1A0020000197362101F070FC4B
:101540000A20404268433721019606F0EBF8062353
:10155000123000B200901A003621200001F060FC29
:10156000200002F05DFF05B0F0BD132E01DC094B39
:10157000BDE7632E01DC084BB9E78023DB02B6E749
:1015800058050020010001001F0004000400002095
:1015900024000020120004000D000400F7B5002410
:1015A0000700194EA0420FDC202330000093019465
:1015B000DB181E22042101F033FC300002F030FF62
:1015C000300002F02DFFF7BD250001230193063303
:1015D00029B200931E22053B3000013401F020FCAB
:1015E000043524B23B1C282F00DD28231BB2A34264
:1015F000EBDA002301931233009329B22E331E221B
:10160000300001F00DFCDBE75805002010B50C4C54
:101610000022A35E834200DA20801921094801F0EC
:1016200065F900280AD00023E05EA621533006F0B9
:1016300079F800B2FFF7B2FF0023238010BDC04647
:1016400050100020D0140020012307B50193063369
:1016500000931E22053B0021014801F0E1FB07BD7C
:101660005805002007B5011E02D0FFF7EDFF07BDAA
:101670000723019000931E22053B024801F0D0FB96
:10168000F5E7C04658050020E121F0B5B84F87B016
:101690000902380004F092FEB649380003F0B2F9AE
:1016A0000221072005F0F4FD0221032005F0F0FDE2
:1016B0000221042005F0ECFD01210D2005F0E8FDDC
:1016C0000121080005F0E4FDAB4801F085F9012196
:1016D0000D2005F00DFE0121080005F009FEA74BC5
:1016E00011201988FFF73EF8FEF788FDFFF7BEF9D5
:1016F000A349002803D10122A24BA3491A70380044
:1017000003F080F9A14AA2491320FFF709FC002445
:10171000A04D28802B88A3420ADB2000FFF7C8FEDB
:101720002100C82005F0FEFF05F07EFA0134F1E744
:1017300099499A4BCA891A80002A02D13232CA8149
:101740001A800320FFF750F9FA20800005F06CFAA8
:10175000FEF7E2FD05F038FA6424914B914A1860D7
:101760008E4B914E1B880F2163439B188F4A30008C
:101770005380FEF713FD04218D4DFF3168430013A4
:10178000604305F0CFFF8B4B122118808748FEF78E
:1017900005FDC9232721584305F0C4FFFA216843FA
:1017A000854B00131880834B80B21C8889006043EE
:1017B00005F0B8FF814B210018803000FEF7C0FC17
:1017C0000595002832D001227D4B1A707D4B0024F4
:1017D0001C5F022C00D08BE07B4B7C4C1B78002BD9
:1017E0002AD1012323707A4B7A4E1B787A4D002B35
:1017F00029D10123337032782B78002A2ED0002B88
:101800002ED12378002B3DD0012361495F4A13205C
:101810002B70FFF785FB5F4B80B21880FFF748FE07
:10182000FA216E48890001F053F82BE03388002B31
:10183000CCD1634A1370C9E72378002BD3D10120A0
:10184000FFF7D2F8CDE73178002901D000F0D1FFC1
:10185000634801F04BF80028CBD1CCE7002B11D026
:101860005E4D0021280001F041F8002839D05D4C80
:101870002378002B31D0FA212800890001F028F8C4
:10188000002323704F4C584E0023E55E022D01D0FB
:1018900000F050FE554A1378002B01D100F097FE5E
:1018A00004232380002352491370484A0B7049498E
:1018B0001370494A0B7038004E491370337003F0AF
:1018C000A1F801224C4B4D494D481A7001F000F827
:1018D000FA214C48890000F014FF444B01221A7091
:1018E000D0E7494B00229B5E012BCBD13D4BF5E766
:1018F000002C00D192E0042C00D0E9E2244C2178A5
:10190000002919D13F4800F0F1FF002814D001252B
:101910003E4B1E4A210013201D70FFF701FB1D4B9B
:1019200080B218802378002B06D0FFF7C1FD38481D
:1019300005F07AF9304B1D70334B314C00229B5E21
:101940000B2B00D0CAE10021200000F0CFFF0028BF
:1019500000D1ACE02F4A138801331BB213801E2B39
:1019600000D0B6E101212C4B197000236BE1C04679
:10197000202100207ECB000088150020440000209C
:10198000A2CB0000AB10002087CB0000AC100020E1
:10199000B11000207A100020D8100020340100205F
:1019A0001415002030F8FFFF601000206C15002097
:1019B000B80B0000D4140020DA140020D614002044
:1019C0009514002030010020A5100020B610002042
:1019D00028010020B2100020AA100020301500209D
:1019E00048150020A810002012150020B810002073
:1019F00086150020C9CC000036010020307500009B
:101A0000401500205815002024010020B7100020A8
:101A1000EE02000084100020B4100020C94BCA4D13
:101A200019882800FEF78CFB002810D0C74A1388BD
:101A300001331BB21380062B6AD10122C44B032051
:101A40001A70C44B13321A80FFF71EF92C80C24E55
:101A50003478002C66D13220FEF756FB21000D2091
:101A600005F046FC322005F0DFF832342000FEF7A6
:101A70004BFB0734142005F0D7F8782CF6D10A2553
:101A80000594B64B0A211C88059B181B05F04AFEDD
:101A900068430019FEF738FB062005F0C5F8013D44
:101AA000EFD2AE4B1888FEF72FFB01233370AC4BFF
:101AB000AC4C00255D5F0B2D00D017E10021AA483A
:101AC00000F014FF002804D0012300222370A74B4C
:101AD0001A802378002B0DD0A54B0020185E00281B
:101AE00001D0FEF781FF9D4B0020185EFFF7A2FC9E
:101AF000002323709F4AA04913880A339BB28B426C
:101B000000D1E3E113800023D05EFFF77FFDB9E64B
:101B100064219A4800F0DCFE0122994B1A70994B1F
:101B20002B8094E7FA219848890000F0DFFE002816
:101B30002ED0964C2368013323603C2B0DD1874B6C
:101B400000229A5E924B0021595E8A4B0020185E5B
:101B50000023FFF70BF900232360132005F03EFA62
:101B6000059D96214543FA202D0B684305F050FD55
:101B7000884C82B220808849380002F04DFF874BA4
:101B800022889A4204D8FEF7F3FB0B20FEF72CFFC5
:101B9000834C2678002E00D08CE06A4B814D19884A
:101BA0002800FEF7CDFA00280FD07F4A13880133B2
:101BB0001BB21380062B48D101201022644B1870F1
:101BC000644B1A80FFF760F82E806A4B774C1988B7
:101BD0002000FEF7B5FA002811D0754A13880133AA
:101BE0001BB21380062B3BD10122594B00201A70E7
:101BF000584B10321A80FFF747F8002323806D4BB3
:101C00006D481988FEF79CFA002800D04FE76A4B10
:101C10001B88002B00D04AE7684A138801331BB2A7
:101C20001380062B30D10122494B02301A70494BE8
:101C300011321A80FFF728F85F4B614ADB88934224
:101C400000D1604B5C4A138031E764214B4800F0BF
:101C50003FFE01234A4A237013704A4A2A80B4E7A0
:101C6000514B594900229A5E380002F0D5FE64219A
:101C7000424800F02DFE0122414B1A70E388D34008
:101C80002380474B1A70BAE7474B504900229A5EAF
:101C9000380002F0C1FE6421384800F019FE01222C
:101CA000374B45491A70444BDB88D3400B803C4B83
:101CB0001A70FCE6324B1B78002B00D1F7E60021AE
:101CC0002E4800F013FE002800D1F0E60023237018
:101CD000EDE63F49200000F0FBFDE8E63C4920002E
:101CE00000F0F6FD00223B4B1A80E0E60023204E78
:101CF0003380012D00D0A9E03749380002F082FE80
:101D0000FA211A4E8900338817480133338000F0D6
:101D1000DFFD3388012B63D1304B1B78002B00D1C2
:101D200092E01B4B1888FFF7C3FB0C4B1A88131C5F
:101D3000782A00D978239AB2322A00D23223074A6D
:101D40001380C6E6D4140020DC140020F614002012
:101D5000AE100020A61000205E10002034010020EC
:101D600024010020360100205C1500207C1000209A
:101D700010150020D6140020C4090000CA14002049
:101D8000CE140020EE02000020150020801000205C
:101D90007A100020D8140020BDCB0000E40C000015
:101DA00094140020961400207E100020B01400200F
:101DB00084050020DA1400206C150020E60E0020B7
:101DC000FFFF0000FEFF0000C5CB0000CCCB0000F1
:101DD0003075000084100020D4CB0000B710002024
:101DE0009A1E022A2AD8AC4D280002F0BFF910230F
:101DF00002212B61280001F06DFBA849280002F0A8
:101E0000F0FD80235B032B610221280001F062FBBF
:101E10003388032B0BD0042B0ED0A149022B07D003
:101E2000280002F0FDFA0320FEF7DEFD7DE79D4964
:101E3000280002F0D6FDF3E79B49F9E7052B00D017
:101E400073E79A4B1D70002333806EE7042D10D189
:101E50009749380002F0D6FD964B1B88772B00D9A6
:101E600063E70A33934A138003233380023B2370D2
:101E70005BE7092D0AD19049380002F0C3FD8D4B74
:101E80001B88772B00D950E70133EBE7052D0FD1E5
:101E90008A49380002F0B6FD864B1B88322B00D8E9
:101EA00043E70A3B834A138004233380033BDEE786
:101EB0000A2D00D039E78249380002F0A3FD7D4B9E
:101EC0001B88322B00D830E7013BEBE7002319E6F3
:101ED000012C00D017E27B4B7B4D1A78002A02D0F0
:101EE00000222C701A70794B1B78002B30D1012303
:101EF0002B70FEF711FA764B764C1B78002B33D102
:101F0000012323702B78744D002B0CD02B88012BD0
:101F100009D12378002B06D09621002389006F4831
:101F20002B8000F0D5FC2C88002C27D121006B4899
:101F300000F0DCFC002800D1D3E4694E3378002B9C
:101F400019D096216548890000F0C2FC347099E4EC
:101F50002C78002CCFD1FEF7EBF92100614800F07E
:101F6000C5FC0028C7D0C2E72378002BCAD10220C5
:101F7000FEF73AFDC4E702232B8083E4022C00D055
:101F800080E4594D594C2B78002B30D02378002B0E
:101F900001D000232370FEF7A5FE0021012005F0EB
:101FA000A7F9534E0323534A0721300002F088FB60
:101FB0005149380002F026FD300002F057FB07209F
:101FC00004F0EEFC0121080005F092F92378002BC3
:101FD00000D157E44949380002F014FD00230122E2
:101FE0002B70474B47491A804748FFF71CFC237862
:101FF000002B00D146E4072005F0A6F900280DD0FB
:102000000021414800F072FC002800D170E101235A
:102010003E492B70380002F0F5FC33E4042005F053
:1020200093F90028ECD13A4B1B78002B00D129E41E
:10203000384D2E78002E00D0D8E0314C2388012B6B
:1020400008D13549380002F0DDFC26803349344898
:10205000FFF7E9FB002B01D0FFF714FC002130480B
:1020600000F044FC002801D1FFF70CFC2D4938009A
:1020700002F0C8FC01232B702380FFF703FC0A2821
:1020800002D0052800D02FE10023274927482B70D4
:1020900002F0B8FC28E1C046580500202DC300001E
:1020A000E5CB0000E7CB0000ECCB0000B410002033
:1020B000F2CB000034010020FFCB000008CC000070
:1020C00017CC000032010020B310002027010020AF
:1020D000A4100020B51000202C010020681500205D
:1020E000A81000203C1500202E010020B010002078
:1020F000181E0020FD00000022CC000026CC0000AD
:102100002A010020E20400004C1500209FCC0000B2
:10211000AD100020A91000202BCC00008813000077
:10212000281500203BCC00006ACC000020210020B4
:10213000DC4B1B78002B59D0FA260925B60020006D
:1021400002F014F80221200001F0C4F9D64B290056
:1021500023610A22200002F0B6FC200002F060F9A0
:10216000300004F061FD013DE9D20025CF4ED04999
:10217000300002F047FCFEF745FE200001F0F6FFBC
:10218000CC492561200002F02CFC80235B032361F5
:10219000C949200002F025FC200002F041F9FA2094
:1021A000C00004F041FD200001F0E0FFC3492561BB
:1021B000200002F016FC80235B032361C04920004D
:1021C00002F00FFC200002F02BF9B64BBD493000A5
:1021D0001D7002F017FC0820FEF706FC200001F03D
:1021E000C5FFAF21B848890000F072FBAD4B1B78EA
:1021F000002B01D1FFF746FBFEF700F8B34C012698
:10220000200001F0B3FF0221200001F063F9202239
:10221000AF4B200023610092002240231100019661
:1022200000F031FEA349200002F0DBFB200002F0A9
:10223000F7F80720FEF7D8FBFA200025800004F00D
:10224000F3FCA449380002F0DDFB200001F08EFF12
:102250002561A149200002F0C4FB0123B619290021
:1022600002960195009310225833200001F0A0F847
:102270000296013E01954E23102234212000009643
:1022800001F096F8200002F0CBF8944D2E70072054
:1022900005F05AF80028FAD0042005F055F8002877
:1022A000F5D0032005F050F80028F0D0AF26B60096
:1022B0002B78002B00D13BE7FEF7F8F8884B18800D
:1022C000092802D0042800D0D9E60023754A8549A0
:1022D00076482B70137002F095FB200001F046FF4A
:1022E0003100794800F0F4FA200002F099F8DFE7B5
:1022F0007B4B00229B5E012B01D0FFF7C3FA7A4A89
:102300007A49137086E6032C00D060E1784E33786A
:10231000002B41D18025774B6C4C18882D03103849
:10232000042800D9ADE005F069F944035E78920015
:10233000200001F01BFF02212000256101F0CAF8F6
:102340006D49200002F04DFB200002F069F86B4B54
:1023500000229A5E6A4B0021595E6A4B0020185E8B
:102360001123FEF703FD0021674800F0BFFA674C18
:10237000002804D0FA212000890000F0A9FA0021E9
:10238000200000F0B3FA002801D001233370337825
:10239000002B01D1FFF776FA00235D4A13705D4AE6
:1023A00013805D4A13805D4A1380FEF79BFCFFF7A4
:1023B00069FA200001F0DAFE02212000256101F017
:1023C00089F85749200002F00CFB200002F028F8A1
:1023D0004A4B00229A5E4A4B0021595E494B00202D
:1023E000185E1023BDE7200001F0C0FE022120008E
:1023F000256101F06FF84B49200002F0F2FA20004D
:1024000002F00EF83D4B00229A5E3D4B0021595ED2
:102410003C4B0020185E1223A3E7200001F0A6FE2B
:1024200002212000256101F055F83F49200002F00B
:10243000D8FA200001F0F4FF304B00229A5E304BB6
:102440000021595E2F4B0020185E132389E72000DE
:1024500001F08CFE02212000256101F03BF8334998
:10246000200002F0BEFA200001F0DAFF234B002228
:102470009A5E234B0021595E224B0020185E1423E4
:102480006FE7200001F072FE20002561022101F0BB
:1024900021F82749200002F0A4FA200001F0C0FF33
:1024A00061E7C046A91000201C000A00202100207E
:1024B0006ECC00004BCC000081CC000085CC00002D
:1024C0008BCC00008FCC00004C150020580500205C
:1024D0000A000A0050CC000061CC00005810002017
:1024E0002401002067CC0000AF100020A7CC000022
:1024F00026010020A6100020AFCC000034010020EF
:102500007A100020D6140020341500204415002035
:10251000AE1000207E10002084050020E60E002072
:10252000B4CC0000B9CC0000BECC0000C3CC00008D
:10253000E2CC0000B04B002D00D0B6E000229B5E44
:10254000062B01D0012B17D1042323800023AB4A93
:10255000AB491370AB4A38003370137002F052FA73
:102560000620FEF741FAA849A84800F0B1F9FA217F
:10257000A748890000F0ACF9A64B1B78002B26D0A9
:102580000323238000249F4BA34938001C70347020
:1025900002F038FAFA21A14B4900A1481C7000F062
:1025A00097F9FDF7B9FE2000FEF7F8FF0C20FEF7C3
:1025B0001BFA9C4B18881038042808D805F01EF820
:1025C0006B036D6F73009849380002F025FA974B42
:1025D0001A78974B002A00D0E2E000221A701C788B
:1025E000944D002C00D1E8E02A88131C782A00D8EA
:1025F000DDE0782398B22B80FDF786FD00210D20C9
:1026000004F076FEFFF720F8FA212A888A4B890029
:102610008A48DA8100F06AF9002814D0E122884C57
:10262000920023680133236093420CD1854D2B78AF
:10263000002B00D1CFE08449380002F0E3F90023F9
:102640002B7000232360FDF731FF6B4B188004F0E3
:10265000BBFA7E4C206004F0B7FAFA217C4B89006B
:1026600018607C4800F042F9002807D07A4B7B497B
:102670001A68380001321A6002F0CEF9784B2268ED
:102680001B68D31A774A934201D9FFF763F804F025
:102690009BFA2060F2E7744996E7744994E774491D
:1026A000380002F0B9F973498EE7042D3BD10021BF
:1026B000714A117000229B5E062B0BD16F4B1B7869
:1026C0008B4221D00920FEF78FF9FDF771FE012220
:1026D0006B4B1A706B490B78002B00D177E7002306
:1026E000012269480B700370684833700370684BAF
:1026F0006849380022801A7002F08EF9FA21664883
:10270000890000F0E5F862E701223C4932700A7066
:10271000624A380062492380137002F07DF9052077
:10272000FEF762F9D6E7012D1FD15E4A1378002B20
:1027300000D14CE702232380002313705A4A3370E0
:102740001580514A59491370504A38001370584B3C
:102750001D7002F061F9FDF751FD494B1D70FDF749
:1027600063FDFA2153488900CBE7032D00D02EE703
:10277000284B1B78DBB2002B00D028E704222280F4
:102780001E4A4D4938001370337002F045F91E4956
:102790001E4800F09DF80122394B1A70FFF798F897
:1027A000164A1278002A00D117E7012216E792B2E2
:1027B000322A00D31EE732231CE701210D2004F04A
:1027C00097FD3E4B20001C803D4B1C803D4B1C80E8
:1027D000FEF748FF18E73C49380002F013F90420DF
:1027E000FEF752FAFEF77EFA3849380002F00AF98D
:1027F00027E72B78FFF703F8240100208615002037
:10280000C9CC0000B1100020307500004015002038
:1028100058150020AE100020D8CC00002601002062
:1028200034150020A6100020E8CC0000121500206E
:10283000D410002034010020D8100020641500209E
:102840008C100020AB10002096CD00001815002041
:102850001C1500205015002088100020D5CD000048
:102860001415002087130000F9CC00000CCD0000E7
:1028700027CD000041CD00005E100020AC100020EC
:1028800036010020B4100020B3100020B510002045
:102890002E01002064CD00003C150020B710002060
:1028A00055CD0000AF1000202C01002075CD000098
:1028B000AD1000204815002086CD00007E100020BD
:1028C00084050020E60E0020ADCD0000C1CD000043
:1028D0000B005A1E934170B505000C1E837004D086
:1028E00004F06CF9013C2018288070BD70B5847824
:1028F00005000E00002C0AD0048804F05FF9074B95
:10290000201A80B20024984205D94042C4B2310056
:102910002800FFF7DDFF200070BDC04660EA000020
:1029200000207047F8B505000E0017000024BC42D7
:1029300008D02B68315D1B6828009847002801D01B
:102940000134F4E72000F8BD70470300FC33196A36
:10295000DA69914203D01B6AC018007E70470120DB
:102960004042FBE70300FC33D8691B6AC01A01D55B
:102970000130FF3070470000F7B50193FA2380263D
:10298000002504009B008360124B760008330F0083
:1029900045602900009203603200183006F01AFEEC
:1029A00023002000FC332130DD6132001D6229004C
:1029B000FF3006F00FFE87239B00E3185D609D60EB
:1029C0006B461B78276123756B461B79A575200024
:1029D0006375FEBDECCD000070B5060018250C49EE
:1029E000006902F025FB306902F076F92B0008211E
:1029F000307D084C4343E318595604F0BDFC0821D0
:102A0000707D45436419615604F0B6FC70BDC04644
:102A1000A086010020DA000070B504000D000069F6
:102A200002F06FF92900206902F002FB206902F030
:102A300053F970BD8A2300229B00C1540C3BC3187C
:102A40005A609A60012383757047020010B5FC320A
:102A5000536894680133DBB29C4202D0546801553C
:102A6000536010BD002210B5837D93420DD08723A3
:102A70009B00C4186368A4680133DBB2A34204D08E
:102A80002130FF30FFF7E1FF0122100010BD0300ED
:102A9000FC3399685A68914206D09A68805C9A68BB
:102AA0000132D2B29A60704701204042FBE7002217
:102AB0008A2370B59B00827505000E00C15C006919
:102AC00002F052F9002806D10321286902F036F9F4
:102AD0000224200070BD872328009B00EA18536859
:102AE00094682130FF301C1B01D50134FF34002CC9
:102AF0000ED02C69FFF7CBFFC1B2200002F072F9B3
:102B00000028E8D10321286902F018F90324E0E73E
:102B1000002EDED00321286902F010F9D9E710B5A4
:102B20000121FFF7C4FF10BD10B51830FFF7AFFF4C
:102B300010BD70B50400006902F074F9002814D0CB
:102B4000206902F07DF9002810D0206902F0ECF82D
:102B50000321206902F0F2F88C239B00E558002D38
:102B600039D10023FC34E361236270BD206902F097
:102B700071F9002809D0206902F067F9002804D013
:102B8000206902F06CF90028DFD0206902F062F9B8
:102B9000002826D1206902F04EF90028E5D02069EE
:102BA00002F05DF9002837D087239B00E2185368B4
:102BB00092689B1A01D50133FF33FF21002B05D00A
:102BC00020002130FF30FFF762FFC1B2206902F020
:102BD0001BF9A075C9E7236820001B699847A8471F
:102BE000BFE7206902F0A0F82069032102F0A6F8EF
:102BF000206902F034F90028B7D0872300229B0017
:102C0000E3185A609A600123A3758B239B00E35855
:102C10009342AAD09847A8E72200FC32D369126AEF
:102C20000133DBB22069934206D102F074F803212C
:102C3000206902F083F898E702F016F901002000FD
:102C40001830FFF702FF206902F06EF8EFE700008E
:102C500010B50248FFF76DFF10BDC0468815002073
:102C600010B51523142202490248FFF785FE10BD56
:102C700028240020881500200822074B000509059C
:102C8000090D000DD884998499880A439A805A7E48
:102C9000D209FCD17047C046004000427047F0B5F1
:102CA0001D0089B00EAB00241C5F0FAB1B88160003
:102CB0000693A31ADA179B18534002936B1ADA177C
:102CC0009B1853400393039A029B0190934205DCA7
:102CD00023002C001D0033000E001900A64205DC65
:102CE0002B000D001900230034001E00331B9BB283
:102CF00004934B1BDA179B18534007936B46102223
:102D00009A5ED30F9B185B10009301238D4221DA4A
:102D10000593B44224DC019B039A1B689B691F0046
:102D2000029B934218DD22002900069B0198B847B8
:102D3000009B079A9B1A9BB21AB20092002A06DAED
:102D4000059AAD18049A2DB2D3181BB20093013422
:102D500024B2DEE75B42DBE7069B2A002100E5E7C1
:102D600009B0F0BD704710B504682469A04710BDD4
:102D700037B506AC258804680095A46BA04737BD1D
:102D800037B506AC258804680095E46BA04737BDCD
:102D900073B506AC0025655F07AC2688046801960C
:102DA0000095246CA04773BDF0B5160004000D001B
:102DB00085B003930AAB1F8803685B699847039B40
:102DC0002268013B9B191BB200930197976A2B0065
:102DD000320029002000B84723682000DB6A9847AA
:102DE00005B0F0BDF0B505001C000E00170085B061
:102DF0000AAB1B88013C03930368A4195B699847DD
:102E000003992A680191009723B23100946A28003F
:102E10003A00A0472B682800DB6A984705B0F0BD50
:102E2000F0B50E0087B003930CAB029200229B5EBC
:102E3000050004930DAB1B883400059303685B69A0
:102E40009847039A2B68B21894420ADA059A21002F
:102E500000921F6A029A049B28000134B84724B2EA
:102E6000EFE7DB6A2800984707B0F0BD13B5019182
:102E70000E24015F0C22835E02680091146C002214
:102E80001100A04713BDF0B5040015000E0087B077
:102E900004930CAB00229B5E05930DAB1B88039340
:102EA00003685B699847039A236800925F6A2A0067
:102EB000049B31002000B847059B03995A1E2368E4
:102EC000009152195F6A3100049B200012B2B8478A
:102ED000039A236800921F6A2A00059B3100200094
:102EE000B8470499039A236801390092891909B2F5
:102EF0001F6A2A00059B2000B84723682000DB6A70
:102F0000984707B0F0BD7047F0B585B01E000AAB1A
:102F10000027DF5F0BAB1B881400050002910393B1
:102F20000268B14210D1BC4202DC3B0027001C0009
:102F3000039901340091E31B966B1BB23A0002998E
:102F40002800B04705B0F0BDBC4211D1029BB3428E
:102F500002DC3300029E0293029B0399013300912D
:102F60009B1BD76B1BB2220031002800B847E9E752
:102F700053699847039A2B68019200979F6A28002B
:102F8000330022000299B8472B682800DB6A984773
:102F9000D8E70323194010B50822835E81760A24FE
:102FA000025F012904D0032902D08381C28110BDB0
:102FB0008281C381FBE700004281C281012252422B
:102FC00042610222002310B5FF32074C0283013A0E
:102FD0000834FF3A43600460018181810361837694
:102FE000C2760377036210BD10D30000F0B58DB038
:102FF000079312AB029200229B5E0691039313ABE0
:1030000000229B5E0400089314AB1B88099315AB48
:103010001B880A9303685B6998470722039B029FFA
:10302000D91DCB1713405B18DB10049300231D0040
:1030300000930B92029ABBB205939B1A089A1BB29B
:103040009A422CDD0023039A93421FDA9AB201922E
:103050000B9A6D0099B2EDB2114204D1079A009912
:10306000DB105218D55C2368019A9B691E00069BF1
:10307000D1186AB209B2099B002A00DB0A9B3A0008
:103080002000B047019E013633B2DCE7049A009B72
:103090009446059F6344013700933FB2CAE7236813
:1030A0002000DB6A98470DB0F0BDF0B585B00AACE2
:1030B0000025645F0BAD0026AD5F0DAF0CAE36880A
:1030C0003F880296039701950094FFF78FFF05B0A4
:1030D000F0BD0000F0B595B01D001AAB1B880400D0
:1030E00005931BAB1E881CAB1B78089103931DAB8B
:1030F0001B7804920293036A002B00D0C4E00C22D8
:10310000835E8B4200DC7DE00E22835E049A934254
:1031100078DD0623039A53435B18002B72DD029B74
:10312000049ADB009B18002B6CDD037F002B03D17E
:10313000AF2D01D90135EDB2236820005B699847B6
:1031400005235D430B9300230793984B5B190F9363
:10315000079A0F9B9B5C0A936B469B8B09936B466C
:103160009B890D936B460D9A1F8C099B5343FB184B
:103170001BB20E9308230C930023069301220A9B93
:103180002068134252D06B461A8B198A039B012B7D
:103190003AD1029B012B37D1099B52188569D91965
:1031A000059B12B209B22000A847069B01335BB20F
:1031B00006930A9B5B080A930C9B013BDBB20C93C2
:1031C000002BDBD1079B01335BB207930B9B013BC9
:1031D000DBB20B93002BBBD1059BB3420ED0039BFC
:1031E0002268012B3FD1029B012B3CD10537009671
:1031F000156A39B20733049A2000A84723682000D3
:10320000DB6A984715B0F0BD6B460C255B5F029DED
:103210006A438A18059912B2019169460825495FE7
:103220000091C5690E992000A847BEE7059BB342EF
:10323000BBD06B46198B1A8A039B012B0AD1029BC8
:10324000012B07D1099B5218D91912B209B285690D
:103250003300A8E76B460C255B5F029D019669432E
:10326000521812B2D9E76B460C215B5E05210D980E
:103270000196414302987918C0000090D56909B2BF
:10328000049A2000A847B9E71A7AAD1AEDB25A6835
:10329000ED001B68551913932B880993AB780D9398
:1032A000EB7811930523EB560E930623EB560F9301
:1032B000039B012B02D8029B012B56D96B46382267
:1032C0009B5E0B936B463C229B5E0C93002723680E
:1032D00020005B69984707970697119B069A9A42C8
:1032E00000D38BE76B461B8A00260A930C9B9B1826
:1032F000029A53430A9AD3181BB210933B000D9ABB
:1033000096424BD25A1CD2B212920722134207D1D4
:10331000099B0999139A0133525C9BB20792099356
:103320006B461B7F5BB2002B17DA6B46198C039B35
:103330002068012B1DD1029B012B1AD10A9B0F9AE9
:103340009A18069BD2180E9B12B2C9188369891964
:103350001D0009B2059B2000A847079B01365B00B2
:10336000DBB20793F6B2129BC9E700230C930B93D1
:10337000ACE76B460C229B5E0B9A039D92196A4345
:103380008918059A09B201926A460825525F00928F
:10339000C26920001500109AA847DEE7069D0D9B24
:1033A0000135FF18EBB2FFB2069396E710CE00008E
:1033B0007FB508AC258809AC26880AAC247801962C
:1033C000009503940294FFF785FE7FBDF0B5026A75
:1033D00085B004000D00002A2CD10A2908D1437EB3
:1033E0000282DB00628A9B186382012005B0F0BD77
:1033F0000D29FAD01223C25E1023C15E437E0393CF
:10340000037E0293C38A0193838A00932B00FFF704
:1034100061FE227E238A312D08D1042A02D1133382
:103420002382E2E7032A01D10E33F9E706214A435A
:103430009B18F5E70A2905D100230382127B437EFE
:103440005343CFE70D29D0D0137A9942CDD3917A47
:10345000A942CAD3EB1A5168DBB2DB00CE18B178AF
:10346000002929D0F378002B26D0E37E007E677EEA
:10347000002B13D00523F3565B1843439C461023BF
:10348000E15E8C440C23E15E8C4507DD1223E15E96
:1034900000232382137B7B435B1863821223E25E4B
:1034A0001023E15EE38A02900193A38A03970093BD
:1034B00020002B00FFF70EFE227E33795343228A31
:1034C000B6E7002900D101310176002A00D101328E
:1034D0004276704710B50A00FFF7F3FF10BD0000F9
:1034E0000378034A9B009B58002249331A707047A7
:1034F00010180020F0B5040085B01E000AAB1B7840
:10350000103001930BAB1B78170002930CAB1B78A8
:103510000D00039300F096F92000243000F092F99A
:10352000220000234832A363E363236463641370BF
:10353000537063729D4205D10A4B0B4A22210B48FE
:1035400005F09CFF6B461B79200063716B461B7A6C
:103550002560E3716B461B7B2771A671237205B052
:10356000F0BDC046B0D3000023D40000C1D300009A
:1035700030B5040085B002AD00680291039201F0FD
:1035800066FB6B79227AE17900932068002301F0D1
:1035900025FD2979029A206801F07EFB206801F060
:1035A0004CFB05B030BD000007B5837A0091019255
:1035B000002B07D09A070AD5EFF310835A425341E4
:1035C000C37272B60099019AFFF7D2FF07BDDB07FD
:1035D000F8D5C368014A9BB29360F3E70018004036
:1035E00010B5006801F03CFB10BD000010B500688C
:1035F00001F048FC0023984203DB0C335843024B94
:10360000C358180010BDC04668D3000010B500684C
:1036100001F038FC002805DB0C2343430348C018A5
:10362000406810BD01204042FBE7C04668D300005F
:1036300010B5006801F026FC002805DB0C2343438D
:103640000348C018806810BD01204042FBE7C04617
:1036500068D30000F0B50600103689B005003000D0
:1036600000F048F9002869D12F002437380000F015
:1036700041F9041E5FD12800FFF7DAFFC1B2300024
:1036800000F01AFA0221300000F03AFA2C49012227
:10369000300000F00DFA2B7C2A4A9B0028009D5038
:1036A000FFF7B4FFC1B2380000F006FA022138007B
:1036B00000F026FA6B1DDB7F224A9B0028009D50FC
:1036C000FFF794FF012301002200029304942300DA
:1036D000039401940094300000F036FAA8632800A7
:1036E000FFF784FF012302000193210023000494CB
:1036F000039402940094380000F026FAE863402016
:1037000005F026FF2A0048322864079200280BD0D3
:103710000123137068646B6C10221819E96B103464
:1037200005F03CFF402CF6D1079B1B78002B05D100
:10373000380000F079F9300000F076F909B0F0BDFA
:10374000E13400001018002070B5437A0400002B0B
:1037500004D18372C372C3600133437223004833C0
:103760001B78002B02D12000FFF774FF18263300CE
:10377000082120790D4D4343EB18595603F0FCFD09
:1037800033000821A0794343EB18595603F0F4FDA8
:10379000082160794643AD19695603F0EDFD044BED
:1037A000200006CBFFF7E4FE70BDC04620DA000023
:1037B000081800201FB5094A094B0A491360002365
:1037C0005371137102930133019316330093162240
:1037D00001330548FFF78EFE05B000BD0818002034
:1037E00000093D002C240020BC170020084B19685C
:1037F000002909D1EFF31080064A002803D172B6E0
:10380000BFF35F8F013111701A6801321A6070477F
:10381000C8190020C4190020084B1A68002A0CD0CF
:103820001A68013A1A601B68002B06D1044B1B78FA
:10383000002B02D0BFF35F8F62B67047C81900201B
:10384000C4190020FF23002110B504000370FC3BC5
:1038500041708170C170017143710C22083005F014
:10386000B9FE200010BD000001220B0010B513406E
:1038700008D00D4B1A70042343708368002B00D0CE
:10388000984710BD0222114204D007490A704370C4
:10389000C368F3E704231942F3D0034A13700333D8
:1038A00043700369EAE7C0464E48004110B5FFF790
:1038B0009DFF0C4B1B8C1B071B0F0B2B0FD80A4AB1
:1038C0009900885800280AD00F2408490A78A24392
:1038D00013430B70064B1978C9B2FFF7C5FFFFF70A
:1038E0009BFF10BD00480041CC1900203F4800411B
:1038F0004E480041F8B500230278050018000B2A55
:1039000077D93C4E2B702B780B2B07D801229A408D
:103910003168114204D001332B70F4E7012068E0D4
:10392000FFF764FF3768344C002F2BD12022334B34
:10393000334859690A435A611022D9690A43DA6146
:10394000022223883900934323802388013A1343BA
:1039500023802C4B6063BF32A36305F03BFEC02283
:103960003900284805F036FE4022C120264B800051
:103970002380264B26491A601A581140C02212048F
:103980000A431A5001231A00297830688A400243FA
:1039900032600F261F4A880085501F483140027848
:1039A000B2430A43027002201C4A1178814311700D
:1039B000117819431170297822698B409A4322614A
:1039C00060223F21636C934363642A79636C0A40ED
:1039D000134912020B400321134363646A79636C39
:1039E0000A40104992050B4013436364FFF714FF2C
:1039F0000020F8BDC019002000480041000400402C
:103A00000019002040180020020F000000E100E033
:103A1000FFFF00FFCC1900203F4800414048004113
:103A2000FFC0FFFFFFFF3FFF70B50500FFF7DEFEA1
:103A30006B785BB21C00062B2BD02B7802240B2B4F
:103A400027D801229A40154B1968114221D01968D4
:103A5000914319601B68002B14D14022104BDA6788
:103A6000BFF34F8FBFF36F8F21000E4A0E311388C3
:103A7000A34313800C4BDA698A43DA615A69103127
:103A80008A435A6100242B78084A9B009C50FF23EC
:103A90002B70FFF7C1FE200070BDC046C01900208A
:103AA00004E100E00048004100040040CC1900207F
:103AB000023292001150704770B5050029710378E9
:103AC0000C000B2B14D8FFF791FE29780F2509481D
:103AD00029400378084AAB430B433F210370536CE2
:103AE0000C40064924020B401C435464FFF794FE2B
:103AF00070BDC0463F48004100480041FFC0FFFF85
:103B000070B50500697103780C000B2B14D8FFF712
:103B10006DFE29780F25094829400378084AAB43F0
:103B20000B4303210370536C0C400649A4050B4062
:103B30001C435464FFF770FE70BDC0463F4800410F
:103B400000480041FFFF3FFFF0B587B001930CAB89
:103B50001E780DAB1B78050002930EAB1B78007826
:103B6000039310AB049105921F780B2802D9002013
:103B700007B0F0BD6B78062BF9D0AB78002B00D1E5
:103B800078E01021080005F0D9FC0028EFD02B7850
:103B90003A4A1B019B181A00D168002904D0D16849
:103BA0008B4201D0D268F7E7D06001230221AB70CD
:103BB0009E4203D04918022E00D019000624028824
:103BC0001A4302800288A243028002881234A24370
:103BD0000280153C02882640294C360222401643BA
:103BE0000680029E0288274C1E402240B6021643E1
:103BF0000680039E0288244C1E402240F602164393
:103C000006800288214E3B4032401B0313430722AB
:103C100003800F9B1A4003885203DB04DB0C134321
:103C200003806B469B884380049B4360029B002B70
:103C300008D0019B42684B43002F01D00F9CA3404A
:103C4000D3184360059B8360039B002B08D0019C25
:103C50004C438168002F01D10F9B9C400C1984605C
:103C60000023EA789A4203D02B78044A1B019B1860
:103C7000C3607DE7014B0001C01896E700190020E2
:103C8000FFFCFFFFFFFBFFFFFFF7FFFFFFEFFFFF63
:103C900070B5140004AA1588827E022A3AD0032A3D
:103CA00000D16FE0012A3DD1E2430489A41824B277
:103CB000002C2EDB0826825FA2422ADD002902DAD0
:103CC0005B1800211BB20A22825EC818904201DDF7
:103CD000531A1BB2002B1CDD0720C9B2CA0892017F
:103CE0001419644ADBB2A41801405CD00130401AB8
:103CF000614AC0B2125C834200D3B2E0FF21C61A0F
:103D000031410A40012D42D0002D44D0022D00D176
:103D1000ADE070BDE2434489C918A418028924B2F9
:103D2000511A09B2002CF4DB0A26825FA242F0DDB0
:103D3000002902DA5B1800211BB20822825EC81833
:103D4000904201DD531A1BB2002BE2DD0726E0177B
:103D500030400019C0108001411801203440A040BB
:103D6000444AC0B28A18012D65D0002D6DD0022DB5
:103D7000CFD1013B1BB2591CCBD0117841401170FF
:103D80000132F6E74289C918511A09B290E7217841
:103D90000A43227002E02178914321708342B8D314
:103DA0001B1ADBB24034072B2ED9022D16D121006D
:103DB0001A000878083AC043D2B208704031072A86
:103DC000F7D81A000721083AD2B2D208013292017C
:103DD000A4180B409DD0294AD35C21E06A1E5142B1
:103DE0004A41200019005242D2B20839C9B20270C9
:103DF00040300729F9D81A00083AD2B2D208013265
:103E00009201A41807221340002B00D181E71B4A1E
:103E1000D35C012D07D0002D09D0022D00D078E70A
:103E20002278534001E022781343237071E722780F
:103E30009A4322706DE7013B1BB2591C00D168E721
:103E40001178014311700132F5E7C043C0B2013B64
:103E50001BB2591C00D15CE711780140117001328E
:103E6000F5E7012D93D0002D95D0022D98D1217822
:103E70004A408EE7470100203F0100203701002023
:103E800070B50C0004A90D88817E02293CD003295D
:103E900078D0012940D10189D2188A1A12B2002C97
:103EA00000DAD9E00A26815FA14200DCD4E0002AD2
:103EB00002DA9B1800221BB20821415ED01888420A
:103EC00001DD8B1A1BB2002B00DCC5E00726E017D2
:103ED00030400019C0108001821801203440A040F9
:103EE0006249C0B25118012D51D0002D58D0022D79
:103EF00000D0B1E0013B1BB25A1C00D1ACE00A7803
:103F000042400A700131F5E7E1430489D218641890
:103F1000418924B28A1A12B2002C00DA9CE00826E9
:103F2000815FA14200DC97E0002A02DA9B180022A0
:103F30001BB20A21415ED018884201DD8B1A1BB2E8
:103F4000002B00DC88E0D2B2D10889010C19474966
:103F5000DBB2641807210A4039D001318A1A44497A
:103F6000D2B2895C934200D377E0FF20D61A304169
:103F70000140012D1FD0002D21D0022D6CD12078C1
:103F800041401AE0E1434489641824B287E7013BC9
:103F90001BB25A1C60D00A7802430A700131F6E75E
:103FA000C043C0B2013B1BB25A1C55D00A78024034
:103FB0000A700131F6E720780143217002E0207891
:103FC00088432070934247D39B1ADBB24034072BBF
:103FD0002ED9022D16D121001A000878083AC043C4
:103FE000D2B208704031072AF7D81A00083AD2B284
:103FF000D20801329201A418072213402CD01D4A86
:10400000D35C1FE06A1E51424A412000190052420F
:10401000D2B20839C9B2027040300729F9D81A0063
:10402000083AD2B2D20801329201A41807221340F2
:10403000002B11D00F4AD35C012D06D0002D08D0E3
:10404000022D09D12278534001E0227813432370D6
:1040500002E022789A43227070BD012DABD0002D72
:10406000ADD0022D00D18AE7AEE7C046470100205F
:104070003F0100203701002030B500291BDB0C2553
:10408000445F8C4217DD002A15DB0E25445F944205
:1040900011DD847E022C0FD0032C16D0012C04D10C
:1040A000D243008980180A0001B2012B13D0002BE3
:1040B0001FD0022B2DD030BD0489013C611AD4439E
:1040C000428909B2121912B2EFE740890138401A49
:1040D000110002B2E9E70724D017204080182240DF
:1040E0009340C010800141181148425C134343546F
:1040F000E1E70720D31703409B18DB109B015918F9
:104100000123024093401A00094C635C93436354BB
:10411000D1E70720D31703409B18DB109B015918E8
:10412000012302409340024C625C5340EFE7C046DB
:104130004701002070B504000D0020224021FEF749
:104140003BFF094BFF220833236023002A331A70F8
:104150002200012328325B42E384137023002933B9
:104160001D70200070BDC04678D40000802210B5BC
:1041700052000021014805F02DFA10BD4701002032
:104180000300F7B52B331B7806000F00002B03D07C
:104190001148FFF725FAF7BD0824802533001F20BA
:1041A000083301931856002103F0A2F829001F20BC
:1041B000F31D39401856002900D0012103F098F86A
:1041C0001F20019B01211856013C03F091F86D0856
:1041D000002CE3D1DFE7C046BC17002070B5C31D3B
:1041E000DB7F04005BB20D0001331AD00600002013
:1041F0002A363056012103F07BF828200021205672
:1042000003F076F800200021305603F071F8290001
:104210002000FFF7B5FF00200121305603F068F8B9
:1042200070BD0534E17F084C2000FEF703FC00213F
:104230002000FEF717FC29002000FEF713FC2000E9
:10424000FEF76DFCECE7C04688150020F0B585B0A0
:104250000093831DD977431DDA771F23C71DFB56B3
:1042600004000D00013300D1C8E003002020083312
:1042700001931856012103F00BF826002A20012192
:1042800020562B3603F004F83378002B0AD11F2078
:104290000121385602F0FCFF1F20019B0121185616
:1042A00002F0F6FF3378002B0CD0594E3000FFF7A8
:1042B0004BFA002302AA537113715649039A300036
:1042C000FFF772F9009B002B1DD026000020293635
:1042D0003056002817DB012102F0DAFF002001210F
:1042E000305603F005F8012002F09EFC002000216A
:1042F000305602F0FDFF0A2002F096FC002001215A
:10430000305602F0F5FFAE212000FFF767FFD52100
:104310002000FFF763FF80212000FFF75FFFA82147
:104320002000FFF75BFF1F212000FFF757FFD3217D
:104330002000FFF753FF00212000FFF74FFF40212F
:104340002000FFF74BFF8D212000FFF747FF1021D2
:10435000012D00D014212000FFF740FF2021200074
:10436000FFF73CFF00212000FFF738FFA1212000CC
:10437000FFF734FFC8212000FFF730FFDA212000CB
:10438000FFF72CFF12212000FFF728FF81212000DA
:10439000FFF724FFCF212000FFF720FFD9212000C5
:1043A000FFF71CFF2221012D00D0F1212000FFF793
:1043B00015FFD9212000FFF711FF2221012D00D088
:1043C000F1212000FFF70AFF2000DB21FFF706FFA5
:1043D00020004021FFF702FF2000A421FFF7FEFE8E
:1043E0002000A621FFF7FAFE20002E21FFF7F6FE9F
:1043F000AF212000FFF7F2FE05B0F0BD064E300001
:10440000FEF7EAFA05493000FEF706FB5AE7C04618
:10441000BC17002000127A0088150020801A0600C0
:10442000F8B505002121FFF7D9FE20212800FFF76C
:10443000D5FE5F212800FFF7D1FE22212800FFF7DB
:10444000CDFE00212800FFF7C9FE03212800FFF759
:10445000C5FEEB1DDB7F00245BB2013320D02E00B4
:1044600000202A363056012102F042FF2820012187
:10447000285602F03DFF002021003056802702F030
:1044800037FF7F00154B2800195D0134FFF778FED8
:10449000BC42F7D100200121305602F029FFF8BDBF
:1044A0000F4E6B1DD97F30002700FEF7C3FA402165
:1044B0003000FEF7D7FA1037BFB2084B3000195D55
:1044C0000134A4B2FEF7CEFABC42F6D13000FEF7BA
:1044D00026FB80235B009C42E2D1E0E747010020FD
:1044E0008815002010B5054A0549064800F010F867
:1044F0000022054B05491A705A5410BD01040000F2
:1045000000D50000001E0020FC190020020400005D
:1045100030B5094D094CAB685B035B0F9B001C5920
:104520000460AB6801619BB243606343A400836095
:10453000C460426130BDC0460040004100DA000066
:10454000F7B580261A4D01916F6803333E439B08EF
:104550006E60002B2BD0174E2E802E7DF107FCD5E0
:104560001E000768991BBF088F4219D9002E17D06B
:10457000FF2117788C433C430F4957780C403F028A
:104580003C439778013E39040C4F2740D478BFB2A2
:104590000F43240601993C4310C101910432E0E726
:1045A000074B2B802B7DDB07FCD53300D1E7F7BD14
:1045B0000040004144A5FFFFFF00FFFFFFFF00FF99
:1045C00004A5FFFF044B054A4908D9611A801A7DEA
:1045D000D207FCD57047C0460040004102A5FFFF4E
:1045E00070B504000D001600E36829002000B342F6
:1045F00005D2FFF7E7FFE368ED18F61AF4E7FFF7D7
:10460000E1FF70BD10B510001A0004F0C7FF10BD27
:10461000114B12495A880A405A805A78D209FCD163
:104620000F4A5A805A78D209FCD10E4A5A605A78F9
:1046300052B2002AFBDB8022596892030A435A6077
:104640005A7852B2002AFBDBC023074A9B0051680C
:104650000B4353607047C046000C0040FFBFFFFF94
:1046600005460000060301000040004170B51048F7
:1046700000F0D0FE0024A04203D10E4801F0DCF986
:10468000013402220C4B0D48196891431960042132
:10469000056929430161BFF34F8F30BF19680A4391
:1046A0001A60002C02D0034801F088F970BDC046A2
:1046B000542400207024002010E000E000ED00E011
:1046C00070B50400150008001A290AD9FF2907D17E
:1046D0000021200000F09AF82900200000F044F8A2
:1046E00070BD18244C430A49091916240C57621C42
:1046F000F6D0102CF4D01A00290002F095F8FFF73C
:1047000087FF0123A340034A51690B435361E7E745
:1047100020DA000000180040042310B5034A117E7F
:104720000B431376024B5B68984710BD0040004274
:10473000181E002010B5024800F004F810BDC04655
:10474000181E00200023037070470000044B10B5B2
:104750001B68002B00D098470122024B1A7210BD33
:10476000201E002000140040014B19607047C04615
:10477000201E0020094B0A4A9A605A7852B2002A39
:10478000FBDB084A5A605A7852B2002AFBDB064A21
:104790005A805A78D209FCD17047C046000C0040BC
:1047A0000204000002051100044200000221044B33
:1047B0001A888A431A809A7AD209FCD17047C04677
:1047C000001400400222044B19880A431A809A7A86
:1047D000D209FCD17047C046001400400122044BAE
:1047E00019880A431A809A7AD209FCD17047C046C8
:1047F000001400400121044B1A888A431A809A7AD7
:10480000D209FCD17047C046001400402023F7B500
:1048100000262A4A0F00916905000B439361284B3B
:10482000284A294C9A82B7420BD1284B3E001A786D
:1048300070231A4205D023881B0702D5012623695D
:1048400001932800FFF796FF2800FFF7AFFF28002D
:10485000FFF7C4FF63881E4A134063801D4B23800B
:10486000A37ADB09FCD1C0211B4A083313608900FD
:1048700053581B021B0A53500123E27913430722AA
:10488000E371237F93432377A37ADB09FCD12800CC
:10489000FFF798FF2800FFF7ADFF002F0BD1002E88
:1048A00009D0019B002B06D02361A37ADB09FCD140
:1048B00001332B70F7BD8423DB03F5E700040040D0
:1048C00000080040CE0600000014004038040040FC
:1048D000FFBFFFFF080A000000E100E010B502483A
:1048E00001F0ACFE10BDC046241E002010B50248E9
:1048F00001F0A4FE10BDC04620210020F7B5012420
:104900000326154F1549380000F001F914491548E0
:1049100000F0FDF81449154800F0F9F8144915485D
:1049200000F0F5F81449154800F0F1F8144D154958
:10493000280000F0ECF839000096230001940022D2
:10494000114801F00FFE0096290001941E231F223A
:104950000E4801F007FEF7BD1C24002000080042AD
:10496000000C0042202400200010004224240020DB
:104970000014004228240020001800422C240020AB
:1049800030240020001C0042241E00202021002092
:10499000F7B506000D000C008B180193019B671BF7
:1049A0009C4207D0336821781B6830009847013457
:1049B0000028F3D13800FEBD70B5040008000D00DA
:1049C00005F0DEFC2368020029005B6820009847A0
:1049D00070BD10B50B1E02D0FFF7EEFF03001800EC
:1049E00010BD10B5FFF7F5FF10BD10B503681B68CB
:1049F000984710BD10B50249FFF7DEFF10BDC04655
:104A000070DE000070B50400FFF7E3FF0500200032
:104A1000FFF7F0FF401970BD0EB410B5040097B059
:104A200019AB04CB502102A8019305F0DBFC02A9CD
:104A30002000FFF7CEFF17B010BC08BC03B018472A
:104A4000F0B58BB06B461500002205330600DA770F
:104A50000800012D00D80A2509AC290002F05EFEED
:104A6000CAB2130037330700DBB2092902D813009A
:104A70003033DBB2013C2370002FEED12100300037
:104A8000FFF7A7FF0BB0F0BDF8B506000C00151E30
:104A900004D10368C9B21B689847F8BD0A2A0CD133
:104AA00000290BDA2D21FFF7A0FF614207002A0041
:104AB0003000FFF7C5FF3818EFE7D2B22100300011
:104AC000FFF7BEFFE9E710B5FFF7DEFF10BD70B5D9
:104AD0000400FFF7D9FF05002000FFF78BFF401906
:104AE00070BD10B5002A04D10368C9B21B6898478D
:104AF00010BDD2B2FFF7A4FFFAE770B50400FFF7CC
:104B0000F0FF05002000FFF775FF401970BD016040
:104B100070479446F0B59E1E721E96416246056827
:104B200092072F6836063A4332432A60072505ACC0
:104B300024780068A4012940214342680024022B04
:104B400000D05C03114321434160F0BD30B5C02566
:104B50000368AD031C6812052A402243C0240904DF
:104B6000A40221401143196003685A6814435C6031
:104B700030BD0123026811680B43136003681A6893
:104B8000D207FCD4DA69D207F9D47047022302684D
:104B900011680B4313600268D3699B07FCD470470C
:104BA00003681A7ED20702D41A7E9207FCD570479A
:104BB000002203685A8370470368187E4007C00FBD
:104BC00070470368187EC0097047802302685B4203
:104BD000117E0B43137670470368588B8007C00F14
:104BE000704702230268518B0B435383704703685D
:104BF000187EC007C00F70470368188DC0B2704799
:104C000003681A7ED207FCD589B201201985704746
:104C1000012203689A757047012203681A7570476C
:104C20000123026811680B43136003681A68D207F6
:104C3000FCD4DA69D207F9D47047022302681168FC
:104C40000B4313600268D3699B07FCD47047036869
:104C5000DA699207FCD402211A688A431A60704705
:104C60000268936A5B0A5B021943916203681A7EC9
:104C70005207FCD5986AC0B27047000010B54900D1
:104C8000044802F0C5FC80B2002801D0013880B28F
:104C9000C0B210BD006CDC0270B54B080C000121E5
:104CA00005680B400C402E6824075B072343334301
:104CB0002B6011000468FFF7E1FF207370BD012332
:104CC000026811680B43136003681A68D207FCD4AA
:104CD000DA69D207F9D470470223026811680B43DE
:104CE00013600368DA699207FCD430215A8B8A4337
:104CF000110010220A435A830268D3695B07FCD46F
:104D000070470221026813688B4313600268D369FD
:104D10009B07FCD4704780230268DB02116851684E
:104D20000B43536070470000036803491A685A68D0
:104D30000A405A607047C046FFFFFBFF032230B5B0
:104D4000036811401C68074D5A6809042A40E406AC
:104D50001143640F5960052C03D10268D3695B07C6
:104D6000FCD430BDFFFFFCFF30B503680400588B56
:104D70008006800F022814D05D8B0020AD06AD0F99
:104D8000032D2ED0588B800705D55D8B0020AD06F6
:104D9000AD0F012D25D100205D8BAD06AD0F8542F5
:104DA0001FD04800596A1043C90AC0B2C902014362
:104DB00059622368002A08D11A7ED207FCD5588B85
:104DC0004007C30F012058400BE0187E8007C00F3A
:104DD000F5D11A7ED207F8D5C022596892020A434B
:104DE0005A6030BD0368283319700368187EC00705
:104DF000C00F03D15A8BD207F8D57047588B4007A4
:104E0000C30F01205840F8E703682833197003687E
:104E100000201A7E520704D5588B01234007C00F8B
:104E20005840704703681868C006400F0438434272
:104E30005841C0B270470368187E4007C00F7047E2
:104E40000368187EC007C00F70470368588BC00600
:104E5000C00F70470368187E8007C00F7047036853
:104E6000588B0007C00F704703681A68D206520FAC
:104E7000052A02D11A7E9207FCD528331878C0B2D1
:104E8000704700000368104A934213D00F4A9342C0
:104E900012D00F4A934211D00E4A934210D00E4ABC
:104EA00093420FD001200D4A4042934201D1063077
:104EB00040B270470020FBE70120F9E70220F7E746
:104EC0000320F5E70420F3E700080042000C00424D
:104ED000001000420014004200180042001C004272
:104EE000F8B5FFF7CFFF00282CDBC3001C48FF22DA
:104EF000C01805230479C35603201840C00082401F
:104F0000C021D2438140002B1DDB1F2501201D4005
:104F1000C026A840134D7600A851C0269B089B00D0
:104F20005B19B6009F593A401143995128603F23BD
:104F300023408024E4011C430B4B5C805A7852B21E
:104F4000002AFBDBF8BD0F200340083B07489B0805
:104F50009B001B18D86902401143D961E7E7C0469E
:104F600074DE000000E100E0000C004000ED00E015
:104F7000F8B504000F0016001D00FFF7B1FF200078
:104F8000FFF7F7FD1C21BB000B4071072268090CDD
:104F90000B431360842322689375012F1AD11021CB
:104FA000012E00D008390C4B69431868C00002F08C
:104FB0002FFB0722216802408B895203DB04DB0CA4
:104FC00013438B81226803049089DB0C400B400360
:104FD00018439081F8BDC046E4020020F7B50500F3
:104FE000019308AB1F780E001400FFF719FE28008C
:104FF000FFF776FFC022240592031440BA070C275E
:1050000017433C43C02707223604BF022B683E40AB
:1050100026431E60019B296813401A0080239B02CF
:1050200013434B602A68D3695B07FCD4F7BD0000CB
:10503000F8B504000F00FFF753FF2000FFF73FFE15
:105040001422236879001A600C4B25681E68300012
:1050500002F0DEFA0A490400300002F0D9FA7D239A
:10506000FA215843C90002F0D3FAFF23241AE86852
:10507000053C1C4098430443EC60F8BDE40200206A
:1050800040420F000221084B1A888A431A80DA7BBB
:10509000D209FCD101321A80DA7BD209FCD11A88FC
:1050A000D207FCD47047C04600340042074B10B50D
:1050B0001B780400002B08D0FFF7E4FF002120003C
:1050C00002F016F90022024B1A7010BD34240020A1
:1050D00050240020F7B504000E1E009202D1FFF705
:1050E000E5FFF7BD802350495B03504ACB67BFF310
:1050F0004F8FBFF36F8FC021C520490053504C4BD9
:105100008039FF39197080001358FE318B43190024
:1051100040230B4313504749474B598001925A781B
:10512000D209FCD1454B1B78002B05D0444B1868A5
:10513000A04201D0FFF7BAFF424B3100186802F0DD
:1051400067FA414A002394460427451E65450FD956
:10515000050019005A1CD540B943C9B2013D0329C5
:1051600002D0D2B2062A01D10233DAB21300EDE73F
:10517000013B0027092B02D8344A5B009F5A009B51
:10518000002B4CD0FA2158007043890002F040FAFD
:10519000002302002E492F4E0A604B60FFF772FF7A
:1051A0002023328813431F433780F37BDB09FCD174
:1051B000ADB23583F17BC909FCD118206043264A82
:1051C000264D83561218DB015F19254D2F60254DA2
:1051D0005B19254D2B60012553682A009A40234B0B
:1051E0001A601023727B13437373154B1A68A24223
:1051F00009D020001C6002F07BF82900200002F09A
:1052000047F80E4B1D700223328813433380F37B23
:10521000DB09FCD18023019A5B03136061E7012263
:105220005242D317B6E7C04604E100E000E100E0D7
:10523000342400201C400000000C004050240020BA
:105240006002002064020020FFFF0000A4DE0000D6
:10525000482400200034004220DA00001C440041B1
:1052600040240020144400413C2400203824002025
:10527000154B70B5186859680500144C0D4319D0CA
:10528000134A21681268116018685968002902DC05
:105290000AD1002808D01868596801246442E5172B
:1052A000001969411860596010230A4A917B0B4329
:1052B000937370BDFFF7E6FE074B22681B681A6008
:1052C000064B1D70F5E7C046482400203824002016
:1052D00040240020003400423C24002050240020C0
:1052E0003F20704713B56B460268D9710733546885
:1052F00019000122A04716BD10B50221006900F077
:1053000057FC10BD10B50321006900F067FC10BD0B
:1053100010B51300084A0400D279002A03D10123F2
:105320000020636010BD0A000069032100F04EFDFB
:105330000028F4D0F6E7C0466C02002010B5054CFA
:1053400023685A1C04D103685B69984703002060F6
:10535000180010BDB8020020074B0200186810B5F5
:10536000411C03D0012252421A6010BD0221106973
:1053700000F01EFDF9E7C046B802002010B5037822
:105380004222023303700249024800F0CBFD10BDF7
:10539000740200207024002010B5017802004378C8
:1053A0000020A12908D1212B05D107221649174831
:1053B00000F0B8FD012010BD2129FCD1202B13D114
:1053C00007221149114800F04DFC96220E4BD200E5
:1053D000196891420ED10124D87904400AD1FA20EB
:1053E00002F02CF80020E6E7222B06D19278064B3B
:1053F000DA71EAE702F028F8F4E7232BDBD15288D0
:10540000034B1A60D7E7C0466C02002070240020CE
:105410006802002010B501F0D1FBF423FF33002413
:10542000984207D9044B0A20DC79631E9C41E4B200
:1054300001F0FAFB200010BD6C020020FA220021CE
:10544000054B92009A60054A596008321A60044A76
:1054500019761A617047C04654240020B8DE000057
:1054600070240020704770B50F26CB1D0139020053
:105470003240D5B22C0000093034092A00DD07344F
:105480001C70013B8B42F2D170BD10B504008069E5
:1054900004F068F8A06A04F065F8200010BD10B5AB
:1054A0000400FFF7F2FF200001F00AFC200010BD0D
:1054B00070B5032908D1324B8000C058002802D0B3
:1054C0000368DB68984770BD82291FD1C3B22D4D98
:1054D0005A01AA1891692C4C80010C40C021890501
:1054E00021439161294908334018802150612A687D
:1054F0005B01D01804794942214301717020995C05
:1055000081430800302101439954DCE70029DAD1B6
:10551000C024C1B21B4E4A01B21893681A4DA405AB
:105520002B40234393601A4B8001C0180B0050603E
:105530003068072608335B01195CB1430E00012176
:105540003143195491690D402C43946170240F49E3
:105550005161195CA1430C00102121431954916839
:105560000C4CC3180C408021490321439160916881
:10557000890B89039160402259790A435A71A2E745
:105580007424002028290020FFFFFF8F9C24002086
:105590005C260020FF3F00F0EFF31083036001233F
:1055A000436072B670470368002B02D162B6BFF346
:1055B0006F8F704737B5056904006846002D14D118
:1055C000FFF7EAFF019B621D013B02D3D57FEDB2DD
:1055D000FAE768460193FFF7E6FF002D01D10020AE
:1055E0003EBD206AE369C01AFAE7FFF7D5FF220043
:1055F0000025019B3432013B02D31578EDB2FAE766
:1056000068460193FFF7CFFF002DE8D0206BE36AD7
:10561000E9E70000FF2130B54368164D1A6883683A
:105620000B405B01D21801235218947A23439372E2
:10563000836842680B405B01D418C268A368920477
:105640002B4012091343A360836842680B405B013F
:10565000D3189A68920B92039A6043681A68836819
:105660000B4008335B01D318402219790A431A71A1
:1056700030BDC046FF3F00F0F7B5036904000E00DF
:1056800017006846002B45D1FFF786FF019B611D7F
:10569000013B5A1C0CD0CD7F5A1EEDB2002D05D116
:1056A00068460193FFF77FFF2800FEBD1300F0E777
:1056B000684601930025FFF776FFE369AF420AD001
:1056C000226A9A4207D95A1CE261A269D3181B7850
:1056D00073550135F1E7226A9A42E5D10023E3616F
:1056E000013323616846FFF757FF22000021019B29
:1056F000671D013B3532581CD2D0F97710785E1EF9
:10570000002805D0117020000193FFF783FFECE71C
:105710003300F0E7FFF740FF2100019B3431013BEC
:105720005A1C06D00D785A1EEDB2002DB8D01300C9
:10573000F6E7684601930025FFF735FFE36ABD42AF
:1057400002D0226B9A421CD8226B9A42ACD1002321
:105750006846E3622361FFF71FFF27002200002154
:10576000019B3437013B3532581C99D03970107881
:105770005E1E00280DD0117020000193FFF74AFF34
:10578000EBE75A1CE262A26AD3181B787355013505
:10579000D4E73300E8E7F7B5FF21826843680A40A1
:1057A0001B68083252019A18D3790400DB072AD506
:1057B0000125D571836842680B405B01D3189A6854
:1057C00040699204920C002821D12262226A002AA8
:1057D0003ED0A26A656168465A60FFF7DDFE270089
:1057E0002100019B661D013B343735315A1C2BD0FB
:1057F000F5773A78581ED2B2002A05D00193684650
:105800000D70FFF7D0FEF7BD0A700300EEE72263CC
:10581000226B002A1CD000226261A26968465A608D
:10582000FFF7BAFE26002100019B3436013B671DBD
:1058300035315A1C08D03570FA7F581ED2B2002A72
:10584000DCD10A700300F4E768460193FFF7ABFE72
:105850002000FFF7DFFED6E737B56B46DC1D0023DF
:105860000D0020002370FFF789FD2B6818182860B1
:1058700001F062FE210001F02BFE2B681818286051
:1058800020783EBD03290ED180220E4B62311B6869
:10589000FF31585C524202435A5468226339FF3246
:1058A000FF39995470470129FCD18022054B2431DE
:1058B0001B68FF31585C524202435A542822233954
:1058C000FF32EDE72829002070B50025304B01217B
:1058D00004001A201D7001F0DBFC01211A2001F0E8
:1058E00007FD2C4B012119201D7001F0D1FC012175
:1058F000192001F0FDFC2023274A0F20D1690B431A
:10590000D361012225490B7813430B70244B19787E
:105910008143197006211D782943197021490D789A
:105920002A430A701A7802401A70602219780A43D2
:105930001A701D4B1D4A5A805A78D209FCD11C4856
:1059400001F036F91B4D280001F008FE280001F097
:105950001DFE7F212A68C120137880000B40137040
:1059600004232A6811780B430C2113702A681389C9
:105970008B43114913810B581B021B0A0B508023C8
:105980000B6011787E3B0B4313700123237070BDB5
:10599000912400209024002000040040584400413D
:1059A0003C44004159440041000C004006400000C6
:1059B000996300002829002000E100E00078002819
:1059C00010D00121084B1B681A898A431A810822CA
:1059D000198B0A431A830422198B0A431A83002263
:1059E000024B1A607047C046282900202029002059
:1059F00010B50F4A93699B0B9B03936113680222B6
:105A0000FF331A729879823A02439A711A7A92078E
:105A1000FCD57F24074A2140937A0800A34319004C
:105A2000802301439172917A5B420B43937210BDC4
:105A300028290020005000410078002805D0034BA1
:105A40001A68012311890B4313817047282900200C
:105A500010B50B790C00002B0CD10800FFF79CFC53
:105A6000002801D0012010BD094A93699B0B9B03BC
:105A70009361F7E701F060FD210001F04DFD002882
:105A8000F0D1034A93699B0B9B039361EBE7C046FC
:105A900028290020F8B50D00832A19D1CBB2364C45
:105AA0005A01A21891693548AD010840C021890505
:105AB00001439161324920686D18702108335561A6
:105AC0005B011A5C8A43110040220A431A54F8BD54
:105AD000022A4CD12B4A8B009858002802D0036828
