:10000000008000209D0B0000870B0000870B000084
:1000100000000000000000000000000000000000E0
:10002000000000000000000000000000870B00003E
:100030000000000000000000870B0000F10B000032
:10004000870B0000870B0000870B0000870B000068
:10005000870B0000870B0000870B0000890B000056
:10006000870B00006D030000870B0000870B00006A
:10007000870B0000870B00007D030000870B00004A
:10008000870B0000870B0000870B0000870B000028
:1000900000000000870B0000870B0000870B0000AA
:1000A000870B0000870B0000870B0000870B000008
:1000B0000000000010B5064C2378002B07D1054B3B
:1000C000002B02D0044800E000BF0123237010BDC4
:1000D00010010020000000007C3D0000044B10B522
:1000E000002B03D00349044800E000BF10BDC04608
:1000F00000000000140100207C3D0000704713B593
:10010000040001914269016900F018F9636901AACC
:100110002169200000F0C2F813BD000010B50422D0
:100120000749084800F0A2F804220749074800F0F0
:100130009DF8C82206495200064800F097F810BD05
:100140000030000044010020003100005C0100206C
:10015000002E00002C0100209621F0B5304E314CCD
:100160008901A544300000F0D9FA2F4DCAAA6B6965
:100170002969280000F0F4F82C48CA9B0169019312
:10018000CAAA436900F0ECF8294CCA9B66AA0093FE
:1001900021696369200000F0E3F8C82266A95200D3
:1001A00002A802F0C7F9009B019A2249300000F032
:1001B00069F90027BB0002AA9A581F49300001378D
:1001C00000F060F9642FF5D1300000F053F9019987
:1001D00028000131FFF793FF009914480131FFF720
:1001E0008EFF0023990002AA525802A80092013300
:1001F00001324250642BF5D1C82201005200CAA836
:1002000002F098F962692169200000F097F86369AB
:10021000CAAA2169200000F041F8084B9D44F0BDB6
:100220008C08002044FBFFFF440100205C010020FB
:100230002C0100200032000008320000BC04000045
:1002400010B5054A0549064800F010F80022054B94
:1002500005491A705A5410BD010400000033000013
:1002600078050020740100200204000030B5094D1B
:10027000094CAB685B035B0F9B001C590460AB68C7
:1002800001619BB243606343A4008360C460426128
:1002900030BDC0460040004100380000F7B5802660
:1002A0001A4D01916F6803333E439B086E60002B2B
:1002B0002BD0174E2E802E7DF107FCD51E0007682F
:1002C000991BBF088F4219D9002E17D0FF2117782C
:1002D0008C433C430F4957780C403F023C4397788E
:1002E000013E39040C4F2740D478BFB20F43240697
:1002F00001993C4310C101910432E0E7074B2B8088
:100300002B7DDB07FCD53300D1E7F7BD0040004172
:1003100044A5FFFFFF00FFFFFFFF00FF04A5FFFF55
:10032000044B054A4908D9611A801A7DD207FCD5C9
:100330007047C0460040004102A5FFFF70B50400B1
:100340000D001600E36829002000B34205D2FFF734
:10035000E7FFE368ED18F61AF4E7FFF7E1FF70BD79
:1003600010B510001A0002F0E5F810BD10B50248F3
:1003700000F014FB10BDC0469005002010B50248E7
:1003800000F00CFB10BDC0468C080020F7B501241E
:100390000326154F1549380000F088F81449154810
:1003A00000F084F81449154800F080F81449154805
:1003B00000F07CF81449154800F078F8144D154900
:1003C000280000F073F83900230000960022019401
:1003D000114800F077FA290000961E231F2201948D
:1003E0000E4800F06FFAF7BD880B002000080042AD
:1003F000000C00428C0B002000100042900B0020EB
:1004000000140042940B002000180042980B0020BA
:100410009C0B0020001C0042900500208C0800204E
:10042000F7B506000D000C008B180193019B671BAC
:100430009C4207D0336821781B683000984701340C
:100440000028F3D13800FEBD70B5040008000D008F
:1004500002F03CF92368020029005B6820009847FD
:1004600070BD10B50B1E02D0FFF7EEFF03001800A1
:1004700010BD000010B50249FFF7E6FF10BDC046F1
:10048000703C00000EB410B5040097B019AB04CB5B
:10049000502102A8019302F04BF902A92000FFF7B6
:1004A000E0FF17B010BC08BC03B0184701607047EC
:1004B0009446F0B59E1E721E9641624605689207EC
:1004C0002F6836063A4332432A60072505AC247864
:1004D0000068A4012940214342680024022B00D077
:1004E0005C03114321434160F0BD30B5C025036872
:1004F000AD031C6812052A402243C0240904A4024B
:1005000021401143196003685A6814435C6030BD90
:100510000123026811680B43136003681A68D2074D
:10052000FCD4DA69D207F9D4704702230268116853
:100530000B4313600268D3699B07FCD470470368C0
:100540001A7ED20702D41A7E9207FCD57047002289
:1005500003685A8370470368187E4007C00F7047CE
:100560000368187EC0097047802302685B42117ED1
:100570000B43137670470368588B8007C00F704792
:1005800002230268518B0B43538370470368187E24
:10059000C007C00F70470368188DC0B2704703686A
:1005A0001A7ED207FCD589B2012019857047012235
:1005B00003689A757047012203681A757047000036
:1005C0000368104A934213D00F4A934212D00F4A45
:1005D000934211D00E4A934210D00E4A93420FD04C
:1005E00001200D4A4042934201D1063040B270478B
:1005F0000020FBE70120F9E70220F7E70320F5E7F9
:100600000420F3E700080042000C00420010004202
:100610000014004200180042001C0042F8B5FFF729
:10062000CFFF00282CDBC3001C48FF22C018052385
:100630000479C35603201840C0008240C021D24331
:100640008140002B1DDB1F2501201D40C026A84036
:10065000134D7600A851C0269B089B005B19B6007D
:100660009F593A401143995128603F2323408024E9
:10067000E4011C430B4B5C805A7852B2002AFBDB2E
:10068000F8BD0F200340083B07489B089B001B1840
:10069000D86902401143D961E7E7C046743C0000C5
:1006A00000E100E0000C004000ED00E0F8B50400BF
:1006B0000F0016001D00FFF7B1FF2000FFF728FF15
:1006C0001C21BB000B4071072268090C0B4313600F
:1006D000842322689375012F1AD11021012E00D096
:1006E00008390C4B69431868C00001F05FFE07220F
:1006F000216802408B895203DB04DB0C13438B819E
:10070000226803049089DB0C400B4003184390815E
:10071000F8BDC046000000200120704710B50368F6
:10072000014A1B6A984710BD130400000300FC3304
:10073000D96F9A6F914203D0DB6FC018007D70476C
:1007400001204042FBE710B504000069FFF7E0FE1E
:1007500022000023FC329367D3679E229200A418E4
:100760006366A36610BDF02001403039484248411D
:100770007047F0231B011940802306209B009942FB
:100780000AD00133FF330130994205D0802302386B
:100790005B00994200D0002070470F2001400020EC
:1007A000012903D00239481E8141481C70470000CE
:1007B000B923F0B5182685B002919B000400C05CF7
:1007C000330008214343324D1700EB18595600F00F
:1007D00055FC304B0821E05C33004343EB1859567D
:1007E00000F04CFC2C4BE25C0393022A09D111333C
:1007F000E05CFF2805D008214643AE19715600F091
:100800003DFCBA26B600A05DFF2819D0012100F0FA
:10081000D9FB1822A35D21495A43AB56AD18DB0121
:100820005818BB21890060501D4901225B18BC216A
:100830008900635069688A40BD21890062501A604E
:100840000122029B11002069FFF730FF39002000D0
:10085000FFF78FFF390005002000FFF79EFF3900EA
:1008600006002000FFF77FFF330000902900206979
:100870000122FFF71DFE0B4B2069E25C039BE15C4C
:10088000FFF733FE2069FFF750FE05B0F0BDC0460C
:1008900020380000E5020000E70200001844004193
:1008A00014440041E6020000AF2210B504005200DB
:1008B000002101F048FE23000022FC335A6620008C
:1008C0009A6610BDF7B51D0008AB1B7804000093B5
:1008D00009AB1B781600019300234360FA239B00A9
:1008E0008360114B0F00083303601430FFF7DCFF07
:1008F00020007D30FF30FFF7D7FFB9236A469B0009
:100900002761E654094B1278E554094B2000E25464
:100910006A46084B1279E254BA22E93BFF3B920047
:10092000A3541032A354FEBDA43C0000E502000015
:10093000E6020000E70200000300FC33586E9B6EE5
:10094000C01A01D55F30FF30704710B50400200099
:100950007D30FF30FFF7F0FF0028F8D12069FFF766
:10096000EEFD10BD10B51430FFF7E6FF10BD03001B
:10097000FC33596E9A6E914205DB5A6E986E801A5E
:100980005E30FF307047986E5B6EC01A0138F9E731
:1009900010B57D30FF30FFF7EAFF10BD70B50400E1
:1009A0000069FFF7E8FD002805D02069FFF7F3FD97
:1009B0002069FFF7E5FD2069FFF7CDFD002824D071
:1009C00020692500FFF7E7FDAF21FC350600A86F81
:1009D0004900013001F070FDEB6F994203D0AB6F1D
:1009E000E3181E75A967BA239B00E35CFF2B0CD0AC
:1009F00020001430FFF7BBFF092806DCBB23BD2213
:100A00009B009200E358A2581A602069FFF7BEFDD0
:100A100000281DD020007D30FF30FFF78DFF00281B
:100A200025D09E239B00E618B26E736E9A421BD0AF
:100A3000BE22AF21B36EB06EE31852000130490000
:100A40009D5C01F039FDB166E9B22069FFF7A7FDB1
:100A50002069FFF785FD002805D02069FFF784FD98
:100A60002069FFF774FD70BD01256D42ECE7206938
:100A7000FFF7A1FDECE70000F8B5040000690E00E7
:100A8000FFF784FD002843D19E23AF219B00E5188A
:100A9000686E49000130AF6E01F00EFDB94223D1FE
:100AA000EFF31083DB070DD41F4B5B68DB05DB0D19
:100AB000EAD0103B5BB2002B0DDB9B08C0331B4A16
:100AC0009B009B582069FFF761FD0028DCD02000C7
:100AD000FFF764FFD8E70F221340083B9B08144A36
:100AE0009B009B181B68EDE7AF21686E4900013041
:100AF00001F0E2FCAB6E994205D0BE226B6E520053
:100B0000E3189E5469662069FFF751FD0120F8BD86
:100B100020007D30FF30FFF70FFF0028B4D13100F7
:100B20002069FFF73CFDF1E700ED00E000E100E0A7
:100B30001CED00E070B50500FC35EA6FAB6F0400FA
:100B40009A421DD0AF21EB6F4900C318E86F1E7D9C
:100B5000013001F0B1FCE967BA239B00E35CFF2B95
:100B60000CD020001430FFF702FF0A2806DDBC235A
:100B7000BD229B009200E358A2581A60300070BD5D
:100B800001267642E8E7FEE7034B10B51B68002B11
:100B900000D0984710BDC046A00B002070B50F498B
:100BA0000F4CA14204D100F0A9F800F085F8FEE74F
:100BB0000C4D00238D42F6D0CA18E818A24205D386
:100BC000094B8242EFD00949002204E00068043357
:100BD0001060F1E704C38B42FCD3E4E7000000207F
:100BE00010010020803D0000100100209C11002019
:100BF00010B500F05EF8002801D100F04FF810BDEC
:100C0000014B18607047C046A00B0020F7B5134891
:100C1000012284461249134C8E68636805689B0E56
:100C20001340019288686268019F920E3A406746BD
:100C30003F6893420ED1BD420CD186420AD35B1964
:100C4000FA254868AD00861B07486B437043000DCA
:100C5000C018FEBD3D0013000600E3E7A40B002012
:100C600010E000E000ED00E05555000070B5041EF6
:100C700010D0FFF7CBFF050000F01AF8FFF7C6FF12
:100C8000054B401B9842F7D9FA23013C9B00ED1815
:100C9000002CF3D170BDC046E703000010B5034A35
:100CA00013680133136000F059FA10BDA40B002043
:100CB000704700207047704710B500F0CFF801F082
:100CC00001FCFFF7F8FF0120FFF7D0FF094C2000DF
:100CD00000F0B2FC200000F029FDFFF73DFAFFF71D
:100CE0000DFAFFF7E5FF044B002BF8D000E000BF42
:100CF000F5E7C046A80B0020000000001E2270B5DA
:100D000046484749436893431C3A134343600823CA
:100D10008C6923438B61434C434B9C829C8A1443D4
:100D20009C82DC681442FCD00124404A147015787F
:100D3000254203D055786DB2002DF8DB0124946074
:100D4000547864B2002CFBDB394C5460547864B2A4
:100D5000002CFBDB8224E4015480547864B2002C24
:100D6000FBDB02249C840E34DD682542FCD0314C30
:100D7000DC621024DD682542FCD09D8C2E4C2C4377
:100D80009C841024DD682542FCD002249D8C8026A2
:100D90002C439C844024DD683542FCD0DD6825422C
:100DA000F9D01024DD682542FCD0002494605478EA
:100DB00064B2002CFBDB214C5460547864B2002CEC
:100DC000FBDB1C6A1E4D2C4080251C621C6AAC4358
:100DD0001C62032393601B4B536053785BB2002B60
:100DE000FBDB0023FF240B72174A4B728B72CB7212
:100DF000164B1A60164B174A1B6811689A065B015E
:100E0000C90E2340520F12020B431343124A13859B
:100E1000802342681343436070BDC04600400041D8
:100E2000000400400C06000000080040000C0040D8
:100E300001050100B905FF7D040A00000007030059
:100E4000FFFCFFFF03060100006CDC020000002035
:100E5000246080002060800000400042FA212D4B79
:100E600010B51868890001F0A1FA2B4B013898429F
:100E70004FD82A492A4A4860C020136A00061B023C
:100E80001B0A0343136200238B6007330B6080212E
:100E9000136A09061B021B0A0B431362FC22214B37
:100EA000196A0A431A62FF22196A12020A431A6275
:100EB000A022196AD2020A431A621B4B1C005A78FC
:100EC00052B2002AFBDB194A5A80194B1A00597E8C
:100ED000C9090129FBD0C821890099800521D97051
:100EE000537EDB09012BFBD0C02300205B01136183
:100EF000907000F023F863785BB2002BFBDB0D4BA6
:100F00000D4A6380D379DB09012BFBD04123537059
:100F100010BDFEE700000020FFFFFF0010E000E032
:100F200000ED00E000040040000C00401E40000006
:100F30000040004221400000004800421F4900B527
:100F40000B004A7ED209012AFBD001380A282FD88B
:100F500001F022FA1B2E2E2E2E2E062E2E241100EC
:100F60001A6917490A400F211A615A788A431100F9
:100F700001220A4310E01A6911490A400F211A613F
:100F80005A788A4311000322F3E71A690C490A4090
:100F90000F211A615A788A435A7000BD1A690849AC
:100FA0000A400F211A615A788A4311000222E0E7B1
:100FB000F022196912050A43F3E7C04600400042D7
:100FC000FFFFFFF0182310B508244343134AD0183D
:100FD0000457013412D001249A5643689C400329D7
:100FE0000CD808000E49D2015218D318403301F032
:100FF000D3F90210060B02211970546010BD0621AE
:10100000197054609461F9E70621197054605461B5
:10101000F4E7022119709460F0E7C0462038000020
:10102000004400411823F0B508245843114A13180E
:101030001C5701341BD0012635005F688356BD4024
:101040000D4ADB019A18906805420BD10C00601E16
:101050008441D2194032107834400336A400B043A2
:1010600020431070044A9B18002901D15D61F0BD36
:101070009D61FCE7203800000044004118224243F3
:1010800070B52D4E0300B218127A52B2140001321C
:101090000ED0481C00240C280AD801F07DF9071F47
:1010A0001F1F1F1F1F1F1F0B0B0B0B000124644270
:1010B000200070BD092905D100211800FFF782FF2B
:1010C0000024F5E70A2901D10839F6E700240B29A5
:1010D000EED10A391800FFF775FFE9E71822012061
:1010E0005343F218F3565568144ADB016C089B18F9
:1010F000C9B228401C1900280ED00F2030342278A5
:101100000901024011434122C9B25B1921704033E9
:1011100019780A431A70D3E722000F263032147868
:101120005B19B44321431170412240331978040004
:101130000A431A70BCE7C046203800000044004152
:10114000014B18607047C046040000200122024B8A
:1011500052421A607047C04604000020164A10B57B
:101160001368591C26D0013B1360002B22D172B6A4
:10117000124B134A0433934213D9124A012110002F
:10118000147D0C42FCD02021148BFF319B085B00A6
:1011900021431183D3610C4B13800123027D1A423A
:1011A000FCD0BFF34F8F094B094ADA60BFF34F8F72
:1011B000C046FDE710BDC04604000020000000004E
:1011C000030200000040004102A5FFFF00ED00E027
:1011D0000400FA05704770B50F26CB1D01390200D7
:1011E0003240D5B22C0000093034092A00DD073422
:1011F0001C70013B8B42F2D170BD10B504008069B8
:1012000001F08EF9A06A01F08BF9200010BD10B535
:101210000400FFF7F2FF200000F07EFF200010BD69
:1012200070B5032908D1324B8000C058002802D085
:101230000368DB68984770BD82291FD1C3B22D4D6A
:101240005A01AA1891692C4C80010C40C0218905D3
:1012500021439161294908334018802150612A684F
:101260005B01D01804794942214301717020995CD7
:1012700081430800302101439954DCE70029DAD189
:10128000C024C1B21B4E4A01B21893681A4DA4057E
:101290002B40234393601A4B8001C0180B00506011
:1012A0003068072608335B01195CB1430E00012149
:1012B0003143195491690D402C43946170240F49B6
:1012C0005161195CA1430C0010212143195491680C
:1012D0000C4CC3180C408021490321439160916854
:1012E000890B89039160402259790A435A71A2E718
:1012F000AC0B002060100020FFFFFF8FD40B0020FC
:10130000940D0020FF3F00F0EFF3108303600123F2
:10131000436072B670470368002B02D162B6BFF318
:101320006F8F704737B5056904006846002D14D1EA
:10133000FFF7EAFF019B621D013B02D3D57FEDB2AF
:10134000FAE768460193FFF7E6FF002D01D1002080
:101350003EBD206AE369C01AFAE7FFF7D5FF220015
:101360000025019B3432013B02D31578EDB2FAE738
:1013700068460193FFF7CFFF002DE8D0206BE36AAA
:10138000E9E70000FF2130B54368164D1A6883680D
:101390000B405B01D21801235218947A23439372B5
:1013A000836842680B405B01D418C268A36892044A
:1013B0002B4012091343A360836842680B405B0112
:1013C000D3189A68920B92039A6043681A688368EC
:1013D0000B4008335B01D318402219790A431A7174
:1013E00030BDC046FF3F00F0F7B5036904000E00B2
:1013F00017006846002B45D1FFF786FF019B611D52
:10140000013B5A1C0CD0CD7F5A1EEDB2002D05D1E8
:1014100068460193FFF77FFF2800FEBD1300F0E749
:10142000684601930025FFF776FFE369AF420AD0D3
:10143000226A9A4207D95A1CE261A269D3181B7822
:1014400073550135F1E7226A9A42E5D10023E36141
:10145000013323616846FFF757FF22000021019BFB
:10146000671D013B3532581CD2D0F97710785E1ECB
:10147000002805D0117020000193FFF783FFECE7EF
:101480003300F0E7FFF740FF2100019B3431013BBF
:101490005A1C06D00D785A1EEDB2002DB8D013009C
:1014A000F6E7684601930025FFF735FFE36ABD4282
:1014B00002D0226B9A421CD8226B9A42ACD10023F4
:1014C0006846E3622361FFF71FFF27002200002127
:1014D000019B3437013B3532581C99D03970107854
:1014E0005E1E00280DD0117020000193FFF74AFF07
:1014F000EBE75A1CE262A26AD3181B7873550135D8
:10150000D4E73300E8E7F7B5FF21826843680A4073
:101510001B68083252019A18D3790400DB072AD5D8
:101520000125D571836842680B405B01D3189A6826
:1015300040699204920C002821D12262226A002A7A
:101540003ED0A26A656168465A60FFF7DDFE27005B
:101550002100019B661D013B343735315A1C2BD0CD
:10156000F5773A78581ED2B2002A05D00193684622
:101570000D70FFF7D0FEF7BD0A700300EEE722639F
:10158000226B002A1CD000226261A26968465A6060
:10159000FFF7BAFE26002100019B3436013B671D90
:1015A00035315A1C08D03570FA7F581ED2B2002A45
:1015B000DCD10A700300F4E768460193FFF7ABFE45
:1015C0002000FFF7DFFED6E737B56B46DC1D0023B2
:1015D0000D002000237000F0F1FD2B681818286022
:1015E00000F080FE210000F049FE2B6818182860EA
:1015F00020783EBD03290ED180220E4B62311B683C
:10160000FF31585C524202435A5468226339FF3218
:10161000FF39995470470129FCD18022054B2431B0
:101620001B68FF31585C524202435A542822233926
:10163000FF32EDE76010002070B50025304B01212E
:1016400004001A201D70FFF7BDFC01211A20FFF7CE
:10165000E9FC2C4B012119201D70FFF7B3FC01217F
:101660001920FFF7DFFC2023274A0F20D1690B4305
:10167000D361012225490B7813430B70244B197851
:101680008143197006211D782943197021490D786D
:101690002A430A701A7802401A70602219780A43A5
:1016A0001A701D4B1D4A5A805A78D209FCD11C4829
:1016B000FFF7A6FA1B4D280000F026FE280000F0D8
:1016C0003BFE7F212A68C120137880000B401370F5
:1016D00004232A6811780B430C2113702A6813899C
:1016E0008B43114913810B581B021B0A0B5080239B
:1016F0000B6011787E3B0B4313700123237070BD88
:10170000C90B0020C80B00200004004058440041D1
:101710003C44004159440041000C00400640000098
:10172000F12000006010002000E100E000780028B7
:1017300010D00121084B1B681A898A431A8108229C
:10174000198B0A431A830422198B0A431A83002235
:10175000024B1A607047C0466010002058100020ED
:1017600010B50F4A93699B0B9B0393611368022288
:10177000FF331A729879823A02439A711A7A920761
:10178000FCD57F24074A2140937A0800A34319001F
:10179000802301439172917A5B420B43937210BD97
:1017A000601000200050004110B50B790C00002B98
:1017B0000CD1080000F010FD002801D0012010BD60
:1017C000094A93699B0B9B039361F7E700F08AFD3D
:1017D000210000F077FD0028F0D1034A93699B0BAC
:1017E0009B039361EBE7C04660100020F8B50D0045
:1017F000832A19D1CBB2364C5A01A21891693548C7
:10180000AD010840C021890501439161324920683A
:101810006D187021083355615B011A5C8A43110011
:1018200040220A431A54F8BD022A4CD12B4A8B009D
:101830009858002802D003685B699847382000F068
:1018400067FC274B802703600023214E7F00421D49
:10185000036203614361C36146608560C760D377FB
:101860002F320400C362036313703800537000F01A
:101870004DFEA061380000F049FE2A00A062FF2062
:101880000240510171188B68124FAD001F40C023F8
:101890009B053B438B6013003168072608335B01CF
:1018A0005A5CB2431600032232435A54A36862685A
:1018B00003405B01D318A26920005A60FFF762FD64
:1018C000064B5C51AFE711002800FFF7A9FCAAE71F
:1018D00060100020FFFFFF8FD40B0020AC0B002016
:1018E000E03C000070B505000124064BA200D25870
:1018F000002A05D021002800FFF778FF0134F4E723
:1019000070BDC04608000020084B8A00D05810B5B2
:10191000002803D003689B68984710BDC9B2044BE8
:101920004901591888688004800CF6E7AC0B002048
:101930006010002010B50C00FFF7E6FF00280CD067
:10194000064BE4B21B68083464011C1980236279D9
:101950005B42134363710223E37110BD60100020EA
:1019600070B5CBB2124A13485C018901891802197B
:1019700051609168104D08330D4080218902294340
:10198000402591609168890B8903916001685A0133
:101990008A1816793543157195796D06FCD55B016A
:1019A000C918CB79DB07FCD500198068C0B270BDBF
:1019B000940D002060100020FF3F00F070B514006F
:1019C00040220B4B0D001B68FF3359790A435A71B3
:1019D0000021FFF7C5FFA04200D9200000230549E0
:1019E000A34203D0CA5CEA540133F9E770BDC04694
:1019F00060100020940D002010B5C9B20B484901B9
:101A0000421893689B049B0C3F2B0BD99468403B76
:101A10009B04A40B9B0CA403234393604118886888
:101A2000C0B210BD93689B0B9B03F6E760100020CB
:101A3000F0B51C002F4B85B01B6806000D0001920D
:101A4000002B54D02C4F3978C9B2002902D119206B
:101A5000FFF7E8FA64233B70284BAA00D05800280F
:101A600008D0036822005B680199984704002000B1
:101A700005B0F0BD29003000FFF746FF844204D9CD
:101A800029003000FFF740FF040029003000FFF775
:101A9000B3FF0121EBB21A4F03935B010293029A49
:101AA0003B6801989B18FF335A7A0A435A72154BC8
:101AB000A901C918220000F03DFD002CD7D0290053
:101AC0003000FFF721FF0028D1D14021039B3A6865
:101AD00008335B01D3181879014319710121D971B9
:101AE000029BD318FF339A7A0A439A72BFE7012404
:101AF0006442BCE758100020C80B0020AC0B00204B
:101B000060100020940D002013B56B46DC1D2200F0
:101B10000123FFF78DFF012801D1207816BD012098
:101B20004042FBE7F0B51E003A4B85B01B680F0042
:101B30000192002B3FD08023DB019E423BD8364CE4
:101B40002178C9B2002902D11A20FFF76BFA642369
:101B500000252370314BBA01D3180293002E2CD0EC
:101B60002F4B1B680393FF233B401C00009308345A
:101B7000039B64011C19A379DB0921D0294B2A4955
:101B8000186800F013FC294B1721584300F00EFC95
:101B9000274BE279920713D4DA5D002A01D101388C
:101BA000F7D20122DA55009B5A011D4B9B189A6906
:101BB000920B92039A6101256D42280005B0F0BD99
:101BC00000221B4B3400DA55402E00D9402422005D
:101BD0000199029800F0AEFC009BA1045A01104B41
:101BE000890C9B18029A2D195A619A69361B920B1F
:101BF00092030A439A61009B039A08335B01D3184E
:101C00000222DA715979823A0A435A71019B1B19EF
:101C10000193A3E758100020C90B0020D40B00202B
:101C2000601000200000002040420F0070110100F1
:101C3000CB0B002070B50D001C000D4BAE01F6184B
:101C400011003000220000F075FCEDB209496D0171
:101C50004D196E61AB69084A20001340AB61AB6956
:101C6000A2049B0B920C9B031343AB6170BDC04657
:101C7000D40B002060100020FF3F00F0F7B5104BA0
:101C800001901B780F001500002B0CD10D4B160096
:101C90001C78002C09D00C4E0C483488201864198C
:101CA00000F048FC34802800FEBD002EFBD03A191D
:101CB000330000210198FFF7BDFF2418361AF4E71E
:101CC000540F00205510002056100020550F002002
:101CD000F8B5002000AF0E001500012A27D9D31D4A
:101CE0006A46DB08DB00D31A9D46080000F0EEFCD4
:101CF0006C460323022200210130400020706370F3
:101D0000AA420DD2307800280AD0531CDBB201362B
:101D1000A0549D4203D00232E154D2B2F0E72A002F
:101D200021000448FFF7AAFF431E9841C0B2BD46F8
:101D3000F8BDC046A80B0020F0B50024012685B0F0
:101D4000184B0F0069461E7005000094FFF73CFC1D
:101D5000154B01A90B806A3BFF3BCB716E3B0B72AD
:101D6000009B8C7109334B800E4B4E7108711C70B7
:101D70003A00092F0FD00D4F09223E700C4E28005B
:101D800000943480FFF77AFF69462800FFF71CFCB7
:101D9000328808493C702800FFF770FF012005B029
:101DA000F0BDC046540F002009020000551000206D
:101DB00056100020550F0020F0B5CF7893B00500E5
:101DC0000E00022F09D1C9882B48FFF7B5FF441E2A
:101DD000A041C4B2200013B0F0BD00F083FA31007E
:101DE00000F060FA002803D0C417241AE40FF1E7CA
:101DF000012F0BD1F2882149112A11D8D2B2002A21
:101E00000ED02800FFF73AFF0124E3E70400032F78
:101E1000E0D1B378002B05D1F2881949032AEDD916
:101E20000A78EEE7022B06D1B27916492800FFF7AF
:101E30004FFF0400CEE7012B02D1B2791249F5E73A
:101E4000032BC7D1114B01A91868FFF7C4F9104B38
:101E500003A91868FFF7BFF90E4B05A91868FFF72B
:101E6000BAF90D4B07A91868FFF7B5F96B460533AA
:101E7000DC77B27901A9D9E7A80B0020113D000059
:101E8000043D0000F83C0000083D00000CA080006C
:101E900040A0800044A0800048A0800037B5050025
:101EA00048780C000B2810D800F076FA061B0F2B90
:101EB0000F41466E4A4D676A097801AA002906D18A
:101EC000022311802800FFF7B5FE01203EBD00234C
:101ED00013802E4B1B78012B00D11370022300219D
:101EE000F0E78A780023012A03D101AA1380284B46
:101EF000F0E7264A1370274A93699B0B9B03936173
:101F0000E3E78C78012C06D10021214B01AA1C703B
:101F100011702300D6E700208442D7D11B4B01303B
:101F20001C4A187093699B0B9B039361CEE78978D9
:101F30002800FFF715FCC8E72800FFF73DFFC5E7BD
:101F40000123154ACBE70B780020DB06BED1280021
:101F5000FFF7C8FC2A200221A2780F4BFF301A603D
:101F60000C4A13681C5C21434A241954FF34195D40
:101F70002938FF3801431955D4E70123074AAEE752
:101F80008A78064B1A60B6E700209FE7CA0B00204C
:101F9000D20B002060100020581000205C100020A0
:101FA0004B4BF7B51C780700002C00D083E0494E5E
:101FB00033689B8B1B070ED521002000FFF730F9FB
:101FC000326810231100FF31887A03438B72424B31
:101FD0001C600823938333689A8B52071FD5042211
:101FE0009A833E4A1378002B0AD01378013BDBB268
:101FF00013701378002B03D101211A20FFF712F878
:10200000374A1378002B0AD01378013BDBB21370E8
:102010001378002B03D101211920FFF703F833684F
:10202000FF331A7AD2061ED510221A72597930322D
:102030000A435A7160232B4938000A781A423BD16F
:10204000FFF72CFF3368FF33002838D080229979BE
:1020500052420A439A711A7A520604D540221A72E1
:10206000597A0A435A72336800241D8C01239D4318
:10207000EDB20193E1B2002D1DD02B002341019A56
:10208000134215D02300326808335B01D318DA7984
:10209000D20702D4DB799B0707D5134BA200D05897
:1020A000002810D003681B689847019BA3409D43FC
:1020B0000134092CDED1F7BDFFF776FBC2E7202102
:1020C0000A4A9171C7E73800FFF794FAEDE7C04676
:1020D000551000206010002058100020C90B00206F
:1020E000C80B0020940D0020AC0B0020FF500041D5
:1020F00010B50248FFF754FF10BDC046A80B0020E2
:10210000014B024A1A6070476010002000500041E5
:1021100010B500F0FBF910BD10B500F001FA10BDCC
:102120003F20704713B56B460268D9710733546876
:1021300019000122A04716BD10B502210069FFF762
:10214000E3FB10BD10B503210069FFF7F3FB10BDE1
:1021500010B51300084A0400D279002A03D10123E4
:102160000020636010BD0A0000690321FFF7DAFC5C
:102170000028F4D0F6E7C0463400002010B5054C26
:1021800023685A1C04D103685B69984703002060E8
:10219000180010BD80000020074B0200186810B521
:1021A000411C03D0012252421A6010BD0221106965
:1021B000FFF7AAFCF9E7C0468000002010B50378BD
:1021C00042220233037002490248FFF757FD10BD57
:1021D0003C000020A80B002010B5017802004378D5
:1021E0000020A12908D1212B05D107221649174823
:1021F000FFF744FD012010BD2129FCD1202B13D174
:10220000072211491148FFF7D9FB96220E4BD20045
:10221000196891420ED10124D87904400AD1FA20DC
:10222000FEF78EFF0020E6E7222B06D19278064BC0
:10223000DA71EAE7FEF78AFFF4E7232BDBD1528855
:10224000034B1A60D7E7C04634000020A80B0020DB
:1022500030000020FA220021054B92009A60054AC6
:10226000596008321A60044A19761A617047C046EC
:1022700064110020243D0000A80B002070B50E0062
:1022800000254468002C0BD0236831005B682000D7
:102290009847002802DB2D18E468F3E701256D421A
:1022A000280070BD70B50D004468002C08D023686C
:1022B00029009B6820009847002802D1E468F4E7D1
:1022C000200070BD70B50D004468002C08D0236854
:1022D00029001B6820009847002802D1E468F4E731
:1022E000200070BD0121054A10B5136804480B4059
:1022F00003D1044C43600480116010BD80110020A4
:10230000841100200204000070B50400012304CCF5
:102310000500117820000B43137080220021520029
:1023200000F011F92B689A78D207FCD49A789207BA
:10233000F9D45C6270BD00001F22144BF0B51B681D
:10234000590B9C0C9B01114014405B0F914200D132
:1023500005211F2C00D1023C072B00D1043B026851
:102360008F01158D0A491F262940394311850568BB
:102370003440298D0A00B24322432A85006819039C
:10238000028D044B13400B430385F0BD2460800095
:102390003FF8FFFFFF8FFFFF02B471464908490075
:1023A000095C49008E4402BC7047C04600224308C5
:1023B0008B4274D303098B425FD3030A8B4244D30D
:1023C000030B8B4228D3030C8B420DD3FF2209024F
:1023D00012BA030C8B4202D31212090265D0030B0E
:1023E0008B4219D300E0090AC30B8B4201D3CB0304
:1023F000C01A5241830B8B4201D38B03C01A524146
:10240000430B8B4201D34B03C01A5241030B8B4247
:1024100001D30B03C01A5241C30A8B4201D3CB0232
:10242000C01A5241830A8B4201D38B02C01A524117
:10243000430A8B4201D34B02C01A5241030A8B421A
:1024400001D30B02C01A5241CDD2C3098B4201D332
:10245000CB01C01A524183098B4201D38B01C01AB0
:10246000524143098B4201D34B01C01A5241030927
:102470008B4201D30B01C01A5241C3088B4201D3D6
:10248000CB00C01A524183088B4201D38B00C01A83
:10249000524143088B4201D34B00C01A5241411AAA
:1024A00000D20146524110467047FFE701B50020B7
:1024B00000F006F802BDC0460029F7D076E7704765
:1024C0007047C04670B500260C4D0D4C641BA4101F
:1024D000A64209D1002600F069FC0A4D0A4C641B93
:1024E000A410A64205D170BDB300EB589847013641
:1024F000EEE7B300EB5898470136F2E7E80000201A
:10250000E8000020E80000200001002010B5034B87
:102510000100186800F06AF810BDC0468400002071
:1025200010B5034B0100186800F016F810BDC04646
:1025300084000020002310B59A4200D110BDCC5C6D
:10254000C4540133F8E703001218934200D17047D6
:1025500019700133F9E7000070B50500002910D0AB
:102560000C1F2368002B00DAE418280000F0ECF8B8
:102570001D4A1368002B05D163601460280000F029
:10258000E4F870BDA34209D9216860188342F3D1F1
:1025900018685B6841182160EEE713005A68002A4A
:1025A00001D0A242F9D919685818A0420BD120686D
:1025B0000918581819608242E0D110685268411811
:1025C00019605A60DAE7A04202D90C232B60D5E7E4
:1025D00021686018824203D1106852684118216056
:1025E00062605C60CAE7C0468C110020032370B5AE
:1025F000CD1C9D43083506000C2D1ED20C25A9428A
:102600001DD8300000F0A0F8254A146821000029E8
:1026100019D1244C2368002B03D1300000F044F87A
:1026200020602900300000F03FF8431C2BD10C2320
:102630003000336000F089F803E0002DDFDA0C236E
:102640003360002070BD0B685B1B19D40B2B03D9C2
:102650000B60CC18256003E04B688C420DD11360F1
:10266000300000F072F8200007220B30231D904349
:10267000C31AE7D05A42E250E4E763600C00EFE788
:102680000C004968C3E70323C41C9C43A042E1D06B
:10269000211A300000F008F8431CDBD1C7E7C04620
:1026A0008C11002090110020002370B5064C05000D
:1026B0000800236000F06CFB431C03D12368002B4F
:1026C00000D02B6070BDC046981100200023C25C72
:1026D0000133002AFBD1581E704730B514009BB05F
:1026E00005001A00002C05DA8B230360012040420C
:1026F0001BB030BD822368469B008381002300917C
:1027000004919C4200D0631E029305930123694605
:102710005B42CB8128001E9B00F07AF8431C01DA53
:102720008B232B60002CE3D00023009A1370DFE78B
:1027300007B5009313000A00010002480068FFF784
:10274000CCFF0EBD8400002070477047F0B58E6846
:1027500085B007000C00039201939E423CD8902361
:102760008A89DB001A4234D00325096923685B1A81
:102770000293636902985D43EB0F5D19019B6D1035
:1027800001331B18AB4200D91D00530532D5290077
:102790003800FFF72BFF061E09D10C233B604023B6
:1027A0000120A28940421343A38105B0F0BD029AE3
:1027B0002169FFF7BFFEA389144A1A4080231343FF
:1027C000A381029B2661F61826606561019EED1AC1
:1027D000A560019B9E4200D9019E320003992068AA
:1027E00000F095FAA36800209B1BA36023689E1944
:1027F0002660DAE72A00380000F09CFA061EE0D1D5
:1028000021693800FFF7A8FEC7E7C0467FFBFFFF3E
:10281000F0B59FB0029005938B890F0016001B0640
:1028200011D50B69002B0ED14021FFF7DFFE386078
:102830003861002805D10C23029A013813601FB0BB
:10284000F0BD40237B61002306AC636120336376D7
:102850001033A37635002B78002B01D0252B46D1E1
:10286000AB1B04930CD0320039000298FFF76EFFC7
:10287000431C00D1AEE06269049B944663446361EB
:102880002B78002B00D1A5E0012200235242626088
:1028900002A9543252186E1C2360E360A3601370C7
:1028A000A36531780522544800F026FA751C0028EB
:1028B0001FD12268D30604D5532302A95B18202117
:1028C0001970130704D5532302A95B182B21197023
:1028D00033782A2B16D0350000210A20E3682A78A5
:1028E0006E1C303A092A4ED9002918D010E0013563
:1028F000B1E7414B2268C01A012383401343236090
:102900002E00CEE7059B191D1B680591002B01DBEE
:10291000099304E05B42E3600223134323602B78B6
:102920002E2B0AD16B782A2B35D1059B02351A1D27
:102930001B680592002B2BDB0793304E297803226E
:10294000300000F0D9F9002806D04023801B8340D6
:1029500022680135134323602978062228486E1C1B
:10296000217600F0C9F900283CD0264B002B25D158
:102970000722059B07339343083305936369039A42
:102980009B18636166E7434301219B183500A6E766
:1029900001235B42D0E700230A201A00013563605F
:1029A00029786E1C3039092903D9002BC5D007922C
:1029B000C3E74243012352183500F1E705AB00930A
:1029C0003A00114B2100029800E000BF0390039BE6
:1029D0000133D3D1BB890B985B0600D42FE70120CC
:1029E00040422CE705AB00933A00074B21000298C8
:1029F00000F07AF8EAE7C046483D00004E3D00008E
:102A0000523D0000000000004D270000F7B5150002
:102A100001938A680B6900900C00934200DA13005E
:102A200022002B6043321278002A01D001332B6040
:102A300023689B0602D52B6802332B600627236888
:102A40001F4027D0230043331B785A1E934122682E
:102A5000920630D42200019943320098089EB04774
:102A6000431C25D0062320682A68E168034000251E
:102A7000042B03D18D1AEB43DB171D40A368226999
:102A8000934201DD9B1AED180027BD4220D10020A2
:102A900010E00137E3682A689B1ABB42D2DD2200AE
:102AA0000123193201990098089EB047431CF0D1C8
:102AB00001204042FEBD3020E11843310870210062
:102AC0005A1C45310978A218433202331170C1E70C
:102AD000220001231A3201990098089EB047431C36
:102AE000E6D00137D1E70000F0B589B004920A00C2
:102AF00043320593039002920A7E0C000E9B6E2ACD
:102B000000D186E01FD8632A33D008D8002A00D12C
:102B10008CE0582A4DD0250042352A7030E0642AD6
:102B200001D0692AF7D1196825680A1D280629D518
:102B300008681A60002803DA2D23029A40421370B5
:102B40006B4E0A274FE0732A74D008D86F2A1FD023
:102B5000702AE0D1202209680A43226003E0752A26
:102B600016D0782AD7D12200782145321170614ED3
:102B700022E025001A684235111D196013682B7078
:102B8000012365E008681A606906D3D500B2D1E771
:102B900019682568081D186008682E0605D5544E6A
:102BA00008276F2A1BD00A2719E06D06F7D580B2D7
:102BB000F5E745314E4E0A7018682268011D00681D
:102BC0001960150621D5D30702D520231A432260A8
:102BD0001027002803D1202322689A432260230073
:102BE000002243331A706368A360002B58DB042271
:102BF000216891432160002854D1029D002B5AD0B6
:102C00002500337842352B7055E05506DBD580B270
:102C1000D9E71A680D68101D4969186013682E06F7
:102C200001D5196002E06D06FBD519800023029DD5
:102C300023614FE01A68111D196015680021626850
:102C4000280000F059F8002801D0401B606063683C
:102C500023610023029A13703CE023692A0004993F
:102C60000398059DA847431C3ED023689B0715D4B5
:102C7000079BE068984239DA180037E02200012308
:102C8000193204990398059EB047431C2CD0013596
:102C9000E368079A9B1AAB42F0DCE9E70025F7E707
:102CA0000028ADD0029D3900FFF706FC735C013DA2
:102CB0002B700028F7D1082F09D12368DB0706D530
:102CC00063682269934202DC3023013D2B70029B32
:102CD0005B1B2361059B07AA00932100049B0398BB
:102CE000FFF794FE431CB8D10120404209B0F0BD6B
:102CF000593D00006A3D0000C9B28218904201D1DE
:102D00000020704703788B42FBD00130F6E710B506
:102D1000884202D98B18984203D3002307E08B5CCA
:102D20008354013AFBD210BDCC5CC45401339A42A7
:102D3000FAD1F8E7F8B507000D001600002905D113
:102D40001100FFF753FC04002000F8BD002A03D156
:102D5000FFF702FC3400F7E700F012F82C00B04255
:102D6000F2D231003800FFF741FC041EECD02900FC
:102D70003200FFF7DFFB29003800FFF7EDFBE3E748
:102D80000B1F1B68181F002B01DA0B58C018704767
:102D9000044A1368002B00D1034B18181060180068
:102DA0007047C046941100209C110020F8B5C04621
:102DB000F8BC08BC9E467047F8B5C046F8BC08BCD5
:102DC0009E46704700000000000000000000000068
:102DD00000000000000000000000000000000000F3
:102DE00000000000000000000000000000000000E3
:102DF00000000000000000000000000000000000D3
:102E000000000000000000000000000000000000C2
:1032000025642C2564200A002564200000000000AD
:1032100000000000000000000000000000000000AE
:10322000000000000000000000000000000000009E
:10323000000000000000000000000000000000008E
:10324000000000000000000000000000000000007E
:103800000800000010000000200000004000000040
:103810008000000000010000000200000004000021
:10382000000000000B000000020000001C0000006F
:10383000FF00010101010B00000000000A00000070
:10384000020000001C000000FF00000100010A004F
:10385000000000000E00000008000000040000004E
:10386000FF00000000000E00000000000900000042
:10387000040000001C000000FF000100010009001E
:103880000000000008000000040000001C00000010
:10389000FF00000000001000000000000F0000000A
:1038A000040000001C000000FF00010301030F00E2
:1038B0000000000014000000050000002C000000C3
:1038C000FF000200020004000000000015000000DC
:1038D0000800000004000000FF00FFFFFFFF0500DC
:1038E0000000000006000000040000001C000000B2
:1038F00006000001000106000000000007000000B3
:10390000040000001C000000070001010101070085
:103910000000000012000000040000001C00000075
:10392000FF00000300030200000000001000000080
:10393000040000001C000000FF0000020002000064
:103940000000000013000000050000002C00000033
:10395000FF0003000300030000000000110000004E
:10396000040000001C000000FF0001020102010031
:103970000000000002000000010000000200000042
:103980000000FFFFFFFF0200010000000800000030
:1039900001000000180000000200000400040800FC
:1039A00001000000090000000100000018000000F4
:1039B00003000104010409000000000004000000ED
:1039C00001000000180000000400000000000400D6
:1039D00000000000050000000100000018000000C9
:1039E00005000100010005000100000002000000C8
:1039F00001000000000000000A00FFFFFFFF0200BE
:103A0000000000001600000002000000040000009A
:103A1000FF00FFFFFFFF060000000000170000008E
:103A20000200000004000000FF00FFFFFFFF07008E
:103A3000000000000C000000030000000400000073
:103A4000FF00FFFFFFFF0C00010000000A00000064
:103A50000300000004000000FF00FFFFFFFF0A005A
:103A6000010000000B000000030000000400000043
:103A7000FF00FFFFFFFF0B0001000000030000003C
:103A80000B00000004000000FF00FFFFFFFFFF002D
:103A9000000000001B0000000B00000004000000FC
:103AA000FF00FFFFFFFFFF00000000001C00000000
:103AB0000600000000000000FF00FFFFFFFFFF0006
:103AC00000000000180000000600000000000000D8
:103AD000FF00FFFFFFFFFF000000000019000000D3
:103AE0000600000000000000FF00FFFFFFFFFF00D6
:103AF00001000000160000000300000000000000AC
:103B0000FF00FFFFFFFFFF000100000017000000A3
:103B10000300000000000000FF00FFFFFFFFFF00A8
:103B2000000000001600000002000000000000007D
:103B3000FF00FFFFFFFFFF00000000001700000074
:103B40000200000000000000FF00FFFFFFFFFF0079
:103B50000000000013000000020000000000000050
:103B6000FF00FFFFFFFFFF0000000000100000004B
:103B70000200000000000000FF00FFFFFFFFFF0049
:103B80000000000012000000020000000000000021
:103B9000FF00FFFFFFFFFF0000000000110000001A
:103BA0000200000000000000FF00FFFFFFFFFF0019
:103BB000000000000D000000040000000C000000E8
:103BC000FF000100FFFF0D000000000015000000D5
:103BD000050000000C000000FF000300FFFFFF00D5
:103BE0000000000006000000040000000C000000BF
:103BF000FF000001FFFFFF000000000007000000C1
:103C0000040000000C000000FF000101FFFFFF00A6
:103C1000000000000300000001000000020000009E
:103C2000FF00FFFFFFFFFF00000000000200000098
:103C300001000000020000001400FFFFFFFF02006F
:103C4000000000000600000001000000020000006B
:103C5000060000010001060000000000070000004F
:103C6000010000000200000007000101010107003F
:103C70000D0A00000008004214090000000C004278
:103C8000150A000000100042160B0000001400424C
:103C9000170C000000180042180D0000001C004224
:103CA000190E00000000000000000000790A00006A
:103CB00021040000910900004B0900006509000083
:103CC000350B00002D0700001D070000B1070000A4
:103CD0004707000019070000000000000000000076
:103CE00007150000E913000025130000D51100009E
:103CF000FB1100000F1200004665617468657220B8
:103D00004D300000040309044164616672756974F2
:103D10000012010002EF0201409A230B8000010112
:103D20000203010000000000000000002521000047
:103D3000512100002121000045210000392100000F
:103D4000992100007D210000232D302B2000686C7C
:103D50004C006566674546470030313233343536AE
:103D600037383941424344454600303132333435E7
:103D70003637383961626364656600000000000010
:103D800040420F00FFFFFFFF000000008300000023
:103D9000020000008200000000000000000000009F
:103DA0000000000000000000000000000000000013
:103DB000FFFFFFFF00C2010000000800080B000227
:103DC00002020000090400000102020000052400B4
:103DD0001001042402060524060001052401010146
:103DE0000705810310001009040100020A00000009
:103DF00007050202400000070583024000000000A2
:103E0000FFFFFFFF8800002000000000000000000E
:103E100000000000000000000000000000000000A2
:103E20000000000000000000000000000000000092
:103E30000000000000000000000000000000000082
:103E40000000000000000000000000000000000072
:103E50000000000000000000000000000000000062
:103E60000000000000000000DD0000001D01000057
:103E7000410200008D0300000121000055220000D6
:103E8000B50000000000000000000000000000007D
:0400000300000B9D51
:00000001FF
