:1000000000800020B93D0000A13D0000A13D00009E
:1000100000000000000000000000000000000000E0
:10002000000000000000000000000000A13D0000F2
:100030000000000000000000A13D00000D3E000097
:10004000A13D0000A13D0000A13D0000A13D000038
:10005000A13D0000A13D000011160000A53D0000DB
:10006000A13D000049220000A13D0000A13D00008B
:1000700075060000A13D000059220000A13D0000CE
:10008000A13D0000A13D0000A13D0000A13D0000F8
:1000900000000000A13D0000A13D0000A13D0000C6
:1000A000A13D0000A13D0000A13D0000A13D0000D8
:1000B0000000000010B5064C2378002B07D1054B3B
:1000C000002B02D0044800E000BF0123237010BDC4
:1000D0002002002000000000EC660000044B10B578
:1000E000002B03D00349044800E000BF10BDC04608
:1000F0000000000024020020EC66000010B5084C4F
:1001000001233C220221200001F052FF200001F0D7
:10011000DFFE200002F036F8024B636110BDC046DE
:100120003C0200200100010010B5084800F066F90B
:100130000121080004F062F80121080004F08EF8A3
:10014000FFF7DCFF024801F0C3FE10BD740200207F
:100150003C02002010B50021044801F09DFE002360
:10016000034A9370034A937010BDC0463C020020BE
:100170006C02002070020020F7B5071E194E03DB49
:100180000F2812DC002811D10023019320330093A3
:10019000300020331E22042100F042FB300001F029
:1001A000F1FF300001F0EEFFF7BD0F2700252C0016
:1001B000012301350193063321B200931E22053B32
:1001C00030002DB200F02CFB0434AF42F0DA0023F3
:1001D00001931233009321B22E331E22300000F01F
:1001E0001FFBDEE73C0200207FB500253C4C3D4B69
:1001F00002212361200001F025F86561200001F053
:1002000067FE394E3388092B2AD8012302931D3308
:100210000193223300930395344B2A0029002000D8
:1002200000F0BEFDC821324800F074F8314B0028C0
:1002300006D0328819780132328001224A401A7081
:100240001B78002B47D02023002100930191DB185D
:100250001E22200000F0E4FA200001F093FF7FBD91
:10026000132B1ED801232F220393193302930192DB
:1002700000932A000B3B1F21200000F084FC0C237C
:10028000072200930195093B1E21200000F0C8FAC7
:1002900003231522019500931E21200000F0C0FACF
:1002A000C0E71D2B15D801230E2200931F210C330C
:1002B000200000F03CFC0C23062200930195093B32
:1002C0001E21200000F0ACFA0323019500931422B4
:1002D000E2E73580A6E70F20FFF74EFFBCE7C046F8
:1002E0003C0200201B0007006A0200202059000089
:1002F00070020020680200200B005A1E934170B566
:1003000005000C1E837004D003F08EFD013C241800
:100310002C8070BD70B5847805000E00002C0AD0CA
:10032000048803F081FD074A231A9BB200249342FC
:1003300005D95B42DCB231002800FFF7DDFF200069
:1003400070BDC04660EA000000207047F8B50500A7
:100350000E0017000024BC4208D02B682800315D35
:100360001B689847002801D00134F4E72000F8BD4D
:1003700070470300FC33196ADA69914203D01B6AA3
:10038000C018007E704701204042FBE70300FC33A9
:10039000D8691B6AC01A01D50130FF3070470000D0
:1003A000F7B50193FA238027002504009B008360A2
:1003B000114B7F0008330E00456029000092036056
:1003C0003A00183004F0A9FA23002000FC33213051
:1003D000DD613A001D622900FF3004F09EFA872398
:1003E0009B00E3185D609D60009B20002375019BCE
:1003F0002661A5756375FEBD105A000070B5040036
:1004000018260C49006902F01DFA206902F06EF806
:1004100033000821207D084D4343EB18595603F063
:1004200049FF0821607D4643AD19695603F042FF3C
:1004300070BDC046A0860100F460000070B50400E5
:100440000D00006902F067F82900206902F0FAF94E
:10045000206902F04BF870BD8A2300229B00C15432
:100460000C3BC3185A609A600123837570470200E1
:10047000FC32536810B501339468DBB29C4202D061
:1004800054680155536010BD10B50300827D0020F3
:1004900082420ED0872292009C186268A4680132C2
:1004A000D2B2A24205D02133FF331800FFF7DFFF9D
:1004B000012010BD0300FC3399685A68914206D0B0
:1004C0009A68805C9A680132D2B29A6070470120C3
:1004D0004042FBE700228A2370B59B00827505002D
:1004E0000E00C15C006902F049F8002806D1032122
:1004F000286902F02DF80224200070BD872328000F
:100500009B00EA18536894682130FF301C1B01D50A
:100510000134FF34002C0ED02C69FFF7CBFFC1B2A1
:10052000200002F069F80028E8D10321286902F0D0
:100530000FF80324E0E7002EDED00321286902F043
:1005400007F8D9E710B50121FFF7C4FF10BD10B5BA
:100550001830FFF7AFFF10BD70B50400006902F05E
:100560006BF8002814D0206902F074F8002810D02D
:10057000206901F0E3FF0321206901F0E9FF8C23EA
:100580009B00E558002D39D10023FC34E361236240
:1005900070BD206902F068F8002809D0206902F0D7
:1005A0005EF8002804D0206902F063F80028DFD04C
:1005B000206902F059F8002826D1206902F045F898
:1005C0000028E5D0206902F054F8002837D08723AE
:1005D0009B00E218536892689B1A01D50133FF33E0
:1005E000FF21002B05D020002130FF30FFF762FFF4
:1005F000C1B2206902F012F8A075C9E72368200093
:100600001B699847A847BFE7206901F097FF206959
:10061000032101F09DFF206902F02BF80028B7D0DC
:10062000872300229B00E3185A609A600123A37578
:100630008B239B00E3589342AAD09847A8E7220057
:10064000FC32D369126A0133DBB22069934206D1CE
:1006500001F06BFF0321206901F07AFF98E702F0B7
:100660000DF8010020001830FFF701FF206901F0AC
:1006700065FFEFE710B50248FFF76EFF10BDC046FB
:100680007402002010B51523142202490248FFF716
:1006900087FE10BDF00C0020740200207047F0B5FA
:1006A0001D0089B00EAB00241C5F0FAB1B88160029
:1006B0000693A31ADA179B18534002936B1ADA17A2
:1006C0009B1853400393039A029B0190934205DCCD
:1006D00023002C001D0033000E001900A64205DC8B
:1006E0002B000D001900230034001E00331B9BB2A9
:1006F00004934B1BDA179B18534007936B46102249
:100700009A5ED30F9B185B10009301238D4221DA70
:100710000593B44224DC019B039A1B689B691F006C
:10072000029B934218DD22002900069B0198B847DE
:10073000009B079A9B1A9BB21AB20092002A06DA13
:10074000059AAD18049A2DB2D3181BB20093013448
:1007500024B2DEE75B42DBE7069B2A002100E5E7E7
:1007600009B0F0BD704710B504682469A04710BDFA
:1007700037B506AC258804680095A46BA04737BD43
:1007800037B506AC258804680095E46BA04737BDF3
:1007900073B506AC0025655F07AC26880468019632
:1007A0000095246CA04773BDF0B5160004000D0041
:1007B00085B003930AAB1F8803685B699847039B66
:1007C0002268013B9B191BB200930197976A2B008B
:1007D000320029002000B84723682000DB6A9847D0
:1007E00005B0F0BDF0B505001C000E00170085B087
:1007F0000AAB1B88013C03930368A4195B69984703
:1008000003992A680191009723B23100946A280065
:100810003A00A0472B682800DB6A984705B0F0BD76
:10082000F0B50E0087B003930CAB029200229B5EE2
:10083000050004930DAB1B883400059303685B69C6
:100840009847039A2B68B21894420ADA059A210055
:1008500000921F6A029A049B28000134B84724B210
:10086000EFE7DB6A2800984707B0F0BD13B50191A8
:100870000E24015F0C22835E02680091146C00223A
:100880001100A04713BDF0B5040015000E0087B09D
:1008900004930CAB00229B5E05930DAB1B88039366
:1008A00003685B699847039A236800925F6A2A008D
:1008B000049B31002000B847059B03995A1E23680A
:1008C000009152195F6A3100049B200012B2B847B0
:1008D000039A236800921F6A2A00059B31002000BA
:1008E000B8470499039A236801390092891909B21B
:1008F0001F6A2A00059B2000B84723682000DB6A96
:10090000984707B0F0BD7047F0B585B01E000AAB40
:100910000027DF5F0BAB1B881400050002910393D7
:100920000268B14210D1BC4202DC3B0027001C002F
:10093000039901340091E31B966B1BB23A000299B4
:100940002800B04705B0F0BDBC4211D1029BB342B4
:1009500002DC3300029E0293029B03990133009153
:100960009B1BD76B1BB2220031002800B847E9E778
:1009700053699847039A2B68019200979F6A280051
:10098000330022000299B8472B682800DB6A984799
:10099000D8E70323194010B50822835E81760A2424
:1009A000025F012904D0032902D08381C28110BDD6
:1009B0008281C381FBE700004281C2810122524251
:1009C00042610222002310B5FF32074C0283013A34
:1009D0000834FF3A436004600181818103618376BA
:1009E000C2760377036210BD345F0000F0B51C00CF
:1009F0008FB00692012214AB1B780591079316ABBA
:100A00001B8805000893A3B2D11A93405B421BB226
:100A10000C9315AB1B8809B209939B189BB20B93DF
:100A20000023039104930D92049BA3427DDA039B60
:100A30000294002B0BDB631E1BB202930C9B023350
:100A40009BB21AB20C92039A9B181BB20393049E9A
:100A5000039A0136B6B233B2049373009BB20A9381
:100A600001339B181BB20393049A029B93422BDB26
:100A7000079B0D9A134211D06B461A890B995300AC
:100A8000CB180699089F8A1A05992868711800974B
:100A9000076A1BB212B209B22800B8470222079BAC
:100AA000134211D06B461A890B995300CB18069943
:100AB000089F8A1A05992868891B0097076A1BB244
:100AC00012B209B22800B847029B9C422BD0079B68
:100AD0000D9A134211D0099B0A9A013BD318069A2A
:100AE000089F059928680132921B09190097076A27
:100AF0001BB212B209B22800B8470222079B134268
:100B000011D0099B0A9A013B0599D318069A091B33
:100B1000089C28680132921B0094076A1BB212B22B
:100B200009B22800B847029C7EE70FB0F0BDF0B5CF
:100B300004001E00170087B00CAB1B8804910593BE
:100B400003685B699847059821680090B2B2096A0A
:100B500053000133BA1A0D00200004991BB212B2DF
:100B6000A847059B3A0002930023019303330093A7
:100B7000049933002000FFF739FF23682000DB6A67
:100B8000984707B0F0BDF0B591B01C0016AB0292CB
:100B900000229B5E0D00049317AB00269E5F18ABEE
:100BA00000229B5E0499039319AB1B88029A099358
:100BB000036807005B698A4265DD03998A4200DDAC
:100BC0007EE0029A049904922A0025001400029102
:100BD00038009847029B039A934200D08BE0A542CD
:100BE00002DD2B0025001C00B54205DC231CB442AD
:100BF00000DA331C2E001CB209993A6801340091C6
:100C0000A31B556A1BB2029A31003800A8473B6803
:100C10003800DB6A984711B0F0BD049B0C9AF31AB8
:100C20005A43029B0492089AF31A5A430292039B76
:100C30009E42ECDC0F99049803F00AFD059B0B998A
:100C4000181804B2029803F003FD0C9A049B944612
:100C5000089A634494460493029B2818634401B2A3
:100C600002938C4202DC0B0021001C0009983A68B8
:100C70000134631A0090546A1BB232003800013606
:100C8000A04736B2D3E7049A03998A42A0DD029ABC
:100C900003998A4223DC049A0299049103990392EE
:100CA000220002912C00350016008AE73800984790
:100CB000029B039A03932B00350002921E001AE058
:100CC000049A03998A42F1DC9847049A029B0292A3
:100CD000039A039304922B0025003400EEE73800BA
:100CE0009847029B039A0292049A04932B003500C2
:100CF00026001C000392A3B2ADB205935B1B1BB28E
:100D00006A460D936B4611891B8AB6B25A1A12B203
:100D10000E92721B12B208926A469289511A09B257
:100D20000B910599D21A761A31B212B20C910F9228
:100D30000399049A0A928A4202D0013B1BB20A9399
:100D40000023029E079306930A9B9E4200DD64E700
:100D50000E99069803F07CFC28180B9904B20798AA
:100D600003F076FC0D9A069B9446089A63449446D9
:100D70000693079B2818634401B207938C4202DC58
:100D80000B0021001C0009983A680134631A009096
:100D9000546A1BB2320038000136A04736B2D3E79E
:100DA000F0B58DB0079312AB029200229B5E0691C4
:100DB000039313AB00229B5E0400089314AB1B88C3
:100DC000099315AB1B880A9303685B699847072250
:100DD000039B029FD91DCB1713405B18DB100493B4
:100DE00000231D0000930B92029ABBB205939B1A3D
:100DF000089A1BB29A422CDD0023039A93421FDA11
:100E00009AB201920B9A6D0099B2EDB2114204D1DF
:100E1000079A0099DB105218D55C2368019A9B69E8
:100E20001E00069BD1186AB209B2099B002A00DB9A
:100E30000A9B3A002000B047019E013633B2DCE73E
:100E4000049A009B9446059F6344013700933FB288
:100E5000CAE723682000DB6A98470DB0F0BD0000A8
:100E6000F0B595B01D001AAB1B88040005931BABB1
:100E70001E881CAB1B78089103931DAB1B78049252
:100E80000293036A002B00D0C4E00C22835E8B42E5
:100E900000DC7DE00E22835E049A934278DD062317
:100EA000039A53435B18002B72DD029B049ADB000C
:100EB0009B18002B6CDD037F002B03D1AF2D01D9D4
:100EC0000135EDB2236820005B69984705235D4337
:100ED0000B9300230793984B5B190F93079A0F9B73
:100EE0009B5C0A936B469B8B09936B469B890D9386
:100EF0006B460D9A1F8C099B5343FB181BB20E9334
:100F000008230C930023069301220A9B20681342B6
:100F100052D06B461A8B198A039B012B3AD1029B44
:100F2000012B37D1099B52188569D919059B12B23B
:100F300009B22000A847069B01335BB206930A9BC7
:100F40005B080A930C9B013BDBB20C93002BDBD1BB
:100F5000079B01335BB207930B9B013BDBB20B9307
:100F6000002BBBD1059BB3420ED0039B2268012B03
:100F70003FD1029B012B3CD105370096156A39B24F
:100F80000733049A2000A84723682000DB6A9847AB
:100F900015B0F0BD6B460C255B5F029D6A438A1855
:100FA000059912B2019169460825495F0091C5690A
:100FB0000E992000A847BEE7059BB342BBD06B4605
:100FC000198B1A8A039B012B0AD1029B012B07D193
:100FD000099B5218D91912B209B285693300A8E7E2
:100FE0006B460C255B5F029D01966943521812B255
:100FF000D9E76B460C215B5E05210D9801964143B4
:1010000002987918C0000090D56909B2049A2000AE
:10101000A847B9E71A7AAD1AEDB25A68ED001B6815
:10102000551913932B880993AB780D93EB78119393
:101030000523EB560E930623EB560F93039B012BD0
:1010400002D8029B012B56D96B4638229B5E0B932C
:101050006B463C229B5E0C930027236820005B6953
:10106000984707970697119B069A9A4200D38BE7F9
:101070006B461B8A00260A930C9B9B18029A5343CB
:101080000A9AD3181BB210933B000D9A96424BD28A
:101090005A1CD2B212920722134207D1099B099916
:1010A000139A0133525C9BB2079209936B461B7FE4
:1010B0005BB2002B17DA6B46198C039B2068012B5F
:1010C0001DD1029B012B1AD10A9B0F9A9A18069BDD
:1010D000D2180E9B12B2C918836989191D0009B272
:1010E000059B2000A847079B01365B00DBB20793F6
:1010F000F6B2129BC9E700230C930B93ACE76B4647
:101100000C229B5E0B9A039D92196A438918059ADB
:1011100009B201926A460825525F0092C269200016
:101120001500109AA847DEE7069D0D9B0135FF18B4
:10113000EBB2FFB2069396E7345A0000F0B5026AAC
:1011400085B004000D00002A2CD10A2908D1437E65
:101150000282DB00628A9B186382012005B0F0BD29
:101160000D29FAD01223C25E1023C15E437E039381
:10117000037E0293C38A0193838A00932B00FFF7B7
:101180006FFE227E238A312D08D1042A02D1133327
:101190002382E2E7032A01D10E33F9E706214A430D
:1011A0009B18F5E70A2905D100230382127B437EB1
:1011B0005343CFE70D29D0D0137A9942CDD3917AFA
:1011C000A942CAD3EB1A5168DBB2DB00CE18B17862
:1011D000002929D0F378002B26D0E37E007E677E9D
:1011E000002B13D00523F3565B1843439C46102372
:1011F000E15E8C440C23E15E8C4507DD1223E15E49
:1012000000232382137B7B435B1863821223E25EFD
:101210001023E15EE38A02900193A38A039700936F
:1012200020002B00FFF71CFE227E33795343228AD5
:10123000B6E7002900D101310176002A00D1013240
:101240004276704710B50A00FFF7F3FF10BD0000AB
:101250000378034A9B009B58002249331A70704759
:10126000FC040020F0B5040085B01E000AAB1B781A
:10127000103001930BAB1B78170002930CAB1B785B
:101280000D00039300F090F92000243000F08CF959
:10129000220000234832A363E36323646364137072
:1012A000537063729D4205D12221084B084A0948B8
:1012B00003F0BAFA2000019B25606371029B27713D
:1012C000E371039BA671237205B0F0BD8C5F000033
:1012D0009D5F0000F15F000030B5040085B002ADF5
:1012E00000680291039201F0BDF86B79227AE179EE
:1012F00020680093002301F07BFA2979029A206884
:1013000001F0D4F8206801F0A3F805B030BD00006A
:1013100007B5837A00910192002B07D09A070AD56E
:10132000EFF310835A425341C37272B60099019A87
:10133000FFF7D2FF07BDDB07F8D5C368014A9BB2B0
:101340009360F3E70018004010B5006801F093F8CF
:1013500010BD000010B5006801F09EF903000020E8
:10136000834203DB0C304343014A985810BDC0460A
:101370005460000010B5006801F08EF9002805DB0C
:101380000C2343430348C018406810BD012040426D
:10139000FBE7C0465460000010B5006801F07CF91E
:1013A000002805DB0C2343430348C018806810BDA8
:1013B00001204042FBE7C04654600000F0B5060043
:1013C0001036050089B0300000F046F9002869D1D8
:1013D0002F002437380000F03FF9041E5FD12800A9
:1013E000FFF7DAFFC1B2300000F018FA0221300036
:1013F00000F038FA2C490122300000F00BFA2B7C67
:101400002A4A9B0028009D50FFF7B4FFC1B2380064
:1014100000F004FA0221380000F024FA6B1DDB7F93
:10142000224A9B0028009D50FFF794FF01230100F2
:10143000220002933000230004940394019400944A
:1014400000F034FAA8632800FFF784FF01230200AC
:101450002100019338002300049403940294009423
:1014600000F024FAE863402003F03AFA2A004832F8
:101470002864079200280BD00123137068646B6CFA
:1014800010221819E96B103403F03EFA402CF6D103
:10149000079B1B78002B05D1380000F077F930004E
:1014A00000F074F909B0F0BD51120000FC040020F6
:1014B00070B5437A0400002B03D1012243814272AC
:1014C000C360230048331B78002B02D12000FFF7B4
:1014D00075FF18263300082120790D4D4343EB1882
:1014E000595602F0E7FE33000821A0794343EB1878
:1014F000595602F0DFFE082160794643AD1969565E
:1015000002F0D8FE034B200006CBFFF7E5FE70BDCE
:10151000F4600000F40400201FB5094A094B0A4991
:1015200013600023938002930133019316330093D9
:10153000162201330548FFF795FE05B000BDC046F1
:10154000F404002000093D00F40C0020A804002051
:10155000084B1968002909D1EFF31080064A0028CA
:1015600003D172B6BFF35F8F013111701A68013277
:101570001A607047B8060020B4060020084B1A68AD
:10158000002A0CD01A68013A1A601B68002B06D199
:10159000044B1B78002B02D0BFF35F8F62B67047FD
:1015A000B8060020B4060020FF23002110B5040077
:1015B0000370FC3B41708170C170017143710C225A
:1015C000083003F0AAF9200010BD000001220B0032
:1015D00010B5134008D00D4B1A7004234370836874
:1015E000002B00D0984710BD0222114204D00749B9
:1015F0000A704370C368F3E704231942F3D0034A27
:101600001370033343700369EAE7C0464E48004154
:1016100010B5FFF79DFF0C4B1B8C1B071B0F0B2BF3
:101620000FD80A4A9900885800280AD00F24084980
:101630000A78A24313430B70064B1978C9B2FFF71F
:10164000C5FFFFF79BFF10BD00480041BC0600200E
:101650003F4800414E480041F8B50023027805009C
:1016600018000B2A77D93C4E2B702B780B2B07D800
:1016700001229A403168114204D001332B70F4E703
:10168000012068E0FFF764FF3768344C002F2BD14E
:101690002022334B334859690A435A611022D969D1
:1016A0000A43DA6102222388390093432380238886
:1016B000013A134323802C4B6063BF32A36303F0D2
:1016C0002CF9C0223900284803F027F94022C12014
:1016D000264B80002380264B26491A601A58114059
:1016E000C02212040A431A5001231A0029783068D4
:1016F0008A40024332600F261F4A880085501F48E7
:1017000031400278B2430A43027002201C4A117829
:1017100081431170117819431170297822698B4027
:101720009A43226160223F21636C934363642A7968
:10173000636C0A40134912020B4003211343636494
:101740006A79636C0A40104992050B401343636445
:10175000FFF714FF0020F8BDB0060020004800414C
:1017600000040040F005002030050020020F0000BA
:1017700000E100E0FFFF00FFBC0600203F48004101
:1017800040480041FFC0FFFFFFFF3FFF70B505006D
:10179000FFF7DEFE6B785BB21C00062B2BD02B789C
:1017A00002240B2B27D801229A40154B19681142AD
:1017B00021D01968914319601B68002B14D1402275
:1017C000104BDA67BFF34F8FBFF36F8F21000E4AC4
:1017D0000E311388A34313800C4BDA698A43DA6114
:1017E0005A6910318A435A6100242B78084A9B00B9
:1017F0009C50FF232B70FFF7C1FE200070BDC04638
:10180000B006002004E100E0004800410004004070
:10181000BC060020023292001150704770B50500DE
:10182000297103780C000B2B14D8FFF791FE29784F
:101830000F25094829400378084AAB430B433F2151
:101840000370536C0C40064924020B401C43546443
:10185000FFF794FE70BDC0463F480041004800417C
:10186000FFC0FFFF70B50500697103780C000B2BFA
:1018700014D8FFF76DFE29780F2509482940037811
:10188000084AAB430B4303210370536C0C400649D9
:10189000A4050B401C435464FFF770FE70BDC046A6
:1018A0003F48004100480041FFFF3FFFF0B587B0CF
:1018B00001930CAB1E780DAB1B78050002930EABA9
:1018C0001B780078039310AB049105921F780B28C6
:1018D00002D9002007B0F0BD6B78062BF9D0AB78A9
:1018E000002B00D178E01021080002F0EFFF002863
:1018F000EFD02B783A4A1B019B181A00D1680029B7
:1019000004D0D1688B4201D0D268F7E7D0600123C0
:101910000221AB709E4203D04918022E00D019005C
:10192000062402881A4302800288A24302800288A9
:101930001234A2430280153C02882640294C36020C
:10194000224016430680029E0288274C1E402240F9
:10195000B60216430680039E0288244C1E40224095
:10196000F602164306800288214E3B4032401B039C
:101970001343072203800F9B1A4003885203DB04A2
:10198000DB0C134303806B469B884380049B4360BE
:10199000029B002B08D0019B42684B43002F01D0D3
:1019A0000F9CA340D3184360059B8360039B002BCF
:1019B00008D0019C4C438168002F01D10F9B9C40B3
:1019C0000C1984600023EA789A4203D02B78044AE9
:1019D0001B019B18C3607DE7014B0001C01896E70F
:1019E000F0050020FFFCFFFFFFFBFFFFFFF7FFFFFD
:1019F000FFEFFFFF70B5140004AA1588827E022A4B
:101A00003AD0032A00D16FE0012A3DD1E243048994
:101A1000A41824B2002C2EDB0826825FA2422ADD05
:101A2000002902DA5B1800211BB20A22825EC81864
:101A3000904201DD531A1BB2002B1CDD0720C9B2F6
:101A4000CA0892011419644ADBB2A41801405CD0A0
:101A50000130401A614AC0B2125C834200D3B2E046
:101A6000FF21C61A31410A40012D42D0002D44D039
:101A7000022D00D1ADE070BDE2434489C918A4181D
:101A8000028924B2511A09B2002CF4DB0A26825FC3
:101A9000A242F0DD002902DA5B1800211BB2082205
:101AA000825EC818904201DD531A1BB2002BE2DDA2
:101AB0000726E01730400019C010800141180120AE
:101AC0003440A040444AC0B28A18012D65D0002D90
:101AD0006DD0022DCFD1013B1BB2591CCBD0117858
:101AE000414011700132F6E74289C918511A09B212
:101AF00090E721780A43227002E021789143217017
:101B00008342B8D31B1ADBB24034072B2ED9022DE7
:101B100016D121001A000878083AC043D2B20870E2
:101B20004031072AF7D81A000721083AD2B2D20862
:101B300001329201A4180B409DD0294AD35C21E0C8
:101B40006A1E51424A41200019005242D2B208395D
:101B5000C9B2027040300729F9D81A00083AD2B247
:101B6000D20801329201A41807221340002B00D1A1
:101B700081E71B4AD35C012D07D0002D09D0022D2F
:101B800000D078E72278534001E022781343237095
:101B900071E722789A4322706DE7013B1BB2591C12
:101BA00000D168E71178014311700132F5E7C043B5
:101BB000C0B2013B1BB2591C00D15CE71178014057
:101BC00011700132F5E7012D93D0002D95D0022D33
:101BD00098D121784A408EE71000002008000020AC
:101BE0000000002070B50C0004A90D88817E022938
:101BF0003CD0032978D0012940D10189D2188A1A12
:101C000012B2002C00DAD9E00A26815FA14200DC82
:101C1000D4E0002A02DA9B1800221BB20821415EA0
:101C2000D018884201DD8B1A1BB2002B00DCC5E006
:101C30000726E01730400019C010800182180120EB
:101C40003440A0406249C0B25118012D51D0002D3E
:101C500058D0022D00D0B1E0013B1BB25A1C00D17C
:101C6000ACE00A7842400A700131F5E7E1430489AB
:101C7000D2186418418924B28A1A12B2002C00DAF0
:101C80009CE00826815FA14200DC97E0002A02DA8E
:101C90009B1800221BB20A21415ED018884201DD48
:101CA0008B1A1BB2002B00DC88E0D2B2D10889016C
:101CB0000C194749DBB2641807210A4039D00131B9
:101CC0008A1A4449D2B2895C934200D377E0FF205C
:101CD000D61A30410140012D1FD0002D21D0022DF8
:101CE0006CD1207841401AE0E1434489641824B261
:101CF00087E7013B1BB25A1C60D00A7802430A7086
:101D00000131F6E7C043C0B2013B1BB25A1C55D0AB
:101D10000A7802400A700131F6E720780143217009
:101D200002E0207888432070934247D39B1ADBB2AD
:101D30004034072B2ED9022D16D121001A00087825
:101D4000083AC043D2B208704031072AF7D81A00C7
:101D5000083AD2B2D20801329201A41807221340E5
:101D60002CD01D4AD35C1FE06A1E51424A4120001C
:101D700019005242D2B20839C9B202704030072964
:101D8000F9D81A00083AD2B2D20801329201A41846
:101D900007221340002B11D00F4AD35C012D06D02F
:101DA000002D08D0022D09D12278534001E022787D
:101DB0001343237002E022789A43227070BD012DF4
:101DC000ABD0002DADD0022D00D18AE7AEE7C046E2
:101DD00010000020080000200000002030B500297D
:101DE0001BDB0C25445F8C4217DD002A15DB0E251A
:101DF000445F944211DD847E022C0FD0032C16D058
:101E0000012C04D1D243008980180A0001B2012BB1
:101E100013D0002B1FD0022B2DD030BD0489013CE4
:101E2000611AD443428909B2121912B2EFE740890C
:101E30000138401A110002B2E9E70724D017204008
:101E4000801822409340C010800141181148425C24
:101E500013434354E1E70720D31703409B18DB10DB
:101E60009B0159180123024093401A00094C635CFE
:101E700093436354D1E70720D31703409B18DB102B
:101E80009B015918012302409340024C625C53406D
:101E9000EFE7C0461000002070B504000D002022BE
:101EA0004021FEF789FD094BFF2208332360230000
:101EB0002A331A702200012328325B42E384137014
:101EC000230029331D70200070BDC0469C600000B7
:101ED000802210B552000021014802F01EFD10BD05
:101EE000100000200300F7B52B331B7806000F000D
:101EF000002B03D01148FFF727FAF7BD08248025EF
:101F000033001F20083301931856002102F0A6F970
:101F100029001F20F31D39401856002900D0012147
:101F200002F09CF91F20019B01211856013C02F090
:101F300095F96D08002CE3D1DFE7C046A804002026
:101F400070B5C31DDB7F04005BB20D0001331AD0F6
:101F5000060000202A363056012102F07FF92820A1
:101F60000021205602F07AF900200021305602F0BC
:101F700075F929002000FFF7B5FF00200121305638
:101F800002F06CF970BD0534E17F084C2000FEF7CB
:101F900063FA00212000FEF777FA29002000FEF7FF
:101FA00073FA2000FEF7CEFAECE7C0467402002078
:101FB000F0B585B00093831DD977431DDA771F23D1
:101FC000C71DFB5604000D00013300D1C8E003001B
:101FD0002020083301931856012102F00FF9260042
:101FE0002A20012120562B3602F008F93378002BE5
:101FF0000AD11F200121385602F000F91F20019B51
:102000000121185602F0FAF83378002B0CD0594E03
:102010003000FFF74DFA002302AA5371137156499D
:10202000039A3000FFF774F9009B002B1DD02600A7
:10203000002029363056002817DB012102F0DEF897
:1020400000200121305602F009F9012001F022FFA1
:1020500000200021305602F001F90A2001F01AFF99
:1020600000200121305602F0F9F8AE212000FFF7E0
:1020700067FFD5212000FFF763FF80212000FFF7D5
:102080005FFFA8212000FFF75BFF1F212000FFF763
:1020900057FFD3212000FFF753FF00212000FFF757
:1020A0004FFF40212000FFF74BFF8D212000FFF75D
:1020B00047FF1021012D00D014212000FFF740FF21
:1020C00020212000FFF73CFF00212000FFF738FF10
:1020D000A1212000FFF734FFC8212000FFF730FFC7
:1020E000DA212000FFF72CFF12212000FFF728FF44
:1020F00081212000FFF724FFCF212000FFF720FFE0
:10210000D9212000FFF71CFF2221012D00D0F12151
:102110002000FFF715FFD9212000FFF711FF222132
:10212000012D00D0F1212000FFF70AFF2000DB2164
:10213000FFF706FF20004021FFF702FF2000A42147
:10214000FFF7FEFE2000A621FFF7FAFE20002E2159
:10215000FFF7F6FEAF212000FFF7F2FE05B0F0BD5D
:10216000064E3000FEF74AF905493000FEF766F9E1
:102170005AE7C046A804002000127A00740200202A
:10218000801A0600F8B505002121FFF7D9FE2021AD
:102190002800FFF7D5FE5F212800FFF7D1FE22219E
:1021A0002800FFF7CDFE00212800FFF7C9FE03211C
:1021B0002800FFF7C5FEEB1DDB7F00245BB2013377
:1021C00020D02E0000202A363056012102F046F899
:1021D00028200121285602F041F800202100305625
:1021E000802702F03BF87F00154B2800195D013471
:1021F000FFF778FEBC42F7D100200121305602F0F3
:102200002DF8F8BD0F4E6B1DD97F30002700FEF76B
:1022100023F940213000FEF737F91037BFB2084BE1
:102220003000195D0134A4B2FEF72EF9BC42F6D19C
:102230003000FEF787F980235B009C42E2D1E0E7A3
:10224000100000207402002010B5024801F0B2FC1A
:1022500010BDC046EC06002010B5024801F0AAFCF3
:1022600010BDC046E8090020F7B501240326154F2C
:102270001549380000F056F81449154800F052F896
:102280001449154800F04EF81449154800F04AF872
:102290001449154800F046F8144D1549280000F07F
:1022A00041F839002300009600220194114801F002
:1022B00015FC290000961E231F2201940E4801F0F0
:1022C0000DFCF7BDE40C002000080042000C0042A9
:1022D000E80C002000100042EC0C0020001400422A
:1022E000F00C002000180042F40C0020F80C002034
:1022F000001C0042EC060020E8090020F7B50600AB
:102300000D000C008B180193019B671B9C4207D0AA
:10231000336821781B683000984701340028F3D1D6
:102320003800FEBD016070479446F0B59E1E721ED7
:1023300096416246056892072F6836063A43324353
:102340002A60072505AC24780068A40129402143B0
:1023500042680024022B00D05C03114321434160FA
:10236000F0BD30B5C0250368AD031C6812052A40D6
:102370002243C0240904A4022140114319600368C8
:102380005A6814435C6030BD0123026811680B4336
:10239000136003681A68D207FCD4DA69D207F9D44B
:1023A00070470223026811680B4313600268D36907
:1023B0009B07FCD4704703681A7ED20702D41A7EAA
:1023C0009207FCD57047002203685A837047036860
:1023D000187E4007C00F70470368187EC009704719
:1023E000802302685B42117E0B43137670470368BB
:1023F000588B8007C00F704702230268518B0B4334
:10240000538370470368187EC007C00F7047036886
:10241000188DC0B2704703681A7ED207FCD589B206
:10242000012019857047012203689A7570470122BF
:1024300003681A7570470123026811680B43136023
:1024400003681A68D207FCD4DA69D207F9D4704756
:102450000223026811680B4313600268D3699B076B
:10246000FCD470470368DA699207FCD402211A6829
:102470008A431A6070470268936A5B0A5B021943D9
:10248000916203681A7E5207FCD5986AC0B2704701
:1024900010B54900044802F051F880B2002801D07C
:1024A000013880B2C0B210BD006CDC0270B54B08C0
:1024B0000C00012105680B400C402E6824075B07C7
:1024C000234333432B6011000468FFF7E1FF2073BF
:1024D00070BD0123026811680B43136003681A681A
:1024E000D207FCD4DA69D207F9D470470223026814
:1024F00011680B4313600368DA699207FCD430213A
:102500005A8B8A43110010220A435A830268D36906
:102510005B07FCD470470221026813688B43136089
:102520000268D3699B07FCD4704780230268DB02F2
:10253000116851680B4353607047000003680349FA
:102540001A685A680A405A607047C046FFFFFBFF8E
:10255000032230B5036811401C68074D5A6809040E
:102560002A40E4061143640F5960052C03D1026828
:10257000D3695B07FCD430BDFFFFFCFF30B50368B7
:102580000400588B8006800F022814D05D8B002039
:10259000AD06AD0F032D2ED0588B800705D55D8B72
:1025A0000020AD06AD0F012D25D100205D8BAD06BD
:1025B000AD0F85421FD04800596A1043C90AC0B206
:1025C000C902014359622368002A08D11A7ED20742
:1025D000FCD5588B4007C30F012058400BE0187EF4
:1025E0008007C00FF5D11A7ED207F8D5C0225968EE
:1025F00092020A435A6030BD036828331970036899
:10260000187EC007C00F03D15A8BD207F8D5704788
:10261000588B4007C30F01205840F8E70368283360
:102620001970036800201A7E520704D5588B0123C5
:102630004007C00F5840704703681868C006400F35
:10264000043843425841C0B270470368187E4007BF
:10265000C00F70470368187EC007C00F704703683B
:10266000588BC006C00F70470368187E8007C00FE4
:1026700070470368588B0007C00F704703681A68DB
:10268000D206520F052A02D11A7E9207FCD52833B2
:102690001878C0B2704700000368104A934213D004
:1026A0000F4A934212D00F4A934211D00E4A9342DE
:1026B00010D00E4A93420FD001200D4A404293425F
:1026C00001D1063040B270470020FBE70120F9E756
:1026D0000220F7E70320F5E70420F3E700080042B3
:1026E000000C00420010004200140042001800429A
:1026F000001C0042F8B5FFF7CFFF00282CDBC30019
:102700001C48FF22C01805230479C3560320184033
:10271000C0008240C021D2438140002B1DDB1F2519
:1027200001201D40C026A840134D7600A851C026A8
:102730009B089B005B19B6009F593A401143995181
:1027400028603F2323408024E4011C430B4B5C8022
:102750005A7852B2002AFBDBF8BD0F200340083B39
:1027600007489B089B001B18D86902401143D96198
:10277000E7E7C0464465000000E100E0000C0040CF
:1027800000ED00E0F8B504000F0016001D00FFF793
:10279000B1FF2000FFF7F8FD1C21BB000B407107C3
:1027A0002268090C0B431360842322689375012F60
:1027B0001AD11021012E00D008390C4B694318683A
:1027C000C00001F0BBFE0722216802408B89520342
:1027D000DB04DB0C13438B81226803049089DB0C40
:1027E000400B400318439081F8BDC0468C01002087
:1027F000F7B50500019308AB1F780E001400FFF732
:102800001AFE2800FFF776FFC02224059203144029
:10281000BA070C2717433C43C02707223604BF02E0
:102820002B683E4026431E60019B296813401A0016
:1028300080239B0213434B602A68D3695B07FCD457
:10284000F7BD0000F8B504000F00FFF753FF2000AC
:10285000FFF73FFE1422236879001A600C4B2568AD
:102860001E68300001F06AFE0A490400300001F0E1
:1028700065FE7D23FA215843C90001F05FFEFF2366
:10288000241AE868053C1C4098430443EC60F8BDFA
:102890008C01002040420F003F20704713B56B466B
:1028A0000268D9710733546819000122A04716BD88
:1028B00010B50221006900F037FC10BD10B50321EE
:1028C000006900F047FC10BD10B51300084A040071
:1028D000D279002A03D101230020636010BD0A00D1
:1028E0000069032100F02EFD0028F4D0F6E7C04671
:1028F0001401002010B5054C23685A1C04D103684C
:102900005B69984703002060180010BD600100203B
:10291000074B0200186810B5411C03D00122524237
:102920001A6010BD0221106900F0FEFCF9E7C046F4
:102930006001002010B5037842220233037002497F
:10294000024800F0ABFD10BD1C010020180D002056
:1029500010B50178020043780020A12908D1212B6D
:1029600005D107221649174800F098FD012010BD37
:102970002129FCD1202B13D107221149114800F045
:102980002DFC96220E4BD200196891420ED10124E3
:10299000D87904400AD1FA2001F0EEFC0020E6E7E5
:1029A000222B06D19278064BDA71EAE701F0EAFCB5
:1029B000F4E7232BDBD15288034B1A60D7E7C046DC
:1029C00014010020180D002010010020FA2200211F
:1029D000054B92009A60054A596008321A60044A11
:1029E00019761A617047C046FC0C0020746500001F
:1029F000180D0020704770B50F26CB1D013902005D
:102A00003240D5B22C0000093034092A00DD0734E9
:102A10001C70013B8B42F2D170BD10B5040080697F
:102A200001F068FFA06A01F065FF200010BD10B53D
:102A30000400FFF7F2FF200001F078FA200010BD3B
:102A400070B5032908D1324B8000C058002802D04D
:102A50000368DB68984770BD82291FD1C3B22D4D32
:102A60005A01AA1891692C4C80010C40C02189059B
:102A700021439161294908334018802150612A6817
:102A80005B01D01804794942214301717020995C9F
:102A900081430800302101439954DCE70029DAD151
:102AA000C024C1B21B4E4A01B21893681A4DA40546
:102AB0002B40234393601A4B8001C0180B005060D9
:102AC0003068072608335B01195CB1430E00012111
:102AD0003143195491690D402C43946170240F497E
:102AE0005161195CA1430C001021214319549168D4
:102AF0000C4CC3180C40802149032143916091681C
:102B0000890B89039160402259790A435A71A2E7DF
:102B10001C0D0020D0110020FFFFFF8F440D00206E
:102B2000040F0020FF3F00F0EFF310830360012348
:102B3000436072B670470368002B02D162B6BFF3E0
:102B40006F8F704737B5056904006846002D14D1B2
:102B5000FFF7EAFF019B621D013B02D3D57FEDB277
:102B6000FAE768460193FFF7E6FF002D01D1002048
:102B70003EBD206AE369C01AFAE7FFF7D5FF2200DD
:102B80000025019B3432013B02D31578EDB2FAE700
:102B900068460193FFF7CFFF002DE8D0206BE36A72
:102BA000E9E70000FF2130B54368164D1A688368D5
:102BB0000B405B01D21801235218947A234393727D
:102BC000836842680B405B01D418C268A368920412
:102BD0002B4012091343A360836842680B405B01DA
:102BE000D3189A68920B92039A6043681A688368B4
:102BF0000B4008335B01D318402219790A431A713C
:102C000030BDC046FF3F00F0F7B5036904000E0079
:102C100017006846002B45D1FFF786FF019B611D19
:102C2000013B5A1C0CD0CD7F5A1EEDB2002D05D1B0
:102C300068460193FFF77FFF2800FEBD1300F0E711
:102C4000684601930025FFF776FFE369AF420AD09B
:102C5000226A9A4207D95A1CE261A269D3181B78EA
:102C600073550135F1E7226A9A42E5D10023E36109
:102C7000013323616846FFF757FF22000021019BC3
:102C8000671D013B3532581CD2D0F97710785E1E93
:102C9000002805D0117020000193FFF783FFECE7B7
:102CA0003300F0E7FFF740FF2100019B3431013B87
:102CB0005A1C06D00D785A1EEDB2002DB8D0130064
:102CC000F6E7684601930025FFF735FFE36ABD424A
:102CD00002D0226B9A421CD8226B9A42ACD10023BC
:102CE0006846E3622361FFF71FFF270022000021EF
:102CF000019B3437013B3532581C99D0397010781C
:102D00005E1E00280DD0117020000193FFF74AFFCE
:102D1000EBE75A1CE262A26AD3181B78735501359F
:102D2000D4E73300E8E7F7B5FF21826843680A403B
:102D30001B68083252019A18D3790400DB072AD5A0
:102D40000125D571836842680B405B01D3189A68EE
:102D500040699204920C002821D12262226A002A42
:102D60003ED0A26A656168465A60FFF7DDFE270023
:102D70002100019B661D013B343735315A1C2BD095
:102D8000F5773A78581ED2B2002A05D001936846EA
:102D90000D70FFF7D0FEF7BD0A700300EEE7226367
:102DA000226B002A1CD000226261A26968465A6028
:102DB000FFF7BAFE26002100019B3436013B671D58
:102DC00035315A1C08D03570FA7F581ED2B2002A0D
:102DD000DCD10A700300F4E768460193FFF7ABFE0D
:102DE0002000FFF7DFFED6E737B56B46DC1D00237A
:102DF0000D0020002370FFF79DFD2B681818286038
:102E000001F038FB210001F001FB2B681818286045
:102E100020783EBD03290ED180220E4B62311B6803
:102E2000FF31585C524202435A5468226339FF32E0
:102E3000FF39995470470129FCD18022054B243178
:102E40001B68FF31585C524202435A5428222339EE
:102E5000FF32EDE7D011002070B50025304B012185
:102E600004001A201D7001F0C9F901211A2001F097
:102E7000F5F92C4B012119201D7001F0BFF901213A
:102E8000192001F0EBF92023274A0F20D1690B43C9
:102E9000D361012225490B7813430B70244B197819
:102EA0008143197006211D782943197021490D7835
:102EB0002A430A701A7802401A70602219780A436D
:102EC0001A701D4B1D4A5A805A78D209FCD11C48F1
:102ED00000F0A4FF1B4D280001F0DEFA280001F0ED
:102EE000F3FA7F212A68C120137880000B40137009
:102EF00004232A6811780B430C2113702A68138964
:102F00008B43114913810B581B021B0A0B50802362
:102F10000B6011787E3B0B4313700123237070BD4F
:102F2000390D0020380D00200004004058440041B5
:102F30003C44004159440041000C00400640000060
:102F400011390000D011002000E100E000780028D5
:102F500010D00121084B1B681A898A431A81082264
:102F6000198B0A431A830422198B0A431A830022FD
:102F7000024B1A607047C046D0110020C8110020D3
:102F800010B50F4A93699B0B9B0393611368022250
:102F9000FF331A729879823A02439A711A7A920729
:102FA000FCD57F24074A2140937A0800A3431900E7
:102FB000802301439172917A5B420B43937210BD5F
:102FC000D01100200050004110B50B790C00002BEF
:102FD0000CD10800FFF7BCFC002801D0012010BD77
:102FE000094A93699B0B9B039361F7E701F042FA4F
:102FF000210001F02FFA0028F0D1034A93699B0BBE
:103000009B039361EBE7C046D0110020F8B50D009B
:10301000832A19D1CBB2364C5A01A218916935488E
:10302000AD010840C0218905014391613249206802
:103030006D187021083355615B011A5C8A431100D9
:1030400040220A431A54F8BD022A4CD12B4A8B0065
:103050009858002802D003685B699847382000F030
:1030600061FF274B802703600023214E7F00421D14
:10307000036203614361C36146608560C760D377C3
:103080002F320400C362036313703800537001F0E1
:1030900027FCA061380001F023FC2A00A062FF2079
:1030A0000240510171188B68124FAD001F40C023C0
:1030B0009B053B438B6013003168072608335B0197
:1030C0005A5CB2431600032232435A54A368626822
:1030D00003405B01D318A26920005A60FFF762FD2C
:1030E000064B5C51AFE711002800FFF7A9FCAAE7E7
:1030F000D0110020FFFFFF8F440D00201C0D002089
:10310000A065000070B505000124064BA200D2584E
:10311000002A05D021002800FFF778FF0134F4E7EA
:1031200070BDC04664010020084B8A00D05810B51D
:10313000002803D003689B68984710BDC9B2044BB0
:103140004901591888688004800CF6E71C0D00209E
:10315000D011002010B50C00FFF7E6FF00280CD0BE
:10316000064BE4B21B68083464011C1980236279A1
:103170005B42134363710223E37110BDD011002041
:1031800070B5CBB2124A13485C0189018918021943
:1031900051609168104D08330D4080218902294308
:1031A000402591609168890B8903916001685A01FB
:1031B0008A1816793543157195796D06FCD55B0132
:1031C000C918CB79DB07FCD500198068C0B270BD87
:1031D000040F0020D0110020FF3F00F070B5140054
:1031E00040220B4B0D001B68FF3359790A435A717B
:1031F0000021FFF7C5FFA04200D9200000230549A8
:10320000A34203D0CA5CEA540133F9E770BDC0465B
:10321000D0110020040F002010B5C9B20B4849019D
:10322000421893689B049B0C3F2B0BD99468403B3E
:103230009B04A40B9B0CA403234393604118886850
:10324000C0B210BD93689B0B9B03F6E7D011002022
:10325000F0B51C002F4B85B01B6806000D000192D5
:10326000002B54D02C4F3978C9B2002902D1192033
:1032700000F0F4FF64233B70284BAA00D0580028CC
:1032800008D0036822005B68019998470400200079
:1032900005B0F0BD29003000FFF746FF844204D995
:1032A00029003000FFF740FF040029003000FFF73D
:1032B000B3FF0121EBB21A4F03935B010293029A11
:1032C0003B6801989B18FF335A7A0A435A72154B90
:1032D000A901C918220001F017FB002CD7D0290042
:1032E0003000FFF721FF0028D1D14021039B3A682D
:1032F00008335B01D3181879014319710121D97181
:10330000029BD318FF339A7A0A439A72BFE70124CB
:103310006442BCE7C8110020380D00201C0D0020BD
:10332000D0110020040F002013B56B46DC1D2200D5
:103330000123FFF78DFF012801D1207816BD012060
:103340004042FBE7F0B51E003A4B85B01B680F000A
:103350000192002B3FD08023DB019E423BD8364CAC
:103360002178C9B2002902D11A2000F077FF642326
:1033700000252370314BBA01D3180293002E2CD0B4
:103380002F4B1B680393FF233B401C000093083422
:10339000039B64011C19A379DB0921D0294B2A491D
:1033A000186801F0CBF8294B1721584301F0C6F8F3
:1033B000274BE279920713D4DA5D002A01D1013854
:1033C000F7D20122DA55009B5A011D4B9B189A69CE
:1033D000920B92039A6101256D42280005B0F0BD61
:1033E00000221B4B3400DA55402E00D94024220025
:1033F0000199029801F088FA009BA1045A01104B30
:10340000890C9B18029A2D195A619A69361B920BE6
:1034100092030A439A61009B039A08335B01D31815
:103420000222DA715979823A0A435A71019B1B19B7
:103430000193A3E7C8110020390D0020440D00209E
:10344000D01100208C01002040420F0070110100BB
:103450003B0D002070B50D001C000D4BAE01F618A1
:1034600011003000220001F04FFAEDB209496D0160
:103470004D196E61AB69084A20001340AB61AB691E
:10348000A2049B0B920C9B031343AB6170BDC0461F
:10349000440D0020D0110020FF3F00F0F7B5104B85
:1034A00001901B780F001500002B0CD10D4B16005E
:1034B0001C78002C09D00C4E0C4834882018641954
:1034C00001F022FA34802800FEBD002EFBD03A190C
:1034D000330000210198FFF7BDFF2418361AF4E7E6
:1034E000C4100020C5110020C6110020C510002006
:1034F000F8B5002000AF0E001500012A27D9D31D12
:103500006A46DB08DB00D31A9D46080001F0C2FDC5
:103510006C460323022200210130400020706370BA
:10352000AA420DD2307800280AD0531CDBB20136F3
:10353000A0549D4203D00232E154D2B2F0E72A00F7
:1035400021000448FFF7AAFF431E9841C0B2BD46C0
:10355000F8BDC046180D0020F0B50024012685B046
:10356000184B0F0069461E7005000094FFF73CFCE5
:10357000154B01A90B806A3BFF3BCB716E3B0B7275
:10358000009B8C7109334B800E4B4E7108711C707F
:103590003A00092F0FD00D4F09223E700C4E280023
:1035A00000943480FFF77AFF69462800FFF71CFC7F
:1035B000328808493C702800FFF770FF012005B0F1
:1035C000F0BDC046C410002009020000C511002053
:1035D000C6110020C5100020F0B5CF7893B00500CB
:1035E0000E00022F09D1C9882B48FFF7B5FF441EF2
:1035F000A041C4B2200013B0F0BD00F03BFF310089
:1036000000F018FF002803D0C417241AE40FF1E7D4
:10361000012F0BD1F2882149112A11D8D2B2002AE8
:103620000ED02800FFF73AFF0124E3E70400032F40
:10363000E0D1B378002B05D1F2881949032AEDD9DE
:103640000A78EEE7022B06D1B27916492800FFF777
:103650004FFF0400CEE7012B02D1B2791249F5E702
:10366000032BC7D1114B01A91868FFF7C4F9104B00
:1036700003A91868FFF7BFF90E4B05A91868FFF7F3
:10368000BAF90D4B07A91868FFF7B5F96B46053372
:10369000DC77B27901A9D9E7180D0020D1650000C7
:1036A000C4650000B8650000C86500000CA080007B
:1036B00040A0800044A0800048A0800037B50500ED
:1036C00048780C000B2810D800F02EFF061B0F2B9B
:1036D0000F41466E4A4D676A097801AA002906D152
:1036E000022311802800FFF7B5FE01203EBD002314
:1036F00013802E4B1B78012B00D113700223002165
:10370000F0E78A780023012A03D101AA1380284B0D
:10371000F0E7264A1370274A93699B0B9B0393613A
:10372000E3E78C78012C06D10021214B01AA1C7003
:1037300011702300D6E700208442D7D11B4B013003
:103740001C4A187093699B0B9B039361CEE78978A1
:103750002800FFF715FCC8E72800FFF73DFFC5E785
:103760000123154ACBE70B780020DB06BED12800E9
:10377000FFF7C8FC2A200221A2780F4BFF301A6005
:103780000C4A13681C5C21434A241954FF34195D08
:103790002938FF3801431955D4E70123074AAEE71A
:1037A0008A78064B1A60B6E700209FE73A0D0020A2
:1037B000420D0020D0110020C8110020CC110020A3
:1037C0004B4BF7B51C780700002C00D083E0494E26
:1037D00033689B8B1B070ED521002000FFF730F9C3
:1037E000326810231100FF31887A03438B72424BF9
:1037F0001C600823938333689A8B52071FD50422D9
:103800009A833E4A1378002B0AD01378013BDBB22F
:1038100013701378002B03D101211A2000F01EFD34
:10382000374A1378002B0AD01378013BDBB21370B0
:103830001378002B03D10121192000F00FFD33680C
:10384000FF331A7AD2061ED510221A7259793032F5
:103850000A435A7160232B4938000A781A423BD137
:10386000FFF72CFF3368FF33002838D08022997986
:1038700052420A439A711A7A520604D540221A72A9
:10388000597A0A435A72336800241D8C01239D43E0
:10389000EDB20193E1B2002D1DD02B002341019A1E
:1038A000134215D02300326808335B01D318DA794C
:1038B000D20702D4DB799B0707D5134BA200D0585F
:1038C000002810D003681B689847019BA3409D43C4
:1038D0000134092CDED1F7BDFFF776FBC2E72021CA
:1038E0000A4A9171C7E73800FFF794FAEDE7C0463E
:1038F000C5110020D0110020C8110020390D002072
:10390000380D0020040F00201C0D0020FF50004146
:1039100010B50248FFF754FF10BDC046180D002037
:10392000014B024A1A607047D0110020005000413C
:103930000120704710B50368014A1B6A984710BD03
:10394000130400000300FC33D96F9A6F914203D037
:10395000DB6FC018007D704701204042FBE710B5C7
:1039600004000069FEF710FD22000023FC3293677B
:10397000D3679E229200A4186366A36610BDF02050
:1039800001403039484248417047F0231B0119403B
:10399000802306209B0099420AD00133FF33013077
:1039A000994205D0802302385B00994200D0002064
:1039B00070470F2001400020012903D00239481E22
:1039C0008141481C70470000B923F0B5182685B026
:1039D00002919B000400C05C330008214343324D38
:1039E0001700EB18595600F065FC304B0821E05CDD
:1039F00033004343EB18595600F05CFC2C4BE25C5F
:103A00000393022A09D11133E05CFF2805D0082175
:103A10004643AE19715600F04DFCBA26B600A05DC3
:103A2000FF2819D0012100F0E9FB1822A35D2149EC
:103A30005A43AB56AD18DB015818BB2189006050C2
:103A40001D4901225B18BC218900635069688A40C6
:103A5000BD21890062501A600122029B1100206979
:103A6000FEF790FE39002000FFF78FFF39000500B8
:103A70002000FFF79EFF390006002000FFF77FFFC0
:103A800033000090290020690122FEF74DFC0B4B0A
:103A90002069E25C039BE15CFEF763FC2069FEF7B2
:103AA00080FC05B0F0BDC046F4600000E5020000F7
:103AB000E70200001844004114440041E6020000FF
:103AC000AF2210B504005200002100F026FF2300B1
:103AD0000022FC335A6620009A6610BDF7B51D001F
:103AE00008AB1B780400009309AB1B781600019308
:103AF00000234360FA239B008360114B0F000833BF
:103B000003601430FFF7DCFF20007D30FF30FFF74B
:103B1000D7FFB9236A469B002761E654094B127808
:103B2000E554094B2000E2546A46084B1279E254EE
:103B3000BA22E93BFF3B9200A3541032A354FEBDCE
:103B4000E4650000E5020000E6020000E702000074
:103B50000300FC33586E9B6EC01A01D55F30FF30F6
:103B6000704710B5040020007D30FF30FFF7F0FFF4
:103B70000028F8D12069FEF71EFC10BD10B51430E6
:103B8000FFF7E6FF10BD0300FC33596E9A6E9142B9
:103B900005DB5A6E986E801A5E30FF307047986E63
:103BA0005B6EC01A0138F9E710B57D30FF30FFF7C2
:103BB000EAFF10BD70B504000069FEF718FC00288C
:103BC00005D02069FEF723FC2069FEF715FC20696B
:103BD000FEF7FDFB002824D020692500FEF717FC26
:103BE000AF21FC350600A86F4900013000F02CFD24
:103BF000EB6F994203D0AB6FE3181E75A967BA2328
:103C00009B00E35CFF2B0CD020001430FFF7BBFFC0
:103C1000092806DCBB23BD229B009200E358A25872
:103C20001A602069FEF7EEFB00281DD020007D30D1
:103C3000FF30FFF78DFF002825D09E239B00E6185C
:103C4000B26E736E9A421BD0BE22AF21B36EB06EBD
:103C5000E3185200013049009D5C00F0F5FCB166AC
:103C6000E9B22069FEF7D7FB2069FEF7B5FB002813
:103C700005D02069FEF7B4FB2069FEF7A4FB70BDF8
:103C800001256D42ECE72069FEF7D1FBECE700006F
:103C9000F8B5040000690E00FEF7B4FB002843D11C
:103CA0009E23AF219B00E518686E49000130AF6E7E
:103CB00000F0CAFCB94223D1EFF31083DB070DD427
:103CC0001F4B5B68DB05DB0DEAD0103B5BB2002BC2
:103CD0000DDB9B08C0331B4A9B009B582069FEF7F5
:103CE00091FB0028DCD02000FFF764FFD8E70F220B
:103CF0001340083B9B08144A9B009B181B68EDE788
:103D0000AF21686E4900013000F09EFCAB6E994215
:103D100005D0BE226B6E5200E3189E54696620697E
:103D2000FEF781FB0120F8BD20007D30FF30FFF75A
:103D30000FFF0028B4D131002069FEF76CFBF1E7DA
:103D400000ED00E000E100E01CED00E070B50500D2
:103D5000FC35EA6FAB6F04009A421DD0AF21EB6FC8
:103D60004900C318E86F1E7D013000F06DFCE96763
:103D7000BA239B00E35CFF2B0CD020001430FFF72C
:103D800002FF0A2806DDBC23BD229B009200E358F7
:103D9000A2581A60300070BD01267642E8E7FEE7BF
:103DA000FEE70000034B10B51B68002B00D09847BE
:103DB00010BDC046D412002070B50F490F4CA1426F
:103DC00004D100F0B7F800F08BF8FEE70C4D0023AB
:103DD0008D42F6D0CA18E818A24205D3094B824298
:103DE000EFD00949002204E0006804331060F1E7D5
:103DF00004C38B42FCD3E4E7000000202002002033
:103E0000F066000020020020F812002010B500F03B
:103E100064F8002801D100F055F810BD014B18607E
:103E20007047C046D4120020014B18687047C04646
:103E3000D8120020F7B51348012284461249134CCA
:103E40008E68636805689B0E1340019288686268FB
:103E5000019F920E3A4067463F6893420ED1BD42A1
:103E60000CD186420AD35B19FA254868AD00861B3F
:103E700007486B437043000DC018FEBD3D001300A2
:103E80000600E3E7D812002010E000E000ED00E0BB
:103E90005555000070B5041E10D0FFF7CBFF05008C
:103EA00000F01AF8FFF7C6FF054B401B9842F7D900
:103EB000FA23013C9B00ED18002CF3D170BDC046E5
:103EC000E703000010B5034A13680133136000F0E4
:103ED00061FA10BDD812002070470020704770476B
:103EE00010B500F0D7F800F0CDFCFFF7F8FF012087
:103EF000FFF7D0FF094C2000FEF7AEFF2000FFF7D0
:103F000025F8FCF711F9FCF76FF9FFF7E5FF044B13
:103F1000002BF8D000E000BFF5E7C046180D0020E8
:103F20000000000010B500F0DBFC10BD10B500F083
:103F3000E1FC10BD1E2270B54648474943689343D3
:103F40001C3A1343436008238C6923438B61434C21
:103F5000434B9C829C8A14439C82DC681442FCD0B4
:103F60000124404A14701578254203D055786DB26B
:103F7000002DF8DB01249460547864B2002CFBDB44
:103F8000394C5460547864B2002CFBDB8224E40189
:103F90005480547864B2002CFBDB02249C840E34E1
:103FA000DD682542FCD0314CDC621024DD682542FE
:103FB000FCD09D8C2E4C2C439C841024DD68254223
:103FC000FCD002249D8C80262C439C844024DD68F8
:103FD0003542FCD0DD682542F9D01024DD68254249
:103FE000FCD000249460547864B2002CFBDB214C9C
:103FF0005460547864B2002CFBDB1C6A1E4D2C40CC
:1040000080251C621C6AAC431C62032393601B4B1B
:10401000536053785BB2002BFBDB0023FF240B7251
:10402000174A4B728B72CB72164B1A60164B174A9B
:104030001B6811689A065B01C90E2340520F1202D9
:104040000B431343124A1385802342681343436092
:1040500070BDC04600400041000400400C06000056
:1040600000080040000C004001050100B905FF7D7B
:10407000040A000000070300FFFCFFFF0306010025
:10408000006CDC028C010020246080002060800035
:1040900000400042FA212D4B10B51868890000F04D
:1040A0004DFA2B4B013898424FD82A492A4A48608A
:1040B000C020136A00061B021B0A0343136200237D
:1040C0008B6007330B608021136A09061B021B0AF1
:1040D0000B431362FC22214B196A0A431A62FF2226
:1040E000196A12020A431A62A022196AD2020A430A
:1040F0001A621B4B1C005A7852B2002AFBDB194A89
:104100005A80194B1A00597EC9090129FBD0C821D0
:10411000890099800521D970537EDB09012BFBD0E2
:10412000C02300205B011361907000F023F86378D6
:104130005BB2002BFBDB0D4B0D4A6380D379DB09AF
:10414000012BFBD04123537010BDFEE78C010020F2
:10415000FFFFFF0010E000E000ED00E00004004081
:10416000000C00401E4000000040004221400000C2
:10417000004800421F4900B50B004A7ED209012ABF
:10418000FBD001380A282FD800F0CEF91B2E2E2E96
:104190002E2E062E2E2411001A6917490A400F21CF
:1041A0001A615A788A43110001220A4310E01A6901
:1041B00011490A400F211A615A788A4311000322DB
:1041C000F3E71A690C490A400F211A615A788A43A9
:1041D0005A7000BD1A6908490A400F211A615A78BD
:1041E0008A4311000222E0E7F022196912050A430E
:1041F000F3E7C04600400042FFFFFFF0182310B570
:1042000008244343134AD0180457013412D0012420
:104210009A5643689C4003290CD808000E49D201E5
:104220005218D318403300F07FF90210060B022118
:104230001970546010BD0621197054609461F9E73B
:104240000621197054605461F4E7022119709460DA
:10425000F0E7C046F4600000004400411823F0B5C8
:1042600008245843114A13181C5701341BD0012647
:1042700035005F688356BD400D4ADB019A1890688F
:1042800005420BD10C00601E8441D21940321078D7
:1042900034400336A400B04320431070044A9B18F6
:1042A000002901D15D61F0BD9D61FCE7F460000073
:1042B000004400411822424370B52D4E0300B2184D
:1042C000127A52B2140001320ED0481C00240C287D
:1042D0000AD800F029F9071F1F1F1F1F1F1F1F0BE0
:1042E0000B0B0B0001246442200070BD092905D18D
:1042F00000211800FFF782FF0024F5E70A2901D109
:104300000839F6E700240B29EED10A391800FFF727
:1043100075FFE9E7182201205343F218F356556858
:10432000144ADB016C089B18C9B228401C190028EC
:104330000ED00F203034227809010240114341226F
:10434000C9B25B192170403319780A431A70D3E758
:1043500022000F26303214785B19B44321431170C8
:1043600041224033197804000A431A70BCE7C04662
:10437000F460000000440041014B18607047C046E3
:10438000900100200122024B52421A607047C04641
:1043900090010020164A10B51368591C26D0013B25
:1043A0001360002B22D172B6124B134A043393428E
:1043B00013D9124A01211000147D0C42FCD0202197
:1043C000148BFF319B085B0021431183D3610C4B9D
:1043D00013800123027D1A42FCD0BFF34F8F094B9B
:1043E000094ADA60BFF34F8FC046FDE710BDC046F3
:1043F0009001002000000000030200000040004186
:1044000002A5FFFF00ED00E00400FA0570B50E0004
:1044100000254468002C0BD0236831005B68200025
:104420009847002802DB2D18E468F3E701256D4268
:10443000280070BD70B50D004468002C08D02368BA
:1044400029009B6820009847002802D1E468F4E71F
:10445000200070BD70B50D004468002C08D02368A2
:1044600029001B6820009847002802D1E468F4E77F
:10447000200070BD0121054A10B5136804480B40A7
:1044800003D1044C43600480116010BDDC12002095
:10449000E01200200204000070B50400012304CCE7
:1044A0000500117820000B43137080220021520078
:1044B00000F033FA2B689A78D207FCD49A789207E6
:1044C000F9D45C6270BD00001F22144BF0B51B686C
:1044D000590B9C0C9B01114014405B0F914200D181
:1044E00005211F2C00D1023C072B00D1043B0268A0
:1044F0008F01158D0A491F2629403943118505680A
:104500003440298D0A00B24322432A8500681903EA
:10451000028D044B13400B430385F0BD24608000E3
:104520003FF8FFFFFF8FFFFF02B4714649084900C3
:10453000095C49008E4402BC7047C0460022430813
:104540008B4274D303098B425FD3030A8B4244D35B
:10455000030B8B4228D3030C8B420DD3FF2209029D
:1045600012BA030C8B4202D31212090265D0030B5C
:104570008B4219D300E0090AC30B8B4201D3CB0352
:10458000C01A5241830B8B4201D38B03C01A524194
:10459000430B8B4201D34B03C01A5241030B8B4296
:1045A00001D30B03C01A5241C30A8B4201D3CB0281
:1045B000C01A5241830A8B4201D38B02C01A524166
:1045C000430A8B4201D34B02C01A5241030A8B4269
:1045D00001D30B02C01A5241CDD2C3098B4201D381
:1045E000CB01C01A524183098B4201D38B01C01AFF
:1045F000524143098B4201D34B01C01A5241030976
:104600008B4201D30B01C01A5241C3088B4201D324
:10461000CB00C01A524183088B4201D38B00C01AD1
:10462000524143088B4201D34B00C01A5241411AF8
:1046300000D20146524110467047FFE701B5002005
:1046400000F0F0F802BDC0460029F7D076E77047C9
:1046500003460B437FD4002243088B4274D30309E3
:104660008B425FD3030A8B4244D3030B8B4228D384
:10467000030C8B420DD3FF22090212BA030C8B42AA
:1046800002D31212090265D0030B8B4219D300E04A
:10469000090AC30B8B4201D3CB03C01A5241830BCF
:1046A0008B4201D38B03C01A5241430B8B4201D37F
:1046B0004B03C01A5241030B8B4201D30B03C01AA8
:1046C0005241C30A8B4201D3CB02C01A5241830A22
:1046D0008B4201D38B02C01A5241430A8B4201D351
:1046E0004B02C01A5241030A8B4201D30B02C01A7B
:1046F0005241CDD2C3098B4201D3CB01C01A5241E2
:1047000083098B4201D38B01C01A524143098B426A
:1047100001D34B01C01A524103098B4201D30B0153
:10472000C01A5241C3088B4201D3CB00C01A524178
:1047300083088B4201D38B00C01A524143088B423D
:1047400001D34B00C01A5241411A00D201465241D6
:10475000104670475DE0CA0F00D04942031000D3F5
:104760004042534000229C4603098B422DD3030A4A
:104770008B4212D3FC22890112BA030A8B420CD35A
:10478000890192118B4208D3890192118B4204D383
:1047900089013AD0921100E08909C3098B4201D303
:1047A000CB01C01A524183098B4201D38B01C01A3D
:1047B000524143098B4201D34B01C01A52410309B4
:1047C0008B4201D30B01C01A5241C3088B4201D363
:1047D000CB00C01A524183088B4201D38B00C01A10
:1047E0005241D9D243088B4201D34B00C01A5241E7
:1047F000411A00D20146634652415B10104601D374
:104800004042002B00D54942704763465B1000D3FD
:10481000404201B5002000F005F802BD0029F8D0A3
:1048200016E770477047C04630B51C00094B0500BD
:104830001B6885B0D868084B002A01D1074B1A00C5
:104840000292019300912B002200054900F00AF822
:1048500000F0F4FC9401002018660000536600008C
:10486000256600000EB403B5010003AB044804CB79
:104870000068019300F070F902B008BC03B018475B
:104880009401002070B500260C4D0D4C641BA41043
:10489000A64209D1002601F037F80A4D0A4C641BE4
:1048A000A410A64205D170BDB300EB58984701365D
:1048B000EEE7B300EB5898470136F2E7F801002025
:1048C000F8010020F80100201402002010B5034B6D
:1048D0000A000100186800F073F810BD9401002070
:1048E00010B5034B0100186800F0B0F810BDC046C9
:1048F0009401002010B5034B0100186800F016F871
:1049000010BDC04694010020002310B59A4200D18A
:1049100010BDCC5CC4540133F8E703001218934275
:1049200000D1704719700133F9E7000070B5050038
:10493000002910D00C1F2368002B00DAE41828008F
:1049400000F087FE1D4A1368002B05D163601460D8
:10495000280000F07FFE70BDA34209D921686018CD
:104960008342F3D118685B6841182160EEE71300B9
:104970005A68002A01D0A242F9D919685818A042F1
:104980000BD120680918581819608242E0D11068CC
:104990005268411819605A60DAE7A04202D90C2324
:1049A0002B60D5E721686018824203D110685268F5
:1049B0004118216062605C60CAE7C046E8120020CE
:1049C000F8B54B1E0600194202D000252800F8BD9C
:1049D0000F00082900D20827042A00D2042203234A
:1049E000390003329A43083989183000140000F066
:1049F0002DF80028E9D004380368002B00DAC0182D
:104A0000011D7B1ECB187D421D406B1A0AD0C718B2
:104A10000B2B17D90268D21A3A6003603000FFF7F7
:104A200085FF3800220003680C32C118AA18914291
:104A3000CCD929190A1A9B1A026008C13000FFF765
:104A400075FFC3E75B423B60ECE70000032370B5F2
:104A5000CD1C9D43083506000C2D1ED20C25A94205
:104A60001DD8300000F0F5FD254A1468210000290A
:104A700019D1244C2368002B03D1300000F0F8FA40
:104A800020602900300000F0F3FA431C2BD10C23E6
:104A90003000336000F0DEFD03E0002DDFDA0C2390
:104AA0003360002070BD0B685B1B19D40B2B03D93E
:104AB0000B60CC18256003E04B688C420DD113606D
:104AC000300000F0C7FD200007220B30231D90436B
:104AD000C31AE7D05A42E250E4E763600C00EFE704
:104AE0000C004968C3E70323C41C9C43A042E1D0E7
:104AF000211A300000F0BCFA431CDBD1C7E7C046E6
:104B0000E8120020EC120020936810B5013B93607E
:104B1000002B04DA9469A34207DB0A2905D0136845
:104B2000581C10601970080010BD00F0BBFA01009D
:104B3000F9E7F8B506000F001400D518AC4201D112
:104B4000002007E021783A003000FFF7DDFF013454
:104B5000431CF3D1F8BD0000F0B59FB002900F00E8
:104B600016000593002805D083690493002B01D11A
:104B700000F064FC7B4B9F425BD1029B5F68BB896A
:104B80001B0762D53B69002B5FD0002306AC636135
:104B9000203363761033A37635002B78002B01D0B9
:104BA000252B5CD1AB1B04930CD03200390002984A
:104BB000FFF7BFFF431C00D1C4E06269049B944629
:104BC000634463612B78002B00D1BBE001220023FA
:104BD0005242626002A9543252186E1C2360E36094
:104BE000A3601370A365317805225F4800F026FDAD
:104BF000751C002835D12268D30604D5532302A999
:104C00005B1820211970130704D5532302A95B18E0
:104C10002B21197033782A2B2CD0350000210A2043
:104C2000E3682A786E1C303A092A64D900292ED00C
:104C300026E04E4B9F4202D1029B9F689FE74C4B60
:104C40009F429CD1029BDF6899E73900029800F0EF
:104C50007FFA002899D0012040421FB0F0BD0135F5
:104C60009BE7414B2268C01A012383401343236012
:104C70002E00B8E7059B191D1B680591002B01DB71
:104C8000099304E05B42E3600223134323602B7823
:104C90002E2B0AD16B782A2B35D1059B02351A1D94
:104CA0001B680592002B2BDB0793324E29780322D9
:104CB000300000F0C3FC002806D04023801B834056
:104CC0002268013513432360297806222A486E1C86
:104CD000217600F0B3FC00283AD0284B002B25D1D8
:104CE0000722059B07339343083305936369039AAF
:104CF0009B18636150E7434301219B18350090E7FF
:104D000001235B42D0E700230A201A0001356360CB
:104D100029786E1C3039092903D9002BC5D0079298
:104D2000C3E74243012352183500F1E705AB009376
:104D30003A00134B2100029800E000BF0390039B50
:104D40000133D3D1BB895B0600D584E70B9884E798
:104D500005AB00933A000A4B2100029800F080F85E
:104D6000ECE7C046AC66000058660000CC66000068
:104D70008C6600005E6600006266000000000000B5
:104D8000334B0000F7B5150001938A680B6900905A
:104D90000C00934200DA130022002B604332127899
:104DA000002A01D001332B6023689B0602D52B68B3
:104DB00002332B60062723681F4027D0230043338C
:104DC0001B785A1E93412268920630D42200019922
:104DD00043320098089EB047431C25D00623206824
:104DE0002A68E16803400025042B03D18D1AEB43A8
:104DF000DB171D40A3682269934201DD9B1AED1861
:104E00000027BD4220D1002010E00137E3682A6866
:104E10009B1ABB42D2DD220001231932019900986E
:104E2000089EB047431CF0D101204042FEBD302017
:104E3000E1184331087021005A1C45310978A21845
:104E4000433202331170C1E7220001231A32019963
:104E50000098089EB047431CE6D00137D1E7000018
:104E6000F0B589B004920A00433205930390029290
:104E70000A7E0C000E9B6E2A00D186E01FD8632AA2
:104E800033D008D8002A00D18CE0582A4DD0250014
:104E900042352A7030E0642A01D0692AF7D11968B6
:104EA00025680A1D280629D508681A60002803DA33
:104EB0002D23029A404213706B4E0A274FE0732A4B
:104EC00074D008D86F2A1FD0702AE0D12022096838
:104ED0000A43226003E0752A16D0782AD7D122002F
:104EE000782145321170614E22E025001A68423562
:104EF000111D196013682B70012365E008681A60A2
:104F00006906D3D500B2D1E719682568081D186075
:104F100008682E0605D5544E08276F2A1BD00A278D
:104F200019E06D06F7D580B2F5E745314E4E0A70AF
:104F300018682268011D00681960150621D5D3077D
:104F400002D520231A4322601027002803D12023F2
:104F500022689A4322602300002243331A70636858
:104F6000A360002B58DB04222168914321600028B4
:104F700054D1029D002B5AD02500337842352B7036
:104F800055E05506DBD580B2D9E71A680D68101DCB
:104F90004969186013682E0601D5196002E06D0694
:104FA000FBD519800023029D23614FE01A68111D73
:104FB0001960156800216268280000F03FFB002896
:104FC00001D0401B6060636823610023029A137064
:104FD0003CE023692A0004990398059DA847431CD7
:104FE0003ED023689B0715D4079BE068984239DAC6
:104FF000180037E022000123193204990398059E16
:10500000B047431C2CD00135E368079A9B1AAB428A
:10501000F0DCE9E70025F7E70028ADD0029D390074
:10502000FFF712FB735C013D2B700028F7D1082FAE
:1050300009D12368DB0706D563682269934202DC45
:105040003023013D2B70029B5B1B2361059B07AA4C
:1050500000932100049B0398FFF794FE431CB8D1F2
:105060000120404209B0F0BD696600007A66000088
:10507000002370B5064C05000800236000F02CFCEE
:10508000431C03D12368002B00D02B6070BDC046A9
:10509000F41200200023C25C0133002AFBD1581E09
:1050A00070470000F8B505000E001400002804D079
:1050B0008369002B01D100F0C1F9224B9C422DD114
:1050C0006C68A369A360A3891B0731D52369002BF2
:1050D0002ED023682269F7B2981A6369F6B2834228
:1050E00005DC2100280000F03BF9002826D1A36848
:1050F0000130013BA36023685A1C22601F70636962
:10510000834204D0A389DB071AD50A2E18D12100C7
:10511000280000F025F9002812D00FE00A4B9C422D
:1051200001D1AC68CDE7094B9C42CAD1EC68C8E715
:105130002100280000F00CF80028CAD00126764291
:105140003000F8BDAC660000CC6600008C66000044
:10515000364B70B51D6806000C00002D05D0AB69FC
:10516000002B02D1280000F069F9314B9C420FD18D
:105170006C680C23E25E93B219072DD4D90611D4C2
:1051800009230120336037331343A381404270BDAC
:10519000284B9C4201D1AC68EBE7274B9C42E8D1FD
:1051A000EC68E6E75B0713D5616B002908D02300A4
:1051B0004433994202D03000FFF7B8FB0023636309
:1051C0002422A3899343A38100236360236923607E
:1051D0000823A2891343A3812369002B0BD1A021AB
:1051E0008022A389890092000B40934203D02100C2
:1051F000300000F0DFF90123A289134011D0002311
:10520000A36063695B42A361002023698342BED12E
:105210000C23E25E1306BAD540231343A381013861
:10522000B5E7920700D46369A360EDE7940100201D
:10523000AC660000CC6600008C66000010B506204D
:1052400000F034FA012000F05DFB0000F7B58A8918
:1052500005000C00130760D44B68002B04DC0B6CBA
:10526000002B01DC0020FEBDE76A002FFAD00023EE
:105270002E682B6080235B01216A1A4034D0606D58
:10528000A3895B0706D56368C01A636B002B01D046
:10529000236CC01A0200216A00232800E76AB8477D
:1052A000A189431C06D12B681D2B30D82B4ADA402C
:1052B000D3072CD50023636023692360CB0405D575
:1052C000431C02D12B68002B00D16065616B2E60FE
:1052D0000029C7D023004433994202D02800FFF7A9
:1052E00025FB00206063BEE701232800B847431C6C
:1052F000C6D12B68002BC3D01D2B01D0162B01D19A
:105300002E60AFE74023A2891343A381ABE740237C
:105310000B430120A3814042A5E70F69002FA1D0D4
:105320000B680F60DB1B01930023920700D14B69D0
:10533000A360019B002B00DC94E7019B3A00216AEB
:105340002800A66AB047002803DC4023A289134343
:10535000DFE7019B3F181B1A0193EAE70100402099
:105360000B6970B505000C00002B01D1002070BD49
:10537000002804D08369002B01D100F05FF80B4BAB
:105380009C4209D16C680C22A35E002BEED0210058
:105390002800FFF75BFFEAE7054B9C4201D1AC68B0
:1053A000F1E7044B9C42EED1EC68ECE7AC66000000
:1053B000CC6600008C660000002310B5040003607A
:1053C0004360836081814366C2810361436183617D
:1053D000190008225C30FFF7A0FA054B24626362D3
:1053E000044BA362044BE362044B236310BDC0462D
:1053F000ED560000155700004D570000795700008A
:1054000010B5024900F08CF810BDC0466153000091
:1054100070B568254A1E55430E0029007431FFF708
:1054200015FB041E08D000212A00016046600C30E4
:10543000A0606832FFF771FA200070BD836913B570
:105440000400002B28D18364C3640365134B144A02
:105450001B6882620193984201D10123836120007D
:1054600000F020F86060200000F01CF8A060200030
:1054700000F018F80022E06004216068FFF79CFF4C
:1054800001220921A068FFF797FF02221221E0689C
:10549000FFF792FF0123A36113BDC04654660000CD
:1054A00001540000F8B51C4B07001E68B369002BBF
:1054B00002D13000FFF7C2FF4836B4687368013B81
:1054C00004D53368002B07D03668F6E70C22A55EBA
:1054D000002D0DD06834F2E704213800FFF798FF63
:1054E00030600028F0D10C2304003B602000F8BDA0
:1054F00020000A4B656625606560A560E360256154
:105500006561A561082229005C30FFF706FA656332
:10551000A563A564E564E9E7546600000100FFFFA8
:10552000F7B504000700002601914834002C01D192
:105530003000FEBD6368A5680093009B013B0093AB
:1055400001D52468F2E7AB89012B08D90E22AB5EA6
:10555000013304D029003800019B98470643683581
:10556000EBE7000070B50E001D000E23C95E96B07B
:105570001400002907DA00232B60B3891B0611D41D
:105580008023DB000FE06A4600F022F90028F2DBFE
:10559000F022019B12021340054A9B185A425341C4
:1055A0002B60EDE740230020236016B070BDC0469D
:1055B00000E0FFFFF7B502268B8905000C0033429F
:1055C00006D0230047332360236101236361F7BDC5
:1055D00001AB6A46FFF7C6FF009907002800FFF7F6
:1055E00035FA002808D10C22A35E9A05EFD40322D5
:1055F00093431E43A681E4E70F4BAB628023A2894D
:1056000020601343A381009B20616361019B002BF9
:105610000DD00E23E15E280000F0ECF8002806D043
:105620000322A38993431A0001231343A381A08972
:105630003843A081CBE7C04601540000C9B28218AC
:10564000904201D10020704703788B42FBD001309B
:10565000F6E77047704770B504000D001F2904D9A4
:10566000162303600120404270BD436C002B04D020
:105670008A009B181A68002A08D1200000F032F82E
:105680002A000100200000F01BF8EDE70020012AAD
:10569000EAD0511C03D1162301302360E4E7002433
:1056A00028001C6090472000DEE7000010B5034B87
:1056B00001001868FFF7CFFF10BDC046940100201D
:1056C000002370B5064C050008001100236000F0AF
:1056D000EBF8431C03D12368002B00D02B6070BD76
:1056E000F412002010B500F0CFF810BD70B50C001A
:1056F0000E25495F00F0A4F8002803DB636D1B183A
:10570000636570BDA389024A1340A381F9E7C046CF
:10571000FFEFFFFFF8B51F008B8905000C00160096
:10572000DB0505D50E23C95E0022022300F074F8C4
:10573000A389054A28001340A38132000E23E15EAD
:105740003B0000F01FF8F8BDFFEFFFFF70B50C0045
:105750000E25495F00F060F8A389421C03D1054A79
:105760001340A38170BD802252011343A381606561
:10577000F8E7C046FFEFFFFF10B50E23C95E00F04B
:1057800015F810BD70B50500080011000022064C88
:1057900022601A0000F0AEF8431C03D12368002BEE
:1057A00000D02B6070BDC046F4120020002370B5FD
:1057B000064C05000800236000F056F8431C03D196
:1057C0002368002B00D02B6070BDC046F41200206F
:1057D000002370B5064C050008001100236000F09E
:1057E0004BF8431C03D12368002B00D02B6070BD05
:1057F000F4120020002370B5064C05000800236059
:1058000000F04AF8431C03D12368002B00D02B6022
:1058100070BDC046F412002070B5050008001100EC
:105820000022064C22601A0000F046F8431C03D107
:105830002368002B00D02B6070BDC046F4120020FE
:1058400070B50500080011000022064C22601A0005
:1058500000F03AF8431C03D12368002B00D02B60E2
:1058600070BDC046F412002058220120014B404276
:105870001A607047F412002058220120014B404268
:105880001A607047F412002058220120014B404258
:105890001A607047F41200205822024B00201A6050
:1058A0007047C046F412002058220120014B4042AC
:1058B0001A607047F412002058220120014B404228
:1058C0001A607047F412002058220120014B404218
:1058D0001A607047F4120020044A1368002B00D1AC
:1058E000034B1818106018007047C046F0120020D3
:1058F000F812002058220120014B40421A607047E4
:10590000F4120020FEE7C046F8B5C046F8BC08BC5B
:105910009E467047F8B5C046F8BC08BC9E46704726
:105920000000000080000000000000008000000077
:1059300000000001C000000000000001C0000000E5
:1059400000000003E000000000000003E000000091
:1059500000000007F000000000000007F000000059
:105960000000000E380000000000000E38000000AB
:105970000000001E3C0000000000001E3C00000073
:105980000000003E3E0000000000003E3E0000001F
:105990000000007E3F0000000000007E3F0000008D
:1059A000000000FE3F800000000000FE3F8000007D
:1059B000000001FE3FC00000000001FE3FC00000EB
:1059C000000003FE3FE00000000003FFFFE00000D6
:1059D000000007FFFFF00000000007FE3FF000009E
:1059E00000000FFE3FF8000000000FFE3FF800002F
:1059F00000001FFFFFFC000000001FFFFFFC000075
:105A00000000000000000000000000000000000096
:105A10000000000000000000890400004D030000A9
:105A200049030000710300008D0300004F050000D2
:105A30007303000000000000003E5B4F5B3E3E6BC6
:105A40004F6B3E1C3E7C3E1C183C7E3C181C577D18
:105A5000571C1C5E7F5E1C00183C1800FFE7C3E764
:105A6000FF0018241800FFE7DBE7FF30483A060E76
:105A70002629792926407F050507407F05253F5ABD
:105A80003CE73C5A7F3E1C1C08081C1C3E7F14222D
:105A90007F22145F5F005F5F06097F017F006689D8
:105AA000956A606060606094A2FFA29408047E041E
:105AB0000810207E201008082A1C08081C2A080844
:105AC0001E101010100C1E0C1E0C30383E38300604
:105AD0000E3E0E06000000000000005F0000000700
