:1000000000800020ED430000D5430000D5430000F0
:1000100000000000000000000000000000000000E0
:10002000000000000000000000000000D5430000B8
:100030000000000000000000D54300004144000023
:10004000D5430000D5430000D5430000D543000050
:10005000D5430000D5430000B91B0000D943000080
:10006000D5430000CD270000D5430000D543000054
:10007000410D0000D5430000DD270000D5430000FE
:10008000D5430000D5430000D5430000D543000010
:1000900000000000D5430000D5430000D543000018
:1000A000D5430000D5430000D5430000D5430000F0
:1000B0000000000010B5064C2378002B07D1054B3B
:1000C000002B02D0044800E000BF0123237010BDC4
:1000D000400300200000000054730000044B10B5E2
:1000E000002B03D00349044800E000BF10BDC04608
:1000F00000000000440300205473000070B50500A8
:10010000DE20FF302C2914DD002A00D003317829AD
:1001100000DD78212D3948434B21494204F0A8FEE7
:1001200083239B00C11889B20E20698004F07EFBF6
:1001300070BD0F4B32394C00E15EE9802D394843E8
:100140004B21494204F094FE83239B00C11809B25D
:1001500069800E2004F06AFB064B0748E35E0A2222
:10016000AB805A43054B198800F062FEE0E7C046B9
:1001700000650000EC6400006400002040000020E6
:10018000AA4AF8B511680500012308001840194271
:1001900002D1A74913608870A64A0123116808009C
:1001A0001840194202D1A44913608870A34A012360
:1001B000116808001840194202D1A14913608870E3
:1001C000A04A0123116808001840194202D19E4933
:1001D000136088709D4A0123116808001840194275
:1001E00002D19B49136088709A4A01231168080064
:1001F0001840194202D1984913608870974F984E61
:10020000002D20D00123974A0B241370964A1370B7
:10021000964A1370964A1370964A1370964A137052
:100220000023964A3B701370954A33701370954AB9
:100230001370954A1370954A1370954A1370954A36
:1002400013702000F8BD3B78002B21D0290078489E
:1002500000F0C6FB0B24002800D03D703778002F3B
:100260005CD00021744800F0BBFB002801D00023C3
:100270003370884B1D78002D00D194E00021704828
:1002800000F0AEFB0028DCD00023824A1370D8E7D0
:10029000032004F00DFC03005A1E9341744A1370AE
:1002A000704B1B78002822D1674C002B0BD03221D9
:1002B0005F4800F087FB0123200077493B7000F086
:1002C00081FB0B240EE02900200000F089FB0028B0
:1002D000F7D0FA210122694B200049001A7004244A
:1002E00000F070FB624B5F4A1B781370B6E7664CF8
:1002F000002B07D132214E4800F064FB01233B70F4
:100300002370DEE72378002BDBD05C4B25701A7856
:100310000924002AE6D01D700234E3E7042004F02B
:10032000C7FB03005A1E9341524A13704E4B0028DC
:1003300021D11978464D00290ED032213E4800F0D7
:1003400041FB012328005449337000F03BFB494B2B
:10035000454A1B7813708CE7280000F041FB002809
:10036000F5D0FA210122464B280049001A700524D5
:1003700000F028FBEBE71B78444D002B07D132211E
:100380002D4800F01FFB012333702B70DFE72B7823
:10039000002BDCD03A4B2F701A78002A01D01F7046
:1003A000D5E70A24D3E7072004F082FB03005A1E96
:1003B0009341314A2D4F137000281DD13978264DB5
:1003C00000290ED032211E4800F0FCFA0123314AE8
:1003D00031491370280000F0F5FA274B1B783B7069
:1003E0002FE7280000F0FCFA0028F6D00124FA21BB
:1003F000244B49001C70EDE73B78254E002B08D1BB
:1004000032210F4800F0DEFA0123224A33701370C4
:10041000E3E73378002BE0D01A4B35701A78002AC6
:1004200001D01D70D9E70624D7E7C046900300200D
:10043000AE03002098030020B8030020A003002092
:10044000C203002094030020B20300209C0300207C
:10045000BE030020A4030020C8030020AA0300203C
:10046000AC0300204500002046000020470000208B
:10047000420000204300002044000020B60300207A
:10048000BC030020C6030020A8030020A90300200D
:10049000AB030020AD0300201A04000010B5084C87
:1004A00001233C220221200002F03EF8200001F04E
:1004B000C7FF200002F024F9024B636110BDC04663
:1004C00064030020010001001FB50021124801F063
:1004D0009BFF0B20114C0121208004F08DFA00239A
:1004E000E05E002104F0B8FA0D4C0022200030211B
:1004F00000F03AFC0023192202930023022100920B
:1005000001932000183A00F0FFFC064B00229A5E8F
:10051000054B1A601FBDC046640300205C03002029
:100520006400002070000020D003002073B51B4C35
:1005300006000421200001F054F9194B00216361E9
:100540001E230A00200001910093223300F012FEC6
:100550000A21300004F08CFC0A2501B26D424D43A3
:100560000F23AD19632E00DD0E4B23610A222000FC
:1005700002F0F6F9012301930233200000931922BF
:10058000262100F0F7FD2C2329000A2223612000F8
:1005900002F0E6F9200002F0B3F873BD6403002016
:1005A00001000100FCFF00001FB50121080004F05C
:1005B00023FA0121080004F04FFA0221082004F078
:1005C0001BFA01210D2004F017FA00210D2004F080
:1005D00043FA184C00222000302100F0C5FB012214
:1005E000154B02921B6802210093DB170193200038
:1005F00000F08AFC114B0D2100229A5E200000F0D1
:1006000017FC0221072004F0F7F90221032004F06F
:10061000F3F90221042004F0EFF9FFF73FFF084C43
:10062000002221680748FFF769FD0023E05EFFF71D
:100630007DFF1FBD64000020D00300204800002083
:10064000800000205C030020F0B5334C060085B02C
:10065000200001F0F5FE6425642E02DCF543ED1761
:1006600035400321200001F0BCF82C4B00216361D0
:100670001C230A00009320000191243300F07AFD2E
:10068000092E3EDC264B290023610A22200002F0BD
:1006900067F90026012720230822200001930092F9
:1006A000322132001F4B0396029700F09CFE20235C
:1006B00008222000019300923A2132001A4B03963F
:1006C000029700F090FE122300930C3B1A002000CA
:1006D0003621019700F04EFD0A2037216843494238
:1006E000019604F0C5FB0623123000B21A00362131
:1006F0000090200000F03EFD200002F001F805B05F
:10070000F0BD132E01DC094BBDE7632E01DC084B65
:10071000B9E78023DB02B6E7640300200100010093
:100720001F00040000000020200000201200040030
:100730000D000400F0B5002085B0FFF721FD934BBC
:1007400004001880924B00215A5E022A00D173E007
:10075000032A00D1D2E0012A6CD10A281CD18D4C89
:1007600023880A3BE1211A1C1BB289008B4200DD61
:100770000A1C13B2142B00DA142210B222800A21B0
:1007800004F076FB00B2FFF75FFF0D210023E25E6D
:10079000814800F04DFB4DE0092803D17D4C2388B2
:1007A0000A33DFE7012845D102267C4D1E80280050
:1007B00001F046FE2800210001F013F8784B2800D4
:1007C0002B61784902F07CF80022202311002800D8
:1007D00000930194DB1800F001FD280001F090FF68
:1007E000FA20800003F070FE6F4F704A3B685B0098
:1007F000985EFFF729FF684D00223100280000F0C5
:1008000063FB02943B686A4A5B00D35E310000934D
:10081000DB1722000193280000F076FB5D4B0D21D1
:1008200000229A5E280000F003FB2200310028001D
:1008300000F04AFB05B0F0BD0A282AD15A4E3368B1
:10084000002B01DD013B336001253368574A5B0013
:10085000985EFFF7F9FE504C00220221200000F0C4
:1008600033FB02953368524AAB40D35E02210093BA
:10087000DB172A000193200000F046FB454B0D21B9
:1008800000229A5E200000F0D3FA2A000221200004
:10089000CEE7092805D1444E3368052BD4DC01335B
:1008A000D1E70128C6D103223C4D1A80280001F06F
:1008B000C7FD2100280000F094FF394B3D492B6112
:1008C000280001F0FDFF00222023110028000194E0
:1008D0000093DB1800F082FC280001F011FFFA20E1
:1008E000800003F0F1FD344C0023E05EFFF71EFEB4
:1008F000002221683148FFF701FC9BE70A2808D154
:100900002D4C2368581F782809DD7820206000B21C
:10091000ECE7092807D1284C2368581DF3E72D2858
:10092000F4DA2D20F2E7012800D083E71B4D188070
:10093000280001F085FD2100280000F052FF184B2F
:100940001F492B61280001F0BBFF0022202311006A
:10095000280001940093DB1800F040FC280001F00F
:10096000CFFEFA20800003F0AFFDE121094C8900A1
:100970002288131C12B28A4200DD0B1C1AB2142A00
:1009800000DA142318B22380F9E6C046CC03002015
:100990006000002048000020640000206403002064
:1009A00008000C00DC6400005C0000204A0000200D
:1009B00070000020E1640000800000205C03002043
:1009C000E66400000B005A1E934170B505000C1E32
:1009D000837004D003F042FD013C24182C8070BDCC
:1009E00070B5847805000E00002C0AD0048803F04E
:1009F00035FD074A231A9BB20024934205D95B4276
:100A0000DCB231002800FFF7DDFF200070BDC046DA
:100A100060EA000000207047F8B505000E001700DE
:100A20000024BC4208D02B682800315D1B68984721
:100A3000002801D00134F4E72000F8BD704703001E
:100A4000FC33196ADA69914203D01B6AC018007E30
:100A5000704701204042FBE70300FC33D8691B6A62
:100A6000C01A01D50130FF3070470000F7B501937F
:100A7000FA238027002504009B008360114B7F0030
:100A800008330E0045602900009203603A001830D8
:100A900004F091FC23002000FC332130DD613A009A
:100AA0001D622900FF3004F086FC87239B00E318B9
:100AB0005D609D60009B20002375019B2661A575EC
:100AC0006375FEBD1465000070B5040018260C495E
:100AD000006902F0DBF9206902F02AF833000821EE
:100AE000207D084D4343EB18595603F0F9FF0821C8
:100AF000607D4643AD19695603F0F2FF70BDC046F4
:100B0000A08601004C6D000070B504000D00006966
:100B100002F023F82900206902F0B8F9206902F0F8
:100B200007F870BD8A2300229B00C1540C3BC318F8
:100B30005A609A600123837570470200FC32536843
:100B400010B501339468DBB29C4202D05468015561
:100B5000536010BD10B50300827D002082420ED08C
:100B6000872292009C186268A4680132D2B2A24225
:100B700005D02133FF331800FFF7DFFF012010BD40
:100B80000300FC3399685A68914206D09A68805CE9
:100B90009A680132D2B29A60704701204042FBE766
:100BA00000228A2370B59B00827505000E00C15C8F
:100BB000006902F005F8002806D10321286901F038
:100BC000E9FF0224200070BD872328009B00EA185B
:100BD000536894682130FF301C1B01D50134FF3469
:100BE000002C0ED02C69FFF7CBFFC1B2200002F021
:100BF00025F80028E8D10321286901F0CBFF032460
:100C0000E0E7002EDED00321286901F0C3FFD9E719
:100C100010B50121FFF7C4FF10BD10B51830FFF764
:100C2000AFFF10BD70B50400006902F029F800287C
:100C300014D0206902F032F8002810D0206901F0A9
:100C40009FFF0321206901F0A5FF8C239B00E5583D
:100C5000002D39D10023FC34E361236270BD20698B
:100C600002F026F8002809D0206902F01CF80028BC
:100C700004D0206902F021F80028DFD0206902F0BA
:100C800017F8002826D1206902F003F80028E5D0E3
:100C9000206902F012F8002837D087239B00E21861
:100CA000536892689B1A01D50133FF33FF21002B53
:100CB00005D020002130FF30FFF762FFC1B220696C
:100CC00001F0CFFFA075C9E7236820001B69984792
:100CD000A847BFE7206901F053FF2069032101F015
:100CE00059FF206901F0E9FF0028B7D087230022CF
:100CF0009B00E3185A609A600123A3758B239B0025
:100D0000E3589342AAD09847A8E72200FC32D3695F
:100D1000126A0133DBB22069934206D101F027FF4A
:100D20000321206901F036FF98E701F0CBFF0100B5
:100D300020001830FFF701FF206901F021FFEFE7E5
:100D400010B50248FFF76EFF10BDC046D403002067
:100D500010B51523142202490248FFF787FE10BD83
:100D6000500E0020D403002030B5234B002A37D08A
:100D7000224A5A605A78D209FCD1214A9A605A789C
:100D8000D209FCD11F4A5A805A78D209FCD15F247B
:100D90001D4A94641D4CD46402221D4C25782A43BC
:100DA00022701C4A5A605A78D209FCD10132027171
:100DB000FF291CD9FF210422016009021143164AB0
:100DC00011605A78D209FCD1144A1549118059781A
:100DD000C909FCD1134911805A78D209FCD130BD20
:100DE000114A124C14605A78D209FCD1DFE700296D
:100DF000E1D10131DFE7C046000C004005070300E8
:100E000005300000014500000008004028100000E7
:100E10004408004004080300080C0040020C004095
:100E20001A4400001B440000040C004004070300A7
:100E3000F8B50400182500200B0020492E00464379
:100E40008E599E4204D001300E28F7D1002034E0A4
:100E50000020834231DB01266B43C9184B68184DD3
:100E60008868DB015B191D1840352F7840083E4328
:100E70001B182E70303318784D69CE682843C0B2E5
:100E8000187028237343A4680E4D20000F69EB18D7
:100E9000944200D910009A69DB69002104F0F4F84B
:100EA0002200002304F0D0F828235E43AA593860BA
:100EB00093685B021B0FFBD10120F8BD3865000071
:100EC0000044004188000020002010B5022913D8FA
:100ED00028234B430B4CE318981CC2775B68022015
:100EE000002A0AD01A681043186028235943625810
:100EF00093689B07FCD4012010BD1A6882431A60D6
:100F0000F3E7C04688000020F7B508AB30CB1E7869
:100F1000009401950023022958D81C00012A17D0FB
:100F2000022A13D0042A53D0082A54D0102A54D0AD
:100F3000402A55D00133FF339A4253D08023E02416
:100F4000DB009A424AD00024012201E080246400A0
:100F500028254D43244B5D196F686A613A68144334
:100F60006A1CD677AA683C6015680224002E00D15E
:100F70001E4C2C43146028224A439C58A2685206F7
:100F8000FCD4019A009F9446002A02D1022F00D27D
:100F900002272822150000264D435D192D6966455C
:100FA00003D1BD4201D93D0066464A439A18956176
:100FB000D661D2681560A2685203FCD428224A4345
:100FC0009B180233DA7FFFF77FFF01231800FEBD75
:100FD0008024A400BCE7C024FBE78024E400B7E73A
:100FE000A024FBE7C024F9E78800002005000F00DB
:100FF0007047F0B515000C001E0089B00EAB002242
:101000009B5E0FAA1288019005925A1BD1175218A5
:101010004A400292321BD11752184A400392039958
:10102000029A8A4205DD32001E00130022002C00C5
:101030001500B44205DD2A001D0013002200340013
:101040001600321B91B20691591BC817091841406E
:1010500012B20791D10F8A18521000920122049205
:101060009D4202DB01235B420493B44222DC019BDC
:10107000039A1B689B691F00029B934216DD2200A6
:101080002900059B0198B847009B079A9A1A11B24C
:1010900093B20091120406D5049AAD18069A2DB2A7
:1010A000D3181BB20093013424B2DEE72A002100DA
:1010B000059BE7E709B0F0BD704710B504682469E7
:1010C000A04710BD37B506AC258804680095A46B11
:1010D000A04737BD37B506AC258804680095E46B9A
:1010E000A04737BD73B506AC0025655F07AC268801
:1010F000046801960095246CA04773BDF0B51600F6
:1011000004000D0085B003930AAB1F8803685B6978
:101110009847039B2268013B9B191BB200930197E0
:101120002B0029002000976A3200B847236820006E
:10113000DB6A984705B0F0BDF0B505001C000E0055
:10114000170085B00AAB1B88013C03930368A41900
:101150005B69984703992A6801910097310028003C
:1011600023B2946A3A00A0472B682800DB6A9847AC
:1011700005B0F0BDF0B50E0087B003930CAB029242
:1011800000229B5E040004930DAB1B883500059381
:1011900003685B699847039A2368B21895420BDA93
:1011A000059A290000921B6A20001F00029A049BE6
:1011B0000135B8472DB2EEE72000DB6A984707B04B
:1011C000F0BD13B501910E24015F0C22835E02680D
:1011D0000091146C00221100A04713BDF0B504006B
:1011E00015000E0087B004930CAB00229B5E0593A4
:1011F0000DAB1B88039303685B699847039A2368C8
:10120000009231002A0020005F6A049BB847059BCA
:1012100003995A1E236800915219310020005F6A19
:1012200012B2049BB847039A2368009231002A0047
:1012300020001F6A059BB8470499039A2368013967
:10124000009289192A0020001F6A09B2059BB8473D
:1012500023682000DB6A984707B0F0BD7047F0B5FF
:1012600085B002930AAB0027DF5F0BAB1B8816002B
:101270000393029B04000D000268994210D1BE4204
:1012800002DD33003E001F00039901370091BB1BB4
:10129000976B1BB2320029002000B84705B0F0BDA3
:1012A000BE420CD1029B994201DD029D0291029B3C
:1012B000039901335B1B0091D76B1BB2EAE75369BB
:1012C0009847039A23680192009720009F6A320092
:1012D000029B2900B84723682000DB6A9847DDE7B6
:1012E00003230B4010B583760822835E0A24025F35
:1012F000C90702D48381C28110BD8281C381FBE70B
:101300004281C2810122002310B55242064C426143
:10131000064A08344360046001818181036182616F
:101320000377036210BDC046886B00000101000115
:10133000F0B58DB0079312AB069200229B5E05912B
:10134000019313AB00229B5E0400089314AB1B882F
:101350000026099315AB1B8835000A9303685B6967
:1013600098470722019B0B92D91DCB1713405B189E
:10137000DB10029333009AB20392069A99B28A184C
:1013800012B20492089A934227DA0023019A9342F8
:101390001DDA9AB200920B9A6D00EDB2134203D19E
:1013A000079ADB109219D55C2368059A9B691F0088
:1013B000009B99186AB2099B09B2002A00DB0A9BBC
:1013C0002000049AB847009B01331BB2DEE7039B61
:1013D000029A01331BB2B618CDE723682000DB6AFE
:1013E00098470DB0F0BDF0B585B00AAC0025645F3C
:1013F0000BAD0026AD5F0DAF0CAE36883F88029670
:10140000039701950094FFF793FF05B0F0BD00002E
:10141000F0B595B01D001AAB1B88049205931BAB69
:101420001E881CAB1B78026A02931DAB1B7804005C
:1014300008910393002A00D0C4E00C22835E8B4203
:1014400000DC7DE00E22835E049A934278DD062361
:10145000029A53435B18002B72DD039B049ADB0056
:101460009B18002B6CDD037F002B03D1AF2D01D91E
:101470000135EDB2236820005B69984705220023FF
:1014800055430793984B0B925B190F93079A0F9B49
:101490009B5C0A936B469B8B09936B461B89099A4D
:1014A0000E936B461F8C029B5343FB181BB20D938C
:1014B00008230C930023069301220A9B2068134201
:1014C00052D06B461A8B198A029B012B3AD1039B8F
:1014D000012B37D1099B52188569D919059B12B286
:1014E00009B22000A847069B01335BB206930A9B12
:1014F0005B080A930C9B013BDBB20C93002BDBD106
:10150000079B01335BB207930B9B013BDBB20B9351
:10151000002BBBD1059BB3420ED0029B2268012B4E
:101520003FD1039B012B3CD105370096156A200063
:10153000049A39B20733A84723682000DB6A98472A
:1015400015B0F0BD6B4608255B5F039D6A438A18A2
:10155000059912B2019169460C25495F0091C56950
:101560000D992000A847BEE7059BB342BBD06B4650
:101570001A8B198A029B012B0AD1039B012B07D1DD
:10158000099B5218D9198569330012B209B2A8E72C
:101590006B4608255B5F039D01966A438A1812B269
:1015A000D9E76B4608215B5E05210E980196414301
:1015B00003987918C0000090D5692000049A09B2F8
:1015C000A847B9E7137A5168ED1A1268EDB2ED0039
:1015D00013924A5B4B1909929A780D92DA7811921C
:1015E00005229A569B790E925BB20F93029B012BB8
:1015F00002D8039B012B56D96B4638229B5E0B9376
:101600006B463C229B5E0C930027236820005B699D
:10161000984707970697119B069A9A4200D38BE743
:101620006B461B8A00260A930C9B9B18039A534314
:101630000A9AD3181BB210933B000D9A96424BD2D4
:101640005A1CD2B212920722134207D1099B099960
:10165000139A0133525C9BB2079209936B461B7F2E
:101660005BB2002B17DA6B46198C029B2068012BAA
:101670001DD1039B012B1AD10A9B0F9A9A18069B26
:10168000D2180E9B12B2C918836989191D00200057
:10169000059B09B2A847079B01365B00DBB20793A5
:1016A000F6B2129BC9E700230C930B93ACE76B4691
:1016B00008229B5E0B9A029D92196A438918059A2B
:1016C00009B201926A460C25525F0092C26920005D
:1016D0001500109AA847DEE7069D0D9B0135FF18FF
:1016E000EBB2FFB2069396E788660000F0B5026A97
:1016F00004000D0085B0002A2CD10A2908D1437EB0
:101700000282DB00628A9B186382012005B0F0BD73
:101710000D29FAD01223C25E1023C15E437E0393CB
:10172000037E0293C38A0193838A00932B00FFF701
:101730006FFE227E238A312D08D1042A02D1133371
:101740002382E2E7032A01D10E33F9E706214A4357
:101750009B18F5E70A2905D100230382127B437EFB
:101760005343CFE70D29D0D0137A9942CDD3917A44
:10177000A942CAD3EB1A5168DBB2DB00CE18B178AC
:10178000002929D0F378002B26D0E37E007E677EE7
:10179000002B13D00523F3565B1843439C461023BC
:1017A000E15E8C440C23E15E8C4507DD1223E15E93
:1017B00000232382137B7B435B1863821223E25E48
:1017C0001023E15EE38A02900193A38A2000009334
:1017D00003972B00FFF71CFE227E33795343228AA6
:1017E000B6E70B1C002900D101230376437670472E
:1017F00010B500F02DFB0022024B8000C358493386
:101800001A7010BD5C060020F0B5040085B01E0003
:101810000AAB1B78103001930BAB1B7817000293B7
:101820000CAB1B780D00039300F094F920002430DA
:1018300000F090F9220000234832A363E36323649D
:1018400063641370537063729D4205D12721084B66
:10185000084A094803F036FD2000019B25606371AA
:10186000029B2771E371039BA671237205B0F0BD43
:10187000E06B0000F16B0000456C000030B5040027
:1018800085B002AD00680291039201F00DF96B7909
:10189000227AE17920680093002301F0CDFA2979BA
:1018A000029A206801F024F9206801F0F3F805B0ED
:1018B00030BD000007B5837A00910192002B07D05C
:1018C0009A070AD5EFF310835A425341C37272B696
:1018D0000099019AFFF7D2FF07BDDB07F8D5C3686F
:1018E000014A9BB29360F3E70018004010B500680E
:1018F00001F0E3F810BD000010B5006801F0F0F948
:1019000003000020834203DB0C304343014A985814
:1019100010BDC046AC6C000010B5006801F0E0F9E5
:10192000002805DB0C2343430348C018406810BD62
:1019300001204042FBE7C046AC6C000010B50068D7
:1019400001F0CEF9002805DB0C2343430348C018FF
:10195000806810BD01204042FBE7C046AC6C00002F
:10196000F0B506001036050089B0300000F048F9E7
:1019700000286CD12F002437380000F041F9041EF4
:1019800062D12800FFF7DAFFC1B2300000F018FA88
:101990000221300000F038FA01222E49300000F018
:1019A0000BFA300000F054FA2B4B8000C550280091
:1019B000FFF7B2FFC1B2380000F002FA022138008E
:1019C00000F022FA380000F043FA234B8000C550A3
:1019D0002800FFF791FF012301002200029330004D
:1019E0002300049403940194009400F033FAA86354
:1019F0002800FFF781FF0123020021000193380036
:101A00002300049403940294009400F023FAE86302
:101A1000402003F0B3FC2A004832286407920028D3
:101A20000BD00123137068646B6C10221819E96BDA
:101A3000103403F0B7FC402CF6D1079B1B78002B29
:101A400005D1380000F076F9300000F073F909B0E4
:101A5000F0BDC046F11700005C06002070B5437A67
:101A60000400002B03D1012243814272C360230092
:101A700048331B78002B02D12000FFF771FF182696
:101A80003300082120790D4D4343EB18595603F0DC
:101A900027F833000821A0794343EB18595603F087
:101AA0001FF8082160794643AD19695603F018F80C
:101AB000034B200006CBFFF7E1FE70BD4C6D00002C
:101AC000540600201FB5094A094B0A491360002338
:101AD000938002930133019316330093162201334E
:101AE0000548FFF791FE05B000BDC0465406002032
:101AF00000093D00540E002008060020084B19681C
:101B0000002909D1EFF31080064A002803D172B6EC
:101B1000BFF35F8F013111701A6801321A6070478C
:101B20001808002014080020084B1A68002A0CD05E
:101B30001A68013A1A601B68002B06D1044B1B7807
:101B4000002B02D0BFF35F8F62B6704718080020E9
:101B500014080020FF2310B50370C02300210400E7
:101B60009B004170418083800C22083003F023FCED
:101B7000200010BD01230A0010B51A40194208D0F8
:101B80000C4A1370033343708368002B00D09847CE
:101B900010BD0223194204D006490B70C36842707D
:101BA000F3E704231942F3D0024A1370033343705E
:101BB0000369EAE74E48004110B5FFF79FFF0C4B61
:101BC0001B8C1B071B0F0B2B0FD80A4A9900885838
:101BD00000280AD00F2408490A78A24313430B7047
:101BE000064B1978C9B2FFF7C5FFFFF79DFF10BD7F
:101BF000004800411C0800203F4800414E48004179
:101C0000F8B500230278050018000B2A77D93C4E5E
:101C10002B702B780B2B07D801229A403168114288
:101C200004D001332B70F4E7012068E0FFF766FF72
:101C30003768344C002F2BD12022334B334859695D
:101C40000A435A611022D9690A43DA6102222388C1
:101C50003900934323802388013A134323802C4B7C
:101C60006063BF32A36303F0A6FBC022390028489B
:101C700003F0A1FB4022C120264B80002380264B8D
:101C800026491A601A581140C02212040A431A50F9
:101C900001231A00297830688A40024332600F26F7
:101CA0001F4A880085501F4831400278B2430A43DA
:101CB000027002201C4A1178814311701178194377
:101CC0001170297822698B409A43226160223F215A
:101CD000636C934363642A79636C0A40134912026C
:101CE0000B400321134363646A79636C0A40104913
:101CF00092050B4013436364FFF716FF0020F8BD05
:101D00001008002000480041000400405007002057
:101D100090060020020F000000E100E0FFFF00FF3E
:101D20001C0800203F48004140480041FFC0FFFF21
:101D3000FFFF3FFF70B50500FFF7E0FE6B785CB278
:101D4000062B2BD02B7802240B2B27D801229A406C
:101D5000144B1968114221D01968914319601B680E
:101D6000002B14D14022104BDA67BFF34F8FBFF323
:101D70006F8F21000D4A0E311388A34313800C4B43
:101D8000DA698A43DA615A6910318A435A61002458
:101D90002B78084A9B009C50FF232B70FFF7C4FE52
:101DA000200070BD1008002004E100E00048004160
:101DB000000400401C0800200232920011507047BD
:101DC000037870B505000C0001710B2B14D8FFF7D8
:101DD00095FE29780F25094829400378084AAB4326
:101DE0000B4303703F23516C1C40064B24021940E7
:101DF0000C435464FFF798FE70BDC0463F48004155
:101E000000480041FFC0FFFF037870B505000C00DB
:101E100041710B2B14D8FFF771FE29780F25094863
:101E200029400378084AAB430B4303700323516CEA
:101E30001C40064BA40519400C435464FFF774FE84
:101E400070BDC0463F48004100480041FFFF3FFFD2
:101E500000787047F0B587B001930CAB1E780DABDE
:101E60001B78050002930EAB1B780078039310AB30
:101E70001F78049105920B2802D9002007B0F0BD0D
:101E80006B78062BF9D0AB78002B00D179E01021CC
:101E9000080003F069FA0028EFD02B783B4A1B01B9
:101EA0009B181A00D168002904D0D1688B4201D058
:101EB000D268F7E7D06001220223AA70964203D0CD
:101EC000DB18022E00D01300062401881143018084
:101ED0000188A143018001881234A1430180153C8F
:101EE000018826402A4C360221400E430680029E7D
:101EF0000188284C16402140B6020E430680039EFE
:101F00000188254C16402140F6020E4306800188C8
:101F1000224E3A40314012030A43072102800F9AB1
:101F2000114002884903D204D20C0A4302806A4657
:101F300092884280049A4260029A002A08D0019A4C
:101F400041685A43002F01D00F9CA2408A1842607A
:101F5000059A8260039A002A09D0019A84685A433C
:101F60001300002F01D10F9A9340E31883600023E0
:101F7000EA789A4203D02B78044A1B019B18C3606D
:101F80007CE7024B0001C01895E7C04650070020CF
:101F9000FFFCFFFFFFFBFFFFFFF7FFFFFFEFFFFF70
:101FA000F0B5150005AA1488827E022A00D16BE0E4
:101FB000032A00D19FE0012A00D06DE0EA430589A1
:101FC000AD182DB2002D5EDB0826825FAA425ADDD5
:101FD000002902DA5B1800211BB20A22825EC818AF
:101FE000904201DD531A1BB2002B4CDDC8B2C2086F
:101FF0005E4992015219521807250100DBB22940AF
:1020000028421CD008205A4D401AC0B22D5C834291
:1020100000D3A3E0FF26C71A3E413540012C00D172
:102020006EE0022C00D16FE0002C2CD11678AE436C
:102030001670834227D308395B18DBB24032072B76
:1020400014D9022C63D11000190005780839ED432A
:10205000C9B2057040300729F7D819000839C9B24C
:10206000C90801318901521807210B40002B0AD001
:102070004049CB5C012C58D0022C5AD0002C02D104
:10208000117899431170F0BDEA434589C918AD181C
:1020900002892DB2511A09B2002DF4DB0A26825FA3
:1020A000AA42F0DD002902DA5B1800211BB20822E7
:1020B000825EC818904201DD531A1BB2002BE2DD8C
:1020C000EA1092015118294A01208A1807210D406F
:1020D000A840C0B2012C2FD0022C36D0002CD2D177
:1020E000C043C0B2013B1BB2591CCCD01178014097
:1020F00011700132F6E74289C918511A09B261E735
:1021000016783543157094E716787540FAE7611E26
:1021100048424141150018004942C9B20838C0B2CE
:10212000297040350728F9D897E711780B431370C9
:10213000A9E711784B40FAE7013B1BB2591CA2D02A
:102140001178014311700132F6E7013B1BB2591CB3
:1021500099D01178414011700132F6E7012CCFD0AF
:10216000022CD1D0002C00D065E75FE710010020E1
:102170000801002000010020F0B50C0005A90D8821
:10218000817E02293CD0032900D1A1E001293FD161
:102190000189D2188A1A12B2002C00DA97E00A26B6
:1021A000815FA14200DC92E0002A02DA9B18002243
:1021B0001BB20821415ED018884201DD8B1A1BB288
:1021C000002B00DC83E0E11089018A185D490120C1
:1021D000511807221440A040C0B2012D00D17CE06C
:1021E000022D00D182E0002D71D1C043C0B2013B6D
:1021F0001BB25A1C6BD00A7802400A700131F6E714
:10220000E1430489D2186418418924B28A1A12B2AF
:10221000002C5CDB0826815FA14258DD002A02DA2F
:102220009B1800221BB20A21415ED018884201DDB2
:102230008B1A1BB2002B4ADDD2B2D108414889016A
:102240000919091814000720DBB2044002421AD011
:1022500001303D4A001BC0B2125C834200D36AE0E9
:10226000FF26C71A3E413240012D48D0022D4AD0E8
:10227000002D2CD10E7896430E70834227D3083C54
:102280001B19DBB24031072B14D9022D3ED10800B7
:102290001A000478083AE443D2B204704030072AA6
:1022A000F7D81A00083AD2B2D2080132920189183E
:1022B00007221340002B0AD0244AD35C012D33D0CF
:1022C000022D35D0002D02D10A789A430A70F0BD54
:1022D000E1434489641824B25EE7013B1BB25A1CF7
:1022E000F5D00A7802430A700131F6E7013B1BB2D0
:1022F0005A1CECD00A7842400A700131F6E70E7899
:1023000032430A70B9E70E787240FAE76A1E50420B
:1023100042410C0018005242D2B20838C0B22270BA
:1023200040340728F9D8BCE70A7813430B70CEE78E
:102330000A785340FAE7012DE1D0022DE3D0002DB9
:102340009DD197E710010020080100200001002026
:1023500030B5002947DB0C25445F8C4243DD002A61
:1023600041DB0E25445F94423DDD847E022C1ED06D
:10237000032C25D0012C04D1D243008980180A00F7
:1023800001B2012B22D0022B2ED0002B2BD1072003
:10239000D31703409B18DB109B01591801230240FF
:1023A00093401A00174C635C934363541BE0048909
:1023B000013C611AD443428909B2121912B2E0E712
:1023C00040890138401A110002B2DAE70724D01719
:1023D0002040801822409340C010800141180948D5
:1023E000425C1343435430BD0720D31703409B186E
:1023F000DB109B015918012302409340014C625CA1
:102400005340D2E71001002070B504000D002022D7
:102410004021FEF775FF094BFF220833236023009C
:102420002A331A702200012328325B42E38413709E
:102430002300293320001D7070BDC046F46C0000DD
:10244000802210B500210248520002F0B4FF10BDF6
:10245000100100200300F7B52B331B7804000D009A
:10246000002B03D01348FFF741FAF7BD082380265D
:102470000127009323001F200833019318560021E1
:1024800002F0EAFA31001F20E31D185629402E42BF
:1024900000D0390002F0E0FA1F20019B39001856E5
:1024A00002F0DAFA009B7608013B0093002BE1D1A1
:1024B000DBE7C0460806002070B5C31DDB7F0400C3
:1024C0005BB20D0001331AD0060000202A3601212C
:1024D000305602F0C1FA28200021205602F0BCFA42
:1024E00000200021305602F0B7FA29002000FFF743
:1024F000B1FF00200121305602F0AEFA70BD053464
:10250000E17F084C2000FEF70DFB00212000FEF7C4
:1025100021FB29002000FEF71DFB2000FEF778FBC1
:10252000ECE7C046D4030020F0B585B00093831DCE
:10253000D977431DDA771F23C71DFB5604000D0012
:10254000013300D1CAE0030020200833019318565C
:10255000012102F051FA26002A20012120562B36B3
:1025600002F04AFA3378002B00D1A7E0604E300029
:10257000FFF774FA002302AA938030005D49039AA2
:10258000FFF798F9009B002B1DD02600002029366C
:102590003056002817DB012102F02EFA002001211D
:1025A000305602F059FA012001F08EFF0020002180
:1025B000305602F051FA0A2001F086FF0020012176
:1025C000305602F049FAAE212000FFF775FFD52101
:1025D0002000FFF771FF80212000FFF76DFFA82189
:1025E0002000FFF769FF1F212000FFF765FFD321BF
:1025F0002000FFF761FF00212000FFF75DFF402171
:102600002000FFF759FF8D212000FFF755FF102113
:10261000012D00D014212000FFF74EFF20212000C3
:10262000FFF74AFF00212000FFF746FFA12120000D
:10263000FFF742FFC8212000FFF73EFFDA2120000C
:10264000FFF73AFF12212000FFF736FF812120001B
:10265000FFF732FFCF212000FFF72EFFD921200006
:10266000FFF72AFF2221012D00D0F1212000FFF7E2
:1026700023FFD9212000FFF71FFF2221012D00D0C9
:10268000F1212000FFF718FF2000DB21FFF714FFE6
:1026900020004021FFF710FF2000A421FFF70CFFCE
:1026A0002000A621FFF708FF20002E21FFF704FFDE
:1026B000AF212000FFF700FF05B0F0BD1F20012172
:1026C000385602F099F91F20019B0121185602F09B
:1026D00093F93378002B00D154E747E7064E3000DA
:1026E000FEF7F2F930000549FEF70EFA4AE7C04658
:1026F0000806002000127A00D4030020801A060089
:10270000F8B504002121FFF7D7FE20212000FFF7B4
:10271000D3FE5F212000FFF7CFFE22212000FFF72C
:10272000CBFE00212000FFF7C7FE03212000FFF7AA
:10273000C3FEE31DDB7F10265BB2013321D02600F0
:1027400000202A360121305602F086F92820012186
:10275000205602F081F9002000218027305602F037
:102760007BF900257F00174B2000595D0135FFF7ED
:1027700071FEBD42F7D100200121305602F06CF904
:10278000F8BD3500104F631D3800D97FFEF7CAF938
:10279000103D40213800ADB2FEF7DCF9094B38009E
:1027A000595D0135ADB2FEF7D5F9AE42F6D138002C
:1027B000FEF72EFA88231036B6B25B009E42E0D1B7
:1027C000DEE7C04610010020D403002010B5024807
:1027D00001F006FD10BDC0464C08002010B50248AF
:1027E00001F0FEFC10BDC046480B0020F7B50124E7
:1027F0000326154F1549380000F0B6F8144915485E
:1028000000F0B2F81449154800F0AEF81449154824
:1028100000F0AAF81449154800F0A6F8144D15491F
:10282000280000F0A1F8390023000096002201944E
:10283000114801F06BFC290000961E231F22019411
:102840000E4801F063FCF7BD440E00200008004272
:10285000000C0042480E0020001000424C0E0020E8
:1028600000140042500E002000180042540E0020B8
:10287000580E0020001C00424C080020480B00208D
:10288000F8B505000E0017000024BC4208D02B68E4
:102890002800315D1B689847002801D00134F4E717
:1028A0002000F8BD70B505000C00081E07D003F02D
:1028B0006FF92B680200210028005B68984770BD03
:1028C00010B5FFF7EFFF10BD10B503681B68984700
:1028D00010BDF0B58BB06B46140000220533070025
:1028E0000D00DA77012C00D80A2409AE2800210057
:1028F00002F0BAFA0300CAB2080029001D00130052
:102900003733DBB2092802D813003033DBB2013E83
:1029100033708C42EAD931003800FFF7C3FF0BB0A7
:10292000F0BDF8B507000D00161E04D10368C9B24A
:102930001B689847F8BD0A2A0CD100290BDA2D2113
:10294000FFF7C2FF3200040069423800FFF7C1FF01
:102950002018EFE7D2B229003800FFF7BAFFE9E705
:1029600010B5FFF7DEFF10BD016070479446F0B56B
:1029700005AC25789C1E621E94416246066892074B
:10298000376824063A432243072432600068214016
:10299000AD01002442682943022B00D05C030A43A6
:1029A00022434260F0BD30B5C0250368AD031C680A
:1029B00012052A402243C0240904A40221400A43EC
:1029C0001A6003685A6814435C6030BD01230268D2
:1029D00011680B43136003681A68D207FCD4DA69E4
:1029E000D207F9D470470223026811680B431360C1
:1029F0000268D3699B07FCD4704703681A7ED2072C
:102A000002D41A7E9207FCD57047002203685A83CD
:102A100070470368187E4007C00F70470368187E30
:102A2000C0097047802302685B42117E0B43137616
:102A300070470368588B8007C00F704702230268F5
:102A4000518B0B43538370470368187EC007C00F38
:102A500070470368188DC0B2704703681A7ED207AA
:102A6000FCD589B2012019857047012203689A7547
:102A70007047012203681A757047012302681168C4
:102A80000B43136003681A68D207FCD4DA69D207D3
:102A9000F9D470470223026811680B43136002687F
:102AA000D3699B07FCD470470368DA699207FCD4AA
:102AB00002211A688A431A6070470268936A5B0AA7
:102AC0005B020B43936203681A7E5207FCD5986A37
:102AD000C0B2704710B50548490002F03FF980B216
:102AE000002801D0013880B2C0B210BD006CDC02F9
:102AF00070B50C00012611006308026833403440B1
:102B0000156824075B0723432B4313600468FFF712
:102B1000E1FF207370BD0123026811680B4313604D
:102B200003681A68D207FCD4DA69D207F9D470476F
:102B30000223026811680B4313600368DA69920785
:102B4000FCD430215A8B8A43110010220A435A8345
:102B50000268D3695B07FCD47047022102681368DE
:102B60008B4313600268D3699B07FCD470478023B2
:102B70000268DB02116851680B4353607047000024
:102B8000036803491A685A680A405A607047C04689
:102B9000FFFFFBFF032230B5036811401C68074D9F
:102BA0005A6809042A40E4061143640F5960052C51
:102BB00003D10268D3695B07FCD430BDFFFFFCFF83
:102BC00030B503680400588B8006800F022813D0AC
:102BD0005D8B0020AD06AD0F032D2ED0588B8007E6
:102BE00005D55D8B0020AD06AD0F012D25D15D8B88
:102BF000AD06AD0F281E20D04800596A1043C90AFF
:102C0000C0B2C902014359622368002A08D11A7E62
:102C1000D207FCD5588B01234007C00F58400CE069
:102C20001A7E9207D00F002AF4DB1A7ED207F7D55E
:102C3000C022596892020A435A6030BD03682833A3
:102C400019700268137EDB07D80F002B03D1538B5A
:102C5000DB07F7D570470123508B4007C00F584062
:102C6000F8E70368283319700268137E5B07D80FF2
:102C7000002B04DA0123508B4007C00F58407047E7
:102C800003681868C006400F043843425841C0B278
:102C900070470368187E4007C00F70470368187EAE
:102CA000C007C00F70470368588BC006C00F70473D
:102CB0000368187E8007C00F70470368588B0007B1
:102CC000C00F704703681A68D206520F052A02D156
:102CD0001A7E9207FCD528331878C0B270470000DE
:102CE0000368104A934213D00F4A934212D00F4AFE
:102CF000934211D00E4A934210D00E4A93420FD005
:102D000001200D4A4042934201D1063040B2704743
:102D10000020FBE70120F9E70220F7E70320F5E7B1
:102D20000420F3E700080042000C004200100042BB
:102D30000014004200180042001C0042F8B5FFF7E2
:102D4000CFFF00282CDB1D4BC00018180523047989
:102D5000C3560320FF221840C0008240C021D24346
:102D60008140002B1DDB1F2501201D40C026A840EF
:102D7000134D7600A851C0269B089B005B19B60036
:102D80009F593A401143995128603F2323408024A2
:102D9000E4011C430B4B5C805A7852B2002AFBDBE7
:102DA000F8BD0F200340083B07489B089B001B18F9
:102DB000D86902401143D961E7E7C0469C71000021
:102DC00000E100E0000C004000ED00E0F8B5040078
:102DD0000F0016001D00FFF7B1FF2000FFF7F6FD02
:102DE0001C21BB000B4071072268090C0B431360C8
:102DF000842322689375012F1AD11021012E00D04F
:102E000008390C4B69431868C00001F0A7FF07227E
:102E1000216802408B895203DB04DB0C13438B8156
:102E2000226803049089DB0C400B40031843908117
:102E3000F8BDC046A4020020F7B50500019308AB19
:102E40000C0016001F78FFF718FE2800FFF776FF2A
:102E5000C021C022890224040C409203BF0736051A
:102E6000274316403E430C2707222B683E431E6033
:102E7000019B296813401A0080239B0213434B6077
:102E80002A68D3695B07FCD4F7BD0000F8B50400DD
:102E90000F00FFF753FF2000FFF73DFE14222368C9
:102EA00079001A600C4B25681E68300001F056FF4F
:102EB0000A490400300001F051FF7D23FA215843F4
:102EC000C90001F04BFFFF23241AE868053C1C40B1
:102ED00098430443EC60F8BDA402002040420F0078
:102EE0003F20704713B56B460268D97107335468A9
:102EF00019000122A04716BD10B50221006900F09B
:102F000027FC10BD10B50321006900F037FC10BD8F
:102F100010B51300084A0400D279002A03D1012316
:102F20000020636010BD0A000069032100F01EFD4F
:102F30000028F4D0F6E7C0462C02002010B5054C5E
:102F400003002068421C04D11A6818005269904797
:102F5000206010BD78020020074A0300106810B5F9
:102F6000411C03D001235B42136010BD022118698C
:102F700000F0EEFCF9E7C0467802002010B50378B7
:102F80004222023303700249024800F09BFD10BD4B
:102F900034020020780E002010B50178030042783A
:102FA0000020A12908D1212A05D1174917481A3A2A
:102FB00000F088FD012010BD2129FCD1202A13D169
:102FC00011491248193A00F01DFC96220E4BD2000E
:102FD000196891420ED1DA7901231A420AD1FA20F6
:102FE00001F0DCFD0020E6E7222A06D19A78064BA4
:102FF000DA71EAE701F0D8FDF4E7232ADBD15A8839
:10300000034B1A60D7E7C0462C020020780E002040
:1030100028020020FA220021054B92009A60054AFE
:1030200008321A60044A59601A6119767047C0461E
:103030005C0E0020CC710000780E0020704770B547
:103040000F26CB1D02003240D5B22C0000093034CF
:10305000092A00DD07341C705A1E994200D170BD48
:103060001300EFE710B50400806902F091F9A06A3F
:1030700002F08EF9200010BD10B50400FFF7F2FF3A
:10308000200001F06BFA200010BD000070B503298C
:1030900008D1324B8000C058002802D00368DB689A
:1030A000984770BD82291FD1C3B22D4D5A01AA186D
:1030B00091692C4C80010C40C0218905214391610C
:1030C000294908334018802150612A685B01D018D3
:1030D00004794942214301717020995C81430800C1
:1030E000302101439954DCE70029DAD1C024C1B270
:1030F0001B4E4A01B21893681A4DA4052B40234376
:1031000093601A4B8001C0180B005060306807268E
:1031100008335B01195CB1430E000121314319549E
:1031200091690D402C43946170240F495161195CE1
:10313000A1430C0010212143195491680C4CC31871
:103140000C4080214903214391609168890B8903D8
:103150009160402259790A435A71A2E77C0E0020FF
:1031600030130020FFFFFF8FA40E0020641000200A
:10317000FF3F00F0EFF3108303600123436072B65A
:1031800070470368002B02D162B6BFF36F8F7047A0
:1031900037B5056904006846002D14D1FFF7EAFF32
:1031A000019B621D013B02D3D57FEDB2FAE7684671
:1031B0000193FFF7E6FF002D01D100203EBD206AFC
:1031C000E369C01AFAE7FFF7D5FF22000025019B4B
:1031D0003432013B02D31578EDB2FAE76846019329
:1031E000FFF7CFFF002DE8D0206BE36AE9E700008E
:1031F000F0B5FF2501264268836811682B405B010A
:10320000CC186419A77AD3183E43A672C6689C6886
:103210000B4FB60436093C4034439C6083682B4016
:103220005B01D2189468A40BA403946040228368C5
:103230002B4008335B01CB1819790A431A71F0BD92
:10324000FF3F00F0F7B5056904000E00170068465F
:10325000002D43D1FFF78EFF019B601D013B5A1CDF
:103260000BD0C27F591E002A05D168460193FFF793
:1032700088FF2800FEBD0B00F1E768460193FFF7C9
:1032800080FFE369AF420AD0226A9A4207D95A1CEA
:10329000E261A269D3181B7873550135F1E7226A00
:1032A0009A42E6D10023E361013368462361FFF7C8
:1032B00061FF22000021019B671D013B3532581C34
:1032C000D3D0F97710785E1E002805D02000117049
:1032D0000193FFF78DFFECE73300F0E7FFF74AFFBC
:1032E0002000019B3430013B5A1C06D00278591E45
:1032F000D5B2002AB9D00B00F6E768460193002545
:10330000FFF73FFFE36ABD4202D0226B9A421CD80E
:10331000226B9A42ADD100236846E3622361FFF736
:1033200029FF270022000021019B3437013B353261
:10333000581C9AD0397010785E1E00280DD02000DD
:1033400011700193FFF754FFEBE75A1CE262A26A87
:10335000D3181B7873550135D4E73300E8E7F7B588
:1033600082684368D2B2110004000831186849012C
:103370004118C879C00729D501255201CD719B1884
:103380009A6861699204920C002923D12262226A10
:10339000002A41D0A26A656168465A60FFF7EAFEDA
:1033A000342294462200019B671D013BA444353220
:1033B000591C2DD06146FD770978581ECEB20029E0
:1033C00005D0019368461570FFF7DBFEF7BD0300DB
:1033D0001670EDE72263226B002A1DD00022270021
:1033E0006261A26968465A60FFF7C4FE019B621DD4
:1033F0009446013B34373032591C09D061463D7048
:10340000C97F581ECEB20029DBD103001670F3E746
:1034100068460193FFF7B5FE2000FFF7E9FED5E708
:1034200013B56A4600230C00D01DD371FFF7A6FD2B
:1034300023681818206001F02DFC6B46D91D01F09F
:10344000F5FB236818186B462060D87916BD00007C
:1034500003290ED180220E4B62311B68FF31585C6C
:10346000524202435A5468226339FF32FF39995459
:1034700070470129FCD18022054B24311B68FF31A4
:10348000585C524202435A5428222339FF32EDE756
:103490003013002070B500252F4B012104001A20A5
:1034A0001D7001F0A9FA01211A2001F0D5FA2B4B69
:1034B000012119201D7001F09FFA0121192001F04E
:1034C000CBFA2023264A0F20D1690B43D361012276
:1034D00024490B7813430B70234B197881431970DF
:1034E00006211D782943197020490D782A430A7056
:1034F0001A7802401A70602219780A431A701C4B1D
:103500001C4A5A805A78D209FCD11B4800F0A0FF0F
:103510001A4D280001F0D2FB280001F0E5FB7F21C5
:103520002B68C1201A7880000A401A70042219788A
:103530000A430C211A701A898A4311491A810A58C0
:103540001202120A0A5080220A6019787E3A0A434F
:103550001A700123237070BD990E0020980E002070
:1035600000040040584400413C440041594400419B
:10357000000C0040064000004D3F000030130020CA
:1035800000E100E00078002810D00121084B1B6802
:103590001A898A431A810822198B0A431A83042242
:1035A000198B0A431A830022024B1A607047C046E7
:1035B00030130020281300200A000E498B699B0B52
:1035C0009B038B610B680221FF3319729879823952
:1035D00001439971197A8907FCD57F20064B024077
:1035E000997A8143114380229972997A52420A430F
:1035F0009A727047301300200050004110B50B79CB
:103600000C00002B0CD10800FFF7C6FC002801D0ED
:10361000012010BD094A93699B0B9B039361F7E757
:1036200001F038FB210001F025FB0028F0D1034A0E
:1036300093699B0B9B039361EBE7C046301300201B
:10364000F7B50D001100832A19D1EBB2324C5A01A3
:10365000A21891693148AD010840C0218905014394
:1036600091612F4920686D187021083355615B0105
:103670001A5C8A43110040220A431A54F7BD022AF9
:1036800045D1284AAB009858002802D003685B69EE
:103690009847382000F05EFF234B8027036000230B
:1036A0001D4E7F00421D036203614361C36146609A
:1036B0008560C760D3772F32C36203630400137041
:1036C0003800537001F05AFE0190A061380001F0FB
:1036D00055FEEBB25A01A062B21891680F48083348
:1036E0000840C021890501439160316807265B01CC
:1036F000585CAD00B0430600032030435854019B92
:1037000020005360FFF774FD064B5C51B6E72800BC
:10371000FFF7BCFCB2E7C04630130020FFFFFF8F6D
:10372000A40E00207C0E0020F871000070B505008A
:103730000124064BA200D258002A05D021002800FF
:10374000FFF77EFF0134F4E770BDC0467C02002025
:10375000084B8A00D05810B5002803D003689B6836
:10376000984710BD044BC9B24901591888688004B4
:10377000800CF6E77C0E00203013002010B50C0002
:10378000FFF7E6FF00280CD0064BE4B2196880234F
:10379000083464010C1962795B421343637102239C
:1037A000E37110BD3013002070B5CBB2124A13483C
:1037B0005C0189018918021951609168104D083324
:1037C0000D40802189022943402591609168890B31
:1037D0008903916001685A018A1816793543157179
:1037E00095796D06FCD55B01C918CB79DB07FCD553
:1037F00000198068C0B270BD641000203013002032
:10380000FF3F00F070B5140040220B4B0D001B6809
:10381000FF3359790A435A710021FFF7C5FFA042CF
:1038200000D9200000230549A34203D0CA5CEA5412
:103830000133F9E770BDC04630130020641000204A
:1038400010B50C48C9B24901421893689B049B0CFF
:103850003F2B0BD99468403B9B04A40B9B0CA40307
:103860002343936041188868C0B210BD93689B0BD6
:103870009B03F6E730130020F0B51C002F4B85B0FA
:103880001B6806000D000192002B54D02C4F3B7892
:10389000D9B2002B02D1192001F0DEF864233B706D
:1038A000284BAA00D058002808D0036822005B6883
:1038B000019998470400200005B0F0BD29003000B0
:1038C000FFF746FF844204D929003000FFF740FF8C
:1038D000040029003000FFF7B3FF0121EBB21A4FBB
:1038E00003935B010293029A3B6801989B18FF3394
:1038F0005A7A0A435A72154BA9012200C91801F0DD
:1039000051FD002CD7D029003000FFF721FF0028FF
:10391000D1D14021039B3A6808335B01D318187951
:10392000014319710121D971029BD318FF339A7A8F
:103930000A439A72BFE701246442BCE728130020BF
:10394000980E00207C0E0020301300206410002010
:1039500013B56B46DC1D22000123FFF78DFF012804
:1039600001D1207816BD01204042FBE7F0B51C00D4
:103970003A4B85B01B680E000192002B3FD080238C
:10398000DB019C423BD8364D2B78D9B2002B02D1BB
:103990001A2001F061F8642300272B70314BB2012B
:1039A000D3180293002C2CD02F4B1B680393FF23BA
:1039B00033401D0000930835039B6D015D19AB7901
:1039C000DB0921D0294B2A49186801F0C7F9294B96
:1039D0001721584301F0C2F9274BEA79920713D413
:1039E0009A5D002A01D10138F7D201229A55009B35
:1039F0005A011D4B9B189A69920B92039A610127F9
:103A00007F42380005B0F0BD00221B4B25009A55BF
:103A1000402C00D940252A000199029801F0C2FCEF
:103A2000009BA9045A01104B890C9B18029A7F191C
:103A30005A619A69641B920B92030A439A61009B34
:103A4000039A08335B01D3180222DA715979823A5A
:103A50000A435A71019B5B190193A3E728130020C5
:103A6000990E0020A40E002030130020A402002094
:103A700040420F00701101009B0E002070B50C0039
:103A80001D000D4BA601F618110030002A0001F0B0
:103A900089FCE4B2094A640114196661A369084902
:103AA00028000B40A361A169AB04890B9B0C89031F
:103AB0001943A16170BDC046A40E00203013002040
:103AC000FF3F00F0F7B5104B0F001B78140001907A
:103AD000002B0CD10D4B16001D78002D09D00C4E7B
:103AE0000C48358828182D1901F05CFC3580200021
:103AF000FEBD002EFBD033007A1900210198FFF79C
:103B0000BDFF2D18361AF4E72412002025130020DB
:103B10002613002025120020F8B500200D00140007
:103B200000AF012A27D9D31D6A46DB08DB00D31A70
:103B30009D46080002F02CF86E4603230222002165
:103B40000130400030707370A2420DD228780028F6
:103B50000AD0531CDBB20135B0549C4203D0023270
:103B6000F154D2B2F0E7220031000448FFF7AAFF77
:103B7000431E9841C0B2BD46F8BDC046780E002035
:103B8000F0B50025012785B0184B0E0069461F705F
:103B900004000095FFF744FC154B01A90B806A3B1C
:103BA000FF3BCB716E3B0B72009B320009334B80A5
:103BB0000E4B8D714F7108711D70092E0FD00D4E77
:103BC000092237700C4F200000953D80FFF77AFFE7
:103BD00069462000FFF724FC3A8808493570200028
:103BE000FFF770FF012005B0F0BDC0462412002091
:103BF00009020000251300202613002025120020B2
:103C0000F0B5CF7805000E0093B0022F09D1C98816
:103C10002B48FFF7B5FF441EA041C4B2200013B0EB
:103C2000F0BD01F037F8310001F014F8002803D09E
:103C3000C417241AE40FF1E7012F0BD1F2882149B0
:103C4000112A11D8D2B2002A0ED02800FFF73AFF6D
:103C50000124E3E70400032FE0D1B378002B05D162
:103C6000F2881949032AEDD90A78EEE7022B06D12A
:103C7000B27916492800FFF74FFF0400CEE7012B69
:103C800002D1B2791249F5E7032BC7D1114B01A933
:103C90001868FFF7D4F9104B03A91868FFF7CFF99C
:103CA0000E4B05A91868FFF7CAF90D4B07A918684C
:103CB000FFF7C5F96B460533DC77B27901A9D9E77F
:103CC000780E0020297200001C72000010720000A3
:103CD000207200000CA0800040A0800044A0800062
:103CE00048A0800037B5050048780C000B2810D894
:103CF00001F02AF8061B0F310F484D7551546E71B3
:103D0000097801AA002906D1022311802800FFF7B3
:103D1000B5FE01203EBD00231380324B1B78012BE2
:103D200000D1137002230021F0E78A780023012AD2
:103D300009D16A4693802C4B1B78012B00D113715B
:103D4000022301AAEFE7274A1370284A93699B0BC5
:103D50009B039361DDE78C78012C07D1224B01AAEC
:103D60001C70234B1B7813702300DCE70020844277
:103D7000D0D11C4B01301D4A187093699B0B9B03DB
:103D80009361C7E728008978FFF716FCC1E7280090
:103D9000FFF736FFBEE70123164AC4E70B78002081
:103DA000DB06B7D12800FFF7C1FC2A200221A27848
:103DB000104BFF301A600D4A13681C5C21434A24E3
:103DC0001954FF34195D2938FF3801431955D4E7D8
:103DD0000123094AA7E78A78074B1A60B5E7002054
:103DE00098E7C0469A0E0020A20E00203013002053
:103DF000BB720000281300202C1300204B4BF7B59A
:103E00001C780700002C00D083E0494E33689B8B60
:103E10001B070ED521002000FFF738F93268102368
:103E20001100FF31887A03438B72424B1C600823D8
:103E3000938333689A8B52071FD504229A833E4A94
:103E40001378002B0AD01378013BDBB21370137880
:103E5000002B03D101211A2000F0FEFD374A137810
:103E6000002B0AD01378013BDBB213701378002BC0
:103E700003D10121192000F0EFFD3368FF331A7AD6
:103E8000D2061ED510221A72597930320A435A715D
:103E900060232B4938000A781A423BD1FFF722FFF2
:103EA0003368FF33002838D08022997952420A4380
:103EB0009A711A7A520604D540221A72597A0A4324
:103EC0005A72336800241D8C01239D43EDB2019387
:103ED000E1B2002D1DD02B002341019A134215D0D1
:103EE0002300326808335B01D318DA79D20702D491
:103EF000DB799B0707D5134BA200D058002810D0C0
:103F000003681B689847019BA3409D430134092C1B
:103F1000DED1F7BDFFF772FBC2E720210A4A91719B
:103F2000C7E73800FFF794FAEDE7C04625130020F5
:103F30003013002028130020990E0020980E002036
:103F4000641000207C0E0020FF50004110B5024894
:103F5000FFF754FF10BDC046780E0020014B024A07
:103F60001A60704730130020005000410120704754
:103F700010B50368014A1B6A984710BD130400007E
:103F80000300FC33D96F9A6F914203D0DB6FC018E6
:103F9000007D704701204042FBE710B50400006936
:103FA000FEF714FD22000023FC329367D3679E22A4
:103FB0009200A4186366A36610BDF0231B0119408C
:103FC000802306209B0099420AD00133FF33013041
:103FD000994205D0802300205B00994200D1053032
:103FE00070470F2001400020012903D00239481EEC
:103FF0008141481C70470000B923F0B5182785B0EF
:1040000002919B000400C05C3B0008214343324EF8
:104010001500F318595600F063FD304B0821E05CA1
:104020003B004343F318595600F05AFD2C4BE25C19
:104030000393022A09D11133E05CFF2805D008213F
:104040004743F719795600F04BFDBA27BF00E05DF2
:10405000FF2819D0012100F0CFFC1822E35D21498F
:104060005A43B356B618DB015818BB21890060507B
:104070001D4901225B18BC218900635071688A4088
:10408000BD21890062501A600122029B1100206943
:10409000FEF79CFE29002000FFF78FFF2900060095
:1040A0002000FFF79EFFF0221540303D6A42554147
:1040B00003003100206901220095FEF757FC0B4BED
:1040C0002069E25C039BE15CFEF76DFC2069FEF772
:1040D0008AFC05B0F0BDC0464C6D0000E502000052
:1040E000E70200001844004114440041E6020000C9
:1040F000AF2210B504000021520001F05CF923004A
:104100000022FC3320005A669A6610BDF7B51D00E8
:1041100008AB1B780400009309AB1B7816000193D1
:1041200000234360FA239B008360104B0F00083389
:1041300003601430FFF7DCFF20007D30FF30FFF715
:10414000D7FFB9239B002761E654094B009AE55439
:10415000084B2000E254019A074BE254BA22E93B93
:10416000FF3B9200A3541032A354FEBD3C720000EA
:10417000E5020000E6020000E70200000300FC3355
:10418000586E9B6EC01A01D55F30FF30704710B576
:10419000040020007D30FF30FFF7F0FF0028F8D149
:1041A0002069FEF72AFC10BD10B51430FFF7E6FFBA
:1041B00010BD0300FC33596E9A6E914205DB5A6EB6
:1041C000986E801A5E30FF307047986E5B6EC01A32
:1041D0000138F9E710B57D30FF30FFF7EAFF10BD79
:1041E00070B504000069FEF724FC002805D02069A2
:1041F000FEF72FFC2069FEF721FC2069FEF709FC81
:10420000002824D025002069FEF723FCAF21FC35CF
:104210000600A86F4900013000F026FEEB6F9942BE
:1042200003D0AB6FE3181E75A967BA239B00E35C4C
:10423000FF2B0CD020001430FFF7BBFF092806DC51
:10424000BB23BD229B009200E358A2581A6020694C
:10425000FEF7FAFB00281DD020007D30FF30FFF76D
:104260008DFF002825D09E239B00E618B26E736E4A
:104270009A421BD0BE22AF21B36EB06EE31852003B
:10428000013049009D5C00F0EFFDB1662069E9B2A4
:10429000FEF7E3FB2069FEF7C1FB002805D020698B
:1042A000FEF7C0FB2069FEF7B0FB70BD01256D4233
:1042B000ECE72069FEF7DDFBECE70000F7B5040052
:1042C00000690E00FEF7C0FB002847D1AF277F0032
:1042D0009E239B00E518686EAB6E39000130019398
:1042E00000F0C2FD019B994224D1EFF31083DB075C
:1042F0000ED4204B5B68DB05DA0D002BE8D0103ABA
:1043000053B212060DD49B081B4AC0339B009B5826
:104310002069FEF799FB0028DAD02000FFF760FF44
:10432000D6E70F221340083B144A9B089B009B18BA
:104330001B68EDE7AF21686E4900013000F094FD85
:10434000AB6E994205D0BE226B6E5200E3189E54AC
:1043500069662069FEF789FB0120FEBD20007D30E3
:10436000FF30FFF70BFF0028B0D131002069FEF7C6
:1043700074FBF1E700ED00E000E100E01CED00E07F
:1043800070B50500FC35EA6FAB6F04009A421DD092
:10439000AF21EB6F4900C318E86F1E7D013000F0BC
:1043A00063FDE967BA239B00E35CFF2B0CD0200080
:1043B0001430FFF7FEFE0A2806DDBC23BD229B0059
:1043C0009200E358A2581A60300070BD0126764270
:1043D000E8E7FEE7FEE70000034B10B51B68002B83
:1043E00000D0984710BDC046341400200F4A104832
:1043F000110010B50F4B824202D0934209D1130035
:10440000824209D100F0AEF800F082F8FEE710CB4E
:1044100010C18142FBD3F3E7074A8B42F2D000215F
:10442000064B9A42EED202C2FBE7C04600000020D3
:104430004003002060730000400300206C14002043
:1044400010B500F062F8002801D100F053F810BD5B
:10445000014B18607047C04634140020014B1868A7
:104460007047C04638140020F7B51348012284462F
:104470001249134C8E68636805689B0E13400192C5
:1044800088686268019F920E3A4067463F6893428F
:104490000ED1BD420CD186420AD35B19FA25486879
:1044A000AD00861B07486B437043000DC018FEBD6E
:1044B0003D0013000600E3E73814002010E000E0A0
:1044C00000ED00E05555000070B5041E11D0FFF757
:1044D000CBFFFA260500B60000F016F8FFF7C4FF80
:1044E000401BB042F8D3FA23013C9B00ED18002C8E
:1044F000F4D170BD10B5034A13680133136000F0A6
:104500005BFB10BD381400207047002070477047D7
:1045100010B500F0D7F800F003FFFFF7F8FF012017
:10452000FFF7D2FF094C2000FEF7B4FF2000FFF791
:1045300029F8FCF739F8FCF7FDF8FFF7E5FF044B25
:10454000002BF8D000E000BFF5E7C046780E002051
:104550000000000010B500F011FF10BD10B500F014
:1045600017FF10BD1E2270B5464847494368934364
:104570001C3A1343436008238C6923438B61434CEB
:10458000434B9C829C8A14439C82DC681442FCD07E
:104590000124404A14701578254203D055786DB235
:1045A000002DF8DB01249460547864B2002CFBDB0E
:1045B000394C5460547864B2002CFBDB8224E40153
:1045C0005480547864B2002CFBDB02249C840E34AB
:1045D000DD682542FCD0314CDC621024DD682542C8
:1045E000FCD09D8C2E4C2C439C841024DD682542ED
:1045F000FCD002249D8C80262C439C844024DD68C2
:104600003542FCD0DD682542F9D01024DD68254212
:10461000FCD000249460547864B2002CFBDB214C65
:104620005460547864B2002CFBDB1C6A1E4D2C4095
:1046300080251C621C6AAC431C62032393601B4BE5
:10464000536053785BB2002BFBDB0023FF240B721B
:10465000174A4B728B72CB72164B1A60164B174A65
:104660001B6811689A065B01C90E2340520F1202A3
:104670000B431343124A138580234268134343605C
:1046800070BDC04600400041000400400C06000020
:1046900000080040000C004001050100B905FF7D45
:1046A000040A000000070300FFFCFFFF03060100EF
:1046B000006CDC02A40200202460800020608000E6
:1046C00000400042FA212E4B10B51868890000F016
:1046D00045FB802301385B0498424FD229492A4A7E
:1046E0004860C020136A00061B021B0A03431362C2
:1046F00000238B6007330B608021136A09061B02BD
:104700001B0A0B431362FC22204B196A0A431A62EC
:10471000FF22196A12020A431A62A022196AD202FF
:104720000A431A621A4B1C005A7852B2002AFBDB69
:10473000184A5A80184B1A00597EC9090129FBD022
:10474000C821890099800521D970537EDB09012B8E
:10475000FBD0C02300205B011361907000F022F8B1
:1047600063785BB2002BFBDB0C4B0D4A6380D37983
:10477000DB09012BFBD04123537010BDFEE7C0467F
:10478000A402002010E000E000ED00E00004004082
:10479000000C00401E40000000400042214000008C
:1047A000004800421F4900B50B004A7ED209012A89
:1047B000FBD001380A282FD800F0C6FA1B2E2E2E67
:1047C0002E2E062E2E2411001A6917490A400F2199
:1047D0001A615A788A43110001220A4310E01A69CB
:1047E00011490A400F211A615A788A4311000322A5
:1047F000F3E71A690C490A400F211A615A788A4373
:104800005A7000BD1A6908490A400F211A615A7886
:104810008A4311000222E0E7F022196912050A43D7
:10482000F3E7C04600400042FFFFFFF01823434378
:10483000F0B5684A0E009B18D968040085B08A0755
:1048400018D50E2816D1644A1300D179C909012957
:10485000FBD0B605B60D1681DA79D209012AFBD054
:10486000022219780A431A70DA79D209012AFBD098
:1048700005B0F0BD0825594F294200D194E03A68AF
:10488000102A02D044D9103AD64012255D5FCB06DB
:1048900042D50421200000F023F92F12504BBA001A
:1048A000D458504BEDB2DA5D002A5CD10132DA55B2
:1048B00068460F324C4900F075FD6A467B009B5AF2
:1048C0008022D2011A43494B5A805A78D209012AD0
:1048D000FBD00222974223D9238893432380E37B92
:1048E000DB09FCD12288403313432380E37BDB09BF
:1048F000FCD10C35B6B26D002E53E37BDB09FCD145
:104900002288023313432380E37BDB09FCD1AFE72A
:104910001020821A9640B8E78B06A9D50521B9E781
:1049200023689343324A23601300A1681142FCD1EB
:104930000222E16B0A43E263A2681A42FCD11035FD
:10494000AD0065196E60A2681A42FCD1294A226442
:10495000A2681A42FCD1022221680A432260A2689E
:104960001A42FCD184E7022F07D90C35B6B26D008C
:104970002E53E37BDB09FCD17AE7022362791343F0
:1049800063711B4B1A00A1681942FCD11C35AD00A4
:104990002E51A3681342FCD1022321790B432371CA
:1049A000A3681342FCD163E70121200000F024F842
:1049B0003B68082B02D009D9083BDE4000217F2E3E
:1049C00000D90121200000F047F851E7EB1A9E4082
:1049D000F4E7C0464C6D000000480042A8020020E9
:1049E000100200203C14002070720000000C0040F7
:1049F000FF0F7F00FFFF0000182310B50824584365
:104A0000134A13181C57013412D001245B688256D4
:104A10009C4003290CD808000E49D2015218D31823
:104A2000403300F091F90210060B02211970546016
:104A300010BD0621197054609461F9E706211970C0
:104A400054605461F4E7422119709460F0E7C04665
:104A50004C6D0000004400411823F0B50824584371
:104A6000114A13181C5701341BD0012635005F680A
:104A70008356BD400D4ADB019A18906805420BD160
:104A80000C00601E8441D219403210783440033645
:104A9000A400B04320431070044A9B18002901D1A0
:104AA0005D61F0BD9D61FCE74C6D0000004400417C
:104AB000182310B50824434307490020CA18145787
:104AC000013408D05B560549DB015B18186A53684E
:104AD000D8400123184010BD4C6D00000044004137
:104AE000182370B5082643432A4AD518AE57340018
:104AF000013607D0072907DC00291DDA01314C42B5
:104B00004C416442200070BD0B00083BDBB2002426
:104B1000032BF7D8092903D12100FFF76DFFF1E737
:104B20000A2904D10839FFF767FF0024EAE70024C7
:104B30000B29E7D10A39F0E76C68012520009B5664
:104B4000C9B262082840DB012C4211D012480E3550
:104B50001B189A1830321078090128400143C9B255
:104B6000117041221B19403319780A431A70DCE78F
:104B70000F26094D5B199A18303215781B19B54369
:104B80002943117041224033197804000A431A70F6
:104B9000B8E7C0464C6D000000440041014B18606E
:104BA0007047C046AC0200200122024B52421A60FC
:104BB0007047C046AC020020164A10B51368591C55
:104BC00027D0013B1360002B23D172B68122124BF8
:104BD00092000433934213D3104A01211000147D34
:104BE0000C42FCD02021148BFF319B085B00214339
:104BF0001183D3610A4B13800123027D1A42FCD03A
:104C0000BFF34F8F074B084ADA60BFF34F8FC046A0
:104C1000FDE710BDAC020020000000000040004194
:104C200002A5FFFF00ED00E00400FA0570B50E00DC
:104C300000254468002C0BD02368310020005B68FD
:104C40009847002802DBE4682D18F3E701256D4240
:104C5000280070BD70B50D004468002C08D0236892
:104C6000290020009B689847002802D1E468F4E7F7
:104C7000200070BD70B50D004468002C08D023687A
:104C8000290020001B689847002802D1E468F4E757
:104C9000200070BD064A0123116810B50C000548BC
:104CA0001C40194203D1044944600180136010BDC7
:104CB00044140020481400200204000070B50400D1
:104CC000012320CC00212A782000134380222B705E
:104CD000520000F070FBAB78DB07FCD4AB789B078D
:104CE000F9D46C6270BD00001F22144B70B51B68B4
:104CF000590B9C0C9B0111405B0F22401F2900D1D6
:104D00001A391F2A00D1023A072B00D1043B1F2574
:104D100000688E01048D0A492A40214031430185F3
:104D2000018D14000A00AA4322430285028D190353
:104D3000044B13400B43038570BDC04624608000C4
:104D40003FF8FFFFFF8FFFFF02B47146490849009B
:104D5000095C49008E4402BC7047C04600224308EB
:104D60008B4274D303098B425FD3030A8B4244D333
:104D7000030B8B4228D3030C8B420DD3FF22090275
:104D800012BA030C8B4202D31212090265D0030B34
:104D90008B4219D300E0090AC30B8B4201D3CB032A
:104DA000C01A5241830B8B4201D38B03C01A52416C
:104DB000430B8B4201D34B03C01A5241030B8B426E
:104DC00001D30B03C01A5241C30A8B4201D3CB0259
:104DD000C01A5241830A8B4201D38B02C01A52413E
:104DE000430A8B4201D34B02C01A5241030A8B4241
:104DF00001D30B02C01A5241CDD2C3098B4201D359
:104E0000CB01C01A524183098B4201D38B01C01AD6
:104E1000524143098B4201D34B01C01A524103094D
:104E20008B4201D30B01C01A5241C3088B4201D3FC
:104E3000CB00C01A524183088B4201D38B00C01AA9
:104E4000524143088B4201D34B00C01A5241411AD0
:104E500000D20146524110467047FFE701B50020DD
:104E600000F0F0F802BDC0460029F7D076E77047A1
:104E700003460B437FD4002243088B4274D30309BB
:104E80008B425FD3030A8B4244D3030B8B4228D35C
:104E9000030C8B420DD3FF22090212BA030C8B4282
:104EA00002D31212090265D0030B8B4219D300E022
:104EB000090AC30B8B4201D3CB03C01A5241830BA7
:104EC0008B4201D38B03C01A5241430B8B4201D357
:104ED0004B03C01A5241030B8B4201D30B03C01A80
:104EE0005241C30A8B4201D3CB02C01A5241830AFA
:104EF0008B4201D38B02C01A5241430A8B4201D329
:104F00004B02C01A5241030A8B4201D30B02C01A52
:104F10005241CDD2C3098B4201D3CB01C01A5241B9
:104F200083098B4201D38B01C01A524143098B4242
:104F300001D34B01C01A524103098B4201D30B012B
:104F4000C01A5241C3088B4201D3CB00C01A524150
:104F500083088B4201D38B00C01A524143088B4215
:104F600001D34B00C01A5241411A00D201465241AE
:104F7000104670475DE0CA0F00D04942031000D3CD
:104F80004042534000229C4603098B422DD3030A22
:104F90008B4212D3FC22890112BA030A8B420CD332
:104FA000890192118B4208D3890192118B4204D35B
:104FB00089013AD0921100E08909C3098B4201D3DB
:104FC000CB01C01A524183098B4201D38B01C01A15
:104FD000524143098B4201D34B01C01A524103098C
:104FE0008B4201D30B01C01A5241C3088B4201D33B
:104FF000CB00C01A524183088B4201D38B00C01AE8
:105000005241D9D243088B4201D34B00C01A5241BE
:10501000411A00D20146634652415B10104601D34B
:105020004042002B00D54942704763465B1000D3D5
:10503000404201B5002000F005F802BD0029F8D07B
:1050400016E770477047C046002B11D1002A0FD1D8
:10505000002900D1002802D00021C943081C07B450
:10506000024802A14018029003BDC046D9FFFFFFCD
:1050700003B4684601B5029800F02EF8019B9E46E5
:1050800002B00CBC7047C046F0B515042D0C0F00E3
:1050900001002E00C64684460004140C000C090CC6
:1050A00046434D43604361434019340C241800B516
:1050B000A54203D98020400280464144250C6D184A
:1050C000614659437A43300449192404000C2018DE
:1050D000891804BC9046F0BDF0B557464E4645468B
:1050E000DE46E0B504000D009246994683B08B423F
:1050F00030D82DD04946504600F0D8F82900060097
:10510000200000F0D3F8331A9846203B9B4633D456
:105110005A465346934042461F00534693401E0052
:10512000AF423AD8AF4200D178E05B46A41BBD4104
:10513000002B00DA75E00022002300920193012386
:105140005A4693400193012342469340009328E03E
:105150008242CFD900220023009201930C9B002BA6
:1051600001D01C605D600098019903B03CBC904682
:105170009946A246AB46F0BD424620239B1A5246B2
:10518000DA40414613004A468A40170042461F4310
:10519000534693401E00AF42C4D900220023009220
:1051A00001934346002BD9D0FB0772081A434646A9
:1051B0007B080EE0AB4201D1A2420CD8A41A9D415B
:1051C000012024196D410021013E24184D41002E7B
:1051D00006D0AB42EED9013E24196D41002EF8D124
:1051E000009801995B4600196941002B24DB2B00D4
:1051F0005A464446D3402A00E2401C005B46150054
:10520000002B2ADB26009E40330026004746BE4086
:105210003200801A9941009001919FE7A342BCD8C7
:1052200083E74246202300219B1A0022009101922D
:105230000122DA40019286E7424620239B1A2A0087
:1052400046469A402300F340444613432A00E24076
:105250001C005B461500002BD4DA42462F002023A9
:10526000260097409B1ADE403B003343CDE7C04603
:105270001C2101231B04984201D3000C10391B0A86
:10528000984201D3000A08391B09984201D300094A
:10529000043902A2105C40187047C04604030202A1
:1052A00001010101000000000000000010B500290C
:1052B00003D1FFF7DDFF203002E0081CFFF7D8FF25
:1052C00010BDC04630B514001A00094B05001B681C
:1052D00085B0D868074B002C01D1074B1C00019307
:1052E00000912B000549029400F00AF800F026FD19
:1052F000B002002080720000BB7200008D720000BE
:105300000EB403B5010003AB044804CB006801935D
:1053100000F070F902B008BC03B01847B0020020DA
:1053200070B500260C4D0D4C641BA410A64209D18B
:10533000002601F0C7F80A4D0A4C641BA410A642CF
:1053400005D170BDB300EB5898470136EEE7B300C6
:10535000EB5898470136F2E71403002014030020AD
:10536000140300203003002010B5034B0A00010095
:10537000186800F073F810BDB002002010B5034BA0
:105380000100186800F0B0F810BDC046B00200205F
:1053900010B5034B0100186800F016F810BDC046A8
:1053A000B0020020002310B59A4200D110BDCC5CA1
:1053B000C4540133F8E703008218934200D17047C8
:1053C00019700133F9E7000070B50500002910D00D
:1053D0000C1F2368002B00DAE418280000F000FFFF
:1053E0001D4A1368002B05D163601460280000F08B
:1053F000FFFE70BDA34208D9216860188342F3D133
:1054000018685B6841182160EEE71A005B68002BA2
:1054100001D0A342F9D911685018A0420BD12068DD
:105420000918501811608342E0D118685B68411870
:1054300011605360DAE7A04202D90C232B60D5E754
:1054400021686018834203D118685B6841182160A5
:1054500063605460CAE7C04650140020F8B54B1E84
:1054600006000F001500194202D000242000F8BDEC
:10547000082900D20827042D00D20425032339006F
:1054800003359D4308393000491900F02DF80028F4
:10549000EBD004380368002B00DAC018F91C41185F
:1054A0007C420C40011D631A8C420AD0C7180B2B9A
:1054B00017D90268D21A3A6003603000FFF784FF00
:1054C00038002A0003680C32C118A2189142CDD9C5
:1054D00061190A1A9B1A0260300008C1FFF774FFB5
:1054E000C4E75B423B60ECE7F8B50323CD1C9D436A
:1054F000083506000C2D1FD20C25A9421ED83000FD
:1055000000F06EFE25490A681400002C1AD1244FC1
:105510003B68002B04D12100300000F027FB3860ED
:105520002900300000F022FB431C2BD10C2330005B
:10553000336000F05DFE03E0002DDEDA0C23336003
:105540000020F8BD23685B1B19D40B2B03D9236003
:10555000E418256003E06368A2420ED10B603000BE
:1055600000F046FE200007220B30231D9043C21A94
:105570009842E6D01B1AA350E3E75360EFE72200FE
:105580006468C2E70323C41C9C43A042E1D0211AF3
:10559000300000F0EBFA431CDBD1C7E750140020C9
:1055A00054140020936810B5013B9360002B04DA7B
:1055B0009469A34207DB0A2905D01368581C1060C0
:1055C0001970080010BD00F0EBFA0100F9E7F8B51A
:1055D00006000F001400D518AC4201D1002007E0EE
:1055E00021783A003000FFF7DDFF0134431CF3D18E
:1055F000F8BD0000F0B5A1B006000C001F0003923A
:10560000002804D08369002B01D100F0CDFC8E4B23
:105610009C421CD17468636EDB0705D4A3899B058B
:1056200002D4A06D00F061FDA3891B0702D5236998
:10563000002B1DD12100300000F008FB002817D0FE
:10564000636EDB070DD50120404221B0F0BD7F4BDA
:105650009C4201D1B468DEE77D4B9C42DBD1F4680B
:10566000D9E7A3899B05EED4A06D00F03FFDEAE7E2
:10567000002308AD6B6120336B761033AB76079750
:10568000039F3B78002B01D0252B4ED1039BFB1AA7
:105690000593039B9F420DD0059B21003000039A88
:1056A000FFF795FF431C00D1B5E06A69059B94465E
:1056B00063446B613B78002B00D1ACE001227B1C82
:1056C0000393002352426A6004A9543252182B609B
:1056D000EB60AB601370AB65039B052219785D48E6
:1056E00000F072FD039B5F1C002820D12A68D306BE
:1056F00004D5532304A95B1820211970130704D57E
:10570000532304A95B182B211970039B1B782A2BA8
:1057100016D00021EB68039F3A78781C303A844613
:10572000092A4FD9002911D117E00137A9E7494BC0
:105730002A68C01A0123834013432B600397CBE7E9
:10574000079B191D1B680791002B01DB0B9304E0DD
:105750005B42EB60022313432B603B782E2B0AD174
:105760007B782A2B37D1079B02371A1D1B680792BB
:10577000002B2DDB099303223978374800F024FDF4
:10578000002807D0344B2A68C01A402383401343B3
:1057900001372B6039787B1C062230480393297629
:1057A00000F012FD002845D02D4B002B27D10722F9
:1057B000079B07339343083307936B69049A9B183D
:1057C0006B615DE70A214B4367469B180939A3E7E4
:1057D00001235B42CEE700231A0001376B60397862
:1057E000781C30398446092903D9002BC3D009928B
:1057F000C1E70A235A4367465218093BEFE707AB54
:105800000093220029003000164B00E000BF0490F6
:10581000049B0133D1D1636EDB0705D4A3899B05BB
:1058200002D4A06D00F062FCA3895B0600D50AE7F4
:105830000D980AE707AB0093220029003000094BBE
:1058400000F082F8E3E7C0461473000034730000F0
:10585000F4720000C0720000C6720000CA7200003C
:1058600000000000CF550000F7B5150001938A68CD
:105870000B690C000090934200DA130022002B60A9
:1058800043321278002A01D001332B6023689B0633
:1058900002D52B6802332B602268062317001F40B5
:1058A0001A4227D0230043331B785A1E93412268A3
:1058B000920630D4220001990098089E4332B047E6
:1058C000431C25D0062320682A68E1680025034090
:1058D000042B03D18D1AEB43DB171D40A36822690B
:1058E000934201DD9B1AED180027BD4220D1002014
:1058F00010E00137E3682A689B1ABB42D2DD220020
:10590000012301990098089E1932B047431CF0D139
:1059100001204042FEBD3020E118433108702100D3
:105920005A1C45310978A218433202331170C1E77D
:105930002200012301990098089E1A32B047431CA7
:10594000E6D00137D1E70000F0B58BB006920A002F
:1059500043320793059004920A7E0C00109B782A2C
:1059600006D8622A08D8002A00D1C0E0582A52D0AE
:1059700026004236327022E0100063381528F7D82E
:1059800000F046FD16001F00F6FFF6FFF6FFF6FFDB
:105990001F00F6FFF6FFF6FFF6FFA80036009A009C
:1059A000F6FFF6FFB900F6FF3600F6FFF6FF9E00A1
:1059B00026001A684236111D1960136833700123DE
:1059C000A7E0086819680A1D05060BD50D681A605E
:1059D000002D03DA2D23049A6D421370614B0A27C0
:1059E000039332E00D681A604106F1D52DB2EFE75E
:1059F0000D681968081D18602E0601D50D6803E0B2
:105A00006D06FBD50D68ADB2564B0A2703936F2A7E
:105A100017D1082715E045310A70524A03921A68D7
:105A2000216820CA1A60080650D5CB0702D520236A
:105A3000194321601027002D03D1202322689A43A7
:105A400022602300002243331A706368A360002B96
:105A500003DB0422216891432160002D02D1049EC2
:105A6000002B0CD0049E28003900FFF7FDF9039BA2
:105A7000013E5B5C33702B0005009F42F3D9082F79
:105A800009D12368DB0706D563682269934202DCEB
:105A90003023013E3370049B9B1B2361079B210035
:105AA00000930598069B09AAFFF7DEFE431C35D13B
:105AB000012040420BB0F0BD202209680A43226059
:105AC0002200782145321170274AA7E74806ACD555
:105AD000ADB2AAE71A680D68101D4969186013680D
