:1000000000800020994000008140000081400000F5
:1000100000000000000000000000000000000000E0
:10002000000000000000000000000000814000000F
:10003000000000000000000081400000ED400000D2
:1000400081400000814000008140000081400000AC
:100050008140000081400000C11800008540000080
:1000600081400000D1240000814000008140000058
:10007000950D000081400000E12400008140000057
:10008000814000008140000081400000814000006C
:10009000000000008140000081400000814000001D
:1000A000814000008140000081400000814000004C
:1000B0000000000010B5064C2378002B07D1054B3B
:1000C000002B02D0044800E000BF0123237010BDC4
:1000D000400200200000000074680000044B10B5CE
:1000E000002B03D00349044800E000BF10BDC04608
:1000F00000000000440200207468000010B5084CA5
:1001000001233C220221200002F090F8200002F09E
:1001100019F8200002F076F9024B636110BDC04669
:100120005C02002001000100974AF8B51168012324
:1001300008001840194202D1944913608870944A0B
:100140000123116808001840194202D19149136037
:100150008870914A0123116808001840194202D1A1
:100160008E49136088708E4A012311680800184078
:10017000194202D18B49136088708B4A01231168A0
:1001800008001840194202D1884913608870884AD3
:100190000123116808001840194202D185491360F3
:1001A0008870854D2F78002F23D00021774800F0EC
:1001B0003FFC0B24002801D000232B707F4D2E78AC
:1001C000002E5BD00021734800F032FC002801D0E3
:1001D00000232B707A4D2E78002E00D193E0002161
:1001E0006E4800F025FC002801D000232B70200071
:1001F000F8BD032004F0CEF903005A1E9341714A62
:10020000714E1370002821D13178664C00290BD033
:1002100032215E4800F0FEFB012320006B492B7069
:1002200000F0F8FB0B240DE0200000F001FC00289A
:10023000F8D0FA210122664B200049001A700424EC
:1002400000F0E8FB5F4B1B783370B7E73378614C05
:10025000002B07D132214D4800F0DCFB01232B702D
:100260002370DFE72378002BDCD0594B27701A78F6
:100270000924002AE6D01F700234E3E7042004F0CA
:1002800089F903005A1E9341534A1370534B0028B7
:1002900021D11978454E00290ED032213D4800F079
:1002A000B9FB0123300049492B7000F0B3FB4A4BE6
:1002B0004A4A1B7813708DE7300000F0B9FB002824
:1002C000F5D0FA210122464B300049001A7005246E
:1002D00000F0A0FBEBE71B78424F002B07D1322147
:1002E0002C4800F097FB01232B703B70DFE73B7835
:1002F000002BDCD03A4B3E701A78002A01D01E70D9
:10030000D5E70A24D3E7072004F044F903005A1E76
:100310009341354A1370354B00281DD11978254E6D
:1003200000290ED032211D4800F074FB012327491B
:100330002B70300000F06EFB2B4B2C4A1B78137097
:1003400055E7300000F074FB0028F5D00124FA21B5
:10035000274B49001C70ECE71B78264F002B07D178
:1003600032210E4800F056FB01232B703B70E3E76F
:100370003B78002BE0D01E4B3E701A78002A01D04B
:100380001E70D9E70624D7E788020020A6020020C5
:1003900090020020B002002098020020BA02002043
:1003A0008C020020AA02002094020020B602002045
:1003B0009C020020C0020020A2020020A402002013
:1003C000A502002000000020030000201A04000005
:1003D000AE020020A0020020010000200400002046
:1003E000B4020020A102002002000020050000202D
:1003F000BE020020A30200207047000010B50021BB
:10040000034801F083FE0022024B9A7010BDC046E3
:100410005C020020C6020020E121F0B5D54C89B075
:100420002000090203F0F6FB2000D34902F0E0F8B7
:100430000221072004F052F80221032004F04EF8B4
:100440000221042004F04AF80121080004F046F8D3
:10045000CA4800F063FB01210025022401260800A0
:1004600004F06CF8FFF74AFEC54F380001F06AFE51
:100470000221380001F039F8C24B3D617B612A004E
:100480001B232900380002940195009600F0A4FF78
:1004900041232A001C21380002940195009600F0A7
:1004A0009BFF1A232A0034213800029401950096FC
:1004B00000F092FF380001F0A5FF1022B24B1D8022
:1004C000B24B1A80AF4B0793B14B1B78002B00D077
:1004D00002E2B04D2B880B2B2CD1FFF725FEFA2121
:1004E00028804900AC4800F0A3FA0028F1D0AB4BBB
:1004F000AB4D0021595EA54B00229A5E2B78002B54
:100500000FD0002301260193009616333800029481
:1005100000F062FF2B785E402E70380001F072FF11
:10052000D7E701202870009002943800019300F072
:1005300053FFF2E7092B01D0042B31D1994A9A4E8F
:1005400012883378013A0021934201D00133D9B2A5
:10055000317000250E232A00009310211633380035
:10056000019500F0EDFC3378904AD35C112B11D14A
:1005700010238F493B61380002F02DF88D4B1B781A
:10058000002B34D1380001F03DFFFFF7CDFD814B4A
:10059000188099E7FA2B13D1102387493B61EAE7CA
:1005A0000A2B01D0052B15D17F4E3278531EDBB2BA
:1005B000002A03D17B4B1B88013BDBB23370C8E7B9
:1005C00001221C21009238002A000294019500F0BB
:1005D00003FFD3E7062B01D0012BCFD1724B734A17
:1005E0001B78D25CFA2A4CD1724BF93A1A70002669
:1005F0000125380001F0A6FD5923320031003800F2
:1006000002940196009500F0E7FE2F2332001A2194
:10061000380002940196009500F0DEFE4E23320071
:100620003421380002940196009500F0D5FE05961D
:100630000695604E3378002BA4D0FFF775FD554B1F
:1006400080B21880092801D0042877D10025069BA4
:10065000102229003800009302942B00019500F02D
:10066000BBFE069B1022009334211823380002940D
:10067000019500F0B1FE01230593380001F0C2FEA0
:10068000D7E74E4B1B88112A31D1002B07D0002110
:100690004B4AD218013A1170013B484A138010218D
:1006A00000250A00402300913800019500F048FC25
:1006B000424B354A198804291DD81580324E002333
:1006C000F15E3E4B1B88AB4233DD304A3C4B002091
:1006D000125E0020EB5C0190013000900294380023
:1006E00000F07AFE338801350C333380E6E7344975
:1006F000CA540133D1E70C235B424B43343313809C
:10070000214E0023F15E2D4B1B88AB4211DD1F4AA9
:100710002B4B0020125E0020EB5C0190013000901A
:100720000294380000F058FE338801350C333380D2
:10073000E6E7154B1A88194B1A801FE70A2801D0E3
:1007400005283FD10025069B102229003800009380
:1007500002941823019500F03FFE069B102200939F
:1007600034212B0038000294019500F035FE02235D
:1007700082E7C046680A00207C5B0000F00200208F
:100780005C02002001000100CC020020D002002009
:10079000D202002022000020C6020020CE0200204B
:1007A0002600002024000020CA02002006000020AD
:1007B000855B0000C4020020895B0000EC02002081
:1007C000D3020020062802D0012800D055E7059B5F
:1007D000022B05D1864B069A1A70002333704CE722
:1007E000059B0025012B75D13800357001F0AAFC5E
:1007F0002100380000F079FE079B3D617B61059B7D
:100800002A0029003800009302941B23019500F070
:10081000E3FD059B2A001C2138000093029441232C
:10082000019500F0D9FD059B2A0034213800009382
:1008300002941A23019500F0CFFD380001F0E2FD8B
:10084000102140230A0000913800019500F078FB48
:10085000684B694A1988042919D81580664E002307
:10086000F15E644B1B88AB422FDD644A644B002071
:10087000125E0020EB5C0190069802940090380014
:1008800000F0AAFD338801350C333380E6E70C23F2
:100890005B424B4334331380574E0023F15E554B7C
:1008A0001B88AB4211DD554A554B0020125E0020DB
:1008B000EB5C0190069802940090380000F08CFDEB
:1008C000338801350C333380E6E74B4B1A884D4BA8
:1008D0001A80D2E60595D0E60024380001F032FCFB
:1008E000494938003C6101F076FE424B47481A887E
:1008F0000C2353439BB21900403909B20180A14235
:1009000020DA02263C4B1C803A4B1B88A34214DDA4
:10091000394D3A4A3A4B0021525E0020295E0020B0
:10092000E35C0190013000900296380000F054FD25
:100930002B8801340C332B80E6E7380001F062FD90
:1009400009B0F0BD14002E4988180138013C02D3CB
:1009500006784671F9E75700C81949000D000524CB
:100960000026391A013C06714E550138002CF8D189
:10097000042620490A320A80244A3833138000248E
:100980000321224B00229A5ED3170B409B189B1029
:100990000133A34227DB042300255B426343164A4D
:1009A0001380144B1B88AB4215DD134F134A144BB5
:1009B0000021525E0020395E0220EB5C0290002094
:1009C000019001300090124800F006FD3B8801358F
:1009D0000C333B80E5E70E4801F014FD642003F082
:1009E000C9FB0134CCE7013E002EC8D1A8E7C046C0
:1009F000D2020020EC020020CC020020D002002015
:100A0000D3020020CE0200208D5B0000EE02002009
:100A10005C0200200B005A1E934170B505000C1EAD
:100A2000837004D003F070FB013C2018288070BD57
:100A300070B5847805000E00002C0AD0048803F0FD
:100A400063FB074B201A80B20024984205D940422C
:100A5000C4B231002800FFF7DDFF200070BDC046A2
:100A600060EA000000207047F8B505000E0017008E
:100A70000024BC4208D02B68315D1B6828009847D1
:100A8000002801D00134F4E72000F8BD70470300CE
:100A9000FC33196ADA69914203D01B6AC018007EE0
:100AA000704701204042FBE70300FC33D8691B6A12
:100AB000C01A01D50130FF3070470000F7B501932F
:100AC000FA238026002504009B008360124B7600E9
:100AD00008330F004560290000920360320018308F
:100AE00003F0B9FF23002000FC332130DD61320028
:100AF0001D622900FF3003F0AEFF87239B00E3183F
:100B00005D609D606B461B78276123756B461B7982
:100B1000A57520006375FEBD945B000070B50600EE
:100B200018250C49006901F0FDFF306901F04EFE07
:100B30002B000821307D084C4343E318595603F03D
:100B400041FD0821707D45436419615603F03AFD6B
:100B500070BDC046A08601007862000070B5040038
:100B60000D00006901F047FE2900206901F0DAFF5D
:100B7000206901F02BFE70BD8A2300229B00C15426
:100B80000C3BC3185A609A600123837570470200BA
:100B900010B5FC32536894680133DBB29C4202D03A
:100BA00054680155536010BD002210B5837D9342F7
:100BB0000DD087239B00C4186368A4680133DBB29F
:100BC000A34204D02130FF30FFF7E1FF01221000E3
:100BD00010BD0300FC3399685A68914206D09A68A8
:100BE000805C9A680132D2B29A607047012040421C
:100BF000FBE700228A2370B59B00827505000E007A
:100C0000C15C006901F02AFE002806D10321286991
:100C100001F00EFE0224200070BD872328009B00F7
:100C2000EA18536894682130FF301C1B01D5013449
:100C3000FF34002C0ED02C69FFF7CBFFC1B220008F
:100C400001F04AFE0028E8D10321286901F0F0FDF7
:100C50000324E0E7002EDED00321286901F0E8FD3F
:100C6000D9E710B50121FFF7C4FF10BD10B518304A
:100C7000FFF7AFFF10BD70B50400006901F04CFE36
:100C8000002814D0206901F055FE002810D02069FA
:100C900001F0C4FD0321206901F0CAFD8C239B00F3
:100CA000E558002D39D10023FC34E361236270BD87
:100CB000206901F049FE002809D0206901F03FFEBB
:100CC000002804D0206901F044FE0028DFD020690C
:100CD00001F03AFE002826D1206901F026FE002806
:100CE000E5D0206901F035FE002837D087239B002E
:100CF000E218536892689B1A01D50133FF33FF2134
:100D0000002B05D020002130FF30FFF762FFC1B279
:100D1000206901F0F3FDA075C9E7236820001B6975
:100D20009847A847BFE7206901F078FD20690321B3
:100D300001F07EFD206901F00CFE0028B7D087236A
:100D400000229B00E3185A609A600123A3758B234D
:100D50009B00E3589342AAD09847A8E72200FC32B0
:100D6000D369126A0133DBB22069934206D101F0E4
:100D70004CFD0321206901F05BFD98E701F0EEFDD9
:100D8000010020001830FFF702FF206901F046FD46
:100D9000EFE7000010B50248FFF76DFF10BDC04639
:100DA000F002002010B51523142202490248FFF773
:100DB00085FE10BD700D0020F00200207047F0B5D8
:100DC00015000C001E0089B00EAB00229B5E0FAA1E
:100DD0001288019005925A1BD11752184A4002926C
:100DE000321BD11752184A4003920399029A8A4241
:100DF00005DD32001E00130022002C001500B44255
:100E000005DD2A001D001300220034001600321BED
:100E100091B20691591BC8170918414012B20791A7
:100E2000D10F8A1852100092012204929D4202DBD7
:100E300001235B420493B44222DC019B039A1B68AA
:100E40009B691F00029B934216DD22002900059B2F
:100E50000198B847009B079A9A1A11B293B2009171
:100E6000120406D5049AAD18069A2DB2D3181BB2F7
:100E70000093013424B2DEE72A002100059BE7E756
:100E800009B0F0BD704710B504682469A04710BDD3
:100E900037B506AC258804680095A46BA04737BD1C
:100EA00037B506AC258804680095E46BA04737BDCC
:100EB00073B506AC0025655F07AC2688046801960B
:100EC0000095246CA04773BDF0B5160004000D001A
:100ED00085B003930AAB1F8803685B699847039B3F
:100EE0002268013B9B191BB2009301972B0029003C
:100EF0002000976A3200B84723682000DB6A9847D1
:100F000005B0F0BDF0B505001C000E00170085B05F
:100F10000AAB1B88013C03930368A4195B699847DB
:100F200003992A68019100973100280023B2946A3E
:100F30003A00A0472B682800DB6A984705B0F0BD4F
:100F4000F0B50E0087B003930CAB029200229B5EBB
:100F5000040004930DAB1B883500059303685B699F
:100F60009847039A2368B21895420BDA059A29002C
:100F700000921B6A20001F00029A049B0135B847AB
:100F80002DB2EEE72000DB6A984707B0F0BD13B53D
:100F900001910E24015F0C22835E02680091146CA3
:100FA00000221100A04713BDF0B5040015000E008B
:100FB00087B004930CAB00229B5E05930DAB1B889E
:100FC000039303685B699847039A23680092310092
:100FD0002A0020005F6A049BB847059B03995A1EAC
:100FE000236800915219310020005F6A12B2049BFD
:100FF000B847039A2368009231002A0020001F6A34
:10100000059BB8470499039A23680139009289190E
:101010002A0020001F6A09B2059BB84723682000F8
:10102000DB6A984707B0F0BD7047F0B585B0029312
:101030000AAB0027DF5F0BAB1B8816000393029BF4
:1010400004000D000268994210D1BE4202DD330057
:101050003E001F00039901370091BB1B976B1BB229
:10106000320029002000B84705B0F0BDBE420CD1C7
:10107000029B994201DD029D0291029B039901337B
:101080005B1B0091D76B1BB2EAE753699847039A41
:1010900023680192009720009F6A3200029B29007A
:1010A000B84723682000DB6A9847DDE703230B403D
:1010B00010B583760822835E0A24025FC90702D432
:1010C0008381C28110BD8281C381FBE74281C281DD
:1010D0000122002310B55242064C4261064A0834F0
:1010E000436004600181818103618261037703624F
:1010F00010BDC046B860000001010001F0B595B018
:101100001D001AAB1B88049205931BAB1E881CABF9
:101110001B78026A02931DAB1B78040008910393AD
:10112000002A00D0C4E00C22835E8B4200DC7DE00C
:101130000E22835E049A934278DD0623029A53437B
:101140005B18002B72DD039B049ADB009B18002BBD
:101150006CDD037F002B03D1AF2D01D90135EDB23A
:10116000236820005B6998470522002355430793B5
:10117000984B0B925B190F93079A0F9B9B5C0A93FA
:101180006B469B8B09936B461B89099A0E936B46A2
:101190001F8C029B5343FB181BB20D9308230C9327
:1011A0000023069301220A9B2068134252D06B460B
:1011B0001A8B198A029B012B3AD1039B012B37D141
:1011C000099B52188569D919059B12B209B22000F2
:1011D000A847069B01335BB206930A9B5B080A9300
:1011E0000C9B013BDBB20C93002BDBD1079B013343
:1011F0005BB207930B9B013BDBB20B93002BBBD184
:10120000059BB3420ED0029B2268012B3FD1039B6A
:10121000012B3CD105370096156A2000049A39B29B
:101220000733A84723682000DB6A984715B0F0BD54
:101230006B4608255B5F039D6A438A18059912B2C5
:10124000019169460C25495F0091C5690D992000FF
:10125000A847BEE7059BB342BBD06B461A8B198AE1
:10126000029B012B0AD1039B012B07D1099B52182A
:10127000D9198569330012B209B2A8E76B4608256F
:101280005B5F039D01966A438A1812B2D9E76B46E9
:1012900008215B5E05210E98019641430398791859
:1012A000C0000090D5692000049A09B2A847B9E7A8
:1012B000137A5168ED1A1268EDB2ED0013924A5B91
:1012C0004B1909929A780D92DA78119205229A5662
:1012D0009B790E925BB20F93029B012B02D8039B6A
:1012E000012B56D96B4638229B5E0B936B463C22F2
:1012F0009B5E0C930027236820005B699847079743
:101300000697119B069A9A4200D38BE76B461B8A7D
:1013100000260A930C9B9B18039A53430A9AD318EE
:101320001BB210933B000D9A96424BD25A1CD2B27C
:1013300012920722134207D1099B0999139A01338C
:10134000525C9BB2079209936B461B7F5BB2002BEA
:1013500017DA6B46198C029B2068012B1DD1039B69
:10136000012B1AD10A9B0F9A9A18069BD2180E9B32
:1013700012B2C918836989191D002000059B09B2A2
:10138000A847079B01365B00DBB20793F6B2129BBE
:10139000C9E700230C930B93ACE76B4608229B5ED6
:1013A0000B9A029D92196A438918059A09B2019213
:1013B0006A460C25525F0092C26920001500109AFF
:1013C000A847DEE7069D0D9B0135FF18EBB2FFB283
:1013D000069396E7B85B00007FB508AC258809AC9A
:1013E00026880AAC24780196009503940294FFF7AE
:1013F00085FE7FBDF0B5026A04000D0085B0002AAD
:101400002CD10A2908D1437E0282DB00628A9B1814
:101410006382012005B0F0BD0D29FAD01223C25E0F
:101420001023C15E437E0393037E0293C38A01931C
:10143000838A00932B00FFF761FE227E238A312DE1
:1014400008D1042A02D113332382E2E7032A01D10F
:101450000E33F9E706214A439B18F5E70A2905D11F
:1014600000230382127B437E5343CFE70D29D0D064
:10147000137A9942CDD3917AA942CAD3EB1A516813
:10148000DBB2DB00CE18B178002929D0F378002B2D
:1014900026D0E37E007E677E002B13D00523F35613
:1014A0005B1843439C461023E15E8C440C23E15EB1
:1014B0008C4507DD1223E15E00232382137B7B43EF
:1014C0005B1863821223E25E1023E15EE38A0290DE
:1014D0000193A38A2000009303972B00FFF70EFED1
:1014E000227E33795343228AB6E70B1C002900D1B0
:1014F00001230376437670470378034A9B009B5889
:10150000002249331A70704778050020F0B50400B6
:1015100085B01E000AAB1B78103001930BAB1B7813
:10152000170002930CAB1B780D00039300F096F9A3
:101530002000243000F092F9220000234832A363F7
:10154000E363236463641370537063729D4205D137
:101550000A4B0B4A22210B4803F004FA6B461B7915
:10156000200063716B461B7A2560E3716B461B7B21
:101570002771A671237205B0F0BDC0465861000006
:10158000CB6100006961000030B5040085B002AD98
:1015900000680291039201F0D5F86B79227AE17923
:1015A00000932068002301F093FA2979029A2068B9
:1015B00001F0ECF8206801F0BBF805B030BD000088
:1015C00007B5837A00910192002B07D09A070AD5BC
:1015D000EFF310835A425341C37272B60099019AD5
:1015E000FFF7D2FF07BDDB07F8D5C368014A9BB2FE
:1015F0009360F3E70018004010B5006801F0ABF805
:1016000010BD000010B5006801F0B6F90023984243
:1016100003DB0C335843024BC358180010BDC046BF
:101620001061000010B5006801F0A6F9002805DB84
:101630000C2343430348C018406810BD01204042BA
:10164000FBE7C0461061000010B5006801F094F996
:10165000002805DB0C2343430348C018806810BDF5
:1016600001204042FBE7C04610610000F0B50600D3
:10167000103689B00500300000F046F9002869D125
:101680002F002437380000F03FF9041E5FD12800F6
:10169000FFF7DAFFC1B2300000F016FA0221300085
:1016A00000F036FA2C490122300000F009FA2B7CB8
:1016B0002A4A9B0028009D50FFF7B4FFC1B23800B2
:1016C00000F002FA0221380000F022FA6B1DDB7FE5
:1016D000224A9B0028009D50FFF794FF0123010040
:1016E0002200029304942300039401940094300098
:1016F00000F032FAA8632800FFF784FF01230200FC
:101700000193210023000494039402940094380070
:1017100000F022FAE863402003F080F92A00483202
:101720002864079200280BD00123137068646B6C47
:1017300010221819E96B103403F084F9402CF6D10B
:10174000079B1B78002B05D1380000F077F930009B
:1017500000F074F909B0F0BDF9140000780500201C
:1017600070B5437A0400002B04D18372C372C36046
:1017700001334372230048331B78002B02D1200031
:10178000FFF774FF18263300082120790D4D4343DD
:10179000EB18595602F016FF33000821A079434395
:1017A000EB18595602F00EFF082160794643AD1937
:1017B000695602F007FF044B200006CBFFF7E4FE5A
:1017C00070BDC04678620000700500201FB5094A50
:1017D000094B0A49136000235371137102930133BB
:1017E000019316330093162201330548FFF78EFE4E
:1017F00005B000BD7005002000093D00740D0020FB
:1018000024050020084B1968002909D1EFF3108046
:10181000064A002803D172B6BFF35F8F0131117001
:101820001A6801321A607047380700203407002018
:10183000084B1A68002A0CD01A68013A1A601B6813
:10184000002B06D1044B1B78002B02D0BFF35F8F17
:1018500062B670473807002034070020FF2310B518
:101860000370C023002104009B00417041808380ED
:101870000C22083003F0EFF8200010BD01230A000D
:1018800010B51A40194208D00C4A13700333437044
:101890008368002B00D0984710BD0223194204D062
:1018A00006490B70C3684270F3E704231942F3D072
:1018B000024A1370033343700369EAE74E4800415C
:1018C00010B5FFF79FFF0C4B1B8C1B071B0F0B2B3F
:1018D0000FD80A4A9900885800280AD00F240849CE
:1018E0000A78A24313430B70064B1978C9B2FFF76D
:1018F000C5FFFFF79DFF10BD004800413C070020D9
:101900003F4800414E480041F8B5002302780500E9
:1019100018000B2A77D93C4E2B702B780B2B07D84D
:1019200001229A403168114204D001332B70F4E750
:10193000012068E0FFF766FF3768344C002F2BD199
:101940002022334B334859690A435A611022D9691E
:101950000A43DA61022223883900934323802388D3
:10196000013A134323802C4B6063BF32A36303F01F
:1019700072F8C0223900284803F06DF84022C120D7
:10198000264B80002380264B26491A601A581140A6
:10199000C02212040A431A5001231A002978306821
:1019A0008A40024332600F261F4A880085501F4834
:1019B00031400278B2430A43027002201C4A117877
:1019C00081431170117819431170297822698B4075
:1019D0009A43226160223F21636C934363642A79B6
:1019E000636C0A40134912020B40032113436364E2
:1019F0006A79636C0A40104992050B401343636493
:101A0000FFF716FF0020F8BD300700200048004116
:101A10000004004070060020B0050020020F000006
:101A200000E100E0FFFF00FF3C0700203F480041CD
:101A300040480041FFC0FFFFFFFF3FFF70B50500BA
:101A4000FFF7E0FE6B785CB2062B2BD02B780224DC
:101A50000B2B27D801229A40144B1968114221D030
:101A60001968914319601B68002B14D14022104B58
:101A7000DA67BFF34F8FBFF36F8F21000D4A0E312E
:101A80001388A34313800C4BDA698A43DA615A69DD
:101A900010318A435A6100242B78084A9B009C50DD
:101AA000FF232B70FFF7C4FE200070BD300700201D
:101AB00004E100E000480041000400403C07002031
:101AC0000232920011507047037870B505000C0087
:101AD00001710B2B14D8FFF795FE29780F250948C3
:101AE00029400378084AAB430B4303703F23516CF2
:101AF0001C40064B240219400C435464FFF798FE27
:101B000070BDC0463F48004100480041FFC0FFFF94
:101B1000037870B505000C0041710B2B14D8FFF74A
:101B200071FE29780F25094829400378084AAB43FC
:101B30000B4303700323516C1C40064BA405194052
:101B40000C435464FFF774FE70BDC0463F4800412B
:101B500000480041FFFF3FFFF0B587B001930CAB99
:101B60001E780DAB1B78050002930EAB1B78007836
:101B7000039310AB1F78049105920B2802D9002023
:101B800007B0F0BD6B78062BF9D0AB78002B00D1F5
:101B900079E01021080002F037FF0028EFD02B7801
:101BA0003B4A1B019B181A00D168002904D0D16858
:101BB0008B4201D0D268F7E7D06001220223AA70DD
:101BC000964203D0DB18022E00D0130006240188B1
:101BD000114301800188A143018001881234A1438F
:101BE0000180153C018826402A4C360221400E43D4
:101BF0000680029E0188284C16402140B6020E4302
:101C00000680039E0188254C16402140F6020E43B3
:101C100006800188224E3A40314012030A430721D0
:101C200002800F9A114002884903D204D20C0A4361
:101C300002806A4692884280049A4260029A002A90
:101C400008D0019A41685A43002F01D00F9CA2404E
:101C50008A184260059A8260039A002A09D0019A84
:101C600084685A431300002F01D10F9A9340E31860
:101C700083600023EA789A4203D02B78044A1B0140
:101C80009B18C3607CE7024B0001C01895E7C04673
:101C900070060020FFFCFFFFFFFBFFFFFFF7FFFFC9
:101CA000FFEFFFFFF0B5150005AA1488827E022A17
:101CB00000D16BE0032A00D19FE0012A00D06DE043
:101CC000EA430589AD182DB2002D5EDB0826825F40
:101CD000AA425ADD002902DA5B1800211BB20A224F
:101CE000825EC818904201DD531A1BB2002B4CDDF6
:101CF000C8B2C2085E499201521952180725010064
:101D0000DBB2294028421CD008205A4D401AC0B2EC
:101D10002D5C834200D3A3E0FF26C71A3E41354025
:101D2000012C00D16EE0022C00D16FE0002C2CD1F0
:101D30001678AE431670834227D308395B18DBB29E
:101D40004032072B14D9022C63D1100019000578FA
:101D50000839ED43C9B2057040300729F7D819009A
:101D60000839C9B2C90801318901521807210B404D
:101D7000002B0AD04049CB5C012C58D0022C5AD001
:101D8000002C02D1117899431170F0BDEA434589C6
:101D9000C918AD1802892DB2511A09B2002DF4DB11
:101DA0000A26825FAA42F0DD002902DA5B180021D0
:101DB0001BB20822825EC818904201DD531A1BB282
:101DC000002BE2DDEA1092015118294A01208A18FD
:101DD00007210D40A840C0B2012C2FD0022C36D0D4
:101DE000002CD2D1C043C0B2013B1BB2591CCCD095
:101DF0001178014011700132F6E74289C918511A71
:101E000009B261E716783543157094E71678754086
:101E1000FAE7611E48424141150018004942C9B223
:101E20000838C0B2297040350728F9D897E71178EB
:101E30000B431370A9E711784B40FAE7013B1BB243
:101E4000591CA2D01178014311700132F6E7013B11
:101E50001BB2591C99D01178414011700132F6E73C
:101E6000012CCFD0022CD1D0002C00D065E75FE749
:101E7000370000202F00002027000020F0B50C00C4
:101E800005A90D88817E02293CD0032900D1A1E05B
:101E900001293FD10189D2188A1A12B2002C00DA26
:101EA00097E00A26815FA14200DC92E0002A02DA74
:101EB0009B1800221BB20821415ED018884201DD28
:101EC0008B1A1BB2002B00DC83E0E11089018A1819
:101ED0005D490120511807221440A040C0B2012DD5
:101EE00000D17CE0022D00D182E0002D71D1C043F1
:101EF000C0B2013B1BB25A1C6BD00A7802400A7078
:101F00000131F6E7E1430489D2186418418924B20B
:101F10008A1A12B2002C5CDB0826815FA14258DDD0
:101F2000002A02DA9B1800221BB20A21415ED01857
:101F3000884201DD8B1A1BB2002B4ADDD2B2D108D8
:101F4000414889010919091814000720DBB204402F
:101F500002421AD001303D4A001BC0B2125C8342DB
:101F600000D36AE0FF26C71A3E413240012D48D017
:101F7000022D4AD0002D2CD10E7896430E7083424C
:101F800027D3083C1B19DBB24031072B14D9022D93
:101F90003ED108001A000478083AE443D2B2047033
:101FA0004030072AF7D81A00083AD2B2D2080132D4
:101FB0009201891807221340002B0AD0244AD35CCF
:101FC000012D33D0022D35D0002D02D10A789A434D
:101FD0000A70F0BDE1434489641824B25EE7013B16
:101FE0001BB25A1CF5D00A7802430A700131F6E799
:101FF000013B1BB25A1CECD00A7842400A700131F6
:10200000F6E70E7832430A70B9E70E787240FAE7C5
:102010006A1E504242410C0018005242D2B20838A7
:10202000C0B2227040340728F9D8BCE70A781343BD
:102030000B70CEE70A785340FAE7012DE1D0022D6C
:10204000E3D0002D9DD197E7370000202F0000201E
:102050002700002030B5002947DB0C25445F8C4267
:1020600043DD002A41DB0E25445F94423DDD847E42
:10207000022C1ED0032C25D0012C04D1D243008980
:1020800080180A0001B2012B22D0022B2ED0002B87
:102090002BD10720D31703409B18DB109B01591845
:1020A0000123024093401A00174C635C934363542E
:1020B0001BE00489013C611AD443428909B2121918
:1020C00012B2E0E740890138401A110002B2DAE7A3
:1020D0000724D0172040801822409340C010800170
:1020E00041180948425C1343435430BD0720D317BD
:1020F00003409B18DB109B015918012302409340B9
:10210000014C625C5340D2E73700002070B50400F8
:102110000D0020224021FEF7D9FF094BFF22083392
:10212000236023002A331A702200012328325B42E5
:10213000E38413702300293320001D7070BDC04656
:1021400020620000802210B500210248520002F0F7
:1021500082FC10BD370000200300F7B52B331B783D
:1021600004000D00002B03D01348FFF745FAF7BD1C
:10217000082380260127009323001F2008330193A2
:102180001856002102F0DAF931001F20E31D18561D
:1021900029402E4200D0390002F0D0F91F20019BC7
:1021A0003900185602F0CAF9009B7608013B0093EB
:1021B000002BE1D1DBE7C0462405002070B5C31D2C
:1021C000DB7F04005BB20D0001331AD00600002053
:1021D0002A360121305602F0B1F92820002120567C
:1021E00002F0ACF900200021305602F0A7F92900D6
:1021F0002000FFF7B1FF00200121305602F09EF9C8
:1022000070BD0534E17F084C2000FEF7B5FC0021CD
:102210002000FEF7C9FC29002000FEF7C5FC2000C5
:10222000FEF71FFDECE7C046F0020020F0B585B0D8
:102230000093831DD977431DDA771F23C71DFB56F3
:1022400004000D00013300D1CAE003002020083350
:1022500001931856012102F041F926002A2001219C
:1022600020562B3602F03AF93378002B00D1A7E044
:10227000604E3000FFF774FA002302AA938030000A
:102280005D49039AFFF79CF9009B002B1DD02600A7
:10229000002029363056002817DB012102F01EF9F4
:1022A00000200121305602F049F9012001F062FFBF
:1022B00000200021305602F041F90A2001F05AFFB7
:1022C00000200121305602F039F9AE212000FFF73D
:1022D00075FFD5212000FFF771FF80212000FFF757
:1022E0006DFFA8212000FFF769FF1F212000FFF7E5
:1022F00065FFD3212000FFF761FF00212000FFF7D9
:102300005DFF40212000FFF759FF8D212000FFF7DE
:1023100055FF1021012D00D014212000FFF74EFFA2
:1023200020212000FFF74AFF00212000FFF746FF91
:10233000A1212000FFF742FFC8212000FFF73EFF48
:10234000DA212000FFF73AFF12212000FFF736FFC5
:1023500081212000FFF732FFCF212000FFF72EFF61
:10236000D9212000FFF72AFF2221012D00D0F121E1
:102370002000FFF723FFD9212000FFF71FFF2221B4
:10238000012D00D0F1212000FFF718FF2000DB21F4
:10239000FFF714FF20004021FFF710FF2000A421C9
:1023A000FFF70CFF2000A621FFF708FF20002E21D9
:1023B000FFF704FFAF212000FFF700FF05B0F0BDDD
:1023C0001F200121385602F089F81F20019B0121AE
:1023D000185602F083F83378002B00D154E747E712
:1023E000064E3000FEF79AFB30000549FEF7B6FBBB
:1023F0004AE7C0462405002000127A00F0020020BF
:10240000801A0600F8B504002121FFF7D7FE20212D
:102410002000FFF7D3FE5F212000FFF7CFFE22212F
:102420002000FFF7CBFE00212000FFF7C7FE0321AD
:102430002000FFF7C3FEE31DDB7F10265BB20133F4
:1024400021D0260000202A360121305602F076F8ED
:1024500028200121205602F071F800200021802759
:10246000305602F06BF800257F00174B2000595DB5
:102470000135FFF771FEBD42F7D100200121305632
:1024800002F05CF8F8BD3500104F631D3800D97FAD
:10249000FEF772FB103D40213800ADB2FEF784FB21
:1024A000094B3800595D0135ADB2FEF77DFBAE42F8
:1024B000F6D13800FEF7D5FB88231036B6B25B00A4
:1024C0009E42E0D1DEE7C04637000020F002002047
:1024D00010B5024801F0DEFC10BDC0466C070020BC
:1024E00010B5024801F0D6FC10BDC046680A0020B5
:1024F000F7B501240326154F1549380000F082F87E
:102500001449154800F07EF81449154800F07AF88F
:102510001449154800F076F81449154800F072F88F
:10252000144D1549280000F06DF83900009623007D
:1025300001940022114801F041FC00962900019409
:102540001E231F220E4801F039FCF7BD640D002048
:1025500000080042000C0042680D002000100042FC
:102560006C0D002000140042700D00200018004285
:10257000740D0020780D0020001C00426C07002024
:10258000680A0020F7B506000D000C008B180193B7
:10259000019B671B9C4207D0336821781B68300081
:1025A000984701340028F3D13800FEBD70B504000F
:1025B00008000D0002F03CFE2368020029005B6861
:1025C0002000984770BD10B50B1E02D0FFF7EEFF3C
:1025D0000300180010BD10B5FFF7F5FF10BD000097
:1025E00010B50249FFF7E2FF10BDC046C866000003
:1025F00070B50400FFF7E7FF05002000FFF7F0FFCC
:10260000401970BD016070479446F0B59E1E721E61
:1026100096416246056892072F6836063A43324370
:102620002A60072505AC24780068A40129402143CD
:1026300042680024022B00D05C0311432143416017
:10264000F0BD30B5C0250368AD031C6812052A40F3
:102650002243C0240904A4022140114319600368E5
:102660005A6814435C6030BD0123026811680B4353
:10267000136003681A68D207FCD4DA69D207F9D468
:1026800070470223026811680B4313600268D36924
:102690009B07FCD4704703681A7ED20702D41A7EC7
:1026A0009207FCD57047002203685A83704703687D
:1026B000187E4007C00F70470368187EC009704736
:1026C000802302685B42117E0B43137670470368D8
:1026D000588B8007C00F704702230268518B0B4351
:1026E000538370470368187EC007C00F70470368A4
:1026F000188DC0B2704703681A7ED207FCD589B224
:10270000012019857047012203689A7570470122DC
:1027100003681A7570470123026811680B43136040
:1027200003681A68D207FCD4DA69D207F9D4704773
:102730000223026811680B4313600268D3699B0788
:10274000FCD470470368DA699207FCD402211A6846
:102750008A431A6070470268936A5B0A5B021943F6
:10276000916203681A7E5207FCD5986AC0B270471E
:1027700010B54900044802F069F880B2002801D081
:10278000013880B2C0B210BD006CDC0270B54B08DD
:102790000C00012105680B400C402E6824075B07E4
:1027A000234333432B6011000468FFF7E1FF2073DC
:1027B00070BD0123026811680B43136003681A6837
:1027C000D207FCD4DA69D207F9D470470223026831
:1027D00011680B4313600368DA699207FCD4302157
:1027E0005A8B8A43110010220A435A830268D36924
:1027F0005B07FCD470470221026813688B431360A7
:102800000268D3699B07FCD4704780230268DB020F
:10281000116851680B435360704700000368034917
:102820001A685A680A405A607047C046FFFFFBFFAB
:10283000032230B5036811401C68074D5A6809042B
:102840002A40E4061143640F5960052C03D1026845
:10285000D3695B07FCD430BDFFFFFCFF30B50368D4
:102860000400588B8006800F022814D05D8B002056
:10287000AD06AD0F032D2ED0588B800705D55D8B8F
:102880000020AD06AD0F012D25D100205D8BAD06DA
:10289000AD0F85421FD04800596A1043C90AC0B223
:1028A000C902014359622368002A08D11A7ED2075F
:1028B000FCD5588B4007C30F012058400BE0187E11
:1028C0008007C00FF5D11A7ED207F8D5C02259680B
:1028D00092020A435A6030BD0368283319700368B6
:1028E000187EC007C00F03D15A8BD207F8D57047A6
:1028F000588B4007C30F01205840F8E7036828337E
:102900001970036800201A7E520704D5588B0123E2
:102910004007C00F5840704703681868C006400F52
:10292000043843425841C0B270470368187E4007DC
:10293000C00F70470368187EC007C00F7047036858
:10294000588BC006C00F70470368187E8007C00F01
:1029500070470368588B0007C00F704703681A68F8
:10296000D206520F052A02D11A7E9207FCD52833CF
:102970001878C0B2704700000368104A934213D021
:102980000F4A934212D00F4A934211D00E4A9342FB
:1029900010D00E4A93420FD001200D4A404293427C
:1029A00001D1063040B270470020FBE70120F9E773
:1029B0000220F7E70320F5E70420F3E700080042D0
:1029C000000C0042001000420014004200180042B7
:1029D000001C0042F8B5FFF7CFFF00282CDBC30036
:1029E0001C48FF22C01805230479C3560320184051
:1029F000C0008240C021D2438140002B1DDB1F2537
:102A000001201D40C026A840134D7600A851C026C5
:102A10009B089B005B19B6009F593A40114399519E
:102A200028603F2323408024E4011C430B4B5C803F
:102A30005A7852B2002AFBDBF8BD0F200340083B56
:102A400007489B089B001B18D86902401143D961B5
:102A5000E7E7C046CC66000000E100E0000C004063
:102A600000ED00E0F8B504000F0016001D00FFF7B0
:102A7000B1FF2000FFF7F8FD1C21BB000B407107E0
:102A80002268090C0B431360842322689375012F7D
:102A90001AD11021012E00D008390C4B6943186857
:102AA000C00001F0D3FE0722216802408B89520347
:102AB000DB04DB0C13438B81226803049089DB0C5D
:102AC000400B400318439081F8BDC046B40100207C
:102AD000F7B50500019308AB1F780E001400FFF74F
:102AE0001AFE2800FFF776FFC02224059203144047
:102AF000BA070C2717433C43C02707223604BF02FE
:102B00002B683E4026431E60019B296813401A0033
:102B100080239B0213434B602A68D3695B07FCD474
:102B2000F7BD0000F8B504000F00FFF753FF2000C9
:102B3000FFF73FFE1422236879001A600C4B2568CA
:102B40001E68300001F082FE0A490400300001F0E6
:102B50007DFE7D23FA215843C90001F077FEFF2353
:102B6000241AE868053C1C4098430443EC60F8BD17
:102B7000B401002040420F003F20704713B56B4660
:102B80000268D9710733546819000122A04716BDA5
:102B900010B50221006900F037FC10BD10B503210B
:102BA000006900F047FC10BD10B51300084A04008E
:102BB000D279002A03D101230020636010BD0A00EE
:102BC0000069032100F02EFD0028F4D0F6E7C0468E
:102BD0003C01002010B5054C23685A1C04D1036841
:102BE0005B69984703002060180010BD8801002031
:102BF000074B0200186810B5411C03D00122524255
:102C00001A6010BD0221106900F0FEFCF9E7C04611
:102C10008801002010B50378422202330370024974
:102C2000024800F0ABFD10BD44010020980D0020CB
:102C300010B50178020043780020A12908D1212B8A
:102C400005D107221649174800F098FD012010BD54
:102C50002129FCD1202B13D107221149114800F062
:102C60002DFC96220E4BD200196891420ED1012400
:102C7000D87904400AD1FA2001F006FD0020E6E7E9
:102C8000222B06D19278064BDA71EAE701F002FDB9
:102C9000F4E7232BDBD15288034B1A60D7E7C046F9
:102CA0003C010020980D002038010020FA2200216C
:102CB000054B92009A60054A596008321A60044A2E
:102CC00019761A617047C0467C0D0020FC66000032
:102CD000980D0020704770B50F26CB1D01390200FA
:102CE0003240D5B22C0000093034092A00DD073407
:102CF0001C70013B8B42F2D170BD10B5040080699D
:102D000001F096FEA06A01F093FE200010BD10B500
:102D10000400FFF7F2FF200001F078FA200010BD58
:102D200070B5032908D1324B8000C058002802D06A
:102D30000368DB68984770BD82291FD1C3B22D4D4F
:102D40005A01AA1891692C4C80010C40C0218905B8
:102D500021439161294908334018802150612A6834
:102D60005B01D01804794942214301717020995CBC
:102D700081430800302101439954DCE70029DAD16E
:102D8000C024C1B21B4E4A01B21893681A4DA40563
:102D90002B40234393601A4B8001C0180B005060F6
:102DA0003068072608335B01195CB1430E0001212E
:102DB0003143195491690D402C43946170240F499B
:102DC0005161195CA1430C001021214319549168F1
:102DD0000C4CC3180C408021490321439160916839
:102DE000890B89039160402259790A435A71A2E7FD
:102DF0009C0D002050120020FFFFFF8FC40D00200B
:102E0000840F0020FF3F00F0EFF3108303600123E5
:102E1000436072B670470368002B02D162B6BFF3FD
:102E20006F8F704737B5056904006846002D14D1CF
:102E3000FFF7EAFF019B621D013B02D3D57FEDB294
:102E4000FAE768460193FFF7E6FF002D01D1002065
:102E50003EBD206AE369C01AFAE7FFF7D5FF2200FA
:102E60000025019B3432013B02D31578EDB2FAE71D
:102E700068460193FFF7CFFF002DE8D0206BE36A8F
:102E8000E9E70000FF2130B54368164D1A688368F2
:102E90000B405B01D21801235218947A234393729A
:102EA000836842680B405B01D418C268A36892042F
:102EB0002B4012091343A360836842680B405B01F7
:102EC000D3189A68920B92039A6043681A688368D1
:102ED0000B4008335B01D318402219790A431A7159
:102EE00030BDC046FF3F00F0F7B5036904000E0097
:102EF00017006846002B45D1FFF786FF019B611D37
:102F0000013B5A1C0CD0CD7F5A1EEDB2002D05D1CD
:102F100068460193FFF77FFF2800FEBD1300F0E72E
:102F2000684601930025FFF776FFE369AF420AD0B8
:102F3000226A9A4207D95A1CE261A269D3181B7807
:102F400073550135F1E7226A9A42E5D10023E36126
:102F5000013323616846FFF757FF22000021019BE0
:102F6000671D013B3532581CD2D0F97710785E1EB0
:102F7000002805D0117020000193FFF783FFECE7D4
:102F80003300F0E7FFF740FF2100019B3431013BA4
:102F90005A1C06D00D785A1EEDB2002DB8D0130081
:102FA000F6E7684601930025FFF735FFE36ABD4267
:102FB00002D0226B9A421CD8226B9A42ACD10023D9
:102FC0006846E3622361FFF71FFF2700220000210C
:102FD000019B3437013B3532581C99D03970107839
:102FE0005E1E00280DD0117020000193FFF74AFFEC
:102FF000EBE75A1CE262A26AD3181B7873550135BD
:10300000D4E73300E8E7F7B5FF21826843680A4058
:103010001B68083252019A18D3790400DB072AD5BD
:103020000125D571836842680B405B01D3189A680B
:1030300040699204920C002821D12262226A002A5F
:103040003ED0A26A656168465A60FFF7DDFE270040
:103050002100019B661D013B343735315A1C2BD0B2
:10306000F5773A78581ED2B2002A05D00193684607
:103070000D70FFF7D0FEF7BD0A700300EEE7226384
:10308000226B002A1CD000226261A26968465A6045
:10309000FFF7BAFE26002100019B3436013B671D75
:1030A00035315A1C08D03570FA7F581ED2B2002A2A
:1030B000DCD10A700300F4E768460193FFF7ABFE2A
:1030C0002000FFF7DFFED6E737B56B46DC1D002397
:1030D0000D0020002370FFF79DFD2B681818286055
:1030E00001F050FB210001F019FB2B681818286033
:1030F00020783EBD03290ED180220E4B62311B6821
:10310000FF31585C524202435A5468226339FF32FD
:10311000FF39995470470129FCD18022054B243195
:103120001B68FF31585C524202435A54282223390B
:10313000FF32EDE75012002070B50025304B012121
:1031400004001A201D7001F0C9F901211A2001F0B4
:10315000F5F92C4B012119201D7001F0BFF9012157
:10316000192001F0EBF92023274A0F20D1690B43E6
:10317000D361012225490B7813430B70244B197836
:103180008143197006211D782943197021490D7852
:103190002A430A701A7802401A70602219780A438A
:1031A0001A701D4B1D4A5A805A78D209FCD11C480E
:1031B00000F0A4FF1B4D280001F0F6FA280001F0F2
:1031C0000BFB7F212A68C120137880000B4013700D
:1031D00004232A6811780B430C2113702A68138981
:1031E0008B43114913810B581B021B0A0B50802380
:1031F0000B6011787E3B0B4313700123237070BD6D
:10320000B90D0020B80D00200004004058440041D2
:103210003C44004159440041000C0040064000007D
:10322000F13B00005012002000E100E0007800288F
:1032300010D00121084B1B681A898A431A81082281
:10324000198B0A431A830422198B0A431A8300221A
:10325000024B1A607047C0465012002048120020EE
:1032600010B50F4A93699B0B9B039361136802226D
:10327000FF331A729879823A02439A711A7A920746
:10328000FCD57F24074A2140937A0800A343190004
:10329000802301439172917A5B420B43937210BD7C
:1032A000501200200050004110B50B790C00002B8B
:1032B0000CD10800FFF7BCFC002801D0012010BD94
:1032C000094A93699B0B9B039361F7E701F05AFA54
:1032D000210001F047FA0028F0D1034A93699B0BC3
:1032E0009B039361EBE7C04650120020F8B50D0038
:1032F000832A19D1CBB2364C5A01A21891693548AC
:10330000AD010840C021890501439161324920681F
:103310006D187021083355615B011A5C8A431100F6
:1033200040220A431A54F8BD022A4CD12B4A8B0082
:103330009858002802D003685B699847382000F04D
:1033400061FF274B802703600023214E7F00421D31
:10335000036203614361C36146608560C760D377E0
:103360002F320400C362036313703800537001F0FE
:1033700055FBA061380001F051FB2A00A062FF203C
:103380000240510171188B68124FAD001F40C023DD
:103390009B053B438B6013003168072608335B01B4
:1033A0005A5CB2431600032232435A54A36862683F
:1033B00003405B01D318A26920005A60FFF762FD49
:1033C000064B5C51AFE711002800FFF7A9FCAAE704
:1033D00050120020FFFFFF8FC40D00209C0D002025
:1033E0002867000070B505000124064BA200D258E2
:1033F000002A05D021002800FFF778FF0134F4E708
:1034000070BDC0468C010020084B8A00D05810B512
:10341000002803D003689B68984710BDC9B2044BCD
:103420004901591888688004800CF6E79C0D00203B
:103430005012002010B50C00FFF7E6FF00280CD05A
:10344000064BE4B21B68083464011C1980236279BE
:103450005B42134363710223E37110BD50120020DD
:1034600070B5CBB2124A13485C0189018918021960
:1034700051609168104D08330D4080218902294325
:10348000402591609168890B8903916001685A0118
:103490008A1816793543157195796D06FCD55B014F
:1034A000C918CB79DB07FCD500198068C0B270BDA4
:1034B000840F002050120020FF3F00F070B5140070
:1034C00040220B4B0D001B68FF3359790A435A7198
:1034D0000021FFF7C5FFA04200D9200000230549C5
:1034E000A34203D0CA5CEA540133F9E770BDC04679
:1034F00050120020840F002010B5C9B20B484901BA
:10350000421893689B049B0C3F2B0BD99468403B5B
:103510009B04A40B9B0CA40323439360411888686D
:10352000C0B210BD93689B0B9B03F6E750120020BE
:10353000F0B51C002F4B85B01B6806000D000192F2
:10354000002B54D02C4F3978C9B2002902D1192050
:1035500000F0F4FF64233B70284BAA00D0580028E9
:1035600008D0036822005B68019998470400200096
:1035700005B0F0BD29003000FFF746FF844204D9B2
:1035800029003000FFF740FF040029003000FFF75A
:10359000B3FF0121EBB21A4F03935B010293029A2E
:1035A0003B6801989B18FF335A7A0A435A72154BAD
:1035B000A901C918220001F045FA002CD7D0290032
:1035C0003000FFF721FF0028D1D14021039B3A684A
:1035D00008335B01D3181879014319710121D9719E
:1035E000029BD318FF339A7A0A439A72BFE70124E9
:1035F0006442BCE748120020B80D00209C0D00205A
:1036000050120020840F002013B56B46DC1D2200F1
:103610000123FFF78DFF012801D1207816BD01207D
:103620004042FBE7F0B51E003A4B85B01B680F0027
:103630000192002B3FD08023DB019E423BD8364CC9
:103640002178C9B2002902D11A2000F077FF642343
:1036500000252370314BBA01D3180293002E2CD0D1
:103660002F4B1B680393FF233B401C00009308343F
:10367000039B64011C19A379DB0921D0294B2A493A
:10368000186801F0E3F8294B1721584301F0DEF8E0
:10369000274BE279920713D4DA5D002A01D1013871
:1036A000F7D20122DA55009B5A011D4B9B189A69EB
:1036B000920B92039A6101256D42280005B0F0BD7E
:1036C00000221B4B3400DA55402E00D94024220042
:1036D0000199029801F0B6F9009BA1045A01104B20
:1036E000890C9B18029A2D195A619A69361B920B04
:1036F00092030A439A61009B039A08335B01D31833
:103700000222DA715979823A0A435A71019B1B19D4
:103710000193A3E748120020B90D0020C40D00203A
:1037200050120020B401002040420F00701101002F
:10373000BB0D002070B50D001C000D4BAE01F6183E
:1037400011003000220001F07DF9EDB209496D0150
:103750004D196E61AB69084A20001340AB61AB693B
:10376000A2049B0B920C9B031343AB6170BDC0463C
:10377000C40D002050120020FF3F00F0F7B5104BA1
:1037800001901B780F001500002B0CD10D4B16007B
:103790001C78002C09D00C4E0C4834882018641971
:1037A00001F050F934802800FEBD002EFBD03A19FC
:1037B000330000210198FFF7BDFF2418361AF4E703
:1037C000441100204512002046120020451100201F
:1037D000F8B5002000AF0E001500012A27D9D31D2F
:1037E0006A46DB08DB00D31A9D46080001F020FD85
:1037F0006C460323022200210130400020706370D8
:10380000AA420DD2307800280AD0531CDBB2013610
:10381000A0549D4203D00232E154D2B2F0E72A0014
:1038200021000448FFF7AAFF431E9841C0B2BD46DD
:10383000F8BDC046980D0020F0B50024012685B0E3
:10384000184B0F0069461E7005000094FFF73CFC02
:10385000154B01A90B806A3BFF3BCB716E3B0B7292
:10386000009B8C7109334B800E4B4E7108711C709C
:103870003A00092F0FD00D4F09223E700C4E280040
:1038800000943480FFF77AFF69462800FFF71CFC9C
:10389000328808493C702800FFF770FF012005B00E
:1038A000F0BDC0464411002009020000451200206E
:1038B0004612002045110020F0B5CF7893B00500E6
:1038C0000E00022F09D1C9882B48FFF7B5FF441E0F
:1038D000A041C4B2200013B0F0BD00F053FF31008E
:1038E00000F030FF002803D0C417241AE40FF1E7DA
:1038F000012F0BD1F2882149112A11D8D2B2002A06
:103900000ED02800FFF73AFF0124E3E70400032F5D
:10391000E0D1B378002B05D1F2881949032AEDD9FB
:103920000A78EEE7022B06D1B27916492800FFF794
:103930004FFF0400CEE7012B02D1B2791249F5E71F
:10394000032BC7D1114B01A91868FFF7C4F9104B1D
:1039500003A91868FFF7BFF90E4B05A91868FFF710
:10396000BAF90D4B07A91868FFF7B5F96B4605338F
:10397000DC77B27901A9D9E7980D002059670000DA
:103980004C67000040670000506700000CA08000FA
:1039900040A0800044A0800048A0800037B505000A
:1039A00048780C000B2810D800F046FF061B0F2BA0
:1039B0000F41466E4A4D676A097801AA002906D16F
:1039C000022311802800FFF7B5FE01203EBD002331
:1039D00013802E4B1B78012B00D113700223002182
:1039E000F0E78A780023012A03D101AA1380284B2B
:1039F000F0E7264A1370274A93699B0B9B03936158
:103A0000E3E78C78012C06D10021214B01AA1C7020
:103A100011702300D6E700208442D7D11B4B013020
:103A20001C4A187093699B0B9B039361CEE78978BE
:103A30002800FFF715FCC8E72800FFF73DFFC5E7A2
:103A40000123154ACBE70B780020DB06BED1280006
:103A5000FFF7C8FC2A200221A2780F4BFF301A6022
:103A60000C4A13681C5C21434A241954FF34195D25
:103A70002938FF3801431955D4E70123074AAEE737
:103A80008A78064B1A60B6E700209FE7BA0D00203F
:103A9000C20D002050120020481200204C120020BD
:103AA0004B4BF7B51C780700002C00D083E0494E43
:103AB00033689B8B1B070ED521002000FFF730F9E0
:103AC000326810231100FF31887A03438B72424B16
:103AD0001C600823938333689A8B52071FD50422F6
:103AE0009A833E4A1378002B0AD01378013BDBB24D
:103AF00013701378002B03D101211A2000F01EFD52
:103B0000374A1378002B0AD01378013BDBB21370CD
:103B10001378002B03D10121192000F00FFD336829
:103B2000FF331A7AD2061ED510221A725979303212
:103B30000A435A7160232B4938000A781A423BD154
:103B4000FFF72CFF3368FF33002838D080229979A3
:103B500052420A439A711A7A520604D540221A72C6
:103B6000597A0A435A72336800241D8C01239D43FD
:103B7000EDB20193E1B2002D1DD02B002341019A3B
:103B8000134215D02300326808335B01D318DA7969
:103B9000D20702D4DB799B0707D5134BA200D0587C
:103BA000002810D003681B689847019BA3409D43E1
:103BB0000134092CDED1F7BDFFF776FBC2E72021E7
:103BC0000A4A9171C7E73800FFF794FAEDE7C0465B
:103BD000451200205012002048120020B90D00208C
:103BE000B80D0020840F00209C0D0020FF500041E4
:103BF00010B50248FFF754FF10BDC046980D0020D5
:103C0000014B024A1A6070475012002000500041D8
:103C10000120704710B50368014A1B6A984710BD20
:103C2000130400000300FC33D96F9A6F914203D054
:103C3000DB6FC018007D704701204042FBE710B5E4
:103C400004000069FEF710FD22000023FC32936798
:103C5000D3679E229200A4186366A36610BDF0206D
:103C600001403039484248417047F0231B01194058
:103C7000802306209B0099420AD00133FF33013094
:103C8000994205D0802302385B00994200D0002081
:103C900070470F2001400020012903D00239481E3F
:103CA0008141481C70470000B923F0B5182685B043
:103CB00002919B000400C05C330008214343324D55
:103CC0001700EB18595600F07DFC304B0821E05CE2
:103CD00033004343EB18595600F074FC2C4BE25C64
:103CE0000393022A09D11133E05CFF2805D0082193
:103CF0004643AE19715600F065FCBA26B600A05DC9
:103D0000FF2819D0012100F0E9FB1822A35D214909
:103D10005A43AB56AD18DB015818BB2189006050DF
:103D20001D4901225B18BC218900635069688A40E3
:103D3000BD21890062501A600122029B1100206996
:103D4000FEF790FE39002000FFF78FFF39000500D5
:103D50002000FFF79EFF390006002000FFF77FFFDD
:103D600033000090290020690122FEF74DFC0B4B27
:103D70002069E25C039BE15CFEF763FC2069FEF7CF
:103D800080FC05B0F0BDC04678620000E50200008E
:103D9000E70200001844004114440041E60200001C
:103DA000AF2210B504005200002100F054FE2300A1
:103DB0000022FC335A6620009A6610BDF7B51D003C
:103DC00008AB1B780400009309AB1B781600019325
:103DD00000234360FA239B008360114B0F000833DC
:103DE00003601430FFF7DCFF20007D30FF30FFF769
:103DF000D7FFB9236A469B002761E654094B127826
:103E0000E554094B2000E2546A46084B1279E2540B
:103E1000BA22E93BFF3B9200A3541032A354FEBDEB
:103E20006C670000E5020000E6020000E702000007
:103E30000300FC33586E9B6EC01A01D55F30FF3013
:103E4000704710B5040020007D30FF30FFF7F0FF11
:103E50000028F8D12069FEF71EFC10BD10B5143003
:103E6000FFF7E6FF10BD0300FC33596E9A6E9142D6
:103E700005DB5A6E986E801A5E30FF307047986E80
:103E80005B6EC01A0138F9E710B57D30FF30FFF7DF
:103E9000EAFF10BD70B504000069FEF718FC0028A9
:103EA00005D02069FEF723FC2069FEF715FC206988
:103EB000FEF7FDFB002824D020692500FEF717FC43
:103EC000AF21FC350600A86F4900013000F044FD29
:103ED000EB6F994203D0AB6FE3181E75A967BA2345
:103EE0009B00E35CFF2B0CD020001430FFF7BBFFDE
:103EF000092806DCBB23BD229B009200E358A25890
:103F00001A602069FEF7EEFB00281DD020007D30EE
:103F1000FF30FFF78DFF002825D09E239B00E61879
:103F2000B26E736E9A421BD0BE22AF21B36EB06EDA
:103F3000E3185200013049009D5C00F00DFDB166B0
:103F4000E9B22069FEF7D7FB2069FEF7B5FB002830
:103F500005D02069FEF7B4FB2069FEF7A4FB70BD15
:103F600001256D42ECE72069FEF7D1FBECE700008C
:103F7000F8B5040000690E00FEF7B4FB002843D139
:103F80009E23AF219B00E518686E49000130AF6E9B
:103F900000F0E2FCB94223D1EFF31083DB070DD42C
:103FA0001F4B5B68DB05DB0DEAD0103B5BB2002BDF
:103FB0000DDB9B08C0331B4A9B009B582069FEF712
:103FC00091FB0028DCD02000FFF764FFD8E70F2228
:103FD0001340083B9B08144A9B009B181B68EDE7A5
:103FE000AF21686E4900013000F0B6FCAB6E99421B
:103FF00005D0BE226B6E5200E3189E54696620699C
:10400000FEF781FB0120F8BD20007D30FF30FFF777
:104010000FFF0028B4D131002069FEF76CFBF1E7F7
:1040200000ED00E000E100E01CED00E070B50500EF
:10403000FC35EA6FAB6F04009A421DD0AF21EB6FE5
:104040004900C318E86F1E7D013000F085FCE96768
:10405000BA239B00E35CFF2B0CD020001430FFF749
:1040600002FF0A2806DDBC23BD229B009200E35814
:10407000A2581A60300070BD01267642E8E7FEE7DC
:10408000FEE70000034B10B51B68002B00D09847DB
:1040900010BDC0465413002070B50F490F4CA1420B
:1040A00004D100F0B7F800F08BF8FEE70C4D0023C8
:1040B0008D42F6D0CA18E818A24205D3094B8242B5
:1040C000EFD00949002204E0006804331060F1E7F2
:1040D00004C38B42FCD3E4E7000000204002002030
:1040E00078680000400200208413002010B500F022
:1040F00064F8002801D100F055F810BD014B18609C
:104100007047C04654130020014B18687047C046E2
:1041100058130020F7B51348012284461249134C66
:104120008E68636805689B0E134001928868626818
:10413000019F920E3A4067463F6893420ED1BD42BE
:104140000CD186420AD35B19FA254868AD00861B5C
:1041500007486B437043000DC018FEBD3D001300BF
:104160000600E3E75813002010E000E000ED00E057
:104170005555000070B5041E10D0FFF7CBFF0500A9
:1041800000F01AF8FFF7C6FF054B401B9842F7D91D
:10419000FA23013C9B00ED18002CF3D170BDC04602
:1041A000E703000010B5034A13680133136000F001
:1041B00079FA10BD581300207047002070477047EF
:1041C00010B500F0D7F800F0FBFBFFF7F8FF012077
:1041D000FFF7D0FF094C2000FEF7AEFF2000FFF7ED
:1041E00025F8FCF719F9FCF707F9FFF7E5FF044B91
:1041F000002BF8D000E000BFF5E7C046980D002086
:104200000000000010B500F009FC10BD10B500F072
:104210000FFC10BD1E2270B54648474943689343C2
:104220001C3A1343436008238C6923438B61434C3E
:10423000434B9C829C8A14439C82DC681442FCD0D1
:104240000124404A14701578254203D055786DB288
:10425000002DF8DB01249460547864B2002CFBDB61
:10426000394C5460547864B2002CFBDB8224E401A6
:104270005480547864B2002CFBDB02249C840E34FE
:10428000DD682542FCD0314CDC621024DD6825421B
:10429000FCD09D8C2E4C2C439C841024DD68254240
:1042A000FCD002249D8C80262C439C844024DD6815
:1042B0003542FCD0DD682542F9D01024DD68254266
:1042C000FCD000249460547864B2002CFBDB214CB9
:1042D0005460547864B2002CFBDB1C6A1E4D2C40E9
:1042E00080251C621C6AAC431C62032393601B4B39
:1042F000536053785BB2002BFBDB0023FF240B726F
:10430000174A4B728B72CB72164B1A60164B174AB8
:104310001B6811689A065B01C90E2340520F1202F6
:104320000B431343124A13858023426813434360AF
:1043300070BDC04600400041000400400C06000073
:1043400000080040000C004001050100B905FF7D98
:10435000040A000000070300FFFCFFFF0306010042
:10436000006CDC02B401002024608000206080002A
:1043700000400042FA212D4B10B51868890000F06A
:1043800065FA2B4B013898424FD82A492A4A48608F
:10439000C020136A00061B021B0A0343136200239A
:1043A0008B6007330B608021136A09061B021B0A0E
:1043B0000B431362FC22214B196A0A431A62FF2243
:1043C000196A12020A431A62A022196AD2020A4327
:1043D0001A621B4B1C005A7852B2002AFBDB194AA6
:1043E0005A80194B1A00597EC9090129FBD0C821EE
:1043F000890099800521D970537EDB09012BFBD000
:10440000C02300205B011361907000F023F86378F3
:104410005BB2002BFBDB0D4B0D4A6380D379DB09CC
:10442000012BFBD04123537010BDFEE7B4010020E7
:10443000FFFFFF0010E000E000ED00E0000400409E
:10444000000C00401E4000000040004221400000DF
:10445000004800421F4900B50B004A7ED209012ADC
:10446000FBD001380A282FD800F0E6F91B2E2E2E9B
:104470002E2E062E2E2411001A6917490A400F21EC
:104480001A615A788A43110001220A4310E01A691E
:1044900011490A400F211A615A788A4311000322F8
:1044A000F3E71A690C490A400F211A615A788A43C6
:1044B0005A7000BD1A6908490A400F211A615A78DA
:1044C0008A4311000222E0E7F022196912050A432B
:1044D000F3E7C04600400042FFFFFFF0182310B58D
:1044E00008244343134AD0180457013412D001243E
:1044F0009A5643689C4003290CD808000E49D20103
:104500005218D318403300F097F90210060B02211D
:104510001970546010BD0621197054609461F9E758
:104520000621197054605461F4E7022119709460F7
:10453000F0E7C04678620000004400411823F0B55F
:1045400008245843114A13181C5701341BD0012664
:1045500035005F688356BD400D4ADB019A189068AC
:1045600005420BD10C00601E8441D21940321078F4
:1045700034400336A400B04320431070044A9B1813
:10458000002901D15D61F0BD9D61FCE7786200000A
:1045900000440041182310B5082443430749002074
:1045A000CA181457013408D05B560549DB015B1863
:1045B000186A5368D8400123184010BD7862000083
:1045C000004400411822424370B52D4E0300B2183A
:1045D000127A52B2140001320ED0481C00240C286A
:1045E0000AD800F029F9071F1F1F1F1F1F1F1F0BCD
:1045F0000B0B0B0001246442200070BD092905D17A
:1046000000211800FFF76AFF0024F5E70A2901D10D
:104610000839F6E700240B29EED10A391800FFF714
:104620005DFFE9E7182201205343F218F35655685D
:10463000144ADB016C089B18C9B228401C190028D9
:104640000ED00F203034227809010240114341225C
:10465000C9B25B192170403319780A431A70D3E745
:1046600022000F26303214785B19B44321431170B5
:1046700041224033197804000A431A70BCE7C0464F
:104680007862000000440041014B18607047C0464A
:10469000B80100200122024B52421A607047C04606
:1046A000B8010020164A10B51368591C26D0013BEA
:1046B0001360002B22D172B6124B134A043393427B
:1046C00013D9124A01211000147D0C42FCD0202184
:1046D000148BFF319B085B0021431183D3610C4B8A
:1046E00013800123027D1A42FCD0BFF34F8F094B88
:1046F000094ADA60BFF34F8FC046FDE710BDC046E0
:10470000B80100200000000003020000004000414A
:1047100002A5FFFF00ED00E00400FA0570B50E00F1
:1047200000254468002C0BD0236831005B68200012
:104730009847002802DB2D18E468F3E701256D4255
:10474000280070BD70B50D004468002C08D02368A7
:1047500029009B6820009847002802D1E468F4E70C
:10476000200070BD70B50D004468002C08D023688F
:1047700029001B6820009847002802D1E468F4E76C
:10478000200070BD0121054A10B5136804480B4094
:1047900003D1044C43600480116010BD5C13002001
:1047A000601300200204000070B50400012304CC53
:1047B0000500117820000B43137080220021520065
:1047C00000F049F92B689A78D207FCD49A789207BE
:1047D000F9D45C6270BD00001F22144BF0B51B6859
:1047E000590B9C0C9B01114014405B0F914200D16E
:1047F00005211F2C00D1023C072B00D1043B02688D
:104800008F01158D0A491F262940394311850568F6
:104810003440298D0A00B24322432A8500681903D7
:10482000028D044B13400B430385F0BD24608000D0
:104830003FF8FFFFFF8FFFFF02B4714649084900B0
:10484000095C49008E4402BC7047C0460022430800
:104850008B4274D303098B425FD3030A8B4244D348
:10486000030B8B4228D3030C8B420DD3FF2209028A
:1048700012BA030C8B4202D31212090265D0030B49
:104880008B4219D300E0090AC30B8B4201D3CB033F
:10489000C01A5241830B8B4201D38B03C01A524181
:1048A000430B8B4201D34B03C01A5241030B8B4283
:1048B00001D30B03C01A5241C30A8B4201D3CB026E
:1048C000C01A5241830A8B4201D38B02C01A524153
:1048D000430A8B4201D34B02C01A5241030A8B4256
:1048E00001D30B02C01A5241CDD2C3098B4201D36E
:1048F000CB01C01A524183098B4201D38B01C01AEC
:10490000524143098B4201D34B01C01A5241030962
:104910008B4201D30B01C01A5241C3088B4201D311
:10492000CB00C01A524183088B4201D38B00C01ABE
:10493000524143088B4201D34B00C01A5241411AE5
:1049400000D20146524110467047FFE701B50020F2
:1049500000F006F802BDC0460029F7D076E77047A0
:104960007047C04630B514001A00094B05001B689B
:1049700085B0D868074B002C01D1074B1C00019370
:1049800000912B000549029400F00AF800F026FD82
:10499000BC010020A0670000CA660000AD670000EF
:1049A0000EB403B5010003AB044804CB00680193C7
:1049B00000F070F902B008BC03B01847BC01002039
:1049C00070B500260C4D0D4C641BA410A64209D1F5
:1049D000002601F0C7F80A4D0A4C641BA410A64239
:1049E00005D170BDB300EB5898470136EEE7B30030
:1049F000EB5898470136F2E7200200202002002001
:104A0000200200203C02002010B5034B0A000100E8
:104A1000186800F073F810BDBC01002010B5034BFE
:104A20000100186800F0B0F810BDC046BC010020BD
:104A300010B5034B0100186800F016F810BDC04611
:104A4000BC010020002310B59A4200D110BDCC5CFF
:104A5000C4540133F8E703008218934200D1704731
:104A600019700133F9E7000070B50500002910D076
:104A70000C1F2368002B00DAE418280000F000FF68
:104A80001D4A1368002B05D163601460280000F0F4
:104A9000FFFE70BDA34208D9216860188342F3D19C
:104AA00018685B6841182160EEE71A005B68002B0C
:104AB00001D0A342F9D911685018A0420BD1206847
:104AC0000918501811608342E0D118685B684118DA
:104AD00011605360DAE7A04202D90C232B60D5E7BE
:104AE00021686018834203D118685B68411821600F
:104AF00063605460CAE7C04668130020F8B54B1ED7
:104B000006000F001500194202D000242000F8BD55
:104B1000082900D20827042D00D2042503233900D8
:104B200003359D4308393000491900F02DF800285D
:104B3000EBD004380368002B00DAC018F91C4118C8
:104B40007C420C40011D631A8C420AD0C7180B2B03
:104B500017D90268D21A3A6003603000FFF784FF69
:104B600038002A0003680C32C118A2189142CDD92E
:104B700061190A1A9B1A0260300008C1FFF774FF1E
:104B8000C4E75B423B60ECE7F8B50323CD1C9D43D3
:104B9000083506000C2D1FD20C25A9421ED8300066
:104BA00000F06EFE25490A681400002C1AD1244F2B
:104BB0003B68002B04D12100300000F027FB386057
:104BC0002900300000F022FB431C2BD10C233000C5
:104BD000336000F05DFE03E0002DDEDA0C2333606D
:104BE0000020F8BD23685B1B19D40B2B03D923606D
:104BF000E418256003E06368A2420ED10B60300028
:104C000000F046FE200007220B30231D9043C21AFD
:104C10009842E6D01B1AA350E3E75360EFE7220067
:104C20006468C2E70323C41C9C43A042E1D0211A5C
:104C3000300000F0EBFA431CDBD1C7E7681300201B
:104C40006C130020936810B5013B9360002B04DACD
:104C50009469A34207DB0A2905D01368581C106029
:104C60001970080010BD00F0EBFA0100F9E7F8B583
:104C700006000F001400D518AC4201D1002007E057
:104C800021783A003000FFF7DDFF0134431CF3D1F7
:104C9000F8BD0000F0B5A1B006000C001F000392A3
:104CA000002804D08369002B01D100F0CDFC8E4B8D
:104CB0009C421CD17468636EDB0705D4A3899B05F5
:104CC00002D4A06D00F061FDA3891B0702D5236902
:104CD000002B1DD12100300000F008FB002817D068
:104CE000636EDB070DD50120404221B0F0BD7F4B44
:104CF0009C4201D1B468DEE77D4B9C42DBD1F46875
:104D0000D9E7A3899B05EED4A06D00F03FFDEAE74B
:104D1000002308AD6B6120336B761033AB760797B9
:104D2000039F3B78002B01D0252B4ED1039BFB1A10
:104D30000593039B9F420DD0059B21003000039AF1
:104D4000FFF795FF431C00D1B5E06A69059B9446C7
:104D500063446B613B78002B00D1ACE001227B1CEB
:104D60000393002352426A6004A9543252182B6004
:104D7000EB60AB601370AB65039B052219785D484F
:104D800000F072FD039B5F1C002820D12A68D30627
:104D900004D5532304A95B1820211970130704D5E7
:104DA000532304A95B182B211970039B1B782A2B12
:104DB00016D00021EB68039F3A78781C303A84467D
:104DC000092A4FD9002911D117E00137A9E7494B2A
:104DD0002A68C01A0123834013432B600397CBE753
:104DE000079B191D1B680791002B01DB0B9304E047
:104DF0005B42EB60022313432B603B782E2B0AD1DE
:104E00007B782A2B37D1079B02371A1D1B68079224
:104E1000002B2DDB099303223978374800F024FD5D
:104E2000002807D0344B2A68C01A4023834013431C
:104E300001372B6039787B1C062230480393297692
:104E400000F012FD002845D02D4B002B27D1072262
:104E5000079B07339343083307936B69049A9B18A6
:104E60006B615DE70A214B4367469B180939A3E74D
:104E700001235B42CEE700231A0001376B603978CB
:104E8000781C30398446092903D9002BC3D00992F4
:104E9000C1E70A235A4367465218093BEFE707ABBD
:104EA0000093220029003000164B00E000BF049060
:104EB000049B0133D1D1636EDB0705D4A3899B0525
:104EC00002D4A06D00F062FCA3895B0600D50AE75E
:104ED0000D980AE707AB0093220029003000094B28
:104EE00000F082F8E3E7C046346800005468000030
:104EF00014680000E0670000E6670000EA67000051
:104F0000000000006F4C0000F7B5150001938A689F
:104F10000B690C000090934200DA130022002B6012
:104F200043321278002A01D001332B6023689B069C
:104F300002D52B6802332B602268062317001F401E
:104F40001A4227D0230043331B785A1E934122680C
:104F5000920630D4220001990098089E4332B0474F
:104F6000431C25D0062320682A68E16800250340F9
:104F7000042B03D18D1AEB43DB171D40A368226974
:104F8000934201DD9B1AED180027BD4220D100207D
:104F900010E00137E3682A689B1ABB42D2DD220089
:104FA000012301990098089E1932B047431CF0D1A3
:104FB00001204042FEBD3020E1184331087021003D
:104FC0005A1C45310978A218433202331170C1E7E7
:104FD0002200012301990098089E1A32B047431C11
:104FE000E6D00137D1E70000F0B58BB006920A0099
:104FF00043320793059004920A7E0C00109B782A96
:1050000006D8622A08D8002A00D1C0E0582A52D017
:1050100026004236327022E0100063381528F7D897
:1050200000F046FD16001F00F6FFF6FFF6FFF6FF44
:105030001F00F6FFF6FFF6FFF6FFA80036009A0005
:10504000F6FFF6FFB900F6FF3600F6FFF6FF9E000A
:1050500026001A684236111D196013683370012347
:10506000A7E0086819680A1D05060BD50D681A60C7
:10507000002D03DA2D23049A6D421370614B0A2729
:10508000039332E00D681A604106F1D52DB2EFE7C7
:105090000D681968081D18602E0601D50D6803E01B
:1050A0006D06FBD50D68ADB2564B0A2703936F2AE8
:1050B00017D1082715E045310A70524A03921A6841
:1050C000216820CA1A60080650D5CB0702D52023D4
:1050D000194321601027002D03D1202322689A4311
:1050E00022602300002243331A706368A360002B00
:1050F00003DB0422216891432160002D02D1049E2C
:10510000002B0CD0049E28003900FFF725FC039BE0
:10511000013E5B5C33702B0005009F42F3D9082FE2
:1051200009D12368DB0706D563682269934202DC54
:105130003023013E3370049B9B1B2361079B21009E
:1051400000930598069B09AAFFF7DEFE431C35D1A4
:10515000012040420BB0F0BD202209680A432260C2
:105160002200782145321170274AA7E74806ACD5BE
:10517000ADB2AAE71A680D68101D49691860136876
:105180002E0601D5196002E06D06FBD519800023BB
:10519000049E2361D2E71A68111D19601668002168
:1051A0003000626800F060FB002801D0801B606066
:1051B000636823610023049A1370BFE723693200F8
:1051C00006990598079DA847431CC1D023689B07F3
:1051D00015D4099BE0689842BCDA1800BAE72200AF
:1051E000012306990598079E1932B047431CAFD09A
:1051F0000135E368099A9B1AAB42F0DCE9E7002528
:10520000F7E7C046F167000002680000002370B5B0
:10521000064D040008002B6000F08CFC431C03D1F9
:105220002B68002B00D0236070BDC0468013002087
:105230000023C25C0133002AFBD1581E70470000D6
:10524000F8B505000E001400002804D08369002B77
:1052500001D100F0F9F9224B9C422ED16C68A36970
:10526000A360A3891B0732D52369002B2FD02368A5
:105270002269F7B2981A6369F6B2834205DC21000D
:10528000280000F03FF9002827D1A3680130013B36
:10529000A36023685A1C22601F706369834204D094
:1052A000A389DB0707D50A2E05D12100280000F0CD
:1052B00029F9002811D13000F8BD0A4B9C4201D1D8
:1052C000AC68CCE7084B9C42C9D1EC68C7E7210029
:1052D000280000F00BF80028C9D001267642EAE742
:1052E000346800005468000014680000374B70B543
:1052F0001D6806000C00002D05D0AB69002B02D103
:10530000280000F0A1F9324B9C420FD16C680C23AD
:10531000E25E93B211072DD4D90611D409230120DE
:10532000336037331343A381404270BD294B9C4205
:1053300001D1AC68EBE7284B9C42E8D1EC68E6E78A
:105340005B0713D5616B002908D0230044339942D1
:1053500002D03000FFF788FB002363632422A38977
:105360009343A38100236360236923600823A289F8
:105370001343A3812369002B0BD1A0218022A38991
:10538000890092000B40934203D02100300000F0CE
:1053900027FA0C22A35E01201A0099B202400342B0
:1053A0000FD00022A26062695242A26100202269ED
:1053B0008242BAD10A06B8D540221343A3810138EC
:1053C000B3E7880700D46269A260EFE7BC01002060
:1053D000346800005468000014680000062010B50E
:1053E00000F088FA012000F0BBFB0000F7B58B89C4
:1053F00005000C001A075FD44A68002A04DC0A6C16
:10540000002A01DC0020FEBDE76A002FFAD000224E
:1054100080212E682A601A0049010A400B4234D0CC
:10542000606DA3895B0706D56368C01A636B002BA8
:1054300001D0236CC01A0200216A00232800E76A09
:10544000B847A189431C06D12B681D2B31D82C4AA3
:10545000DA40D3072DD50023636023692360CB0492
:1054600005D5431C02D12B68002B00D16065616B10
:105470002E600029C6D023004433994202D0280070
:10548000FFF7F2FA00206063BDE701232800216ADC
:10549000B847431CC5D12B68002BC2D01D2B01D0AF
:1054A000162B01D12E60ADE74023A2891343A381BF
:1054B000A9E740230B43FAE70F69002FA2D00A683F
:1054C0000F60D21B019200229B0700D14A69A260A3
:1054D000019B002B00DC95E73A002800019B216A24
:1054E000A66AB047002806DC40230120A28940427A
:1054F0001343A38187E7019B3F181B1A0193E7E73A
:10550000010040200B6970B505000C00002B02D192
:105510000025280070BD002804D08369002B01D12C
:1055200000F092F8144B9C421BD16C680C22A35ED5
:10553000002BEDD0626ED20704D49B0502D4A06D7F
:1055400000F023F928002100FFF750FF636E0500EB
:10555000DB07DED4A3899B05DBD4A06D00F016F930
:10556000D7E7064B9C4201D1AC68DFE7044B9C4275
:10557000DCD1EC68DAE7C04634680000546800000B
:1055800014680000002310B50400036043608360CA
:10559000818143661900C2810361436183610822EE
:1055A0005C30FFF758FA054B6362054B2462A36237
:1055B000044BE362044B236310BDC0463559000021
:1055C0005D59000095590000C159000010B502490D
:1055D00000F0BAF810BDC0460555000070B568254A
:1055E0004A1E55430E0029007431FFF7CDFA041E00
:1055F00008D000212A00016046600C30A0606832AB
:10560000FFF729FA200070BD10B5024800F0BDF880
:1056100010BDC0467C13002010B5024800F0B6F85B
:1056200010BDC0467C13002010B5024800F0ADF854
:1056300010BDC0467713002010B5024800F0A6F850
:1056400010BDC0467713002013B50400FFF7ECFF30
:10565000A369002B02D0FFF7EFFF13BDA364E3643F
:105660002365134B134A1B68A2620193A34201D125
:105670000123A361200000F01FF86060200000F00B
:105680001BF8A060200000F017F800220421E06061
:105690006068FFF777FF01220921A068FFF772FF1A
:1056A00002221221E068FFF76DFF0123A361D2E718
:1056B000DC670000CD550000F8B50700FFF7A4FF38
:1056C0001F4B1E68B369002B02D13000FFF7BCFFEF
:1056D0004836B4687368013B04D53368002B22D088
:1056E0003668F6E70C22A55E002D1AD12000154B76
:1056F0005830E360656600F047F8FFF78DFF200043
:10570000082229002560A560656025616561A561A5
:105710005C30FFF7A0F96563A563A564E56420002C
:10572000F8BD6834D7E704213800FFF757FF041E9F
:105730003060D5D1FFF770FF0C233B60EFE7C04628
:10574000DC6700000100FFFFF7B50400060000273A
:10575000019148346368A5680093009B013B009366
:1057600004D52468002CF5D13800FEBDAB89012B8F
:1057700008D90E22AB5E013304D029003000019B12
:10578000984707436835E8E770477047704700005F
:1057900070B50E001D000E23C95E140096B00029DE
:1057A00007DA00232B60B3891B0611D48023DB00AA
:1057B0000FE06A4600F030F90028F2DBF02301998F
:1057C0001B021940054BC9184B4259412960EDE7AE
:1057D00040230020236016B070BDC04600E0FFFFEC
:1057E000F7B502268B8905000C00334206D0230052
:1057F00047332360236101236361F7BD6A4601AB30
:10580000FFF7C6FF009907002800FFF7BDF9002841
:1058100008D10C22A35E9A05EFD4032293431E43C2
:10582000A681E4E70F4BAB628023A289206013437B
:10583000A381009B20616361019B002B0DD0280098
:105840000E23E15E00F0FAF8002806D00322A389B7
:1058500093431A0001231343A381A0890743A7811F
:10586000CBE7C046CD550000C9B28218904201D1A5
:105870000020704703788B42FBD00130F6E7000030
:1058800010B50248FFF781FF10BDC0467813002015
:1058900010B50248FFF77AFF10BDC046781300200C
:1058A00070B504000D001F2904D9162303600120E0
:1058B000404270BD436C002B04D08A009B181A68CC
:1058C000002A08D1200000F031F82A000100200051
:1058D00000F01AF8EDE70020012AEAD0511C03D1AC
:1058E000162301302360E4E7002428001C60904761
:1058F0002000DEE710B5034B01001868FFF7D0FF6A
:1059000010BDC046BC010020002370B5064D040048
:10591000080011002B6000F0F5F8431C03D12B6840
:10592000002B00D0236070BD8013002010B500F064
:10593000D9F810BD70B50C000E25495F00F0A4F831
:10594000002803DB636D1B18636570BDA389024AE1
:105950001340A381F9E7C046FFEFFFFFF8B51F0032
:105960008B8905000C001600DB0505D50E23C95EEA
:105970000022022300F074F8A389054A280013408E
:10598000A38132000E23E15E3B0000F01FF8F8BD5A
:10599000FFEFFFFF70B50C000E25495F00F060F8C7
:1059A000A389421C03D1054A1340A38170BD802204
:1059B00052011343A3816065F8E7C046FFEFFFFF84
:1059C00010B50E23C95E00F015F810BD70B50400C7
:1059D000080011001A000023054D2B6000F0B8F8F4
:1059E000431C03D12B68002B00D0236070BDC04640
:1059F00080130020002370B5064D040008002B60C2
:105A000000F060F8431C03D12B68002B00D023600A
:105A100070BDC04680130020002370B5064D040001
:105A2000080011002B6000F055F8431C03D12B68CF
:105A3000002B00D0236070BD80130020002370B5C0
:105A4000064D040008002B6000F054F8431C03D1FD
:105A50002B68002B00D0236070BDC046801300204F
:105A600070B50400080011001A000023054D2B60DA
:105A700000F050F8431C03D12B68002B00D02360AA
:105A800070BDC0468013002070B5040008001100EE
:105A90001A000023054D2B6000F044F8431C03D18D
:105AA0002B68002B00D0236070BDC04680130020FF
:105AB00003B47146490840004900095E49008E441C
:105AC00003BC704758220120014B40421A607047C6
:105AD0008013002058220120014B40421A60704779
