:100000000080002031840000F98300001B84000080
:1000100000000000000000000000000000000000E0
:100020000000000000000000000000001B84000031
:1000300000000000000000001B8400008584000018
:100040001B8400001B840000E13C000015610000DF
:10005000BD8300001B840000A15200001D8400002D
:100060001B840000A56200001B8400001B840000AC
:100070007D4000001B840000B56200001B8400006E
:100080001B8400001B8400001B8400001B840000F4
:10009000196C00001B8400001B840000E16000005C
:1000A0001B8400001B8400001B8400001B840000D4
:1000B0000000000010B5064C2378002B07D1054B3B
:1000C000002B02D0044800E000BF0123237010BDC4
:1000D000300400200000000040C70000044B10B5B1
:1000E000002B03D00349044800E000BF10BDC04608
:1000F000000000003404002040C700000122014B32
:100100001A707047C50E002070B506000C2008F06C
:100110006BFB08250024300008F0D0FB013D0419DA
:1001200024B2002DF7D10723E01718400019C010A2
:1001300080B270BD70B505000C00272917DD002ABC
:1001400000D00334782C00DD78242000FE245021D8
:100150002838FF344942604308F04AFF8B239B0054
:10016000C11889B20E20698008F020FC70BDEE2114
:10017000FF3141800E2008F019FC193C054B64004A
:10018000E35E0A220D215A43AB80034803F0EEFFE1
:10019000ECE7C0469AAC00005401002010B543883B
:1001A00004888B4215D20179104B5B1AA34200DD03
:1001B00023005B1803800188C2880023914205D385
:1001C0004379994200D31300038001230372007A1C
:1001D00010BD42791300A24206D80179034B5B1A85
:1001E000A34200DD23009BB29B1AE3E7FFFF000060
:1001F00010B5084C01233C220221200005F008FD27
:10020000200005F091FC200005F0EEFD024B63613B
:1002100010BDC0469C04002001000100F0B5324D25
:1002200085B02800002405F07FFC20270826012344
:10023000220021002800029303942C4B0197009682
:1002400004F038FC012322003100280002930394BB
:10025000274B0197009604F02DFC01232200280073
:1002600002931021234B03940197009604F022FC83
:10027000012322002800029318211F4B03940197A9
:10028000009604F017FC0123220039002800029395
:1002900003941A4B0197009604F00CFC01232200F2
:1002A000280002932821164B03940197009604F02E
:1002B00001FC01232200280002933021114B0394FA
:1002C0000197009604F0F6FB012322003821280054
:1002D000029303940C4B0197009604F0EBFB28006B
:1002E00005F082FD05B0F0BD9C0400205204002002
:1002F00042000020660000208A000020AE0000209E
:10030000D2000020F60000207604002010B5044C36
:10031000200005F009FC200005F066FD10BDC04678
:100320009C04002010B50C4C200005F0FDFB2000C3
:10033000022104F0CAFD002320002361074906F0D2
:100340002BF880235B0306492361200006F024F884
:10035000200005F049FD10BD9C0400204CAA0000BF
:1003600051AA000010B50C4C200005F0DDFB200068
:10037000022104F0AAFD002320002361074906F0B2
:100380000BF880235B0306492361200006F004F884
:10039000200005F029FD10BD9C04002055AA000096
:1003A00059AA0000F0B58027032685B07F031E4CB4
:1003B0004B25200005F0B8FB0221200004F085FD4C
:1003C00000231A492361200005F0E6FF18492000A8
:1003D000276105F0E1FF200005F006FD0A20013D40
:1003E00008F094F8002DF9D1200005F09DFB0123C1
:1003F00003931F330193203320002A002900009328
:1004000002950C4B04F0FBFA200005F0EDFC4B24A8
:100410000A20013C08F07AF8002CF9D1013EB6B26E
:10042000002EC4D105B0F0BD9C0400205EAA0000DF
:1004300059AA00009AAB0000F0B50025092791B039
:1004400000900191019BAB422BDD174C200005F081
:100450006BFB2000022104F038FD144E2A0031000D
:10046000276103A809F054FC200003A905F094FFBC
:100470000F4B009A23616B00D25A310003A809F098
:1004800047FC200003A905F087FF200005F0ACFC25
:1004900021240A20013C08F039F8002CF9D101355B
:1004A000D0E711B0F0BDC0469C04002064AA000053
:1004B00009001000AA4AF8B51168050001230800D8
:1004C0001840194202D1A74913608870A64A012337
:1004D000116808001840194202D1A44913608870BD
:1004E000A34A0123116808001840194202D1A1490A
:1004F00013608870A04A012311680800184019424F
:1005000002D19E49136088709D4A0123116808003A
:100510001840194202D19B49136088709A4A0123FE
:10052000116808001840194202D198491360887078
:10053000974F984E002D20D00123974A0B2413701B
:10054000964A1370964A1370964A1370964A13701F
:10055000964A13700023964A3B701370954A337085
:100560001370954A1370954A1370954A1370954A03
:100570001370954A13702000F8BD3B78002B21D0F2
:100580002900784803F0CAFB0B24002800D03D70F6
:100590003778002F5CD00021744803F0BFFB00289F
:1005A00001D000233370884B1D78002D00D194E0DA
:1005B0000021704803F0B2FB0028DCD00023824AFF
:1005C0001370D8E7032008F033FB03005A1E934151
:1005D000744A1370704B1B78002822D1674C002B93
:1005E0000BD032215F4803F08BFB012320007749B9
:1005F0003B7003F085FB0B240EE02900200003F084
:100600008DFB0028F7D0FA210122694B2000490018
:100610001A70042403F074FB624B5F4A1B7813705A
:10062000B6E7664C002B07D132214E4803F068FB39
:1006300001233B702370DEE72378002BDBD05C4B7B
:1006400025701A780924002AE6D01D700234E3E7E9
:10065000042008F0EDFA03005A1E9341524A137029
:100660004E4B002821D11978464D00290ED0322159
:100670003E4803F045FB012328005449337003F042
:100680003FFB494B454A1B7813708CE7280003F069
:1006900045FB0028F5D0FA210122464B28004900ED
:1006A0001A70052403F02CFBEBE71B78444D002B5C
:1006B00007D132212D4803F023FB012333702B7027
:1006C000DFE72B78002BDCD03A4B2F701A78002A0A
:1006D00001D01F70D5E70A24D3E7072008F0A8FA55
:1006E00003005A1E9341314A2D4F137000281DD12B
:1006F0003978264D00290ED032211E4803F000FB28
:100700000123314A31491370280003F0F9FA274BCD
:100710001B783B702FE7280003F000FB0028F6D081
:100720000124FA21244B49001C70EDE73B78254E4B
:10073000002B08D132210F4803F0E2FA0123224AAC
:1007400033701370E3E73378002BE0D01A4B357029
:100750001A78002A01D01D70D9E70624D7E7C046D1
:10076000280E0020460E0020300E0020500E0020E3
:10077000380E00205A0E00202C0E00204A0E0020B9
:10078000340E0020560E00203C0E0020600E00208B
:10079000420E0020440E00201D0100201E010020FA
:1007A0001F0100201A0100201B0100201C01002055
:1007B0004E0E0020540E00205E0E0020400E002041
:1007C000410E0020430E0020450E00201A040000B8
:1007D000F8B5242706260C2502242F4B0800198083
:1007E000012108F0C9F93A002C492D4808F09AFE79
:1007F0002C4B3A002C492D481E8008F093FE2C4BC0
:100800002A002C492C481E8008F08CFE2B4B2A0015
:100810002B492C481C8008F085FE2B4B2A002B49C5
:100820002B481C8008F07EFE2A4B2A002A492B48C0
:10083000AD191C8008F076FE294B2A0029492A4868
:100840001C8008F06FFE294B2A00013428492948F2
:100850001C8008F067FE284B2A00284928481C8085
:1008600008F060FE274B3622274928481C8008F0F4
:1008700059FE0922264B27491A8027483A0008F0DA
:1008800051FE264B1822264926481E8008F04AFEB3
:100890000422254B1A80F8BD4000002028AE00003D
:1008A000980C00203E130020D4AD0000E807002083
:1008B00032130020D8AC0000600D0020401300204F
:1008C0001CAE00002007002030130020CCAC00003C
:1008D000D00B00203C13002010AE0000080B0020BD
:1008E0003A1300204CAE0000C80400202A13002058
:1008F00000B30000900500202C1300206CB3000012
:10090000580600202E13002012B3000078090020A2
:100910003613002048B30000400A0020381300209E
:10092000F8AD0000B00800203413002010B50129F4
:1009300007D1C8222F4908F0F5FD2F4B1B8818005E
:1009400010BD022905D1C8222C4908F0EBFD2C4B23
:10095000F4E7032905D1C8222A4908F0E3FD2A4B10
:10096000ECE7042905D1C822284908F0DBFD284B13
:10097000E4E7052905D1C822264908F0D3FD264B16
:10098000DCE7062905D1C822244908F0CBFD244B19
:10099000D4E7072905D1C822224908F0C3FD224B1C
:1009A000CCE7082905D1C822204908F0BBFD204B1F
:1009B000C4E7092905D1C8221E4908F0B3FD1E4B22
:1009C000BCE70A2905D1C8221C4908F0ABFD1C4B25
:1009D000B4E70B2905D1C8221A4908F0A3FD1A4B28
:1009E000ACE700230C29AAD1C822184908F09AFDC7
:1009F000174BA3E7980C00203E130020E8070020C7
:100A000032130020600D002040130020200700203A
:100A100030130020D00B00203C130020080B0020D6
:100A20003A130020C80400202A130020900500205B
:100A30002C130020580600202E13002078090020D7
:100A400036130020400A002038130020B008002090
:100A500034130020F0B5B3B081B26846FFF766FFEB
:100A60000A210500154803F04BF90024032120005A
:100A700008F034FA80B2A8421ED2104E0021300095
:100A800003F04CF90028F8D06B466946671C7F00DC
:100A9000DA5B6300C95A0A4B188805F0E7FF6A461B
:100AA000A31C5B00D15AD35B3000C91889B2033450
:100AB00003F026F9A4B2D9E733B0F0BD64130020E7
:100AC00040000020F0B5A84CA84DA5446B690190EA
:100AD0000E0028002969170002AA05F077FAE02223
:100AE000A34C9200200002A908F01CFD607CA37CAE
:100AF000002865D1002B5FD19622920062800222ED
:100B00001900FF322261019A63602275994AA3603D
:100B1000E3606675A775A361D1520233642BFBD1E4
:100B20000023190094481A1802331180522BFAD16D
:100B300000229446914BD118634602320B802A2A38
:100B4000F8D18F4B22880021D218D719019BBE19EA
:100B5000F618DF22874B92009C46A65063465F5AE8
:100B60000231F6196429F9D1A6500022815A0232C5
:100B70007618522AFAD1DF2200219200A6507F4B2C
:100B8000585A023136182A29F9D1A650E0222100FC
:100B9000920002A808F0C6FC28006A69296905F0DD
:100BA00003FA28006B69296902AA05F0B1F97549B1
:100BB000754805F003FC0120E3239B009D44F0BD34
:100BC00000208342F8D1704D7049280005F0F6FBF3
:100BD0006F49280005F0F2FB0A222188280005F061
:100BE00056FC0A226188280005F051FC0A22A188DF
:100BF000280005F04CFC0A22E188280005F047FC9B
:100C00000A222189280005F042FC0A226189280075
:100C100005F03DFC0A22A189280005F038FC0A22D3
:100C2000E189280005F033FC0A22217C280005F028
:100C30002EFC0A22617C280005F029FC0A22A17CF6
:100C4000280005F024FC0A22E17C280005F01FFCA6
:100C50000A22217D280005F01AFC0A22617D280065
:100C600005F015FC0A22A17D280005F010FC0A22DF
:100C7000218B280005F00BFC0A222800618B05F06F
:100C800006FC2600B18B0A22280005F0FCFB414F30
:100C90002800390005F080FB3F4B02369E42F1D11F
:100CA000280005F083FB0026334B0A22995B2800BD
:100CB00005F0E9FB02363900280005F06DFB522EE5
:100CC000F2D1280005F072FB00262C4B0A22995B1A
:100CD000280005F0D8FB02363900280005F05CFB3F
:100CE0002A2EF2D1280005F061FB638820880022BB
:100CF000C018A3881B18E088C01823891B186089B6
:100D0000C018A3891B18E089C018237C1B18607CBD
:100D1000C018A37C1B18E07CC018237D1B18607DC5
:100D2000C018A37D1B18208BC018638B1B1811489B
:100D3000815A02325B18642AFAD100220E49895A7C
:100D400002325B18522AF9D100220C49895A023228
:100D50005B182A2AF9D1DF229200A058C01A434218
:100D60005841C0B228E7C04674FCFFFFD00E0020F7
:100D7000EC0E0020080F00206C0F0020BE0F00209A
:100D80005A02000069AA0000701F002076AA000025
:100D90008BAA00009CAA0000500F00200839030015
:100DA00010B508000A2909D808F08EF8363B4045EE
:100DB00008080808091E0600214AD38110BDFA223E
:100DC000181CD200934200DD101C030400D5002043
:100DD000322100B208F00CF900B2194A403040004C
:100DE000835A01338352E9E7164A181C934200DD07
:100DF000101C154B02B29A4200DA181C134B00B2B9
:100E0000C018142108F0F4F80D4B68304000181891
:100E1000438801334380D1E719004A1E9141084AB3
:100E2000D17419004A1E9141054A117519004A1ED4
:100E30009141034A5175581E8341014A9375BDE79C
:100E4000EC0E002004100000E40C00001CF3FFFF77
:100E500000B5042809DC002809DB0138114B032800
:100E600006D808F031F8090D1115172814D000BD67
:100E7000DA880132DA80FAE71A8901321A81F6E754
:100E80005A8901325A81F2E79A8901329A81EEE752
:100E90009A8801329A80EAE7024A538B01335383DE
:100EA000E5E7C046EC0E002030B52B4900204A880B
:100EB0000B882A4C9B188A88294D9B18CA88A54400
:100EC0009B180A899B184A899B188A899B18CA898A
:100ED0009B180A7C9B184A7C9B188A7C9B18CA7CAE
:100EE0009B180A7D9B184A7D9B188A7D9B180A8B4C
:100EF0009B184A8B9B18DF2292008B502C5A023091
:100F00001B196428FAD18B500022164CA05A0232C9
:100F10001B18522AFAD1DF2200209200124D8B506A
:100F20002C5A02301B192A28FAD18B50E02268462D
:100F3000920008F0F7FA0D4C20006269216905F073
:100F400033F86A4620006369216904F0E1FFE12378
:100F50009B009D4430BDC046EC0E00207CFCFFFF92
:100F6000080F00206C0F0020BE0F0020D00E0020C4
:100F7000F7B5A025A126009200220193124B6D0027
:100F80007600A224A4465F889C4464461F801F000C
:100F90002488A0373C80F1249F5B64005F531F5B73
:100FA0000132023C1F5302334F2AEAD1074B4C3225
:100FB000FF329852064A99520099064A9952064AB7
:100FC00001999952F7BDC046E80F0020EC0E0020B1
:100FD0003A020000DA0200007A03000030B5394C12
:100FE0003948A54401AD436901692A0004F0EEFFC8
:100FF000E022364C29002000920008F093FA236882
:101000003348019363680293A3680393E3680493EE
:10101000237C2B82637C6B82A37CAB82E37CEB82A0
:10102000237D2B83637D6B83A37DAB83238BEB833A
:10103000638B2B840023C15AEA1802335184642B3A
:10104000F9D18A22002323486A44C15AD15202337B
:10105000A02BFAD19522002352001F486A44C15A9E
:10106000D1520233A02BFAD1E522002352001B48B3
:101070006A44C15AD1520233A02BFAD10023184A34
:1010800018486A44C15AD1520233A02BFAD1002326
:10109000154A16486A44C15AD1520233522BFAD12A
:1010A00000231348D7AAC15AD15202332A2BFAD1AE
:1010B000C2212800FF31FFF7BFF9E3239B009D44C5
:1010C00030BDC04674FCFFFFD00E0020EC0E0020A7
:1010D000080F0020E80F00208810002028110020B1
:1010E0006A020000C81100200A0300006C0F0020F3
:1010F000BE0F0020074B70B504001A00323405788B
:1011000001309D830233A042F9D11183FFF7CCFE59
:1011100070BDC046EC0E0020064B01001A0010B551
:1011200032319C8B0233047001308842F9D1108B2C
:1011300010BDC046EC0E0020F0B595B007AF3800EA
:10114000FFF7EAFF00243A4D0590280004F0ECFC7C
:101150000221280003F0B9FE280036492C6105F071
:101160001BF90C23059A03265343334A403B1BB219
:101170001380A34233DA314B1C80059BA34212DD5E
:101180002E4E3B5D0022B15E0222029200220192AD
:101190000132009228000F3203F00EFE3388013432
:1011A0000C333380E9E7280004F01EFE15B0F0BDD3
:1011B0001F4804F019FE0A2007F0A8F90A2007F0DA
:1011C000A5F90A2007F0A2F90A2007F09FF90A20E2
:1011D00007F09CF9013403E0013E002EE6D0002424
:1011E0000321154B00229A5ED3170B409B189B10CE
:1011F0000133A342F0DB042300255B4263430F4A23
:101200001380059BAB42D3DD0C4F07AB0022B95EC8
:101210000222EB5C02920022019201320092044809
:101220000F3203F0C9FD3B8801350C333B80E8E702
:101230009C0400209EAA0000C0120020B00E0020D6
:1012400010B50449044805F0C3F8FA20800007F0FF
:101250005DF910BDA2AA0000701F0020F7B50500BF
:101260000C200E000192082707F0BEFA0024280087
:1012700007F024FB013F041924B2002FF7D1072304
:10128000E017184004192248E4104443E017000511
:10129000000D0019FA2400136043962107F0A8FE00
:1012A00064251C4BC4186C431B4B9C4215DB1B4B29
:1012B0009C4228DC20001A4907F09AFE194B05B21F
:1012C0009C420CDC0123019A092013703370FFF754
:1012D000C1FBFFF767F82800FEBD3D00F2E7124BA7
:1012E0009C4210DC019B19241F7001233370FFF70F
:1012F00039F80B20FFF7AEFB0A20013C07F006F996
:10130000002CF9D1E7E70023019A33701370E2E76C
:10131000B80B00001CF3FFFF13FDFFFFE5270100E2
:10132000EE02000093110000DF2E000030B5002116
:1013300085B04648002404F0DBFBE022444B4549DD
:101340009C709200444804F0CBFD6421434B14226E
:101350009C70434B96209C70424B8000D980FA21B0
:101360005A80F6321C809A803F4B89001C8059803D
:101370009A80D8803D4B3E481C805880C820800011
:101380009A80D8803B4B0B2059803B491C80998028
:10139000C8214900D980394B39499A80423ADA80CC
:1013A000C8221C805980374B12015A800222FF321A
:1013B0001C809A809622344D1201DA802880012107
:1013C00007F0DAFB0023E85E210007F005FC2F4D53
:1013D00022002800302102F065FE00233222022183
:1013E0000092019328000294313A02F02BFF284B1F
:1013F0009C70284B9C70284B9C70284B9C70284BF1
:101400009C70284B9C70284B9C70284B9C70284BE0
:101410009C70284B9C70284B9C70284B9C70284BD0
:101420009C70284B9C70284B9C70284B9C70284BC0
:101430009C70284B9C70284B9C70284B9C70284BB0
:101440009C70284B9C7005B030BDC0469C040020A9
:101450006413002000AF0000D00E0020FC1200201A
:101460006A0E00206E0E0020C4120020DE12002042
:1014700088130000B4130020010A0000101300209C
:101480006C070000701200204C0400205401002062
:10149000F8120020981300206C13002090130020F5
:1014A000AC130020841300207C1300207013002054
:1014B0008013002074130020941300208C1300204C
:1014C0008813002068130020B01300205C13002054
:1014D00060130020A4130020A01300209C13002000
:1014E000A81300207813002073B51B4C06000421BC
:1014F000200003F0EAFC194B002163611E230A005F
:10150000200001910093223302F0D2FF0A21300023
:1015100007F06EFD0A2501B26D424D430F23AD1950
:10152000632E00DD0E4B23610A22200004F0ABFF86
:10153000012301930233200000931922262102F097
:10154000B7FF2C2329000A222361200004F09BFF0F
:10155000200004F049FC73BD9C0400200100010040
:10156000FCFF0000F0B5334C060085B0200004F00D
:10157000DBFA6425642E02DCF543ED1735400321C8
:10158000200003F0A2FC2C4B002163611C230A0005
:10159000009320000191243302F08AFF092E3EDCE3
:1015A000264B290023610A22200004F06CFF00264C
:1015B00001272023082220000193009232213200CB
:1015C0001F4B0396029703F075FA20230822200090
:1015D000019300923A2132001A4B0396029703F0CE
:1015E00069FA122300930C3B1A0020003621019760
:1015F00002F05EFF0A20372168434942019607F056
:10160000F7FC0623123000B21A00362100902000A9
:1016100002F04EFF200004F0E7FB05B0F0BD132EF2
:1016200001DC094BBDE7632E01DC084BB9E78023E1
:10163000DB02B6E79C040020010001001F0004004B
:101640000000002020000020120004000D00040013
:10165000F0B5012305002A4C2A4E85B0002923D07D
:101660002360002333602368274F9BB2019320231C
:101670001E22009302213800DB1802F019FF002D12
:1016800014DC236838009BB2019320231E220093B0
:101690000221DB1802F00CFF380004F0A5FB1A4809
:1016A00004F0A2FB05B0F0BD2160DBE7291C0F2D83
:1016B00000DD0F2100250BB203933368124F9BB25C
:1016C00001930723ADB2A90000931E22053B380009
:1016D00009B202F0EDFE0135039B2DB2AB42ECDA0C
:1016E0001900236801319BB20193122389000093F2
:1016F0001E22380009B22E3302F0DAFECFE7C046D0
:10170000900E0020400100209C04002070B50A4C7F
:101710000D000022A35E834200DA20800023E05EF9
:10172000A621533007F064FC290000B2FFF790FFB8
:101730000023238070BDC046640E002013B5134BF8
:101740000124134A002914D000211C601160114C9F
:10175000002811D0136800219BB2019307231E2299
:101760000093053B200002F0A3FE200004F03CFBA8
:1017700013BD19601460EAE71B681E229BB2019337
:10178000072301000093053BECE7C046900E0020C4
:10179000400100209C040020F0B500250224012611
:1017A00089B0FEF725FDCC4F380004F0BDF90221C9
:1017B000380003F08AFBC94B3D617B612A001B2383
:1017C0002900380002940195009603F0F5FA4123B0
:1017D0002A001C21380002940195009603F0ECFACF
:1017E0001A232A003421380002940195009603F050
:1017F000E3FA380004F0F8FA1022B94B1D80B94B17
:101800001A80B64B0793B84B1B78002B00D006E22A
:10181000B64D2B880B2B2DD10020FEF74BFEFA2165
:1018200028804900B24802F079FA0028F0D0B14B84
:10183000B14D0021595EAB4B00229A5E2B78002BF4
:101840000FD000230126019300961633380002942E
:1018500003F0B2FA2B785E402E70380004F0C4FA20
:10186000D6E701202870009002943800019303F01D
:10187000A3FAF2E7092B01D0042B32D19F4AA04EE4
:1018800012883378013A0021934201D00133D9B252
:10189000317000250E232A000093102116333800E2
:1018A000019502F005FE3378964AD35C112B12D1D4
:1018B000102395493B61380004F06EFD934B1B7873
:1018C000002B35D1380004F08FFA0020FEF7F2FD2E
:1018D000864B188097E7FA2B13D110238C493B6174
:1018E000E9E70A2B01D0052B15D1854E3278531E1E
:1018F000DBB2002A03D1814B1B88013BDBB2337082
:10190000C7E701221C21009238002A0002940195A9
:1019100003F052FAD2E7062B01D0012BCED1784B3F
:10192000784A1B78D25CFA2A45D1784BF93A1A707A
:1019300000260125380004F0F7F859233200310061
:10194000380002940196009503F036FA4E233200D7
:101950003421380002940196009503F02DFA059683
:1019600006956A4E3378002BACD00020FEF7A2FD1E
:101970005E4B80B21880092802D0042800D081E094
:101980000025069B102229003800009302942B00AA
:10199000019503F011FA069B1022009334211823BD
:1019A00038000294019503F007FA012305933800EB
:1019B00004F01AFAD5E7574B1B88112A3BD1002BAC
:1019C00011D00021544AD218013A1170013B1A1C5F
:1019D0009BB20F2B00D90F224E4B91B21A804F4869
:1019E0000A2204F054FD1022002540232900009211
:1019F0003800019502F05CFD464B394A19880429EC
:101A00001DD81580364E0023F15E424B1B88AB4239
:101A100033DD344A404B0020125E0020EB5C019025
:101A2000013000900294380003F0C6F93388013584
:101A30000C333380E6E73849CA540133C7E70C2337
:101A40005B424B4334331380254E0023F15E314B10
:101A50001B88AB4211DD234A2F4B0020125E002071
:101A6000EB5C0190013000900294380003F0A4F97F
:101A7000338801350C333380E6E7194B1A881D4B48
:101A80001A801BE70A2801D0052816D10025069BDD
:101A9000102229003800009302941823019503F0C6
:101AA0008BF9069B1022009334212B0038000294FE
:101AB000019503F081F9022378E7062802D0012876
:101AC00000D074E7059B022B2AD1074B069A1A70A7
:101AD000002333706BE7C0469C0400200100010026
:101AE000B00E0020B40E0020B60E0020880E00209C
:101AF0006A0E0020B20E0020670100206001002065
:101B00008C0E002020010020B5AA0000660E0020E7
:101B1000B9AA0000BE1200208A120020701F002007
:101B2000059B0025012B78D13800357003F0FCFFB0
:101B30002100380003F0C9F9079B3D617B61059BDB
:101B40002A0029003800009302941B23019503F01A
:101B500033F9059B2A001C2138000093029441238D
:101B6000019503F029F9059B2A00342138000093E0
:101B700002941A23019503F01FF9380004F034F998
:101B8000102140230A0000913800019502F090FCDA
:101B9000744B754A1988042919D81580724E002390
:101BA000F15E704B1B88AB422FDD704A704B0020FA
:101BB000125E0020EB5C01900698029400903800C1
:101BC00003F0FAF8338801350C333380E6E70C2351
:101BD0005B424B4334331380634E0023F15E614B11
:101BE0001B88AB4211DD614A614B0020125E002070
:101BF000EB5C0190069802940090380003F0DCF84A
:101C0000338801350C333380E6E7574B1A88594B3C
:101C10001A800022584B1A70C9E60595C7E60024C1
:101C2000380003F081FF554938003C6104F0B4FBF3
:101C30004C4B53481A880C2353439BB2190040392C
:101C400009B20180A1422CDA0226474B1C80454B89
:101C50001B88A34214DD444D444A454B0021525E8B
:101C60000020295E0020E35C019001300090029684
:101C7000380003F0A1F82B8801340C332B80E6E701
:101C8000380004F0B1F8374B39481988FFF732FAB9
:101C9000C8240A20013C06F039FC002CF9D109B017
:101CA000F0BD1400324988180138013C02D306788F
:101CB0004671F9E75700C81949000D0005240026B0
:101CC000391A013C06714E550138002CF8D12549CE
:101CD0000A320A802A4A383313800334002503214C
:101CE000274B00229A5ED3170B409B189B100133A1
:101CF000AB4233DB042300265B426B431A4A13805A
:101D0000184B1B88B34215DD174F184A184B00219A
:101D1000525E0020395E0220F35C029000200190A8
:101D200001300090174803F047F83B8801360C3328
:101D30003B80E5E7134804F057F80A2006F0E6FB7D
:101D40000A2006F0E3FB0A2006F0E0FB0A2006F07A
:101D5000DDFB0A2006F0DAFB0135C0E7013C002C70
:101D6000BCD190E7BE120020B00E0020B40E0020BF
:101D70008A120020B20E00208C0E00209EAA0000C5
:101D8000C01200209C0400200023F0B50125B74FAD
:101D900087B03B70B64C2388A12B00D1DAE0A22B90
:101DA00000D1F5E0032006F043FF002800D0FBE05F
:101DB0000A2006F0ABFBF5E73B780493002BE9D053
:101DC0002388A12B5ED10025AA4C0226200003F017
:101DD000ABFE0221200003F078F8A749200025611E
:101DE00004F0DAFA1E2320002361A44904F0D4FA97
:101DF000A34B1F780296AF4200D00BE101231D00D8
:101E0000009310223B0008212000019702F0D4FF2C
:101E10002B00029601970095173310222C212000E9
:101E200002F0CAFF0120FEF745FB01270A2006F059
:101E30006DFB0020FEF73EFB924B80B28D4E18806A
:101E4000092802D0042800D0F3E000250223102244
:101E500008213000029301952B00009702F0ACFF9F
:101E60000223102202932A21163330000195009795
:101E700002F0A2FF824B1D70049D7E4803F0B4FF68
:101E8000002DD3D17A4B1B88A22B61D10025794C30
:101E90000226200003F048FE0221200003F015F87E
:101EA00075492000256104F077FA1E232000236184
:101EB000724904F071FA744B1F780296AF4200D059
:101EC00077E101231D00009310223B000821200030
:101ED000019702F071FF2B000296019700951733CE
:101EE00010222C21200002F067FF0120FEF7E2FA09
:101EF00001270A2006F00AFB0020FEF7DBFA614BFF
:101F000080B25C4E1880092802D0042800D05FE11E
:101F100000250223102208213000029301952B0096
:101F2000009702F049FF0223102202932A21163360
:101F300030000195009702F03FFF534B1D70049D48
:101F40004C4803F051FF002DD3D101224F4B1A70A2
:101F500007B0F0BD474E300003F0E6FD2900300029
:101F600002F0B3FF4A4B4B493361300004F014FADE
:101F7000002220231100300000930195DB1802F0AD
:101F8000CBFA300003F030FF0720FEF763FD09E7CE
:101F9000384E300003F0C8FD2900300002F095FFF4
:101FA0003D4B3E493361E0E7042006F041FE002846
:101FB00000D1FDE632260A20013E06F0A7FA002EE7
:101FC000F9D12800FEF776FA354E30800022B35E54
:101FD0000B2B00D0F0E60A2006F098FA0020FEF75E
:101FE00069FA3080092801D0042809D12388A12B5F
:101FF00002D1A2232380E9E7A22BE7D1A123F9E7AD
:102000000A28F3D00528F1D0062801D00128DDD117
:102010003D70DBE701231F000093102217330821D6
:102020002000019502F0C8FE2B0002960195009752
:10203000F3E60A2801D0052834D100250223102216
:1020400008213000029301951633009702F0B4FE88
:102050000223102202932A212B00300001950097C1
:1020600002F0AAFE064B1F7006E7C046CC0E002009
:10207000500100209C040020CCAA0000CFAA000040
:10208000BC120020880E00206E1200206601002085
:1020900011000C00BDAA00000A000C00C3AA000039
:1020A0003C010020062803D0049D012800D0E4E66E
:1020B0000025200003F038FD3900200002F005FF64
:1020C00094492000256104F067F910231022009341
:1020D000290030332000019702F01EFA10230593E7
:1020E0006421280006F084FF059A03B20021300025
:1020F00000920197102202F0DBF90A2006F006FA9E
:102100000A2006F003FA300003F06EFECA234035C1
:102110005B019D42E4D132250A20013D06F0F6F92B
:10212000002DF9D17C4E09213078FEF737FEFEF7FD
:10213000BBFE33782000794E002B1DD003F0F4FC59
:102140000221200002F0C1FE31002561200004F0D0
:1021500023F980235B0372492361200004F01CF9FA
:10216000200003F041FEC8350A20013D06F0CEF9FB
:10217000002DF9D1002580E603F0D6FC02212000D5
:1021800002F0A3FE31002561200004F005F9802350
:102190005B0364492361200004F0FEF8200003F093
:1021A00023FEC8250A20013D06F0B0F9002DF9D123
:1021B000E0E701231F0000931022173308212000BD
:1021C000019502F0F9FD2B0002960195009787E634
:1021D0000A2801D0052817D1002502231022082142
:1021E0003000029301951633009702F0E5FD0223BB
:1021F000102202932A212B0030000195009702F053
:10220000DBFD494B1F709AE6062803D0049D012888
:1022100000D095E60025200003F086FC3900200060
:1022200002F053FE3B492000256104F0B5F810236D
:1022300010220093290030332000019702F06CF93E
:10224000102305936421280006F0D2FE059A03B2FC
:102250000021300000920197102202F029F90A2093
:1022600006F054F90A2006F051F9300003F0BCFDE5
:10227000CA2340355B019D42E4D132250A20013D4D
:1022800006F044F9002DF9D1274E284B32789A7583
:10229000FEF70AFE33782000254E002B1DD003F0F8
:1022A00043FC0221200002F010FE310025612000D5
:1022B00004F072F880235B0319492361200004F0C5
:1022C0006BF8200003F090FDC8350A20013D06F0B0
:1022D0001DF9002DF9D1002532E603F025FC02217D
:1022E000200002F0F2FD31002561200004F054F8D6
:1022F00080235B030B492361200004F04DF820008C
:1023000003F072FDC8250A20013D06F0FFF8002DFC
:10231000F9D1E0E7D3AA0000BC120020BDAA00005A
:10232000CCAA0000CFAA00006E120020EC0E002004
:10233000DDAA0000E121F0B5BD4D87B028000902FB
:1023400005F008FDBB49280004F038F8BA4801F050
:1023500059FDBA4801F0BEFCB94C02002080B949D1
:10236000280004F035F82388B74CDA0700D407E1D9
:102370002800B64904F022F8102323800221072008
:1023800006F0FAFB0221032006F0F6FB02210420EE
:1023900006F0F2FB01210D2006F0EEFB0121080002
:1023A00006F0EAFB01210D2006F016FC01210800D1
:1023B00006F012FC23881A00113A012A00D843E3E0
:1023C000152B00D1AEE2A24B11201988FEF700FABE
:1023D000FDF70EFF002101220800FEF773FB002825
:1023E00002D101229B4B1A709B4B1B7C002B00D10E
:1023F00005E10122994B9A481A7003F095FBFA21E6
:102400009848890001F07CFC944B1C78002C00D18A
:10241000E6E00F20FDF778FE0A23934C0F2160437E
:102420000013584306F0E4FD904B18801220FDF78E
:102430006BFED0232721584306F0DAFD44438C4B32
:102440002413002187481C8001F068FC002848D034
:10245000884B894F1C683868210006F03FFD874E85
:1024600021003860306806F039FD002300227C4CE2
:10247000306001932033110020000093123302F0EA
:1024800017F80121200002F020FD002320003A6807
:102490007B49236103F09CFF80235B033268794909
:1024A0002361200003F094FF774A3B6877499B182B
:1024B00032222261642B00D97549200003F088FF85
:1024C000C821744A336889009B18734A22618B4281
:1024D00000D97EE06D49200003F07AFF200003F070
:1024E00083FC64216D4801F019FC002817D0624A72
:1024F0005E4B11681B880D205B1813605F4A5C4BB4
:1025000011681B885B18012113605A4A1368013354
:102510001360634B1A785140197006F05DFB32214D
:10252000604801F0FBFB002807D001215E4B0B2027
:102530001A785140197006F04FFBFA215B484900A8
:1025400001F0ECFB002810D0434B0A222800198828
:1025500003F09DFF564C57482278002A3BD00022BA
:102560003C21FDF7E7FD00232370072006F060FB08
:10257000002800D048E7384B1874384B187043E7F0
:102580009A0705D528004C4903F018FF1123F4E6FB
:102590005A0705D52800494903F010FF1223ECE63D
:1025A000DA0605D52800464903F008FF1423E4E6BF
:1025B0009A0605D52800434903F000FF1523DCE601
:1025C0005B0600D4DAE628003F4903F0F7FE162345
:1025D000D3E62F497FE77821FDF7ACFD0123C3E760
:1025E00021000B2006F0F8FA01210D2006F0F4FA84
:1025F000220032212F48FDF79DFDFEF755FC1320E8
:10260000324A3349FEF72AFE0024324F3880200038
:10261000FEF7A8FF2100642006F0EAFC0025060072
:10262000AE4259D0012005F071FF0135F8E7C046F0
:10263000701F0020E1AA0000D0130020CF1300205B
:1026400002130020EAAA000000130020F0AA0000F4
:1026500040000020BE0E0020EC0E0020521300208F
:102660009C040020A8130020B80B000004130020D5
:102670000A130020AC0E0020541300205813002031
:1026800048AB00004DAB00004AFCFFFF52AB00001E
:1026900055AB000050E2FFFF32001000A4130020F1
:1026A00053130020A0130020511300209C1300207E
:1026B000501300204C04002005AB000011AB0000BB
:1026C0001DAB00002CAB00003BAB0000BF0E002098
:1026D000C60E00208A0E00203B880134A34296DA01
:1026E00064240A20013C05F011FF002CF9D1FDF70C
:1026F0000DFEDD4CE37C002B00D0BDE0FDF706FEB7
:102700000320FEF7A7F9E289D84B1A80002A00D1EE
:10271000BCE0227DD64BD7491A70A27DD64B1A70E9
:102720000023D64A1380D64A1380D64AD488201C68
:102730008C4201D9D44800881080D44A1380D44BED
:10274000D888021C884201D9CF4A1288D149D24880
:102750001A8001F0D5FAD14E3378002B00D1F0E089
:10276000032006F065FA002800D093E0043006F05C
:102770005FFA051E00D08DE0C94C2778002F00D1EC
:10278000AFE0C84C0127200003F0CEF90121200062
:1027900002F09BFBC4492000256103F0FDFD1022DF
:1027A0000197402329002000009201F0B5FE059713
:1027B00009376421280006F01BFC059A03B2019238
:1027C000102200210092200001F072FE380005F076
:1027D0009DFE380005F09AFE380005F097FE38009F
:1027E00005F094FE380005F091FE200003F0FCFA9D
:1027F000CA2340355B019D42DBD1C8250A20013D3B
:1028000005F084FE002DF9D1FDF780FDC8350A20C2
:10281000013D05F07BFE002DF9D1200003F084F985
:102820002000012102F051FBA04B20002361A049B0
:1028300003F0B2FD012301931F332A002900200079
:102840000093203301F068FE200003F0CDFAC82485
:102850000720FEF7FFF864000A20013C05F056FE51
:10286000002CF9D1FEF798FF08210120FEF796FA17
:10287000FDF74CFD34703EE0FEF75EFCC8250A20F3
:10288000013D05F043FE002DF9D137E73222E28108
:102890001A803EE70021804801F040FA041E3BD137
:1028A000844B00229B5E012B25D10221824A30708D
:1028B0001180824A1070824A1070824A1380824AC4
:1028C0001070824A1070824A1370824A1370FDF7AA
:1028D000A5FCFA218048890001F012FA7F4B1C7098
:1028E00009E07F4D0023E95E01290AD17D497E4838
:1028F00001F006FA2F800020FDF7DCFD6D4B1880FB
:1029000029E70029F7D1784801F008FA0028F2D029
:10291000012323702B80EEE7002301223370664BE6
:102920001A80E8E71720FEF793FA00220121100031
:10293000FEF7C8F8002802D101226C4B1A70FEF78E
:10294000B3FA05F0B3FD6A4B4E4F1860474B0F20AA
:102950001A8864235343674A0A249B187B80FDF737
:10296000D3FB604D0F2168430013604306F040FB2A
:10297000614B18800F2005F0A1FF6843000B0F2169
:10298000604306F0ABFA5D4B18601220FDF7BCFB0C
:10299000D0232721584306F02BFB0300FA216B4379
:1029A000574A1B131380544A98B212888900504327
:1029B00006F01EFB534B18801320FDF7A5FBFA23EE
:1029C000684300139621584306F012FB4E4C4A4BC5
:1029D0004E4E208019883000FDF7E0FB0595002859
:1029E00000D1A5E001224A4B1A70334B00255D5FF0
:1029F000022D00D0F1E00127464D474E2978474C83
:102A00003770002906D1344801F088F9002800D138
:102A100095E02F702378002B00D097E03378002BBF
:102A200000D1ACE001233E493E4A13202370FEF75B
:102A300015FC3D4B80B21880FEF794FDFA213B480F
:102A4000890001F05DF99AE0122B00D079E70022AD
:102A500001211000FEF736F8002800D071E70122AE
:102A6000224B1A706DE7C046EC0E00206401002076
:102A7000BC120020FEFF00006E120020C4120020D5
:102A8000DE120020B413002098AB000010130020C9
:102A90007012002088130000B01300204E010020A7
:102AA000CB0E00209C04002059AB000008000C0055
:102AB00064AB00003C0100206201002044130020B0
:102AC000C40E00204C010020CA0E0020CE0E0020B3
:102AD000C00E002066010020801300204801002065
:102AE0004A010020B80B00005C130020BE0E00203D
:102AF0004813002030F8FFFF041300200C130020BF
:102B00000A13002006130020081300206E0E002078
:102B1000C2120020C90E0020CF0E0020BD0E0020E2
:102B2000C60E0020BF0E00208A0E00206C1300206D
:102B30003388002B00D058E77A4A137055E72A787B
:102B40002378002A00D065E7002B18D0764D0021AD
:102B5000280001F0E3F8002806D1744B00229B5EA8
:102B6000012B0CD1724B35E0714C2378002B30D007
:102B7000FA212800890001F0C3F8002323706D4C6E
:102B80006A4E0022A35E6C4D022B01D000F0ECFED9
:102B90006A4A1378002B01D100F039FF0423238007
:102BA00000231370664A67491370674A0B706749C0
:102BB0001370674A0B702B7001331370654A6649B6
:102BC0006648137001F09CF8FA216548890000F00E
:102BD000A8FF5A4B01221A70D1E7002D62D0042DB4
:102BE00000D0CAE35F4C217800291ED15C4801F077
:102BF00095F8002819D00122554B21001A70132096
:102C0000594AFEF72BFB594B80B218802378002BD2
:102C10000BD0FEF7A7FC4B240A20013C05F076FC04
:102C2000002CF9D101224B4B1A70404B4B4C002227
:102C30009B5E0B2B00D0B6E20021200001F06EF865
:102C400000280CD04A4A138801331BB213801E2B74
:102C500000D0A3E20121474B197000231380032009
:102C600005F0E6FF444D002815D1043005F0E0FFE3
:102C7000002810D1414F4249380001F041F80320AB
:102C800005F0D6FF002800D195E20120FDF712FCE7
:102C900000223C4B1A8000233B4A2B7013603B4AB6
:102CA000138012E13A4B3B4E19883000FDF776FA5B
:102CB000002815D001221424374B03201A70374BFB
:102CC0001C80FEF7C5F8364B358000229A5E274BF4
:102CD0000021595E334B0020185E2300FEF748F9AF
:102CE000314E3578002D00D040E1304B304C1F780C
:102CF000002F5FD139000D2005F06EFF20003A0053
:102D00006421FDF717FA2D2005F000FC244B012269
:102D100019882000FDF70EFA0123024A3370137060
:102D2000D3E0C046C21200206C1300203C010020FA
:102D3000BB0E00206201002044130020C30E0020BF
:102D4000CF0E0020CE130020BD0E0020C90E0020A3
:102D5000C10E002066010020307500007C130020A9
:102D600090130020C60E0020BF0E00208A0E002007
:102D7000940E0020CD0E0020C80E002078130020F5
:102D8000EE0200006C120020A80E0020421300206A
:102D90000413002010130020C20E0020B80E0020E3
:102DA0006401002006130020670E0020BC120020E2
:102DB0004C040020D94B1B88312B00D8C1E02A00DD
:102DC00020003221FDF7B6F929000D2005F004FF9F
:102DD000322005F09BFB32240A2501222100D04835
:102DE000FDF7A8F90F2005F069FD059B0F21584359
:102DF000000B684306F072F8CA4B81B21860CA48EB
:102E0000FDF7CCF9142005F081FB07340F20FDF706
:102E10007BF9782CE1D10F2005F050FD059B0F21A7
:102E20005843000B684306F059F8C04B0A25188038
:102E3000122005F043FDD0232721584306F04EF819
:102E4000FA21059BBA4A43431B0B1380B74A98B239
:102E500012888900504306F0CBF8B64B0021188049
:102E600000B2FEF753FCAD4B0A211E88A01B06F0F2
:102E7000BFF8010069438919A94E01223000FDF70E
:102E800059F90F2005F01AFD059B0F2158430A231D
:102E9000000B584306F022F8A24B81B21860A248FA
:102EA000FDF77CF9062005F031FB0F20FDF72CF92A
:102EB000013DD8D2994B012219883000FDF73AF92B
:102EC00001239D4A13709D4A13709D4B9D4C002514
:102ED0005D5F0B2D00D0CBE100219B4800F01EFF71
:102EE000002804D0012300222370984B1A808B4BBA
:102EF0001A88131C782A00D97823954A11789AB237
:102F0000002900D134E2192A00D21923834A9BB246
:102F100013802378002B0DD08E4B0020185E0028E4
:102F200001D0FDF797FD7D4B0020185EFEF7DCFA1F
:102F3000002323707F4B00210020185EFEF7E6FB84
:102F40001DE601210D2005F017FE29000D2005F0DA
:102F500043FE01223C212000FDF7ECF814250A2055
:102F6000013D05F0D3FA002DF9D1CFE6FA217A48D8
:102F7000890000F0D3FE00283AD0784A78491368D7
:102F8000013313600A6801320A60062B30D1684BA6
:102F90006421188805F0A2FF724B664C0021595E2F
:102FA00002B20023E05E0023FDF7E2FF0023E05EB3
:102FB0001021FDF7F3FE6C4B6C4A1B88181C1BB2EA
:102FC000934200DD101C6A4B02B29A4200DA181CD0
:102FD000684B00B2C018142106F00AF80022664BB4
:102FE0006830400018184388013343805B4B1A60F7
:102FF0005D4B624C19882000FDF7D0F800281ED1E7
:103000002388002B1BD1E2885D49131C8A4201D919
:103010005C4B1B8823805C4B4A4D1C78002C72D083
:1030200096234F4C5B0022689A4208D3FDF79AF929
:103030000B20FDF70FFD01232B70002323603B4B7A
:10304000524E19883000FDF7A9F83A4C002814D0E8
:10305000012010254E4B18704E4B1D80FDF7F8FED9
:10306000002333802D4B00229A5E3E4B0021595E97
:103070000023E05E2B00FDF77BFF474D21882800F1
:10308000FDF78CF8002815D00122414B3A491A70FF
:103090001123404A1380CA880132CA8000222A8044
:1030A0001E4A0021525E2F490020095E0025605F04
:1030B000FDF75EFF1E4B38001988FDF76FF80028FA
:1030C00000D002E73B88002B00D0FEE60122304B07
:1030D00002301A702F4B11321A80FDF7B9FEFA88B0
:1030E0002749131C8A4201D9264B1B883B800B4B76
:1030F00000229A5E1B4B0021595E0023E05E1223E2
:10310000FDF736FFE1E601261E70FDF72BF90B20D7
:10311000FDF7A0FC124B2E701C6090E764010020AC
:103120004C0400200C1300206E0E0020041300201D
:103130000A13002006130020C2120020670E002090
:103140003C01002066010020941300206C12002036
:103150006E1200204213002088130020980E0020D9
:103160009C0E00208A0E002008130020041000008E
:10317000E40C00001CF3FFFFEC0E00207012002096
:10318000FEFF000098AB0000C70E0020C412002014
:10319000C20E0020B80E0020DE1200202000C94917
:1031A00000F0AEFD5BE52000C64900F0A9FD00225D
:1031B000C54B1A8053E5042005F03AFD041E00D0EB
:1031C00063E52B780593002B4CD13800BF4900F004
:1031D000A5FD002826D0BE4E03203368013333609E
:1031E000FDF738FC3368BB4C012B22D1200002F0E4
:1031F0009BFC0823802623610221200001F065FE4C
:103200007603B549200003F0C7F8022120002661AB
:1032100001F05BFEB1492661200003F0BDF8AD4826
:1032200002F0E2FD0122AE4B1A700B23AD4A13806F
:1032300025E5022B04D180235B03AB492361EBE737
:10324000032B04D180235B03A8492361E4E7042B0B
:10325000E5D12000A64903F09FF801232B70059BC0
:103260003360DCE7FEF790FD994B2C701C60D9E7CA
:103270000027A04A1780012D50D1FA219E4E9F4869
:10328000338889000133338000F03AFD3388012B05
:103290000FD19B4A1278BA4209D03C2202218D48B4
:1032A00002F0B6FC974B1888FEF75CF91FE63280F7
:1032B0001DE69A1E022A2AD8864D280002F034FC08
:1032C000102302212B61280001F0FFFD8E49280008
:1032D00003F062F880235B032B610221280001F0D8
:1032E000F4FD3388032B0BD0042B0ED07B49022B2B
:1032F00007D0280002F078FD0320FDF7ABFBF6E5D0
:103300007949280003F048F8F3E77849F9E7052BF5
:1033100000D0ECE57D4B37801D70E8E57C4B1B88C9
:10332000042D0AD1772B00D9E1E50A3378490B80C7
:1033300003231380023B2370D9E5092D04D1772B99
:1033400000D9D4E50133F1E7052D09D1192B00D8B7
:10335000CDE50A3B6E490B8004231380033BEAE76B
:103360000A2D00D0C3E5192B00D8C0E5013BF1E7D9
:10337000282A00D3CAE52823C8E5012D00D013E28E
:10338000644B654E1A78002A2BD0002235701A70D3
:103390000122624B1A703378614E002B09D03388BA
:1033A000934206D1962100235E488900338000F0C5
:1033B000A7FC3588002D27D15A4F2900380000F08E
:1033C000ADFC002801D1FFF7C8FB574C2378002B38
:1033D00016D096213800890000F092FC2570FFF786
:1033E000CEFB3778002FD3D1FCF79CFF39004F4834
:1033F00000F094FC0028CBD03570FCF787FFC7E7BE
:1034000002233380FFF7BBFB022D01D0FFF7B7FB90
:10341000474F484D3B78002B00D199E02B78002B8B
:1034200001D000232B70FDF73FFD002308262380E9
:10343000132005F043FA059B96215843FA23000B0D
:10344000584305F04BFD2388013EC01820803220F0
:1034500005F05CF8002EEBD12388374ADB1023807F
:10346000934207DD3100012005F0B6FB01210B205E
:1034700005F0B2FB314C0323314A0721200002F052
:1034800003FE200002F0D6FD072004F057FF0121C3
:10349000080005F0A1FB00210B2005F09DFB642036
:1034A00005F034F8FCF7A4FE2B78002B01D1FFF7D0
:1034B00066FB002301223B70224B234923481A80DC
:1034C000FFF7BFFA30750000940E0020EE020000F6
:1034D000A80E00209C0400206DAB00001BAB000078
:1034E000660100203C01002072AB000077AB0000B9
:1034F0007DAB0000421300206C12002094130020CA
:10350000C10E00208A0E0020CFAA0000CD0E0020A0
:103510006401002048010020CA0E0020CE0E0020C9
:103520004C010020AC130020BB0E002074130020BF
:103530004F010020C50E0020470D0000681C002030
:10354000FD00000046010020E2040000841300207A
:103550002B78002B01D1FFF712FB072005F068FB49
:10356000002811D00021DE4800F0D8FB002800D050
:1035700016E1DC4B00229B5E012B01D0FFF7FFFA26
:10358000D94A1370FFF7FBFA042005F051FB00281D
:10359000E8D1D64B1B78002B01D1FFF7F0FAD44DC0
:1035A00001272A78002A7ED1D24C2388012B04D10E
:1035B000D149D2482280FFF744FA002B01D0FFF70F
:1035C000DEFA0021CD4800F0A9FB002801D1FFF769
:1035D000D6FA01232B702380FFF7D1FA0A2004F0DA
:1035E00095FFAAE00A2802D0052800D0D4E00023E5
:1035F0002370D1E0BE4B1B78002B54D00926C04C61
:103600006425200002F090FA0221200001F05DFC08
:10361000BC4B0A2231002361200002F034FF20005D
:1036200002F0E2FB0A20013D04F070FF002DF9D109
:10363000013EE4D2FDF7D2FC200002F075FAB24957
:103640002561200002F0A8FE80235B03AF492361BF
:10365000200002F0A1FE200002F0C6FB64350A2023
:10366000013D04F053FF002DF9D1200002F05CFA77
:10367000A7492000256102F08FFE80235B03A54946
:103680002361200002F088FE200002F0ADFB984B81
:1036900008201D70FDF7DEF9200002F045FA9E4972
:1036A0008F4800F02DFB924B1B78002B01D1FFF7C8
:1036B00066FA934C6425200002F036FA02212000BD
:1036C00001F003FC954B0022236120231100200010
:1036D00000930197DB1800F01FFF8B49200002F0D8
:1036E0005BFE200002F080FB0720FDF7B3F90A2003
:1036F000013D04F00BFF002DF9D10226200002F05D
:1037000013FA20008649256102F046FE2000592365
:103710001022290002960195009701F04DFB200030
:103720004E231022342102960195009701F044FBAC
:10373000200002F059FB7B4C2770072005F078FA37
:10374000002800D14AE7042005F072FA002800D1D1
:1037500044E7032005F06CFA002800D13EE738006A
:10376000FCF7A8FE2378002B00D143E70020FCF7EC
:10377000A1FE5C4B624D1880092802D0042800D0BD
:1037800030E700235A4A28002370137002F0CCF966
:103790006149534800F0B4FA280002F025FBE1E744
:1037A00001233B70FFF7EBF9032D01D0FFF7E7F999
:1037B0005D4B1B78002B45D15C4B188810380428D2
:1037C0001FD805F081FB5E037B1E5E0001234C4C7D
:1037D0000E221F21200000930C3300F0E7FF00258C
:1037E0000C23062200931E21093B2000019500F0C6
:1037F0005FFE03231422019500931E21200000F098
:1038000057FEC8214A4800F089FA4A4B002803D0E5
:10381000012219784A401A70197800295CD02023B7
:10382000002100931E2236480191DB1800F040FE73
:103830000021414800F072FA3B4B002800D18DE096
:1038400001221A7000233D4A3D4913703D4A1380FE
:103850003D4A1380F888021C884201D93B4A1288ED
:103860003A803B4A13803B4BD888021C884201D9DE
:10387000364A12881A80FCF749FDFDF715FBFFF761
:103880007EF901232F221E4C039319331F212000A0
:1038900002930192009300220B3B00F0B4FF00253D
:1038A0000C23072200931E21093B2000019500F004
:1038B000FFFD03231522019500939EE701230021BC
:1038C00002931D330193223300930A00224B0C48CC
:1038D000039101F094F894E70F20FDF7B9FEA7E7F4
:1038E000841300203C010020C40E0020C00E0020E4
:1038F000BC0E002046010020881300006813002041
:103900009C0400201C000A0083AB0000B9AA000040
:103910008EAB000094AB0000E20400000A000A0035
:1039200088AB0000BA0E002044010020B80E002031
:1039300060130020680E002070130020C20E0020CB
:10394000FEFF0000C4120020DE12002098AB000031
:103950001013002070120020E4AC00001B78002B34
:1039600001D1FFF70CF96DE7002B00D0B1E0002288
:10397000B35E062B01D0012B1FD10423A54A0620DC
:1039800013800023A44A2B701370A44A1370A44A16
:103990001360A44A1360A44A1370A44A136001225E
:1039A000A34B1A70FDF756F8A249A34800F0A8F9F6
:1039B000FA21A248890000F0A3F9A14B1B78002B43
:1039C00025D000240323934A01210D2013802C705D
:1039D00005F0D2F801210D2005F0FEF88F4B994932
:1039E0001C708F4B98481C608E4B1C608E4B1C705B
:1039F0008E4B1C60954B1C7000F082F9FCF786FC26
:103A000020002100FDF724FE0C20FDF723F82A7882
:103A10008F4B002A00D0C7E0002401210D201C702C
:103A200005F0AAF801210D2005F0D6F821002000AC
:103A3000FDF784FE874B88491C80884B1C80884B8F
:103A4000D888021C884201D9864A12881A80864B7F
:103A50001C80864BD888021C884201D9814A128872
:103A60001A80FA21824B83481A88834B8900DA81B5
:103A700000F054F9002818D0E122804C920023680D
:103A800001332360934210D17D4D2B78002B00D160
:103A9000B9E0002201211000FDF714F801230028ED
:103AA00000D000232B70002323600020FCF702FDD0
:103AB000308004F0FBFC734C734B206022681B6861
:103AC000D31A724A934201D9FEF73BFF04F0EEFC91
:103AD000F2E7042B33D100226D4B1A700022B35E43
:103AE000062B0BD16B4B1B78002B1DD00920FCF74C
:103AF000B1FFFCF757FC0122674B1A7067490B783E
:103B0000002B00D183E7002301220B70FA216448C7
:103B10002B700370634822800370634B63481A70F4
:103B2000890000F0EDF872E701223B492A700A7023
:103B30003F4A052023801370FCF78CFFDEE7012B42
:103B400019D15B490A78002A00D160E7022222805D
:103B500000220A7057492A700B8051490A70514956
:103B60000A70554A13704C4A1370FCF757FBFA2140
:103B700052488900D5E7032B00D048E7304B1A782C
:103B8000D3B2002A00D042E7043222800124224A24
:103B90002B701370264B274927481C7000F0B0F893
:103BA0003D4B1C70FFF710F81B4A1278002A00D119
:103BB00032E701221A702E4B1A88131C782A1DD95D
:103BC00078232B4A99B21380314B1B78002B10D0ED
:103BD0003B4B3C481A78FCF7ADFA254B1B88272B4A
:103BE00007D901210D2004F0C7FF00210D2004F0AA
:103BF000F3FF00210120FDF7A1FD32E792B2192A5F
:103C0000DFD21923DDE70420FDF722F9FDF74CF997
:103C100049E7C04662010020CE130020C60E0020F6
:103C2000980E00209C0E0020C70E0020A00E002041
:103C3000C10E0020307500007C130020901300207E
:103C4000C20E0020DC05000070130020440100209B
:103C5000E80E0020C4120020FEFF0000DE1200204B
:103C6000B413002098AB0000101300207012002045
:103C70006401002098130020EC0E0020A40E002008
:103C8000BE0E00204C13002048130020A761000046
:103C9000670E0020BF0E002066010020CD0E002020
:103CA000CA0E0020CE0E00204F0100207413002009
:103CB000C40E00204C010020C00E00208013002004
:103CC000C21200204C0400200022014B1A707047E1
:103CD000CF130020014B1878C0B270473804004061
:103CE0000221064B1A788A431A70DA79D209FCD17C
:103CF000997901320A439A717047C046001000401A
:103D00000B005A1E934170B505000C1E837004D041
:103D100004F0C6FB013C24182C8070BD70B584787B
:103D200005000E00002C0AD0048804F0B9FB074AF5
:103D3000231A9BB20024934205D95B42DCB23100C6
:103D40002800FFF7DDFF200070BDC04660EA0000DC
:103D500000207047F8B505000E0017000024BC4293
:103D600008D02B682800315D1B689847002801D0D7
:103D70000134F4E72000F8BD70470300FC33196AF2
:103D8000DA69914203D01B6AC018007E7047012097
:103D90004042FBE70300FC33D8691B6AC01A01D517
:103DA0000130FF3070470000F7B50193FA238027F8
:103DB000002504009B008360114B7F0008330E0038
:103DC00045602900009203603A00183005F0B3FB0B
:103DD00023002000FC332130DD613A001D62290000
:103DE000FF3005F0A8FB87239B00E3185D609D6012
:103DF000009B20002375019B2661A5756375FEBDA0
:103E000080B3000070B5040018260C49006902F068
:103E1000DBFD206902F02AFC33000821207D084DDB
:103E20004343EB18595604F01BFF0821607D4643BD
:103E3000AD19695604F014FF70BDC046A08601009C
:103E400020C1000070B504000D00006902F023FCE1
:103E50002900206902F0B8FD206902F007FC70BD5E
:103E60008A2300229B00C1540C3BC3185A609A60FD
:103E70000123837570470200FC32536810B501338B
:103E80009468DBB29C4202D054680155536010BD67
:103E900010B50300827D002082420ED0872292005E
:103EA0009C186268A4680132D2B2A24205D02133C4
:103EB000FF331800FFF7DFFF012010BD0300FC33C4
:103EC00099685A68914206D09A68805C9A68013273
:103ED000D2B29A60704701204042FBE700228A2359
:103EE00070B59B00827505000E00C15C006902F090
:103EF00005FC002806D10321286902F0E9FB022411
:103F0000200070BD872328009B00EA18536894683E
:103F10002130FF301C1B01D50134FF34002C0ED0A2
:103F20002C69FFF7CBFFC1B2200002F025FC00286E
:103F3000E8D10321286902F0CBFB0324E0E7002E3F
:103F4000DED00321286902F0C3FBD9E710B50121B7
:103F5000FFF7C4FF10BD10B51830FFF7AFFF10BD5D
:103F600070B50400006902F029FC002814D0206913
:103F700002F032FC002810D0206902F09FFB0321E0
:103F8000206902F0A5FB8C239B00E558002D39D158
:103F90000023FC34E361236270BD206902F026FC3B
:103FA000002809D0206902F01CFC002804D02069F8
:103FB00002F021FC0028DFD0206902F017FC002865
:103FC00026D1206902F003FC0028E5D0206902F028
:103FD00012FC002837D087239B00E21853689268B0
:103FE0009B1A01D50133FF33FF21002B05D02000A0
:103FF0002130FF30FFF762FFC1B2206902F0CFFB32
:10400000A075C9E7236820001B699847A847BFE748
:10401000206902F053FB2069032102F059FB20695B
:1040200002F0E9FB0028B7D0872300229B00E318A9
:104030005A609A600123A3758B239B00E358934237
:10404000AAD09847A8E72200FC32D369126A01334C
:10405000DBB22069934206D102F027FB03212069DD
:1040600002F036FB98E702F0CBFB0100200018308D
:10407000FFF701FF206902F021FBEFE710B50248CE
:10408000FFF76EFF10BDC046D013002010B51523FA
:10409000142202490248FFF787FE10BD7822002053
:1040A000D013002030B5234B002A37D0224A5A6063
:1040B0005A78D209FCD1214A9A605A78D209FCD1A7
:1040C0001F4A5A805A78D209FCD15F241D4A946451
:1040D0001D4CD46402221D4C25782A4322701C4AB0
:1040E0005A605A78D209FCD101320271FF291CD9D9
:1040F000FF210422016009021143164A11605A7817
:10410000D209FCD1144A154911805978C909FCD14A
:10411000134911805A78D209FCD130BD114A124C92
:1041200014605A78D209FCD1DFE70029E1D10131CE
:10413000DFE7C046000C0040050703000530000023
:10414000014500000008004028100000440800401D
:1041500004080300080C0040020C00401A44000050
:104160001B440000040C004004070300F8B50400E1
:10417000182500200B0020492E0046438E599E42F0
:1041800004D001300E28F7D1002034E00020834213
:1041900031DB01266B43C9184B68184D8868DB0179
:1041A0005B191D1840352F7840083E431B182E70B0
:1041B000303318784D69CE682843C0B21870282370
:1041C0007343A4680E4D20000F69EB18944200D988
:1041D00010009A69DB69002105F016F8220000231F
:1041E00004F0F2FF28235E43AA59386093685B020B
:1041F0001B0FFBD10120F8BDA4B300000044004117
:1042000068010020002010B5022913D828234B4351
:104210000B4CE318981CC2775B680220002A0AD076
:104220001A681043186028235943625893689B0703
:10423000FCD4012010BD1A6882431A60F3E7C0461F
:1042400068010020F7B508AB30CB1E7800940195CB
:104250000023022958D81C00012A17D0022A13D0A3
:10426000042A53D0082A54D0102A54D0402A55D0BA
:104270000133FF339A4253D08023E024DB009A427B
:104280004AD00024012201E08024640028254D4307
:10429000244B5D196F686A613A6814436A1CD677CB
:1042A000AA683C6015680224002E00D11E4C2C43E5
:1042B000146028224A439C58A2685206FCD4019AF2
:1042C000009F9446002A02D1022F00D20227282202
:1042D000150000264D435D192D69664503D1BD4289
:1042E00001D93D0066464A439A189561D661D26865
:1042F0001560A2685203FCD428224A439B1802335B
:10430000DA7FFFF77FFF01231800FEBD8024A400A1
:10431000BCE7C024FBE78024E400B7E7A024FBE768
:10432000C024F9E76801002005000F007047F0B5D0
:1043300015000C001E0089B00EAB00229B5E0FAA78
:104340001288019005925A1BD11752184A400292C6
:10435000321BD11752184A4003920399029A8A429B
:1043600005DD32001E00130022002C001500B442AF
:1043700005DD2A001D001300220034001600321B48
:1043800091B20691591BC8170918414012B2079102
:10439000D10F8A1852100092012204929D4202DB32
:1043A00001235B420493B44222DC019B039A1B6805
:1043B0009B691F00029B934216DD22002900059B8A
:1043C0000198B847009B079A9A1A11B293B20091CC
:1043D000120406D5049AAD18069A2DB2D3181BB252
:1043E0000093013424B2DEE72A002100059BE7E7B1
:1043F00009B0F0BD704710B504682469A04710BD2E
:1044000037B506AC258804680095A46BA04737BD76
:1044100037B506AC258804680095E46BA04737BD26
:1044200073B506AC0025655F07AC26880468019665
:104430000095246CA04773BDF0B5160004000D0074
:1044400085B003930AAB1F8803685B699847039B99
:104450002268013B9B191BB2009301972B00290096
:104460002000976A3200B84723682000DB6A98472B
:1044700005B0F0BDF0B505001C000E00170085B0BA
:104480000AAB1B88013C03930368A4195B69984736
:1044900003992A68019100973100280023B2946A99
:1044A0003A00A0472B682800DB6A984705B0F0BDAA
:1044B000F0B50E0087B003930CAB029200229B5E16
:1044C000040004930DAB1B883500059303685B69FA
:1044D0009847039A2368B21895420BDA059A290087
:1044E00000921B6A20001F00029A049B0135B84706
:1044F0002DB2EEE72000DB6A984707B0F0BD13B598
:1045000001910E24015F0C22835E02680091146CFD
:1045100000221100A04713BDF0B5040015000E00E5
:1045200087B004930CAB00229B5E05930DAB1B88F8
:10453000039303685B699847039A236800923100EC
:104540002A0020005F6A049BB847059B03995A1E06
:10455000236800915219310020005F6A12B2049B57
:10456000B847039A2368009231002A0020001F6A8E
:10457000059BB8470499039A236801390092891969
:104580002A0020001F6A09B2059BB8472368200053
:10459000DB6A984707B0F0BD7047F0B585B002936D
:1045A0000AAB0027DF5F0BAB1B8816000393029B4F
:1045B00004000D000268994210D1BE4202DD3300B2
:1045C0003E001F00039901370091BB1B976B1BB284
:1045D000320029002000B84705B0F0BDBE420CD122
:1045E000029B994201DD029D0291029B03990133D6
:1045F0005B1B0091D76B1BB2EAE753699847039A9C
:1046000023680192009720009F6A3200029B2900D4
:10461000B84723682000DB6A9847DDE703230B4097
:1046200010B583760822835E0A24025FC90702D48C
:104630008381C28110BD8281C381FBE74281C28137
:104640000122002310B55242064C4261064A08344A
:1046500043600460018181810361826103770362A9
:1046600010BDC046F4B9000001010001F0B51C0006
:104670008FB00692012214AB1B780591079315ABFE
:104680000021595E16AB1B8805000893A3B2D01A0F
:1046900093405B421BB289180C938BB2099304932D
:1046A000002300B2029003930D92039BA3427BDA96
:1046B000029B2700002B09DB0C9B671E02331AB2FA
:1046C0000C92029A3FB29B181BB202936B469B89D5
:1046D0000A9301339AB21BB203930B925300029ACE
:1046E00001339B181BB20293039B9F422CDB079B59
:1046F0000D9A134212D00999BAB25300CB180699F9
:104700000B988A1A05992E68411808981BB20090D8
:10471000306A12B2060009B22800B0470222079B95
:10472000134211D00999BAB25300CB1806990B98CD
:104730008A1A0599089E091A28680096066A1BB20B
:10474000280012B209B2B047BC4227D0079B0D9A8D
:1047500013420FD06B460A9910229B5E069A089E60
:10476000521A0599286809190096066A12B228009B
:1047700009B2B0470222079B13420FD06B460A9939
:1047800010229B5E069A2868521A059912B2091BDC
:10479000089C09B20094066A2800B047049B3C00BC
:1047A00002339BB2049380E70FB0F0BDF0B51E005A
:1047B00004000F0087B00CAB1B88049205930368BC
:1047C0005B69984704990598B2B253008A1A216828
:1047D0000090096A01330D00200039001BB212B2AB
:1047E000A847059B3900029300230193033320005F
:1047F000049A00933300FFF739FF23682000DB6A37
:10480000984707B0F0BDF0B591B01D0016AB02920D
:1048100000229B5E0700039317AB00269E5F18AB38
:1048200000229B5E039A049319AB1B880C0009932A
:10483000029B934200DCD7E0049A93421DDD049B67
:10484000039A934212DA1300049A0392029A029393
:104850002B003500260004921C000EE0029B039AF8
:104860000393230002922C001D00E8E7029B049AA8
:104870000493230034001E0002923B6838005B69F9
:104880009847039B049A93421DD1A54202DD2B0059
:1048900025001C00B54205DC231CB44200DA331CA1
:1048A0002E001CB209993A6801340091A31B556A85
:1048B00031003800039A1BB2A8473B683800DB6A16
:1048C000984711B0F0BDA3B2ADB205935B1B1BB20C
:1048D0006A460D936B4691891B89B6B25A1A12B279
:1048E0000E92721B12B208926A46128A511A09B2CB
:1048F0000B910599D21A761A31B212B20C910F921D
:104900000499029A0A928A4202D0013B1BB20A938E
:104910000023039E079306930A9B9E422ADC0E996E
:10492000069804F065FB28180B9904B2079804F068
:104930005FFB0D9A069B9446089A6344944606933F
:10494000079B2818634400B20793844202DD2300CA
:104950000400180009993A680091526A013094469F
:10496000031B32002100380064461BB20136A04709
:1049700036B2D1E7029BF21A0C9B53430293039B7E
:10498000089AF31A5A430392049B9E4200DD94E76F
:104990000F99029804F02CFB059B0B99181804B290
:1049A000039804F025FB0C9A029B9446089A6344F2
:1049B00094460293039B2818634400B203938442F5
:1049C00002DD23000400180009993A680091526A38
:1049D00001309446031B32002100380064461BB2AC
:1049E0000136A04736B2CFE7039B049A934200DD1D
:1049F00034E7029A029303922B000D002CE7F0B5E6
:104A00008DB0079312AB069200229B5E0591019335
:104A100013AB00229B5E0400089314AB1B88002696
:104A2000099315AB1B8835000A9303685B699847A7
:104A30000722019B0B92D91DCB1713405B18DB108B
:104A4000029333009AB20392069A99B28A1812B26C
:104A50000492089A934227DA0023019A93421DDABE
:104A60009AB200920B9A6D00EDB2134203D1079AED
:104A7000DB109219D55C2368059A9B691F00009B87
:104A800099186AB2099B09B2002A00DB0A9B200030
:104A9000049AB847009B01331BB2DEE7039B029ADE
:104AA00001331BB2B618CDE723682000DB6A9847B4
:104AB0000DB0F0BDF0B585B00AAC0025645F0BAD5C
:104AC0000026AD5F0DAF0CAE36883F880296039787
:104AD00001950094FFF793FF05B0F0BDF0B595B0D8
:104AE0001D001AAB1B88049205931BAB1E881CABE0
:104AF0001B78026A02931DAB1B7804000891039394
:104B0000002A00D0C4E00C22835E8B4200DC7DE0F2
:104B10000E22835E049A934278DD0623029A534361
:104B20005B18002B72DD039B049ADB009B18002BA3
:104B30006CDD037F002B03D1AF2D01D90135EDB220
:104B4000236820005B69984705220023554307939B
:104B5000984B0B925B190F93079A0F9B9B5C0A93E0
:104B60006B469B8B09936B461B89099A0E936B4688
:104B70001F8C029B5343FB181BB20D9308230C930D
:104B80000023069301220A9B2068134252D06B46F1
:104B90001A8B198A029B012B3AD1039B012B37D127
:104BA000099B52188569D919059B12B209B22000D8
:104BB000A847069B01335BB206930A9B5B080A93E6
:104BC0000C9B013BDBB20C93002BDBD1079B013329
:104BD0005BB207930B9B013BDBB20B93002BBBD16A
:104BE000059BB3420ED0029B2268012B3FD1039B51
:104BF000012B3CD105370096156A2000049A39B282
:104C00000733A84723682000DB6A984715B0F0BD3A
:104C10006B4608255B5F039D6A438A18059912B2AB
:104C2000019169460C25495F0091C5690D992000E5
:104C3000A847BEE7059BB342BBD06B461A8B198AC7
:104C4000029B012B0AD1039B012B07D1099B521810
:104C5000D9198569330012B209B2A8E76B46082555
:104C60005B5F039D01966A438A1812B2D9E76B46CF
:104C700008215B5E05210E9801964143039879183F
:104C8000C0000090D5692000049A09B2A847B9E78E
:104C9000137A5168ED1A1268EDB2ED0013924A5B77
:104CA0004B1909929A780D92DA78119205229A5648
:104CB0009B790E925BB20F93029B012B02D8039B50
:104CC000012B56D96B4638229B5E0B936B463C22D8
:104CD0009B5E0C930027236820005B699847079729
:104CE0000697119B069A9A4200D38BE76B461B8A64
:104CF00000260A930C9B9B18039A53430A9AD318D5
:104D00001BB210933B000D9A96424BD25A1CD2B262
:104D100012920722134207D1099B0999139A013372
:104D2000525C9BB2079209936B461B7F5BB2002BD0
:104D300017DA6B46198C029B2068012B1DD1039B4F
:104D4000012B1AD10A9B0F9A9A18069BD2180E9B18
:104D500012B2C918836989191D002000059B09B288
:104D6000A847079B01365B00DBB20793F6B2129BA4
:104D7000C9E700230C930B93ACE76B4608229B5EBC
:104D80000B9A029D92196A438918059A09B20192F9
:104D90006A460C25525F0092C26920001500109AE5
:104DA000A847DEE7069D0D9B0135FF18EBB2FFB269
:104DB000069396E7F4B400007FB508AC258809ACEB
:104DC00026880AAC24780196009503940294FFF794
:104DD00085FE7FBDF0B5026A04000D0085B0002A93
:104DE0002CD10A2908D1437E0282DB00628A9B18FB
:104DF0006382012005B0F0BD0D29FAD01223C25EF6
:104E00001023C15E437E0393037E0293C38A019302
:104E1000838A00932B00FFF761FE227E238A312DC7
:104E200008D1042A02D113332382E2E7032A01D1F5
:104E30000E33F9E706214A439B18F5E70A2905D105
:104E400000230382127B437E5343CFE70D29D0D04A
:104E5000137A9942CDD3917AA942CAD3EB1A5168F9
:104E6000DBB2DB00CE18B178002929D0F378002B13
:104E700026D0E37E007E677E002B13D00523F356F9
:104E80005B1843439C461023E15E8C440C23E15E97
:104E90008C4507DD1223E15E00232382137B7B43D5
:104EA0005B1863821223E25E1023E15EE38A0290C4
:104EB0000193A38A2000009303972B00FFF70EFEB7
:104EC000227E33795343228AB6E70B1C002900D196
:104ED000012303764376704710B500F02DFB0022C6
:104EE000024B8000C35849331A7010BD5816002079
:104EF000F0B5040085B01E000AAB1B78103001939A
:104F00000BAB1B78170002930CAB1B780D000393BF
:104F100000F094F92000243000F090F922000023E2
:104F20004832A363E3632364636413705370637252
:104F30009D4205D12721084B084A094804F082FA0E
:104F40002000019B25606371029B2771E371039B25
:104F5000A671237205B0F0BD4CBA00005DBA000026
:104F6000B1BA000030B5040085B002AD006802910E
:104F7000039201F036FB6B79227AE1792068009385
:104F8000002301F0F7FC2979029A206801F04EFB1A
:104F9000206801F01CFB05B030BD000007B5837A26
:104FA00000910192002B07D09A070AD5EFF31083E6
:104FB0005A425341C37272B60099019AFFF7D2FF69
:104FC00007BDDB07F8D5C368014A9BB29360F3E7DE
:104FD0000018004010B5006801F00CFB10BD000087
:104FE00010B5006801F01AFC03000020834203DBC7
:104FF0000C304343014A985810BDC04618BB00000E
:1050000010B5006801F00AFC002805DB0C234343BF
:105010000348C018406810BD01204042FBE7C0466D
:1050200018BB000010B5006801F0F8FB002805DB94
:105030000C2343430348C018806810BD0120404240
:10504000FBE7C04618BB0000F0B5060010360500AF
:1050500089B0300000F048F900286CD12F002437C7
:10506000380000F041F9041E62D12800FFF7DAFF92
:10507000C1B2300000F018FA0221300000F038FA16
:1050800001222E49300000F00BFA300000F054FAF3
:105090002B4B8000C5502800FFF7B2FFC1B238008B
:1050A00000F002FA0221380000F022FA380000F085
:1050B00043FA234B8000C5502800FFF791FF0123DE
:1050C0000100220002933000230004940394019411
:1050D000009400F033FAA8632800FFF781FF012352
:1050E00002002100019338002300049403940294E9
:1050F000009400F023FAE863402004F0FFF92A004E
:1051000048322864079200280BD00123137068648A
:105110006B6C10221819E96B103404F003FA402C60
:10512000F6D1079B1B78002B05D1380000F076F9EB
:10513000300000F073F909B0F0BDC046D94E000050
:105140005816002070B5437A0400002B03D10122C9
:1051500043814272C360230048331B78002B02D185
:105160002000FFF771FF18263300082120790D4D2C
:105170004343EB18595603F073FD33000821A0791F
:105180004343EB18595603F06BFD08216079464301
:10519000AD19695603F064FD034B200006CBFFF701
:1051A000E1FE70BD20C10000501600201FB5094A65
:1051B000094B0A4913600023938002930133019342
:1051C00016330093162201330548FFF791FE05B010
:1051D00000BDC0465016002000093D007C22002082
:1051E00004160020084B1968002909D1EFF310803C
:1051F000064A002803D172B6BFF35F8F01311170E8
:105200001A6801321A60704718180020141800201C
:10521000084B1A68002A0CD01A68013A1A601B68F9
:10522000002B06D1044B1B78002B02D0BFF35F8FFD
:1052300062B670471818002014180020FF2310B51C
:105240000370C023002104009B00417041808380D3
:105250000C22083004F06FF9200010BD01230A0071
:1052600010B51A40194208D00C4A1370033343702A
:105270008368002B00D0984710BD0223194204D048
:1052800006490B70C3684270F3E704231942F3D058
:10529000024A1370033343700369EAE74E48004142
:1052A00010B5FFF79FFF0C4B1B8C1B071B0F0B2B25
:1052B0000FD80A4A9900885800280AD00F240849B4
:1052C0000A78A24313430B70064B1978C9B2FFF753
:1052D000C5FFFFF79DFF10BD004800411C180020CE
:1052E0003F4800414E480041F8B5002302780500D0
:1052F00018000B2A77D93C4E2B702B780B2B07D834
:1053000001229A403168114204D001332B70F4E736
:10531000012068E0FFF766FF3768344C002F2BD17F
:105320002022334B334859690A435A611022D96904
:105330000A43DA61022223883900934323802388B9
:10534000013A134323802C4B6063BF32A36304F004
:10535000F2F8C0223900284804F0EDF84022C120BC
:10536000264B80002380264B26491A601A5811408C
:10537000C02212040A431A5001231A002978306807
:105380008A40024332600F261F4A880085501F481A
:1053900031400278B2430A43027002201C4A11785D
:1053A00081431170117819431170297822698B405B
:1053B0009A43226160223F21636C934363642A799C
:1053C000636C0A40134912020B40032113436364C8
:1053D0006A79636C0A40104992050B401343636479
:1053E000FFF716FF0020F8BD10180020004800410C
:1053F000000400405017002090160020020F00000B
:1054000000E100E0FFFF00FF1C1800203F480041C2
:1054100040480041FFC0FFFFFFFF3FFF70B50500A0
:10542000FFF7E0FE6B785CB2062B2BD02B780224C2
:105430000B2B27D801229A40144B1968114221D016
:105440001968914319601B68002B14D14022104B3E
:10545000DA67BFF34F8FBFF36F8F21000D4A0E3114
:105460001388A34313800C4BDA698A43DA615A69C3
:1054700010318A435A6100242B78084A9B009C50C3
:10548000FF232B70FFF7C4FE200070BD1018002012
:1054900004E100E000480041000400401C18002026
:1054A0000232920011507047037870B505000C006D
:1054B00001710B2B14D8FFF795FE29780F250948A9
:1054C00029400378084AAB430B4303703F23516CD8
:1054D0001C40064B240219400C435464FFF798FE0D
:1054E00070BDC0463F48004100480041FFC0FFFF7B
:1054F000037870B505000C0041710B2B14D8FFF731
:1055000071FE29780F25094829400378084AAB43E2
:105510000B4303700323516C1C40064BA405194038
:105520000C435464FFF774FE70BDC0463F48004111
:1055300000480041FFFF3FFF00787047F0B587B09B
:1055400001930CAB1E780DAB1B78050002930EABDC
:105550001B780078039310AB1F78049105920B28F9
:1055600002D9002007B0F0BD6B78062BF9D0AB78DC
:10557000002B00D179E01021080003F0B5FF0028CE
:10558000EFD02B783B4A1B019B181A00D1680029E9
:1055900004D0D1688B4201D0D268F7E7D0600122F5
:1055A0000223AA70964203D0DB18022E00D013000B
:1055B00006240188114301800188A14301800188EC
:1055C0001234A1430180153C018826402A4C360242
:1055D00021400E430680029E0188284C164021403F
:1055E000B6020E430680039E0188254C16402140DA
:1055F000F6020E4306800188224E3A4031401203E3
:105600000A43072102800F9A114002884903D204FD
:10561000D20C0A4302806A4692884280049A426011
:10562000029A002A08D0019A41685A43002F01D0FB
:105630000F9CA2408A184260059A8260039A002A51
:1056400009D0019A84685A431300002F01D10F9AA0
:105650009340E31883600023EA789A4203D02B78C2
:10566000044A1B019B18C3607CE7024B0001C01871
:1056700095E7C04650170020FFFCFFFFFFFBFFFF30
:10568000FFF7FFFFFFEFFFFFF0B5150005AA148835
:10569000827E022A00D16BE0032A00D19FE0012A1A
:1056A00000D06DE0EA430589AD182DB2002D5EDB18
:1056B0000826825FAA425ADD002902DA5B1800211F
:1056C0001BB20A22825EC818904201DD531A1BB237
:1056D000002B4CDDC8B2C2085E4992015219521823
:1056E00007250100DBB2294028421CD008205A4D72
:1056F000401AC0B22D5C834200D3A3E0FF26C71A34
:105700003E413540012C00D16EE0022C00D16FE00B
:10571000002C2CD11678AE431670834227D308395B
:105720005B18DBB24032072B14D9022C63D1100076
:10573000190005780839ED43C9B2057040300729D2
:10574000F7D819000839C9B2C908013189015218BE
:1057500007210B40002B0AD04049CB5C012C58D0CC
:10576000022C5AD0002C02D1117899431170F0BD4F
:10577000EA434589C918AD1802892DB2511A09B2F8
:10578000002DF4DB0A26825FAA42F0DD002902DA4E
:105790005B1800211BB20822825EC818904201DD0E
:1057A000531A1BB2002BE2DDEA1092015118294A6C
:1057B00001208A1807210D40A840C0B2012C2FD02B
:1057C000022C36D0002CD2D1C043C0B2013B1BB258
:1057D000591CCCD01178014011700132F6E7428992
:1057E000C918511A09B261E716783543157094E764
:1057F00016787540FAE7611E4842414115001800CD
:105800004942C9B20838C0B2297040350728F9D8D2
:1058100097E711780B431370A9E711784B40FAE72B
:10582000013B1BB2591CA2D0117801431170013207
:10583000F6E7013B1BB2591C99D011784140117019
:105840000132F6E7012CCFD0022CD1D0002C00D0B1
:1058500065E75FE7F0010020E8010020E00100209B
:10586000F0B50C0005A90D88817E02293CD00329E2
:1058700000D1A1E001293FD10189D2188A1A12B2C0
:10588000002C00DA97E00A26815FA14200DC92E05A
:10589000002A02DA9B1800221BB20821415ED018B0
:1058A000884201DD8B1A1BB2002B00DC83E0E11083
:1058B00089018A185D490120511807221440A0402F
:1058C000C0B2012D00D17CE0022D00D182E0002D7C
:1058D00071D1C043C0B2013B1BB25A1C6BD00A78D5
:1058E00002400A700131F6E7E1430489D2186418D6
:1058F000418924B28A1A12B2002C5CDB0826815F2F
:10590000A14258DD002A02DA9B1800221BB20A21AC
:10591000415ED018884201DD8B1A1BB2002B4ADD94
:10592000D2B2D10841488901091909181400072089
:10593000DBB2044002421AD001303D4A001BC0B223
:10594000125C834200D36AE0FF26C71A3E41324010
:10595000012D48D0022D4AD0002D2CD10E7896432F
:105960000E70834227D3083C1B19DBB24031072B52
:1059700014D9022D3ED108001A000478083AE443F5
:10598000D2B204704030072AF7D81A00083AD2B2CF
:10599000D20801329201891807221340002B0AD045
:1059A000244AD35C012D33D0022D35D0002D02D1F5
:1059B0000A789A430A70F0BDE1434489641824B21E
:1059C0005EE7013B1BB25A1CF5D00A7802430A700D
:1059D0000131F6E7013B1BB25A1CECD00A78424079
:1059E0000A700131F6E70E7832430A70B9E70E7893
:1059F0007240FAE76A1E504242410C0018005242BF
:105A0000D2B20838C0B2227040340728F9D8BCE7B7
:105A10000A7813430B70CEE70A785340FAE7012D5A
:105A2000E1D0022DE3D0002D9DD197E7F0010020B9
:105A3000E8010020E001002030B5002947DB0C25FB
:105A4000445F8C4243DD002A41DB0E25445F9442D3
:105A50003DDD847E022C1ED0032C25D0012C04D1E8
:105A6000D243008980180A0001B2012B22D0022BF8
:105A70002ED0002B2BD10720D31703409B18DB100F
:105A80009B0159180123024093401A00174C635C94
:105A9000934363541BE00489013C611AD443428957
:105AA00009B2121912B2E0E740890138401A110018
:105AB00002B2DAE70724D017204080182240934032
:105AC000C010800141180948425C1343435430BD63
:105AD0000720D31703409B18DB109B0159180123A3
