:10000000008000204D83000015830000378300002E
:1000100000000000000000000000000000000000E0
:100020000000000000000000000000003783000016
:10003000000000000000000037830000A1830000E2
:100040003783000037830000FD3B00003160000073
:10005000D982000037830000BD51000039830000C1
:1000600037830000C1610000378300003783000040
:10007000993F000037830000D16100003783000002
:100080003783000037830000378300003783000088
:10009000356B00003783000037830000FD5F0000F0
:1000A0003783000037830000378300003783000068
:1000B0000000000010B5064C2378002B07D1054B3B
:1000C000002B02D0044800E000BF0123237010BDC4
:1000D000300400200000000040C60000044B10B5B2
:1000E000002B03D00349044800E000BF10BDC04608
:1000F000000000003404002040C600000122014B33
:100100001A707047BD0E002070B506000C2008F074
:10011000F9FA08250024300008F05EFB013D0419BF
:1001200024B2002DF7D10723E01718400019C010A2
:1001300080B270BD70B505000C00272917DD002ABC
:1001400000D00334782C00DD78242000FE245021D8
:100150002838FF344942604308F0D8FE8B239B00C7
:10016000C11889B20E20698008F0AEFB70BDEE2187
:10017000FF3141800E2008F0A7FB193C054B6400BD
:10018000E35E0A220D215A43AB80034803F07CFF53
:10019000ECE7C046B6AB00004C01002010B5438828
:1001A00004888B4215D20179104B5B1AA34200DD03
:1001B00023005B1803800188C2880023914205D385
:1001C0004379994200D31300038001230372007A1C
:1001D00010BD42791300A24206D80179034B5B1A85
:1001E000A34200DD23009BB29B1AE3E7FFFF000060
:1001F00010B5084C01233C220221200005F096FC9A
:10020000200005F01FFC200005F07CFD024B63611F
:1002100010BDC0469C04002001000100F0B5324D25
:1002200085B02800002405F00DFC202708260123B6
:10023000220021002800029303942C4B0197009682
:1002400004F0C6FB0123220031002800029303942E
:10025000274B0197009604F0BBFB012322002800E6
:1002600002931021234B03940197009604F0B0FBF6
:10027000012322002800029318211F4B03940197A9
:10028000009604F0A5FB0123220039002800029308
:1002900003941A4B0197009604F09AFB0123220065
:1002A000280002932821164B03940197009604F02E
:1002B0008FFB01232200280002933021114B03946D
:1002C0000197009604F084FB0123220038212800C6
:1002D000029303940C4B0197009604F079FB2800DD
:1002E00005F010FD05B0F0BD9C0400205204002074
:1002F00042000020660000208A000020AE0000209E
:10030000D2000020F60000207604002010B5044C36
:10031000200005F097FB200005F0F4FC10BDC0465E
:100320009C04002010B50C4C200005F08BFB200035
:10033000022104F058FD002320002361074905F045
:10034000B9FF80235B0306492361200005F0B2FF5B
:10035000200005F0D7FC10BD9C04002068A9000017
:100360006DA9000010B50C4C200005F06BFB2000BF
:10037000022104F038FD002320002361074905F025
:1003800099FF80235B0306492361200005F092FF5B
:10039000200005F0B7FC10BD9C04002071A90000EE
:1003A00075A90000F0B58027032685B07F031E4C99
:1003B0004B25200005F046FB0221200004F013FD30
:1003C00000231A492361200005F074FF184920001A
:1003D000276105F06FFF200005F094FC0A20013D25
:1003E00008F022F8002DF9D1200005F02BFB0123A5
:1003F00003931F330193203320002A002900009328
:1004000002950C4B04F089FA200005F07BFC4B248C
:100410000A20013C08F008F8002CF9D1013EB6B2E0
:10042000002EC4D105B0F0BD9C0400207AA90000C4
:1004300075A90000B6AA0000F0B50025092791B003
:1004400000900191019BAB422BDD174C200005F081
:10045000F9FA2000022104F0C6FC144E2A003100F3
:10046000276103A809F0E2FB200003A905F022FFA1
:100470000F4B009A23616B00D25A310003A809F098
:10048000D5FB200003A905F015FF200005F03AFC7C
:1004900021240A20013C07F0C7FF002CF9D10135C7
:1004A000D0E711B0F0BDC0469C04002080A9000038
:1004B00009001000AA4AF8B51168050001230800D8
:1004C0001840194202D1A74913608870A64A012337
:1004D000116808001840194202D1A44913608870BD
:1004E000A34A0123116808001840194202D1A1490A
:1004F00013608870A04A012311680800184019424F
:1005000002D19E49136088709D4A0123116808003A
:100510001840194202D19B49136088709A4A0123FE
:10052000116808001840194202D198491360887078
:10053000974F984E002D20D00123974A0B2413701B
:10054000964A1370964A1370964A1370964A13701F
:10055000964A13700023964A3B701370954A337085
:100560001370954A1370954A1370954A1370954A03
:100570001370954A13702000F8BD3B78002B21D0F2
:100580002900784803F058FB0B24002800D03D7068
:100590003778002F5CD00021744803F04DFB002811
:1005A00001D000233370884B1D78002D00D194E0DA
:1005B0000021704803F040FB0028DCD00023824A71
:1005C0001370D8E7032008F0C1FA03005A1E9341C4
:1005D000744A1370704B1B78002822D1674C002B93
:1005E0000BD032215F4803F019FB0123200077492B
:1005F0003B7003F013FB0B240EE02900200003F0F6
:100600001BFB0028F7D0FA210122694B200049008A
:100610001A70042403F002FB624B5F4A1B781370CC
:10062000B6E7664C002B07D132214E4803F0F6FAAC
:1006300001233B702370DEE72378002BDBD05C4B7B
:1006400025701A780924002AE6D01D700234E3E7E9
:10065000042008F07BFA03005A1E9341524A13709B
:100660004E4B002821D11978464D00290ED0322159
:100670003E4803F0D3FA012328005449337003F0B5
:10068000CDFA494B454A1B7813708CE7280003F0DC
:10069000D3FA0028F5D0FA210122464B2800490060
:1006A0001A70052403F0BAFAEBE71B78444D002BCF
:1006B00007D132212D4803F0B1FA012333702B709A
:1006C000DFE72B78002BDCD03A4B2F701A78002A0A
:1006D00001D01F70D5E70A24D3E7072008F036FAC7
:1006E00003005A1E9341314A2D4F137000281DD12B
:1006F0003978264D00290ED032211E4803F08EFA9B
:100700000123314A31491370280003F087FA274B3F
:100710001B783B702FE7280003F08EFA0028F6D0F4
:100720000124FA21244B49001C70EDE73B78254E4B
:10073000002B08D132210F4803F070FA0123224A1E
:1007400033701370E3E73378002BE0D01A4B357029
:100750001A78002A01D01D70D9E70624D7E7C046D1
:10076000280E0020460E0020300E0020500E0020E3
:10077000380E00205A0E00202C0E00204A0E0020B9
:10078000340E0020560E00203C0E0020600E00208B
:10079000420E0020440E00201D0100201E010020FA
:1007A0001F0100201A0100201B0100201C01002055
:1007B0004E0E0020540E00205E0E0020400E002041
:1007C000410E0020430E0020450E00201A040000B8
:1007D000F8B5242706260C2502242F4B0800198083
:1007E000012108F057F93A002C492D4808F028FE5D
:1007F0002C4B3A002C492D481E8008F021FE2C4B32
:100800002A002C492C481E8008F01AFE2B4B2A0087
:100810002B492C481C8008F013FE2B4B2A002B4937
:100820002B481C8008F00CFE2A4B2A002A492B4832
:10083000AD191C8008F004FE294B2A0029492A48DA
:100840001C8008F0FDFD294B2A0001342849294865
:100850001C8008F0F5FD284B2A00284928481C80F8
:1008600008F0EEFD274B3622274928481C8008F067
:10087000E7FD0922264B27491A8027483A0008F04D
:10088000DFFD264B1822264926481E8008F0D8FD99
:100890000422254B1A80F8BD4000002044AD000022
:1008A000980C002036130020F0AC0000E807002070
:1008B0002A130020F4AB0000600D00203813002044
:1008C00038AD00002007002028130020E8AB00000E
:1008D000D00B0020341300202CAD0000080B0020AA
:1008E0003213002068AD0000C8040020221300204D
:1008F00000B2000090050020241300206CB200001C
:10090000580600202613002012B2000078090020AB
:100910002E13002048B20000400A002030130020AF
:1009200014AD0000B00800202C13002010B50129E0
:1009300007D1C8222F4908F083FD2F4B1B881800D0
:1009400010BD022905D1C8222C4908F079FD2C4B95
:10095000F4E7032905D1C8222A4908F071FD2A4B82
:10096000ECE7042905D1C822284908F069FD284B85
:10097000E4E7052905D1C822264908F061FD264B88
:10098000DCE7062905D1C822244908F059FD244B8B
:10099000D4E7072905D1C822224908F051FD224B8E
:1009A000CCE7082905D1C822204908F049FD204B91
:1009B000C4E7092905D1C8221E4908F041FD1E4B94
:1009C000BCE70A2905D1C8221C4908F039FD1C4B97
:1009D000B4E70B2905D1C8221A4908F031FD1A4B9A
:1009E000ACE700230C29AAD1C822184908F028FD39
:1009F000174BA3E7980C002036130020E8070020CF
:100A00002A130020600D002038130020200700204A
:100A100028130020D00B002034130020080B0020E6
:100A200032130020C804002022130020900500206B
:100A300024130020580600202613002078090020E7
:100A40002E130020400A002030130020B0080020A0
:100A50002C130020F0B5B3B081B26846FFF766FFF3
:100A60000A210500154803F0D9F8002403212000CD
:100A700008F0C2F980B2A8421ED2104E0021300008
:100A800003F0DAF80028F8D06B466946671C7F004F
:100A9000DA5B6300C95A0A4B188805F075FF6A468D
:100AA000A31C5B00D15AD35B3000C91889B2033450
:100AB00003F0B4F8A4B2D9E733B0F0BD5C13002062
:100AC00040000020F0B5A24CA24DA5446B696A46D7
:100AD00006000F002800296905F006FAE0229E4C66
:100AE00069462000920008F0ABFC607CA37C0028E3
:100AF00061D1002B5BD19622920062800222FF32EC
:100B000022611A0095486360A360E36026756775EB
:100B1000E3822383C2520233642BFBD100239C4621
:100B200061468F4A9A1802331180522BF8D1002364
:100B30008C4A9918002202330A802A2BF8D1238884
:100B4000894A9B18DF19DF23BE1900279B00E65056
:100B5000C25B023794466644642FF9D1E650002305
:100B60007F4AD05A02333618522BF9D1DF230021A5
:100B70009B00E6507B4A505A023136182A29F9D197
:100B8000E022210092006846E65008F059FC280057
:100B90006A69296905F096F96A4628006B6929692E
:100BA00005F044F97149724805F096FB0120E123F4
:100BB0009B009D44F0BD00208342F8D16C4D6D49EF
:100BC000280005F089FB6C49280005F085FB0A2206
:100BD0002188280005F0E9FB0A226188280005F039
:100BE000E4FB0A22A188280005F0DFFB0A22E18845
:100BF000280005F0DAFB0A222189280005F0D5FB40
:100C00000A226189280005F0D0FB0A22A189280068
:100C100005F0CBFB0A22E189280005F0C6FB0A2279
:100C2000217C280005F0C1FB0A22617C280005F028
:100C3000BCFB0A22A17C280005F0B7FB0A22E17C5C
:100C4000280005F0B2FB0A22217D280005F0ADFB4B
:100C50000A22617D280005F0A8FB0A22E18A28000B
:100C600005F0A3FB0A222800218B05F09EFB26003D
:100C7000718B0A22280005F094FB404F28003900B0
:100C800005F018FB3E4B02369E42F1D1280005F0DC
:100C90001BFB0026324B0A22995B280005F081FBE2
:100CA00002363900280005F005FB522EF2D128004B
:100CB00005F00AFB00262B4B0A22995B280005F061
:100CC00070FB02363900280005F0F4FA2A2EF2D122
:100CD000280005F0F9FA6088238800221B18A088F4
:100CE000C018E3881B182089C01863891B18A089C5
:100CF000C018E3891B18207CC018637C1B18A07CDB
:100D0000C018E37C1B18207DC018637D1B18E08A87
:100D1000C018238B1B181148815A02325B18642AB1
:100D2000FAD100220E49895A02325B18522AF9D1AF
:100D300000220C49895A02325B182A2AF9D1DF2293
:100D40009200A058C01A43425841C0B22FE7C04693
:100D50007CFCFFFFC80E0020E40E0020FE0E0020E9
:100D6000620F0020B40F00205A02000085A9000085
:100D7000601F002092A90000A7A90000B8A90000E8
:100D8000480F00200839030010B50800092908D8C9
:100D900008F028F8353A3F07070707081E051F4ADD
:100DA000D38110BDFA22181CD200934200DD101C22
:100DB000030400D50020322100B208F0A7F800B2E9
:100DC000164B3C3040001818C3880133C380E8E755
:100DD000134A181C934200DD101C124B02B29A42B7
:100DE00000DA181C104B00B2C018142108F08EF85D
:100DF0000A4A68304000835A01338352D1E7190010
:100E00004A1E9141054AD17419004A1E9141034A74
:100E10001175581E8341014A5375C2E7E40E002044
:100E200004100000E40C00001CF3FFFF00B50428D0
:100E300009DC002809DB0138114B032806D807F02C
:100E4000D1FF090D1115162814D000BDDA88013222
:100E5000DA80FAE71A8901321A81F6E75A890132F3
:100E60005A81F2E79A8901329A81EEE79A88013233
:100E70009A80EAE7024A138B01331383E5E7C04601
:100E8000E40E002030B52A4900204A880B88294CFE
:100E90009B188A88284D9B18CA88A5449B180A89E4
:100EA0009B184A899B188A899B18CA899B180A7CB7
:100EB0009B184A7C9B188A7C9B18CA7C9B180A7DCD
:100EC0009B184A7D9B18CA8A9B180A8B9B18DF22A5
:100ED00092008B502C5A02301B196428FAD18B5087
:100EE0000022164CA05A02321B18522AFAD1DF22D5
:100EF00000209200124D8B502C5A02301B192A28C8
:100F0000FAD18B50E0226846920008F099FA0D4C15
:100F100020006269216904F0D5FF6A4620006369F8
:100F2000216904F083FFE1239B009D4430BDC0464E
:100F3000E40E00207CFCFFFFFE0E0020620F00206C
:100F4000B40F0020C80E0020F7B5A025A1260092FE
:100F500000220193124B6D007600A224A4465F8804
:100F60009C4464461F801F002488A0373C80F124E5
:100F70009F5B64005F531F5B0132023C1F530233CF
:100F80004F2AEAD1074B4A32FF329852A032995287
:100F90000099A03299520199A0329952F7BDC046EA
:100FA000DE0F0020E40E002010B5344C3448A54478
:100FB000436901696A4604F097FFE022314C9200D0
:100FC0006946200008F03CFA6A4623682E480093E0
:100FD00063680193A3680293E3680393237C1382FD
:100FE000637C5382A37C9382E37CD382637D1383EF
:100FF000E38A5383238B938300231A00C15A6A44E4
:1010000002331184642BF8D10023204821AAC15A4D
:10101000D1520233A02BFAD100231D4849AAC15A4C
:10102000D1520233A02BFAD100231A4871AAC15A17
:10103000D1520233A02BFAD10023174899AAC15AE2
:10104000D1520233A02BFAD100231448C1AAC15AAD
:10105000D1520233522BFAD10023114A11486A446B
:10106000C15AD15202332A2BFAD1E02168464900F5
:10107000FFF7E2F9E0239B009D4410BD80FCFFFFD9
:10108000C80E0020E40E0020FE0E0020DE0F00201F
:101090007E1000201E110020BE110020620F0020D3
:1010A00056030000B40F0020074B70B504001A006F
:1010B0003234057801305D830233A042F9D1D18208
:1010C000FFF7E0FE70BDC046E40E0020064B0100B5
:1010D0001A0010B532315C8B023304700130884243
:1010E000F9D1D08A10BDC046E40E0020F0B595B00D
:1010F00007AF3800FFF7EAFF00243A4D05902800BB
:1011000004F0A0FC0221280003F06DFE28003649FF
:101110002C6105F0CFF80C23059A03265343334A7C
:10112000403B1BB21380A34233DA314B1C80059B3A
:10113000A34212DD2E4E3B5D0022B15E02220292DE
:10114000002201920132009228000F3203F0C2FD0A
:10115000338801340C333380E9E7280004F0D2FDF2
:1011600015B0F0BD1F4804F0CDFD0A2007F05CF972
:101170000A2007F059F90A2007F056F90A2007F06B
:1011800053F90A2007F050F9013403E0013E002E24
:10119000E6D000240321154B00229A5ED3170B40A2
:1011A0009B189B100133A342F0DB042300255B4214
:1011B00063430F4A1380059BAB42D3DD0C4F07AB53
:1011C0000022B95E0222EB5C0292002201920132FF
:1011D000009204480F3203F07DFD3B8801350C334B
:1011E0003B80E8E79C040020BAA90000B812002068
:1011F000A80E002010B50449044805F077F8FA203D
:10120000800007F011F910BDBEA90000601F00208A
:10121000F7B505000C200E000192082707F072FABE
:101220000024280007F0D8FA013F041924B2002F47
:10123000F7D10723E017184004192248E41044436B
:10124000E0170005000D0019FA24001360439621F1
:1012500007F05CFE64251C4BC4186C431B4B9C427E
:1012600015DB1B4B9C4228DC20001A4907F04EFE80
:10127000194B05B29C420CDC0123019A0920137022
:101280003370FFF7E7FBFFF78DF82800FEBD3D0048
:10129000F2E7124B9C4210DC019B19241F700123C2
:1012A0003370FFF75FF80B20FFF7D4FB0A20013CF7
:1012B00007F0BAF8002CF9D1E7E70023019A337060
:1012C0001370E2E7B80B00001CF3FFFF13FDFFFFF4
:1012D000E5270100EE02000093110000DF2E000060
:1012E00030B5002185B04648002404F08FFBE02291
:1012F000444B45499C709200444804F07FFD6421B2
:10130000434B14229C70434B96209C70424B8000B0
:10131000D980FA215A80F6321C809A803F4B89008E
:101320001C8059809A80D8803D4B3E481C80588054
:10133000C82080009A80D8803B4B0B2059803B49C5
:101340001C809980C8214900D980394B39499A803D
:10135000423ADA80C8221C805980374B12015A80E9
:101360000222FF321C809A809622344D1201DA80CC
:101370002880012107F08EFB0023E85E210007F0A2
:10138000B9FB2F4D22002800302102F019FE002366
:10139000322202210092019328000294313A02F095
:1013A000DFFE284B9C70284B9C70284B9C70284B70
:1013B0009C70284B9C70284B9C70284B9C70284B31
:1013C0009C70284B9C70284B9C70284B9C70284B21
:1013D0009C70284B9C70284B9C70284B9C70284B11
:1013E0009C70284B9C70284B9C70284B9C70284B01
:1013F0009C70284B9C70284B9C7005B030BDC0463B
:101400009C0400205C13002000AE0000C80E0020E9
:10141000F41200206A0E00206E0E0020BC12002084
:10142000D612002088130000AC130020010A00002F
:10143000081300206C070000681200204C040020F4
:101440004C010020F01200209013002064130020B3
:1014500088130020A41300207C13002074130020A4
:1014600068130020781300206C1300208C130020D8
:10147000841300208013002060130020A813002094
:1014800054130020581300209C13002098130020B0
:1014900094130020A01300207013002073B51B4C80
:1014A00006000421200003F09EFC194B002163611B
:1014B0001E230A00200001910093223302F086FFD0
:1014C0000A21300007F022FD0A2501B26D424D438A
:1014D0000F23AD19632E00DD0E4B23610A2220007D
:1014E00004F05FFF012301930233200000931922CF
:1014F000262102F06BFF2C2329000A222361200001
:1015000004F04FFF200004F0FDFB73BD9C0400209D
:1015100001000100FCFF0000F0B5334C060085B06F
:10152000200004F08FFA6425642E02DCF543ED17E9
:1015300035400321200003F056FC2C4B0021636151
:101540001C230A00009320000191243302F03EFF87
:10155000092E3EDC264B290023610A22200004F0DC
:1015600020FF00260127202308222000019300925B
:10157000322132001F4B0396029703F029FA2023F1
:1015800008222000019300923A2132001A4B039660
:10159000029703F01DFA122300930C3B1A0020005F
:1015A0003621019702F012FF0A2037216843494291
:1015B000019607F0ABFC0623123000B21A00362168
:1015C0000090200002F002FF200004F09BFB05B019
:1015D000F0BD132E01DC094BBDE7632E01DC084B87
:1015E000B9E78023DB02B6E79C040020010001007C
:1015F0001F00040000000020200000201200040052
:101600000D000400F7B5041E1A4E03DB0F2812DC90
:10161000002811D1002301932033300000931E22B3
:101620000421203302F0D2FE300004F06BFB3000C6
:1016300004F068FBF7BD0F24002501270723ADB296
:10164000A900013500931E22300009B20197053B25
:101650002DB202F0BBFEAC42F0DA00230134A4004C
:101660000193123300931E22300021B22E3302F078
:10167000ADFEDCE79C04002010B5094C0022A35EFF
:10168000834200DA20800023E05EA621533007F079
:101690003DFC00B2FFF7B6FF0023238010BDC0461B
:1016A000640E002013B50723011E0A4C0CD0012242
:1016B0000021019200931D32053B200002F086FEBE
:1016C000200004F01FFB13BD00931E220223019093
:1016D000F3E7C0469C040020F0B500250224012653
:1016E00089B0FEF785FDCC4F380004F0ABF902213C
:1016F000380003F078FBC94B3D617B612A001B2356
:101700002900380002940195009603F0E3FA412382
:101710002A001C21380002940195009603F0DAFAA1
:101720001A232A003421380002940195009603F010
:10173000D1FA380004F0E6FA1022B94B1D80B94BFB
:101740001A80B64B0793B84B1B78002B00D006E2EB
:10175000B64D2B880B2B2DD10020FEF7ABFEFA21C6
:1017600028804900B24802F067FA0028F0D0B14B57
:10177000B14D0021595EAB4B00229A5E2B78002BB5
:101780000FD00023012601930096163338000294EF
:1017900003F0A0FA2B785E402E70380004F0B2FA05
:1017A000D6E701202870009002943800019303F0DE
:1017B00091FAF2E7092B01D0042B32D19F4AA04EB7
:1017C00012883378013A0021934201D00133D9B213
:1017D000317000250E232A000093102116333800A3
:1017E000019502F0F3FD3378964AD35C112B12D1A8
:1017F000102395493B61380004F05CFD934B1B7846
:10180000002B35D1380004F07DFA0020FEF752FE9F
:10181000864B188097E7FA2B13D110238C493B6134
:10182000E9E70A2B01D0052B15D1854E3278531EDE
:10183000DBB2002A03D1814B1B88013BDBB2337042
:10184000C7E701221C21009238002A00029401956A
:1018500003F040FAD2E7062B01D0012BCED1784B12
:10186000784A1B78D25CFA2A45D1784BF93A1A703B
:1018700000260125380004F0E5F859233200310034
:10188000380002940196009503F024FA4E233200AA
:101890003421380002940196009503F01BFA059656
:1018A00006956A4E3378002BACD00020FEF702FE7E
:1018B0005E4B80B21880092802D0042800D081E055
:1018C0000025069B102229003800009302942B006B
:1018D000019503F0FFF9069B102200933421182391
:1018E00038000294019503F0F5F9012305933800BF
:1018F00004F008FAD5E7574B1B88112A3BD1002B7F
:1019000011D00021544AD218013A1170013B1A1C1F
:101910009BB20F2B00D90F224E4B91B21A804F4829
:101920000A2204F042FD10220025402329000092E3
:101930003800019502F04AFD464B394A19880429BE
:101940001DD81580364E0023F15E424B1B88AB42FA
:1019500033DD344A404B0020125E0020EB5C0190E6
:10196000013000900294380003F0B4F93388013557
:101970000C333380E6E73849CA540133C7E70C23F8
:101980005B424B4334331380254E0023F15E314BD1
:101990001B88AB4211DD234A2F4B0020125E002032
:1019A000EB5C0190013000900294380003F092F952
:1019B000338801350C333380E6E7194B1A881D4B09
:1019C0001A801BE70A2801D0052816D10025069B9E
:1019D000102229003800009302941823019503F087
:1019E00079F9069B1022009334212B0038000294D1
:1019F000019503F06FF9022378E7062802D0012849
:101A000000D074E7059B022B2AD1074B069A1A7067
:101A1000002333706BE7C0469C04002001000100E6
:101A2000A80E0020AC0E0020AE0E0020880E002074
:101A30006A0E0020AA0E00205F010020580100203D
:101A40008C0E002020010020D1A90000660E00208D
:101A5000D5A90000B612002082120020601F0020CD
:101A6000059B0025012B78D13800357003F0EAFF83
:101A70002100380003F0B7F9079B3D617B61059BAE
:101A80002A0029003800009302941B23019503F0DB
:101A900021F9059B2A001C21380000930294412360
:101AA000019503F017F9059B2A00342138000093B3
:101AB00002941A23019503F00DF9380004F022F97D
:101AC000102140230A0000913800019502F07EFCAD
:101AD000744B754A1988042919D81580724E002351
:101AE000F15E704B1B88AB422FDD704A704B0020BB
:101AF000125E0020EB5C0190069802940090380082
:101B000003F0E8F8338801350C333380E6E70C2323
:101B10005B424B4334331380634E0023F15E614BD1
:101B20001B88AB4211DD614A614B0020125E002030
:101B3000EB5C0190069802940090380003F0CAF81C
:101B4000338801350C333380E6E7574B1A88594BFD
:101B50001A800022584B1A70C9E60595C7E6002482
:101B6000380003F06FFF554938003C6104F0A2FBD8
:101B70004C4B53481A880C2353439BB219004039ED
:101B800009B20180A1422CDA0226474B1C80454B4A
:101B90001B88A34214DD444D444A454B0021525E4C
:101BA0000020295E0020E35C019001300090029645
:101BB000380003F08FF82B8801340C332B80E6E7D4
:101BC000380004F09FF8374B39481988FFF76CFA52
:101BD000C8240A20013C06F027FC002CF9D109B0EA
:101BE000F0BD1400324988180138013C02D3067850
:101BF0004671F9E75700C81949000D000524002671
:101C0000391A013C06714E550138002CF8D125498E
:101C10000A320A802A4A383313800334002503210C
:101C2000274B00229A5ED3170B409B189B10013361
:101C3000AB4233DB042300265B426B431A4A13801A
:101C4000184B1B88B34215DD174F184A184B00215B
:101C5000525E0020395E0220F35C02900020019069
:101C600001300090174803F035F83B8801360C33FB
:101C70003B80E5E7134804F045F80A2006F0D4FB62
:101C80000A2006F0D1FB0A2006F0CEFB0A2006F05F
:101C9000CBFB0A2006F0C8FB0135C0E7013C002C55
:101CA000BCD190E7B6120020A80E0020AC0E002098
:101CB00082120020AA0E00208C0E0020BAA900007B
:101CC000B81200209C0400200023F0B50125B74F76
:101CD00087B03B70B64C2388A12B00D1DAE0A22B51
:101CE00000D1F5E0032006F031FF002800D0FBE032
:101CF0000A2006F099FBF5E73B780493002BE9D026
:101D00002388A12B5ED10025AA4C0226200003F0D7
:101D100099FE0221200003F066F8A7492000256102
:101D200004F0C8FA1E2320002361A44904F0C2FA7B
:101D3000A34B1F780296AF4200D00BE101231D0098
:101D4000009310223B0008212000019702F0C2FFFF
:101D50002B00029601970095173310222C212000AA
:101D600002F0B8FF0120FEF7A5FB01270A2006F0CC
:101D70005BFB0020FEF79EFB924B80B28D4E1880DD
:101D8000092802D0042800D0F3E000250223102205
:101D900008213000029301952B00009702F09AFF72
:101DA0000223102202932A21163330000195009756
:101DB00002F090FF824B1D70049D7E4803F0A2FF4D
:101DC000002DD3D17A4B1B88A22B61D10025794CF1
:101DD0000226200003F036FE0221200003F003F863
:101DE00075492000256104F065FA1E232000236157
:101DF000724904F05FFA744B1F780296AF4200D02C
:101E000077E101231D00009310223B0008212000F0
:101E1000019702F05FFF2B000296019700951733A0
:101E200010222C21200002F055FF0120FEF742FB7A
:101E300001270A2006F0F8FA0020FEF73BFB614B71
:101E400080B25C4E1880092802D0042800D05FE1DF
:101E500000250223102208213000029301952B0057
:101E6000009702F037FF0223102202932A21163333
:101E700030000195009702F02DFF534B1D70049D1B
:101E80004C4803F03FFF002DD3D101224F4B1A7075
:101E900007B0F0BD474E300003F0D4FD29003000FC
:101EA00002F0A1FF4A4B4B493361300004F002FAC3
:101EB000002220231100300000930195DB1802F06E
:101EC000B9FA300003F01EFF0720FEF7C3FD09E753
:101ED000384E300003F0B6FD2900300002F083FFD9
:101EE0003D4B3E493361E0E7042006F02FFE002819
:101EF00000D1FDE632260A20013E06F095FA002EBA
:101F0000F9D12800FEF7D6FA354E30800022B35EB4
:101F10000B2B00D0F0E60A2006F086FA0020FEF730
:101F2000C9FA3080092801D0042809D12388A12BBF
:101F300002D1A2232380E9E7A22BE7D1A123F9E76D
:101F40000A28F3D00528F1D0062801D00128DDD1D8
:101F50003D70DBE701231F00009310221733082197
:101F60002000019502F0B6FE2B0002960195009725
:101F7000F3E60A2801D0052834D1002502231022D7
:101F800008213000029301951633009702F0A2FE5B
:101F90000223102202932A212B0030000195009782
:101FA00002F098FE064B1F7006E7C046C40E0020E4
:101FB0004A0100209C040020E8A90000EBA90000D1
:101FC000B4120020880E0020661200205E0100205E
:101FD00011000C00D9A900000A000C00DFA90000C4
:101FE0003C010020062803D0049D012800D0E4E62F
:101FF0000025200003F026FD3900200002F0F3FE4A
:1020000094492000256104F055F910231022009313
:10201000290030332000019702F00CFA10230593B9
:102020006421280006F072FF059A03B200213000F7
:1020300000920197102202F0C9F90A2006F0F4F983
:102040000A2006F0F1F9300003F05CFECA234035A7
:102050005B019D42E4D132250A20013D06F0E4F9FE
:10206000002DF9D17C4E09213078FEF78BFEFEF76A
:1020700009FF33782000794E002B1DD003F0E2FCDD
:102080000221200002F0AFFE31002561200004F0A3
:1020900011F980235B0372492361200004F00AF9DF
:1020A000200003F02FFEC8350A20013D06F0BCF9E0
:1020B000002DF9D1002580E603F0C4FC02212000A8
:1020C00002F091FE31002561200004F0F3F8802336
:1020D0005B0364492361200004F0ECF8200003F066
:1020E00011FEC8250A20013D06F09EF9002DF9D108
:1020F000E0E701231F00009310221733082120007E
:10210000019502F0E7FD2B0002960195009787E606
:102110000A2801D0052817D1002502231022082102
:102120003000029301951633009702F0D3FD02238D
:10213000102202932A212B0030000195009702F013
:10214000C9FD494B1F709AE6062803D0049D01285B
:1021500000D095E60025200003F074FC3900200033
:1021600002F041FE3B492000256104F0A3F8102352
:1021700010220093290030332000019702F05AF911
:10218000102305936421280006F0C0FE059A03B2CF
:102190000021300000920197102202F017F90A2066
:1021A00006F042F90A2006F03FF9300003F0AAFDDC
:1021B000CA2340355B019D42E4D132250A20013D0E
:1021C00006F032F9002DF9D1274E284B32785A7596
:1021D000FEF758FE33782000254E002B1DD003F06B
:1021E00031FC0221200002F0FEFD310025612000BB
:1021F00004F060F880235B0319492361200004F098
:1022000059F8200003F07EFDC8350A20013D06F094
:102210000BF9002DF9D1002532E603F013FC022161
:10222000200002F0E0FD31002561200004F042F8BA
:1022300080235B030B492361200004F03BF820005E
:1022400003F060FDC8250A20013D06F0EDF8002DE1
:10225000F9D1E0E7EFA90000B4120020D9A90000ED
:10226000E8A90000EBA9000066120020E40E00209F
:10227000F9A90000E121F0B5BC4D87B028000902A2
:1022800005F0F6FCBA49280004F026F8B94801F038
:1022900047FDB94801F0ACFCB84C02002080B849B9
:1022A000280004F023F82388B64CDA0700D406E1AE
:1022B0002800B54904F010F81023238002210720DC
:1022C00006F0E8FB0221032006F0E4FB02210420D3
:1022D00006F0E0FB01210D2006F0DCFB01210800E7
:1022E00006F0D8FB01210D2006F004FC01210800B6
:1022F00006F000FC23881A00113A012A00D844E3B2
:10230000152B00D1B0E2A14B11201988FEF760FA1D
:10231000FDF76EFF00210800FEF7D4FB002802D174
:1023200001229B4B1A709B4B1B7C002B00D105E1BB
:102330000122994B99481A7003F084FBFA219848BE
:10234000890001F06BFC944B1C78002C00D1E6E076
:102350000F20FDF7D9FE0A23924C0F216043001392
:10236000584306F0D3FD904B18801220FDF7CCFEA9
:10237000D0232721584306F0C9FD44438B4B241337
:10238000002187481C8001F057FC002848D0884B6A
:10239000884F1C683868210006F02EFD864E21000B
:1023A0003860306806F028FD002300227B4C306046
:1023B00001932033110020000093123302F006F83D
:1023C0000121200002F00FFD002320003A687B4924
:1023D000236103F08BFF80235B033268784923611C
:1023E000200003F083FF774A3B6877499B1832222D
:1023F0002261642B00D97549200003F077FFC821C2
:10240000734A336889009B18724A22618B4200D953
:102410007EE06D49200003F069FF200003F072FCAC
:1024200064216D4801F008FC002817D0614A5E4B1A
:1024300011681B880D205B1813605F4A5B4B1168A5
:102440001B885B1801211360594A1368013313601C
:10245000624B1A785140197006F04CFB32216048EB
:1024600001F0EAFB002807D001215E4B0B201A780F
:102470005140197006F03EFBFA215B48490001F01B
:10248000DBFB002810D0434B0A222800198803F0F8
:102490008CFF564C56482278002A3BD000223C2123
:1024A000FDF748FE00232370072006F04FFB0028AD
:1024B00000D048E7374B1874374B187043E79A073A
:1024C00005D528004B4903F007FF1123F5E65A070D
:1024D00005D52800484903F0FFFE1223EDE6DA0691
:1024E00005D52800454903F0F7FE1423E5E69A06D2
:1024F00005D52800424903F0EFFE1523DDE65B0613
:1025000000D4DBE628003F4903F0E6FE1623D4E6BC
:102510002E497FE77821FDF70DFE0123C3E7210057
:102520000B2006F0E7FA01210D2006F0E3FA220065
:1025300032212F48FDF7FEFDFEF7A4FC1320324A9E
:102540003249FEF765FE0024314F38802000FEF747
:10255000E3FF2100642006F0D9FC00250600AE420E
:1025600058D0012005F060FF0135F8E7601F00201A
:10257000FDA90000C8130020C7130020FA12002094
:1025800006AA0000F81200200CAA0000400000205B
:10259000B60E0020E40E00204A1300209C04002008
:1025A000A0130020B80B0000FC1200200213002032
:1025B000A40E00204C1300205013002064AA000039
:1025C00069AA00004AFCFFFF6EAA000071AA000081
:1025D00050E2FFFF320010009C1300204B1300203C
:1025E0009813002049130020941300204813002062
:1025F0004C04002021AA00002DAA000039AA0000E6
:1026000048AA000057AA0000B70E0020BE0E002006
:102610008A0E00203B880134A34297DA64240A2002
:10262000013C05F001FF002CF9D1FDF76FFEDE4EF5
:10263000F37C002B00D0C0E0FDF768FE0320FEF71E
:1026400009FAF289D94B1A80002A00D1BFE0327D05
:10265000D74BD8491A70727DD74B1A700023D74ACE
:102660001380D74A1380D74AD488201C8C4201D9C2
:10267000D54800881080D54A1380D54BD888021CD5
:10268000884201D9D04A1288D249D3481A8001F031
:10269000C5FAD24B1B78002B00D1F3E0032006F0E3
:1026A00055FA002800D096E0043006F04FFA041ED8
:1026B00000D090E0CA4D2F78002F00D1B2E0C94F72
:1026C0000125380003F0BEF93800012102F08BFB30
:1026D0003800C5493C6103F0EDFD102238000A279F
:1026E000402321000195009201F0A4FE059564218C
:1026F000200006F00BFC059ABA4D0192102203B29D
:1027000000210092280001F061FE380005F08CFEE7
:10271000380005F089FE380005F086FE380005F027
:1027200083FE380005F080FE280003F0EBFACA2390
:1027300040345B019C42DAD1C8240A20013C05F0F8
:1027400073FE002CF9D1FDF7E1FDC8340A20013CED
:1027500005F06AFE002CF9D1280003F073F901217D
:10276000280002F040FBA14BA1492B61280003F097
:10277000A1FD012301931F332200210028000093B3
:10278000203301F057FE280003F0BCFA0720FEF7C3
:1027900061F99134FF340A20013C05F045FE002C1C
:1027A000F9D1FEF799FF0123F3740223FF33B382BB
:1027B000FDF7ACFD894B1C703EE0FEF797FCC8248A
:1027C0000A20013C05F030FE002CF9D134E732221A
:1027D000F2811A803BE700217F4801F02DFA041EA8
:1027E0003BD1844B00229B5E012B25D102217B4AE9
:1027F0001070814A1180814A1070814A1070814A9C
:102800001380814A1070814A1070814A1370814A86
:102810001370FDF703FDFA217F48890001F0FEF9EE
:102820007E4BC8E77E4C0023E15E01290AD17D4939
:102830007D4801F0F3F927800020FDF73BFE6D4B4A
:10284000188026E70029F7D1774801F0F5F900282C
:10285000F2D001232B702380EEE700235F4A137030
:102860000122654B1A80E7E71620FEF7DFFA002108
:102870000800FEF727F9002802D101226B4B1A70DD
:10288000FEF700FB05F0A0FD694B4E4F1860474B6B
:102890000F201A8864235343664A0A249B187B80BE
:1028A000FDF732FC5F4D0F2168430013604306F0D3
:1028B0002DFB614B18800F2005F08EFF6843000B45
:1028C0000F21604306F098FA5C4B18601220FDF768
:1028D0001BFCD0232721584306F018FB0300FA21E4
:1028E0006B43574A1B131380534A98B212888900CE
:1028F000504306F00BFB534B18801320FDF704FCEC
:10290000FA23684300139621584306F0FFFA4E4C11
:10291000494B4E4E208019883000FDF73FFC05954D
:10292000002800D1A4E00122494B1A70324B002547
:102930005D5F022D00D0F0E00127464D464E29781C
:10294000464C3770002906D1334801F075F900284C
:1029500000D194E02F702378002B00D096E03378DC
:10296000002B00D1ABE001233D493E4A13202370E8
:10297000FEF74EFC3C4B80B21880FEF7CDFDFA21ED
:102980003A48890001F04AF999E0122B00D079E722
:1029900000210800FEF796F8002800D072E7012217
:1029A000224B1A706EE7C046E40E00205C01002046
:1029B000B4120020FEFF000066120020BC120020AE
:1029C000D6120020AC130020B4AA00000813002087
:1029D0006812002088130000A8130020480100207E
:1029E000C30E00209C04002075AA000008000C0003
:1029F00080AA00003C0100205A0100203C13002066
:102A0000BC0E002046010020C20E0020C60E002091
:102A1000B80E00205E010020781300204201002043
:102A200044010020B80B000054130020B60E002013
:102A30004013002030F8FFFFFC1200200413002098
:102A400002130020FE120020001300206E0E002052
:102A5000BA120020C10E0020C70E0020B50E0020C3
:102A6000BE0E0020B70E00208A0E00206413002046
:102A70003388002B00D059E7DD4A137056E72A78D7
:102A80002378002A00D066E7002B18D0D94D00210A
:102A9000280001F0D1F8002806D1D74B00229B5E18
:102AA000012B0CD1D54B35E0D44C2378002B30D002
:102AB000FA212800890001F0B1F800232370D04DDD
:102AC000CD4E0022AB5ECF4C022B01D000F0E0FED9
:102AD000CD4A1378002B01D100F02CFF04232B806A
:102AE00000231370C94ACA491370CA4A0B70CA49F5
:102AF0001370CA4A0B70237001331370C84AC94956
:102B0000C948137001F08AF8FA21C848890000F01A
:102B100098FFBD4B01221A70D1E7002D63D0042D20
:102B200001D000F0E2FBC24C217800291ED1BF4841
:102B300001F082F8002819D00122B84B21001A7048
:102B40001320BC4AFEF764FBBB4B80B2188023788D
:102B5000002B0BD0FEF7E0FC4B240A20013C05F0D3
:102B600063FC002CF9D10122AD4B1A70A24BAE4C84
:102B700000229B5E0B2B00D07DE20021200001F0A3
:102B80005BF800280CD0AD4A138801331BB21380C8
:102B90001E2B00D06AE20121A94B1970002313807B
:102BA000032005F0D3FFA74D002815D1043005F010
:102BB000CDFF002810D1A44FA449380001F02EF811
:102BC000032005F0C3FF002800D15CE20120FDF7DF
:102BD00071FC00229E4B1A8000239E4A2B701360CA
:102BE0009D4A1380C8E09D4B9D4E19883000FDF72B
:102BF000D5FA002815D0012214249A4B03201A700C
:102C0000994B1C80FEF712F9984B358000229A5E92
:102C1000894B0021595E964B0020185E2300FEF779
:102C200093F9944E3578002D00D048E1924B934CA7
:102C30001F78002F16D139000D2005F05BFF200012
:102C40003A006421FDF776FA2D2005F0EDFB874B65
:102C5000012219882000FDF76DFA0123644A3370C0
:102C6000137089E0814B1B88312B00D812E12A00B8
:102C700020003221FDF75EFA29000D2005F03AFF11
:102C8000322005F0D1FB32240A25012221007B48A5
:102C9000FDF750FA0F2005F09FFD059B0F215843CB
:102CA000000B684306F0A8F8754B81B218607548B0
:102CB000FDF774FA142005F0B7FB07340F20FDF779
:102CC00023FA782CE1D10F2005F086FD059B0F211A
:102CD0005843000B684306F08FF8604B0A251880B4
:102CE000122005F079FDD0232721584306F084F8FF
:102CF000FA21059B644A43431B0B1380574A98B241
:102D000012888900504306F001F9594B188000B22F
:102D1000FEF7B2FC554B0A211E88A01B06F0F6F800
:102D2000010069438919554E01223000FDF702FA6E
:102D30000F2005F051FD059B0F2158430A23000B7E
:102D4000584306F059F84E4B81B218604D48FDF7D4
:102D500025FA062005F068FB0F20FDF7D5F9013DA7
:102D6000D8D2424B012219883000FDF7E3F9012344
:102D70001F4A13703F4A13701F4B294C00255D5F9B
:102D80000B2D00D0DCE10021404800F055FF002869
:102D900004D00123002223702D4B1A80334B1A8854
:102DA000131C782A00D97823394A11789AB200295D
:102DB00000D195E2192A00D219232C4A9BB2138024
:102DC0002378002B0DD0244B0020185E002801D062
:102DD000FDF740FE254B0020185EFEF75FFB002349
:102DE0002370234B0020185EFEF746FC67E6C046C2
:102DF000BA120020641300203C010020B30E002012
:102E00005A0100203C130020BB0E0020C70E0020FA
:102E1000C6130020B50E0020C10E0020B90E002000
:102E20005E0100203075000074130020881300201C
:102E3000BE0E0020B70E00208A0E00208E0E00204D
:102E4000C50E0020C00E002070130020EE0200000E
:102E500064120020A00E00203A130020FC12002073
:102E600008130020BA0E0020B00E00205C010020E4
:102E7000FE120020670E0020B41200204C04002037
:102E8000041300206E0E0020021300208C1300207B
:102E90006612002001210D2005F0FCFD29000D2007
:102EA00005F028FE01223C212000FDF743F91425FE
:102EB0000A20013D05F0B8FA002DF9D1C7E6FA2144
:102EC000CB48890000F0B8FE002839D0C94ACA4969
:102ED0001368013313600A6801320A60062B2FD190
:102EE000C64B6421188805F087FFC54BC54C0021EF
:102EF000595E02B20023E05E0023FEF725F80023AE
:102F0000E05E0F21FDF73EFFBF4BC04A1B88181C37
:102F10001BB2934200DD101CBD4B02B29A4200DA94
:102F2000181CBC4B00B2C018142105F0EFFFBA4AC0
:102F300068304000835A013383520022AD4B1A603F
:102F4000B14BB64C19882000FDF728F900281ED196
:102F50002388002B1BD1E288B149131C8A4201D976
:102F6000B04B1B882380B04BB04D1C78002C72D026
:102F70009623A14C5B0022689A4208D3FDF7F2F930
:102F80000B20FDF767FD01232B7000232360A84B66
:102F9000A84E19883000FDF701F99A4C002814D08A
:102FA00001201025A44B1870A44B1D80FDF73EFF97
:102FB00000233380A24B00229A5E914B0021595E80
:102FC0000023E05E2B00FDF7BFFF9E4D2188280007
:102FD000FDF7E4F8002815D00122974B8E491A70AE
:102FE0001123964A1380CA880132CA8000222A809F
:102FF000934A0021525E82490020095E0025605FED
:10300000FDF7A2FF7D4B38001988FDF7C7F80028AF
:1030100000D0B1E63B88002B00D0ADE60122864B04
:1030200002301A70854B11321A80FDF7FFFEFA88C4
:103030007B49131C8A4201D97A4B1B883B80804B09
:1030400000229A5E6E4B0021595E0023E05E12233F
:10305000FDF77AFF90E601261E70FDF783F90B203D
:10306000FDF7F8FC644B2E701C6090E72000764959
:1030700000F0D4FD94E52000734900F0CFFD00225C
:10308000724B1A808CE5042005F060FD041E00D010
:103090009CE52B780593002B4CD138006C4900F04F
:1030A000CBFD002826D06B4E0320336801333360FC
:1030B000FDF7D0FC3368684C012B22D1200002F0D0
:1030C000C1FC0823802623610221200001F08BFE31
:1030D00076036249200003F0EDF80221200026610A
:1030E00001F081FE5E492661200003F0E3F85A48B2
:1030F00002F008FE01224D4B1A700B23594A13802F
:103100005EE5022B04D180235B0357492361EBE783
:10311000032B04D180235B0354492361E4E7042B90
:10312000E5D12000524903F0C5F801232B70059B1F
:103130003360DCE7FEF7C8FD464B2C701C60D9E716
:1031400000274C4A1780012D00D09FE0FA214A4EFB
:103150004A48338889000133338000F05FFD3388AB
:10316000012B0FD1464A1278BA4209D03C220221E3
:10317000394802F0DBFC224B1888FEF7CDF90DE64A
:1031800032800BE69A1E022A2AD8334D280002F01C
:1031900059FC102302212B61280001F024FE39493B
:1031A000280003F087F880235B032B6102212800AD
:1031B00001F019FE3388032B0BD0042B0ED02849C5
:1031C000022B07D0280002F09DFD0320FDF742FCF2
:1031D000E4E52549280003F06DF8F3E72349F9E712
:1031E000052B00D0DAE5284B37801D70D6E5C046A8
:1031F00080130020900E0020940E00200213002067
:103200008A0E0020FE12002000130020041000008F
:10321000E40C00001CF3FFFFE40E00206812002005
:10322000FEFF0000B4AA0000BF0E00205E010020D7
:10323000FC120020BC120020BA0E0020B00E0020AC
:103240005C010020D6120020307500008E0E002098
:10325000EE020000A00E00209C04002089AA0000BD
:1032600037AA00003C0100208EAA000093AA0000AB
:1032700099AA00003A130020641200208C13002049
:10328000B90E0020EBA90000C50E0020924B1B8850
:10329000042D0AD1772B00D980E50A338E490B80A3
:1032A00003231380023B237078E5092D04D1772B8B
:1032B00000D973E50133F1E7052D09D1192B00D8A9
:1032C0006CE50A3B84490B8004231380033BEAE747
:1032D0000A2D00D062E5192B00D85FE5013BF1E72C
:1032E000282A00D369E5282367E5012D00D0F9E1FC
:1032F0007A4B7B4E1A78002A2BD0002235701A7038
:103300000122784B1A703378774E002B09D033881E
:10331000934206D19621002374488900338000F03F
:103320007DFC3588002D27D1704F2900380000F032
:1033300083FC002801D1FFF7B0FB6D4C2378002BF4
:1033400016D096213800890000F068FC2570FFF740
:10335000B6FB3778002FD3D1FCF7E4FF390065487E
:1033600000F06AFC0028CBD03570FCF7CFFFC7E730
:1033700002233380FFF7A3FB022D01D0FFF79FFB51
:103380005D4F5E4D3B78002B53D02B78002B01D046
:1033900000232B70FDF776FD0023082623801320E1
:1033A00005F01AFA059B96215843FA23000B58435F
:1033B00005F022FD2388013EC0182080322005F050
:1033C00033F8002EEBD123884D4ADB102380934243
:1033D00007DD3100012005F08DFB01210B2005F0F8
:1033E00089FB484C0323484A0721200002F0DAFDFC
:1033F000200002F0ADFD072004F02EFF012108009F
:1034000005F078FB00210B2005F074FB642005F02B
:103410000BF8FCF7EDFE2B78002B01D1FFF74FFBEB
:10342000002301223B70394B39493A481A80FFF793
:10343000A9FA2B78002B01D1FFF741FB072005F0FB
:1034400085FB002811D00021324800F0F5FB002850
:1034500000D043E1304B00229B5E012B01D0FFF7EF
:103460002EFB2E4A1370FFF72AFB042005F06EFB9B
:103470000028E8D12A4B1B78002B01D1FFF71FFB56
:10348000284D01272A78002A00D0AAE01F4C238863
:10349000012B04D1244925482280FFF773FA002B21
:1034A00001D0FFF70CFB0021204800F0C5FB0028ED
:1034B00001D1FFF704FB01232B702380FFF7FFFAF4
:1034C0000A2004F0B1FFD6E00A2802D0052800D077
:1034D00000E100232370FDE05C0100204201002098
:1034E000C20E0020C60E002046010020A4130020BA
:1034F000B30E00206C13002049010020BD0E0020F7
:10350000470D0000581C0020FD0000004001002075
:10351000E20400007C1300203C010020BC0E0020CF
:10352000B80E0020B40E00208813000060130020A5
:10353000BD4B1B78002B54D00926BC4C64252000C1
:1035400002F080FA0221200001F04DFCB84B0A2263
:1035500031002361200002F024FF200002F0D2FBA2
:103560000A20013D04F060FF002DF9D1013EE4D2B4
:10357000FDF71AFD200002F065FAAE492561200032
:1035800002F098FE80235B03AB492361200002F028
:1035900091FE200002F0B6FB64350A20013D04F0E4
:1035A00043FF002DF9D1200002F04CFAA34920007E
:1035B000256102F07FFE80235B03A1492361200087
:1035C00002F078FE200002F09DFB974B08201D7052
:1035D000FDF740FA200002F035FA9A499A4800F0C7
:1035E0001DFB914B1B78002B01D1FFF768FA8F4C24
:1035F0006425200002F026FA0221200001F0F3FBEE
:10360000924B002223612023110020000093019798
:10361000DB1800F00FFF8749200002F04BFE20006E
:1036200002F070FB0720FDF715FA0A20013D04F0B7
:10363000FBFE002DF9D10226200002F003FA200043
:103640008349256102F036FE20005923102229000B
:1036500002960195009701F03DFB20004E231022B9
:10366000342102960195009701F034FB200002F00E
:1036700049FB784C2770072005F068FA002800D134
:103680001EE7042005F062FA002800D118E70320A5
:1036900005F05CFA002800D112E73800FCF70AFFB9
:1036A0002378002B00D143E70020FCF703FF6A4B8F
:1036B0005E4D1880092802D0042800D004E70023BA
:1036C000594A28002370137002F0BCF95D495E4826
:1036D00000F0A4FA280002F015FBE1E701233B709B
:1036E000FFF7EDF9032D01D0FFF7E9F95B4B1B78EC
:1036F000002B44D15A4B1888103804281FD805F0E5
:1037000071FB5D037A1E5D000123484C0E221F21D0
:10371000200000930C3300F0D7FF00250C23062275
:1037200000931E21093B2000019500F04FFE03236A
:103730001422019500931E21200000F047FEC821AD
:10374000484800F079FA484B002803D00122197844
:103750004A401A701B78002B5BD020230021009375
:103760001E2232480191DB1800F030FE00213F4854
:1037700000F062FA394B00284FD001221A70002362
:103780003B4A3C4913703C4A13803C4A1380F888FA
:10379000021C884201D93A4A12883A80394A138079
:1037A000394BD888021C884201D9354A12881A80C0
:1037B000FCF7ACFDFDF766FBFFF781F901232F2233
:1037C0001A4C039319331F21200002930192009396
:1037D00000220B3B00F0A5FF00250C2307220093DD
:1037E0001E21093B2000019500F0F0FD0323152266
:1037F000019500939FE70123002102931D3301935C
:10380000223300930A00214B0848039101F085F808
:1038100095E70F20FDF7F6FEA8E71B78002B01D1F6
:10382000FFF74DF9ABE7C046B40E00209C04002022
:103830001C000A009FAA0000D5A90000AAAA000047
:10384000B0AA0000E20400007C1300200A000A0075
:10385000A4AA0000B20E00203C0100203E0100207E
:10386000B00E002058130020680E002068130020BE
:10387000BA0E0020FEFF0000BC120020D61200206D
:10388000B4AA0000081300206812002000AC000059
:10389000002B00D0AEE00022B35E062B01D0012B3E
:1038A0001FD10423A24A062013800023A14A2370BB
:1038B0001370A14A1370A14A1360A14A1360A14A70
:1038C0001370A14A13600122A04B1A70FDF7C2F8D1
:1038D0009F49A04800F0A2F9FA219F48890000F012
:1038E0009DF99E4B1B78002B24D000250323904A82
:1038F00001210D201380257005F0CCF801210D2049
:1039000005F0F8F88C4B96491D708C4B95481D605E
:103910008B4B1D608B4B1D708B4B1D60924B1D7034
:1039200000F07CF9FCF7F2FC2800FDF76BFE0C20A0
:10393000FDF790F822788D4B002A00D0C4E00024D7
:1039400001210D201C7005F0A5F801210D2005F0C6
:10395000D1F82000FDF7A6FE854B86491C80864BDA
:103960001C80864BD888021C884201D9844A128860
:103970001A80844B1C80844BD888021C884201D951
:103980007F4A12881A80FA21804B81481A88814B1D
:103990008900DA8100F050F9002817D0E1227E4C2E
:1039A000920023680133236093420FD17B4D2B7823
:1039B000002B00D1B6E000210800FDF783F80123B9
:1039C000002800D000232B70002323600020FCF788
:1039D00071FD308004F0F8FC714C724B206022685D
:1039E0001B68D31A704A934201D9FEF74BFF04F0CB
:1039F000EBFCF2E7042B32D100226C4B1A70002250
:103A0000B35E062B0BD16A4B1B78002B1CD0092010
:103A1000FDF720F8FCF7C6FC0122664B1A706649D8
:103A20000B78002B86D0002301220B70FA2163480B
:103A30002370037062482A800370624B62481A70D8
:103A4000890000F0EBF875E701223A4922700A700C
:103A50003E4A05202B801370FCF7FCFFDFE7012BAB
:103A600019D15A490A78002A00D163E702222A8034
:103A700000220A70564922700B8050490A70504942
:103A80000A70544A13704B4A1370FCF7C7FBFA21B3
:103A900051488900D5E7032B00D04BE72F4B1A780C
:103AA000D3B2002A00D045E704322A800125214AFA
:103AB00023701370254B264926481D7000F0AEF880
:103AC0003C4B1D70FFF720F81A4A1278002A00D1EB
:103AD00035E701221A702D4B1A88131C782A1CD93D
:103AE00078232A4A99B21380304B1B78002B10D0D0
:103AF0003A4B3B481A78FCF71DFB244B1B88272BBD
:103B000007D901210D2004F0C5FF00210D2004F08C
:103B1000F1FF0120FDF7C6FD35E792B2192AE0D288
:103B20001923DEE70420FDF781F9FDF7ABF94BE738
:103B30005A010020C6130020BE0E0020900E002067
:103B4000940E0020BF0E0020980E0020B90E002019
:103B5000307500007413002088130020BA0E002076
:103B6000DC050000681300203E010020E00E00206C
:103B7000BC120020FEFF0000D6120020AC13002073
:103B8000B4AA000008130020681200205C01002085
:103B900090130020E40E00209C0E0020B60E0020A2
:103BA0004413002040130020A7610000670E00208E
:103BB000B70E00205E010020C50E0020C20E0020BE
:103BC000C60E0020490100206C130020BC0E00200E
:103BD00046010020B80E002078130020BA12002001
:103BE0004C0400200022014B1A707047C7130020BC
:103BF000014B1878C0B27047380400400221064BD0
:103C00001A788A431A70DA79D209FCD1997901328B
:103C10000A439A717047C046001000400B005A1EBC
:103C2000934170B505000C1E837004D004F0C6FBF0
:103C3000013C24182C8070BD70B5847805000E00FE
:103C4000002C0AD0048804F0B9FB074A231A9BB25F
:103C50000024934205D95B42DCB231002800FFF713
:103C6000DDFF200070BDC04660EA00000020704704
:103C7000F8B505000E0017000024BC4208D02B68E0
:103C80002800315D1B689847002801D00134F4E713
:103C90002000F8BD70470300FC33196ADA699142CD
:103CA00003D01B6AC018007E704701204042FBE72A
:103CB0000300FC33D8691B6AC01A01D50130FF30FC
:103CC00070470000F7B50193FA2380270025040010
:103CD0009B008360114B7F0008330E004560290074
:103CE000009203603A00183005F0B3FB2300200077
:103CF000FC332130DD613A001D622900FF3005F000
:103D0000A8FB87239B00E3185D609D60009B20005B
:103D10002375019B2661A5756375FEBD80B2000009
:103D200070B5040018260C49006902F0DBFD20691B
:103D300002F02AFC33000821207D084D4343EB1894
:103D4000595604F01BFF0821607D4643AD196956A2
:103D500004F014FF70BDC046A086010020C0000022
:103D600070B504000D00006902F023FC29002069F1
:103D700002F0B8FD206902F007FC70BD8A23002222
:103D80009B00C1540C3BC3185A609A600123837591
:103D900070470200FC32536810B501339468DBB2FF
:103DA0009C4202D054680155536010BD10B5030009
:103DB000827D002082420ED0872292009C18626889
:103DC000A4680132D2B2A24205D02133FF331800D9
:103DD000FFF7DFFF012010BD0300FC3399685A682C
:103DE000914206D09A68805C9A680132D2B29A6099
:103DF000704701204042FBE700228A2370B59B00F8
:103E0000827505000E00C15C006902F005FC002807
:103E100006D10321286902F0E9FB0224200070BDCD
:103E2000872328009B00EA18536894682130FF30EC
:103E30001C1B01D50134FF34002C0ED02C69FFF778
:103E4000CBFFC1B2200002F025FC0028E8D10321FD
:103E5000286902F0CBFB0324E0E7002EDED003212B
:103E6000286902F0C3FBD9E710B50121FFF7C4FFB1
:103E700010BD10B51830FFF7AFFF10BD70B50400CE
:103E8000006902F029FC002814D0206902F032FCFD
:103E9000002810D0206902F09FFB0321206902F066
:103EA000A5FB8C239B00E558002D39D10023FC3461
:103EB000E361236270BD206902F026FC002809D06E
:103EC000206902F01CFC002804D0206902F021FCCB
:103ED0000028DFD0206902F017FC002826D12069D5
:103EE00002F003FC0028E5D0206902F012FC002853
:103EF00037D087239B00E218536892689B1A01D53C
:103F00000133FF33FF21002B05D020002130FF308B
:103F1000FFF762FFC1B2206902F0CFFBA075C9E7CD
:103F2000236820001B699847A847BFE7206902F073
:103F300053FB2069032102F059FB206902F0E9FBE1
:103F40000028B7D0872300229B00E3185A609A60AC
:103F50000123A3758B239B00E3589342AAD0984773
:103F6000A8E72200FC32D369126A0133DBB2206970
:103F7000934206D102F027FB0321206902F036FBB1
:103F800098E702F0CBFB010020001830FFF701FF9B
:103F9000206902F021FBEFE710B50248FFF76EFF42
:103FA00010BDC046C813002010B5152314220249C5
:103FB0000248FFF787FE10BD68220020C8130020CA
:103FC00030B5234B002A37D0224A5A605A78D2099A
:103FD000FCD1214A9A605A78D209FCD11F4A5A80F2
:103FE0005A78D209FCD15F241D4A94641D4CD464D4
:103FF00002221D4C25782A4322701C4A5A605A78A6
:10400000D209FCD101320271FF291CD9FF210422FF
:10401000016009021143164A11605A78D209FCD195
:10402000144A154911805978C909FCD113491180E6
:104030005A78D209FCD130BD114A124C14605A781A
:10404000D209FCD1DFE70029E1D10131DFE7C04629
:10405000000C00400507030005300000014500008A
:104060000008004028100000440800400408030035
:10407000080C0040020C00401A4400001B440000E1
:10408000040C004004070300F8B5040018250020C4
:104090000B0020492E0046438E599E4204D0013029
:1040A0000E28F7D1002034E00020834231DB0126C6
:1040B0006B43C9184B68184D8868DB015B191D18E4
:1040C00040352F7840083E431B182E703033187847
:1040D0004D69CE682843C0B2187028237343A46882
:1040E0000E4D20000F69EB18944200D910009A6918
:1040F000DB69002105F016F82200002304F0F2FF2E
:1041000028235E43AA59386093685B021B0FFBD1DA
:104110000120F8BDA4B2000000440041600100206D
:10412000002010B5022913D828234B430B4CE31869
:10413000981CC2775B680220002A0AD01A681043D4
:10414000186028235943625893689B07FCD40120C8
:1041500010BD1A6882431A60F3E7C0466001002070
:10416000F7B508AB30CB1E780094019500230229E7
:1041700058D81C00012A17D0022A13D0042A53D081
:10418000082A54D0102A54D0402A55D00133FF3386
:104190009A4253D08023E024DB009A424AD0002484
:1041A000012201E08024640028254D43244B5D1941
:1041B0006F686A613A6814436A1CD677AA683C60E3
:1041C00015680224002E00D11E4C2C4314602822B6
:1041D0004A439C58A2685206FCD4019A009F944618
:1041E000002A02D1022F00D2022728221500002621
:1041F0004D435D192D69664503D1BD4201D93D008E
:1042000066464A439A189561D661D2681560A268DD
:104210005203FCD428224A439B180233DA7FFFF76B
:104220007FFF01231800FEBD8024A400BCE7C0244A
:10423000FBE78024E400B7E7A024FBE7C024F9E70C
:104240006001002005000F007047F0B515000C005C
:104250001E0089B00EAB00229B5E0FAA128801904F
:1042600005925A1BD11752184A400292321BD1179D
:1042700052184A4003920399029A8A4205DD32009D
:104280001E00130022002C001500B44205DD2A0098
:104290001D001300220034001600321B91B206915B
:1042A000591BC8170918414012B20791D10F8A183B
:1042B00052100092012204929D4202DB01235B42D4
:1042C0000493B44222DC019B039A1B689B691F0084
:1042D000029B934216DD22002900059B0198B847F6
:1042E000009B079A9A1A11B293B20091120406D554
:1042F000049AAD18069A2DB2D3181BB2009301345C
:1043000024B2DEE72A002100059BE7E709B0F0BDF3
:10431000704710B504682469A04710BD37B506ACD6
:10432000258804680095A46BA04737BD37B506AC57
:10433000258804680095E46BA04737BD73B506ACCB
:104340000025655F07AC2688046801960095246CFB
:10435000A04773BDF0B5160004000D0085B00393AF
:104360000AAB1F8803685B699847039B2268013B7F
:104370009B191BB2009301972B0029002000976A1C
:104380003200B84723682000DB6A984705B0F0BDCB
:10439000F0B505001C000E00170085B00AAB1B88A5
:1043A000013C03930368A4195B69984703992A6841
:1043B000019100973100280023B2946A3A00A04787
:1043C0002B682800DB6A984705B0F0BDF0B50E00F9
:1043D00087B003930CAB029200229B5E040004930F
:1043E0000DAB1B883500059303685B699847039AFA
:1043F0002368B21895420BDA059A290000921B6ACD
:1044000020001F00029A049B0135B8472DB2EEE749
:104410002000DB6A984707B0F0BD13B501910E2468
:10442000015F0C22835E02680091146C002211006F
:10443000A04713BDF0B5040015000E0087B004932B
:104440000CAB00229B5E05930DAB1B8803930368A6
:104450005B699847039A2368009231002A00200084
:104460005F6A049BB847059B03995A1E2368009115
:104470005219310020005F6A12B2049BB847039AB8
:104480002368009231002A0020001F6A059BB8476C
:104490000499039A23680139009289192A0020009F
:1044A0001F6A09B2059BB84723682000DB6A98475A
:1044B00007B0F0BD7047F0B585B002930AAB002796
:1044C000DF5F0BAB1B8816000393029B04000D00FB
:1044D0000268994210D1BE4202DD33003E001F0047
:1044E000039901370091BB1B976B1BB23200290067
:1044F0002000B84705B0F0BDBE420CD1029B9942E6
:1045000001DD029D0291029B039901335B1B009127
:10451000D76B1BB2EAE753699847039A2368019265
:10452000009720009F6A3200029B2900B847236849
:104530002000DB6A9847DDE703230B4010B5837644
:104540000822835E0A24025FC90702D48381C281E4
:1045500010BD8281C381FBE74281C2810122002319
:1045600010B55242064C4261064A0834436004606A
:1045700001818181036182610377036210BDC046BE
:10458000F4B8000001010001F0B51C008FB00692E4
:10459000012214AB1B780591079315AB0021595EDE
:1045A00016AB1B8805000893A3B2D01A93405B4258
:1045B0001BB289180C938BB209930493002300B2A9
:1045C000029003930D92039BA3427BDA029B270088
:1045D000002B09DB0C9B671E02331AB20C92029A65
:1045E0003FB29B181BB202936B469B890A9301331F
:1045F0009AB21BB203930B925300029A01339B1899
:104600001BB20293039B9F422CDB079B0D9A134224
:1046100012D00999BAB25300CB1806990B988A1A8E
:1046200005992E68411808981BB20090306A12B2A2
:10463000060009B22800B0470222079B134211D09E
:104640000999BAB25300CB1806990B988A1A0599A2
:10465000089E091A28680096066A1BB2280012B242
:1046600009B2B047BC4227D0079B0D9A13420FD026
:104670006B460A9910229B5E069A089E521A05996B
:10468000286809190096066A12B2280009B2B047D4
:104690000222079B13420FD06B460A9910229B5EA1
:1046A000069A2868521A059912B2091B089C09B289
:1046B0000094066A2800B047049B3C0002339BB27A
:1046C000049380E70FB0F0BDF0B51E0004000F00AA
:1046D00087B00CAB1B880492059303685B6998470D
:1046E00004990598B2B253008A1A21680090096AA9
:1046F00001330D00200039001BB212B2A847059B00
:10470000390002930023019303332000049A00939D
:104710003300FFF739FF23682000DB6A984707B0B2
:10472000F0BDF0B591B01D0016AB029200229B5E69
:104730000700039317AB00269E5F18AB00229B5E19
:10474000039A049319AB1B880C000993029B9342B4
:1047500000DCD7E0049A93421DDD049B039A934248
:1047600012DA1300049A0392029A02932B00350086
:10477000260004921C000EE0029B039A0393230080
:1047800002922C001D00E8E7029B049A0493230088
:1047900034001E0002923B6838005B699847039B17
:1047A000049A93421DD1A54202DD2B0025001C0076
:1047B000B54205DC231CB44200DA331C2E001CB2C7
:1047C00009993A6801340091A31B556A31003800F9
:1047D000039A1BB2A8473B683800DB6A984711B0C0
:1047E000F0BDA3B2ADB205935B1B1BB26A460D933D
:1047F0006B4691891B89B6B25A1A12B20E92721B7D
:1048000012B208926A46128A511A09B20B9105999E
:10481000D21A761A31B212B20C910F920499029AFE
:104820000A928A4202D0013B1BB20A930023039EE4
:10483000079306930A9B9E422ADC0E99069804F081
:1048400065FB28180B9904B2079804F05FFB0D9ADA
:10485000069B9446089A634494460693079B28183F
:10486000634400B20793844202DD23000400180071
:1048700009993A680091526A01309446031B32004C
:104880002100380064461BB20136A04736B2D1E79A
:10489000029BF21A0C9B53430293039B089AF31A50
:1048A0005A430392049B9E4200DD94E70F990298BD
:1048B00004F02CFB059B0B99181804B2039804F024
:1048C00025FB0C9A029B9446089A634494460293F3
:1048D000039B2818634400B20393844202DD230043
:1048E0000400180009993A680091526A0130944610
:1048F000031B32002100380064461BB20136A0477A
:1049000036B2CFE7039B049A934200DD34E7029A64
:10491000029303922B000D002CE7F0B58DB00793A6
:1049200012AB069200229B5E0591019313AB00220D
:104930009B5E0400089314AB1B880026099315ABFB
:104940001B8835000A9303685B6998470722019B1F
:104950000B92D91DCB1713405B18DB100293330069
:104960009AB20392069A99B28A1812B20492089ADD
:10497000934227DA0023019A93421DDA9AB20092F9
:104980000B9A6D00EDB2134203D1079ADB10921916
:10499000D55C2368059A9B691F00009B99186AB231
:1049A000099B09B2002A00DB0A9B2000049AB84741
:1049B000009B01331BB2DEE7039B029A01331BB25B
:1049C000B618CDE723682000DB6A98470DB0F0BD2C
:1049D000F0B585B00AAC0025645F0BAD0026AD5F75
:1049E0000DAF0CAE36883F88029603970195009470
:1049F000FFF793FF05B0F0BDF0B595B01D001AAB01
:104A00001B88049205931BAB1E881CAB1B78026AA3
:104A100002931DAB1B78040008910393002A00D079
:104A2000C4E00C22835E8B4200DC7DE00E22835EBC
:104A3000049A934278DD0623029A53435B18002BB5
:104A400072DD039B049ADB009B18002B6CDD037F57
:104A5000002B03D1AF2D01D90135EDB22368200021
:104A60005B6998470522002355430793984B0B92A7
:104A70005B190F93079A0F9B9B5C0A936B469B8B6A
:104A800009936B461B89099A0E936B461F8C029BF8
:104A90005343FB181BB20D9308230C93002306937A
:104AA00001220A9B2068134252D06B461A8B198A46
:104AB000029B012B3AD1039B012B37D1099B521842
:104AC0008569D919059B12B209B22000A847069B37
:104AD00001335BB206930A9B5B080A930C9B013B74
:104AE000DBB20C93002BDBD1079B01335BB2079346
:104AF0000B9B013BDBB20B93002BBBD1059BB3425D
:104B00000ED0029B2268012B3FD1039B012B3CD18D
:104B100005370096156A2000049A39B20733A84772
:104B200023682000DB6A984715B0F0BD6B46082566
:104B30005B5F039D6A438A18059912B20191694629
:104B40000C25495F0091C5690D992000A847BEE773
:104B5000059BB342BBD06B461A8B198A029B012B73
:104B60000AD1039B012B07D1099B5218D9198569DA
:104B7000330012B209B2A8E76B4608255B5F039DBC
:104B800001966A438A1812B2D9E76B4608215B5E28
:104B900005210E980196414303987918C0000090B2
:104BA000D5692000049A09B2A847B9E7137A516879
:104BB000ED1A1268EDB2ED0013924A5B4B1909929F
:104BC0009A780D92DA78119205229A569B790E9274
:104BD0005BB20F93029B012B02D8039B012B56D98A
:104BE0006B4638229B5E0B936B463C229B5E0C937C
:104BF0000027236820005B69984707970697119B59
:104C0000069A9A4200D38BE76B461B8A00260A93CA
:104C10000C9B9B18039A53430A9AD3181BB2109308
:104C20003B000D9A96424BD25A1CD2B212920722E6
:104C3000134207D1099B0999139A0133525C9BB225
:104C4000079209936B461B7F5BB2002B17DA6B460A
:104C5000198C029B2068012B1DD1039B012B1AD1BB
:104C60000A9B0F9A9A18069BD2180E9B12B2C9186B
:104C7000836989191D002000059B09B2A847079B7D
:104C800001365B00DBB20793F6B2129BC9E7002343
:104C90000C930B93ACE76B4608229B5E0B9A029D2C
:104CA00092196A438918059A09B201926A460C253D
:104CB000525F0092C26920001500109AA847DEE7F3
:104CC000069D0D9B0135FF18EBB2FFB2069396E7E8
:104CD000F4B300007FB508AC258809AC26880AAC7F
:104CE00024780196009503940294FFF785FE7FBD1A
:104CF000F0B5026A04000D0085B0002A2CD10A2903
:104D000008D1437E0282DB00628A9B186382012005
:104D100005B0F0BD0D29FAD01223C25E1023C15E8A
:104D2000437E0393037E0293C38A0193838A009395
:104D30002B00FFF761FE227E238A312D08D1042A41
:104D400002D113332382E2E7032A01D10E33F9E7BC
:104D500006214A439B18F5E70A2905D1002303825F
:104D6000127B437E5343CFE70D29D0D0137A99426B
:104D7000CDD3917AA942CAD3EB1A5168DBB2DB00DA
:104D8000CE18B178002929D0F378002B26D0E37E05
:104D9000007E677E002B13D00523F3565B18434338
:104DA0009C461023E15E8C440C23E15E8C4507DDBC
:104DB0001223E15E00232382137B7B435B18638213
:104DC0001223E25E1023E15EE38A02900193A38A3C
:104DD0002000009303972B00FFF70EFE227E33790D
:104DE0005343228AB6E70B1C002900D10123037626
:104DF0004376704710B500F02DFB0022024B800077
:104E0000C35849331A7010BD50160020F0B5040085
:104E100085B01E000AAB1B78103001930BAB1B78DA
:104E2000170002930CAB1B780D00039300F094F96C
:104E30002000243000F090F9220000234832A363C0
:104E4000E363236463641370537063729D4205D1FE
:104E50002721084B084A094804F082FA2000019BE8
:104E600025606371029B2771E371039BA671237216
:104E700005B0F0BD4CB900005DB90000B1B900004B
:104E800030B5040085B002AD00680291039201F0D4
:104E900036FB6B79227AE17920680093002301F0D8
:104EA000F7FC2979029A206801F04EFB206801F096
:104EB0001CFB05B030BD000007B5837A009101925C
:104EC000002B07D09A070AD5EFF310835A425341BB
:104ED000C37272B60099019AFFF7D2FF07BDDB07D4
:104EE000F8D5C368014A9BB29360F3E7001800400D
:104EF00010B5006801F00CFB10BD000010B5006893
:104F000001F01AFC03000020834203DB0C30434312
:104F1000014A985810BDC04618BA000010B5006884
:104F200001F00AFC002805DB0C2343430348C018AA
:104F3000406810BD01204042FBE7C04618BA00009F
:104F400010B5006801F0F8FB002805DB0C23434393
:104F50000348C018806810BD01204042FBE7C046EE
:104F600018BA0000F0B506001036050089B0300010
:104F700000F048F900286CD12F002437380000F0E9
:104F800041F9041E62D12800FFF7DAFFC1B23000F8
:104F900000F018FA0221300000F038FA01222E4900
:104FA000300000F00BFA300000F054FA2B4B800078
:104FB000C5502800FFF7B2FFC1B2380000F002FA76
:104FC0000221380000F022FA380000F043FA234BA7
:104FD0008000C5502800FFF791FF01230100220047
:104FE000029330002300049403940194009400F091
:104FF00033FAA8632800FFF781FF01230200210094
:10500000019338002300049403940294009400F068
:1050100023FAE863402004F0FFF92A0048322864AC
:10502000079200280BD00123137068646B6C102268
:105030001819E96B103404F003FA402CF6D1079BE1
:105040001B78002B05D1380000F076F9300000F015
:1050500073F909B0F0BDC046F54D000050160020B0
:1050600070B5437A0400002B03D1012243814272C0
:10507000C360230048331B78002B02D12000FFF7C8
:1050800071FF18263300082120790D4D4343EB189A
:10509000595603F073FD33000821A0794343EB1800
:1050A000595603F06BFD082160794643AD196956E6
:1050B00003F064FD034B200006CBFFF7E1FE70BD5B
:1050C00020C00000481600201FB5094A094B0A49B4
:1050D00013600023938002930133019316330093EE
:1050E000162201330548FFF791FE05B000BDC0460A
:1050F0004816002000093D006C220020FC1500200D
:10510000084B1968002909D1EFF31080064A0028DE
:1051100003D172B6BFF35F8F013111701A6801328B
:105120001A6070470818002004180020084B1A68FD
:10513000002A0CD01A68013A1A601B68002B06D1AD
:10514000044B1B78002B02D0BFF35F8F62B6704711
:105150000818002004180020FF2310B50370C02396
:10516000002104009B004170418083800C220830A4
:1051700004F06FF9200010BD01230A0010B51A4099
:10518000194208D00C4A1370033343708368002B14
:1051900000D0984710BD0223194204D006490B7075
:1051A000C3684270F3E704231942F3D0024A137034
:1051B000033343700369EAE74E48004110B5FFF737
:1051C0009FFF0C4B1B8C1B071B0F0B2B0FD80A4A86
:1051D0009900885800280AD00F2408490A78A24369
:1051E00013430B70064B1978C9B2FFF7C5FFFFF7E1
:1051F0009DFF10BD004800410C1800203F480041B1
:105200004E480041F8B500230278050018000B2A2B
:1052100077D93C4E2B702B780B2B07D801229A4064
:105220003168114204D001332B70F4E7012068E0AB
:10523000FFF766FF3768344C002F2BD12022334B09
:10524000334859690A435A611022D9690A43DA611D
:10525000022223883900934323802388013A134391
:1052600023802C4B6063BF32A36304F0F2F8C022AA
:105270003900284804F0EDF84022C120264B800078
:105280002380264B26491A601A581140C022120466
:105290000A431A5001231A00297830688A400243D1
:1052A00032600F261F4A880085501F48314002781F
:1052B000B2430A43027002201C4A117881431170E4
:1052C000117819431170297822698B409A43226121
:1052D00060223F21636C934363642A79636C0A40C4
:1052E000134912020B400321134363646A79636C10
:1052F0000A40104992050B4013436364FFF716FF01
:105300000020F8BD001800200048004100040040C3
:105310004017002080160020020F000000E100E08E
:10532000FFFF00FF0C1800203F48004140480041AB
:10533000FFC0FFFFFFFF3FFF70B50500FFF7E0FE76
:105340006B785CB2062B2BD02B7802240B2B27D842
:1053500001229A40144B1968114221D019689143D7
:1053600019601B68002B14D14022104BDA67BFF381
:105370004F8FBFF36F8F21000D4A0E311388A34367
:1053800013800C4BDA698A43DA615A6910318A4317
:105390005A6100242B78084A9B009C50FF232B70F5
:1053A000FFF7C4FE200070BD0018002004E100E0FB
:1053B00000480041000400400C1800200232920016
:1053C00011507047037870B505000C0001710B2B6C
:1053D00014D8FFF795FE29780F250948294003784E
:1053E000084AAB430B4303703F23516C1C40064BF0
:1053F000240219400C435464FFF798FE70BDC04668
:105400003F48004100480041FFC0FFFF037870B5EE
:1054100005000C0041710B2B14D8FFF771FE2978A1
:105420000F25094829400378084AAB430B43037012
:105430000323516C1C40064BA40519400C435464D3
:10544000FFF774FE70BDC0463F4800410048004170
:10545000FFFF3FFF00787047F0B587B001930CABBA
:105460001E780DAB1B78050002930EAB1B780078FD
:10547000039310AB1F78049105920B2802D90020EA
:1054800007B0F0BD6B78062BF9D0AB78002B00D1BC
:1054900079E01021080003F0B5FF0028EFD02B7849
:1054A0003B4A1B019B181A00D168002904D0D1681F
:1054B0008B4201D0D268F7E7D06001220223AA70A4
:1054C000964203D0DB18022E00D013000624018878
:1054D000114301800188A143018001881234A14356
:1054E0000180153C018826402A4C360221400E439B
:1054F0000680029E0188284C16402140B6020E43C9
:105500000680039E0188254C16402140F6020E437A
:1055100006800188224E3A40314012030A43072197
:1055200002800F9A114002884903D204D20C0A4328
:1055300002806A4692884280049A4260029A002A57
:1055400008D0019A41685A43002F01D00F9CA24015
:105550008A184260059A8260039A002A09D0019A4B
:1055600084685A431300002F01D10F9A9340E31827
:1055700083600023EA789A4203D02B78044A1B0107
:105580009B18C3607CE7024B0001C01895E7C0463A
:1055900040170020FFFCFFFFFFFBFFFFFFF7FFFFAF
:1055A000FFEFFFFFF0B5150005AA1488827E022ADE
:1055B00000D16BE0032A00D19FE0012A00D06DE00A
:1055C000EA430589AD182DB2002D5EDB0826825F07
:1055D000AA425ADD002902DA5B1800211BB20A2216
:1055E000825EC818904201DD531A1BB2002B4CDDBD
:1055F000C8B2C2085E49920152195218072501002B
:10560000DBB2294028421CD008205A4D401AC0B2B3
:105610002D5C834200D3A3E0FF26C71A3E413540EC
:10562000012C00D16EE0022C00D16FE0002C2CD1B7
:105630001678AE431670834227D308395B18DBB265
:105640004032072B14D9022C63D1100019000578C1
:105650000839ED43C9B2057040300729F7D8190061
:105660000839C9B2C90801318901521807210B4014
:10567000002B0AD04049CB5C012C58D0022C5AD0C8
:10568000002C02D1117899431170F0BDEA4345898D
:10569000C918AD1802892DB2511A09B2002DF4DBD8
:1056A0000A26825FAA42F0DD002902DA5B18002197
:1056B0001BB20822825EC818904201DD531A1BB249
:1056C000002BE2DDEA1092015118294A01208A18C4
:1056D00007210D40A840C0B2012C2FD0022C36D09B
:1056E000002CD2D1C043C0B2013B1BB2591CCCD05C
:1056F0001178014011700132F6E74289C918511A38
:1057000009B261E716783543157094E7167875404D
:10571000FAE7611E48424141150018004942C9B2EA
:105720000838C0B2297040350728F9D897E71178B2
:105730000B431370A9E711784B40FAE7013B1BB20A
:10574000591CA2D01178014311700132F6E7013BD8
:105750001BB2591C99D01178414011700132F6E703
:10576000012CCFD0022CD1D0002C00D065E75FE710
:10577000E8010020E0010020D8010020F0B50C0075
:1057800005A90D88817E02293CD0032900D1A1E022
:1057900001293FD10189D2188A1A12B2002C00DAED
:1057A00097E00A26815FA14200DC92E0002A02DA3B
:1057B0009B1800221BB20821415ED018884201DDEF
:1057C0008B1A1BB2002B00DC83E0E11089018A18E0
:1057D0005D490120511807221440A040C0B2012D9C
:1057E00000D17CE0022D00D182E0002D71D1C043B8
:1057F000C0B2013B1BB25A1C6BD00A7802400A703F
:105800000131F6E7E1430489D2186418418924B2D2
:105810008A1A12B2002C5CDB0826815FA14258DD97
:10582000002A02DA9B1800221BB20A21415ED0181E
:10583000884201DD8B1A1BB2002B4ADDD2B2D1089F
:10584000414889010919091814000720DBB20440F6
:1058500002421AD001303D4A001BC0B2125C8342A2
:1058600000D36AE0FF26C71A3E413240012D48D0DE
:10587000022D4AD0002D2CD10E7896430E70834213
:1058800027D3083C1B19DBB24031072B14D9022D5A
:105890003ED108001A000478083AE443D2B20470FA
:1058A0004030072AF7D81A00083AD2B2D20801329B
:1058B0009201891807221340002B0AD0244AD35C96
:1058C000012D33D0022D35D0002D02D10A789A4314
:1058D0000A70F0BDE1434489641824B25EE7013BDD
:1058E0001BB25A1CF5D00A7802430A700131F6E760
:1058F000013B1BB25A1CECD00A7842400A700131BD
:10590000F6E70E7832430A70B9E70E787240FAE78C
:105910006A1E504242410C0018005242D2B208386E
:10592000C0B2227040340728F9D8BCE70A78134384
:105930000B70CEE70A785340FAE7012DE1D0022D33
:10594000E3D0002D9DD197E7E8010020E001002081
:10595000D801002030B5002947DB0C25445F8C427C
:1059600043DD002A41DB0E25445F94423DDD847E09
:10597000022C1ED0032C25D0012C04D1D243008947
:1059800080180A0001B2012B22D0022B2ED0002B4E
:105990002BD10720D31703409B18DB109B0159180C
:1059A0000123024093401A00174C635C93436354F5
:1059B0001BE00489013C611AD443428909B21219DF
:1059C00012B2E0E740890138401A110002B2DAE76A
:1059D0000724D0172040801822409340C010800137
:1059E00041180948425C1343435430BD0720D31784
:1059F00003409B18DB109B01591801230240934080
:105A0000014C625C5340D2E7E801002070B504000D
:105A10000D0020224021FEF79FFD094BFF22083395
:105A2000236023002A331A702200012328325B42AC
:105A3000E38413702300293320001D7070BDC0461D
:105A400060BA0000802210B500210248520003F025
:105A500000FD10BDE80100200300F7B52B331B78D3
:105A600004000D00002B03D01348FFF741FAF7BDE7
:105A7000082380260127009323001F200833019369
:105A80001856002103F036F831001F20E31D185688
:105A900029402E4200D0390003F02CF81F20019B32
:105AA0003900185603F026F8009B7608013B009356
:105AB000002BE1D1DBE7C046FC15002070B5C31D0B
:105AC000DB7F04005BB20D0001331AD0060000201A
:105AD0002A360121305603F00DF8282000212056E7
