:100000000080002009800000D17F0000F37F000005
:1000100000000000000000000000000000000000E0
:10002000000000000000000000000000F37F00005E
:100030000000000000000000F37F00005D80000071
:10004000F37F0000F37F0000B5380000E95C00009A
:10005000957F0000F37F0000754E0000F57F0000E3
:10006000F37F0000795E0000F37F0000F37F000063
:10007000513C0000F37F0000895E0000F37F000028
:10008000F37F0000F37F0000F37F0000F37F0000A8
:10009000ED670000F37F0000F37F0000B55C000017
:1000A000F37F0000F37F0000F37F0000F37F000088
:1000B0000000000010B5064C2378002B07D1054B3B
:1000C000002B02D0044800E000BF0123237010BDC4
:1000D000300400200000000040C30000044B10B5B5
:1000E000002B03D00349044800E000BF10BDC04608
:1000F000000000003404002040C300000122014B36
:100100001A707047BD0E002070B506000C2008F074
:1001100057F908250024300008F0BCF9013D041906
:1001200024B2002DF7D10723E01718400019C010A2
:1001300080B270BD70B505000C00272917DD002ABC
:1001400000D00334782C00DD78242000FE245021D8
:100150002838FF344942604308F036FD8B239B006A
:10016000C11889B20E20698008F00CFA70BDEE212A
:10017000FF3141800E2008F005FA283C054B640051
:10018000E35E0A220D215A43AB80034803F0D8FDF9
:10019000ECE7C04666A800004C01002010B543887B
:1001A00004888B4215D20179104B5B1AA34200DD03
:1001B00023005B1803800188C2880023914205D385
:1001C0004379994200D31300038001230372007A1C
:1001D00010BD42791300A24206D80179034B5B1A85
:1001E000A34200DD23009BB29B1AE3E7FFFF000060
:1001F00010B5084C01233C220221200005F0F2FA40
:10020000200005F07BFA200005F0D8FB024B63616B
:1002100010BDC0469C04002001000100F0B5324D25
:1002200085B02800002405F069FA2027082601235C
:10023000220021002800029303942C4B0197009682
:1002400004F022FA012322003100280002930394D3
:10025000274B0197009604F017FA0123220028008B
:1002600002931021234B03940197009604F00CFA9B
:10027000012322002800029318211F4B03940197A9
:10028000009604F001FA01232200390028000293AD
:1002900003941A4B0197009604F0F6F9012322000B
:1002A000280002932821164B03940197009604F02E
:1002B000EBF901232200280002933021114B039413
:1002C0000197009604F0E0F901232200382128006C
:1002D000029303940C4B0197009604F0D5F9280083
:1002E00005F06CFB05B0F0BD9C040020520400201A
:1002F00042000020660000208A000020AE0000209E
:10030000D2000020F60000207604002010B5044C36
:10031000200005F0F3F9200005F050FB10BDC046A9
:100320009C04002010B50C4C200005F0E7F92000DB
:10033000022104F0B4FB002320002361074905F0EB
:1003400015FE80235B0306492361200005F00EFEA5
:10035000200005F033FB10BD9C04002024A6000003
:1003600029A6000010B50C4C200005F0C7F92000AC
:10037000022104F094FB002320002361074905F0CB
:10038000F5FD80235B0306492361200005F0EEFDA7
:10039000200005F013FB10BD9C0400202DA60000DA
:1003A00031A60000F0B58027032685B07F031E4CE0
:1003B0004B25200005F0A2F90221200004F06FFB7C
:1003C00000231A492361200005F0D0FD18492000C0
:1003D000276105F0CBFD200005F0F0FA0A20013D71
:1003E00007F080FE002DF9D1200005F087F90123E8
:1003F00003931F330193203320002A002900009328
:1004000002950C4B04F0E5F8200005F0D7FA4B24D8
:100410000A20013C07F066FE002CF9D1013EB6B27D
:10042000002EC4D105B0F0BD9C04002036A600000B
:1004300031A6000066A70000F0B50025092791B09D
:1004400000900191019BAB422BDD174C200005F081
:1004500055F92000022104F022FB144E2A0031003D
:10046000276103A809F040FA200003A905F07EFDEA
:100470000F4B009A23616B00D25A310003A809F098
:1004800033FA200003A905F071FD200005F096FA6B
:1004900021240A20013C07F025FE002CF9D101356A
:1004A000D0E711B0F0BDC0469C0400203CA600007F
:1004B00009001000AA4AF8B51168050001230800D8
:1004C0001840194202D1A74913608870A64A012337
:1004D000116808001840194202D1A44913608870BD
:1004E000A34A0123116808001840194202D1A1490A
:1004F00013608870A04A012311680800184019424F
:1005000002D19E49136088709D4A0123116808003A
:100510001840194202D19B49136088709A4A0123FE
:10052000116808001840194202D198491360887078
:10053000974F984E002D20D00123974A0B2413701B
:10054000964A1370964A1370964A1370964A13701F
:10055000964A13700023964A3B701370954A337085
:100560001370954A1370954A1370954A1370954A03
:100570001370954A13702000F8BD3B78002B21D0F2
:100580002900784803F0B4F90B24002800D03D700E
:100590003778002F5CD00021744803F0A9F90028B7
:1005A00001D000233370884B1D78002D00D194E0DA
:1005B0000021704803F09CF90028DCD00023824A17
:1005C0001370D8E7032008F01FF903005A1E934167
:1005D000744A1370704B1B78002822D1674C002B93
:1005E0000BD032215F4803F075F9012320007749D1
:1005F0003B7003F06FF90B240EE02900200003F09C
:1006000077F90028F7D0FA210122694B2000490030
:100610001A70042403F05EF9624B5F4A1B78137072
:10062000B6E7664C002B07D132214E4803F052F951
:1006300001233B702370DEE72378002BDBD05C4B7B
:1006400025701A780924002AE6D01D700234E3E7E9
:10065000042008F0D9F803005A1E9341524A13703F
:100660004E4B002821D11978464D00290ED0322159
:100670003E4803F02FF9012328005449337003F05A
:1006800029F9494B454A1B7813708CE7280003F081
:100690002FF90028F5D0FA210122464B2800490005
:1006A0001A70052403F016F9EBE71B78444D002B74
:1006B00007D132212D4803F00DF9012333702B703F
:1006C000DFE72B78002BDCD03A4B2F701A78002A0A
:1006D00001D01F70D5E70A24D3E7072008F094F86B
:1006E00003005A1E9341314A2D4F137000281DD12B
:1006F0003978264D00290ED032211E4803F0EAF841
:100700000123314A31491370280003F0E3F8274BE5
:100710001B783B702FE7280003F0EAF80028F6D09A
:100720000124FA21244B49001C70EDE73B78254E4B
:10073000002B08D132210F4803F0CCF80123224AC4
:1007400033701370E3E73378002BE0D01A4B357029
:100750001A78002A01D01D70D9E70624D7E7C046D1
:10076000280E0020460E0020300E0020500E0020E3
:10077000380E00205A0E00202C0E00204A0E0020B9
:10078000340E0020560E00203C0E0020600E00208B
:10079000420E0020440E00201D0100201E010020FA
:1007A0001F0100201A0100201B0100201C01002055
:1007B0004E0E0020540E00205E0E0020400E002041
:1007C000410E0020430E0020450E00201A040000B8
:1007D000F8B5242706260C2502242F4B0800198083
:1007E000012107F0B5FF3A002C492D4808F086FC9E
:1007F0002C4B3A002C492D481E8008F07FFC2C4BD6
:100800002A002C492C481E8008F078FC2B4B2A002B
:100810002B492C481C8008F071FC2B4B2A002B49DB
:100820002B481C8008F06AFC2A4B2A002A492B48D6
:10083000AD191C8008F062FC294B2A0029492A487E
:100840001C8008F05BFC294B2A0001342849294808
:100850001C8008F053FC284B2A00284928481C809B
:1008600008F04CFC274B3622274928481C8008F00A
:1008700045FC0922264B27491A8027483A0008F0F0
:100880003DFC264B1822264926481E8008F036FCDF
:100890000422254B1A80F8BD40000020F4A9000076
:1008A000980C002036130020A0A90000E8070020C3
:1008B0002A130020A4A80000600D00203813002097
:1008C000E8A90000200700202813002098A80000B5
:1008D000D00B002034130020DCA90000080B0020FE
:1008E0003213002018AA0000C804002022130020A0
:1008F00000AF000090050020241300206CAF000022
:10090000580600202613002012AF000078090020AE
:100910002E13002048AF0000400A002030130020B2
:10092000C4A90000B00800202C13002010B5012934
:1009300007D1C8222F4908F0E1FB2F4B1B88180074
:1009400010BD022905D1C8222C4908F0D7FB2C4B39
:10095000F4E7032905D1C8222A4908F0CFFB2A4B26
:10096000ECE7042905D1C822284908F0C7FB284B29
:10097000E4E7052905D1C822264908F0BFFB264B2C
:10098000DCE7062905D1C822244908F0B7FB244B2F
:10099000D4E7072905D1C822224908F0AFFB224B32
:1009A000CCE7082905D1C822204908F0A7FB204B35
:1009B000C4E7092905D1C8221E4908F09FFB1E4B38
:1009C000BCE70A2905D1C8221C4908F097FB1C4B3B
:1009D000B4E70B2905D1C8221A4908F08FFB1A4B3E
:1009E000ACE700230C29AAD1C822184908F086FBDD
:1009F000174BA3E7980C002036130020E8070020CF
:100A00002A130020600D002038130020200700204A
:100A100028130020D00B002034130020080B0020E6
:100A200032130020C804002022130020900500206B
:100A300024130020580600202613002078090020E7
:100A40002E130020400A002030130020B0080020A0
:100A50002C130020F0B5B3B081B26846FFF766FFF3
:100A60000A210500154802F035FF0024032120006B
:100A700008F020F880B2A8421ED2104E00213000AB
:100A800002F036FF0028F8D06B466946671C7F00ED
:100A9000DA5B6300C95A0A4B188805F0D1FD6A4633
:100AA000A31C5B00D15AD35B3000C91889B2033450
:100AB00002F010FFA4B2D9E733B0F0BD5C13002000
:100AC00040000020F0B59C4C9C4DA5446B696A46E3
:100AD00029690600280005F063F8E022984C694671
:100AE0002000920008F00AFB607CA37C00285ED105
:100AF000002B58D1C8225200628002221900FF3216
:100B00006360A360E36022612675E38223838D4ADC
:100B1000D1520233642BFAD1002318008A4FD9191D
:100B200002330880522BFAD100239C468749624643
:100B30005818023302802A2BF9D12088DF23933002
:100B4000FF30861900209B00E6507E4A125A023080
:100B5000944666446428F8D1E6500023FA5A0233DA
:100B6000B618522BFAD1DF2300229B00E650885A98
:100B7000023236182A2AFAD1E02221009200684671
:100B8000E65008F0BBFA28006A69296904F0F6FF0C
:100B90006A4628006B69296904F0A4FF6C496D4816
:100BA00005F0F6F90120E1239B009D44F0BD0020F3
:100BB0008342F8D1674D6849280005F0E9F9674993
:100BC000280005F0E5F90A222188280005F049FAF5
:100BD0000A226188280005F044FA0A22A188280028
:100BE00005F03FFA0A22E188280005F03AFA0A22C5
:100BF0002189280005F035FA0A226189280005F0CC
:100C000030FA0A22A189280005F02BFA0A22E1898C
:100C1000280005F026FA0A22217C280005F021FA96
:100C20000A22617C280005F01CFA0A22A17C280017
:100C300005F017FA0A22E17C280005F012FA0A22D0
:100C4000217D280005F00DFA0A22E18A280005F02E
:100C500008FA0A222800218B05F003FA2600718B7E
:100C60000A22280005F0F9F93D4F2800390005F067
:100C70007DF93C4B02369E42F1D1280005F080F907
:100C80000026314B0A22995B280005F0E6F902366E
:100C90003900280005F06AF9522EF2D1280005F03B
:100CA0006FF90026294B0A22995B280005F0D5F937
:100CB00002363900280005F059F92A2EF2D1280011
:100CC00005F05EF9002263882088C018A3881B18ED
:100CD000E088C01823891B186089C018A3891B18D5
:100CE000E089C018237C1B18607CC018A37C1B18EB
:100CF000E07CC018237D1B18E08AC018238B1B18CA
:100D00001048815A02325B18642AFAD100220E4937
:100D1000895A02325B18522AF9D100220B49895AAA
:100D200002325B182A2AF9D1DF229200A058C01A99
:100D300043425841C0B236E77CFCFFFFC80E00209A
:100D4000E40E0020FE0E0020620F0020B40F0020F1
:100D500041A60000601F00204EA6000063A6000010
:100D600074A60000480F00200839030010B50800E1
:100D7000082908D807F094FE353A07070707081E28
:100D800005001D4AD38110BDFA22181CD2009342DF
:100D900000DD101C030400D50020322100B207F052
:100DA00013FF00B2144B3C3040001818C3880133C5
:100DB000C380E8E7114A181C934200DD101C104B59
:100DC00002B29A4200DA181C0E4B00B2C01814216D
:100DD00007F0FAFE084A68304000835A0133835214
:100DE000D1E719004A1E9141034AD174581E83412C
:100DF000014A1375C7E7C046E40E00200410000046
:100E0000E40C00001CF3FFFF00B5042809DC0028F7
:100E100009DB0138114B032806D807F041FE090D04
:100E20001115152814D000BDDA880132DA80FAE7EE
:100E30001A8901321A81F6E75A8901325A81F2E79A
:100E40009A8901329A81EEE79A8801329A80EAE71C
:100E5000024A138B01331383E5E7C046E40E0020FA
:100E600030B5294900204A880B88284C9B188A886D
:100E7000274D9B18CA88A5449B180A899B184A8944
:100E80009B188A899B18CA899B180A7C9B184A7CE4
:100E90009B188A7C9B18CA7C9B180A7D9B18CA8A5F
:100EA0009B180A8B9B18DF2292008B502C5A023021
:100EB0001B196428FAD18B500022164CA05A02321A
:100EC0001B18522AFAD1DF2200209200124D8B50BB
:100ED0002C5A02301B192A28FAD18B50E02268467E
:100EE000920008F00BF90D4C20006269216904F0B2
:100EF00045FE6A4620006369216904F0F3FDE123A1
:100F00009B009D4430BDC046E40E00207CFCFFFFEA
:100F1000FE0E0020620F0020B40F0020C80E00203B
:100F2000F7B5A025A126009200220193124B6D0077
:100F30007600A224A4465F889C4464461F801F005C
:100F40002488A0373C80F1249F5B64005F531F5BC3
:100F50000132023C1F5302334F2AEAD1074B4A3277
:100F6000FF329852A03299520099A03299520199B9
:100F7000A0329952F7BDC046DE0F0020E40E0020DB
:100F800010B5374C3748A544436901696A4604F0F7
:100F900007FEE022344C92006946200008F0AEF8CB
:100FA0006A4623683148009363680193A3680293FB
:100FB000E3680393237C1382637C5382A37C938234
:100FC000E37CD382237D1383E38A5383238B938330
:100FD00000231A00C15A6A440233D183642BF8D12A
:100FE0008222002322486A44C15AD1520233A02BE4
:100FF000FAD19122002352001E486A44C15AD152AC
:101000000233A02BFAD1E122002352001A486A448D
:10101000C15AD1520233A02BFAD10023174A1848E3
:101020006A44C15AD1520233A02BFAD10023154A87
:1010300015486A44C15AD1520233522BFAD10023C7
:101040001248D5AAC15AD15202332A2BFAD1C02153
:101050006846FF31FFF7F0F9E0239B009D4410BD87
:1010600080FCFFFFC80E0020E40E0020FE0E0020D2
:10107000DE0F00207E1000201E1100206202000002
:10108000BE11002002030000620F0020B40F0020F8
:10109000074B70B504001A003234057801305D83C7
:1010A0000233A042F9D1D182FFF7DAFE70BDC0460B
:1010B000E40E0020064B01001A0010B532315C8BA3
:1010C0000233047001308842F9D1D08A10BDC04685
:1010D000E40E0020F0B595B007AF3800FFF7EAFF47
:1010E00000243A4D0590280004F008FB0221280056
:1010F00003F0D5FC280036492C6104F037FF0C239F
:10110000059A03265343334A403B1BB21380A34244
:1011100033DA314B1C80059BA34212DD2E4E3B5D22
:101120000022B15E0222029200220192013200925C
:1011300028000F3203F02AFC338801340C3333804B
:10114000E9E7280004F03AFC15B0F0BD1F4804F0B0
:1011500035FC0A2006F0C6FF0A2006F0C3FF0A206D
:1011600006F0C0FF0A2006F0BDFF0A2006F0BAFF15
:10117000013403E0013E002EE6D000240321154B8C
:1011800000229A5ED3170B409B189B100133A34299
:10119000F0DB042300255B4263430F4A1380059B69
:1011A000AB42D3DD0C4F07AB0022B95E0222EB5CF1
:1011B0000292002201920132009204480F3203F0A1
:1011C000E5FB3B8801350C333B80E8E79C040020BD
:1011D00076A60000B6120020A80E002010B5044923
:1011E000044804F0DFFEFA20800006F07BFF10BD0B
:1011F0007AA60000601F0020F7B505000C200E0045
:101200000192082707F0DCF80024280007F042F9D3
:10121000013F041924B2002FF7D10723E01718402B
:1012200004192248E4104443E0170005000D00199A
:10123000FA2400136043962107F0C6FC64251C4B7A
:10124000C4186C431B4B9C4215DB1B4B9C4228DC97
:1012500020001A4907F0B8FC194B05B29C420CDC7F
:101260000123019A092013703370FFF7F3FBFFF796
:1012700099F82800FEBD3D00F2E7124B9C4210DCBD
:10128000019B19241F7001233370FFF76BF80B20AB
:10129000FFF7E0FB0A20013C06F024FF002CF9D107
:1012A000E7E70023019A33701370E2E7B80B000000
:1012B0001CF3FFFF13FDFFFFE5270100EE02000016
:1012C00093110000DF2E000030B5002185B04648A4
:1012D000002404F0F7F9E022444B45499C70920049
:1012E000444804F0E7FB6421434B14229C70434BB9
:1012F00096209C70424B8000D980FA215A80F632A9
:101300001C809A803F4B89001C8059809A80D8802D
:101310003D4B3E481C805880C82080009A80D88071
:101320003B4B0B2059803B491C809980C8214900C8
:10133000D980394B39499A80423ADA80C8221C80D8
:101340005980374B12015A800222FF321C809A804A
:101350009622344D1201DA802880012107F0F8F935
:101360000023E85E210007F023FA2F4D2200280019
:10137000302102F081FC00233222022100920193ED
:1013800028000294313A02F047FD284B9C70284B0C
:101390009C70284B9C70284B9C70284B9C70284B51
:1013A0009C70284B9C70284B9C70284B9C70284B41
:1013B0009C70284B9C70284B9C70284B9C70284B31
:1013C0009C70284B9C70284B9C70284B9C70284B21
:1013D0009C70284B9C70284B9C70284B9C70284B11
:1013E0009C7005B030BDC0469C0400205C130020FA
:1013F00000AB0000C80E0020F21200206A0E002090
:101400006E0E0020BA120020D412002088130000B3
:10141000AC130020010A0000081300206C07000034
:10142000661200204C0400204C010020EE12002027
:10143000901300206413002088130020A4130020C0
:101440007C13002074130020681300207813002000
:101450006C1300208C1300208413002080130020C4
:1014600060130020A81300205413002058130020FC
:101470009C1300209813002094130020A013002038
:101480007013002073B51B4C06000421200003F0EC
:1014900006FB194B002163611E230A002000019105
:1014A0000093223302F0EEFD0A21300007F08CFB9E
:1014B0000A2501B26D424D430F23AD19632E00DDA5
:1014C0000E4B23610A22200004F0C7FD0123019383
:1014D0000233200000931922262102F0D3FD2C2391
:1014E00029000A222361200004F0B7FD200004F047
:1014F00065FA73BD9C04002001000100FCFF0000A0
:10150000F0B5334C060085B0200004F0F7F86425F0
:10151000642E02DCF543ED1735400321200003F073
:10152000BEFA2C4B002163611C230A0000932000AB
:101530000191243302F0A6FD092E3EDC264B290042
:1015400023610A22200004F088FD002601272023C1
:101550000822200001930092322132001F4B039693
:10156000029703F091F820230822200001930092B3
:101570003A2132001A4B0396029703F085F81223A2
:1015800000930C3B1A0020003621019702F07AFDEF
:101590000A20372168434942019607F015FB0623CC
:1015A000123000B21A0036210090200002F06AFDCD
:1015B000200004F003FA05B0F0BD132E01DC094B46
:1015C000BDE7632E01DC084BB9E78023DB02B6E7F9
:1015D0009C040020010001001F0004000000002006
:1015E00020000020120004000D000400F7B5041EC6
:1015F0001A4E03DB0F2812DC002811D100230193BF
:101600002033300000931E220421203302F03AFDE3
:10161000300004F0D3F9300004F0D0F9F7BD0F2406
:10162000002501270723ADB2A900013500931E2232
:10163000300009B20197053B2DB202F023FDAC4208
:10164000F0DA00230134A4000193123300931E2228
:10165000300021B22E3302F015FDDCE79C0400209F
:1016600010B5094C0022A35E834200DA20800023DB
:10167000E05EA621533007F0A7FA00B2FFF7B6FFED
:101680000023238010BDC046640E002013B507233D
:10169000011E0A4C0CD001220021019200931D3240
:1016A000053B200002F0EEFC200004F087F913BD9A
:1016B00000931E2202230190F3E7C0469C04002001
:1016C000F0B500250224012689B0FEF791FDCC4F2C
:1016D000380004F013F80221380003F0E0F9C94B98
:1016E0003D617B612A001B2329003800029401958B
:1016F000009603F04BF941232A001C213800029484
:101700000195009603F042F91A232A00342138008B
:1017100002940195009603F039F9380004F04EF96F
:101720001022B94B1D80B94B1A80B64B0793B84BAA
:101730001B78002B00D006E2B64D2B880B2B2DD149
:101740000020FEF7B7FEFA2128804900B24802F0D7
:10175000CFF80028F0D0B14BB14D0021595EAB4B12
:1017600000229A5E2B78002B0FD0002301260193D4
:10177000009616333800029403F008F92B785E4087
:101780002E70380004F01AF9D6E701202870009076
:1017900002943800019303F0F9F8F2E7092B01D025
:1017A000042B32D19F4AA04E12883378013A00218F
:1017B000934201D00133D9B2317000250E232A00A3
:1017C0000093102116333800019502F05BFC33784A
:1017D000964AD35C112B12D1102395493B613800F6
:1017E00004F0C4FB934B1B78002B35D1380004F078
:1017F000E5F80020FEF75EFE864B188097E7FA2B8F
:1018000013D110238C493B61E9E70A2B01D0052B4A
:1018100015D1854E3278531EDBB2002A03D1814B9D
:101820001B88013BDBB23370C7E701221C21009209
:1018300038002A000294019503F0A8F8D2E7062B9D
:1018400001D0012BCED1784B784A1B78D25CFA2A92
:1018500045D1784BF93A1A7000260125380003F07B
:101860004DFF592332003100380002940196009553
:1018700003F08CF84E233200342138000294019694
:10188000009503F083F8059606956A4E3378002B91
:10189000ACD00020FEF70EFE5E4B80B21880092807
:1018A00002D0042800D081E00025069B10222900E8
:1018B0003800009302942B00019503F067F8069B13
:1018C000102200933421182338000294019503F06C
:1018D0005DF801230593380004F070F8D5E7574B05
:1018E0001B88112A3BD1002B11D00021544AD21859
:1018F000013A1170013B1A1C9BB20F2B00D90F2229
:101900004E4B91B21A804F480A2204F0AAFB1022D3
:1019100000254023290000923800019502F0B2FB17
:10192000464B394A198804291DD81580364E0023A4
:10193000F15E424B1B88AB4233DD344A404B002002
:10194000125E0020EB5C01900130009002943800A0
:1019500003F01CF8338801350C333380E6E738494F
:10196000CA540133C7E70C235B424B433433138023
:10197000254E0023F15E314B1B88AB4211DD234A1B
:101980002F4B0020125E0020EB5C01900130009094
:101990000294380002F0FAFF338801350C333380AB
:1019A000E6E7194B1A881D4B1A801BE70A2801D05D
:1019B000052816D10025069B102229003800009327
:1019C00002941823019502F0E1FF069B1022009378
:1019D00034212B0038000294019502F0D7FF022336
:1019E00078E7062802D0012800D074E7059B022B77
:1019F0002AD1074B069A1A70002333706BE7C04652
:101A00009C04002001000100A80E0020AC0E002064
:101A1000AE0E0020880E00206A0E0020AA0E0020C4
:101A20005F010020580100208C0E002020010020C2
:101A30008DA60000660E002091A60000B4120020C2
:101A400080120020601F0020059B0025012B78D10B
:101A50003800357003F052FE2100380003F01FF803
:101A6000079B3D617B61059B2A002900380000939C
:101A700002941B23019502F089FF059B2A001C217B
:101A80003800009302944123019502F07FFF059BEB
:101A90002A0034213800009302941A23019502F0A1
:101AA00075FF380003F08AFF102140230A000091DF
:101AB0003800019502F0E6FA744B754A198804293A
:101AC00019D81580724E0023F15E704B1B88AB4213
:101AD0002FDD704A704B0020125E0020EB5C0190FD
:101AE000069802940090380002F050FF33880135C8
:101AF0000C333380E6E70C235B424B4334331380D3
:101B0000634E0023F15E614B1B88AB4211DD614ADD
:101B1000614B0020125E0020EB5C0190069802945D
:101B20000090380002F032FF338801350C333380E7
:101B3000E6E7574B1A88594B1A800022584B1A7007
:101B4000C9E60595C7E60024380003F0D7FD5549DE
:101B500038003C6104F00AFA4C4B53481A880C23B5
:101B600053439BB21900403909B20180A1422CDADB
:101B70000226474B1C80454B1B88A34214DD444D75
:101B8000444A454B0021525E0020295E0020E35C60
:101B90000190013000900296380002F0F7FE2B8889
:101BA00001340C332B80E6E7380003F007FF374B96
:101BB00039481988FFF76CFAC8240A20013C06F05E
:101BC00091FA002CF9D109B0F0BD140032498818FF
:101BD0000138013C02D306784671F9E75700C8196D
:101BE00049000D0005240026391A013C06714E55A6
:101BF0000138002CF8D125490A320A802A4A3833A4
:101C00001380033400250321274B00229A5ED3174B
:101C10000B409B189B100133AB4233DB042300269F
:101C20005B426B431A4A1380184B1B88B34215DD85
:101C3000174F184A184B0021525E0020395E0220CF
:101C4000F35C02900020019001300090174802F0F0
:101C50009DFE3B8801360C333B80E5E7134803F0DB
:101C6000ADFE0A2006F03EFA0A2006F03BFA0A20F2
:101C700006F038FA0A2006F035FA0A2006F032FAA1
:101C80000135C0E7013C002CBCD190E7B412002024
:101C9000A80E0020AC0E002080120020AA0E00200A
:101CA0008C0E002076A60000B61200209C040020B6
:101CB000F0B5B54D87B02B88A12B1DD1B34C2000BA
:101CC00003F01CFD0121200002F0E9FEB04BB149F8
:101CD0002361200004F04AF90123002201931F33FD
:101CE000110020000093203302F000FA200003F0DE
:101CF00065FE0720FEF7AEFE032006F085FD0028F6
:101D000003D10A2006F0EEF9F6E7042006F07CFD88
:101D10000028F6D032260A20013E06F0E3F9002E14
:101D2000F9D19D4C01202670FEF7C4FB01362378C3
:101D30000493002B15D10A2006F0D4F90498FEF77D
:101D4000B9FB964B188083B21A00093A012AEED9E2
:101D5000043B012BEBD9062801D00128E7D12670DE
:101D6000E5E72B88A12B5CD10025884C02262000BA
:101D700003F0C4FC0221200002F091FE88492000FB
:101D8000256104F0F3F81E2320002361854904F047
:101D9000EDF8854B1F780296AF4244D101231D0018
:101DA000009310223B0008212000019702F0EEFD75
:101DB0002B00029601970095173310222C2120004A
:101DC00002F0E4FD0120FEF775FB01270A2006F072
:101DD00089F90020FEF76EFB744B80B26B4E1880C1
:101DE000092801D004282DD1002502231022082122
:101DF0003000029301952B00009702F0C7FD0223EB
:101E0000102202932A21163330000195009702F028
:101E1000BDFD654B1D70049D5C4803F0CFFD002D9A
:101E2000D4D107B0F0BD01231F0000931022173357
:101E300008212000019502F0A9FD2B0002960195D2
:101E40000097BAE70A2801D0052817D100250223F8
:101E5000102208213000029301951633009702F0FA
:101E600095FD0223102202932A212B0030000195B8
:101E7000009702F08BFD4C4B1F70CCE7062802D078
:101E8000049D0128C8D10025200003F037FC39004B
:101E9000200002F004FE46492000256104F066F8A7
:101EA000102310220093290030332000019702F004
:101EB0001DF9102305936421280006F085FE059A7C
:101EC00003B20021300000920197102202F0DAF8EC
:101ED0000A2006F007F90A2006F004F9300003F0A2
:101EE0006DFDCA2340355B019D42E4D132250A20B5
:101EF000013D06F0F7F8002DF9D12B4E2D4B32782D
:101F00001A75FEF7ADFF33782000224E002B1DD04E
:101F100003F0F4FB0221200002F0C1FD3100256135
:101F2000200004F023F880235B031D492361200077
:101F300004F01CF8200003F041FDC8350A20013DE3
:101F400006F0D0F8002DF9D1002565E703F0D6FBA7
:101F50000221200002F0A3FD31002561200004F0E1
:101F600005F880235B030F492361200003F0FEFF87
:101F7000200003F023FDC8250A20013D06F0B2F839
:101F8000002DF9D1E0E7C0464A0100209C04002062
:101F900011000C0095A60000C40E00203C0100209A
:101FA0009BA600009EA60000B2120020880E002012
:101FB000A2A60000E40E0020E121F0B5BC4D87B0E0
:101FC0002800090205F0B2FCBA49280003F0E0FF3E
:101FD000B94801F001FDB94801F066FCB84C0200B7
:101FE0002080B849280003F0DDFF2388B64CDA07CB
:101FF00000D405E12800B54903F0CAFF102323806F
:102000000221072006F0A4FB0221032006F0A0FB1A
:102010000221042006F09CFB01210D2006F098FB14
:102020000121080006F094FB01210D2006F0C0FB01
:102030000121080006F0BCFB20880300113B012BA6
:1020400000D83CE3152800D1ABE2A14B1120198840
:10205000FEF7BEFBFEF7CCF80120FEF733FD0028AB
:1020600002D101229B4B1A709B4B1B7C002B00D191
:1020700005E10122994B9A481A7003F03FFBFA21BF
:102080009848890001F026FC944B1C78002C00D164
:10209000E6E00F20FEF738F80A23934C0F21604347
:1020A0000013584306F090FD904B18801220FEF765
:1020B0002BF8D0232721584306F086FD44438C4B50
:1020C0002413002187481C8001F012FC002848D00E
:1020D000884B894F1C683868210006F0EBFC874E5E
:1020E00021003860306806F0E5FC002300227C4CBB
:1020F000306001932033110020000093123301F06F
:10210000C1FF0121200002F0CAFC002320003A6830
:102110007B49236103F046FF80235B0332687949E2
:102120002361200003F03EFF774A3B6877499B1804
:1021300032222261642B00D97549200003F032FF5E
:10214000C821744A336889009B18734A22618B4204
:1021500000D97EE06D49200003F024FF200003F049
:102160002DFC64216D4801F0C3FB002817D0624AA2
:102170005E4B11681B880D205B1813605F4A5C4B37
:1021800011681B885B18012113605A4A13680133D8
:102190001360634B1A785140197006F009FB322125
:1021A000604801F0A5FB002807D001215E4B0B2001
:1021B0001A785140197006F0FBFAFA215B48490081
:1021C00001F096FB002810D0434B0A222800198802
:1021D00003F047FF564C57482278002A3BD0002294
:1021E0003C21FDF7A7FF00232370072006F00CFB1E
:1021F000002800D048E7384B1874384B187043E774
:102200009A0705D528004C4903F0C2FE1123F6E6D3
:102210005A0705D52800494903F0BAFE1223EEE615
:10222000DA0605D52800464903F0B2FE1423E6E697
:102230009A0605D52800434903F0AAFE1523DEE6D9
:102240005B0600D4DCE628003F4903F0A1FE16231C
:10225000D5E62F497FE77821FDF76CFF0123C3E71F
:1022600021000B2006F0A4FA01210D2006F0A0FAAF
:10227000220032212F48FDF75DFFFEF7F1FD13200C
:10228000324A3349FEF7B8FF0024324F388020002D
:10229000FFF736F92100642006F096FC00250600C1
:1022A000AE4259D0012005F01DFF0135F8E7C046C8
:1022B000601F0020ACA60000C8130020C713002038
:1022C000F8120020B5A60000F6120020BBA6000000
:1022D00040000020B60E0020E40E00204A1300202B
:1022E0009C040020A0130020B80B0000FA1200206C
:1022F00000130020A40E00204C13002050130020D7
:1023000013A7000018A700004AFCFFFF1DA700004C
:1023100020A7000050E2FFFF320010009C130020B5
:102320004B13002098130020491300209413002021
:10233000481300204C040020D0A60000DCA60000BA
:10234000E8A60000F7A6000006A70000B70E0020D0
:10235000BE0E00208A0E00203B880134A34296DA8C
:1023600064240A20013C05F0BDFE002CF9D1FDF7E4
:10237000CDFFD94EF37C002B00D0BBE0FDF7C6FFAC
:102380000320FEF767FBF289D44B1A80002A00D1A4
:10239000BAE0327DD24BD3491A700023D24A13805F
:1023A000D24A1380D24AD488201C8C4201D9D14809
:1023B00000881080D04A1380D04BD888021C8842F5
:1023C00001D9CC4A1288CE49CE481A8001F082FA4F
:1023D000CD4B1B78002B00D1EFE0032006F014FA60
:1023E000002800D094E0043006F00EFA041E00D05D
:1023F0008EE0C64D2F78002F00D1B0E0C44F0125EC
:10240000380003F07BF93800012102F048FB380066
:10241000C0493C6103F0AAFD102238000A2740237E
:1024200021000195009201F061FE059564212000D4
:1024300006F0CAFB059AB64D0192102203B20021A4
:102440000092280001F01EFE380005F04BFE380017
:1024500005F048FE380005F045FE380005F042FE64
:10246000380005F03FFE280003F0A8FACA234034E4
:102470005B019C42DAD1C8240A20013C05F032FEFF
:10248000002CF9D1FDF742FFC8340A20013C05F0C9
:1024900029FE002CF9D1280003F030F90121280091
:1024A00002F0FDFA9C4B9D492B61280003F05EFD74
:1024B000012301931F3322002100280000932033C1
:1024C00001F014FE280003F079FA0720FEF7C2FAA3
:1024D0009134FF340A20013C05F004FE002CF9D1B0
:1024E000FFF7EEF80123F3743375FDF70FFF864B0A
:1024F0001C703EE0FEF7EEFDC8240A20013C05F00A
:10250000F1FD002CF9D139E73222F2811A8040E73F
:1025100000217C4801F0ECF9041E3BD1804B0022E5
:102520009B5E012B25D10221774A10707D4A1180D4
:102530007D4A10707D4A10707D4A13807D4A10706C
:102540007D4A10707D4A13707D4A1370FDF766FE58
:10255000FA217C48890001F0BDF97B4BC8E77B4C30
:102560000023E15E01290AD179497A4801F0B2F9E4
:1025700027800020FDF79EFF694B188028E700297F
:10258000F7D1744801F0B4F90028F2D001232B7080
:102590002380EEE700235C4A13700122614B1A800E
:1025A000E7E7FEF731FC0120FEF78CFA002802D1A4
:1025B0000122694B1A70FEF753FC05F063FD674B6F
:1025C0004B4F1860454B0F201A8864235343644ACD
:1025D0000A249B187B80FDF797FD5D4D0F21684312
:1025E0000013604306F0F0FA5E4B18800F2005F0F0
:1025F00051FF6843000B0F21604306F05BFA5A4B12
:1026000018601220FDF780FDD0232721584306F0E3
:10261000DBFA0300FA216B43544A1B131380514A1F
:1026200098B212888900504306F0CEFA504B1880B9
:102630001320FDF769FDFA236843001396215843E0
:1026400006F0C2FA4B4C474B4B4E208019883000A5
:10265000FDF7A4FD0595002838D00122474B1A70DC
:10266000304B00255D5F022D00D0E5E00127444D91
:10267000444E2978444C3770002906D1314801F086
:1026800037F9002800D189E02F702378002B00D083
:102690008BE03378002B00D1A0E001233B493C4A7A
:1026A00013202370FEF7A8FD3A4B80B21880FEF786
:1026B00027FFFA213848890001F00CF98EE0122832
:1026C00000D07AE71138FEF7FDF9FEE73388002BDA
:1026D000C6D12A4A1370C3E7E40E00205C01002033
:1026E000B2120020FEFF0000BA120020D412002017
:1026F000AC13002064A7000008130020661200201D
:1027000088130000A813002048010020C30E0020F9
:102710009C04002024A7000008000C002FA7000044
:102720003C0100205A0100203C130020BC0E002078
:1027300046010020C20E0020C60E0020B80E002068
:102740005E01002078130020420100204401002097
:10275000B80B000054130020B60E002040130020D8
:1027600030F8FFFFFA1200200413002000130020AD
:10277000FC120020FE1200206E0E0020B812002075
:10278000C10E0020C70E0020B50E0020BE0E002096
:10279000B70E00208A0E0020641300202A782378C8
:1027A000002A00D071E7002B18D0C64D0021280068
:1027B00001F09EF8002806D1C34B00229B5E012B3E
:1027C0000CD1C24B35E0C14C2378002B30D0FA211C
:1027D0002800890001F07EF800232370BC4DBA4E1A
:1027E0000022AB5EBB4C022B01D000F0B9FEBA4A0E
:1027F0001378002B01D100F005FF04232B80002368
:102800001370B64AB6491370B64A0B70B6491370C6
:10281000B64A0B70237001331370B54AB549B648F8
:10282000137001F057F8FA21B448890000F06CFFEA
:10283000A94B01221A70D1E7002D62D0042D00D0DF
:10284000B4E3AF4C217800291ED1AC4801F050F818
:10285000002819D00122A54B21001A701320A94A83
:10286000FEF7CAFCA84B80B218802378002B0BD04F
:10287000FEF746FE4B240A20013C05F033FC002CF9
:10288000F9D101229A4B1A708F4B9B4C00229B5E10
:102890000B2B00D042E20021200001F029F8002893
:1028A0000CD09A4A138801331BB213801E2B00D020
:1028B0002FE20121964B197000231380032005F0AD
:1028C000A3FF944D002815D1043005F09DFF00288A
:1028D00010D1914F9149380000F0FCFF032005F022
:1028E00093FF002800D121E20120FDF7E3FD002243
:1028F0008B4B1A8000238B4A2B7013608A4A1380FB
:102900003EE08A4B8A4E19883000FDF747FC0028CC
:1029100015D001221424874B03201A70864B1C808B
:10292000FEF772FA854B358000229A5E764B0021C5
:10293000595E834B0020185E2300FEF7F1FA814BAD
:102940001C78002C00D00DE17F4B804D1E78002EAE
:1029500038D131000D2005F02BFF32006421280012
:10296000FDF7E8FB2D2005F0BDFB01222800734B8D
:102970001988FDF7DFFB0123754A1370714A137044
:10298000514B5B4C00255D5F0B2D00D02BE20021ED
:10299000704800F0ADFF002800D14FE20123002273
:1029A00023705F4B1A80604B0020185E002801D016
:1029B000FEF750F8614B0020185EFEF763FD002320
:1029C00023703FE2220028003221FDF7B3FB2100F3
:1029D0000D2005F0EDFE322005F084FB32240A259F
:1029E000012221005948FDF7A5FB0F2005F052FDFB
:1029F000059B0F215843000B684306F05BF8564BCC
:102A000081B218605548FDF7C9FB142005F06AFB38
:102A100007340F20FDF778FB782CE1D10F2005F06B
:102A200039FD059B0F215843000B684306F042F81F
:102A30003E4B0A251880122005F02CFDD0232721BB
:102A4000584306F037F8FA21059B454A43431B0BD0
:102A50001380364A98B212888900504306F0B4F8C1
:102A6000374B188000B2FEF7FBFD344B0A211E885D
:102A7000A01B06F0A9F8010069438919334E012211
:102A80003000FDF757FB0F2005F004FD059B0F21DB
:102A900058430A23000B584306F00CF82E4B81B222
:102AA00018602E48FDF77AFB062005F01BFB0F206F
:102AB000FDF72AFB013DD8D2204B012230001988B6
:102AC00057E7C046641300203C010020B30E0020ED
:102AD0005A0100203C130020BB0E0020C70E00202E
:102AE000C6130020B50E0020C10E0020B90E002034
:102AF0005E01002030750000741300208813002050
:102B0000BE0E0020B70E00208A0E00208E0E002080
:102B1000C50E0020C00E002070130020EE02000041
:102B200064120020A00E00203A130020FA120020A8
:102B300008130020BA0E0020B00E00205C01002017
:102B4000FC120020670E0020B21200204C0400206E
:102B5000B81200208C130020041300206E0E0020F9
:102B600000130020FA21CF48890000F0C1FE0028A0
:102B700039D0CD4ACD491368013313600A68013258
:102B80000A60062B2FD1CA4B6421188805F092FFEA
:102B9000C84BC94C0021595E02B20023E05E0023FD
:102BA000FEF7BEF90023E05E0E21FEF7DDF8C34B11
:102BB000C34A1B88181C1BB2934200DD101CC14B7A
:102BC00002B29A4200DA181CBF4B00B2C01814219E
:102BD00005F0FAFFBD4A68304000835A0133835242
:102BE0000022B14B1A60B54BB94C19882000FDF793
:102BF000D5FA00281ED12388002B1BD1E288B549C5
:102C0000131C8A4201D9B44B1B882380B34BB44DAB
:102C10001C78002C72D09623A44C5B0022689A4248
:102C200008D3FDF79FFB0B20FDF714FF01232B704A
:102C300000232360AB4BAC4E19883000FDF7AEFA91
:102C40009D4C002814D001201025A84B1870A84BCB
:102C50001D80FEF7D9F800233380A64B00229A5E30
:102C6000944B0021595E0023E05E2B00FEF758F9DB
:102C7000A14D21882800FDF791FA002815D00122E6
:102C80009A4B92491A701123994A1380CA880132CB
:102C9000CA8000222A80974A0021525E854900207E
:102CA000095E0025605FFEF73BF9814B380019880B
:102CB000FDF774FA002800D062E63B88002B00D0B4
:102CC0005EE60122894B02301A70894B11321A805C
:102CD000FEF79AF8FA887F49131C8A4201D97E4B85
:102CE0001B883B80834B00229A5E724B0021595E09
:102CF0000023E05E1223FEF713F941E601261E7061
:102D0000FDF730FB0B20FDF7A5FE684B2E701C6015
:102D100090E72000794900F0DDFDCFE520007749FC
:102D200000F0D8FD0022764B1A80C7E5042005F09C
:102D30006BFD041E00D0D7E52B780593002B4CD1FA
:102D40003800704900F0D4FD002826D06E4E0320D4
:102D5000336801333360FDF77DFE33686B4C012B24
:102D600022D1200002F0CAFC082380262361022120
:102D7000200001F094FE76036549200003F0F6F888
:102D800002212000266101F08AFE624926612000AE
:102D900003F0ECF85D4802F011FE0122504B1A706E
:102DA0000B235D4A138099E5022B04D180235B033A
:102DB0005A492361EBE7032B04D180235B03584975
:102DC0002361E4E7042BE5D12000564903F0CEF857
:102DD00001232B70059B3360DCE7FEF769FF4A4B4C
:102DE0002C701C60D9E700274F4A1780012D00D0B6
:102DF000B2E0FA214D4E4E483388890001333380CA
:102E000000F068FD3388012B24D14A4A1278BA4277
:102E10001ED03E483C22022102F0E4FC254B1888DB
:102E2000FEF76EFB334B1A88131C782A00D97823DF
:102E30009AB2282A00D228232E4A13802378002B06
:102E400000D0B0E51C4B0020185EFEF709FCC5E47D
:102E50003280E7E79A1E022A77D82C4D280002F02C
:102E60004DFC102302212B61280001F018FE32498D
:102E7000280003F07BF880235B032B6102212800EC
:102E800001F00DFE3388032B58D0042B5BD0214971
:102E9000022B54D0280002F091FD0320FDF7DAFD4B
:102EA000C0E7C04680130020900E0020940E002042
:102EB000001300208A0E0020FC120020FE120020C9
:102EC00004100000E40C00001CF3FFFFE40E0020DF
:102ED00066120020FEFF000064A70000BF0E002065
:102EE0005E010020FA120020BA120020BA0E002063
:102EF000B00E00205C010020D412002030750000CC
:102F00008E0E0020EE020000A00E00209C04002087
:102F100038A70000E6A600003C0100203DA7000005
:102F200042A7000048A700003A13002064120020C6
:102F30008C130020B90E00209EA60000974928009F
:102F400003F014F8A6E79649F9E7052B00D069E7E6
:102F5000944B37801D7065E7934B1B88042D0AD175
:102F6000772B00D95EE70A338F490B800323138048
:102F7000023B237056E7092D04D1772B00D951E786
:102F80000133F1E7052D09D1282B00D84AE70A3B88
:102F900085490B8004231380033BEAE70A2D00D008
:102FA00040E7282B00D83DE7013BF1E7012D00D099
:102FB00000E27E4B7E4E1A78002A2BD0002235701C
:102FC0001A7001227B4B1A7033787B4E002B09D08C
:102FD0003388934206D196210023784889003380B4
:102FE00000F078FC3588002D27D1744F2900380077
:102FF00000F07EFC002801D1FFF7DEFB704C237847
:10300000002B16D096213800890000F063FC257053
:10301000FFF7E4FB3778002FD3D1FDF783F93900B0
:10302000684800F065FC0028CBD03570FDF76EF9DC
:10303000C7E702233380FFF7D1FB022D01D0FFF752
:10304000CDFB614F614D3B78002B53D02B78002B8B
:1030500001D000232B70FDF703FF002308262380F7
:10306000132005F017FA059B96215843FA23000B0D
:10307000584305F01FFD2388013EC01820803220F0
:1030800005F030F8002EEBD12388514ADB10238065
:10309000934207DD3100012005F08AFB01210B205E
:1030A00005F086FB4B4C03234B4A0721200002F01E
:1030B000D5FD200002F0A8FD072004F02BFF012120
:1030C000080005F075FB00210B2005F071FB642062
:1030D00005F008F8FDF78CF82B78002B01D1FFF7ED
:1030E0007DFB002301223B703C4B3D493D481A804B
:1030F000FFF7E2FA2B78002B01D1FFF76FFB0720D7
:1031000005F082FB002811D00021364800F0F0FBCA
:10311000002800D04AE1344B00229B5E012B01D0F5
:10312000FFF75CFB314A1370FFF758FB042005F0F2
:103130006BFB0028E8D12E4B1B78002B01D1FFF749
:103140004DFB2C4D01272A78002A00D0B1E0234CFA
:103150002388012B04D1284928482280FFF7ACFAA4
:10316000002B01D0FFF73AFB0021244800F0C0FB00
:10317000002801D1FFF732FB01232B702380FFF7DA
:103180002DFB0A2004F0AEFFDDE00A2802D005285E
:1031900000D007E10023237004E1C0463DA70000F2
:1031A00042A70000C50E00205C0100204201002063
:1031B000C20E0020C60E002046010020A4130020ED
:1031C000B30E00206C13002049010020BD0E00202A
:1031D000470D0000581C0020FD00000040010020A9
:1031E000E20400007C1300203C010020BC0E002003
:1031F000B80E0020B40E00208813000060130020D9
:10320000BD4B1B78002B54D00926BC4C64252000F4
:1032100002F074FA0221200001F041FCB84B0A22AE
:1032200031002361200002F018FF200002F0C6FBED
:103230000A20013D04F056FF002DF9D1013EE4D2F1
:10324000FDF79EFE200002F059FAAE4925612000EC
:1032500002F08CFE80235B03AB492361200002F067
:1032600085FE200002F0AAFB64350A20013D04F02F
:1032700039FF002DF9D1200002F040FAA3492000C7
:10328000256102F073FE80235B03A14923612000C6
:1032900002F06CFE200002F091FB974B08201D709D
:1032A000FDF7D8FB200002F029FA9A499A4800F06D
:1032B00011FB914B1B78002B01D1FFF78FFA8F4C3C
:1032C0006425200002F01AFA0221200001F0E7FB39
:1032D000924B0022236120231100200000930197CC
:1032E000DB1800F003FF8749200002F03FFE2000BA
:1032F00002F064FB0720FDF7ADFB0A20013D04F05E
:10330000F1FE002DF9D10226200002F0F7F920008D
:103310008349256102F02AFE20005923102229004A
:1033200002960195009701F031FB20004E231022F8
:10333000342102960195009701F028FB200002F04D
:103340003DFB784C2770072005F05EFA002800D17D
:1033500017E7042005F058FA002800D111E70320F0
:1033600005F052FA002800D10BE73800FDF7A2F86B
:103370002378002B00D143E70020FDF79BF86A4B30
:103380005E4D1880092802D0042800D0FDE60023F5
:10339000594A28002370137002F0B0F95D495E4865
:1033A00000F098FA280002F009FBE1E701233B70E6
:1033B000FFF714FA032D01D0FFF710FA5B4B1B78CF
:1033C000002B44D15A4B1888103804281FD805F018
:1033D00067FB5D037A1E5D000123484C0E221F210E
:1033E000200000930C3300F0CBFF00250C230622B5
:1033F00000931E21093B2000019500F043FE0323AA
:103400001422019500931E21200000F03BFEC821EC
:10341000484800F06DFA484B002803D00122197883
:103420004A401A701B78002B5BD0202300210093A8
:103430001E2232480191DB1800F024FE00213F4893
:1034400000F056FA394B00284FD001221A700023A1
:103450003B4A3C4913703C4A13803C4A1380F8882D
:10346000021C884201D93A4A12883A80394A1380AC
:10347000394BD888021C884201D9354A12881A80F3
:10348000FCF744FFFDF7ECFCFFF7A8F901232F221E
:103490001A4C039319331F212000029301920093C9
:1034A00000220B3B00F099FF00250C23072200931C
:1034B0001E21093B2000019500F0E4FD03231522A5
:1034C000019500939FE70123002102931D3301938F
:1034D000223300930A00214B0848039101F079F848
:1034E00095E70F20FEF782F8A8E71B78002B01D1A3
:1034F000FFF774F9ABE7C046B40E00209C0400202F
:103500001C000A004EA7000091A6000059A7000069
:103510005FA70000E20400007C1300200A000A00FC
:1035200053A70000B20E00203C0100203E01002005
:10353000B00E002058130020680E002068130020F1
:10354000BA0E0020FEFF0000BA120020D4120020A4
:1035500064A700000813002066120020B0A8000035
:10356000002B00D0A9E00022B35E062B01D0012B76
:103570001FD104239C4A0620138000239B4A2370FA
:1035800013709B4A13709B4A13609B4A13609B4ABB
:1035900013709B4A136001229A4B1A70FDF75AFA76
:1035A00099499A4800F096F9FA219948890000F063
:1035B00091F9984B1B78002B24D0002503238A4ACD
:1035C00001210D201380257005F0C2F801210D2086
:1035D00005F0EEF8864B90491D70864B8F481D60B4
:1035E000854B1D60854B1D70854B1D608C4B1D7080
:1035F00000F070F9FCF78AFE2800FDF7F7FF0C20B9
:10360000FDF728FA2278874B002A00D0BFE000247B
:1036100001210D201C7005F0CBF82000FEF736F8D4
:10362000814B82491C80824B1C80824BD888021CB3
:10363000884201D9804A12881A80804B1C80804BB6
:10364000D888021C884201D97B4A12881A80FA2144
:103650007C4B7D481A887D4B8900DA8100F048F95F
:10366000002816D0E1227A4C9200236801332360AF
:1036700093420ED1774D2B78002B00D1ADE0012085
:10368000FDF720FA0123002800D000232B7000232F
:1036900023600020FCF70EFF308004F0F3FC6E4C3A
:1036A0006E4B206022681B68D31A6D4A934201D981
:1036B000FEF783FF04F0E6FCF2E7042B32D1002290
:1036C000684B1A700022B35E062B0BD1664B1B7839
:1036D000002B1CD00920FDF7BDF9FCF763FE012289
:1036E000624B1A7062490B78002B8BD000230122A9
:1036F0000B70FA215F48237003705F482A800370C3
:103700005E4B5F481A70890000F0E4F87AE7012206
:10371000364922700A703B4A05202B801370FDF752
:1037200099F9DFE7012B19D156490A78002A00D10F
:1037300068E702222A8000220A70534922700B8017
:103740004C490A704C490A70504A1370474A13702A
:10375000FCF764FDFA214E488900D5E7032B00D021
:1037600050E72C4B1A78D3B2002A00D04AE7043233
:103770002A8001251D4A23701370224B22492348B9
:103780001D7000F0A7F8394B1D70FFF74CF8174A71
:103790001278002A00D13AE701221A70294B1A88C0
:1037A000131C782A14D97823264A99B213802D4BFA
:1037B0001B78002B08D0374B37481A78FCF7BAFC37
:1037C00000210D2004F0F4FF0120FDF75FFF3EE72C
:1037D00092B2282AE8D22823E6E70420FDF714FB5A
:1037E000FDF73EFB53E7C0465A010020C6130020F8
:1037F000BE0E0020900E0020940E0020BF0E002070
:10380000980E0020B90E00203075000074130020BF
:1038100088130020BA0E0020DC0500006813002089
:103820003E010020E00E0020BA120020FEFF000042
:10383000D4120020AC13002064A70000081300205D
:10384000661200205C01002090130020E40E00208E
:103850009C0E0020B60E00204413002040130020D0
:10386000A7610000670E0020B70E00205E01002057
:10387000C50E0020C20E0020C60E00204901002007
:103880006C130020BC0E002046010020B80E002062
:1038900078130020B81200204C0400200022014BB5
:1038A0001A707047C7130020014B1878C0B27047D8
:1038B000380400400221064B1A788A431A70DA79DC
:1038C000D209FCD1997901320A439A717047C046F6
:1038D000001000400B005A1E934170B505000C1EED
:1038E000837004D004F0C8FB013C24182C8070BD08
:1038F00070B5847805000E00002C0AD0048804F00E
:10390000BBFB074A231A9BB20024934205D95B42B2
:10391000DCB231002800FFF7DDFF200070BDC0469B
:1039200060EA000000207047F8B505000E0017009F
:103930000024BC4208D02B682800315D1B689847E2
:10394000002801D00134F4E72000F8BD70470300DF
:10395000FC33196ADA69914203D01B6AC018007EF1
:10396000704701204042FBE70300FC33D8691B6A23
:10397000C01A01D50130FF3070470000F7B5019340
:10398000FA238027002504009B008360114B7F00F1
:1039900008330E0045602900009203603A00183099
:1039A00005F0B5FB23002000FC332130DD613A0037
:1039B0001D622900FF3005F0AAFB87239B00E31856
:1039C0005D609D60009B20002375019B2661A575AD
:1039D0006375FEBD80AF000070B5040018260C4969
:1039E000006902F0DBFD206902F02AFC33000821A7
:1039F000207D084D4343EB18595604F01DFF082164
:103A0000607D4643AD19695604F016FF70BDC0468F
:103A1000A086010020BD000070B504000D00006903
:103A200002F023FC2900206902F0B8FD206902F0B1
:103A300007FC70BD8A2300229B00C1540C3BC318B5
:103A40005A609A600123837570470200FC32536804
:103A500010B501339468DBB29C4202D05468015522
:103A6000536010BD10B50300827D002082420ED04D
:103A7000872292009C186268A4680132D2B2A242E6
:103A800005D02133FF331800FFF7DFFF012010BD01
:103A90000300FC3399685A68914206D09A68805CAA
:103AA0009A680132D2B29A60704701204042FBE727
:103AB00000228A2370B59B00827505000E00C15C50
:103AC000006902F005FC002806D10321286902F0F4
:103AD000E9FB0224200070BD872328009B00EA1820
:103AE000536894682130FF301C1B01D50134FF342A
:103AF000002C0ED02C69FFF7CBFFC1B2200002F0E2
:103B000025FC0028E8D10321286902F0CBFB03241F
:103B1000E0E7002EDED00321286902F0C3FBD9E7DD
:103B200010B50121FFF7C4FF10BD10B51830FFF725
:103B3000AFFF10BD70B50400006902F029FC002839
:103B400014D0206902F032FC002810D0206902F065
:103B50009FFB0321206902F0A5FB8C239B00E55805
:103B6000002D39D10023FC34E361236270BD20694C
:103B700002F026FC002809D0206902F01CFC002875
:103B800004D0206902F021FC0028DFD0206902F077
:103B900017FC002826D1206902F003FC0028E5D09C
:103BA000206902F012FC002837D087239B00E2181E
:103BB000536892689B1A01D50133FF33FF21002B14
:103BC00005D020002130FF30FFF762FFC1B220692D
:103BD00002F0CFFBA075C9E7236820001B69984756
:103BE000A847BFE7206902F053FB2069032102F0D8
:103BF00059FB206902F0E9FB0028B7D08723002297
:103C00009B00E3185A609A600123A3758B239B00E5
:103C1000E3589342AAD09847A8E72200FC32D36920
:103C2000126A0133DBB22069934206D102F027FB0E
:103C30000321206902F036FB98E702F0CBFB01007C
:103C400020001830FFF701FF206902F021FBEFE7A9
:103C500010B50248FFF76EFF10BDC046C813002024
:103C600010B51523142202490248FFF787FE10BD44
:103C700068220020C813002030B5234B002A37D01B
:103C8000224A5A605A78D209FCD1214A9A605A785D
:103C9000D209FCD11F4A5A805A78D209FCD15F243C
:103CA0001D4A94641D4CD46402221D4C25782A437D
:103CB00022701C4A5A605A78D209FCD10132027132
:103CC000FF291CD9FF210422016009021143164A71
:103CD00011605A78D209FCD1144A154911805978DB
:103CE000C909FCD1134911805A78D209FCD130BDE1
:103CF000114A124C14605A78D209FCD1DFE700292E
:103D0000E1D10131DFE7C046000C004005070300A8
:103D100005300000014500000008004028100000A8
:103D20004408004004080300080C0040020C004056
:103D30001A4400001B440000040C00400407030068
:103D4000F8B50400182500200B0020492E0046433A
:103D50008E599E4204D001300E28F7D1002034E065
:103D60000020834231DB01266B43C9184B68184D94
:103D70008868DB015B191D1840352F7840083E43E9
:103D80001B182E70303318784D69CE682843C0B2A6
:103D9000187028237343A4680E4D20000F69EB1898
:103DA000944200D910009A69DB69002105F018F8E7
:103DB0002200002304F0F4FF28235E43AA59386050
:103DC00093685B021B0FFBD10120F8BDA4AF00007C
:103DD0000044004160010020002010B5022913D8E2
:103DE00028234B430B4CE318981CC2775B680220D6
:103DF000002A0AD01A6810431860282359436258D1
:103E000093689B07FCD4012010BD1A6882431A6096
:103E1000F3E7C04660010020F7B508AB30CB1E7851
:103E2000009401950023022958D81C00012A17D0BC
:103E3000022A13D0042A53D0082A54D0102A54D06E
:103E4000402A55D00133FF339A4253D08023E024D7
:103E5000DB009A424AD00024012201E08024640061
:103E600028254D43244B5D196F686A613A681443F5
:103E70006A1CD677AA683C6015680224002E00D11F
:103E80001E4C2C43146028224A439C58A2685206B8
:103E9000FCD4019A009F9446002A02D1022F00D23E
:103EA00002272822150000264D435D192D6966451D
:103EB00003D1BD4201D93D0066464A439A18956137
:103EC000D661D2681560A2685203FCD428224A4306
:103ED0009B180233DA7FFFF77FFF01231800FEBD36
:103EE0008024A400BCE7C024FBE78024E400B7E7FB
:103EF000A024FBE7C024F9E76001002005000F00C3
:103F00007047F0B515000C001E0089B00EAB002202
:103F10009B5E0FAA1288019005925A1BD117521866
:103F20004A400292321BD11752184A400392039919
:103F3000029A8A4205DD32001E00130022002C0086
:103F40001500B44205DD2A001D00130022003400D4
:103F50001600321B91B20691591BC817091841402F
:103F600012B20791D10F8A185210009201220492C6
:103F70009D4202DB01235B420493B44222DC019B9D
:103F8000039A1B689B691F00029B934216DD220067
:103F90002900059B0198B847009B079A9A1A11B20D
:103FA00093B20091120406D5049AAD18069A2DB268
:103FB000D3181BB20093013424B2DEE72A0021009B
:103FC000059BE7E709B0F0BD704710B504682469A8
:103FD000A04710BD37B506AC258804680095A46BD2
:103FE000A04737BD37B506AC258804680095E46B5B
:103FF000A04737BD73B506AC0025655F07AC2688C2
:10400000046801960095246CA04773BDF0B51600B6
:1040100004000D0085B003930AAB1F8803685B6939
:104020009847039B2268013B9B191BB200930197A1
:104030002B0029002000976A3200B847236820002F
:10404000DB6A984705B0F0BDF0B505001C000E0016
:10405000170085B00AAB1B88013C03930368A419C1
:104060005B69984703992A680191009731002800FD
:1040700023B2946A3A00A0472B682800DB6A98476D
:1040800005B0F0BDF0B50E0087B003930CAB029203
:1040900000229B5E040004930DAB1B883500059342
:1040A00003685B699847039A2368B21895420BDA54
:1040B000059A290000921B6A20001F00029A049BA7
:1040C0000135B8472DB2EEE72000DB6A984707B00C
:1040D000F0BD13B501910E24015F0C22835E0268CE
:1040E0000091146C00221100A04713BDF0B504002C
:1040F00015000E0087B004930CAB00229B5E059365
:104100000DAB1B88039303685B699847039A236888
:10411000009231002A0020005F6A049BB847059B8B
:1041200003995A1E236800915219310020005F6ADA
:1041300012B2049BB847039A2368009231002A0008
:1041400020001F6A059BB8470499039A2368013928
:10415000009289192A0020001F6A09B2059BB847FE
:1041600023682000DB6A984707B0F0BD7047F0B5C0
:1041700085B002930AAB0027DF5F0BAB1B881600EC
:104180000393029B04000D000268994210D1BE42C5
:1041900002DD33003E001F00039901370091BB1B75
:1041A000976B1BB2320029002000B84705B0F0BD64
:1041B000BE420CD1029B994201DD029D0291029BFD
:1041C000039901335B1B0091D76B1BB2EAE753697C
:1041D0009847039A23680192009720009F6A320053
:1041E000029B2900B84723682000DB6A9847DDE777
:1041F00003230B4010B583760822835E0A24025FF6
:10420000C90702D48381C28110BD8281C381FBE7CB
:104210004281C2810122002310B55242064C426104
:10422000064A083443600460018181810361826130
:104230000377036210BDC046F4B500000101000120
:10424000F0B51C008FB00692012214AB1B780591CB
:10425000079315AB0021595E16AB1B880500089328
:10426000A3B2D01A93405B421BB289180C938BB255
:1042700009930493002300B2029003930D92039BD1
:10428000A3427BDA029B2700002B09DB0C9B671EF5
:1042900002331AB20C92029A3FB29B181BB20293DD
:1042A0006B469B890A9301339AB21BB203930B921C
:1042B0005300029A01339B181BB20293039B9F4247
:1042C0002CDB079B0D9A134212D00999BAB2530006
:1042D000CB1806990B988A1A05992E6841180898E8
:1042E0001BB20090306A12B2060009B22800B04733
:1042F0000222079B134211D00999BAB25300CB187E
:1043000006990B988A1A0599089E091A286800963A
:10431000066A1BB2280012B209B2B047BC4227D0CD
:10432000079B0D9A13420FD06B460A9910229B5E91
:10433000069A089E521A0599286809190096066A75
:1043400012B2280009B2B0470222079B13420FD0D5
:104350006B460A9910229B5E069A2868521A0599A4
:1043600012B2091B089C09B20094066A2800B047E3
:10437000049B3C0002339BB2049380E70FB0F0BD76
:10438000F0B51E0004000F0087B00CAB1B88049230
:10439000059303685B69984704990598B2B2530086
:1043A0008A1A21680090096A01330D002000390043
:1043B0001BB212B2A847059B390002930023019358
:1043C00003332000049A00933300FFF739FF23687A
:1043D0002000DB6A984707B0F0BDF0B591B01D0032
:1043E00016AB029200229B5E0700039317AB0026D8
:1043F0009E5F18AB00229B5E039A049319AB1B8847
:104400000C000993029B934200DCD7E0049A93428C
:104410001DDD049B039A934212DA1300049A03925F
:10442000029A02932B003500260004921C000EE035
:10443000029B039A0393230002922C001D00E8E7DD
:10444000029B049A0493230034001E0002923B68EE
:1044500038005B699847039B049A93421DD1A5429B
:1044600002DD2B0025001C00B54205DC231CB442F4
:1044700000DA331C2E001CB209993A68013400910D
:10448000A31B556A31003800039A1BB2A8473B684A
:104490003800DB6A984711B0F0BDA3B2ADB2059306
:1044A0005B1B1BB26A460D936B4691891B89B6B2A2
:1044B0005A1A12B20E92721B12B208926A46128AED
:1044C000511A09B20B910599D21A761A31B212B269
:1044D0000C910F920499029A0A928A4202D0013BEF
:1044E0001BB20A930023039E079306930A9B9E42E6
:1044F0002ADC0E99069804F067FB28180B9904B281
:10450000079804F061FB0D9A069B9446089A634451
:1045100094460693079B2818634400B2079384428D
:1045200002DD23000400180009993A680091526ADC
:1045300001309446031B32002100380064461BB250
:104540000136A04736B2D1E7029BF21A0C9B5343C7
:104550000293039B089AF31A5A430392049B9E42C8
:1045600000DD94E70F99029804F02EFB059B0B9950
:10457000181804B2039804F027FB0C9A029B944687
:10458000089A634494460293039B2818634400B23C
:104590000393844202DD23000400180009993A685D
:1045A0000091526A01309446031B3200210038000A
:1045B00064461BB20136A04736B2CFE7039B049A8C
:1045C000934200DD34E7029A029303922B000D0020
:1045D0002CE7F0B58DB0079312AB069200229B5EDC
:1045E0000591019313AB00229B5E0400089314AB6A
:1045F0001B880026099315AB1B8835000A930368B6
:104600005B6998470722019B0B92D91DCB1713407A
:104610005B18DB10029333009AB20392069A99B2A8
:104620008A1812B20492089A934227DA0023019A58
:1046300093421DDA9AB200920B9A6D00EDB21342CA
:1046400003D1079ADB109219D55C2368059A9B6900
:104650001F00009B99186AB2099B09B2002A00DB6F
:104660000A9B2000049AB847009B01331BB2DEE787
:10467000039B029A01331BB2B618CDE723682000D2
:10468000DB6A98470DB0F0BDF0B585B00AAC0025E7
:10469000645F0BAD0026AD5F0DAF0CAE36883F8872
:1046A0000296039701950094FFF793FF05B0F0BDC4
:1046B000F0B595B01D001AAB1B88049205931BAB97
:1046C0001E881CAB1B78026A02931DAB1B7804008A
:1046D00008910393002A00D0C4E00C22835E8B4231
:1046E00000DC7DE00E22835E049A934278DD06238F
:1046F000029A53435B18002B72DD039B049ADB0084
:104700009B18002B6CDD037F002B03D1AF2D01D94B
:104710000135EDB2236820005B699847052200232C
:1047200055430793984B0B925B190F93079A0F9B76
:104730009B5C0A936B469B8B09936B461B89099A7A
:104740000E936B461F8C029B5343FB181BB20D93B9
:1047500008230C930023069301220A9B206813422E
:1047600052D06B461A8B198A029B012B3AD1039BBC
:10477000012B37D1099B52188569D919059B12B2B3
:1047800009B22000A847069B01335BB206930A9B3F
:104790005B080A930C9B013BDBB20C93002BDBD133
:1047A000079B01335BB207930B9B013BDBB20B937F
:1047B000002BBBD1059BB3420ED0029B2268012B7C
:1047C0003FD1039B012B3CD105370096156A200091
:1047D000049A39B20733A84723682000DB6A984758
:1047E00015B0F0BD6B4608255B5F039D6A438A18D0
:1047F000059912B2019169460C25495F0091C5697E
:104800000D992000A847BEE7059BB342BBD06B467D
:104810001A8B198A029B012B0AD1039B012B07D10A
:10482000099B5218D9198569330012B209B2A8E759
:104830006B4608255B5F039D01966A438A1812B296
:10484000D9E76B4608215B5E05210E98019641432E
:1048500003987918C0000090D5692000049A09B225
:10486000A847B9E7137A5168ED1A1268EDB2ED0066
:1048700013924A5B4B1909929A780D92DA78119249
:1048800005229A569B790E925BB20F93029B012BE5
:1048900002D8039B012B56D96B4638229B5E0B93A3
:1048A0006B463C229B5E0C930027236820005B69CB
:1048B000984707970697119B069A9A4200D38BE771
:1048C0006B461B8A00260A930C9B9B18039A534342
:1048D0000A9AD3181BB210933B000D9A96424BD202
:1048E0005A1CD2B212920722134207D1099B09998E
:1048F000139A0133525C9BB2079209936B461B7F5C
:104900005BB2002B17DA6B46198C029B2068012BD7
:104910001DD1039B012B1AD10A9B0F9A9A18069B53
:10492000D2180E9B12B2C918836989191D00200084
:10493000059B09B2A847079B01365B00DBB20793D2
:10494000F6B2129BC9E700230C930B93ACE76B46BE
:1049500008229B5E0B9A029D92196A438918059A58
:1049600009B201926A460C25525F0092C26920008A
:104970001500109AA847DEE7069D0D9B0135FF182C
:10498000EBB2FFB2069396E7F4B000007FB508AC37
:10499000258809AC26880AAC2478019600950394F2
:1049A0000294FFF785FE7FBDF0B5026A04000D009A
:1049B00085B0002A2CD10A2908D1437E0282DB006F
:1049C000628A9B186382012005B0F0BD0D29FAD0E0
:1049D0001223C25E1023C15E437E0393037E0293C3
:1049E000C38A0193838A00932B00FFF761FE227E26
:1049F000238A312D08D1042A02D113332382E2E71E
:104A0000032A01D10E33F9E706214A439B18F5E743
:104A10000A2905D100230382127B437E5343CFE74B
:104A20000D29D0D0137A9942CDD3917AA942CAD315
:104A3000EB1A5168DBB2DB00CE18B178002929D01F
:104A4000F378002B26D0E37E007E677E002B13D008
:104A50000523F3565B1843439C461023E15E8C44C8
:104A60000C23E15E8C4507DD1223E15E00232382E7
:104A7000137B7B435B1863821223E25E1023E15EAB
:104A8000E38A02900193A38A2000009303972B00EE
:104A9000FFF70EFE227E33795343228AB6E70B1CC2
:104AA000002900D1012303764376704710B500F04A
:104AB0002DFB0022024B8000C35849331A7010BDF1
:104AC00050160020F0B5040085B01E000AAB1B781C
:104AD000103001930BAB1B78170002930CAB1B78C3
:104AE0000D00039300F094F92000243000F090F9B9
:104AF000220000234832A363E363236463641370DA
:104B0000537063729D4205D12721084B084A09481A
:104B100004F084FA2000019B25606371029B2771D9
:104B2000E371039BA671237205B0F0BD4CB6000083
:104B30005DB60000B1B6000030B5040085B002AD2E
:104B400000680291039201F036FB6B79227AE179D9
:104B500020680093002301F0F7FC2979029A20686D
:104B600001F04EFB206801F01CFB05B030BD0000D9
:104B700007B5837A00910192002B07D09A070AD5D6
:104B8000EFF310835A425341C37272B60099019AEF
:104B9000FFF7D2FF07BDDB07F8D5C368014A9BB218
:104BA0009360F3E70018004010B5006801F00CFBBB
:104BB00010BD000010B5006801F01AFC03000020D1
:104BC000834203DB0C304343014A985810BDC04672
:104BD00018B7000010B5006801F00AFC002805DBDA
:104BE0000C2343430348C018406810BD01204042D5
:104BF000FBE7C04618B7000010B5006801F0F8FBED
:104C0000002805DB0C2343430348C018806810BD0F
:104C100001204042FBE7C04618B70000F0B506008F
:104C20001036050089B0300000F048F900286CD13A
:104C30002F002437380000F041F9041E62D128000B
:104C4000FFF7DAFFC1B2300000F018FA022130009D
:104C500000F038FA01222E49300000F00BFA300043
:104C600000F054FA2B4B8000C5502800FFF7B2FF2C
:104C7000C1B2380000F002FA0221380000F022FA36
:104C8000380000F043FA234B8000C5502800FFF79E
:104C900091FF0123010022000293300023000494BD
:104CA00003940194009400F033FAA8632800FFF7FE
:104CB00081FF0123020021000193380023000494A6
:104CC00003940294009400F023FAE863402004F077
:104CD00001FA2A0048322864079200280BD00123E9
:104CE000137068646B6C10221819E96B103404F0AF
:104CF00005FA402CF6D1079B1B78002B05D1380014
:104D000000F076F9300000F073F909B0F0BDC0464C
:104D1000AD4A00005016002070B5437A0400002B05
:104D200003D1012243814272C360230048331B78C0
:104D3000002B02D12000FFF771FF18263300082155
:104D400020790D4D4343EB18595603F075FD3300A0
:104D50000821A0794343EB18595603F06DFD082153
:104D600060794643AD19695603F066FD034B200098
:104D700006CBFFF7E1FE70BD20BD00004816002005
:104D80001FB5094A094B0A49136000239380029317
:104D90000133019316330093162201330548FFF7C0
:104DA00091FE05B000BDC0464816002000093D0038
:104DB0006C220020FC150020084B1968002909D13D
:104DC000EFF31080064A002803D172B6BFF35F8F5D
:104DD000013111701A6801321A60704708180020FA
:104DE00004180020084B1A68002A0CD01A68013AEF
:104DF0001A601B68002B06D1044B1B78002B02D0D5
:104E0000BFF35F8F62B670470818002004180020B7
:104E1000FF2310B50370C023002104009B004170E4
:104E2000418083800C22083004F071F9200010BD0D
:104E300001230A0010B51A40194208D00C4A137019
:104E4000033343708368002B00D0984710BD0223C2
:104E5000194204D006490B70C3684270F3E704237B
:104E60001942F3D0024A1370033343700369EAE72F
:104E70004E48004110B5FFF79FFF0C4B1B8C1B07E2
:104E80001B0F0B2B0FD80A4A9900885800280AD00C
:104E90000F2408490A78A24313430B70064B197874
:104EA000C9B2FFF7C5FFFFF79DFF10BD00480041E5
:104EB0000C1800203F4800414E480041F8B500233F
:104EC0000278050018000B2A77D93C4E2B702B78FE
:104ED0000B2B07D801229A403168114204D00133CC
:104EE0002B70F4E7012068E0FFF766FF3768344C69
:104EF000002F2BD12022334B334859690A435A6182
:104F00001022D9690A43DA610222238839009343C7
:104F100023802388013A134323802C4B6063BF32E4
:104F2000A36304F0F4F8C0223900284804F0EFF835
:104F30004022C120264B80002380264B26491A6040
:104F40001A581140C02212040A431A5001231A00B1
:104F5000297830688A40024332600F261F4A880051
:104F600085501F4831400278B2430A430270022044
:104F70001C4A1178814311701178194311702978F6
:104F800022698B409A43226160223F21636C9343E4
:104F900063642A79636C0A40134912020B400321AF
:104FA000134363646A79636C0A40104992050B40AD
:104FB00013436364FFF716FF0020F8BD00180020BC
:104FC00000480041000400404017002080160020E7
:104FD000020F000000E100E0FFFF00FF0C180020BE
:104FE0003F48004140480041FFC0FFFFFFFF3FFF37
:104FF00070B50500FFF7E0FE6B785CB2062B2BD096
:105000002B7802240B2B27D801229A40144B1968C5
:10501000114221D01968914319601B68002B14D1EB
:105020004022104BDA67BFF34F8FBFF36F8F210021
:105030000D4A0E311388A34313800C4BDA698A435F
:10504000DA615A6910318A435A6100242B78084A80
:105050009B009C50FF232B70FFF7C4FE200070BD07
:105060000018002004E100E0004800410004004076
:105070000C1800200232920011507047037870B56E
:1050800005000C0001710B2B14D8FFF795FE297851
:105090000F25094829400378084AAB430B430370A6
:1050A0003F23516C1C40064B240219400C435464AE
:1050B000FFF798FE70BDC0463F48004100480041E0
:1050C000FFC0FFFF037870B505000C0041710B2B8A
:1050D00014D8FFF771FE29780F2509482940037875
:1050E000084AAB430B4303700323516C1C40064B2F
:1050F000A40519400C435464FFF774FE70BDC0460C
:105100003F48004100480041FFFF3FFF00787047E3
:10511000F0B587B001930CAB1E780DAB1B78050082
:1051200002930EAB1B780078039310AB1F780491A9
:1051300005920B2802D9002007B0F0BD6B78062B32
:10514000F9D0AB78002B00D179E01021080003F0F2
:10515000B7FF0028EFD02B783B4A1B019B181A00A1
:10516000D168002904D0D1688B4201D0D268F7E71A
:10517000D06001220223AA70964203D0DB18022ECF
:1051800000D0130006240188114301800188A14347
:10519000018001881234A1430180153C018826401A
:1051A0002A4C360221400E430680029E0188284C7C
:1051B00016402140B6020E430680039E0188254C0E
:1051C00016402140F6020E4306800188224E3A40E6
:1051D000314012030A43072102800F9A11400288CE
:1051E0004903D204D20C0A4302806A469288428064
:1051F000049A4260029A002A08D0019A41685A43F0
:10520000002F01D00F9CA2408A184260059A82604C
:10521000039A002A09D0019A84685A431300002F88
:1052200001D10F9A9340E31883600023EA789A42F1
:1052300003D02B78044A1B019B18C3607CE7024B08
:105240000001C01895E7C04640170020FFFCFFFF93
:10525000FFFBFFFFFFF7FFFFFFEFFFFFF0B51500BC
:1052600005AA1488827E022A00D16BE0032A00D1AD
:105270009FE0012A00D06DE0EA430589AD182DB208
:10528000002D5EDB0826825FAA425ADD002902DA81
:105290005B1800211BB20A22825EC818904201DD11
:1052A000531A1BB2002B4CDDC8B2C2085E499201F2
:1052B0005219521807250100DBB2294028421CD0A0
:1052C00008205A4D401AC0B22D5C834200D3A3E09F
:1052D000FF26C71A3E413540012C00D16EE0022C5A
:1052E00000D16FE0002C2CD11678AE4316708342AB
:1052F00027D308395B18DBB24032072B14D9022CB4
:1053000063D11000190005780839ED43C9B2057062
:1053100040300729F7D819000839C9B2C908013146
:105320008901521807210B40002B0AD04049CB5C61
:10533000012C58D0022C5AD0002C02D1117899435C
:105340001170F0BDEA434589C918AD1802892DB224
:10535000511A09B2002DF4DB0A26825FAA42F0DD61
:10536000002902DA5B1800211BB20822825EC818ED
:10537000904201DD531A1BB2002BE2DDEA109201CC
:105380005118294A01208A1807210D40A840C0B2AF
:10539000012C2FD0022C36D0002CD2D1C043C0B269
:1053A000013B1BB2591CCCD0117801401170013265
:1053B000F6E74289C918511A09B261E716783543F0
:1053C000157094E716787540FAE7611E484241412E
:1053D000150018004942C9B20838C0B229704035DA
:1053E0000728F9D897E711780B431370A9E71178CC
:1053F0004B40FAE7013B1BB2591CA2D01178014384
:1054000011700132F6E7013B1BB2591C99D011789B
:10541000414011700132F6E7012CCFD0022CD1D0DF
:10542000002C00D065E75FE7E8010020E0010020E4
:10543000D8010020F0B50C0005A90D88817E022955
:105440003CD0032900D1A1E001293FD10189D21824
:105450008A1A12B2002C00DA97E00A26815FA14274
:1054600000DC92E0002A02DA9B1800221BB208211D
:10547000415ED018884201DD8B1A1BB2002B00DC84
:1054800083E0E11089018A185D4901205118072243
:105490001440A040C0B2012D00D17CE0022D00D10B
:1054A00082E0002D71D1C043C0B2013B1BB25A1C37
:1054B0006BD00A7802400A700131F6E7E1430489B3
:1054C000D2186418418924B28A1A12B2002C5CDB0B
:1054D0000826815FA14258DD002A02DA9B180022CB
:1054E0001BB20A21415ED018884201DD8B1A1BB223
:1054F000002B4ADDD2B2D1084148890109190918A7
:1055000014000720DBB2044002421AD001303D4AA9
:10551000001BC0B2125C834200D36AE0FF26C71AA8
:105520003E413240012D48D0022D4AD0002D2CD1D1
:105530000E7896430E70834227D3083C1B19DBB2CA
:105540004031072B14D9022D3ED108001A000478EF
:10555000083AE443D2B204704030072AF7D81A0060
:10556000083AD2B2D20801329201891807221340B8
:10557000002B0AD0244AD35C012D33D0022D35D024
:10558000002D02D10A789A430A70F0BDE1434489A4
:10559000641824B25EE7013B1BB25A1CF5D00A78AE
:1055A00002430A700131F6E7013B1BB25A1CECD0F2
:1055B0000A7842400A700131F6E70E7832430A70E9
:1055C000B9E70E787240FAE76A1E504242410C0079
:1055D00018005242D2B20838C0B2227040340728B4
:1055E000F9D8BCE70A7813430B70CEE70A7853402A
:1055F000FAE7012DE1D0022DE3D0002D9DD197E7F0
:10560000E8010020E0010020D801002030B5002989
:1056100047DB0C25445F8C4243DD002A41DB0E252D
:10562000445F94423DDD847E022C1ED0032C25D0A5
:10563000012C04D1D243008980180A0001B2012B49
:1056400022D0022B2ED0002B2BD10720D3170340C2
:105650009B18DB109B0159180123024093401A004C
:10566000174C635C934363541BE00489013C611A4B
:10567000D443428909B2121912B2E0E740890138D5
:10568000401A110002B2DAE70724D0172040801830
:1056900022409340C010800141180948425C1343E6
:1056A000435430BD0720D31703409B18DB109B01E8
:1056B0005918012302409340014C625C5340D2E7E9
:1056C000E801002070B504000D0020224021FEF703
:1056D0009FFD094BFF220833236023002A331A70F1
:1056E0002200012328325B42E38413702300293314
:1056F00020001D7070BDC04660B70000802210B54C
:1057000000210248520003F002FD10BDE801002014
:105710000300F7B52B331B7804000D00002B03D0DA
:105720001348FFF741FAF7BD0823802601270093AD
:1057300023001F20083301931856002103F038F886
:1057400031001F20E31D185629402E4200D0390099
:1057500003F02EF81F20019B3900185603F028F89B
:10576000009B7608013B0093002BE1D1DBE7C046AC
:10577000FC15002070B5C31DDB7F04005BB20D007B
:1057800001331AD0060000202A360121305603F0DA
:105790000FF828200021205603F00AF800200021ED
:1057A000305603F005F829002000FFF7B1FF002074
:1057B0000121305602F0FCFF70BD0534E17F084C3A
:1057C0002000FEF737F900212000FEF74BF92900F1
:1057D0002000FEF747F92000FEF7A2F9ECE7C046EB
:1057E000C8130020F0B585B00093831DD977431D01
:1057F000DA771F23C71DFB5604000D00013300D1CB
:10580000CAE003002020083301931856012102F05A
:105810009FFF26002A20012120562B3602F098FFF8
:105820003378002B00D1A7E0604E3000FFF774FA08
:10583000002302AA938030005D49039AFFF798F98C
:10584000009B002B1DD02600002029363056002852
:1058500017DB012102F07CFF00200121305602F00D
:10586000A7FF012002F03EFC00200021305602F08C
:105870009FFF0A2002F036FC00200121305602F082
:1058800097FFAE212000FFF775FFD5212000FFF71D
:1058900071FF80212000FFF76DFFA8212000FFF796
:1058A00069FF1F212000FFF765FFD3212000FFF7CC
:1058B00061FF00212000FFF75DFF40212000FFF77E
:1058C00059FF8D212000FFF755FF1021012D00D039
:1058D00014212000FFF74EFF20212000FFF74AFF90
:1058E00000212000FFF746FFA1212000FFF742FF23
:1058F000C8212000FFF73EFFDA212000FFF73AFF22
:1059000012212000FFF736FF81212000FFF732FF30
:10591000CF212000FFF72EFFD9212000FFF72AFF1B
:105920002221012D00D0F1212000FFF723FFD921F2
:105930002000FFF71FFF2221012D00D0F1212000C0
:10594000FFF718FF2000DB21FFF714FF20004021A4
:10595000FFF710FF2000A421FFF70CFF2000A62175
:10596000FFF708FF20002E21FFF704FFAF212000E2
:10597000FFF700FF05B0F0BD1F200121385602F0EF
:10598000E7FE1F20019B0121185602F0E1FE33784B
:10599000002B00D154E747E7064E3000FEF71CF815
:1059A00030000549FEF738F84AE7C046FC150020EC
:1059B00000127A00C8130020801A0600F8B504000F
:1059C0002121FFF7D7FE20212000FFF7D3FE5F2122
:1059D0002000FFF7CFFE22212000FFF7CBFE0021A1
:1059E0002000FFF7C7FE03212000FFF7C3FEE31DE1
:1059F000DB7F10265BB2013321D0260000202A363F
:105A00000121305602F0D4FE28200121205602F058
:105A1000CFFE002000218027305602F0C9FE00256D
:105A20007F00174B2000595D0135FFF771FEBD4225
:105A3000F7D100200121305602F0BAFEF8BD350042
:105A4000104F631D3800D97FFDF7F4FF103D402152
:105A50003800ADB2FEF706F8094B3800595D013544
:105A6000ADB2FDF7FFFFAE42F6D13800FEF758F8B1
:105A700088231036B6B25B009E42E0D1DEE7C04616
:105A8000E8010020C813002010B5054A0549064862
:105A900000F010F80022054B05491A705A5410BD49
:105AA0000104000000B80000401C00203C18002049
:105AB0000204000030B5094D094CAB685B035B0F75
:105AC0009B001C590460AB6801619BB24360634357
:105AD000A4008360C460426130BDC0460040004104
