:100000000080002089840000518400007384000077
:1000100000000000000000000000000000000000E0
:1000200000000000000000000000000073840000D9
:10003000000000000000000073840000DD84000068
:100040007384000073840000353D00006961000086
:100050001584000073840000F552000075840000D0
:1000600073840000F9620000738400007384000050
:10007000D140000073840000096300007384000015
:100080007384000073840000738400007384000094
:100090006D6C000073840000738400003561000003
:1000A0007384000073840000738400007384000074
:1000B0000000000010B5064C2378002B07D1054B3B
:1000C000002B02D0044800E000BF0123237010BDC4
:1000D000400400200000000000D50000044B10B5D3
:1000E000002B03D00349044800E000BF10BDC04608
:1000F000000000004404002000D500000122014B54
:100100001A707047DD0E002070B506000C2008F054
:1001100097FB08250024300008F0FCFB013D041982
:1001200024B2002DF7D10723E01718400019C010A2
:1001300080B270BD70B505000C00272917DD002ABC
:1001400000D00334782C00DD78242000FE245021D8
:100150002838FF344942604308F076FF8B239B0028
:10016000C11889B20E20698008F04CFC70BDEE21E8
:10017000FF3141800E2008F045FC283C054B64000F
:10018000E35E0A220D215A43AB80034804F018F8BD
:10019000ECE7C04636BA00005401002010B5438891
:1001A00004888B4215D20179104B5B1AA34200DD03
:1001B00023005B1803800188C2880023914205D385
:1001C0004379994200D31300038001230372007A1C
:1001D00010BD42791300A24206D80179034B5B1A85
:1001E000A34200DD23009BB29B1AE3E7FFFF000060
:1001F00010B5084C01233C220221200005F032FDFD
:10020000200005F0BBFC200005F018FE024B6361E6
:1002100010BDC046AC04002001000100F0B5324D15
:1002200085B02800002405F0A9FC2027082601231A
:10023000220021002800029303942C4B0197009682
:1002400004F062FC01232200310028000293039491
:10025000274B0197009604F057FC01232200280049
:1002600002931021234B03940197009604F04CFC59
:10027000012322002800029318211F4B03940197A9
:10028000009604F041FC012322003900280002936B
:1002900003941A4B0197009604F036FC01232200C8
:1002A000280002932821164B03940197009604F02E
:1002B0002BFC01232200280002933021114B0394D0
:1002C0000197009604F020FC012322003821280029
:1002D000029303940C4B0197009604F015FC280040
:1002E00005F0ACFD05B0F0BDAC04002062040020B8
:1002F00042000020660000208A000020AE0000209E
:10030000D2000020F60000208604002010B5044C26
:10031000200005F033FC200005F090FD10BDC04624
:10032000AC04002010B50C4C200005F027FC200088
:10033000022104F0F4FD002320002361074906F0A8
:1003400055F880235B0306492361200006F04EF830
:10035000200005F073FD10BDAC0400208CB7000038
:1003600091B7000010B50C4C200005F007FC2000F0
:10037000022104F0D4FD002320002361074906F088
:1003800035F880235B0306492361200006F02EF830
:10039000200005F053FD10BDAC04002095B700000F
:1003A00099B70000F0B58027032685B07F031E4C67
:1003B0004B25200005F0E2FB0221200004F0AFFDF8
:1003C00000231A492361200006F010F81849200084
:1003D000276106F00BF8200005F030FD0A20013DF2
:1003E00008F0C0F8002DF9D1200005F0C7FB01236B
:1003F00003931F330193203320002A002900009328
:1004000002950C4B04F025FB200005F017FD4B2452
:100410000A20013C08F0A6F8002CF9D1013EB6B242
:10042000002EC4D105B0F0BDAC0400209EB7000082
:1004300099B7000036B90000F0B50025092791B042
:1004400000900191019BAB422BDD174C200005F081
:1004500095FB2000022104F062FD144E2A003100B9
:10046000276103A80AF0F4FA200003A905F0BEFFF3
:100470000F4B009A23616B00D25A310003A80AF097
:10048000E7FA200003A905F0B1FF200005F0D6FC33
:1004900021240A20013C08F065F8002CF9D101352F
:1004A000D0E711B0F0BDC046AC040020A4B70000F6
:1004B00009001000AA4AF8B51168050001230800D8
:1004C0001840194202D1A74913608870A64A012337
:1004D000116808001840194202D1A44913608870BD
:1004E000A34A0123116808001840194202D1A1490A
:1004F00013608870A04A012311680800184019424F
:1005000002D19E49136088709D4A0123116808003A
:100510001840194202D19B49136088709A4A0123FE
:10052000116808001840194202D198491360887078
:10053000974F984E002D20D00123974A0B2413701B
:10054000964A1370964A1370964A1370964A13701F
:10055000964A13700023964A3B701370954A337085
:100560001370954A1370954A1370954A1370954A03
:100570001370954A13702000F8BD3B78002B21D0F2
:100580002900784803F0F4FB0B24002800D03D70CC
:100590003778002F5CD00021744803F0E9FB002875
:1005A00001D000233370884B1D78002D00D194E0DA
:1005B0000021704803F0DCFB0028DCD00023824AD5
:1005C0001370D8E7032008F05FFB03005A1E934125
:1005D000744A1370704B1B78002822D1674C002B93
:1005E0000BD032215F4803F0B5FB0123200077498F
:1005F0003B7003F0AFFB0B240EE02900200003F05A
:10060000B7FB0028F7D0FA210122694B20004900EE
:100610001A70042403F09EFB624B5F4A1B78137030
:10062000B6E7664C002B07D132214E4803F092FB0F
:1006300001233B702370DEE72378002BDBD05C4B7B
:1006400025701A780924002AE6D01D700234E3E7E9
:10065000042008F019FB03005A1E9341524A1370FC
:100660004E4B002821D11978464D00290ED0322159
:100670003E4803F06FFB012328005449337003F018
:1006800069FB494B454A1B7813708CE7280003F03F
:100690006FFB0028F5D0FA210122464B28004900C3
:1006A0001A70052403F056FBEBE71B78444D002B32
:1006B00007D132212D4803F04DFB012333702B70FD
:1006C000DFE72B78002BDCD03A4B2F701A78002A0A
:1006D00001D01F70D5E70A24D3E7072008F0D4FA29
:1006E00003005A1E9341314A2D4F137000281DD12B
:1006F0003978264D00290ED032211E4803F02AFBFE
:100700000123314A31491370280003F023FB274BA2
:100710001B783B702FE7280003F02AFB0028F6D057
:100720000124FA21244B49001C70EDE73B78254E4B
:10073000002B08D132210F4803F00CFB0123224A81
:1007400033701370E3E73378002BE0D01A4B357029
:100750001A78002A01D01D70D9E70624D7E7C046D1
:10076000400E00205E0E0020480E0020680E002083
:10077000500E0020720E0020440E0020620E002059
:100780004C0E00206E0E0020540E0020780E00202B
:100790005A0E00205C0E00201D0100201E010020CA
:1007A0001F0100201A0100201B0100201C01002055
:1007B000660E00206C0E0020760E0020580E0020E1
:1007C000590E00205B0E00205D0E00201A04000070
:1007D000F8B5242706260C2502242F4B0800198083
:1007E000012108F0F5F93A002C492D4809F03AFDAD
:1007F0002C4B3A002C492D481E8009F033FD2C4B20
:100800002A002C492C481E8009F02CFD2B4B2A0075
:100810002B492C481C8009F025FD2B4B2A002B4925
:100820002B481C8009F01EFD2A4B2A002A492B4820
:10083000AD191C8009F016FD294B2A0029492A48C8
:100840001C8009F00FFD294B2A0001342849294852
:100850001C8009F007FD284B2A00284928481C80E5
:1008600009F000FD274B3622274928481C8009F053
:10087000F9FC0922264B27491A8027483A0009F03B
:10088000F1FC264B1822264926481E8009F0EAFC76
:100890000422254B1A80F8BD40000020C4BB000094
:1008A000A80C00206213002070BB0000F807002095
:1008B0005613002074BA0000700D0020641300204D
:1008C000B8BB0000300700205413002068BA0000B5
:1008D000E00B002060130020ACBB0000180B0020D0
:1008E0005E130020E8BB0000D80400204E13002057
:1008F00000C00000A0050020501300206CC00000C4
:10090000680600205213002012C000008809002051
:100910005A13002048C00000500A00205C13002039
:1009200094BB0000C00800205813002010B5012916
:1009300007D1C8222F4909F095FC2F4B1B881800BE
:1009400010BD022905D1C8222C4909F08BFC2C4B83
:10095000F4E7032905D1C8222A4909F083FC2A4B70
:10096000ECE7042905D1C822284909F07BFC284B73
:10097000E4E7052905D1C822264909F073FC264B76
:10098000DCE7062905D1C822244909F06BFC244B79
:10099000D4E7072905D1C822224909F063FC224B7C
:1009A000CCE7082905D1C822204909F05BFC204B7F
:1009B000C4E7092905D1C8221E4909F053FC1E4B82
:1009C000BCE70A2905D1C8221C4909F04BFC1C4B85
:1009D000B4E70B2905D1C8221A4909F043FC1A4B88
:1009E000ACE700230C29AAD1C822184909F03AFC27
:1009F000174BA3E7A80C002062130020F807002083
:100A000056130020700D00206413002030070020D2
:100A100054130020E00B002060130020180B00206E
:100A20005E130020D80400204E130020A0050020F3
:100A3000501300206806002052130020880900206F
:100A40005A130020500A00205C130020C008002028
:100A500058130020F0B5B3B081B26846FFF766FFC7
:100A60000A210500154803F075F900240321200030
:100A700008F060FA80B2A8421ED2104E0021300069
:100A800003F076F90028F8D06B466946671C7F00B2
:100A9000DA5B6300C95A0A4B188806F011F86A46F7
:100AA000A31C5B00D15AD35B3000C91889B2033450
:100AB00003F050F9A4B2D9E733B0F0BD8813002099
:100AC00040000020F0B59C4C9C4DA5446B696A46E3
:100AD00029690600280005F0A3FAE022984C69462F
:100AE0002000920009F0BEFB607CA37C00285ED150
:100AF000002B58D1C8225200628002221900FF3216
:100B00006360A360E36022612675E38223838D4ADC
:100B1000D1520233642BFAD1002318008A4FD9191D
:100B200002330880522BFAD100239C468749624643
:100B30005818023302802A2BF9D12088DF23933002
:100B4000FF30861900209B00E6507E4A125A023080
:100B5000944666446428F8D1E6500023FA5A0233DA
:100B6000B618522BFAD1DF2300229B00E650885A98
:100B7000023236182A2AFAD1E02221009200684671
:100B8000E65009F06FFB28006A69296905F036FA1A
:100B90006A4628006B69296905F0E4F96C496D48DB
:100BA00005F036FC0120E1239B009D44F0BD0020B0
:100BB0008342F8D1674D6849280005F029FC674950
:100BC000280005F025FC0A222188280005F089FC70
:100BD0000A226188280005F084FC0A22A1882800E6
:100BE00005F07FFC0A22E188280005F07AFC0A2241
:100BF0002189280005F075FC0A226189280005F08A
:100C000070FC0A22A189280005F06BFC0A22E18908
:100C1000280005F066FC0A22217C280005F061FC12
:100C20000A22617C280005F05CFC0A22A17C2800D5
:100C300005F057FC0A22E17C280005F052FC0A224C
:100C4000217D280005F04DFC0A22E18A280005F0EC
:100C500048FC0A222800218B05F043FC2600718BFA
:100C60000A22280005F039FC3D4F2800390005F024
:100C7000BDFB3C4B02369E42F1D1280005F0C0FB83
:100C80000026314B0A22995B280005F026FC02362B
:100C90003900280005F0AAFB522EF2D1280005F0F9
:100CA000AFFB0026294B0A22995B280005F015FCB2
:100CB00002363900280005F099FB2A2EF2D12800CF
:100CC00005F09EFB002263882088C018A3881B18AB
:100CD000E088C01823891B186089C018A3891B18D5
:100CE000E089C018237C1B18607CC018A37C1B18EB
:100CF000E07CC018237D1B18E08AC018238B1B18CA
:100D00001048815A02325B18642AFAD100220E4937
:100D1000895A02325B18522AF9D100220B49895AAA
:100D200002325B182A2AF9D1DF229200A058C01A99
:100D300043425841C0B236E77CFCFFFFEC0E002076
:100D40000C0F0020260F00208A0F0020DC0F00204F
:100D5000A9B70000A01F0020B6B70000CBB7000065
:100D6000DCB70000700F00200839030010B5080040
:100D7000082908D808F0D4F8353A07070707081EED
:100D800005001D4AD38110BDFA22181CD2009342DF
:100D900000DD101C030400D50020322100B208F051
:100DA00053F900B2144B3C3040001818C38801338B
:100DB000C380E8E7114A181C934200DD101C104B59
:100DC00002B29A4200DA181C0E4B00B2C01814216D
:100DD00008F03AF9084A68304000835A01338352D8
:100DE000D1E719004A1E9141034AD174581E83412C
:100DF000014A1375C7E7C0460C0F0020041000001D
:100E0000E40C00001CF3FFFF00B5042809DC0028F7
:100E100009DB0138114B032806D808F081F8090DC9
:100E20001115152814D000BDDA880132DA80FAE7EE
:100E30001A8901321A81F6E75A8901325A81F2E79A
:100E40009A8901329A81EEE79A8801329A80EAE71C
:100E5000024A138B01331383E5E7C0460C0F0020D1
:100E600030B5294900204A880B88284C9B188A886D
:100E7000274D9B18CA88A5449B180A899B184A8944
:100E80009B188A899B18CA899B180A7C9B184A7CE4
:100E90009B188A7C9B18CA7C9B180A7D9B18CA8A5F
:100EA0009B180A8B9B18DF2292008B502C5A023021
:100EB0001B196428FAD18B500022164CA05A02321A
:100EC0001B18522AFAD1DF2200209200124D8B50BB
:100ED0002C5A02301B192A28FAD18B50E02268467E
:100EE000920009F0BFF90D4C20006269216905F0FC
:100EF00085F86A4620006369216905F033F8E1232B
:100F00009B009D4430BDC0460C0F00207CFCFFFFC1
:100F1000260F00208A0F0020DC0F0020EC0E00209E
:100F2000F7B5A025A126009200220193124B6D0077
:100F30007600A224A4465F889C4464461F801F005C
:100F40002488A0373C80F1249F5B64005F531F5BC3
:100F50000132023C1F5302334F2AEAD1074B4A3277
:100F6000FF329852A03299520099A03299520199B9
:100F7000A0329952F7BDC046061000200C0F002089
:100F800010B5374C3748A544436901696A4605F0F6
:100F900047F8E022344C92006946200009F062F9DB
:100FA0006A4623683148009363680193A3680293FB
:100FB000E3680393237C1382637C5382A37C938234
:100FC000E37CD382237D1383E38A5383238B938330
:100FD00000231A00C15A6A440233D183642BF8D12A
:100FE0008222002322486A44C15AD1520233A02BE4
:100FF000FAD19122002352001E486A44C15AD152AC
:101000000233A02BFAD1E122002352001A486A448D
:10101000C15AD1520233A02BFAD10023174A1848E3
:101020006A44C15AD1520233A02BFAD10023154A87
:1010300015486A44C15AD1520233522BFAD10023C7
:101040001248D5AAC15AD15202332A2BFAD1C02153
:101050006846FF31FFF7F0F9E0239B009D4410BD87
:1010600080FCFFFFEC0E00200C0F0020260F00205C
:1010700006100020A6100020461100206202000089
:10108000E6110020020300008A0F0020DC0F002080
:10109000074B70B504001A003234057801305D83C7
:1010A0000233A042F9D1D182FFF7DAFE70BDC0460B
:1010B0000C0F0020064B01001A0010B532315C8B7A
:1010C0000233047001308842F9D1D08A10BDC04685
:1010D0000C0F0020F0B595B007AF3800FFF7EAFF1E
:1010E00000243A4D0590280004F048FD0221280014
:1010F00003F015FF280036492C6105F077F90C2321
:10110000059A03265343334A403B1BB21380A34244
:1011100033DA314B1C80059BA34212DD2E4E3B5D22
:101120000022B15E0222029200220192013200925C
:1011300028000F3203F06AFE338801340C33338009
:10114000E9E7280004F07AFE15B0F0BD1F4804F06E
:1011500075FE0A2007F006FA0A2007F003FA0A20B3
:1011600007F000FA0A2007F0FDF90A2007F0FAF963
:10117000013403E0013E002EE6D000240321154B8C
:1011800000229A5ED3170B409B189B100133A34299
:10119000F0DB042300255B4263430F4A1380059B69
:1011A000AB42D3DD0C4F07AB0022B95E0222EB5CF1
:1011B0000292002201920132009204480F3203F0A1
:1011C00025FE3B8801350C333B80E8E7AC0400206A
:1011D000DEB70000DE120020C80E0020F0B585B09A
:1011E000002903D04D4B1A684D4B1A6008F0D6FE0B
:1011F000051C08F055FF4B4C02000B0020004A492B
:1012000005F010F9464E4949306808F0B9FA8321D3
:10121000071CC905281C08F0BFFB454908F0B0FAB7
:10122000011C381C08F0D2FC051C08F039FF020034
:101230000B0020003F4905F0F5F83F4F386808F0F3
:101240002FFF02000B0020003C4905F0EBF8386846
:10125000291C08F0BBFC051C08F022FF02000B0053
:101260002000374905F0DEF8FF21281C890508F029
:1012700093FB019008F014FF02000B00200031499D
:1012800005F0D0F8304F281C396808F0DDF82F49F8
:10129000386008F081FB029008F002FF02000B00AA
:1012A00020002B4905F0BEF82A4F386808F076FE7A
:1012B000011C281C08F08AFC274908F06DFB0390EC
:1012C00008F0EEFE02000B002000244905F0AAF809
:1012D0003068164908F054FA019908F0B5F80299F7
:1012E00008F0B2F8039908F0AFF8306008F0D8FEC3
:1012F00002000B0020001A4905F094F80B493068F1
:1013000008F04AFB041C3060281C08F027FE3860F7
:10131000201C08F023FE05B0F0BDC046380E0020AA
:10132000DC130020D4220020E2B70000000020419E
:1013300000007A44F2B700003C0E0020FDB7000028
:1013400009B8000018B80000080F00208FC2F53C53
:1013500023B80000181300200AD7A33C2EB80000C1
:1013600039B8000070B50E1C0A49041C08F008FAD0
:101370008321051CC905301C08F00EFB064908F046
:10138000FFF9011C281C08F021FC044B1860044BD9
:101390001C6070BD0000204100007A443C0E00201B
:1013A000380E002010B50449044805F03BF8FA2037
:1013B000800007F0D7F810BD43B80000A01F002040
:1013C000F7B505000C200E000192082707F038FA47
:1013D0000024280007F09EFA013F041924B2002FD0
:1013E000F7D10723E017184004192248E4104443BA
:1013F000E0170005000D0019FA2400136043962140
:1014000007F022FE64251C4BC4186C431B4B9C4206
:1014100015DB1B4B9C4228DC20001A4907F014FE08
:10142000194B05B29C420CDC0123019A0920137070
:101430003370FFF70FFBFEF7B5FF2800FEBD3D0040
:10144000F2E7124B9C4210DC019B19241F70012310
:101450003370FEF787FF0B20FFF7FCFA0A20013CF0
:1014600007F080F8002CF9D1E7E70023019A3370E8
:101470001370E2E7B80B00001CF3FFFF13FDFFFF42
:10148000E5270100EE02000093110000DF2E0000AE
:1014900030B5002185B04748002404F053FBE0221A
:1014A000454B46499C709200454804F043FD642139
:1014B000444B14229C70444B96209C70434B8000FC
:1014C000D980FA215A80F6321C809A80404B8900DC
:1014D0001C8059809A80D8803E4B3F481C805880A1
:1014E000C82080009A80D8803C4B0B2059803C4912
:1014F0001C809980C8214900D9803A4B3A499A808A
:10150000423ADA80C8221C805980384B12015A8036
:101510000222FF321C809A809622354D1201DA8019
:101520002880012107F054FB0023E85E210007F02A
:101530007FFB304D22002800302102F0DDFD00232A
:10154000322202210092019328000294313A02F0E3
:10155000A3FE294B9C70294B9C70294B9C70294BF6
:101560009C70294B9C70294B9C70294B9C70294B7B
:101570009C70294B9C70294B9C70294B9C70294B6B
:101580009C70294B9C70294B9C70294B9C70294B5B
:101590009C70294B9C70294B9C70294B9C70294B4B
:1015A0009C70294B9C70294B9C70294B9C7005B0FA
:1015B00030BDC046AC0400208813002000BC0000F1
:1015C000EC0E002020130020820E0020860E00204A
:1015D000E2120020FC12002088130000E01300201B
:1015E000010A0000341300206C0700008E12002056
:1015F0005C040020540100201C130020C0130020B4
:1016000090130020B8130020D4130020A81300204A
:10161000A013002094130020A4130020981300208E
:10162000BC130020B0130020AC1300208C1300204A
:10163000D81300208013002084130020CC13002036
:10164000C8130020C4130020D01300209C130020D6
:10165000B413002073B51B4C06000421200003F0D6
:101660005EFC194B002163611E230A0020000191DA
:101670000093223302F046FF0A21300007F0E4FC19
:101680000A2501B26D424D430F23AD19632E00DDD3
:101690000E4B23610A22200004F01FFF0123019357
:1016A0000233200000931922262102F02BFF2C2365
:1016B00029000A222361200004F00FFF200004F01B
:1016C000BDFB73BDAC04002001000100FCFF000065
:1016D000F0B5334C060085B0200004F04FFA6425C5
:1016E000642E02DCF543ED1735400321200003F0A2
:1016F00016FC2C4B002163611C230A000093200080
:101700000191243302F0FEFE092E3EDC264B290017
:1017100023610A22200004F0E0FE00260127202396
:101720000822200001930092322132001F4B0396C1
:10173000029703F0E9F92023082220000193009288
:101740003A2132001A4B0396029703F0DDF9122377
:1017500000930C3B1A0020003621019702F0D2FEC4
:101760000A20372168434942019607F06DFC0623A1
:10177000123000B21A0036210090200002F0C2FEA2
:10178000200004F05BFB05B0F0BD132E01DC094B1B
:10179000BDE7632E01DC084BB9E78023DB02B6E727
:1017A000AC040020010001001F0004000000002024
:1017B00020000020120004000D000400F0B50123F9
:1017C00005002A4C2A4E85B0002923D0236000232F
:1017D00033602368274F9BB2019320231E2200937E
:1017E00000213800DB1802F08DFE002D14DC236888
:1017F00038009BB2019320231E2200930421DB18A2
:1018000002F080FE380004F019FB1A4804F016FBC1
:1018100005B0F0BD2160DBE7291C0F2D00DD0F2195
:1018200000250BB203933368124F9BB20193072339
:10183000ADB2A90000931E22053B380009B202F0A8
:1018400061FE0135039B2DB2AB42ECDA190023682F
:1018500001319BB201931223890000931E223800AC
:1018600009B22E3302F04EFECFE7C046A80E00208C
:1018700040010020AC04002070B50A4C0D0000228D
:10188000A35E834200DA20800023E05EA62153306D
:1018900007F0DAFB290000B2FFF790FF0023238056
:1018A00070BDC0467C0E002013B5134B0124134AB3
:1018B000002914D000211C601160114C002811D0A7
:1018C000136800219BB2019307231E220093053B5E
:1018D000200002F017FE200004F0B0FA13BD1960DA
:1018E0001460EAE71B681E229BB2019307230100E4
:1018F0000093053BECE7C046A80E00204001002005
:10190000AC040020F0B500250224012689B0FEF7C2
:101910006FFCCC4F380004F031F90221380003F09D
:10192000FEFAC94B3D617B612A001B232900380068
:1019300002940195009603F069FA41232A001C21C4
:10194000380002940195009603F060FA1A232A00E9
:101950003421380002940195009603F057FA3800BC
:1019600004F06CFA1022B94B1D80B94B1A80B64BAB
:101970000793B84B1B78002B00D006E2B64D2B889E
:101980000B2B2DD10020FEF795FDFA212880490070
:10199000B24802F0EDF90028F0D0B14BB14D002172
:1019A000595EAB4B00229A5E2B78002B0FD00023A0
:1019B00001260193009616333800029403F026FAAC
:1019C0002B785E402E70380004F038FAD6E70120FC
:1019D0002870009002943800019303F017FAF2E7A0
:1019E000092B01D0042B32D19F4AA04E12883378A4
:1019F000013A0021934201D00133D9B23170002560
:101A00000E232A000093102116333800019502F0AE
:101A100079FD3378964AD35C112B12D11023954966
:101A20003B61380004F0E2FC934B1B78002B35D16E
:101A3000380004F003FA0020FEF73CFD864B1880C6
:101A400097E7FA2B13D110238C493B61E9E70A2B66
:101A500001D0052B15D1854E3278531EDBB2002AFA
:101A600003D1814B1B88013BDBB23370C7E70122F6
:101A70001C21009238002A000294019503F0C6F957
:101A8000D2E7062B01D0012BCED1784B784A1B78B8
:101A9000D25CFA2A45D1784BF93A1A700026012512
:101AA000380004F06BF859233200310038000294FA
:101AB0000196009503F0AAF94E2332003421380034
:101AC00002940196009503F0A1F9059606956A4ED9
:101AD0003378002BACD00020FEF7ECFC5E4B80B2DC
:101AE0001880092802D0042800D081E00025069B38
:101AF000102229003800009302942B00019503F076
:101B000085F9069B10220093342118233800029493
:101B1000019503F07BF901230593380004F08EF959
:101B2000D5E7574B1B88112A3BD1002B11D0002140
:101B3000544AD218013A1170013B1A1C9BB20F2B68
:101B400000D90F224E4B91B21A804F480A2204F05E
:101B5000C8FC10220025402329000092380001957E
:101B600002F0D0FC464B394A198804291DD815804B
:101B7000364E0023F15E424B1B88AB4233DD344AC4
:101B8000404B0020125E0020EB5C01900130009081
:101B90000294380003F03AF9338801350C3333806E
:101BA000E6E73849CA540133C7E70C235B424B438D
:101BB00034331380254E0023F15E314B1B88AB423A
:101BC00011DD234A2F4B0020125E0020EB5C0190B8
:101BD000013000900294380003F018F93388013581
:101BE0000C333380E6E7194B1A881D4B1A801BE72C
:101BF0000A2801D0052816D10025069B10222900AD
:101C00003800009302941823019503F0FFF8069B17
:101C10001022009334212B0038000294019503F028
:101C2000F5F8022378E7062802D0012800D074E7EF
:101C3000059B022B2AD1074B069A1A70002333709A
:101C40006BE7C046AC04002001000100C80E002074
:101C5000CC0E0020CE0E0020A00E0020820E002010
:101C6000CA0E00206901002062010020A40E00209D
:101C70002001002056B800007E0E00205AB8000057
:101C8000DC120020A8120020A01F0020059B0025C8
:101C9000012B78D13800357003F070FF2100380037
:101CA00003F03DF9079B3D617B61059B2A002900FC
:101CB0003800009302941B23019503F0A7F8059BBD
:101CC0002A001C213800009302944123019503F05F
:101CD0009DF8059B2A0034213800009302941A23B2
:101CE000019503F093F8380004F0A8F81021402380
:101CF0000A0000913800019502F004FC744B754A0B
:101D00001988042919D81580724E0023F15E704B92
:101D10001B88AB422FDD704A704B0020125E002002
:101D2000EB5C0190069802940090380003F06EF886
:101D3000338801350C333380E6E70C235B424B4399
:101D400034331380634E0023F15E614B1B88AB423A
:101D500011DD614A614B0020125E0020EB5C0190B6
:101D6000069802940090380003F050F8338801354B
:101D70000C333380E6E7574B1A88594B1A80002200
:101D8000584B1A70C9E60595C7E60024380003F0E1
:101D9000F5FE554938003C6104F028FB4C4B534894
:101DA0001A880C2353439BB21900403909B20180B1
:101DB000A1422CDA0226474B1C80454B1B88A342CC
:101DC00014DD444D444A454B0021525E0020295EFB
:101DD0000020E35C0190013000900296380003F08F
:101DE00015F82B8801340C332B80E6E7380004F01B
:101DF00025F8374B39481988FFF74AF9C8240A20D3
:101E0000013C06F0AFFB002CF9D109B0F0BD140085
:101E1000324988180138013C02D306784671F9E747
:101E20005700C81949000D0005240026391A013C45
:101E300006714E550138002CF8D125490A320A8026
:101E40002A4A38331380033400250321274B00220C
:101E50009A5ED3170B409B189B100133AB4233DBC8
:101E6000042300265B426B431A4A1380184B1B88DD
:101E7000B34215DD174F184A184B0021525E00205F
:101E8000395E0220F35C0290002001900130009046
:101E9000174802F0BBFF3B8801360C333B80E5E777
:101EA000134803F0CBFF0A2006F05CFB0A2006F083
:101EB00059FB0A2006F056FB0A2006F053FB0A20C5
:101EC00006F050FB0135C0E7013C002CBCD190E787
:101ED000DC120020C80E0020CC0E0020A81200202A
:101EE000CA0E0020A40E0020DEB70000DE12002083
:101EF000AC040020F0B5B54D87B02B88A12B1DD1C7
:101F0000B34C200003F03AFE0121200003F007F853
:101F1000B04BB1492361200004F068FA012300228C
:101F200001931F33110020000093203302F01EFBA9
:101F3000200003F083FF0720FEF78CFD032006F04E
:101F4000A3FE002803D10A2006F00CFBF6E70420CC
:101F500006F09AFE0028F6D032260A20013E06F04E
:101F600001FB002EF9D19D4C01202670FEF7A2FA4C
:101F7000013623780493002B15D10A2006F0F2FADB
:101F80000498FEF797FA964B188083B21A00093A24
:101F9000012AEED9043B012BEBD9062801D00128F8
:101FA000E7D12670E5E72B88A12B5CD10025884C72
:101FB0000226200003F0E2FD0221200002F0AFFF24
:101FC00088492000256104F011FA1E2320002361B6
:101FD000854904F00BFA854B1F780296AF4244D135
:101FE00001231D00009310223B00082120000197CF
:101FF00002F00CFF2B000296019700951733102278
:102000002C21200002F002FF0120FEF753FA0127E5
:102010000A2006F0A7FA0020FEF74CFA744B80B2B3
:102020006B4E1880092801D004282DD100250223E9
:10203000102208213000029301952B00009702F036
:10204000E5FE0223102202932A2116333000019567
:10205000009702F0DBFE654B1D70049D5C4803F0A9
:10206000EDFE002DD4D107B0F0BD01231F00009379
:102070001022173308212000019502F0C7FE2B0023
:10208000029601950097BAE70A2801D0052817D1D2
:1020900000250223102208213000029301951633F7
:1020A000009702F0B3FE0223102202932A212B0094
:1020B00030000195009702F0A9FE4C4B1F70CCE751
:1020C000062802D0049D0128C8D10025200003F075
:1020D00055FD3900200002F022FF4649200025610D
:1020E00004F084F9102310220093290030332000DB
:1020F000019702F03BFA102305936421280006F0B3
:10210000A3FF059A03B2002130000092019710222C
:1021100002F0F8F90A2006F025FA0A2006F022FA61
:10212000300003F08BFECA2340355B019D42E4D1B1
:1021300032250A20013D06F015FA002DF9D12B4E6B
:102140002D4B32781A75FEF78BFE33782000224E25
:10215000002B1DD003F012FD0221200002F0DFFE53
:1021600031002561200004F041F980235B031D4903
:102170002361200004F03AF9200003F05FFEC83527
:102180000A20013D06F0EEF9002DF9D1002565E7A2
:1021900003F0F4FC0221200002F0C1FE31002561B1
:1021A000200004F023F980235B030F492361200002
:1021B00004F01CF9200003F041FEC8250A20013D6F
:1021C00006F0D0F9002DF9D1E0E7C046500100201B
:1021D000AC04002011000C005EB80000E40E0020EA
:1021E0003C01002014B900001BB90000DA120020E5
:1021F000A00E002064B800000C0F0020E121F0B513
:10220000BC4D87B02800090205F0D0FDBA4928006E
:1022100004F0FEF8B94801F01FFEB94801F084FD52
:10222000B84C02002080B849280004F0FBF823884D
:10223000B64CDA0700D405E12800B54904F0E8F807
:10224000102323800221072006F0C2FC0221032074
:1022500006F0BEFC0221042006F0BAFC01210D208C
:1022600006F0B6FC0121080006F0B2FC01210D20A9
:1022700006F0DEFC0121080006F0DAFC20880300ED
:10228000113B012B00D83CE3152800D1ABE2A14B58
:1022900011201988FEF79CFAFDF7AAFF0020FEF72F
:1022A00011FC002802D101229B4B1A709B4B1B7C16
:1022B000002B00D105E10122994B9A481A7003F0D6
:1022C0005DFCFA219848890001F044FD944B1C788C
:1022D000002C00D1E6E00F20FDF716FF0A23934CF7
:1022E0000F2160430013584306F0AEFE904B188058
:1022F0001220FDF709FFD0232721584306F0A4FE42
:1023000044438C4B2413002187481C8001F030FD8E
:10231000002848D0884B894F1C683868210006F097
:1023200009FE874E21003860306806F003FE002366
:1023300000227C4C30600193203311002000009378
:10234000123302F0DFF80121200002F0E8FD002343
:1023500020003A687B49236104F064F880235B0322
:10236000326879492361200004F05CF8774A3B68C1
:1023700077499B1832222261642B00D975492000CD
:1023800004F050F8C821744A336889009B18734AD6
:1023900022618B4200D97EE06D49200004F042F8B2
:1023A000200003F04BFD64216D4801F0E1FC0028A2
:1023B00017D0624A5E4B11681B880D205B181360B2
:1023C0005F4A5C4B11681B885B18012113605A4AF5
:1023D000136801331360634B1A785140197006F08B
:1023E00027FC3221604801F0C3FC002807D00121FE
:1023F0005E4B0B201A785140197006F019FCFA2137
:102400005B48490001F0B4FC002810D0434B0A227D
:102410002800198804F065F8564C57482278002A9D
:102420003BD000223C21FDF785FE002323700720CE
:1024300006F02AFC002800D048E7384B1874384BC7
:10244000187043E79A0705D528004C4903F0E0FFD0
:102450001123F6E65A0705D52800494903F0D8FFAD
:102460001223EEE6DA0605D52800464903F0D0FF30
:102470001423E6E69A0605D52800434903F0C8FF71
:102480001523DEE65B0600D4DCE628003F4903F0B6
:10249000BFFF1623D5E62F497FE77821FDF74AFED7
:1024A0000123C3E721000B2006F0C2FB01210D2010
:1024B00006F0BEFB220032212F48FDF73BFEFEF75F
:1024C000CFFC1320324A3349FEF77AFF0024324F03
:1024D00038802000FFF7FCF82100642006F0B4FDEE
:1024E00000250600AE4259D0012006F03BF8013528
:1024F000F8E7C046A01F00206EB80000FC130020C3
:10250000FB1300202613002077B8000024130020BE
:102510007DB8000040000020D60E00200C0F0020E7
:1025200076130020AC040020D0130020B80B00006C
:10253000281300202E130020C40E00207813002042
:102540007C130020D5B80000DAB800004AFCFFFF79
:10255000DFB80000E2B8000050E2FFFF32001000D8
:10256000CC13002077130020C8130020751300201F
:10257000C4130020741300205C04002092B80000F3
:102580009EB80000AAB80000B9B80000C8B80000A2
:10259000D70E0020DE0E0020A20E00203B88013462
:1025A000A34296DA64240A20013C05F0DBFF002CEC
:1025B000F9D1FDF7ABFEDC4EF37C002B00D0BBE085
:1025C000FDF7A4FE0320FEF745FAF289D74B1A80E7
:1025D000002A00D1BAE0327DD54BD6491A700023CB
:1025E000D54A1380D54A1380D54AD488201C8C4202
:1025F00001D9D44800881080D34A1380D34BD8889F
:10260000021C884201D9CF4A1288D149D1481A8088
:1026100001F0A0FBD04B1B78002B00D1EFE0032092
:1026200006F032FB002800D094E0043006F02CFBCA
:10263000041E00D08EE0C94D2F78002F00D1B0E0ED
:10264000C74F0125380003F099FA3800012102F044
:1026500066FC3800C3493C6103F0C8FE1022380014
:102660000A27402321000195009201F07FFF059584
:102670006421200006F0E8FC059AB94D0192102271
:1026800003B200210092280001F03CFF380005F061
:1026900069FF380005F066FF380005F063FF380079
:1026A00005F060FF380005F05DFF280003F0C6FB71
:1026B000CA2340345B019C42DAD1C8240A20013C81
:1026C00005F050FF002CF9D1FDF720FEC8340A2098
:1026D000013C05F047FF002CF9D1280003F04EFA29
:1026E0000121280002F01BFC9F4BA0492B61280010
:1026F00003F07CFE012301931F33220021002800F8
:102700000093203301F032FF280003F097FB0720ED
:10271000FEF7A0F99134FF340A20013C05F022FFB6
:10272000002CF9D1FFF7EEF80123F3743375FDF7B0
:10273000EDFD894B1C703EE0FEF7CCFCC8240A205E
:10274000013C05F00FFF002CF9D139E73222F2816C
:102750001A8040E700217F4801F00AFB041E3BD1AC
:10276000834B00229B5E012B25D102217A4A1070F7
:10277000804A1180804A1070804A1070804A13800D
:10278000804A1070804A1070804A1370804A13701B
:10279000FDF744FDFA217F48890001F0DBFA7E4B0A
:1027A000C8E77E4C0023E15E01290AD17C497D48BF
:1027B00001F0D0FA27800020FDF77CFE6C4B1880DA
:1027C00028E70029F7D1774801F0D2FA0028F2D0A3
:1027D00001232B702380EEE700235F4A1370012250
:1027E000644B1A80E7E7FEF70FFB0020FEF76AF95B
:1027F000002802D101226C4B1A70FEF731FB05F064
:1028000081FE6A4B4E4F1860484B0F201A88642394
:102810005343674A0A249B187B80FDF775FC604D83
:102820000F2168430013604306F00EFC614B1880D3
:102830000F2006F06FF86843000B0F21604306F08D
:1028400079FB5D4B18601220FDF75EFCD023272139
:10285000584306F0F9FB0300FA216B43574A1B1358
:102860001380544A98B212888900504306F0ECFB5A
:10287000534B18801320FDF747FCFA2368430013DD
:102880009621584306F0E0FB4E4C4A4B4E4E2080BA
:1028900019883000FDF782FC059500283ED0012202
:1028A0004A4B1A70334B00255D5F022D00D0ECE0DF
:1028B0000127474D474E2978474C3770002906D1EC
:1028C000344801F055FA002800D18FE02F702378AA
:1028D000002B00D091E03378002B00D1A6E001233B
:1028E0003E493F4A13202370FEF76AFD3D4B80B2FC
:1028F0001880FEF7EDFEFA213B48890001F02AFA24
:1029000094E0122800D07AE70020FEF7DBF80028D8
:1029100000D074E70122244B1A7070E73388002B33
:10292000C0D12A4A1370BDE70C0F002066010020B9
:10293000DA120020FEFF0000E2120020FC1200204C
:10294000E013002034B90000341300208E12002060
:1029500088130000D81300204E010020E30E002051
:10296000AC040020E6B8000008000C00F1B800003C
:102970003C010020640100206A130020DC0E0020CE
:102980004C010020E20E0020E70E0020D80E0020AF
:1029900068010020A4130020480100204A01002003
:1029A000B80B000080130020D60E00206C1300200E
:1029B00030F8FFFF28130020301300202E130020D2
:1029C0002A1300202C130020860E0020E012002085
:1029D000E10E0020E80E0020D50E0020DE0E0020C3
:1029E000D70E0020A20E0020901300202A78237812
:1029F000002A00D06BE7002B18D0D24D0021280010
:102A000001F0B6F9002806D1CF4B00229B5E012BC6
:102A10000CD1CE4B36E0CD4C2378002B31D0FA21AF
:102A20002800890001F096F900232370C84CC64F96
:102A30000022A35EC74DC84E022B01D000F0A4FFB8
:102A4000C64A1378002B01D100F0EFFF0423238046
:102A500000231370C24AC3491370C34A0B70C349A1
:102A60001370C34A0B702B7001331370C14AC249F3
:102A7000C248137001F06EF9FA21C148890001F0D3
:102A800081F8B64B01221A70D0E7002D63D0042DD7
:102A900001D000F09FFCBB4C217800291ED1B84822
:102AA00001F066F9002819D00122B14B21001A70FB
:102AB0001320B54AFEF784FCB44B80B2188023780B
:102AC000002B0BD0FEF704FE4B240A20013C05F03E
:102AD00049FD002CF9D10122A64B1A709A4BA74C44
:102AE00000229B5E0B2B00D060E20021200001F051
:102AF0003FF900280CD0A64A138801331BB213807B
:102B00001E2B00D04DE20121A24B1970002313802F
:102B1000032006F0B9F8A04D002815D1043006F0C6
:102B2000B3F8002810D19D4F9D49380001F012F9EB
:102B3000032006F0A9F8002800D13FE20120FDF7AC
:102B4000B9FC0022974B1A800023974A2B70136020
:102B5000964A13803EE0964B964E19883000FDF75A
:102B60001DFB002815D001221424934B03201A705A
:102B7000924B1C80FEF748F9914B358000229A5EFB
:102B8000824B0021595E8F4B0020185E2300FEF718
:102B9000C7F98D4B1C78002C00D02BE18B4B8C4D52
:102BA0001E78002E51D131000D2006F041F828008A
:102BB00032006421FDF7BEFA2D2005F0D3FC804BD6
:102BC000012219882800FDF7B5FA0123814A137004
:102BD0007D4A1370032006F057F85D4F5E4D0028C4
:102BE00000D148E200217C4801F0C2F8002800D062
:102BF00029E3554B794900229B5E0A785D4E002AF5
:102C000000D138E30B2B00D038E3754B1B782B70C9
:102C100000230B700021734801F0AAF8002800D1AE
:102C200051E30123002233705E4B1A805F4B00207A
:102C3000185E002801D0FDF70DFF614B0020185EE3
:102C4000FEF708FD0023337041E322003221280003
:102C5000FDF770FA21000D2005F0EAFF322005F0A3
:102C600081FC32260A24012231005948FDF762FA1C
:102C70000F2005F04FFE059B0F215843000B6043CA
:102C800006F058F9584B81B218605848FDF786FA9B
:102C9000142005F067FC07360F20FDF735FA782E73
:102CA000E1D10F2005F036FE059B0F215843000BA4
:102CB000604306F03FF93E4B0A241880122005F0CD
:102CC00029FED0232721584306F034F9FA21059B29
:102CD000474A43431B0B1380354A98B21288890038
:102CE000504306F0B1F9374B18801B4B00B21978EE
:102CF000FEF7C2FD324B0A211D88701B06F0A4F9B5
:102D0000010061434919324D01222800FDF712FAF2
:102D10000F2005F0FFFD059B0F2158430A23000BF0
:102D2000584306F007F9304B81B218602F48FDF781
:102D300035FA062005F016FC0F20FDF7E5F9013CF9
:102D4000D8D23CE7901300203C010020D30E002095
:102D5000640100206A13002068130020DB0E0020AD
:102D6000E80E0020FA130020D50E0020E10E00200E
:102D7000D90E00206801002030750000A01300204B
:102D8000B8130020DE0E0020D70E0020A20E002077
:102D9000AC0E0020E60E0020E00E00209C13002068
:102DA000EE0200008C120020C00E002066130020EE
:102DB0002813002034130020DA0E0020D00E00204B
:102DC000660100202A1300207F0E0020DA12002066
:102DD0005C040020E0120020B4130020E50E002067
:102DE00069130020BC13002030130020860E002041
:102DF0002E130020FA21D548890000F0B9FF0028E1
:102E000039D0D34AD3491368013313600A680132B9
:102E10000A60062B2FD1D04B6421188806F08AF85F
:102E2000CE4BCF4C0021595E02B20023E05E00235E
:102E3000FEF776F80023E05E0E21FDF795FFC94B03
:102E4000C94A1B88181C1BB2934200DD101CC74BDB
:102E500002B29A4200DA181CC54B00B2C018142105
:102E600006F0F2F8C34A68304000835A01338352B7
:102E70000022B74B1A60BB4BBF4C19882000FDF7EE
:102E80008DF900281ED12388002B1BD1E288BB4975
:102E9000131C8A4201D9BA4B1B882380B94BAD4C15
:102EA0001D78002D72D0962322685B009A4209D3C8
:102EB000FDF758FA0B20FDF7CDFD0122B24B1A7039
:102EC00000232360B14BB24E19883000FDF766F93C
:102ED000A34C002814D001201025AE4B1870AE4B27
:102EE0001D80FDF791FF00233380AC4B00229A5EDA
:102EF0009A4B0021595E0023E05E2B00FEF710F88C
:102F0000A74D21882800FDF749F9002815D0012296
:102F1000A04B98491A7011239F4A1380CA88013226
:102F2000CA8000222A809D4A0021525E8B490020DF
:102F3000095E0025605FFDF7F3FF874B38001988B5
:102F4000FDF72CF9002800D044E63B88002B00D088
:102F500040E601228F4B02301A708F4B11321A80DB
:102F6000FDF752FFFA888549131C8A4201D9844B28
:102F70001B883B80894B00229A5E784B0021595E6A
:102F80000023E05E1223FDF7CBFF23E601261E702F
:102F9000FDF7E8F90B20FDF75DFD7B4B25601E700A
:102FA00090E720007F4900F0D5FEB1E520007D4983
:102FB00000F0D0FE00227C4B1A80A9E5042005F029
:102FC00063FE041E00D0B9E52B780593002B4CD18D
:102FD0003800764900F0CCFE002826D0744E03203D
:102FE000336801333360FDF735FD3368714C012BD5
:102FF00022D1200002F0C2FD082380262361022195
:10300000200001F08CFF76036B49200003F0EEF9FD
:1030100002212000266101F082FF6849266120001C
:1030200003F0E4F9634802F009FF0122564B1A70DD
:103030000B23634A13807BE5022B04D180235B03BF
:1030400060492361EBE7032B04D180235B035E49D6
:103050002361E4E7042BE5D120005C4903F0C6F9C5
:1030600001232B70059B3360DCE7FEF743FF504BD9
:103070002C701C60D9E7072005F006FE041E00D066
:10308000B0E50023FF5E2E78002F00D0A6E0494C6B
:10309000002E3ED13D4B013718882F7006F0C4FF3B
:1030A0003E4B0590188806F0BFFF0599FEF75AF9C8
:1030B000200002F063FD3900200001F030FF444B96
:1030C00044492361200003F091F9202332003100AC
:1030D00000930197DB18200001F048FA200002F06D
:1030E000ADFE200002F04AFD0720FDF7B3FCFA20F8
:1030F000800005F037FA032005F0C6FD00281ED039
:103100000120FDF7D7F901222D4B18801E4B1A70B4
:103110006FE520002F7002F031FD0121200001F049
:10312000FEFE2B4B2C492361200003F05FF90123A5
:1031300001931F3300933A0039002033CBE7072077
:1031400005F0A2FD0028D6D0DAE7C046AC13002077
:10315000B00E0020B40E00202E130020A20E00207E
:103160002A1300202C13002004100000E40C00009F
:103170001CF3FFFF0C0F00208E120020FEFF00004A
:1031800034B90000DF0E0020680100202813002061
:10319000E2120020DA0E0020D00E0020660100208E
:1031A000FC12002030750000AC0E0020EE02000082
:1031B000C00E0020AC040020FAB80000A8B800003F
:1031C0003C010020FFB8000004B900000AB900006B
:1031D00008000C0010B9000017B90000002E00D143
:1031E00007E5A04E2870300002F0C8FC0121300035
:1031F00001F095FE9C4B9D493361300003F0F6F8D9
:10320000012301931F33220021003000009320335B
:1032100001F0ACF9300002F011FE300002F0AEFC1B
:103220000720FDF717FCFA20800005F09BF903202A
:1032300005F02AFD002800D062E7072005F024FDF4
:103240000028F4D05CE70022BB5E002B00D0D0E465
:10325000874B188806F0E8FE864B041C188806F099
:10326000E3FE211CFEF77EF80123834A2B701370C6
:10327000824A1370BDE40B2B00D1CBE40020804ABE
:103280001080012B63D17F4F3A88824204D10B70AA
:1032900029787D4B2A701970FA2101327B48890008
:1032A0003A8000F057FD3B88012B1AD1784A1278FA
:1032B000002A14D06B483C22022102F0D3FC754B4B
:1032C0001888FEF705FA3378002B00D0AEE4724B75
:1032D00029780020185EFEF7CFFAFFF7A7FB3A80A7
:1032E000F1E7DA1E022A2AD85E4C200002F046FCE2
:1032F000102302212361200001F011FE6749200004
:1033000003F074F880235B0323610221200001F0A5
:1033100006FE3B88042B0BD0052B0ED06049032BF7
:1033200007D0200002F08AFD0320FDF793FBCAE7D7
:103330005C49200003F05AF8F3E75B49F9E7062BF4
:10334000C1D10122594B1A7000233B80BBE7042BEB
:1033500014D1484B1B88772B06D80A3345490B807C
:1033600003231380023B33702B78002B25D064217C
:103370004F4800F0EFFC00232B701EE0092B05D115
:103380003C4B1B88772BEFD80133E7E7052B0AD19D
:10339000384B1B88282BE7D90A3B36490B8004237E
:1033A0001380033BDFE70A2B05D1324B1B88282B08
:1033B000DAD9013BF1E7062BD6D12E4B1A88131C24
:1033C000782A00D978239AB2282A00D22823294AB9
:1033D000138078E7012D00D003E2364B364E1A7881
:1033E000002A2BD0002235701A700122334B1A703C
:1033F0003378334E002B09D03388934206D196217F
:10340000002330488900338000F0A4FC3588002D6B
:103410005ED12C4F2900380000F0AAFC002801D111
:10342000FFF7F2FA284C2378002B16D096213800AB
:10343000890000F08FFC2570FFF7F8FA3778002F2D
:10344000D3D1FCF76FFF3900204800F091FC002831
:10345000CBD03570FCF75AFFC7E702233380FFF764
:10346000E5FAC046AC04002008000C0017B90000C3
:103470002813002066010020600100206801002060
:10348000661300208C12002069130020BC1300205A
:10349000D90E0020A20E00202A1300201BB9000024
:1034A000A8B80000FFB8000004B90000E60E002034
:1034B000B413002048010020E20E0020E70E002097
:1034C0004C010020D4130020D30E002098130020BC
:1034D000022D01D0FFF7AAFACB4FCC4D3B78002B41
:1034E00053D02B78002B01D000232B70FDF7B8FCB4
:1034F000002308262380132005F00CFA059B962153
:103500005843FA23000B584305F014FD2388013E6D
:10351000C0182080322005F025F8002EEBD123883A
:10352000BB4ADB102380934207DD3100012005F008
:103530007FFB01210B2005F07BFBB64C0323B64A31
:103540000721200002F0CAFD200002F09DFD0720A7
:1035500004F020FF0121080005F06AFB00210B2088
:1035600005F066FB642004F0FDFFFCF741FE2B78BC
:10357000002B01D1FFF75AFA002301223B70A74B21
:10358000A749A8481A80FFF7B9F92B78002B01D179
:10359000FFF74CFA072005F077FB002811D0002137
:1035A000A04800F0E5FB002800D016E19E4B002269
:1035B0009B5E012B01D0FFF739FA9C4A1370FFF78D
:1035C00035FA042005F060FB0028E8D1984B1B7801
:1035D000002B01D1FFF72AFA964D01272A78002AFD
:1035E0007ED18E4C2388012B04D1934993482280AD
:1035F000FFF784F9002B01D0FFF718FA00218F485C
:1036000000F0B6FB002801D1FFF710FA01232B7060
:103610002380FFF70BFA0A2004F0A4FFAAE00A288F
:1036200002D0052800D0D4E000232370D1E0814BE4
:103630001B78002B54D00926814C6425200002F011
:103640009DFA0221200001F06AFC7E4B0A22310023
:103650002361200002F041FF200002F0EFFB0A206E
:10366000013D04F07FFF002DF9D1013EE4D2FDF7CA
:1036700087FC200002F082FA73492561200002F0E5
:10368000B5FE80235B0371492361200002F0AEFE8A
:10369000200002F0D3FB64350A20013D04F062FFF4
:1036A000002DF9D1200002F069FA69492000256156
:1036B00002F09CFE80235B0366492361200002F038
:1036C00095FE200002F0BAFB5A4B08201D70FDF752
:1036D000C1F9200002F052FA5149524800F03AFB79
:1036E000544B1B78002B01D1FFF7A0F9544C6425F3
:1036F000200002F043FA0221200001F010FC564B9A
:103700000022236120231100200000930197DB1881
:1037100000F02CFF4C49200002F068FE200002F06F
:103720008DFB0720FDF796F90A20013D04F01AFFF2
:10373000002DF9D10226200002F020FA200047498E
:10374000256102F053FE2000592310222900029621
:103750000195009701F05AFB20004E2310223421DE
:1037600002960195009701F051FB200002F066FBE4
:103770003B4C2770072005F087FA002800D14AE764
:10378000042005F081FA002800D144E7032005F069
:103790007BFA002800D13EE73800FCF78BFE237847
:1037A000002B00D143E70020FCF784FE1E4B244D84
:1037B0001880092802D0042800D030E700231D4AD1
:1037C00028002370137002F0D9F91549154800F04C
:1037D000C1FA280002F032FBE1E701233B70FFF75A
:1037E00025F9032D01D0FFF721F91E4C2378002B7A
:1037F00076D11D4B18881038042852D805F090FB5C
:103800008F36AC518F00C0464F010020DD0E0020E6
:10381000470D0000981C0020FD000000460100201C
:10382000E2040000A81300203C010020DC0E002070
:10383000D80E0020D40E0020881300008C13002026
:10384000AC0400201C000A001FB900005AB8000098
:103850002AB9000030B900000A000A0024B90000AB
:10386000D20E002044010020D00E00200123D34DB1
:103870000E221F21280000930C3300F0C1FF002608
:103880000C23062200931E21093B2800019600F01C
:1038900039FE03231422019600931E21280000F014
:1038A00031FEC821C64800F063FAC64B002803D099
:1038B000012219784A401A70197800295AD0202319
:1038C000002100931E22BD480191DB1800F01AFE72
:1038D0000021BD4800F04CFA00284FD0012323708E
:1038E0000023BA4ABA491370BA4A1380BA4A1380FD
:1038F000F888021C884201D9B84A12883A80B84A2E
:103900001380B84BD888021C884201D9B34A128868
:103910001A80FCF7FBFCFDF7A3FAFFF787F80123F9
:103920002F22A64D039319331F21280002930192E1
:10393000009300220B3B00F090FF00260C2307228F
:1039400000931E21093B2800019600F0DBFD0323B4
:10395000152201960093A0E70123002102931D3355
:103960000193223300930A009F4B9448039101F086
:1039700070F896E70F20FDF721FFA9E72378002BC9
:1039800001D1FFF753F8ABE7002B00D0A9E00022EC
:10399000BB5E062B01D0012B1ED104232380002304
:1039A000924A2B701370924A06201370914A13604A
:1039B000914A1360914A1370914A13600122914B0E
:1039C0001A70FDF747F89049904800F0C3F9FA21C2
:1039D0008F48890000F0BEF97C4B1B78002B24D067
:1039E00003232380002401210D202C7005F0F0F822
:1039F00001210D2005F01CF97D4B86491C707D4B83
:103A000071481C607C4B1C607C4B1C707C4B1C60A8
:103A1000814B1C7000F09EF9FCF778FC200021001F
:103A2000FDF7CCFE0C20FDF715F82A787B4B7C4D7A
:103A3000002A00D01EE1002401210D201C7005F099
:103A4000F7F820003178FDF72FFF624B60491C80AA
:103A5000614B1C80734BD888021C884201D95F4A95
:103A600012881A805E4B1C805E4BD888021C8842EC
:103A700001D95A4A12881A80FA212A886A4B6B485F
:103A80008900DA8100F074F9002816D0E122684C30
:103A9000920023680133236093420ED1654D2B7849
:103AA000002B00D126E10020FDF70CF801230028AF
:103AB00000D000232B70002323600020FCF7FAFCC9
:103AC000388004F01FFD5C4C5C4B206022681B6852
:103AD000D31A5B4A934201D9FEF791FE04F012FD1E
:103AE000F2E7042B33D10022564B1A700022BB5E42
:103AF000062B0BD1544B1B78002B1DD00920FCF753
:103B0000A9FFFCF74FFC0122504B1A70504A137862
:103B1000002B8AD00123238000244E4914700C709E
:103B20004D494E4A0C70FA214D4889002C70137093
:103B300000F010F9347078E701222C492A700A70DD
:103B4000304A052023801370FCF784FFDEE7012B49
:103B50001BD144490A78002A00D166E7022222805C
:103B600000220A7040492A700B803A490A703A498B
:103B70000A703E4A1370354A1370FCF74FFBFA2166
:103B80003B48890000F0E6F84FE7032B00D04CE7F4
:103B90000E4B1A78D3B2002A00D046E704322280B6
:103BA0000124124A2B701370164B174917481C70CA
:103BB00000F0D0F8254B1C70FEF75EFFAC0400202F
:103BC00084130020800E002094130020DA0E0020C1
:103BD000FEFF0000E2120020FC12002034B90000B9
:103BE000341300208E12002080BA0000FA13002047
:103BF000DE0E0020B00E0020B40E0020DF0E0020EC
:103C0000B80E0020D90E002030750000A01300204F
:103C1000B8130020DC05000044010020040F002040
:103C200066010020E01300200C0F0020C0130020CC
:103C3000BC0E0020D60E0020701300206C13002054
:103C4000A76100007F0E0020D70E00206801002031
:103C5000E60E0020E20E0020E70E00204F010020BB
:103C600098130020DC0E00204C010020D80E00200C
:103C7000A4130020224A1278002A00D1DBE6012298
:103C80001A70204B1A783378002B20D0002A27D0C6
:103C90001D4C1E4B21781888FDF7A0FA00232370D5
:103CA000031C80B278280DD97823194A99B2138061
:103CB000184B19481A78FCF73DFA00210D2004F042
:103CC000B7FF0DE09AB2282AEFD22823EDE7298822
:103CD0000B1C782909D9782399B22B80002AE7D1C7
:103CE00001203178FDF7E0FDC6E689B22829F3D23C
:103CF0002823F1E70420FDF787F8FDF7B1F8DAE6AD
:103D0000FA1300207F0E00206001002028130020FD
:103D100016130020E01200205C0400200022014B5A
:103D20001A707047FB130020014B1878C0B270471F
:103D3000380400400221064B1A788A431A70DA7957
:103D4000D209FCD1997901320A439A717047C04671
:103D5000001000400B005A1E934170B505000C1E68
:103D6000837004D004F0C8FB013C24182C8070BD83
:103D700070B5847805000E00002C0AD0048804F089
:103D8000BBFB074A231A9BB20024934205D95B422E
:103D9000DCB231002800FFF7DDFF200070BDC04617
:103DA00060EA000000207047F8B505000E0017001B
:103DB0000024BC4208D02B682800315D1B6898475E
:103DC000002801D00134F4E72000F8BD704703005B
:103DD000FC33196ADA69914203D01B6AC018007E6D
:103DE000704701204042FBE70300FC33D8691B6A9F
:103DF000C01A01D50130FF3070470000F7B50193BC
:103E0000FA238027002504009B008360114B7F006C
:103E100008330E0045602900009203603A00183014
:103E200006F029FA23002000FC332130DD613A003E
:103E30001D622900FF3006F01EFA87239B00E3185D
:103E40005D609D60009B20002375019B2661A57528
:103E50006375FEBD80C0000070B5040018260C49D3
:103E6000006902F0DBFD206902F02AFC3300082122
:103E7000207D084D4343EB18595604F01DFF0821DF
:103E8000607D4643AD19695604F016FF70BDC0460B
:103E9000A086010020CE000070B504000D0000696E
:103EA00002F023FC2900206902F0B8FD206902F02D
:103EB00007FC70BD8A2300229B00C1540C3BC31831
:103EC0005A609A600123837570470200FC32536880
:103ED00010B501339468DBB29C4202D0546801559E
:103EE000536010BD10B50300827D002082420ED0C9
:103EF000872292009C186268A4680132D2B2A24262
:103F000005D02133FF331800FFF7DFFF012010BD7C
:103F10000300FC3399685A68914206D09A68805C25
:103F20009A680132D2B29A60704701204042FBE7A2
:103F300000228A2370B59B00827505000E00C15CCB
:103F4000006902F005FC002806D10321286902F06F
:103F5000E9FB0224200070BD872328009B00EA189B
:103F6000536894682130FF301C1B01D50134FF34A5
:103F7000002C0ED02C69FFF7CBFFC1B2200002F05D
:103F800025FC0028E8D10321286902F0CBFB03249B
:103F9000E0E7002EDED00321286902F0C3FBD9E759
:103FA00010B50121FFF7C4FF10BD10B51830FFF7A1
:103FB000AFFF10BD70B50400006902F029FC0028B5
:103FC00014D0206902F032FC002810D0206902F0E1
:103FD0009FFB0321206902F0A5FB8C239B00E55881
:103FE000002D39D10023FC34E361236270BD2069C8
:103FF00002F026FC002809D0206902F01CFC0028F1
:1040000004D0206902F021FC0028DFD0206902F0F2
:1040100017FC002826D1206902F003FC0028E5D017
:10402000206902F012FC002837D087239B00E21899
:10403000536892689B1A01D50133FF33FF21002B8F
:1040400005D020002130FF30FFF762FFC1B22069A8
:1040500002F0CFFBA075C9E7236820001B699847D1
:10406000A847BFE7206902F053FB2069032102F053
:1040700059FB206902F0E9FB0028B7D08723002212
:104080009B00E3185A609A600123A3758B239B0061
:10409000E3589342AAD09847A8E72200FC32D3699C
:1040A000126A0133DBB22069934206D102F027FB8A
:1040B0000321206902F036FB98E702F0CBFB0100F8
:1040C00020001830FFF701FF206902F021FBEFE725
:1040D00010B50248FFF76EFF10BDC046FC1300206C
:1040E00010B51523142202490248FFF787FE10BDC0
:1040F000A8220020FC13002030B5234B002A37D023
:10410000224A5A605A78D209FCD1214A9A605A78D8
:10411000D209FCD11F4A5A805A78D209FCD15F24B7
:104120001D4A94641D4CD46402221D4C25782A43F8
:1041300022701C4A5A605A78D209FCD101320271AD
:10414000FF291CD9FF210422016009021143164AEC
:1041500011605A78D209FCD1144A15491180597856
:10416000C909FCD1134911805A78D209FCD130BD5C
:10417000114A124C14605A78D209FCD1DFE70029A9
:10418000E1D10131DFE7C046000C00400507030024
:104190000530000001450000000800402810000024
:1041A0004408004004080300080C0040020C0040D2
:1041B0001A4400001B440000040C004004070300E4
:1041C000F8B50400182500200B0020492E004643B6
:1041D0008E599E4204D001300E28F7D1002034E0E1
:1041E0000020834231DB01266B43C9184B68184D10
:1041F0008868DB015B191D1840352F7840083E4365
:104200001B182E70303318784D69CE682843C0B221
:10421000187028237343A4680E4D20000F69EB1813
:10422000944200D910009A69DB69002105F018F862
:104230002200002304F0F4FF28235E43AA593860CB
:1042400093685B021B0FFBD10120F8BDA4C00000E6
:104250000044004170010020002010B5022913D84D
:1042600028234B430B4CE318981CC2775B68022051
:10427000002A0AD01A68104318602823594362584C
:1042800093689B07FCD4012010BD1A6882431A6012
:10429000F3E7C04670010020F7B508AB30CB1E78BD
:1042A000009401950023022958D81C00012A17D038
:1042B000022A13D0042A53D0082A54D0102A54D0EA
:1042C000402A55D00133FF339A4253D08023E02453
:1042D000DB009A424AD00024012201E080246400DD
:1042E00028254D43244B5D196F686A613A68144371
:1042F0006A1CD677AA683C6015680224002E00D19B
:104300001E4C2C43146028224A439C58A268520633
:10431000FCD4019A009F9446002A02D1022F00D2B9
:1043200002272822150000264D435D192D69664598
:1043300003D1BD4201D93D0066464A439A189561B2
:10434000D661D2681560A2685203FCD428224A4381
:104350009B180233DA7FFFF77FFF01231800FEBDB1
:104360008024A400BCE7C024FBE78024E400B7E776
:10437000A024FBE7C024F9E77001002005000F002E
:104380007047F0B515000C001E0089B00EAB00227E
:104390009B5E0FAA1288019005925A1BD1175218E2
:1043A0004A400292321BD11752184A400392039995
:1043B000029A8A4205DD32001E00130022002C0002
:1043C0001500B44205DD2A001D0013002200340050
:1043D0001600321B91B20691591BC81709184140AB
:1043E00012B20791D10F8A18521000920122049242
:1043F0009D4202DB01235B420493B44222DC019B19
:10440000039A1B689B691F00029B934216DD2200E2
:104410002900059B0198B847009B079A9A1A11B288
:1044200093B20091120406D5049AAD18069A2DB2E3
:10443000D3181BB20093013424B2DEE72A00210016
:10444000059BE7E709B0F0BD704710B50468246923
:10445000A04710BD37B506AC258804680095A46B4D
:10446000A04737BD37B506AC258804680095E46BD6
:10447000A04737BD73B506AC0025655F07AC26883D
:10448000046801960095246CA04773BDF0B5160032
:1044900004000D0085B003930AAB1F8803685B69B5
:1044A0009847039B2268013B9B191BB2009301971D
:1044B0002B0029002000976A3200B84723682000AB
:1044C000DB6A984705B0F0BDF0B505001C000E0092
:1044D000170085B00AAB1B88013C03930368A4193D
:1044E0005B69984703992A68019100973100280079
:1044F00023B2946A3A00A0472B682800DB6A9847E9
:1045000005B0F0BDF0B50E0087B003930CAB02927E
:1045100000229B5E040004930DAB1B8835000593BD
:1045200003685B699847039A2368B21895420BDACF
:10453000059A290000921B6A20001F00029A049B22
:104540000135B8472DB2EEE72000DB6A984707B087
:10455000F0BD13B501910E24015F0C22835E026849
:104560000091146C00221100A04713BDF0B50400A7
:1045700015000E0087B004930CAB00229B5E0593E0
:104580000DAB1B88039303685B699847039A236804
:10459000009231002A0020005F6A049BB847059B07
:1045A00003995A1E236800915219310020005F6A56
:1045B00012B2049BB847039A2368009231002A0084
:1045C00020001F6A059BB8470499039A23680139A4
:1045D000009289192A0020001F6A09B2059BB8477A
:1045E00023682000DB6A984707B0F0BD7047F0B53C
:1045F00085B002930AAB0027DF5F0BAB1B88160068
:104600000393029B04000D000268994210D1BE4240
:1046100002DD33003E001F00039901370091BB1BF0
:10462000976B1BB2320029002000B84705B0F0BDDF
:10463000BE420CD1029B994201DD029D0291029B78
:10464000039901335B1B0091D76B1BB2EAE75369F7
:104650009847039A23680192009720009F6A3200CE
:10466000029B2900B84723682000DB6A9847DDE7F2
:1046700003230B4010B583760822835E0A24025F71
:10468000C90702D48381C28110BD8281C381FBE747
:104690004281C2810122002310B55242064C426180
:1046A000064A0834436004600181818103618261AC
:1046B0000377036210BDC046F4C60000010100018B
:1046C000F0B51C008FB00692012214AB1B78059147
:1046D000079315AB0021595E16AB1B8805000893A4
:1046E000A3B2D01A93405B421BB289180C938BB2D1
:1046F00009930493002300B2029003930D92039B4D
:10470000A3427BDA029B2700002B09DB0C9B671E70
:1047100002331AB20C92029A3FB29B181BB2029358
:104720006B469B890A9301339AB21BB203930B9297
:104730005300029A01339B181BB20293039B9F42C2
:104740002CDB079B0D9A134212D00999BAB2530081
:10475000CB1806990B988A1A05992E684118089863
:104760001BB20090306A12B2060009B22800B047AE
:104770000222079B134211D00999BAB25300CB18F9
:1047800006990B988A1A0599089E091A28680096B6
:10479000066A1BB2280012B209B2B047BC4227D049
:1047A000079B0D9A13420FD06B460A9910229B5E0D
:1047B000069A089E521A0599286809190096066AF1
:1047C00012B2280009B2B0470222079B13420FD051
:1047D0006B460A9910229B5E069A2868521A059920
:1047E00012B2091B089C09B20094066A2800B0475F
:1047F000049B3C0002339BB2049380E70FB0F0BDF2
:10480000F0B51E0004000F0087B00CAB1B880492AB
:10481000059303685B69984704990598B2B2530001
:104820008A1A21680090096A01330D0020003900BE
:104830001BB212B2A847059B3900029300230193D3
:1048400003332000049A00933300FFF739FF2368F5
:104850002000DB6A984707B0F0BDF0B591B01D00AD
:1048600016AB029200229B5E0700039317AB002653
:104870009E5F18AB00229B5E039A049319AB1B88C2
:104880000C000993029B934200DCD7E0049A934208
:104890001DDD049B039A934212DA1300049A0392DB
:1048A000029A02932B003500260004921C000EE0B1
:1048B000029B039A0393230002922C001D00E8E759
:1048C000029B049A0493230034001E0002923B686A
:1048D00038005B699847039B049A93421DD1A54217
:1048E00002DD2B0025001C00B54205DC231CB44270
:1048F00000DA331C2E001CB209993A680134009189
:10490000A31B556A31003800039A1BB2A8473B68C5
:104910003800DB6A984711B0F0BDA3B2ADB2059381
:104920005B1B1BB26A460D936B4691891B89B6B21D
:104930005A1A12B20E92721B12B208926A46128A68
:10494000511A09B20B910599D21A761A31B212B2E4
:104950000C910F920499029A0A928A4202D0013B6A
:104960001BB20A930023039E079306930A9B9E4261
:104970002ADC0E99069804F067FB28180B9904B2FC
:10498000079804F061FB0D9A069B9446089A6344CD
:1049900094460693079B2818634400B20793844209
:1049A00002DD23000400180009993A680091526A58
:1049B00001309446031B32002100380064461BB2CC
:1049C0000136A04736B2D1E7029BF21A0C9B534343
:1049D0000293039B089AF31A5A430392049B9E4244
:1049E00000DD94E70F99029804F02EFB059B0B99CC
:1049F000181804B2039804F027FB0C9A029B944603
:104A0000089A634494460293039B2818634400B2B7
:104A10000393844202DD23000400180009993A68D8
:104A20000091526A01309446031B32002100380085
:104A300064461BB20136A04736B2CFE7039B049A07
:104A4000934200DD34E7029A029303922B000D009B
:104A50002CE7F0B58DB0079312AB069200229B5E57
:104A60000591019313AB00229B5E0400089314ABE5
:104A70001B880026099315AB1B8835000A93036831
:104A80005B6998470722019B0B92D91DCB171340F6
:104A90005B18DB10029333009AB20392069A99B224
:104AA0008A1812B20492089A934227DA0023019AD4
:104AB00093421DDA9AB200920B9A6D00EDB2134246
:104AC00003D1079ADB109219D55C2368059A9B697C
:104AD0001F00009B99186AB2099B09B2002A00DBEB
:104AE0000A9B2000049AB847009B01331BB2DEE703
:104AF000039B029A01331BB2B618CDE7236820004E
:104B0000DB6A98470DB0F0BDF0B585B00AAC002562
:104B1000645F0BAD0026AD5F0DAF0CAE36883F88ED
:104B20000296039701950094FFF793FF05B0F0BD3F
:104B3000F0B595B01D001AAB1B88049205931BAB12
:104B40001E881CAB1B78026A02931DAB1B78040005
:104B500008910393002A00D0C4E00C22835E8B42AC
:104B600000DC7DE00E22835E049A934278DD06230A
:104B7000029A53435B18002B72DD039B049ADB00FF
:104B80009B18002B6CDD037F002B03D1AF2D01D9C7
:104B90000135EDB2236820005B69984705220023A8
:104BA00055430793984B0B925B190F93079A0F9BF2
:104BB0009B5C0A936B469B8B09936B461B89099AF6
:104BC0000E936B461F8C029B5343FB181BB20D9335
:104BD00008230C930023069301220A9B20681342AA
:104BE00052D06B461A8B198A029B012B3AD1039B38
:104BF000012B37D1099B52188569D919059B12B22F
:104C000009B22000A847069B01335BB206930A9BBA
:104C10005B080A930C9B013BDBB20C93002BDBD1AE
:104C2000079B01335BB207930B9B013BDBB20B93FA
:104C3000002BBBD1059BB3420ED0029B2268012BF7
:104C40003FD1039B012B3CD105370096156A20000C
:104C5000049A39B20733A84723682000DB6A9847D3
:104C600015B0F0BD6B4608255B5F039D6A438A184B
:104C7000059912B2019169460C25495F0091C569F9
:104C80000D992000A847BEE7059BB342BBD06B46F9
:104C90001A8B198A029B012B0AD1039B012B07D186
:104CA000099B5218D9198569330012B209B2A8E7D5
:104CB0006B4608255B5F039D01966A438A1812B212
:104CC000D9E76B4608215B5E05210E9801964143AA
:104CD00003987918C0000090D5692000049A09B2A1
:104CE000A847B9E7137A5168ED1A1268EDB2ED00E2
:104CF00013924A5B4B1909929A780D92DA781192C5
:104D000005229A569B790E925BB20F93029B012B60
:104D100002D8039B012B56D96B4638229B5E0B931E
:104D20006B463C229B5E0C930027236820005B6946
:104D3000984707970697119B069A9A4200D38BE7EC
:104D40006B461B8A00260A930C9B9B18039A5343BD
:104D50000A9AD3181BB210933B000D9A96424BD27D
:104D60005A1CD2B212920722134207D1099B099909
:104D7000139A0133525C9BB2079209936B461B7FD7
:104D80005BB2002B17DA6B46198C029B2068012B53
:104D90001DD1039B012B1AD10A9B0F9A9A18069BCF
:104DA000D2180E9B12B2C918836989191D00200000
:104DB000059B09B2A847079B01365B00DBB207934E
:104DC000F6B2129BC9E700230C930B93ACE76B463A
:104DD00008229B5E0B9A029D92196A438918059AD4
:104DE00009B201926A460C25525F0092C269200006
:104DF0001500109AA847DEE7069D0D9B0135FF18A8
:104E0000EBB2FFB2069396E7F4C100007FB508ACA1
:104E1000258809AC26880AAC24780196009503946D
:104E20000294FFF785FE7FBDF0B5026A04000D0015
:104E300085B0002A2CD10A2908D1437E0282DB00EA
:104E4000628A9B186382012005B0F0BD0D29FAD05B
:104E50001223C25E1023C15E437E0393037E02933E
:104E6000C38A0193838A00932B00FFF761FE227EA1
:104E7000238A312D08D1042A02D113332382E2E799
:104E8000032A01D10E33F9E706214A439B18F5E7BF
:104E90000A2905D100230382127B437E5343CFE7C7
:104EA0000D29D0D0137A9942CDD3917AA942CAD391
:104EB000EB1A5168DBB2DB00CE18B178002929D09B
:104EC000F378002B26D0E37E007E677E002B13D084
:104ED0000523F3565B1843439C461023E15E8C4444
:104EE0000C23E15E8C4507DD1223E15E0023238263
:104EF000137B7B435B1863821223E25E1023E15E27
:104F0000E38A02900193A38A2000009303972B0069
:104F1000FFF70EFE227E33795343228AB6E70B1C3D
:104F2000002900D1012303764376704710B500F0C5
:104F30002DFB0022024B8000C35849331A7010BD6C
:104F400084160020F0B5040085B01E000AAB1B7863
:104F5000103001930BAB1B78170002930CAB1B783E
:104F60000D00039300F094F92000243000F090F934
:104F7000220000234832A363E36323646364137055
:104F8000537063729D4205D12721084B084A094896
:104F900005F0F8F82000019B25606371029B2771E2
:104FA000E371039BA671237205B0F0BD4CC70000EE
:104FB0005DC70000B1C7000030B5040085B002AD88
:104FC00000680291039201F036FB6B79227AE17955
:104FD00020680093002301F0F7FC2979029A2068E9
:104FE00001F04EFB206801F01CFB05B030BD000055
:104FF00007B5837A00910192002B07D09A070AD552
:10500000EFF310835A425341C37272B60099019A6A
:10501000FFF7D2FF07BDDB07F8D5C368014A9BB293
:105020009360F3E70018004010B5006801F00CFB36
:1050300010BD000010B5006801F01AFC030000204C
:10504000834203DB0C304343014A985810BDC046ED
:1050500018C8000010B5006801F00AFC002805DB44
:105060000C2343430348C018406810BD0120404250
:10507000FBE7C04618C8000010B5006801F0F8FB57
:10508000002805DB0C2343430348C018806810BD8B
:1050900001204042FBE7C04618C80000F0B50600FA
:1050A0001036050089B0300000F048F900286CD1B6
:1050B0002F002437380000F041F9041E62D1280087
:1050C000FFF7DAFFC1B2300000F018FA0221300019
:1050D00000F038FA01222E49300000F00BFA3000BF
:1050E00000F054FA2B4B8000C5502800FFF7B2FFA8
:1050F000C1B2380000F002FA0221380000F022FAB2
:10510000380000F043FA234B8000C5502800FFF719
:1051100091FF012301002200029330002300049438
:1051200003940194009400F033FAA8632800FFF779
:1051300081FF012302002100019338002300049421
:1051400003940294009400F023FAE863402005F0F1
:1051500075F82A0048322864079200280BD00123F2
:10516000137068646B6C10221819E96B103405F029
:1051700079F8402CF6D1079B1B78002B05D138001D
:1051800000F076F9300000F073F909B0F0BDC046C8
:105190002D4F00008416002070B5437A0400002BC8
:1051A00003D1012243814272C360230048331B783C
:1051B000002B02D12000FFF771FF182633000821D1
:1051C00020790D4D4343EB18595603F075FD33001C
:1051D0000821A0794343EB18595603F06DFD0821CF
:1051E00060794643AD19695603F066FD034B200014
:1051F00006CBFFF7E1FE70BD20CE00007C1600203C
:105200001FB5094A094B0A49136000239380029392
:105210000133019316330093162201330548FFF73B
:1052200091FE05B000BDC0467C16002000093D007F
:10523000AC22002030160020084B1968002909D143
:10524000EFF31080064A002803D172B6BFF35F8FD8
:10525000013111701A6801321A6070474818002035
:1052600044180020084B1A68002A0CD01A68013A2A
:105270001A601B68002B06D1044B1B78002B02D050
:10528000BFF35F8F62B670474818002044180020B3
:10529000FF2310B50370C023002104009B00417060
:1052A000418083800C22083004F0E5FF200010BD0F
:1052B00001230A0010B51A40194208D00C4A137095
:1052C000033343708368002B00D0984710BD02233E
:1052D000194204D006490B70C3684270F3E70423F7
:1052E0001942F3D0024A1370033343700369EAE7AB
:1052F0004E48004110B5FFF79FFF0C4B1B8C1B075E
:105300001B0F0B2B0FD80A4A9900885800280AD087
:105310000F2408490A78A24313430B70064B1978EF
:10532000C9B2FFF7C5FFFFF79DFF10BD0048004160
:105330004C1800203F4800414E480041F8B500237A
:105340000278050018000B2A77D93C4E2B702B7879
:105350000B2B07D801229A403168114204D0013347
:105360002B70F4E7012068E0FFF766FF3768344CE4
:10537000002F2BD12022334B334859690A435A61FD
:105380001022D9690A43DA61022223883900934343
:1053900023802388013A134323802C4B6063BF3260
:1053A000A36304F068FFC0223900284804F063FFBB
:1053B0004022C120264B80002380264B26491A60BC
:1053C0001A581140C02212040A431A5001231A002D
:1053D000297830688A40024332600F261F4A8800CD
:1053E00085501F4831400278B2430A4302700220C0
:1053F0001C4A117881431170117819431170297872
:1054000022698B409A43226160223F21636C93435F
:1054100063642A79636C0A40134912020B4003212A
:10542000134363646A79636C0A40104992050B4028
:1054300013436364FFF716FF0020F8BD40180020F7
:10544000004800410004004080170020C0160020E2
:10545000020F000000E100E0FFFF00FF4C180020F9
:105460003F48004140480041FFC0FFFFFFFF3FFFB2
:1054700070B50500FFF7E0FE6B785CB2062B2BD011
:105480002B7802240B2B27D801229A40144B196841
:10549000114221D01968914319601B68002B14D167
:1054A0004022104BDA67BFF34F8FBFF36F8F21009D
:1054B0000D4A0E311388A34313800C4BDA698A43DB
:1054C000DA615A6910318A435A6100242B78084AFC
:1054D0009B009C50FF232B70FFF7C4FE200070BD83
:1054E0004018002004E100E00048004100040040B2
:1054F0004C1800200232920011507047037870B5AA
:1055000005000C0001710B2B14D8FFF795FE2978CC
:105510000F25094829400378084AAB430B43037021
:105520003F23516C1C40064B240219400C43546429
:10553000FFF798FE70BDC0463F480041004800415B
:10554000FFC0FFFF037870B505000C0041710B2B05
:1055500014D8FFF771FE29780F25094829400378F0
:10556000084AAB430B4303700323516C1C40064BAA
:10557000A40519400C435464FFF774FE70BDC04687
:105580003F48004100480041FFFF3FFF007870475F
:10559000F0B587B001930CAB1E780DAB1B780500FE
:1055A00002930EAB1B780078039310AB1F78049125
:1055B00005920B2802D9002007B0F0BD6B78062BAE
:1055C000F9D0AB78002B00D179E01021080004F06D
:1055D0002BFE0028EFD02B783B4A1B019B181A00AA
:1055E000D168002904D0D1688B4201D0D268F7E796
:1055F000D06001220223AA70964203D0DB18022E4B
:1056000000D0130006240188114301800188A143C2
:10561000018001881234A1430180153C0188264095
:105620002A4C360221400E430680029E0188284CF7
:1056300016402140B6020E430680039E0188254C89
:1056400016402140F6020E4306800188224E3A4061
:10565000314012030A43072102800F9A1140028849
:105660004903D204D20C0A4302806A4692884280DF
:10567000049A4260029A002A08D0019A41685A436B
:10568000002F01D00F9CA2408A184260059A8260C8
:10569000039A002A09D0019A84685A431300002F04
:1056A00001D10F9A9340E31883600023EA789A426D
:1056B00003D02B78044A1B019B18C3607CE7024B84
:1056C0000001C01895E7C04680170020FFFCFFFFCF
:1056D000FFFBFFFFFFF7FFFFFFEFFFFFF0B5150038
:1056E00005AA1488827E022A00D16BE0032A00D129
:1056F0009FE0012A00D06DE0EA430589AD182DB284
:10570000002D5EDB0826825FAA425ADD002902DAFC
:105710005B1800211BB20A22825EC818904201DD8C
:10572000531A1BB2002B4CDDC8B2C2085E4992016D
:105730005219521807250100DBB2294028421CD01B
:1057400008205A4D401AC0B22D5C834200D3A3E01A
:10575000FF26C71A3E413540012C00D16EE0022CD5
:1057600000D16FE0002C2CD11678AE431670834226
:1057700027D308395B18DBB24032072B14D9022C2F
:1057800063D11000190005780839ED43C9B20570DE
:1057900040300729F7D819000839C9B2C9080131C2
:1057A0008901521807210B40002B0AD04049CB5CDD
:1057B000012C58D0022C5AD0002C02D111789943D8
:1057C0001170F0BDEA434589C918AD1802892DB2A0
:1057D000511A09B2002DF4DB0A26825FAA42F0DDDD
:1057E000002902DA5B1800211BB20822825EC81869
:1057F000904201DD531A1BB2002BE2DDEA10920148
:105800005118294A01208A1807210D40A840C0B22A
:10581000012C2FD0022C36D0002CD2D1C043C0B2E4
:10582000013B1BB2591CCCD01178014011700132E0
:10583000F6E74289C918511A09B261E7167835436B
:10584000157094E716787540FAE7611E48424141A9
:10585000150018004942C9B20838C0B22970403555
:105860000728F9D897E711780B431370A9E7117847
:105870004B40FAE7013B1BB2591CA2D011780143FF
:1058800011700132F6E7013B1BB2591C99D0117817
:10589000414011700132F6E7012CCFD0022CD1D05B
:1058A000002C00D065E75FE7F8010020F001002040
:1058B000E8010020F0B50C0005A90D88817E0229C1
:1058C0003CD0032900D1A1E001293FD10189D218A0
:1058D0008A1A12B2002C00DA97E00A26815FA142F0
:1058E00000DC92E0002A02DA9B1800221BB2082199
:1058F000415ED018884201DD8B1A1BB2002B00DC00
:1059000083E0E11089018A185D49012051180722BE
:105910001440A040C0B2012D00D17CE0022D00D186
:1059200082E0002D71D1C043C0B2013B1BB25A1CB2
:105930006BD00A7802400A700131F6E7E14304892E
:10594000D2186418418924B28A1A12B2002C5CDB86
:105950000826815FA14258DD002A02DA9B18002246
:105960001BB20A21415ED018884201DD8B1A1BB29E
:10597000002B4ADDD2B2D108414889010919091822
:1059800014000720DBB2044002421AD001303D4A25
:10599000001BC0B2125C834200D36AE0FF26C71A24
:1059A0003E413240012D48D0022D4AD0002D2CD14D
:1059B0000E7896430E70834227D3083C1B19DBB246
:1059C0004031072B14D9022D3ED108001A0004786B
:1059D000083AE443D2B204704030072AF7D81A00DC
:1059E000083AD2B2D2080132920189180722134034
:1059F000002B0AD0244AD35C012D33D0022D35D0A0
:105A0000002D02D10A789A430A70F0BDE14344891F
:105A1000641824B25EE7013B1BB25A1CF5D00A7829
:105A200002430A700131F6E7013B1BB25A1CECD06D
:105A30000A7842400A700131F6E70E7832430A7064
:105A4000B9E70E787240FAE76A1E504242410C00F4
:105A500018005242D2B20838C0B22270403407282F
:105A6000F9D8BCE70A7813430B70CEE70A785340A5
:105A7000FAE7012DE1D0022DE3D0002D9DD197E76B
:105A8000F8010020F0010020E801002030B50029D5
:105A900047DB0C25445F8C4243DD002A41DB0E25A9
:105AA000445F94423DDD847E022C1ED0032C25D021
:105AB000012C04D1D243008980180A0001B2012BC5
:105AC00022D0022B2ED0002B2BD10720D31703403E
:105AD0009B18DB109B0159180123024093401A00C8
