:100000000080002081880000498800006B88000083
:1000100000000000000000000000000000000000E0
:100020000000000000000000000000006B880000DD
:1000300000000000000000006B880000D588000070
:100040006B8800006B880000194100004D650000BE
:100050000D8800006B880000D95600006D880000F4
:100060006B880000DD6600006B8800006B88000074
:10007000B54400006B880000ED6600006B8800004E
:100080006B8800006B8800006B8800006B880000A4
:10009000697000006B8800006B8800001965000023
:1000A0006B8800006B8800006B8800006B88000084
:1000B0000000000010B5064C2378002B07D1054B3B
:1000C000002B02D0044800E000BF0123237010BDC4
:1000D000400400200000000080F70000044B10B531
:1000E000002B03D00349044800E000BF10BDC04608
:1000F000000000004404002080F700000122014BB2
:100100001A707047DD0E002070B506000C2008F054
:1001100093FD08250024300008F0F8FD013D041986
:1001200024B2002DF7D10723E01718400019C010A2
:1001300080B270BD70B505000C00272917DD002ABC
:1001400000D00334782C00DD78242000FE245021D8
:100150002838FF344942604309F072F98B239B0031
:10016000C11889B20E20698008F048FE70BDEE21EA
:10017000FF3141800E2008F041FE283C054B640011
:10018000E35E0A220D215A43AB80034804F00AFAC9
:10019000ECE7C04660DB00005401002010B5438846
:1001A00004888B4215D20179104B5B1AA34200DD03
:1001B00023005B1803800188C2880023914205D385
:1001C0004379994200D31300038001230372007A1C
:1001D00010BD42791300A24206D80179034B5B1A85
:1001E000A34200DD23009BB29B1AE3E7FFFF000060
:1001F00010B5084C01233C220221200005F024FF09
:10020000200005F0ADFE200006F00AF8024B636105
:1002100010BDC046AC04002001000100F0B5324D15
:1002200085B02800002405F09BFE20270826012326
:10023000220021002800029303942C4B0197009682
:1002400004F054FE0123220031002800029303949D
:10025000274B0197009604F049FE01232200280055
:1002600002931021234B03940197009604F03EFE65
:10027000012322002800029318211F4B03940197A9
:10028000009604F033FE0123220039002800029377
:1002900003941A4B0197009604F028FE01232200D4
:1002A000280002932821164B03940197009604F02E
:1002B0001DFE01232200280002933021114B0394DC
:1002C0000197009604F012FE012322003821280035
:1002D000029303940C4B0197009604F007FE28004C
:1002E00005F09EFF05B0F0BDAC04002062040020C4
:1002F00042000020660000208A000020AE0000209E
:10030000D2000020F60000208604002010B5044C26
:10031000200005F025FE200005F082FF10BDC0463C
:10032000AC04002010B50C4C200005F019FE200094
:10033000022104F0E6FF002320002361074906F0B4
:1003400047FA80235B0306492361200006F040FA48
:10035000200005F065FF10BDAC04002094D800001B
:1003600099D8000010B50C4C200005F0F9FD2000D4
:10037000022104F0C6FF002320002361074906F094
:1003800027FA80235B0306492361200006F020FA48
:10039000200005F045FF10BDAC0400209DD80000F2
:1003A000A1D80000F0B58027032685B07F031E4C3E
:1003B0004B25200005F0D4FD0221200004F0A1FF10
:1003C00000231A492361200006F002FA1849200090
:1003D000276106F0FDF9200005F022FF0A20013D0B
:1003E00008F0BCFA002DF9D1200005F0B9FD012379
:1003F00003931F330193203320002A002900009328
:1004000002950C4B04F017FD200005F009FF4B246A
:100410000A20013C08F0A2FA002CF9D1013EB6B244
:10042000002EC4D105B0F0BDAC040020A6D8000059
:10043000A1D8000060DA0000F0B50025092791B0CE
:1004400000900191019BAB422BDD174C200005F081
:1004500087FD2000022104F054FF144E2A003100D1
:10046000276103A80CF078FB200003A906F0B0F97F
:100470000F4B009A23616B00D25A310003A80CF095
:100480006BFB200003A906F0A3F9200005F0C8FECD
:1004900021240A20013C08F061FA002CF9D1013531
:1004A000D0E711B0F0BDC046AC040020ACD80000CD
:1004B00009001000F8B50600264C0D00200005F0DC
:1004C0004FFD0321200004F01CFF300009F0BEFFA7
:1004D000214909F0ADFB0BF0DFFD060028000F00FD
:1004E00009F0B4FF0BF0D8FD1C4A1D4B0AF0A0FF29
:1004F00000221C4B0AF096FB02000B003000390072
:100500000BF002FA0BF010FE0BF0C6FD0022164BAA
:100510000AF08EFF0022154B0AF01AF809F002F9D2
:100520000100632813D8124B0A222361200006F031
:10053000D4F9104B20002361012104F0E2FE0E49A2
:10054000200006F045F9200005F06AFEF8BD802382
:10055000DB02E9E7AC040020000020416666666625
:100560006666204000408F400080324000003440EA
:100570000D00040032001000B1D80000AA4AF8B5FE
:1005800011680500012308001840194202D1A7494B
:1005900013608870A64A01231168080018401942A8
:1005A00002D1A44913608870A34A0123116808008E
:1005B0001840194202D1A14913608870A04A012352
:1005C000116808001840194202D19E4913608870D2
:1005D0009D4A0123116808001840194202D19B4925
:1005E000136088709A4A0123116808001840194264
:1005F00002D1984913608870974F984E002D20D0F3
:100600000123974A0B241370964A1370964A13706D
:10061000964A1370964A1370964A13700023964AAE
:100620003B701370954A33701370954A1370954A56
:100630001370954A1370954A1370954A13702000F1
:10064000F8BD3B78002B21D02900784803F082FDCB
:100650000B24002800D03D703778002F5CD000219B
:10066000744803F077FD002801D000233370884BD5
:100670001D78002D00D194E00021704803F06AFD40
:100680000028DCD00023824A1370D8E7032008F04A
:10069000F7FC03005A1E9341744A1370704B1B7889
:1006A000002822D1674C002B0BD032215F4803F089
:1006B00043FD0123200077493B7003F03DFD0B24EF
:1006C0000EE02900200003F045FD0028F7D0FA21B4
:1006D0000122694B200049001A70042403F02CFD0C
:1006E000624B5F4A1B781370B6E7664C002B07D14C
:1006F00032214E4803F020FD01233B702370DEE7DA
:100700002378002BDBD05C4B25701A780924002A53
:10071000E6D01D700234E3E7042008F0B1FC0300CA
:100720005A1E9341524A13704E4B002821D119781A
:10073000464D00290ED032213E4803F0FDFC012336
:1007400028005449337003F0F7FC494B454A1B78A5
:1007500013708CE7280003F0FDFC0028F5D0FA2187
:100760000122464B280049001A70052403F0E4FCDE
:10077000EBE71B78444D002B07D132212D4803F0C5
:10078000DBFC012333702B70DFE72B78002BDCD0F0
:100790003A4B2F701A78002A01D01F70D5E70A242F
:1007A000D3E7072008F06CFC03005A1E9341314A3E
:1007B0002D4F137000281DD13978264D00290ED0F9
:1007C00032211E4803F0B8FC0123314A314913702D
:1007D000280003F0B1FC274B1B783B702FE7280063
:1007E00003F0B8FC0028F6D00124FA21244B49007C
:1007F0001C70EDE73B78254E002B08D132210F48C5
:1008000003F09AFC0123224A33701370E3E7337834
:10081000002BE0D01A4B35701A78002A01D01D70D9
:10082000D9E70624D7E7C046400E00205E0E002020
:10083000480E0020680E0020500E0020720E00208E
:10084000440E0020620E00204C0E00206E0E002090
:10085000540E0020780E00205A0E00205C0E00205E
:100860001D0100201E0100201F0100201A01002090
:100870001B0100201C010020660E00206C0E0020D1
:10088000760E0020580E0020590E00205B0E00202E
:100890005D0E00201A040000F8B5242706260C255A
:1008A00002242F4B08001980012108F08DFB3A002B
:1008B0002C492D480BF05AFD2C4B3A002C492D4861
:1008C0001E800BF053FD2C4B2A002C492C481E8017
:1008D0000BF04CFD2B4B2A002B492C481C800BF0B5
:1008E00045FD2B4B2A002B492B481C800BF03EFD6D
:1008F0002A4B2A002A492B48AD191C800BF036FDE3
:10090000294B2A0029492A481C800BF02FFD294B2E
:100910002A000134284929481C800BF027FD284B68
:100920002A00284928481C800BF020FD274B36223E
:10093000274928481C800BF019FD0922264B27491E
:100940001A8027483A000BF011FD264B1822264941
:1009500026481E800BF00AFD0422254B1A80F8BDA4
:1009600040000020EEDC0000A80C002062130020F4
:100970009ADC0000F8070020561300209EDB0000E0
:10098000700D002064130020E2DC0000300700201E
:100990005413002092DB0000E00B002060130020C5
:1009A000D6DC0000180B00205E13002012DD0000D2
:1009B000D80400204E13002000E20000A005002013
:1009C000501300206CE20000680600205213002043
:1009D00012E20000880900205A13002048E20000BB
:1009E000500A00205C130020BEDC0000C00800207C
:1009F0005813002010B5012907D1C8222F490BF048
:100A0000B5FC2F4B1B88180010BD022905D1C82248
:100A10002C490BF0ABFC2C4BF4E7032905D1C82281
:100A20002A490BF0A3FC2A4BECE7042905D1C82284
:100A300028490BF09BFC284BE4E7052905D1C82287
:100A400026490BF093FC264BDCE7062905D1C8228A
:100A500024490BF08BFC244BD4E7072905D1C8228D
:100A600022490BF083FC224BCCE7082905D1C82290
:100A700020490BF07BFC204BC4E7092905D1C82293
:100A80001E490BF073FC1E4BBCE70A2905D1C82296
:100A90001C490BF06BFC1C4BB4E70B2905D1C82299
:100AA0001A490BF063FC1A4BACE700230C29AAD1BE
:100AB000C82218490BF05AFC174BA3E7A80C0020DA
:100AC00062130020F807002056130020700D00204C
:100AD000641300203007002054130020E00B002096
:100AE00060130020180B00205E130020D8040020A3
:100AF0004E130020A005002050130020680600209F
:100B000052130020880900205A130020500A0020A8
:100B10005C130020C008002058130020F0B5B3B0CB
:100B200081B26846FFF766FF0A210500154803F009
:100B300003FB00240321200008F0F8FB80B2A84248
:100B40001ED2104E0021300003F004FB0028F8D024
:100B50006B466946671C7F00DA5B6300C95A0A4B23
:100B6000188806F0ABF96A46A31C5B00D15AD35B28
:100B70003000C91889B2033403F0DEFAA4B2D9E711
:100B800033B0F0BD8813002040000020F0B59D4C2C
:100B90009D4DA5446B696A4606000F00280029692F
:100BA00005F030FCE022994C6946200092000BF0E1
:100BB000DDFB607CA37C00285FD1002B59D1C822CB
:100BC0005200628002221900FF326360A360E3607A
:100BD000226126756775E38223838D4AD1520233E1
:100BE000642BFAD1002318008A4FD91902330880E8
:100BF000522BFAD100239C4687496246581802338B
:100C000002802A2BF9D12088DF239330FF30861908
:100C100000209B00E6507E4A125A023094466644F9
:100C20006428F8D1E6500023FA5A0233B618522B42
:100C3000FAD1DF2300229B00E650885A0232361890
:100C40002A2AFAD1E022210092006846E6500BF0F1
:100C50008DFB28006A69296905F0C2FB6A462800F5
:100C60006B69296905F070FB6C496D4805F0C2FDA0
:100C70000120E1239B009D44F0BD00208342F8D178
:100C8000674D6849280005F0B5FD6749280005F063
:100C9000B1FD0A222188280005F015FE0A2261888C
:100CA000280005F010FE0A22A188280005F00BFE9E
:100CB0000A22E188280005F006FE0A222189280080
:100CC00005F001FE0A226189280005F0FCFD0A22D8
:100CD000A189280005F0F7FD0A22E189280005F026
:100CE000F2FD0A22217C280005F0EDFD0A22617C3C
:100CF000280005F0E8FD0A22A17C280005F0E3FDAC
:100D00000A22E17C280005F0DEFD0A22217D280070
:100D100005F0D9FD0A22E18A280005F0D4FD0A2257
:100D20002800218B05F0CFFD2600718B0A222800B8
:100D300005F0C5FD3D4F2800390005F049FD3C4B4D
:100D400002369E42F1D1280005F04CFD0026314BC1
:100D50000A22995B280005F0B2FD0236390028000E
:100D600005F036FD522EF2D1280005F03BFD00269D
:100D7000294B0A22995B280005F0A1FD02363900B3
:100D8000280005F025FD2A2EF2D1280005F02AFDC5
:100D9000002263882088C018A3881B18E088C01828
:100DA00023891B186089C018A3891B18E089C01803
:100DB000237C1B18607CC018A37C1B18E07CC01827
:100DC000237D1B18E08AC018238B1B181048815AFA
:100DD00002325B18642AFAD100220E49895A023283
:100DE0005B18522AF9D100220B49895A02325B184A
:100DF0002A2AF9D1DF229200A058C01A4342584152
:100E0000C0B236E77CFCFFFFEC0E00200C0F002088
:100E1000260F00208A0F0020DC0F0020B4D800002D
:100E2000A01F0020C1D80000D6D80000E7D80000DD
:100E3000700F00200839030010B50800092908D8F0
:100E400008F06AFA353A3F07070707081E051F4AE8
:100E5000D38110BDFA22181CD200934200DD101C71
:100E6000030400D50020322100B208F0E9FA00B2F4
:100E7000164B3C3040001818C3880133C380E8E7A4
:100E8000134A181C934200DD101C124B02B29A4206
:100E900000DA181C104B00B2C018142108F0D0FA68
:100EA0000A4A68304000835A01338352D1E719005F
:100EB0004A1E9141054AD17419004A1E9141034AC4
:100EC0001175581E8341014A5375C2E70C0F00206B
:100ED00004100000E40C00001CF3FFFF00B5042820
:100EE00009DC002809DB0138114B032806D808F07B
:100EF00013FA090D1115162814D000BDDA88013235
:100F0000DA80FAE71A8901321A81F6E75A89013242
:100F10005A81F2E79A8901329A81EEE79A88013282
:100F20009A80EAE7024A138B01331383E5E7C04650
:100F30000C0F002030B52A4900204A880B88294C24
:100F40009B188A88284D9B18CA88A5449B180A8933
:100F50009B184A899B188A899B18CA899B180A7C06
:100F60009B184A7C9B188A7C9B18CA7C9B180A7D1C
:100F70009B184A7D9B18CA8A9B180A8B9B18DF22F4
:100F800092008B502C5A02301B196428FAD18B50D6
:100F90000022164CA05A02321B18522AFAD1DF2224
:100FA00000209200124D8B502C5A02301B192A2817
:100FB000FAD18B50E022684692000BF0D7F90D4C25
:100FC00020006269216905F00BFA6A462000636916
:100FD000216905F0B9F9E1239B009D4430BDC0466D
:100FE0000C0F00207CFCFFFF260F00208A0F002042
:100FF000DC0F0020EC0E0020F7B5A025A126009202
:1010000000220193124B6D007600A224A4465F8853
:101010009C4464461F801F002488A0373C80F12434
:101020009F5B64005F531F5B0132023C1F5302331E
:101030004F2AEAD1074B4A32FF329852A0329952D6
:101040000099A03299520199A0329952F7BDC04639
:10105000061000200C0F002010B5354C3548A54473
:10106000436901696A4605F0CDF9E022324C9200ED
:10107000694620000BF07AF96A4623682F480093EE
:1010800063680193A3680293E3680393237C13824C
:10109000637C5382A37C9382E37CD382237D13837E
:1010A000637D5383E38A9383238BD38300231A00C6
:1010B000C15A6A4402331184642BF8D100232048BA
:1010C00021AAC15AD1520233A02BFAD100231D48C4
:1010D00049AAC15AD1520233A02BFAD100231A488F
:1010E00071AAC15AD1520233A02BFAD1002317485A
:1010F00099AAC15AD1520233A02BFAD10023144825
:10110000C1AAC15AD1520233522BFAD10023114A3B
:1011100011486A44C15AD15202332A2BFAD1E02134
:1011200068464900FFF788F9E0239B009D4410BD05
:1011300080FCFFFFEC0E00200C0F0020260F00208B
:1011400006100020A610002046110020E611002005
:101150008A0F002056030000DC0F0020074B70B5FB
:1011600004001A003234057801305D830233A04256
:10117000F9D1D182FFF7DEFE70BDC0460C0F002012
:10118000064B01001A0010B532315C8B023304703B
:1011900001308842F9D1D08A10BDC0460C0F002022
:1011A000F0B595B007AF3800FFF7EAFF00243A4DDD
:1011B0000590280004F0D4FE0221280004F0A1F8D4
:1011C000280036492C6105F003FB0C23059A032601
:1011D0005343334A403B1BB21380A34233DA314BB3
:1011E0001C80059BA34212DD2E4E3B5D0022B15EAA
:1011F00002220292002201920132009228000F3254
:1012000003F0F6FF338801340C333380E9E728001C
:1012100005F006F815B0F0BD1F4805F001F80A20EA
:1012200007F09CFB0A2007F099FB0A2007F096FBC9
:101230000A2007F093FB0A2007F090FB013403E03B
:10124000013E002EE6D000240321154B00229A5EB9
:10125000D3170B409B189B100133A342F0DB0423F0
:1012600000255B4263430F4A1380059BAB42D3DDED
:101270000C4F07AB0022B95E0222EB5C0292002207
:1012800001920132009204480F3203F0B1FF3B8813
:1012900001350C333B80E8E7AC040020E9D80000BE
:1012A000DE120020C80E0020F0B585B0002903D062
:1012B0004D4B1A684D4B1A6009F0C8F8051C0AF02E
:1012C000EBFE4B4C02000B0020004A4905F09CFA53
:1012D000464E4949306808F0ABFC8321071CC9051C
:1012E000281C08F0B1FD454908F0A2FC011C381C7F
:1012F00008F0C4FE051C0AF0CFFE02000B0020001F
:101300003F4905F081FA3F4F38680AF0C5FE0200F8
:101310000B0020003C4905F077FA3868291C08F0DA
:10132000ADFE051C0AF0B8FE02000B002000374994
:1013300005F06AFAFF21281C890508F085FD019057
:101340000AF0AAFE02000B002000314905F05CFA09
:10135000304F281C396808F0CFFA2F49386008F060
:1013600073FD02900AF098FE02000B0020002B494A
:1013700005F04AFA2A4F386809F068F8011C281C61
:1013800008F07CFE274908F05FFD03900AF084FE18
:1013900002000B002000244905F036FA3068164997
:1013A00008F046FC019908F0A7FA029908F0A4FA9F
:1013B000039908F0A1FA30600AF06EFE02000B00FB
:1013C00020001A4905F020FA0B49306808F03CFD6E
:1013D000041C3060281C09F019F83860201C09F042
:1013E00015F805B0F0BDC046380E0020E01300200F
:1013F000D4220020EDD800000000204100007A44F3
:10140000FDD800003C0E002008D9000014D90000CF
:1014100023D90000080F00208FC2F53C2ED9000010
:10142000181300200AD7A33C39D9000044D9000082
:1014300070B50E1C0A49041C08F0FAFB8321051C38
:10144000C905301C08F000FD064908F0F1FB011C3D
:10145000281C08F013FE044B1860044B1C6070BD80
:101460000000204100007A443C0E0020380E00208D
:1014700010B50449044805F0C7F9FA20800007F0C8
:101480006DFA10BD4ED90000A01F0020F7B5050071
:101490000C200E000192082707F0CEFB0024280044
:1014A00007F034FC013F041924B2002FF7D10723C1
:1014B000E017184004192248E4104443E0170005DF
:1014C000000D0019FA2400136043962107F0B8FFBD
:1014D00064251C4BC4186C431B4B9C4215DB1B4BF7
:1014E0009C4228DC20001A4907F0AAFF194B05B2DC
:1014F0009C420CDC0123019A092013703370FFF722
:101500000DFBFEF74FFF2800FEBD3D00F2E7124B3A
:101510009C4210DC019B19241F7001233370FEF7DD
:1015200021FF0B20FFF7FAFA0A20013C07F016FA18
:10153000002CF9D1E7E70023019A33701370E2E73A
:10154000B80B00001CF3FFFF13FDFFFFE5270100B0
:10155000EE02000093110000DF2E000030B50021E4
:1015600085B04848002404F0DFFCE022464B4749A0
:101570009C709200464804F0CFFE6421454B142233
:101580009C70454B96209C70444B8000D980FA217A
:101590005A80F6321C809A80414B89001C80598009
:1015A0009A80D8803F4B40481C805880C8208000DB
:1015B0009A80D8803D4B0B2059803D491C809980F2
:1015C000C8214900D9803B4B3B499A80423ADA8096
:1015D000C8221C805980394B12015A800222FF32E6
:1015E0001C809A809622364D1201DA8028800121D3
:1015F00007F0EAFC0023E85E210007F015FD314DFD
:1016000022002800302102F069FF0023322202214B
:101610000092019328000294313A03F02FF82A4BEC
:101620009C702A4B9C702A4B9C702A4B9C702A4BB6
:101630009C702A4B9C702A4B9C702A4B9C702A4BA6
:101640009C702A4B9C702A4B9C702A4B9C702A4B96
:101650009C702A4B9C702A4B9C702A4B9C702A4B86
:101660009C702A4B9C702A4B9C702A4B9C702A4B76
:101670009C702A4B9C702A4B9C702A4B9C7005B026
:1016800030BDC046AC0400208813002000DE0000FE
:10169000EC0E002020130020820E0020860E002079
:1016A000E2120020FC12002088130000E413002046
:1016B000010A0000341300206C0700008E12002085
:1016C0005C040020540100201C130020C4130020DF
:1016D00090130020BC130020D8130020AC1300206E
:1016E000A413002094130020A813002098130020B6
:1016F000C0130020B4130020B01300208C1300206E
:10170000DC1300208013002084130020D01300205D
:10171000CC130020C8130020D41300209C130020F9
:10172000B8130020A013002073B51B4C0600042141
:10173000200003F0E6FD194B002163611E230A001F
:10174000200001910093223303F0CEF80A213000EB
:1017500007F076FE0A2501B26D424D430F23AD1905
:10176000632E00DD0E4B23610A22200005F0A7F84E
:10177000012301930233200000931922262103F054
:10178000B3F82C2329000A222361200005F097F8E2
:10179000200004F045FD73BDAC04002001000100F1
:1017A000FCFF0000F0B5334C060085B0200004F0CB
:1017B000D7FB6425642E02DCF543ED173540032189
:1017C000200003F09EFD2C4B002163611C230A00C6
:1017D000009320000191243303F086F8092E3EDCAB
:1017E000264B290023610A22200005F068F8002614
:1017F0000127202308222000019300923221320089
:101800001F4B0396029703F071FB20230822200050
:10181000019300923A2132001A4B0396029703F08B
:1018200065FB122300930C3B1A0020003621019720
:1018300003F05AF80A20372168434942019607F01D
:10184000FFFD0623123000B21A003621009020005E
:1018500003F04AF8200004F0E3FC05B0F0BD132EBD
:1018600001DC094BBDE7632E01DC084BB9E780239F
:10187000DB02B6E7AC040020010001001F000400F9
:101880000000002020000020120004000D000400D1
:10189000F0B5012305002A4C2A4E85B0002923D03B
:1018A0002360002333602368274F9BB201932023DA
:1018B0001E22009302213800DB1803F015F8002DDA
:1018C00014DC236838009BB2019320231E2200936E
:1018D0000221DB1803F008F8380004F0A1FC1A48D4
:1018E00004F09EFC05B0F0BD2160DBE7291C0F2D44
:1018F00000DD0F2100250BB203933368124F9BB21A
:1019000001930723ADB2A90000931E22053B3800C6
:1019100009B202F0E9FF0135039B2DB2AB42ECDACC
:101920001900236801319BB20193122389000093AF
:101930001E22380009B22E3302F0D6FFCFE7C04690
:10194000A80E002040010020AC04002070B50A4C15
:101950000D000022A35E834200DA20800023E05EB7
:10196000A621533007F06CFD290000B2FFF790FF6D
:101970000023238070BDC0467C0E002013B5134B9E
:101980000124134A002914D000211C601160114C5D
:10199000002811D0136800219BB2019307231E2257
:1019A0000093053B200002F09FFF200004F038FC6C
:1019B00013BD19601460EAE71B681E229BB20193F5
:1019C000072301000093053BECE7C046A80E00206A
:1019D00040010020AC040020F0B5002502240126BF
:1019E00089B0FEF705FCCC4F380004F0B9FA0221AB
:1019F000380003F086FCC94B3D617B612A001B2344
:101A00002900380002940195009603F0F1FB412370
:101A10002A001C21380002940195009603F0E8FB8F
:101A20001A232A003421380002940195009603F00D
:101A3000DFFB380004F0F4FB1022B94B1D80B94BDA
:101A40001A80B64B0793B84B1B78002B00D006E2E8
:101A5000B64D2B880B2B2DD10020FEF78FFDFA21E0
:101A600028804900B24802F075FB0028F0D0B14B45
:101A7000B14D0021595EAB4B00229A5E2B78002BB2
:101A80000FD00023012601930096163338000294EC
:101A900003F0AEFB2B785E402E70380004F0C0FBE4
:101AA000D6E701202870009002943800019303F0DB
:101AB0009FFBF2E7092B01D0042B32D19F4AA04EA5
:101AC00012883378013A0021934201D00133D9B210
:101AD000317000250E232A000093102116333800A0
:101AE000019502F001FF3378964AD35C112B12D195
:101AF000102395493B61380004F06AFE934B1B7834
:101B0000002B35D1380004F08BFB0020FEF736FDAA
:101B1000864B188097E7FA2B13D110238C493B6131
:101B2000E9E70A2B01D0052B15D1854E3278531EDB
:101B3000DBB2002A03D1814B1B88013BDBB233703F
:101B4000C7E701221C21009238002A000294019567
:101B500003F04EFBD2E7062B01D0012BCED1784B00
:101B6000784A1B78D25CFA2A45D1784BF93A1A7038
:101B700000260125380004F0F3F959233200310022
:101B8000380002940196009503F032FB4E23320098
:101B90003421380002940196009503F029FB059644
:101BA00006956A4E3378002BACD00020FEF7E6FC99
:101BB0005E4B80B21880092802D0042800D081E052
:101BC0000025069B102229003800009302942B0068
:101BD000019503F00DFB069B10220093342118237E
:101BE00038000294019503F003FB012305933800AC
:101BF00004F016FBD5E7574B1B88112A3BD1002B6D
:101C000011D00021544AD218013A1170013B1A1C1C
:101C10009BB20F2B00D90F224E4B91B21A804F4826
:101C20000A2204F050FE10220025402329000092D1
:101C30003800019502F058FE464B394A19880429AC
:101C40001DD81580364E0023F15E424B1B88AB42F7
:101C500033DD344A404B0020125E0020EB5C0190E3
:101C6000013000900294380003F0C2FA3388013545
:101C70000C333380E6E73849CA540133C7E70C23F5
:101C80005B424B4334331380254E0023F15E314BCE
:101C90001B88AB4211DD234A2F4B0020125E00202F
:101CA000EB5C0190013000900294380003F0A0FA40
:101CB000338801350C333380E6E7194B1A881D4B06
:101CC0001A801BE70A2801D0052816D10025069B9B
:101CD000102229003800009302941823019503F084
:101CE00087FA069B1022009334212B0038000294BF
:101CF000019503F07DFA022378E7062802D0012837
:101D000000D074E7059B022B2AD1074B069A1A7064
:101D1000002333706BE7C046AC04002001000100D3
:101D2000C80E0020CC0E0020CE0E0020A00E0020F9
:101D3000820E0020CA0E00206901002062010020EE
:101D4000A40E00202001002061D900007E0E00209A
:101D500065D90000DC120020A8120020A01F00207E
:101D6000059B0025012B78D13800357004F0F8F878
:101D70002100380003F0C5FA079B3D617B61059B9C
:101D80002A0029003800009302941B23019503F0D8
:101D90002FFA059B2A001C2138000093029441234E
:101DA000019503F025FA059B2A00342138000093A1
:101DB00002941A23019503F01BFA380004F030FA5C
:101DC000102140230A0000913800019502F08CFD9B
:101DD000744B754A1988042919D81580724E00234E
:101DE000F15E704B1B88AB422FDD704A704B0020B8
:101DF000125E0020EB5C019006980294009038007F
:101E000003F0F6F9338801350C333380E6E70C2311
:101E10005B424B4334331380634E0023F15E614BCE
:101E20001B88AB4211DD614A614B0020125E00202D
:101E3000EB5C0190069802940090380003F0D8F90A
:101E4000338801350C333380E6E7574B1A88594BFA
:101E50001A800022584B1A70C9E60595C7E600247F
:101E6000380004F07DF8554938003C6104F0B0FCBE
:101E70004C4B53481A880C2353439BB219004039EA
:101E800009B20180A1422CDA0226474B1C80454B47
:101E90001B88A34214DD444D444A454B0021525E49
:101EA0000020295E0020E35C019001300090029642
:101EB000380003F09DF92B8801340C332B80E6E7C2
:101EC000380004F0ADF9374B39481988FFF746F967
:101ED000C8240A20013C06F041FD002CF9D109B0CC
:101EE000F0BD1400324988180138013C02D306784D
:101EF0004671F9E75700C81949000D00052400266E
:101F0000391A013C06714E550138002CF8D125498B
:101F10000A320A802A4A3833138003340025032109
:101F2000274B00229A5ED3170B409B189B1001335E
:101F3000AB4233DB042300265B426B431A4A138017
:101F4000184B1B88B34215DD174F184A184B002158
:101F5000525E0020395E0220F35C02900020019066
:101F600001300090174803F043F93B8801360C33E9
:101F70003B80E5E7134804F053F90A2006F0EEFC35
:101F80000A2006F0EBFC0A2006F0E8FC0A2006F026
:101F9000E5FC0A2006F0E2FC0135C0E7013C002C1C
:101FA000BCD190E7DC120020C80E0020CC0E00202F
:101FB000A8120020CA0E0020A40E0020E9D80000BC
:101FC000DE120020AC0400200023F0B50124B54F40
:101FD00087B03B70B44D2B88A12B00D1DAE0A22B47
:101FE00000D1F5E0032007F04BF8002800D0FBE01B
:101FF0000A2006F0B3FCF5E73B780493002BE9D008
:102000002B88A12B5ED10025A84C0226200003F0CE
:10201000A7FF0221200003F074F9A54920002561E3
:1020200004F0D6FB1E2320002361A24904F0D0FB5C
:10203000A14B1F780296AF4200D007E101231D009B
:10204000009310223B0008212000019703F0D0F8F4
:102050002B00029601970095173310222C212000A7
:1020600003F0C6F80120FEF789FA01270A2006F0DE
:1020700075FC0020FEF782FA904B80B28B4E1880E0
:10208000092802D0042800D0EFE000250223102206
:1020900008213000029301952B00009703F0A8F867
:1020A0000223102202932A21163330000195009753
:1020B00003F09EF8804B1D70049D7C4804F0B0F83E
:1020C000002DD3D1784B1B88A22B61D10025774CF2
:1020D0000226200003F044FF0221200003F011F942
:1020E00073492000256104F073FB1E232000236147
:1020F000704904F06DFB724B1F780296AF4200D01E
:1021000073E101231D00009310223B0008212000F1
:10211000019703F06DF82B00029601970095173395
:1021200010222C21200003F063F80120FEF726FA8C
:1021300001270A2006F012FC0020FEF71FFA5F4B71
:1021400080B25A4E1880092802D0042800D05BE1E2
:1021500000250223102208213000029301952B0054
:10216000009703F045F80223102202932A21163328
:1021700030000195009703F03BF8514B1D70049D12
:102180004A4804F04DF8002DD3D101224D4B1A706E
:1021900007B0F0BD454E300003F0E2FE21003000F4
:1021A00003F0AFF8484B49493361300004F010FBAD
:1021B000002220231100300000930194DB1802F06C
:1021C000C7FB300004F02CF80720FEF7A7FC09E756
:1021D000364E300003F0C4FE2100300003F091F8C9
:1021E0003B4B3C493361E0E7042006F049FF0028FF
:1021F00000D1FDE632260A20013E06F0AFFB002E9C
:10220000F9D12000FEF7BAF9334E30800022B35ED8
:102210000B2B00D0F0E60A2006F0A0FB0020FEF712
:10222000ADF983B21A00093A3080012A02D9043B81
:10223000012B05D82B88A22BE8D1013B2B80E5E7A9
:10224000062801D00128E1D13C70DFE701231F00FF
:1022500000931022173308212000019502F0C8FFD7
:102260002B00029601950097F7E60A2801D0052871
:1022700034D1002502231022082130000293019559
:102280001633009702F0B4FF0223102202932A2192
:102290002B0030000195009702F0AAFF064B1F703B
:1022A0000AE7C046E40E002050010020AC040020E4
:1022B0007AD900007DD90000DA120020A00E00209B
:1022C000FF1300206801002011000C0069D90000F4
:1022D00003000C006FD900003C010020062803D049
:1022E000049D012800D0E8E60025200003F038FE18
:1022F0003900200003F005F894492000256104F01E
:1023000067FA102310220093290030332000019730
:1023100002F01EFB102305936421280007F090F8BB
:10232000059A03B20021300000920197102202F0BA
:10233000DBFA0A2006F012FB0A2006F00FFB300041
:1023400003F06EFFCA2340355B019D42E4D1322584
:102350000A20013D06F002FB002DF9D17C4E092137
:102360003078FEF767FDFEF7E5FD33782000794E03
:10237000002B1DD003F0F4FD0221200002F0C1FF6C
:1023800031002561200004F023FA80235B037249A9
:102390002361200004F01CFA200003F041FFC8353F
:1023A0000A20013D06F0DAFA002DF9D1002584E675
:1023B00003F0D6FD0221200002F0A3FF31002561C9
:1023C000200004F005FA80235B03644923612000A8
:1023D00004F0FEF9200003F023FFC8250A20013D88
:1023E00006F0BCFA002DF9D1E0E701231F000093AD
:1023F0001022173308212000019502F0F9FE2B006E
:102400000296019500978BE60A2801D0052817D17E
:102410000025022310220821300002930195163373
:10242000009702F0E5FE0223102202932A212B00DE
:1024300030000195009702F0DBFE494B1F709EE6CD
:10244000062803D0049D012800D099E6002520002D
:1024500003F086FD3900200002F053FF3B492000C5
:10246000256104F0B5F910231022009329003033C0
:102470002000019702F06CFA1023059364212800D4
:1024800006F0DEFF059A03B20021300000920197AA
:10249000102202F029FA0A2006F060FA0A2006F05B
:1024A0005DFA300003F0BCFECA2340355B019D425B
:1024B000E4D132250A20013D06F050FA002DF9D171
:1024C000274E284B32785A75FEF734FD33782000BA
:1024D000002B1DD003F044FD0221200002F011FF6B
:1024E00021492561200004F073F980235B031A4918
:1024F0002361200004F06CF9200003F091FEC83540
:102500000A20013D06F02AFA002DF9D1002537E610
:1025100003F026FD0221200002F0F3FE134925619D
:10252000200004F055F980235B030C49236120004F
:1025300004F04EF9200003F073FEC8250A20013D87
:1025400006F00CFA002DF9D1E0E7C04681D9000071
:10255000DA12002069D900007AD900007DD9000084
:10256000FF1300200C0F00208BD9000091D9000030
:10257000E121F0B5BC4D87B02800090205F012FE3C
:10258000BA49280004F036F9B94801F057FEB948B5
:1025900001F0BCFDB84C02002080B849280004F0CE
:1025A00033F92388B64CDA0700D406E12800B54990
:1025B00004F020F9102323800221072006F004FDF7
:1025C0000221032006F000FD0221042006F0FCFC9D
:1025D00001210D2006F0F8FC0121080006F0F4FCB2
:1025E00001210D2006F020FD0121080006F01CFD50
:1025F00023881A00113A012A00D847E3152B00D18D
:10260000B3E2A14B11201988FEF746F9FDF7F0FD62
:1026100000210800FEF7BAFA002802D101229B4BE4
:102620001A709B4B1B7C002B00D105E10122994BBA
:1026300099481A7003F094FCFA219848890001F037
:102640007BFD944B1C78002C00D1E6E00F20FDF7B9
:102650005BFD0A23924C0F2160430013584306F0A0
:10266000EFFE904B18801220FDF74EFDD02327215E
:10267000584306F0E5FE44438B4B24130021874862
:102680001C8001F067FD002848D0884B884F1C68EB
:102690003868210006F04AFE864E21003860306816
:1026A00006F044FE002300227B4C3060019320336F
:1026B000110020000093123302F016F901212000CE
:1026C00002F01FFE002320003A687B49236104F0DA
:1026D0009BF880235B03326878492361200004F073
:1026E00093F8774A3B6877499B1832222261642B22
:1026F00000D97549200004F087F8C821734A33686F
:1027000089009B18724A22618B4200D97EE06D4994
:10271000200004F079F8200003F082FD64216D4868
:1027200001F018FD002817D0614A5E4B11681B8824
:102730000D205B1813605F4A5B4B11681B885B18A8
:1027400001211360594A136801331360624B1A78F0
:102750005140197006F068FC3221604801F0FAFC23
:10276000002807D001215E4B0B201A7851401970C8
:1027700006F05AFCFA215B48490001F0EBFC002806
:1027800010D0434B0A222800198804F09CF8564CBC
:1027900056482278002A3BD000223C21FDF7CAFC93
:1027A00000232370072006F06BFC002800D048E7C8
:1027B000374B1874374B187043E79A0705D5280034
:1027C0004B4904F017F81123F5E65A0705D5280000
:1027D000484904F00FF81223EDE6DA0605D5280083
:1027E000454904F007F81423E5E69A0605D52800C4
:1027F000424903F0FFFF1523DDE65B0600D4DBE66C
:1028000028003F4903F0F6FF1623D4E62E497FE760
:102810007821FDF78FFC0123C3E721000B2006F090
:1028200003FC01210D2006F0FFFB220032212F487E
:10283000FDF780FCFEF77EFB1320324A3249FEF79B
:1028400025FE0024314F38802000FEF7ABFF210029
:10285000642006F0F5FD00250600AE4258D00120A8
:1028600006F07CF80135F8E7A01F002095D900009C
:102870000414002000140020261300209ED900001C
:1028800024130020A4D9000040000020D60E002010
:102890000C0F002076130020AC040020D41300207D
:1028A000B80B0000281300202E130020C40E0020B7
:1028B000781300207C130020FCD9000001DA00000E
:1028C0004AFCFFFF06DA000009DA000050E2FFFFD1
:1028D00032001000D013002077130020CC1300200A
:1028E00075130020C8130020741300205C0400201E
:1028F000B9D90000C5D90000D1D90000E0D9000045
:10290000EFD90000D70E0020DE0E0020A20E00201E
:102910003B880134A34297DA64240A20013C06F084
:102920001DF8002CF9D1FDF7F1FCDF4EF37C002BF4
:1029300000D0C0E0FDF7EAFC0320FEF7EFF8F289D3
:10294000DA4B1A80002A00D1BFE0327DD84BD9493A
:102950001A70727DD84B1A700023D84A1380D84A57
:102960001380D84AD488201C8C4201D9D6480088CC
:102970001080D64A1380D64BD888021C884201D9D1
:10298000D14A1288D349D4481A8001F0D5FBD34BE1
:102990001B78002B00D1F6E0032006F071FB002825
:1029A00000D096E0043006F06BFB041E00D090E0EF
:1029B000CB4D2F78002F00D1B2E0CA4F012538004F
:1029C00003F0CEFA3800012102F09BFC3800C64922
:1029D0003C6103F0FDFE102238000A27402321004D
:1029E0000195009201F0B4FF05956421200006F0E6
:1029F00027FD059ABB4D0192102203B200210092DF
:102A0000280001F071FF380005F0A8FF380005F03C
:102A1000A5FF380005F0A2FF380005F09FFF380041
:102A200005F09CFF280003F0FBFBCA2340345B0148
:102A30009C42DAD1C8240A20013C05F08FFF002C0B
:102A4000F9D1FDF763FCC8340A20013C05F086FF8C
:102A5000002CF9D1280003F083FA0121280002F0AC
:102A600050FCA24BA2492B61280003F0B1FE0123C8
:102A700001931F332200210028000093203301F02E
:102A800067FF280003F0CCFB0720FEF747F89134DE
:102A9000FF340A20013C05F061FF002CF9D1FEF75C
:102AA0009BFF0123F3740223FF33B382FDF72EFC57
:102AB0008A4B1C703EE0FEF773FBC8240A20013CE1
:102AC00005F04CFF002CF9D134E73222F2811A8054
:102AD0003BE70021804801F03DFB041E3BD1854BC4
:102AE00000229B5E012B25D102217C4A1070824A74
:102AF0001180824A1070824A1070824A1380824A82
:102B00001070824A1070824A1370824A1370FDF767
:102B100085FBFA218048890001F00EFB7F4BC8E756
:102B20007F4C0023E15E01290AD17E497E4801F0F5
:102B300003FB27800020FDF721FD6E4B188026E760
:102B40000029F7D1784801F005FB0028F2D00123D5
:102B50002B702380EEE70023604A13700222694B3A
:102B60001A80654B013A1A80E4E71620FEF7B6F9A1
:102B700000210800FEF70AF8002802D101226B4B61
:102B80001A70FEF7D7F905F0B9FE694B474F186088
:102B900064233A880F205343664A0A249B18494A03
:102BA000604D5380FDF7B0FA684300130F21604376
:102BB00006F046FC604B18800F2006F0A7F868432B
:102BC000000B0F21604306F0B1FB5C4B1860122034
:102BD000FDF79AFAD0232721584306F031FC030071
:102BE000FA216B43564A1B131380534A98B212883A
:102BF0008900504306F024FC524B18801320FDF747
:102C000083FAFA23684300139621584306F018FC10
:102C10004D4C494B4D4E208019883000FDF7BEFACF
:102C20000595002800D1A3E00122494B1A70324BD0
:102C300000255D5F022D00D0EFE00127454D464E97
:102C40002978464C3770002906D1334801F082FAC2
:102C5000002800D193E02F702378002B00D095E05E
:102C60003378002B00D1AAE001233D493D4A1320CF
:102C70002370FEF70BFC3C4B80B21880FEF792FDF0
:102C8000FA213A48890001F057FA98E0122B00D057
:102C900079E700210800FDF779FF002800D072E7EE
:102CA0000122224B1A706EE70C0F002066010020F3
:102CB000DA120020FEFF0000FF130020E2120020C5
:102CC000FC120020E41300205EDA00003413002020
:102CD0008E12002088130000DC1300204E0100201B
:102CE000E30E0020AC0400200DDA000008000C0008
:102CF00018DA00003C010020640100206A13002063
:102D0000DC0E00204C010020E20E0020E70E002027
:102D1000D80E002068010020A813002048010020E0
:102D20004A010020B80B000080130020D60E0020BE
:102D30006C13002030F8FFFF281300203013002010
:102D40002E1300202A1300202C130020860E0020B2
:102D5000E0120020E10E0020E80E0020D50E002039
:102D6000DE0E0020D70E0020A20E002090130020BF
:102D70003388002B00D05AE7D54A137057E72A78DA
:102D80002378002A00D067E7002B18D0D14D00210E
:102D9000280001F0DFF9002806D1CF4B00229B5E0E
:102DA000012B0CD1CD4B35E0CC4C2378002B30D00F
:102DB000FA212800890001F0BFF900232370C84DD3
:102DC000C84C0022AB5EC84E022B01D000F0C4FFFD
:102DD000C64A1378002B01D101F012F804232B808E
:102DE00000231370C24AC3491370C34A0B70C3490E
:102DF0001370C34A0B70237001331370C14AC24968
:102E0000C248137001F098F9FA21C148890001F015
:102E1000A9F8B64B01221A70D1E7002D62D0042D1B
:102E200001D000F0BAFCBB4C217800291ED1B84873
:102E300001F090F9002819D00122B14B21001A703D
:102E40001320B54AFEF722FBB44B80B218802378DA
:102E5000002B0BD0FEF7A6FC4B240A20013C05F00A
:102E60007DFD002CF9D10122A64B1A709A4BA74C7C
:102E700000229B5E0B2B00D05EE20021200001F0BF
:102E800069F900280CD0A64A138801331BB21380BD
:102E90001E2B00D04BE20121A24B1970002313809E
:102EA000032006F0EDF8A04D002814D1043006F000
:102EB000E7F800280FD19D499D4801F03DF9032016
:102EC00006F0DEF8002800D13EE20120FDF756FBB7
:102ED0000022984B1A800023974A2B701360974A60
:102EE00013803CE0964B974E19883000FDF756F959
:102EF000002814D001221424934B03201A70934B02
:102F00001C80FDF7EBFF0023FA5E844B3580002127
:102F1000595E8F4B0020185E2300FEF76DF88D4B35
:102F20001C78002C00D02BE18B4B8C4D1E78002E92
:102F300052D131000D2006F077F8280032006421CC
:102F4000FDF7F8F82D2005F009FD01222800398849
:102F5000FDF7F0F801235E4A13707E4A13700320D8
:102F600006F08EF85E4E002800D14AE200217C482F
:102F700001F0F0F8002800D034E3574B614D0022F7
:102F80009B5E0B2B00D045E3764B1A78002A01D0CC
:102F900000221A700021744801F0DCF8002800D1EA
:102FA00060E3012300222B70624B1A80634B0020E8
:102FB000185E002801D0FDF7B1FD0023F85E6B4BD1
:102FC0001B78002B04D06A4B1B78002B00D0D8E371
:102FD000FEF7AAFB00F0DEFB220032212800FDF7FD
:102FE000A9F821000D2006F01FF8322005F0B6FCEC
:102FF00032260A24012231005848FDF79BF80F20A1
:1030000005F084FE059B0F215843000B604306F03A
:103010008DF9584B81B218605748FDF7BFF814205E
:1030200005F09CFC07360F20FDF76EF8782EE1D1F5
:103030000F2005F06BFE059B0F215843000B6043EA
:1030400006F074F93E4B0A241880122005F05EFE4B
:10305000D0232721584306F069F9FA21059B474AF6
:1030600043431B0B1380364A98B2128889005043A1
:1030700006F0E6F9364B18801B4B00B21978FEF7C4
:1030800065FC3D880A21701B06F0DAF901006143F6
:103090004919324D01222800FDF74CF80F2005F0A8
:1030A00035FE059B0F2158430A23000B584306F0B9
:1030B0003DF9304B81B218602F48FDF76FF80620BC
:1030C00005F04CFC0F20FDF71FF8013CD9D23CE77E
:1030D000E0120020901300203C010020D30E0020BD
:1030E000640100206A13002068130020DB0E00201A
:1030F000E80E0020FE130020D50E0020E10E002077
:10310000D90E00206801002030750000A4130020B3
:10311000BC130020DE0E0020D70E0020A20E0020DF
:10312000AC0E0020E60E0020E00E0020EE020000B3
:103130009C1300208C120020C00E0020661300207B
:103140002813002034130020DA0E0020D00E0020B7
:103150002A1300207F0E0020DA1200205C040020D9
:10316000B8130020E50E0020C0130020FF1300203C
:10317000040F002030130020860E00202E130020A4
:10318000FA21D648890000F0E5FF002839D0D44A5A
:10319000D4491368013313600A6801320A60062BB0
:1031A0002FD1D14B6421188806F0C0F8CF4BD04CFA
:1031B0000021595E02B20023E05E0023FDF71CFFF0
:1031C0000023E05E0F21FDF735FECA4BCA4A1B887B
:1031D000181C1BB2934200DD101CC84B02B29A426D
:1031E00000DA181CC64B00B2C018142106F028F9EA
:1031F000C44A68304000835A013383520022B84BDE
:103200001A60BC4BC04C19882000FCF7C7FF00288F
:103210001ED12388002B1BD1E288BC49131C8A4293
:1032200001D9BB4B1B882380BA4BAE4C1D78002DB7
:1032300072D0962322685B009A4209D3FDF792F878
:103240000B20FDF76BFC0122B34B1A7000232360A7
:10325000B24BB34E19883000FCF7A0FFA44C0028F5
:1032600013D001201025AF4B1870AF4B1D80FDF718
:1032700035FE002333800023FA5E9C4B0021595E0B
:103280000023E05E2B00FDF7B7FEA84D2188280043
:10329000FCF784FF002814D00122A24B99491A7030
:1032A0001123A14A1380CA880132CA8000222A80D1
:1032B00000217A5E8D490020095E0025605FFDF7E0
:1032C0009BFE894B9A481988FCF768FF002800D0BC
:1032D00045E6974B1B88002B00D040E60122914B1E
:1032E00002301A70904B11321A80FDF7F7FD904BA7
:1032F0008649DA88131C8A4201D9854B1B888C4A7F
:1033000013800023FA5E794B0021595E0023E05EB2
:103310001223FDF771FE22E601261E70FDF722F84A
:103320000B20FDF7FBFB7C4B25601E7090E7200017
:10333000804900F001FFB3E520007E4900F0FCFE6B
:1033400000227D4B1A80ABE5042005F099FE041E97
:1033500000D0BAE52B780593002B4CD177497848FB
:1033600000F0F8FE002826D0764E032033680133A3
:103370003360FDF7D3FB3368734C012B22D120005F
:1033800002F0EEFD0823802623610221200001F0D7
:10339000B8FF76036D49200003F01AFA02212000DD
:1033A000266101F0AEFF6A492661200003F010FAA1
:1033B000654802F035FF0122574B1A700B23654A0E
:1033C00013807CE5022B04D180235B0362492361D7
:1033D000EBE7032B04D180235B0360492361E4E71F
:1033E000042BE5D120005E4903F0F2F901232B7094
:1033F000059B3360DCE7FEF7E7FD524B2C701C6049
:10340000D9E7072005F03CFE041E00D0AEE5554B81
:103410001D780023F65E002E00D0ADE04A4C002D52
:103420003ED1504B01361E703C4B188807F054F8C3
:103430000590388807F050F80599FDF7F9FF20004E
:1034400002F08EFD3100200001F05BFF464B474942
:103450002361200003F0BCF920232A0029000093F7
:103460000196DB18200001F073FA200002F0D8FE6C
:10347000200002F075FD0720FDF750FBFA208000C8
:1034800005F06CFA032005F0FBFD00281FD0012099
:10349000FDF774F801222F4B18801F4B1A706CE552
:1034A000304B20001E7002F05BFD0121200001F076
:1034B00028FF2F4B2F492361200003F089F90123B6
:1034C00001931F330093320031002033CAE70720F5
:1034D00005F0D6FD0028D5D0D9E7C046B0130020AE
:1034E000B00E0020B40E00202E130020A20E0020EB
:1034F0002A1300202C13002004100000E40C00000C
:103500001CF3FFFF0C0F00208E120020FEFF0000B6
:103510005EDA0000DF0E0020680100202813002082
:10352000E2120020DA0E0020D00E0020FC12002053
:10353000E413002030750000AC0E0020EE02000005
:103540009C130020C00E0020AC04002021DA0000F3
:10355000CFD900003C01002026DA00002BDA000061
:1035600031DA00006813002007000C0037DA000091
:103570000F000C0041DA0000002D00D1FDE4AA4D3F
:10358000AA4B1870280002F0EBFC0121280001F082
:10359000B8FEA74BA7492B61280003F019F90123B6
:1035A00001931F332200210028000093203301F0F3
:1035B000CFF9280002F034FE280002F0D1FC0720E9
:1035C000FDF7ACFAFA20800005F0C8F9032005F0F9
:1035D00057FD002800D05AE7072005F051FD0028CC
:1035E000F4D054E70022B35E002B00D0C5E4924B28
:1035F000188806F071FF041C388806F06DFF211C46
:10360000FDF716FF01238D4A1370884A13708C4A08
:103610001370B2E400218B4A1180012B74D18A4EC1
:1036200032888A4207D189490B70804B1978884BC0
:1036300019707E4B1A70FA21013286488900328057
:1036400000F07AFD3388012B28D1834A1278002AB2
:1036500022D075483C22022102F0F6FC7F4B1888EC
:10366000FEF7A0F82B78002B00D09FE400217C48C7
:1036700000F070FD002806D06F4B0021595E00233A
:10368000F85EFCF717FF694B1978764B0020185E3F
:10369000FEF75CF9FFF793FB3280E3E7DA1E022ABC
:1036A0002AD8614C200002F05BFC10230221236128
:1036B000200001F026FE6C49200003F089F88023E9
:1036C0005B0323610221200001F01BFE3388042BE1
:1036D0000BD0052B0ED06549032B07D0200002F03C
:1036E0009FFD0320FDF71AFABCE76149200003F0B3
:1036F0006FF8F3E75F49F9E7062BB3D101225E4B80
:103700001A7000233380ADE7042B14D13B88772B4C
:1037100005D80A333B8003231380023B2B70434BB5
:103720001B78002B22D06421544800F005FD0023B3
:103730003E4A13701AE0092B04D13B88772BEED850
:103740000133E7E7052B08D13B88282BE7D90A3B53
:103750003B8004231380033BE0E70A2B04D13B8822
:10376000282BDCD9013BF3E7062BD8D13A88131C70
:10377000782A00D978239AB2282A00D228233B80BD
:1037800070E72D4B0021595EFCF794FEC8213448A8
:1037900000F0D2FC00232B7068E7012D00D006E278
:1037A000374B384E1A78002A2BD0002235701A7009
:1037B0000122354B1A703378344E002B09D03388F0
:1037C000934206D19621002331488900338000F0CE
:1037D000B3FC3588002D61D12D4F2900380000F051
:1037E000B9FC002801D1FFF7D8FA2A4C2378002B26
:1037F00016D096213800890000F09EFC2570FFF756
:10380000DEFA3778002FD3D1FCF78CFD390022483F
:1038100000F0A0FC0028CBD03570FCF777FDC7E79F
:1038200002233380FFF7CBFAAC040020681300209A
:1038300008000C0041DA000028130020600100207D
:1038400068010020661300208C120020E50E002085
:1038500069130020C0130020D90E0020A20E002002
:10386000A01300202A1300207DD90000CFD900002A
:1038700026DA00002BDA0000E60E0020B813002044
:1038800048010020E20E0020E70E00204C0100203D
:10389000D8130020D30E002098130020022D01D051
:1038A000FFF78DFACB4FCC4D3B78002B53D02B78C4
:1038B000002B01D000232B70FDF73CFB00230826D2
:1038C0002380132005F022FA059B96215843FA2302
:1038D000000B584305F02AFD2388013EC0182080C4
:1038E000322005F03BF8002EEBD12388BB4ADB10D9
:1038F0002380934207DD3100012005F095FB012173
:103900000B2005F091FBB64C0323B64A072120009B
:1039100002F0D6FD200002F0A9FD072004F036FFDA
:103920000121080005F080FB00210B2005F07CFB45
:10393000642005F013F8FCF75BFC2B78002B01D119
:10394000FFF73DFA002301223B70A74BA749A84887
:103950001A80FFF798F92B78002B01D1FFF72FFA87
:10396000072005F08DFB002811D00021A04800F0B1
:10397000F1FB002800D016E19E4B00229B5E012B3C
:1039800001D0FFF71CFA9C4A1370FFF718FA0420C5
:1039900005F076FB0028E8D1984B1B78002B01D16D
:1039A000FFF70DFA964D01272A78002A7ED18E4C1A
:1039B0002388012B04D1934993482280FFF763F9B0
:1039C000002B01D0FFF7FBF900218F4800F0C2FB6C
:1039D000002801D1FFF7F3F901232B702380FFF7B3
:1039E000EEF90A2004F0BAFFAAE00A2802D005285E
:1039F00000D0D4E000232370D1E0814B1B78002B52
:103A000054D00926814C6425200002F0A9FA022135
:103A1000200001F076FC7E4B0A2231002361200059
:103A200002F04DFF200002F0FBFB0A20013D04F0F4
:103A300095FF002DF9D1013EE4D2FDF70DFB2000EA
:103A400002F08EFA73492561200002F0C1FE802346
:103A50005B0371492361200002F0BAFE200002F0EE
:103A6000DFFB64350A20013D04F078FF002DF9D119
:103A7000200002F075FA69492000256102F0A8FED5
:103A800080235B0366492361200002F0A1FE200031
:103A900002F0C6FB5A4B08201D70FDF73FF82000CE
:103AA00002F05EFA5149524800F046FB544B1B7835
:103AB000002B01D1FFF783F9544C6425200002F05C
:103AC0004FFA0221200001F01CFC564B002223611A
:103AD00020231100200000930197DB1800F038FF2D
:103AE0004C49200002F074FE200002F099FB0720F0
:103AF000FDF714F80A20013D04F030FF002DF9D144
:103B00000226200002F02CFA20004749256102F02D
:103B10005FFE20005923102229000296019500978C
:103B200001F066FB20004E231022342102960195FD
:103B3000009701F05DFB200002F072FB3B4C277008
:103B4000072005F09DFA002800D14AE7042005F07F
:103B500097FA002800D144E7032005F091FA0028E5
:103B600000D13EE73800FCF709FD2378002B00D197
:103B700043E70020FCF702FD1E4B244D1880092866
:103B800002D0042800D030E700231D4A280023700B
:103B9000137002F0E5F91549154800F0CDFA280038
:103BA00002F03EFBE1E701233B70FFF708F9032D2C
:103BB00001D0FFF704F91E4C2378002B76D11D4B62
:103BC00018881038042852D805F0A6FB9136AE515B
:103BD0009100C0464F010020DD0E0020470D00007F
:103BE000981C0020FD00000046010020E2040000B7
:103BF000AC1300203C010020DC0E0020D80E002079
:103C0000D40E0020881300008C130020AC04002088
:103C10001C000A0048DA000065D9000053DA0000F1
:103C200059DA00000A000A004DDA0000D20E002026
:103C300044010020D00E00200123D84D0E221F2168
:103C4000280000930C3300F0CDFF00260C23062241
:103C500000931E21093B2800019600F045FE032336
:103C60001422019600931E21280000F03DFEC82179
:103C7000CB4800F06FFACB4B002803D00122197813
:103C80004A401A70197800295CD020230021009343
:103C90001E22C2480191DB1800F026FE0021C24816
:103CA00000F058FA002851D0012323700023BF4AA6
:103CB000BF491370BF4A1380BF4A1380BF4AD088E0
:103CC000021C884201D9BE4A1288BC480280BD4A03
:103CD0001380BD4BD888021C884201D9B84A12888B
:103CE0001A80FCF713FBFDF725F9FFF768F80123AD
:103CF0002F22AA4D039319331F212800029301920A
:103D0000009300220B3B00F09AFF00260C230722B1
:103D100000931E21093B2800019600F0E5FD0323D6
:103D20001522019600939EE70123002102931D3383
:103D30000193223300930A00A44B9848039101F0A9
:103D40007AF894E70F20FDF7A3FDA7E72378002B6F
:103D500001D1FFF734F8A9E7002B00D0AEE09C4B6F
:103D600000229B5E062B01D0012B20D104232B8047
:103D700000230127974A23701370974A0620137077
:103D8000964A1360964A1360964A1370964A1360D7
:103D9000964B1F70FCF7C2FE9549964800F0CCF98F
:103DA000FA219548890000F0C7F9944B1F707F4BAA
:103DB0001B78002B24D003232B80002501210D200C
:103DC000257005F001F901210D2005F02DF9824B38
:103DD0008B491D70814B74481D60814B1D60814B68
:103DE0001D70814B1D60874B1D7000F0A5F9FCF71D
:103DF0008DFA28002900FDF74BFD0C20FCF78EFE04
:103E00002278814D814B002A00D025E10024012138
:103E10000D201C7005F008F920003178FDF7AEFD8B
:103E2000644B63491C80644B1C80644BD888021C23
:103E3000884201D9624A12881A80624B1C80624B08
:103E4000D888021C884201D95D4A12881A80FA215A
:103E50002A886F4B6F488900DA8100F07BF90028CF
:103E600017D0E1226C4C9200236801332360934207
:103E70000FD16A4D2B78002B00D12DE100210800D5
:103E8000FCF784FE0123002800D000232B700023C0
:103E900023600020FCF772FB4D4B188004F02EFDD0
:103EA0005F4C604B206022681B68D31A5E4A9342C5
:103EB00001D9FEF768FE04F021FDF2E7042B36D1AC
:103EC00000225A4B1A70424B00229B5E062B0BD1EC
:103ED000574B1B78002B1DD00920FCF71FFEFCF769
:103EE00061FA0123454A1370524A1378002B87D098
:103EF00001232B800025504915700D704F49504A01
:103F00000D70FA214F4889002570137000F014F9E4
:103F1000357075E701272F4A05201770334A2B802B
:103F200013702770FCF7FAFD344B1F70DCE7012B90
:103F30001BD145490A78002A00D161E702222A8074
:103F400000220A70414922700B803B490A703B49AC
:103F50000A703F4A1370294A1370FCF75FF9FA217F
:103F60003C48890000F0E8F84AE7032B00D047E717
:103F70000E4B1A78D3B2002A00D041E704322A80CF
:103F80000125144A23701370184B194919481D70E4
:103F900000F0D2F8194B1D70FEF736FFAC0400207C
:103FA00084130020800E002094130020DA0E0020DD
:103FB000FEFF0000E2120020FC120020E4130020AB
:103FC0005EDA0000341300208E120020AADB00000D
:103FD0003C010020FE130020DE0E0020B00E002069
:103FE000B40E0020DF0E0020B80E0020D90E0020F5
:103FF00030750000A4130020BC13002068010020CD
:10400000DC0500004401002066010020040F0020B0
:104010000C0F0020C4130020BC0E0020D60E002080
:10402000701300206C130020A76100007F0E002099
:10403000D70E0020E60E0020E20E0020E70E002042
:104040004F01002098130020DC0E00204C010020BE
:10405000D80E0020A8130020224A1278002A00D18E
:10406000D4E601221A70204B1A783378002B20D026
:10407000002A27D01D4C1E4B21781888FDF714F913
:1040800000232370031C80B278280DD97823194AA5
:1040900099B21380184B19481A78FCF74BF8002195
:1040A0000D2004F0C1FF0DE09AB2282AEFD2282398
:1040B000EDE729880B1C782909D9782399B22B8040
:1040C000002AE7D101203178FDF758FCBFE689B21C
:1040D0002829F3D22823F1E70420FCF7FFFEFCF7A0
:1040E00029FFD4E6FE1300207F0E0020600100208F
:1040F0002813002016130020E01200205C0400208A
:104100000022014B1A70704700140020014B1878F0
:10411000C0B27047380400400221064B1A788A4327
:104120001A70DA79D209FCD1997901320A439A716D
:104130007047C046001000400B005A1E934170B5F6
:1041400005000C1E837004D004F0D2FB013C24183F
:104150002C8070BD70B5847805000E00002C0AD04C
:10416000048804F0C5FB074A231A9BB2002493423B
:1041700005D95B42DCB231002800FFF7DDFF2000EB
:1041800070BDC04660EA000000207047F8B5050029
:104190000E0017000024BC4208D02B682800315DB7
:1041A0001B689847002801D00134F4E72000F8BDCF
:1041B00070470300FC33196ADA69914203D01B6A25
:1041C000C018007E704701204042FBE70300FC332B
:1041D000D8691B6AC01A01D50130FF307047000052
:1041E000F7B50193FA238027002504009B00836024
:1041F000114B7F0008330E004560290000920360D8
:104200003A00183008F0BBF823002000FC332130BE
:10421000DD613A001D622900FF3008F0B0F8872305
:104220009B00E3185D609D60009B20002375019B4F
:104230002661A5756375FEBD80E2000070B50400BF
:1042400018260C49006902F0E7FD206902F036FCEF
:1042500033000821207D084D4343EB18595604F0E4
:1042600027FF0821607D4643AD19695604F020FF01
:1042700070BDC046A086010020F0000070B50400AB
:104280000D00006902F02FFC2900206902F0C4FD36
:10429000206902F013FC70BD8A2300229B00C154E8
:1042A0000C3BC3185A609A60012383757047020063
:1042B000FC32536810B501339468DBB29C4202D0E3
:1042C00054680155536010BD10B50300827D002075
:1042D00082420ED0872292009C186268A468013244
:1042E000D2B2A24205D02133FF331800FFF7DFFF1F
:1042F000012010BD0300FC3399685A68914206D032
:104300009A68805C9A680132D2B29A607047012044
:104310004042FBE700228A2370B59B0082750500AE
:104320000E00C15C006902F011FC002806D10321D7
:10433000286902F0F5FB0224200070BD87232800C5
:104340009B00EA18536894682130FF301C1B01D58C
:104350000134FF34002C0ED02C69FFF7CBFFC1B223
:10436000200002F031FC0028E8D10321286902F086
:10437000D7FB0324E0E7002EDED00321286902F0FA
:10438000CFFBD9E710B50121FFF7C4FF10BD10B571
:104390001830FFF7AFFF10BD70B50400006902F0E0
:1043A00035FC002814D0206902F03EFC002810D013
:1043B000206902F0ABFB0321206902F0B1FB8C23E2
:1043C0009B00E558002D39D10023FC34E3612362C2
:1043D00070BD206902F032FC002809D0206902F08B
:1043E00028FC002804D0206902F02DFC0028DFD032
:1043F000206902F023FC002826D1206902F00FFC7E
:104400000028E5D0206902F01EFC002837D0872361
:104410009B00E218536892689B1A01D50133FF3361
:10442000FF21002B05D020002130FF30FFF762FF75
:10443000C1B2206902F0DBFBA075C9E72368200048
:104440001B699847A847BFE7206902F05FFB206916
:10445000032102F065FB206902F0F5FB0028B7D0CC
:10446000872300229B00E3185A609A600123A375FA
:104470008B239B00E3589342AAD09847A8E72200D9
:10448000FC32D369126A0133DBB22069934206D150
:1044900002F033FB0321206902F042FB98E702F0AF
:1044A000D7FB010020001830FFF701FF206902F060
:1044B0002DFBEFE710B50248FFF76EFF10BDC046B9
:1044C0000414002010B51523142202490248FFF7F6
:1044D00087FE10BDA82200200414002030B5234B15
:1044E000002A37D0224A5A605A78D209FCD1214A90
:1044F0009A605A78D209FCD11F4A5A805A78D20958
:10450000FCD15F241D4A94641D4CD46402221D4CCE
:1045100025782A4322701C4A5A605A78D209FCD165
:1045200001320271FF291CD9FF2104220160090216
:104530001143164A11605A78D209FCD1144A154920
:1045400011805978C909FCD1134911805A78D209D0
:10455000FCD130BD114A124C14605A78D209FCD1FA
:10456000DFE70029E1D10131DFE7C046000C004060
:104570000507030005300000014500000008004069
:10458000281000004408004004080300080C004004
:10459000020C00401A4400001B440000040C0040C0
:1045A00004070300F8B50400182500200B0020497B
:1045B0002E0046438E599E4204D001300E28F7D17A
:1045C000002034E00020834231DB01266B43C91810
:1045D0004B68184D8868DB015B191D1840352F7832
:1045E00040083E431B182E70303318784D69CE6852
:1045F0002843C0B2187028237343A4680E4D2000CE
:104600000F69EB18944200D910009A69DB69002108
:1046100005F060F82200002305F03CF828235E43F3
:10462000AA59386093685B021B0FFBD10120F8BDCB
:10463000A4E200000044004170010020002010B5F9
:10464000022913D828234B430B4CE318981CC2773C
:104650005B680220002A0AD01A68104318602823D9
:104660005943625893689B07FCD4012010BD1A6817
:1046700082431A60F3E7C04670010020F7B508AB2B
:1046800030CB1E78009401950023022958D81C00D5
:10469000012A17D0022A13D0042A53D0082A54D052
:1046A000102A54D0402A55D00133FF339A4253D0B8
:1046B0008023E024DB009A424AD00024012201E05A
:1046C0008024640028254D43244B5D196F686A617E
:1046D0003A6814436A1CD677AA683C6015680224BD
:1046E000002E00D11E4C2C43146028224A439C58B3
:1046F000A2685206FCD4019A009F9446002A02D177
:10470000022F00D202272822150000264D435D19F2
:104710002D69664503D1BD4201D93D0066464A4335
:104720009A189561D661D2681560A2685203FCD4CC
:1047300028224A439B180233DA7FFFF77FFF0123C9
:104740001800FEBD8024A400BCE7C024FBE7802441
:10475000E400B7E7A024FBE7C024F9E770010020DC
:1047600005000F007047F0B515000C001E0089B061
:104770000EAB00229B5E0FAA1288019005925A1B75
:10478000D11752184A400292321BD11752184A4090
:1047900003920399029A8A4205DD32001E0013003B
:1047A00022002C001500B44205DD2A001D00130074
:1047B000220034001600321B91B20691591BC81713
:1047C0000918414012B20791D10F8A185210009275
:1047D000012204929D4202DB01235B420493B44216
:1047E00022DC019B039A1B689B691F00029B93427A
:1047F00016DD22002900059B0198B847009B079A07
:104800009A1A11B293B20091120406D5049AAD1807
:10481000069A2DB2D3181BB20093013424B2DEE7FE
:104820002A002100059BE7E709B0F0BD704710B5ED
:1048300004682469A04710BD37B506AC2588046814
:104840000095A46BA04737BD37B506AC2588046832
:104850000095E46BA04737BD73B506AC0025655FD6
:1048600007AC2688046801960095246CA04773BDA8
:10487000F0B5160004000D0085B003930AAB1F8845
:1048800003685B699847039B2268013B9B191BB235
:10489000009301972B0029002000976A3200B84747
:1048A00023682000DB6A984705B0F0BDF0B505002D
:1048B0001C000E00170085B00AAB1B88013C039357
:1048C0000368A4195B69984703992A6801910097C6
:1048D0003100280023B2946A3A00A0472B682800D0
:1048E000DB6A984705B0F0BDF0B50E0087B00393C2
:1048F0000CAB029200229B5E040004930DAB1B885C
:104900003500059303685B699847039A2368B218DA
:1049100095420BDA059A290000921B6A20001F00BD
:10492000029A049B0135B8472DB2EEE72000DB6AFE
:10493000984707B0F0BD13B501910E24015F0C221A
:10494000835E02680091146C00221100A04713BD21
:10495000F0B5040015000E0087B004930CAB0022E4
:104960009B5E05930DAB1B88039303685B699847B7
:10497000039A2368009231002A0020005F6A049B9A
:10498000B847059B03995A1E2368009152193100BC
:1049900020005F6A12B2049BB847039A2368009212
:1049A00031002A0020001F6A059BB8470499039A2A
:1049B00023680139009289192A0020001F6A09B270
:1049C000059BB84723682000DB6A984707B0F0BD15
:1049D0007047F0B585B002930AAB0027DF5F0BABE1
:1049E0001B8816000393029B04000D000268994285
:1049F00010D1BE4202DD33003E001F000399013793
:104A00000091BB1B976B1BB2320029002000B847F6
:104A100005B0F0BDBE420CD1029B994201DD029D62
:104A20000291029B039901335B1B0091D76B1BB270
:104A3000EAE753699847039A236801920097200098
:104A40009F6A3200029B2900B84723682000DB6A76
:104A50009847DDE703230B4010B583760822835E79
:104A60000A24025FC90702D48381C28110BD8281FA
:104A7000C381FBE74281C2810122002310B552426B
:104A8000064C4261064A083443600460018181811A
:104A9000036182610377036210BDC046F4E8000041
:104AA00001010001F0B51C008FB00692012214AB89
:104AB0001B780591079315AB0021595E16AB1B8837
:104AC00005000893A3B2D01A93405B421BB2891829
:104AD0000C938BB209930493002300B202900393CA
:104AE0000D92039BA3427BDA029B2700002B09DB7C
:104AF0000C9B671E02331AB20C92029A3FB29B18AB
:104B00001BB202936B469B890A9301339AB21BB284
:104B100003930B925300029A01339B181BB202932A
:104B2000039B9F422CDB079B0D9A134212D00999DD
:104B3000BAB25300CB1806990B988A1A05992E68B9
:104B4000411808981BB20090306A12B2060009B2F0
:104B50002800B0470222079B134211D00999BAB22C
:104B60005300CB1806990B988A1A0599089E091AC2
:104B700028680096066A1BB2280012B209B2B04734
:104B8000BC4227D0079B0D9A13420FD06B460A995F
:104B900010229B5E069A089E521A059928680919E8
:104BA0000096066A12B2280009B2B0470222079B9B
:104BB00013420FD06B460A9910229B5E069A286812
:104BC000521A059912B2091B089C09B20094066A90
:104BD0002800B047049B3C0002339BB2049380E75B
:104BE0000FB0F0BDF0B51E0004000F0087B00CAB95
:104BF0001B880492059303685B699847049905989C
:104C0000B2B253008A1A21680090096A01330D007C
:104C1000200039001BB212B2A847059B390002934D
:104C20000023019303332000049A00933300FFF71D
:104C300039FF23682000DB6A984707B0F0BDF0B564
:104C400091B01D0016AB029200229B5E07000393F9
:104C500017AB00269E5F18AB00229B5E039A04935D
:104C600019AB1B880C000993029B934200DCD7E030
:104C7000049A93421DDD049B039A934212DA1300B7
:104C8000049A0392029A02932B00350026000492A4
:104C90001C000EE0029B039A0393230002922C0057
:104CA0001D00E8E7029B049A0493230034001E00D1
:104CB00002923B6838005B699847039B049A9342D1
:104CC0001DD1A54202DD2B0025001C00B54205DCEC
:104CD000231CB44200DA331C2E001CB209993A6836
:104CE00001340091A31B556A31003800039A1BB2AE
:104CF000A8473B683800DB6A984711B0F0BDA3B203
:104D0000ADB205935B1B1BB26A460D936B4691894E
:104D10001B89B6B25A1A12B20E92721B12B20892C4
:104D20006A46128A511A09B20B910599D21A761A5B
:104D300031B212B20C910F920499029A0A928A42ED
:104D400002D0013B1BB20A930023039E07930693F4
:104D50000A9B9E422ADC0E99069804F071FB2818E3
:104D60000B9904B2079804F06BFB0D9A069B9446CE
:104D7000089A634494460693079B2818634400B23C
:104D80000793844202DD23000400180009993A6861
:104D90000091526A01309446031B32002100380012
:104DA00064461BB20136A04736B2D1E7029BF21A25
:104DB0000C9B53430293039B089AF31A5A430392A2
:104DC000049B9E4200DD94E70F99029804F038FBA3
:104DD000059B0B99181804B2039804F031FB0C9A48
:104DE000029B9446089A634494460293039B2818B6
:104DF000634400B20393844202DD230004001800E0
:104E000009993A680091526A01309446031B3200B6
:104E10002100380064461BB20136A04736B2CFE706
:104E2000039B049A934200DD34E7029A02930392B3
:104E30002B000D002CE7F0B58DB0079312AB069256
:104E400000229B5E0591019313AB00229B5E040040
:104E5000089314AB1B880026099315AB1B883500FB
:104E60000A9303685B6998470722019B0B92D91D3F
:104E7000CB1713405B18DB10029333009AB20392F6
:104E8000069A99B28A1812B20492089A934227DAC3
:104E90000023019A93421DDA9AB200920B9A6D0098
:104EA000EDB2134203D1079ADB109219D55C236847
:104EB000059A9B691F00009B99186AB2099B09B269
:104EC000002A00DB0A9B2000049AB847009B0133AC
:104ED0001BB2DEE7039B029A01331BB2B618CDE783
:104EE00023682000DB6A98470DB0F0BDF0B585B0AF
:104EF0000AAC0025645F0BAD0026AD5F0DAF0CAEB4
:104F000036883F880296039701950094FFF793FF38
:104F100005B0F0BDF0B595B01D001AAB1B8804922A
:104F200005931BAB1E881CAB1B78026A02931DAB5A
:104F30001B78040008910393002A00D0C4E00C22DF
:104F4000835E8B4200DC7DE00E22835E049A9342F6
:104F500078DD0623029A53435B18002B72DD039B16
:104F6000049ADB009B18002B6CDD037F002B03D120
:104F7000AF2D01D90135EDB2236820005B69984758
:104F80000522002355430793984B0B925B190F930F
:104F9000079A0F9B9B5C0A936B469B8B09936B460E
:104FA0001B89099A0E936B461F8C029B5343FB1877
:104FB0001BB20D9308230C930023069301220A9B36
:104FC0002068134252D06B461A8B198A029B012B20
:104FD0003AD1039B012B37D1099B52188569D91906
:104FE000059B12B209B22000A847069B01335BB2B1
:104FF00006930A9B5B080A930C9B013BDBB20C9364
:10500000002BDBD1079B01335BB207930B9B013B6A
:10501000DBB20B93002BBBD1059BB3420ED0029B9E
:105020002268012B3FD1039B012B3CD10537009611
:10503000156A2000049A39B20733A8472368200074
:10504000DB6A984715B0F0BD6B4608255B5F039D92
:105050006A438A18059912B2019169460C25495F85
:105060000091C5690D992000A847BEE7059BB34292
:10507000BBD06B461A8B198A029B012B0AD1039B6A
:10508000012B07D1099B5218D9198569330012B237
:1050900009B2A8E76B4608255B5F039D01966A434A
:1050A0008A1812B2D9E76B4608215B5E05210E987B
:1050B0000196414303987918C0000090D5692000FB
:1050C000049A09B2A847B9E7137A5168ED1A126831
:1050D000EDB2ED0013924A5B4B1909929A780D924A
:1050E000DA78119205229A569B790E925BB20F9351
:1050F000029B012B02D8039B012B56D96B46382209
:105100009B5E0B936B463C229B5E0C9300272368AF
:1051100020005B69984707970697119B069A9A4269
:1051200000D38BE76B461B8A00260A930C9B9B18C7
:10513000039A53430A9AD3181BB210933B000D9A5B
:1051400096424BD25A1CD2B212920722134207D176
:10515000099B0999139A0133525C9BB207920993F8
:105160006B461B7F5BB2002B17DA6B46198C029BD8
:105170002068012B1DD1039B012B1AD10A9B0F9A8A
:105180009A18069BD2180E9B12B2C9188369891906
:105190001D002000059B09B2A847079B01365B0054
:1051A000DBB20793F6B2129BC9E700230C930B9373
:1051B000ACE76B4608229B5E0B9A029D92196A43EC
:1051C0008918059A09B201926A460C25525F00922D
:1051D000C26920001500109AA847DEE7069D0D9BC6
:1051E0000135FF18EBB2FFB2069396E7F4E3000037
:1051F0007FB508AC258809AC26880AAC24780196CE
:10520000009503940294FFF785FE7FBDF0B5026A16
:1052100004000D0085B0002A2CD10A2908D1437E54
:105220000282DB00628A9B186382012005B0F0BD18
:105230000D29FAD01223C25E1023C15E437E039370
:10524000037E0293C38A0193838A00932B00FFF7A6
:1052500061FE227E238A312D08D1042A02D1133324
:105260002382E2E7032A01D10E33F9E706214A43FC
:105270009B18F5E70A2905D100230382127B437EA0
:105280005343CFE70D29D0D0137A9942CDD3917AE9
:10529000A942CAD3EB1A5168DBB2DB00CE18B17851
:1052A000002929D0F378002B26D0E37E007E677E8C
:1052B000002B13D00523F3565B1843439C46102361
:1052C000E15E8C440C23E15E8C4507DD1223E15E38
:1052D00000232382137B7B435B1863821223E25EED
:1052E0001023E15EE38A02900193A38A20000093D9
:1052F00003972B00FFF70EFE227E33795343228A59
:10530000B6E70B1C002900D10123037643767047D2
:1053100010B500F02DFB0022024B8000C35849332A
:105320001A7010BD8C160020F0B5040085B01E0068
:105330000AAB1B78103001930BAB1B78170002935C
:105340000CAB1B780D00039300F094F9200024307F
:1053500000F090F9220000234832A363E363236442
:1053600063641370537063729D4205D12721084B0B
:10537000084A094806F08AFF2000019B25606371F6
:10538000029B2771E371039BA671237205B0F0BDE8
:105390004CE900005DE90000B1E9000030B504000F
:1053A00085B002AD00680291039201F042FB6B7977
:1053B000227AE17920680093002301F003FD297926
:1053C000029A206801F05AFB206801F028FB05B022
:1053D00030BD000007B5837A00910192002B07D001
:1053E0009A070AD5EFF310835A425341C37272B63B
:1053F0000099019AFFF7D2FF07BDDB07F8D5C36814
:10540000014A9BB29360F3E70018004010B50068B2
:1054100001F018FB10BD000010B5006801F026FC7B
:1054200003000020834203DB0C304343014A9858B9
:1054300010BDC04618EA000010B5006801F016FC67
:10544000002805DB0C2343430348C018406810BD07
:1054500001204042FBE7C04618EA000010B5006892
:1054600001F004FC002805DB0C2343430348C0186B
:10547000806810BD01204042FBE7C04618EA0000EA
:10548000F0B506001036050089B0300000F048F98C
:1054900000286CD12F002437380000F041F9041E99
:1054A00062D12800FFF7DAFFC1B2300000F018FA2D
:1054B0000221300000F038FA01222E49300000F0BD
:1054C0000BFA300000F054FA2B4B8000C550280036
:1054D000FFF7B2FFC1B2380000F002FA0221380033
:1054E00000F022FA380000F043FA234B8000C55048
:1054F0002800FFF791FF01230100220002933000F2
:105500002300049403940194009400F033FAA863F8
:105510002800FFF781FF01230200210001933800DA
:105520002300049403940294009400F023FAE863A7
:10553000402006F007FF2A0048322864079200281E
:105540000BD00123137068646B6C10221819E96B7F
:10555000103406F00BFF402CF6D1079B1B78002B74
:1055600005D1380000F076F9300000F073F909B089
:10557000F0BDC046115300008C16002070B5437A70
:105580000400002B03D1012243814272C360230037
:1055900048331B78002B02D12000FFF771FF18263B
:1055A0003300082120790D4D4343EB18595603F081
:1055B0007FFD33000821A0794343EB18595603F0CF
:1055C00077FD082160794643AD19695603F070FDF7
:1055D000034B200006CBFFF7E1FE70BD20F000007A
:1055E000841600201FB5094A094B0A49136000239D
:1055F00093800293013301931633009316220133F3
:105600000548FFF791FE05B000BDC0468416002096
:1056100000093D00AC22002038160020084B196814
:10562000002909D1EFF31080064A002803D172B691
:10563000BFF35F8F013111701A6801321A60704731
:105640004818002044180020084B1A68002A0CD083
:105650001A68013A1A601B68002B06D1044B1B78AC
:10566000002B02D0BFF35F8F62B67047481800204E
:1056700044180020FF2310B50370C023002104004C
:105680009B004170418083800C22083006F077FE39
:10569000200010BD01230A0010B51A40194208D09D
:1056A0000C4A1370033343708368002B00D0984773
:1056B00010BD0223194204D006490B70C368427022
:1056C000F3E704231942F3D0024A13700333437003
:1056D0000369EAE74E48004110B5FFF79FFF0C4B06
:1056E0001B8C1B071B0F0B2B0FD80A4A99008858DD
:1056F00000280AD00F2408490A78A24313430B70EC
:10570000064B1978C9B2FFF7C5FFFFF79DFF10BD23
:10571000004800414C1800203F4800414E480041DD
:10572000F8B500230278050018000B2A77D93C4E03
:105730002B702B780B2B07D801229A40316811422D
:1057400004D001332B70F4E7012068E0FFF766FF17
:105750003768344C002F2BD12022334B3348596902
:105760000A435A611022D9690A43DA610222238866
:105770003900934323802388013A134323802C4B21
:105780006063BF32A36306F0FAFDC02239002848E7
:1057900006F0F5FD4022C120264B80002380264BD9
:1057A00026491A601A581140C02212040A431A509E
:1057B00001231A00297830688A40024332600F269C
:1057C0001F4A880085501F4831400278B2430A437F
:1057D000027002201C4A117881431170117819431C
:1057E0001170297822698B409A43226160223F21FF
:1057F000636C934363642A79636C0A401349120211
:105800000B400321134363646A79636C0A401049B7
:1058100092050B4013436364FFF716FF0020F8BDA9
:10582000401800200048004100040040801700207C
:10583000C0160020020F000000E100E0FFFF00FFA3
:105840004C1800203F48004140480041FFC0FFFF86
:10585000FFFF3FFF70B50500FFF7E0FE6B785CB21D
:10586000062B2BD02B7802240B2B27D801229A4011
:10587000144B1968114221D01968914319601B68B3
:10588000002B14D14022104BDA67BFF34F8FBFF3C8
:105890006F8F21000D4A0E311388A34313800C4BE8
:1058A000DA698A43DA615A6910318A435A610024FD
:1058B0002B78084A9B009C50FF232B70FFF7C4FEF7
:1058C000200070BD4018002004E100E000480041C5
:1058D000000400404C180020023292001150704722
:1058E000037870B505000C0001710B2B14D8FFF77D
:1058F00095FE29780F25094829400378084AAB43CB
:105900000B4303703F23516C1C40064B240219408B
:105910000C435464FFF798FE70BDC0463F480041F9
:1059200000480041FFC0FFFF037870B505000C0080
:1059300041710B2B14D8FFF771FE29780F25094808
:1059400029400378084AAB430B4303700323516C8F
:105950001C40064BA40519400C435464FFF774FE29
:1059600070BDC0463F48004100480041FFFF3FFF77
:1059700000787047F0B587B001930CAB1E780DAB83
:105980001B78050002930EAB1B780078039310ABD5
:105990001F78049105920B2802D9002007B0F0BDB2
:1059A0006B78062BF9D0AB78002B00D179E0102171
:1059B000080006F0BDFC0028EFD02B783B4A1B0105
:1059C0009B181A00D168002904D0D1688B4201D0FD
:1059D000D268F7E7D06001220223AA70964203D072
:1059E000DB18022E00D01300062401881143018029
:1059F0000188A143018001881234A1430180153C34
:105A0000018826402A4C360221400E430680029E21
:105A10000188284C16402140B6020E430680039EA2
:105A20000188254C16402140F6020E43068001886D
:105A3000224E3A40314012030A43072102800F9A56
:105A4000114002884903D204D20C0A4302806A46FC
:105A500092884280049A4260029A002A08D0019AF1
:105A600041685A43002F01D00F9CA2408A1842601F
:105A7000059A8260039A002A09D0019A84685A43E1
:105A80001300002F01D10F9A9340E3188360002385
:105A9000EA789A4203D02B78044A1B019B18C36012
:105AA0007CE7024B0001C01895E7C0468017002034
:105AB000FFFCFFFFFFFBFFFFFFF7FFFFFFEFFFFF15
:105AC000F0B5150005AA1488827E022A00D16BE089
:105AD000032A00D19FE0012A00D06DE0EA43058946
