:1000000000800020558400001D8400003F84000013
:1000100000000000000000000000000000000000E0
:100020000000000000000000000000003F8400000D
:1000300000000000000000003F840000A9840000D0
:100040003F8400003F840000013D00003561000056
:10005000E18300003F840000C152000041840000A1
:100060003F840000C56200003F8400003F84000020
:100070009D4000003F840000D56200003F840000E6
:100080003F8400003F8400003F8400003F84000064
:10009000396C00003F8400003F84000001610000D3
:1000A0003F8400003F8400003F8400003F84000044
:1000B0000000000010B5064C2378002B07D1054B3B
:1000C000002B02D0044800E000BF0123237010BDC4
:1000D000400400200000000000D50000044B10B5D3
:1000E000002B03D00349044800E000BF10BDC04608
:1000F000000000004404002000D500000122014B54
:100100001A707047DD0E002070B506000C2008F054
:100110007DFB08250024300008F0E2FB013D0419B6
:1001200024B2002DF7D10723E01718400019C010A2
:1001300080B270BD70B505000C00272917DD002ABC
:1001400000D00334782C00DD78242000FE245021D8
:100150002838FF344942604308F05CFF8B239B0042
:10016000C11889B20E20698008F032FC70BDEE2102
:10017000FF3141800E2008F02BFC283C054B640029
:10018000E35E0A220D215A43AB80034803F0FEFFD1
:10019000ECE7C04602BA00005401002010B54388C5
:1001A00004888B4215D20179104B5B1AA34200DD03
:1001B00023005B1803800188C2880023914205D385
:1001C0004379994200D31300038001230372007A1C
:1001D00010BD42791300A24206D80179034B5B1A85
:1001E000A34200DD23009BB29B1AE3E7FFFF000060
:1001F00010B5084C01233C220221200005F018FD17
:10020000200005F0A1FC200005F0FEFD024B63611B
:1002100010BDC046AC04002001000100F0B5324D15
:1002200085B02800002405F08FFC20270826012334
:10023000220021002800029303942C4B0197009682
:1002400004F048FC012322003100280002930394AB
:10025000274B0197009604F03DFC01232200280063
:1002600002931021234B03940197009604F032FC73
:10027000012322002800029318211F4B03940197A9
:10028000009604F027FC0123220039002800029385
:1002900003941A4B0197009604F01CFC01232200E2
:1002A000280002932821164B03940197009604F02E
:1002B00011FC01232200280002933021114B0394EA
:1002C0000197009604F006FC012322003821280043
:1002D000029303940C4B0197009604F0FBFB28005B
:1002E00005F092FD05B0F0BDAC04002062040020D2
:1002F00042000020660000208A000020AE0000209E
:10030000D2000020F60000208604002010B5044C26
:10031000200005F019FC200005F076FD10BDC04658
:10032000AC04002010B50C4C200005F00DFC2000A2
:10033000022104F0DAFD002320002361074906F0C2
:100340003BF880235B0306492361200006F034F864
:10035000200005F059FD10BDAC04002058B7000086
:100360005DB7000010B50C4C200005F0EDFB20003F
:10037000022104F0BAFD002320002361074906F0A2
:100380001BF880235B0306492361200006F014F864
:10039000200005F039FD10BDAC04002061B700005D
:1003A00065B70000F0B58027032685B07F031E4C9B
:1003B0004B25200005F0C8FB0221200004F095FD2C
:1003C00000231A492361200005F0F6FF1849200098
:1003D000276105F0F1FF200005F016FD0A20013D20
:1003E00008F0A6F8002DF9D1200005F0ADFB01239F
:1003F00003931F330193203320002A002900009328
:1004000002950C4B04F00BFB200005F0FDFC4B2487
:100410000A20013C08F08CF8002CF9D1013EB6B25C
:10042000002EC4D105B0F0BDAC0400206AB70000B6
:1004300065B7000002B90000F0B50025092791B0AA
:1004400000900191019BAB422BDD174C200005F081
:100450007BFB2000022104F048FD144E2A003100ED
:10046000276103A80AF0DAFA200003A905F0A4FF27
:100470000F4B009A23616B00D25A310003A80AF097
:10048000CDFA200003A905F097FF200005F0BCFC81
:1004900021240A20013C08F04BF8002CF9D1013549
:1004A000D0E711B0F0BDC046AC04002070B700002A
:1004B00009001000AA4AF8B51168050001230800D8
:1004C0001840194202D1A74913608870A64A012337
:1004D000116808001840194202D1A44913608870BD
:1004E000A34A0123116808001840194202D1A1490A
:1004F00013608870A04A012311680800184019424F
:1005000002D19E49136088709D4A0123116808003A
:100510001840194202D19B49136088709A4A0123FE
:10052000116808001840194202D198491360887078
:10053000974F984E002D20D00123974A0B2413701B
:10054000964A1370964A1370964A1370964A13701F
:10055000964A13700023964A3B701370954A337085
:100560001370954A1370954A1370954A1370954A03
:100570001370954A13702000F8BD3B78002B21D0F2
:100580002900784803F0DAFB0B24002800D03D70E6
:100590003778002F5CD00021744803F0CFFB00288F
:1005A00001D000233370884B1D78002D00D194E0DA
:1005B0000021704803F0C2FB0028DCD00023824AEF
:1005C0001370D8E7032008F045FB03005A1E93413F
:1005D000744A1370704B1B78002822D1674C002B93
:1005E0000BD032215F4803F09BFB012320007749A9
:1005F0003B7003F095FB0B240EE02900200003F074
:100600009DFB0028F7D0FA210122694B2000490008
:100610001A70042403F084FB624B5F4A1B7813704A
:10062000B6E7664C002B07D132214E4803F078FB29
:1006300001233B702370DEE72378002BDBD05C4B7B
:1006400025701A780924002AE6D01D700234E3E7E9
:10065000042008F0FFFA03005A1E9341524A137017
:100660004E4B002821D11978464D00290ED0322159
:100670003E4803F055FB012328005449337003F032
:100680004FFB494B454A1B7813708CE7280003F059
:1006900055FB0028F5D0FA210122464B28004900DD
:1006A0001A70052403F03CFBEBE71B78444D002B4C
:1006B00007D132212D4803F033FB012333702B7017
:1006C000DFE72B78002BDCD03A4B2F701A78002A0A
:1006D00001D01F70D5E70A24D3E7072008F0BAFA43
:1006E00003005A1E9341314A2D4F137000281DD12B
:1006F0003978264D00290ED032211E4803F010FB18
:100700000123314A31491370280003F009FB274BBC
:100710001B783B702FE7280003F010FB0028F6D071
:100720000124FA21244B49001C70EDE73B78254E4B
:10073000002B08D132210F4803F0F2FA0123224A9C
:1007400033701370E3E73378002BE0D01A4B357029
:100750001A78002A01D01D70D9E70624D7E7C046D1
:10076000400E00205E0E0020480E0020680E002083
:10077000500E0020720E0020440E0020620E002059
:100780004C0E00206E0E0020540E0020780E00202B
:100790005A0E00205C0E00201D0100201E010020CA
:1007A0001F0100201A0100201B0100201C01002055
:1007B000660E00206C0E0020760E0020580E0020E1
:1007C000590E00205B0E00205D0E00201A04000070
:1007D000F8B5242706260C2502242F4B0800198083
:1007E000012108F0DBF93A002C492D4809F020FDE1
:1007F0002C4B3A002C492D481E8009F019FD2C4B3A
:100800002A002C492C481E8009F012FD2B4B2A008F
:100810002B492C481C8009F00BFD2B4B2A002B493F
:100820002B481C8009F004FD2A4B2A002A492B483A
:10083000AD191C8009F0FCFC294B2A0029492A48E3
:100840001C8009F0F5FC294B2A000134284929486D
:100850001C8009F0EDFC284B2A00284928481C8000
:1008600009F0E6FC274B3622274928481C8009F06E
:10087000DFFC0922264B27491A8027483A0009F055
:10088000D7FC264B1822264926481E8009F0D0FCAA
:100890000422254B1A80F8BD4000002090BB0000C8
:1008A000A80C0020621300203CBB0000F8070020C9
:1008B0005613002040BA0000700D00206413002081
:1008C00084BB0000300700205413002034BA00001D
:1008D000E00B00206013002078BB0000180B002004
:1008E0005E130020B4BB0000D80400204E1300208B
:1008F00000C00000A0050020501300206CC00000C4
:10090000680600205213002012C000008809002051
:100910005A13002048C00000500A00205C13002039
:1009200060BB0000C00800205813002010B501294A
:1009300007D1C8222F4909F07BFC2F4B1B881800D8
:1009400010BD022905D1C8222C4909F071FC2C4B9D
:10095000F4E7032905D1C8222A4909F069FC2A4B8A
:10096000ECE7042905D1C822284909F061FC284B8D
:10097000E4E7052905D1C822264909F059FC264B90
:10098000DCE7062905D1C822244909F051FC244B93
:10099000D4E7072905D1C822224909F049FC224B96
:1009A000CCE7082905D1C822204909F041FC204B99
:1009B000C4E7092905D1C8221E4909F039FC1E4B9C
:1009C000BCE70A2905D1C8221C4909F031FC1C4B9F
:1009D000B4E70B2905D1C8221A4909F029FC1A4BA2
:1009E000ACE700230C29AAD1C822184909F020FC41
:1009F000174BA3E7A80C002062130020F807002083
:100A000056130020700D00206413002030070020D2
:100A100054130020E00B002060130020180B00206E
:100A20005E130020D80400204E130020A0050020F3
:100A3000501300206806002052130020880900206F
:100A40005A130020500A00205C130020C008002028
:100A500058130020F0B5B3B081B26846FFF766FFC7
:100A60000A210500154803F05BF90024032120004A
:100A700008F046FA80B2A8421ED2104E0021300083
:100A800003F05CF90028F8D06B466946671C7F00CC
:100A9000DA5B6300C95A0A4B188805F0F7FF6A460B
:100AA000A31C5B00D15AD35B3000C91889B2033450
:100AB00003F036F9A4B2D9E733B0F0BD88130020B3
:100AC00040000020F0B59C4C9C4DA5446B696A46E3
:100AD00029690600280005F089FAE022984C694649
:100AE0002000920009F0A4FB607CA37C00285ED16A
:100AF000002B58D1C8225200628002221900FF3216
:100B00006360A360E36022612675E38223838D4ADC
:100B1000D1520233642BFAD1002318008A4FD9191D
:100B200002330880522BFAD100239C468749624643
:100B30005818023302802A2BF9D12088DF23933002
:100B4000FF30861900209B00E6507E4A125A023080
:100B5000944666446428F8D1E6500023FA5A0233DA
:100B6000B618522BFAD1DF2300229B00E650885A98
:100B7000023236182A2AFAD1E02221009200684671
:100B8000E65009F055FB28006A69296905F01CFA4E
:100B90006A4628006B69296905F0CAF96C496D48F5
:100BA00005F01CFC0120E1239B009D44F0BD0020CA
:100BB0008342F8D1674D6849280005F00FFC67496A
:100BC000280005F00BFC0A222188280005F06FFCA4
:100BD0000A226188280005F06AFC0A22A188280000
:100BE00005F065FC0A22E188280005F060FC0A2275
:100BF0002189280005F05BFC0A226189280005F0A4
:100C000056FC0A22A189280005F051FC0A22E1893C
:100C1000280005F04CFC0A22217C280005F047FC46
:100C20000A22617C280005F042FC0A22A17C2800EF
:100C300005F03DFC0A22E17C280005F038FC0A2280
:100C4000217D280005F033FC0A22E18A280005F006
:100C50002EFC0A222800218B05F029FC2600718B2E
:100C60000A22280005F01FFC3D4F2800390005F03E
:100C7000A3FB3C4B02369E42F1D1280005F0A6FBB7
:100C80000026314B0A22995B280005F00CFC023645
:100C90003900280005F090FB522EF2D1280005F013
:100CA00095FB0026294B0A22995B280005F0FBFBE7
:100CB00002363900280005F07FFB2A2EF2D12800E9
:100CC00005F084FB002263882088C018A3881B18C5
:100CD000E088C01823891B186089C018A3891B18D5
:100CE000E089C018237C1B18607CC018A37C1B18EB
:100CF000E07CC018237D1B18E08AC018238B1B18CA
:100D00001048815A02325B18642AFAD100220E4937
:100D1000895A02325B18522AF9D100220B49895AAA
:100D200002325B182A2AF9D1DF229200A058C01A99
:100D300043425841C0B236E77CFCFFFFE80E00207A
:100D4000080F0020220F0020860F0020D80F00205F
:100D500075B70000A01F002082B7000097B7000001
:100D6000A8B700006C0F00200839030010B5080078
:100D7000082908D808F0BAF8353A07070707081E07
:100D800005001D4AD38110BDFA22181CD2009342DF
:100D900000DD101C030400D50020322100B208F051
:100DA00039F900B2144B3C3040001818C3880133A5
:100DB000C380E8E7114A181C934200DD101C104B59
:100DC00002B29A4200DA181C0E4B00B2C01814216D
:100DD00008F020F9084A68304000835A01338352F2
:100DE000D1E719004A1E9141034AD174581E83412C
:100DF000014A1375C7E7C046080F00200410000021
:100E0000E40C00001CF3FFFF00B5042809DC0028F7
:100E100009DB0138114B032806D808F067F8090DE3
:100E20001115152814D000BDDA880132DA80FAE7EE
:100E30001A8901321A81F6E75A8901325A81F2E79A
:100E40009A8901329A81EEE79A8801329A80EAE71C
:100E5000024A138B01331383E5E7C046080F0020D5
:100E600030B5294900204A880B88284C9B188A886D
:100E7000274D9B18CA88A5449B180A899B184A8944
:100E80009B188A899B18CA899B180A7C9B184A7CE4
:100E90009B188A7C9B18CA7C9B180A7D9B18CA8A5F
:100EA0009B180A8B9B18DF2292008B502C5A023021
:100EB0001B196428FAD18B500022164CA05A02321A
:100EC0001B18522AFAD1DF2200209200124D8B50BB
:100ED0002C5A02301B192A28FAD18B50E02268467E
:100EE000920009F0A5F90D4C20006269216905F016
:100EF0006BF86A4620006369216905F019F8E1235F
:100F00009B009D4430BDC046080F00207CFCFFFFC5
:100F1000220F0020860F0020D80F0020E80E0020AE
:100F2000F7B5A025A126009200220193124B6D0077
:100F30007600A224A4465F889C4464461F801F005C
:100F40002488A0373C80F1249F5B64005F531F5BC3
:100F50000132023C1F5302334F2AEAD1074B4A3277
:100F6000FF329852A03299520099A03299520199B9
:100F7000A0329952F7BDC04602100020080F002091
:100F800010B5374C3748A544436901696A4605F0F6
:100F90002DF8E022344C92006946200009F048F90F
:100FA0006A4623683148009363680193A3680293FB
:100FB000E3680393237C1382637C5382A37C938234
:100FC000E37CD382237D1383E38A5383238B938330
:100FD00000231A00C15A6A440233D183642BF8D12A
:100FE0008222002322486A44C15AD1520233A02BE4
:100FF000FAD19122002352001E486A44C15AD152AC
:101000000233A02BFAD1E122002352001A486A448D
:10101000C15AD1520233A02BFAD10023174A1848E3
:101020006A44C15AD1520233A02BFAD10023154A87
:1010300015486A44C15AD1520233522BFAD10023C7
:101040001248D5AAC15AD15202332A2BFAD1C02153
:101050006846FF31FFF7F0F9E0239B009D4410BD87
:1010600080FCFFFFE80E0020080F0020220F002068
:1010700002100020A2100020421100206202000095
:10108000E211002002030000860F0020D80F00208C
:10109000074B70B504001A003234057801305D83C7
:1010A0000233A042F9D1D182FFF7DAFE70BDC0460B
:1010B000080F0020064B01001A0010B532315C8B7E
:1010C0000233047001308842F9D1D08A10BDC04685
:1010D000080F0020F0B595B007AF3800FFF7EAFF22
:1010E00000243A4D0590280004F02EFD022128002E
:1010F00003F0FBFE280036492C6105F05DF90C2356
:10110000059A03265343334A403B1BB21380A34244
:1011100033DA314B1C80059BA34212DD2E4E3B5D22
:101120000022B15E0222029200220192013200925C
:1011300028000F3203F050FE338801340C33338023
:10114000E9E7280004F060FE15B0F0BD1F4804F088
:101150005BFE0A2007F0ECF90A2007F0E9F90A2003
:1011600007F0E6F90A2007F0E3F90A2007F0E0F9B2
:10117000013403E0013E002EE6D000240321154B8C
:1011800000229A5ED3170B409B189B100133A34299
:10119000F0DB042300255B4263430F4A1380059B69
:1011A000AB42D3DD0C4F07AB0022B95E0222EB5CF1
:1011B0000292002201920132009204480F3203F0A1
:1011C0000BFE3B8801350C333B80E8E7AC04002084
:1011D000AAB70000DA120020C80E0020F0B585B0D2
:1011E000002903D04D4B1A684D4B1A6008F0BCFE25
:1011F000051C08F03BFF4B4C02000B0020004A4945
:1012000005F0F6F8464E4949306808F09FFA832108
:10121000071CC905281C08F0A5FB454908F096FAEB
:10122000011C381C08F0B8FC051C08F01FFF020068
:101230000B0020003F4905F0DBF83F4F386808F00D
:1012400015FF02000B0020003C4905F0D1F838687A
:10125000291C08F0A1FC051C08F008FF02000B0087
:101260002000374905F0C4F8FF21281C890508F043
:1012700079FB019008F0FAFE02000B0020003149D2
:1012800005F0B6F8304F281C396808F0C3F82F492C
:10129000386008F067FB029008F0E8FE02000B00DF
:1012A00020002B4905F0A4F82A4F386808F05CFEAE
:1012B000011C281C08F070FC274908F053FB039020
:1012C00008F0D4FE02000B002000244905F090F83D
:1012D0003068164908F03AFA019908F09BF802992B
:1012E00008F098F8039908F095F8306008F0BEFE11
:1012F00002000B0020001A4905F07AF80B4930680B
:1013000008F030FB041C3060281C08F00DFE38602B
:10131000201C08F009FE05B0F0BDC046380E0020C4
:10132000DC130020D4220020AEB7000000002041D2
:1013300000007A44BEB700003C0E0020C9B7000090
:10134000D5B70000E4B70000040F00208FC2F53CC1
:10135000EFB70000181300200AD7A33CFAB700002B
:1013600005B8000070B50E1C0A49041C08F0EEF91F
:101370008321051CC905301C08F0F4FA064908F061
:10138000E5F9011C281C08F007FC044B1860044B0D
:101390001C6070BD0000204100007A443C0E00201B
:1013A000380E002010B50449044805F021F8FA2051
:1013B000800007F0BDF810BD0FB80000A01F00208E
:1013C000F7B505000C200E000192082707F01EFA61
:1013D0000024280007F084FA013F041924B2002FEA
:1013E000F7D10723E017184004192248E4104443BA
:1013F000E0170005000D0019FA2400136043962140
:1014000007F008FE64251C4BC4186C431B4B9C4220
:1014100015DB1B4B9C4228DC20001A4907F0FAFD23
:10142000194B05B29C420CDC0123019A0920137070
:101430003370FFF70FFBFEF7B5FF2800FEBD3D0040
:10144000F2E7124B9C4210DC019B19241F70012310
:101450003370FEF787FF0B20FFF7FCFA0A20013CF0
:1014600007F066F8002CF9D1E7E70023019A337002
:101470001370E2E7B80B00001CF3FFFF13FDFFFF42
:10148000E5270100EE02000093110000DF2E0000AE
:1014900030B5002185B04748002404F039FBE02234
:1014A000454B46499C709200454804F029FD642153
:1014B000444B14229C70444B96209C70434B8000FC
:1014C000D980FA215A80F6321C809A80404B8900DC
:1014D0001C8059809A80D8803E4B3F481C805880A1
:1014E000C82080009A80D8803C4B0B2059803C4912
:1014F0001C809980C8214900D9803A4B3A499A808A
:10150000423ADA80C8221C805980384B12015A8036
:101510000222FF321C809A809622354D1201DA8019
:101520002880012107F03AFB0023E85E210007F044
:1015300065FB304D22002800302102F0C3FD00235E
:10154000322202210092019328000294313A02F0E3
:1015500089FE294B9C70294B9C70294B9C70294B10
:101560009C70294B9C70294B9C70294B9C70294B7B
:101570009C70294B9C70294B9C70294B9C70294B6B
:101580009C70294B9C70294B9C70294B9C70294B5B
:101590009C70294B9C70294B9C70294B9C70294B4B
:1015A0009C70294B9C70294B9C70294B9C7005B0FA
:1015B00030BDC046AC0400208813002000BC0000F1
:1015C000E80E002020130020820E0020860E00204E
:1015D000DE120020F812002088130000E013002023
:1015E000010A0000341300206C0700008A1200205A
:1015F0005C040020540100201C130020C0130020B4
:1016000090130020B8130020D4130020A81300204A
:10161000A013002094130020A4130020981300208E
:10162000BC130020B0130020AC1300208C1300204A
:10163000D81300208013002084130020CC13002036
:10164000C8130020C4130020D01300209C130020D6
:10165000B413002073B51B4C06000421200003F0D6
:1016600044FC194B002163611E230A0020000191F4
:101670000093223302F02CFF0A21300007F0CAFC4D
:101680000A2501B26D424D430F23AD19632E00DDD3
:101690000E4B23610A22200004F005FF0123019371
:1016A0000233200000931922262102F011FF2C237F
:1016B00029000A222361200004F0F5FE200004F036
:1016C000A3FB73BDAC04002001000100FCFF00007F
:1016D000F0B5334C060085B0200004F035FA6425DF
:1016E000642E02DCF543ED1735400321200003F0A2
:1016F000FCFB2C4B002163611C230A00009320009B
:101700000191243302F0E4FE092E3EDC264B290031
:1017100023610A22200004F0C6FE002601272023B0
:101720000822200001930092322132001F4B0396C1
:10173000029703F0CFF920230822200001930092A2
:101740003A2132001A4B0396029703F0C3F9122391
:1017500000930C3B1A0020003621019702F0B8FEDE
:101760000A20372168434942019607F053FC0623BB
:10177000123000B21A0036210090200002F0A8FEBC
:10178000200004F041FB05B0F0BD132E01DC094B35
:10179000BDE7632E01DC084BB9E78023DB02B6E727
:1017A000AC040020010001001F0004000000002024
:1017B00020000020120004000D000400F0B50123F9
:1017C00005002A4C2A4E85B0002923D0236000232F
:1017D00033602368274F9BB2019320231E2200937E
:1017E00000213800DB1802F073FE002D14DC2368A2
:1017F00038009BB2019320231E2200930421DB18A2
:1018000002F066FE380004F0FFFA1A4804F0FCFA11
:1018100005B0F0BD2160DBE7291C0F2D00DD0F2195
:1018200000250BB203933368124F9BB20193072339
:10183000ADB2A90000931E22053B380009B202F0A8
:1018400047FE0135039B2DB2AB42ECDA1900236849
:1018500001319BB201931223890000931E223800AC
:1018600009B22E3302F034FECFE7C046A80E0020A6
:1018700040010020AC04002070B50A4C0D0000228D
:10188000A35E834200DA20800023E05EA62153306D
:1018900007F0C0FB290000B2FFF790FF0023238070
:1018A00070BDC0467C0E002013B5011E0D4C0FD03C
:1018B0000D4B1E221B6800219BB20193072300934E
:1018C000053B200002F004FE200004F09DFA13BD49
:1018D000064B1E221B689BB2019307230093053B16
:1018E000EFE7C046AC04002040010020A80E002015
:1018F000F0B500250224012689B0FEF779FCCC4F13
:10190000380004F021F90221380003F0EEFAC94B47
:101910003D617B612A001B23290038000294019558
:10192000009603F059FA41232A001C213800029442
:101930000195009603F050FA1A232A00342138004A
:1019400002940195009603F047FA380004F05CFA1F
:101950001022B94B1D80B94B1A80B64B0793B84B78
:101960001B78002B00D006E2B64D2B880B2B2DD117
:101970000020FEF79FFDFA2128804900B24802F0BE
:10198000DDF90028F0D0B14BB14D0021595EAB4BD1
:1019900000229A5E2B78002B0FD0002301260193A2
:1019A000009616333800029403F016FA2B785E4046
:1019B0002E70380004F028FAD6E701202870009035
:1019C00002943800019303F007FAF2E7092B01D0E3
:1019D000042B32D19F4AA04E12883378013A00215D
:1019E000934201D00133D9B2317000250E232A0071
:1019F0000093102116333800019502F069FD337809
:101A0000964AD35C112B12D1102395493B613800C3
:101A100004F0D2FC934B1B78002B35D1380004F036
:101A2000F3F90020FEF746FD864B188097E7FA2B66
:101A300013D110238C493B61E9E70A2B01D0052B18
:101A400015D1854E3278531EDBB2002A03D1814B6B
:101A50001B88013BDBB23370C7E701221C210092D7
:101A600038002A000294019503F0B6F9D2E7062B5C
:101A700001D0012BCED1784B784A1B78D25CFA2A60
:101A800045D1784BF93A1A7000260125380004F048
:101A90005BF859233200310038000294019600951A
:101AA00003F09AF94E233200342138000294019653
:101AB000009503F091F9059606956A4E3378002B50
:101AC000ACD00020FEF7F6FC5E4B80B218800928EF
:101AD00002D0042800D081E00025069B10222900B6
:101AE0003800009302942B00019503F075F9069BD2
:101AF000102200933421182338000294019503F03A
:101B00006BF901230593380004F07EF9D5E7574BB4
:101B10001B88112A3BD1002B11D00021544AD21826
:101B2000013A1170013B1A1C9BB20F2B00D90F22F6
:101B30004E4B91B21A804F480A2204F0B8FC102292
:101B400000254023290000923800019502F0C0FCD6
:101B5000464B394A198804291DD81580364E002372
:101B6000F15E424B1B88AB4233DD344A404B0020D0
:101B7000125E0020EB5C019001300090029438006E
:101B800003F02AF9338801350C333380E6E738490E
:101B9000CA540133C7E70C235B424B4334331380F1
:101BA000254E0023F15E314B1B88AB4211DD234AE9
:101BB0002F4B0020125E0020EB5C01900130009062
:101BC0000294380003F008F9338801350C33338070
:101BD000E6E7194B1A881D4B1A801BE70A2801D02B
:101BE000052816D10025069B1022290038000093F5
:101BF00002941823019503F0EFF8069B102200933E
:101C000034212B0038000294019503F0E5F80223FB
:101C100078E7062802D0012800D074E7059B022B44
:101C20002AD1074B069A1A70002333706BE7C0461F
:101C3000AC04002001000100C80E0020CC0E0020E2
:101C4000CE0E0020A00E0020820E0020CA0E002022
:101C50006901002062010020A40E00202001002064
:101C600022B800007E0E002026B80000D812002006
:101C7000A4120020A01F0020059B0025012B78D175
:101C80003800357003F060FF2100380003F02DF9B3
:101C9000079B3D617B61059B2A002900380000936A
:101CA00002941B23019503F097F8059B2A001C2141
:101CB0003800009302944123019503F08DF8059BB1
:101CC0002A0034213800009302941A23019503F06E
:101CD00083F8380004F098F8102140230A0000919E
:101CE0003800019502F0F4FB744B754A19880429F9
:101CF00019D81580724E0023F15E704B1B88AB42E1
:101D00002FDD704A704B0020125E0020EB5C0190CA
:101D1000069802940090380003F05EF8338801358D
:101D20000C333380E6E70C235B424B4334331380A0
:101D3000634E0023F15E614B1B88AB4211DD614AAB
:101D4000614B0020125E0020EB5C0190069802942B
:101D50000090380003F040F8338801350C333380AD
:101D6000E6E7574B1A88594B1A800022584B1A70D5
:101D7000C9E60595C7E60024380003F0E5FE55499D
:101D800038003C6104F018FB4C4B53481A880C2374
:101D900053439BB21900403909B20180A1422CDAA9
:101DA0000226474B1C80454B1B88A34214DD444D43
:101DB000444A454B0021525E0020295E0020E35C2E
:101DC0000190013000900296380003F005F82B884E
:101DD00001340C332B80E6E7380004F015F8374B5C
:101DE00039481988FFF754F9C8240A20013C06F045
:101DF0009FFB002CF9D109B0F0BD140032498818BE
:101E00000138013C02D306784671F9E75700C8193A
:101E100049000D0005240026391A013C06714E5573
:101E20000138002CF8D125490A320A802A4A383371
:101E30001380033400250321274B00229A5ED31719
:101E40000B409B189B100133AB4233DB042300266D
:101E50005B426B431A4A1380184B1B88B34215DD53
:101E6000174F184A184B0021525E0020395E02209D
:101E7000F35C02900020019001300090174802F0BE
:101E8000ABFF3B8801360C333B80E5E7134803F09A
:101E9000BBFF0A2006F04CFB0A2006F049FB0A2093
:101EA00006F046FB0A2006F043FB0A2006F040FB42
:101EB0000135C0E7013C002CBCD190E7D8120020CE
:101EC000C80E0020CC0E0020A4120020CA0E002054
:101ED000A40E0020AAB70000DA120020AC040020F3
:101EE000F0B5B54D87B02B88A12B1DD1B34C200088
:101EF00003F02AFE0121200002F0F7FFB04BB149A8
:101F00002361200004F058FA0123002201931F33BB
:101F1000110020000093203302F00EFB200003F09C
:101F200073FF0720FEF796FD032006F093FE0028BE
:101F300003D10A2006F0FCFAF6E7042006F08AFE38
:101F40000028F6D032260A20013E06F0F1FA002ED3
:101F5000F9D19D4C01202670FEF7ACFA01362378AA
:101F60000493002B15D10A2006F0E2FA0498FEF73C
:101F7000A1FA964B188083B21A00093A012AEED9C9
:101F8000043B012BEBD9062801D00128E7D12670AC
:101F9000E5E72B88A12B5CD10025884C0226200088
:101FA00003F0D2FD0221200002F09FFF88492000AB
:101FB000256104F001FA1E2320002361854904F005
:101FC000FBF9854B1F780296AF4244D101231D00D7
:101FD000009310223B0008212000019702F0FCFE34
:101FE0002B00029601970095173310222C21200018
:101FF00002F0F2FE0120FEF75DFA01270A2006F04A
:1020000097FA0020FEF756FA744B80B26B4E188098
:10201000092801D004282DD10025022310220821EF
:102020003000029301952B00009702F0D5FE0223A9
:10203000102202932A21163330000195009702F0F6
:10204000CBFE654B1D70049D5C4803F0DDFE002D4A
:10205000D4D107B0F0BD01231F0000931022173325
:1020600008212000019502F0B7FE2B000296019591
:102070000097BAE70A2801D0052817D100250223C6
:10208000102208213000029301951633009702F0C8
:10209000A3FE0223102202932A212B003000019577
:1020A000009702F099FE4C4B1F70CCE7062802D037
:1020B000049D0128C8D10025200003F045FD39000A
:1020C000200002F012FF46492000256104F074F957
:1020D000102310220093290030332000019702F0D2
:1020E0002BFA102305936421280006F093FF059A2C
:1020F00003B20021300000920197102202F0E8F9AB
:102100000A2006F015FA0A2006F012FA300003F051
:102110007BFECA2340355B019D42E4D132250A2073
:10212000013D06F005FA002DF9D12B4E2D4B3278EA
:102130001A75FEF795FE33782000224E002B1DD035
:1021400003F002FD0221200002F0CFFE31002561E4
:10215000200004F031F980235B031D492361200036
:1021600004F02AF9200003F04FFEC8350A20013D93
:1021700006F0DEF9002DF9D1002565E703F0E4FC57
:102180000221200002F0B1FE31002561200004F0A0
:1021900013F980235B030F492361200004F00CF93D
:1021A000200003F031FEC8250A20013D06F0C0F9E9
:1021B000002DF9D1E0E7C04650010020AC0400201A
:1021C00011000C002AB80000E40E00203C010020A1
:1021D000E0B80000E7B80000D6120020A00E0020F2
:1021E00030B80000080F0020E121F0B5BC4D87B0E9
:1021F0002800090205F0C0FDBA49280004F0EEF8F5
:10220000B94801F00FFEB94801F074FDB84C020066
:102210002080B849280004F0EBF82388B64CDA0790
:1022200000D405E12800B54904F0D8F81023238034
:102230000221072006F0B2FC0221032006F0AEFCCA
:102240000221042006F0AAFC01210D2006F0A6FCC4
:102250000121080006F0A2FC01210D2006F0CEFCB1
:102260000121080006F0CAFC20880300113B012B65
:1022700000D83CE3152800D1ABE2A14B112019880E
:10228000FEF7A6FAFDF7B4FF0020FEF71BFC0028BE
:1022900002D101229B4B1A709B4B1B7C002B00D15F
:1022A00005E10122994B9A481A7003F04DFCFA217E
:1022B0009848890001F034FD944B1C78002C00D123
:1022C000E6E00F20FDF720FF0A23934C0F21604327
:1022D0000013584306F09EFE904B18801220FDF725
:1022E00013FFD0232721584306F094FE44438C4B20
:1022F0002413002187481C8001F020FD002848D0CD
:10230000884B894F1C683868210006F0F9FD874E1C
:1023100021003860306806F0F3FD002300227C4C79
:10232000306001932033110020000093123302F03B
:10233000CFF80121200002F0D8FD002320003A68E8
:102340007B49236104F054F880235B0332687949A8
:102350002361200004F04CF8774A3B6877499B18CA
:1023600032222261642B00D97549200004F040F824
:10237000C821744A336889009B18734A22618B42D2
:1023800000D97EE06D49200004F032F8200003F00F
:102390003BFD64216D4801F0D1FC002817D0624A52
:1023A0005E4B11681B880D205B1813605F4A5C4B05
:1023B00011681B885B18012113605A4A13680133A6
:1023C0001360634B1A785140197006F017FC3221E4
:1023D000604801F0B3FC002807D001215E4B0B20C0
:1023E0001A785140197006F009FCFA215B4849003F
:1023F00001F0A4FC002810D0434B0A2228001988C1
:1024000004F055F8564C57482278002A3BD0002259
:102410003C21FDF78FFE00232370072006F01AFCF5
:10242000002800D048E7384B1874384B187043E741
:102430009A0705D528004C4903F0D0FF1123F6E692
:102440005A0705D52800494903F0C8FF1223EEE6D4
:10245000DA0605D52800464903F0C0FF1423E6E656
:102460009A0605D52800434903F0B8FF1523DEE698
:102470005B0600D4DCE628003F4903F0AFFF1623DB
:10248000D5E62F497FE77821FDF754FE0123C3E706
:1024900021000B2006F0B2FB01210D2006F0AEFB5F
:1024A000220032212F48FDF745FEFEF7D9FC13200C
:1024B000324A3349FEF784FF0024324F388020002F
:1024C000FFF706F92100642006F0A4FD00250600B0
:1024D000AE4259D0012006F02BF80135F8E7C0468E
:1024E000A01F00203AB80000FC130020FB130020BE
:1024F0002613002043B800002413002049B8000030
:1025000040000020D60E0020080F00207613002087
:10251000AC040020D0130020B80B000028130020CA
:102520002E130020C40E0020781300207C130020FE
:10253000A1B80000A6B800004AFCFFFFABB800003D
:10254000AEB8000050E2FFFF32001000CC130020B4
:1025500077130020C813002075130020C413002037
:10256000741300205C0400205EB800006AB800000C
:1025700076B8000085B8000094B80000D70E00209F
:10258000DE0E0020A20E00203B880134A34296DA22
:1025900064240A20013C05F0CBFF002CF9D1FDF7A3
:1025A000B5FEDC4EF37C002B00D0BBE0FDF7AEFEA9
:1025B0000320FEF74FFAF289D74B1A80002A00D188
:1025C000BAE0327DD54BD6491A700023D54A138024
:1025D000D54A1380D54AD488201C8C4201D9D448CE
:1025E00000881080D34A1380D34BD888021C8842BD
:1025F00001D9CF4A1288D149D1481A8001F090FB05
:10260000D04B1B78002B00D1EFE0032006F022FB1B
:10261000002800D094E0043006F01CFB041E00D01B
:102620008EE0C94D2F78002F00D1B0E0C74F0125B3
:10263000380003F089FA3800012102F056FC380016
:10264000C3493C6103F0B8FE102238000A2740233A
:1026500021000195009201F06FFF05956421200093
:1026600006F0D8FC059AB94D0192102203B2002160
:102670000092280001F02CFF380005F059FF3800C7
:1026800005F056FF380005F053FF380005F050FF05
:10269000380005F04DFF280003F0B6FBCA23403494
:1026A0005B019C42DAD1C8240A20013C05F040FFBE
:1026B000002CF9D1FDF72AFEC8340A20013C05F0B0
:1026C00037FF002CF9D1280003F03EFA0121280041
:1026D00002F00BFC9F4BA0492B61280003F06CFE1D
:1026E000012301931F33220021002800009320338F
:1026F00001F022FF280003F087FB0720FEF7AAF96C
:102700009134FF340A20013C05F012FF002CF9D16E
:10271000FFF7EEF80123F3743375FDF7F7FD894BEE
:102720001C703EE0FEF7D6FCC8240A20013C05F0F0
:10273000FFFE002CF9D139E73222F2811A8040E7FE
:1027400000217F4801F0FAFA041E3BD1834B00229E
:102750009B5E012B25D102217A4A1070804A11809C
:10276000804A1070804A1070804A1380804A10702E
:10277000804A1070804A1370804A1370FDF74EFD36
:10278000FA217F48890001F0CBFA7E4BC8E77E4CE6
:102790000023E15E01290AD17C497D4801F0C0FA9D
:1027A00027800020FDF786FE6C4B188028E7002963
:1027B000F7D1774801F0C2FA0028F2D001232B703C
:1027C0002380EEE700235F4A13700122644B1A80D6
:1027D000E7E7FEF719FB0020FEF774F9002802D1A5
:1027E00001226C4B1A70FEF73BFB05F071FE6A4B41
:1027F000494F186064233A880F205343674A0A24DC
:102800009B184A4A614D5380FDF77EFC68430013D4
:102810000F21604306F0FEFB614B18800F2006F08D
:102820005FF86843000B0F21604306F069FB5D4BC6
:1028300018601220FDF768FCD0232721584306F0CA
:10284000E9FB0300FA216B43574A1B131380544AD8
:1028500098B212888900504306F0DCFB534B188075
:102860001320FDF751FCFA236843001396215843C7
:1028700006F0D0FB4E4C4A4B4E4E2080198830005B
:10288000FDF78CFC059500283ED001224A4B1A70BA
:10289000334B00255D5F022D00D0EBE00127474D53
:1028A000474E2978474C3770002906D1344801F04B
:1028B00045FA002800D18FE02F702378002B00D03C
:1028C00091E03378002B00D1A6E001233E493F4A36
:1028D00013202370FEF774FD3D4B80B21880FEF785
:1028E000F7FEFA213B48890001F01AFA94E0122819
:1028F00000D07AE70020FEF7E5F8002800D074E762
:102900000122244B1A7070E73388002BC0D12A4A69
:102910001370BDE7080F002066010020D6120020CA
:10292000FEFF0000DE120020F8120020E01300205D
:1029300000B90000341300208A1200208813000020
:10294000D81300204E010020E30E0020AC0400202C
:10295000B2B8000008000C00BDB800003C01002027
:102960006401002068130020DC0E00204C010020D0
:10297000E20E0020E60E0020D80E002068010020A4
:10298000A4130020480100204A010020B80B0000D9
:1029900080130020D60E00206C13002030F8FFFFBB
:1029A00028130020301300202E1300202A130020AB
:1029B0002C130020860E0020DC120020E10E0020E7
:1029C000E70E0020D50E0020DE0E0020D70E0020DE
:1029D000A20E0020901300202A782378002A00D02D
:1029E0006BE7002B18D0CA4D0021280001F0A6F992
:1029F000002806D1C74B00229B5E012B0CD1C64B91
:102A000035E0C54C2378002B30D0FA21280089000E
:102A100001F086F900232370C04CBE4E0022A35E55
:102A2000BF4D022B01D000F0A3FFBE4A1378002B4C
:102A300001D100F0EEFF0423238000231370BA4A73
:102A4000BA491370BA4A0B70BA491370BA4A0B707C
:102A50002B7001331370B94AB949BA48137001F0A9
:102A60005FF9FA21B848890001F055F8AD4B012211
:102A70001A70D1E7002D62D0042D01D000F07FFC48
:102A8000B24C217800291ED1AF4801F057F9002837
:102A900019D00122A84B21001A701320AC4AFEF76E
:102AA0008FFCAC4B80B218802378002B0BD0FEF744
:102AB0000FFE4B240A20013C05F03AFD002CF9D111
:102AC00001229E4B1A70934B9E4C00229B5E0B2B57
:102AD00000D04BE20021200001F030F900280CD09A
:102AE0009D4A138801331BB213801E2B00D038E29D
:102AF00001219A4B197000231380032006F0AAF8D5
:102B0000974D002814D1043006F0A4F800280FD106
:102B10009449954801F004F9032006F09BF8002839
:102B200000D12BE20120FDF7C5FC00228F4B1A805B
:102B300000238F4A2B7013608E4A13803CE08E4B2B
:102B40008E4E19883000FDF729FB002814D0012291
:102B500014248B4B03201A708A4B1C80FEF754F907
:102B60000023FA5E7B4B35800021595E864B0020A6
:102B7000185E2300FEF7D4F9844B1C78002C00D09B
:102B800018E1834B834D1E78002E44D131000D2077
:102B900006F034F8280032006421FDF7CBFA2D202E
:102BA00005F0C6FC012228003988FDF7C3FA01238D
:102BB000794A1370754A1370032006F04BF8574E8C
:102BC000002800D137E20021744801F0B7F800284E
:102BD00000D01FE34F4B594D00241C5F0B2C00D03D
:102BE00030E300216E4801F0A9F8002800D147E346
:102BF000012300222B705D4B1A805E4B0020185E73
:102C0000002801D0FDF726FF0023F85EFEF722FD25
:102C100000232B7038E3220032212800FDF78AFAC6
:102C200021000D2005F0EAFF322005F081FC32265C
:102C30000A24012231005748FDF77CFA0F2005F0E5
:102C40004FFE059B0F215843000B604306F058F9D7
:102C5000544B81B218605448FDF7A0FA142005F0D7
:102C600067FC07360F20FDF74FFA782EE1D10F20D1
:102C700005F036FE059B0F215843000B604306F01C
:102C80003FF93D4B0A241880122005F029FED0237D
:102C90002721584306F034F9FA21059B434A434360
:102CA0001B0B1380344A98B212888900504306F0F7
:102CB000B1F9354B18803E4B00B21978FEF7DCFDB8
:102CC0003D880A21701B06F0A5F9010061434919EE
:102CD000304D01222800FDF72DFA0F2005F000FEEF
:102CE000059B0F2158430A23000B584306F008F9AF
:102CF0002C4B81B218602C48FDF750FA062005F0E5
:102D000017FC0F20FDF700FA013CD9D24AE7C04674
:102D1000901300203C010020D30E0020640100200D
:102D200068130020DB0E0020E70E0020FA130020BD
:102D3000D50E0020E10E0020D90E002068010020F1
:102D400030750000A0130020B8130020DE0E002014
:102D5000D70E0020A20E0020AC0E0020E50E0020B1
:102D6000E00E0020EE0200009C13002088120020DC
:102D7000C00E00206613002028130020341300200A
:102D8000DA0E0020D00E00202A1300207F0E002033
:102D9000D61200205C040020DC120020B4130020B6
:102DA000BC13002030130020860E00202E130020BC
:102DB00014130020FA21D648890000F0BFFF002834
:102DC00039D0D44AD4491368013313600A680132F8
:102DD0000A60062B2FD1D14B6421188806F090F899
:102DE000CF4BD04C0021595E02B20023E05E00239D
:102DF000FEF796F80023E05E0E21FDF7B5FFCA4B03
:102E0000CA4A1B88181C1BB2934200DD101CC84B19
:102E100002B29A4200DA181CC64B00B2C018142144
:102E200006F0F8F8C44A68304000835A01338352F0
:102E30000022B84B1A60BC4BC04C19882000FDF72B
:102E4000ADF900281ED12388002B1BD1E288BC4994
:102E5000131C8A4201D9BB4B1B882380BA4BAE4C52
:102E60001D78002D72D0962322685B009A4209D308
:102E7000FDF778FA0B20FDF7EDFD0122B34B1A7038
:102E800000232360B24BB34E19883000FDF786F95A
:102E9000A44C002813D001201025AF4B1870AF4B65
:102EA0001D80FDF7B1FF002333800023FA5E9C4BA9
:102EB0000021595E0023E05E2B00FEF731F8A84D9B
:102EC00021882800FDF76AF9002814D00122A24BBE
:102ED00099491A701123A14A1380CA880132CA8005
:102EE00000222A8000217A5E8D490020095E00259B
:102EF000605FFEF715F8894B9A481988FDF74EF97F
:102F0000002800D058E6974B1B88002B00D053E6D2
:102F10000122914B02301A70904B11321A80FDF74A
:102F200073FF904B8649DA88131C8A4201D9854B7E
:102F30001B888C4A13800023FA5E794B0021595E6E
:102F40000023E05E1223FDF7EBFF35E601261E703D
:102F5000FDF708FA0B20FDF77DFD7C4B25601E7008
:102F600090E72000804900F0DBFEC6E520007E49A6
:102F700000F0D6FE00227D4B1A80BEE5042005F04D
:102F800069FE041E00D0CDE52B780593002B4CD1B3
:102F90007749784800F0D2FE002826D0764E0320EC
:102FA000336801333360FDF755FD3368734C012BF3
:102FB00022D1200002F0C8FD0823802623610221CF
:102FC000200001F092FF76036D49200003F0F4F930
:102FD00002212000266101F088FF6A492661200055
:102FE00003F0EAF9654802F00FFF0122574B1A700F
:102FF0000B23654A13808FE5022B04D180235B03EA
:1030000062492361EBE7032B04D180235B03604912
:103010002361E4E7042BE5D120005E4903F0CCF9FD
:1030200001232B70059B3360DCE7FEF759FF524B01
:103030002C701C60D9E7072005F00CFE041E00D0A0
:10304000C1E5554B1D780023F65E002E00D0ABE0A5
:103050004A4C002D3ED1504B01361E703C4B188817
:1030600006F0C8FF0590388806F0C4FF0599FEF702
:1030700079F9200002F068FD3100200001F035FFF1
:10308000464B47492361200003F096F920232A008C
:10309000290000930196DB18200001F04DFA200072
:1030A00002F0B2FE200002F04FFD0720FDF7D2FC37
:1030B000FA20800005F03CFA032005F0CBFD002843
:1030C0001FD00120FDF7F6F901222F4B18801F4B6E
:1030D0001A707FE5304B20001E7002F035FD012193
:1030E000200001F002FF2D4B2E492361200003F048
:1030F00063F9012301931F33009332003100203321
:10310000CAE7072005F0A6FD0028D5D0D9E7C046BC
:10311000AC130020B00E0020B40E00202E130020AF
:10312000A20E00202A1300202C13002004100000FF
:10313000E40C00001CF3FFFF080F00208A1200209F
:10314000FEFF000000B90000DF0E00206801002033
:1031500028130020DE120020DA0E0020D00E0020FE
:10316000F8120020E013002030750000AC0E0020A3
:10317000EE0200009C130020C00E0020AC040020D2
:10318000C6B8000074B800003C010020CBB80000B5
:10319000D0B80000D6B800001413002008000C00BE
:1031A000DCB80000E3B80000002D00D112E5C64DE8
:1031B000C64B1870280002F0C7FC0121280001F05E
:1031C00094FEC34BC3492B61280003F0F5F801239B
:1031D00001931F332200210028000093203301F0C7
:1031E000ABF9280002F010FE280002F0ADFC072029
:1031F000FDF730FCFA20800005F09AF9032005F075
:1032000029FD002800D05CE7072005F023FD0028F9
:10321000F4D056E70022B35E002B00D0DAE4AE4BC8
:10322000188806F0E7FE041C388806F0E3FE211C2F
:10323000FEF798F80123A94A1370A44A1370A84A0C
:103240001370C7E40022A74B1A80012C5CD1FA212D
:10325000A54EA648338889000133338000F060FD15
:103260003388012B1BD1A24A1278002A15D0964828
:103270003C22022102F0DCFC9E4B1888FEF728FA63
:103280002B78002B00D0B8E4904B19789A4B002093
:10329000185EFEF7F1FAFFF7BFFB3280F0E79A1EE7
:1032A000022A2AD8884C200002F04EFC102302216A
:1032B0002361200001F019FE9049200003F07CF802
:1032C00080235B0323610221200001F00EFE33887E
:1032D000032B0BD0042B0ED08949022B07D02000E2
:1032E00002F092FD0320FDF7B5FBC9E785492000F8
:1032F00003F062F8F3E78449F9E7052BC0D1834B6B
:103300001C7000233380BBE7042C14D13A88772A41
:1033100005D80A323A8003221A8001232B706B4BA6
:103320001B78002B20D06421794800F0F9FC0023A1
:10333000664A137018E0092C04D13A88772AEED82F
:103340000132E7E7052C06D13A88282AE7D90A3A5C
:103350003A800422E0E70A2C04D13A88282ADED9F0
:10336000013AF5E7062CDAD13A88131C782A00D9FD
:1033700078239AB2282A00D228233B8080E7012DA7
:1033800000D011E2634B644E1A78002A2BD0002241
:1033900035701A700122614B1A703378604E002B21
:1033A00009D03388934206D1962100235D488900D5
:1033B000338000F0B5FC3588002D27D1594F290006
:1033C000380000F0BBFC002801D1FFF713FB564C7E
:1033D0002378002B16D096213800890000F0A0FC3D
:1033E0002570FFF719FB3778002FD3D1FCF79AFF30
:1033F00039004E4800F0A2FC0028CBD03570FCF715
:1034000085FFC7E702233380FFF706FB022D01D0BB
:10341000FFF702FB464F474D3B78002B00D197E06A
:103420002B78002B01D000232B70FDF719FD002312
:1034300008262380132005F053FA059B9621584354
:10344000FA23000B584305F05BFD2388013EC018AA
:103450002080322005F06CF8002EEBD12388364A0C
:10346000DB102380934207DD3100012005F0C6FB0D
:1034700001210B2005F0C2FB304C0323304A072109
:10348000200002F011FE200002F0E4FD072004F00D
:1034900067FF0121080005F0B1FB00210B2005F0BA
:1034A000ADFB642005F044F8FCF7A2FE2B78002B5E
:1034B00001D1FFF7B1FA002301223B70214B2249D1
:1034C00022481A80FFF710FAAC04002014130020E1
:1034D00008000C00E3B80000281300206001002061
:1034E000680100206613002088120020BC13002011
:1034F000D90E0020A20E00202A130020E7B80000F9
:1035000074B80000CBB80000D0B80000E50E002071
:10351000B413002048010020E20E0020E60E002037
:103520004C010020D4130020D30E0020981300205B
:103530004F010020DD0E0020470D0000981C0020E8
:10354000FD00000046010020E2040000A813002056
:103550002B78002B01D1FFF75FFA072005F07AFBEB
:10356000002811D00021DF4800F0E8FB002800D03F
:1035700016E1DD4B00229B5E012B01D0FFF74CFAD8
:10358000DA4A1370FFF748FA042005F063FB0028BD
:10359000E8D1D74B1B78002B01D1FFF73DFAD54D71
:1035A00001272A78002A7ED1D34C2388012B04D10D
:1035B000D249D3482280FFF797F9002B01D0FFF7BB
:1035C0002BFA0021CE4800F0B9FB002801D1FFF70B
:1035D00023FA01232B702380FFF71EFA0A2004F040
:1035E000A7FFAAE00A2802D0052800D0D4E00023D3
:1035F0002370D1E0BF4B1B78002B54D00926C14C5F
:103600006425200002F0A0FA0221200001F06DFCE8
:10361000BD4B0A2231002361200002F044FF20004C
:1036200002F0F2FB0A20013D04F082FF002DF9D1E7
:10363000013EE4D2FDF7A4FC200002F085FAB34974
:103640002561200002F0B8FE80235B03B0492361AE
:10365000200002F0B1FE200002F0D6FB64350A2003
:10366000013D04F065FF002DF9D1200002F06CFA55
:10367000A8492000256102F09FFE80235B03A64934
:103680002361200002F098FE200002F0BDFB994B60
:1036900008201D70FDF7DEF9200002F055FA9F4961
:1036A000904800F03DFB934B1B78002B01D1FFF7B6
:1036B000B3F9944C6425200002F046FA0221200060
:1036C00001F013FC964B00222361202311002000FF
:1036D00000930197DB1800F02FFF8C49200002F0C7
:1036E0006BFE200002F090FB0720FDF7B3F90A20E3
:1036F000013D04F01DFF002DF9D10226200002F04B
:1037000023FA20008749256102F056FE2000592344
:103710001022290002960195009701F05DFB200020
:103720004E231022342102960195009701F054FB9C
:10373000200002F069FB7C4C2770072005F08AFA14
:10374000002800D14AE7042005F084FA002800D1BF
:1037500044E7032005F07EFA002800D13EE7380058
:10376000FCF7A8FE2378002B00D143E70020FCF7EC
:10377000A1FE5D4B634D1880092802D0042800D0BB
:1037800030E700235B4A28002370137002F0DCF955
:103790006249544800F0C4FA280002F035FBE1E722
:1037A00001233B70FFF738F9032D01D0FFF734F9FF
:1037B0005E4C2378002B44D15D4B188810380428C8
:1037C0001FD805F093FB5F037C1E5F0001234D4D66
:1037D0000E221F21280000930C3300F0F7FF002673
:1037E0000C23062200931E21093B2800019600F0BD
:1037F0006FFE03231422019600931E21280000F07F
:1038000067FEC8214B4800F099FA4B4B002803D0C3
:10381000012219784A401A70197800295DD02023B6
:10382000002100931E2237480191DB1800F050FE62
:103830000021424800F082FA002800D192E00123E2
:10384000237000233E4A3F4913703F4A13803F4A8A
:1038500013803F4AD088021C884201D93D4A128811
:103860003B4802803C4A13803C4BD888021C88426B
:1038700001D9384A12881A80FCF748FDFDF7F0FAA2
:10388000FFF7CAF801232F221E4D039319331F217E
:10389000280002930192009300220B3B00F0C3FF2B
:1038A00000260C23072200931E21093B28000196C5
:1038B00000F00EFE03231522019600939DE70123DD
:1038C000002102931D330193223300930A00244BFD
:1038D0000C48039101F0A3F893E70F20FDF76EFF6A
:1038E000A6E7C046A81300203C010020DC0E002003
:1038F000D80E0020D40E00204601002088130000BE
:103900008C130020AC0400201C000A00EBB800005F
:1039100026B80000F6B80000FCB80000E204000081
:103920000A000A00F0B80000D20E00204401002076
:10393000D00E002084130020800E0020941300205D
:10394000DA0E0020FEFF0000DE120020F812002038
:10395000E013002000B90000341300208A12002078
:103960004CBA00002378002B01D1FFF755F868E727
:10397000002B00D0A8E00022B35E062B01D0012B63
:103980001ED1042323800023A74A2B701370A74A5B
:1039900006201370A64A1360A64A1360A64A137045
:1039A000A64A13600122A64B1A70FDF753F8A549E9
:1039B000A54800F0B5F9FA21A448890000F0B0F953
:1039C000A34B1B78002B24D0032323800024012148
:1039D0000D202C7005F0E2F801210D2005F00EF904
:1039E000924B9C491C70924B9B481C60914B1C60F5
:1039F000914B1C70914B1C60984B1C7000F090F91F
:103A0000FCF784FC20002100FDF7D8FE0C20FDF718
:103A100021F82A78924C934B002A00D0BEE0002572
:103A200001210D201D7005F0E9F82800FDF73CFF8D
:103A30008D4B8E491D808E4B1D808E4BD888021C6D
:103A4000884201D98C4A12881A808C4B1D808C4B7D
:103A5000D888021C884201D9874A12881A80FA2124
:103A60002288884B88488900DA8100F067F90028AD
:103A700016D0E122854C92002368013323609342E3
:103A80000ED1834D2B78002B00D1C7E00020FDF72D
:103A900019F80123002800D000232B700023236095
:103AA0000020FCF707FD308004F012FD794C7A4BC2
:103AB000206022681B68D31A784A934201D9FEF726
:103AC00094FE04F005FDF2E7042B32D10022744B82
:103AD0001A700022B35E062B0BD1724B1B78002BA1
:103AE0001CD00920FCF7B6FFFCF75CFC01226E4BF2
:103AF0001A706E490B78002B8BD0002301220B70BB
:103B0000FA216B482B7003706A48228003706A4B5D
:103B10006A481A70890000F003F97AE701224249E5
:103B20002A700A70464A052023801370FCF792FF22
:103B3000DFE7012B19D162490A78002A00D168E732
:103B40000222228000220A705E492A700B805849A6
:103B50000A7058490A705C4A1370534A1370FCF794
:103B60005DFBFA2159488900D5E7032B00D050E7C7
:103B7000374B1A78D3B2002A00D04AE704322280A9
:103B80000124294A2B7013702D4B2E492E481C708E
:103B900000F0C6F8444B1C70FEF763FF224A12780F
:103BA000002A00D13BE701221A703D4B1A78484B9E
:103BB0001B78002B20D0002A27D0464D464B297871
:103BC0001888FDF70BFB00232B70031C80B27828AC
:103BD0000DD97823414A99B21380414B41481A7854
:103BE000FCF7A8FA00210D2005F008F80DE09AB2C4
:103BF000282AEFD22823EDE721880B1C782908D941
:103C0000782399B22380002AE7D10120FDF74CFEEA
:103C100025E789B22829F4D22823F2E70420FDF70A
:103C2000F3F8FDF71DF939E7FA130020DE0E002046
:103C3000B00E0020B40E0020DF0E0020B80E0020D1
:103C4000D90E002030750000A0130020B81300200A
:103C5000DA0E0020DC05000094130020440100204F
:103C600066010020000F0020DE120020FEFF000091
:103C7000F8120020E013002000B9000034130020E7
:103C80008A120020080F0020C0130020BC0E002064
:103C9000D60E0020701300206C130020A7610000D6
:103CA0007F0E0020D70E002068010020E50E0020C6
:103CB000E20E0020E60E00204F01002098130020A5
:103CC000DC0E00204C010020D80E0020A4130020A0
:103CD000141300206001002028130020121300207C
:103CE000DC1200205C0400200022014B1A70704797
:103CF000FB130020014B1878C0B270473804004015
:103D00000221064B1A788A431A70DA79D209FCD15B
:103D1000997901320A439A717047C04600100040F9
:103D20000B005A1E934170B505000C1E837004D021
:103D300004F0C8FB013C24182C8070BD70B5847859
:103D400005000E00002C0AD0048804F0BBFB074AD3
:103D5000231A9BB20024934205D95B42DCB23100A6
:103D60002800FFF7DDFF200070BDC04660EA0000BC
:103D700000207047F8B505000E0017000024BC4273
:103D800008D02B682800315D1B689847002801D0B7
:103D90000134F4E72000F8BD70470300FC33196AD2
:103DA000DA69914203D01B6AC018007E7047012077
:103DB0004042FBE70300FC33D8691B6AC01A01D5F7
:103DC0000130FF3070470000F7B50193FA238027D8
:103DD000002504009B008360114B7F0008330E0018
:103DE00045602900009203603A00183006F029FA75
:103DF00023002000FC332130DD613A001D622900E0
:103E0000FF3006F01EFA87239B00E3185D609D607B
:103E1000009B20002375019B2661A5756375FEBD7F
:103E200080C0000070B5040018260C49006902F03B
:103E3000DBFD206902F02AFC33000821207D084DBB
:103E40004343EB18595604F01DFF0821607D46439B
:103E5000AD19695604F016FF70BDC046A08601007A
:103E600020CE000070B504000D00006902F023FCB4
:103E70002900206902F0B8FD206902F007FC70BD3E
:103E80008A2300229B00C1540C3BC3185A609A60DD
:103E90000123837570470200FC32536810B501336B
:103EA0009468DBB29C4202D054680155536010BD47
:103EB00010B50300827D002082420ED0872292003E
:103EC0009C186268A4680132D2B2A24205D02133A4
:103ED000FF331800FFF7DFFF012010BD0300FC33A4
:103EE00099685A68914206D09A68805C9A68013253
:103EF000D2B29A60704701204042FBE700228A2339
:103F000070B59B00827505000E00C15C006902F06F
:103F100005FC002806D10321286902F0E9FB0224F0
:103F2000200070BD872328009B00EA18536894681E
:103F30002130FF301C1B01D50134FF34002C0ED082
:103F40002C69FFF7CBFFC1B2200002F025FC00284E
:103F5000E8D10321286902F0CBFB0324E0E7002E1F
:103F6000DED00321286902F0C3FBD9E710B5012197
:103F7000FFF7C4FF10BD10B51830FFF7AFFF10BD3D
:103F800070B50400006902F029FC002814D02069F3
:103F900002F032FC002810D0206902F09FFB0321C0
:103FA000206902F0A5FB8C239B00E558002D39D138
:103FB0000023FC34E361236270BD206902F026FC1B
:103FC000002809D0206902F01CFC002804D02069D8
:103FD00002F021FC0028DFD0206902F017FC002845
:103FE00026D1206902F003FC0028E5D0206902F008
:103FF00012FC002837D087239B00E2185368926890
:104000009B1A01D50133FF33FF21002B05D020007F
:104010002130FF30FFF762FFC1B2206902F0CFFB11
:10402000A075C9E7236820001B699847A847BFE728
:10403000206902F053FB2069032102F059FB20693B
:1040400002F0E9FB0028B7D0872300229B00E31889
:104050005A609A600123A3758B239B00E358934217
:10406000AAD09847A8E72200FC32D369126A01332C
:10407000DBB22069934206D102F027FB03212069BD
:1040800002F036FB98E702F0CBFB0100200018306D
:10409000FFF701FF206902F021FBEFE710B50248AE
:1040A000FFF76EFF10BDC046FC13002010B51523AE
:1040B000142202490248FFF787FE10BDA822002003
:1040C000FC13002030B5234B002A37D0224A5A6017
:1040D0005A78D209FCD1214A9A605A78D209FCD187
:1040E0001F4A5A805A78D209FCD15F241D4A946431
:1040F0001D4CD46402221D4C25782A4322701C4A90
:104100005A605A78D209FCD101320271FF291CD9B8
:10411000FF210422016009021143164A11605A78F6
:10412000D209FCD1144A154911805978C909FCD12A
:10413000134911805A78D209FCD130BD114A124C72
:1041400014605A78D209FCD1DFE70029E1D10131AE
:10415000DFE7C046000C0040050703000530000003
:1041600001450000000800402810000044080040FD
:1041700004080300080C0040020C00401A44000030
:104180001B440000040C004004070300F8B50400C1
:10419000182500200B0020492E0046438E599E42D0
:1041A00004D001300E28F7D1002034E000208342F3
:1041B00031DB01266B43C9184B68184D8868DB0159
:1041C0005B191D1840352F7840083E431B182E7090
:1041D000303318784D69CE682843C0B21870282350
:1041E0007343A4680E4D20000F69EB18944200D968
:1041F00010009A69DB69002105F018F822000023FD
:1042000004F0F4FF28235E43AA59386093685B02E8
:104210001B0FFBD10120F8BDA4C0000000440041E9
:1042200070010020002010B5022913D828234B4329
:104230000B4CE318981CC2775B680220002A0AD056
:104240001A681043186028235943625893689B07E3
:10425000FCD4012010BD1A6882431A60F3E7C046FF
:1042600070010020F7B508AB30CB1E7800940195A3
:104270000023022958D81C00012A17D0022A13D083
:10428000042A53D0082A54D0102A54D0402A55D09A
:104290000133FF339A4253D08023E024DB009A425B
:1042A0004AD00024012201E08024640028254D43E7
:1042B000244B5D196F686A613A6814436A1CD677AB
:1042C000AA683C6015680224002E00D11E4C2C43C5
:1042D000146028224A439C58A2685206FCD4019AD2
:1042E000009F9446002A02D1022F00D202272822E2
:1042F000150000264D435D192D69664503D1BD4269
:1043000001D93D0066464A439A189561D661D26844
:104310001560A2685203FCD428224A439B1802333A
:10432000DA7FFFF77FFF01231800FEBD8024A40081
:10433000BCE7C024FBE78024E400B7E7A024FBE748
:10434000C024F9E77001002005000F007047F0B5A8
:1043500015000C001E0089B00EAB00229B5E0FAA58
:104360001288019005925A1BD11752184A400292A6
:10437000321BD11752184A4003920399029A8A427B
:1043800005DD32001E00130022002C001500B4428F
:1043900005DD2A001D001300220034001600321B28
:1043A00091B20691591BC8170918414012B20791E2
:1043B000D10F8A1852100092012204929D4202DB12
:1043C00001235B420493B44222DC019B039A1B68E5
:1043D0009B691F00029B934216DD22002900059B6A
:1043E0000198B847009B079A9A1A11B293B20091AC
:1043F000120406D5049AAD18069A2DB2D3181BB232
:104400000093013424B2DEE72A002100059BE7E790
:1044100009B0F0BD704710B504682469A04710BD0D
:1044200037B506AC258804680095A46BA04737BD56
:1044300037B506AC258804680095E46BA04737BD06
:1044400073B506AC0025655F07AC26880468019645
:104450000095246CA04773BDF0B5160004000D0054
:1044600085B003930AAB1F8803685B699847039B79
:104470002268013B9B191BB2009301972B00290076
:104480002000976A3200B84723682000DB6A98470B
:1044900005B0F0BDF0B505001C000E00170085B09A
:1044A0000AAB1B88013C03930368A4195B69984716
:1044B00003992A68019100973100280023B2946A79
:1044C0003A00A0472B682800DB6A984705B0F0BD8A
:1044D000F0B50E0087B003930CAB029200229B5EF6
:1044E000040004930DAB1B883500059303685B69DA
:1044F0009847039A2368B21895420BDA059A290067
:1045000000921B6A20001F00029A049B0135B847E5
:104510002DB2EEE72000DB6A984707B0F0BD13B577
:1045200001910E24015F0C22835E02680091146CDD
:1045300000221100A04713BDF0B5040015000E00C5
:1045400087B004930CAB00229B5E05930DAB1B88D8
:10455000039303685B699847039A236800923100CC
:104560002A0020005F6A049BB847059B03995A1EE6
:10457000236800915219310020005F6A12B2049B37
:10458000B847039A2368009231002A0020001F6A6E
:10459000059BB8470499039A236801390092891949
:1045A0002A0020001F6A09B2059BB8472368200033
:1045B000DB6A984707B0F0BD7047F0B585B002934D
:1045C0000AAB0027DF5F0BAB1B8816000393029B2F
:1045D00004000D000268994210D1BE4202DD330092
:1045E0003E001F00039901370091BB1B976B1BB264
:1045F000320029002000B84705B0F0BDBE420CD102
:10460000029B994201DD029D0291029B03990133B5
:104610005B1B0091D76B1BB2EAE753699847039A7B
:1046200023680192009720009F6A3200029B2900B4
:10463000B84723682000DB6A9847DDE703230B4077
:1046400010B583760822835E0A24025FC90702D46C
:104650008381C28110BD8281C381FBE74281C28117
:104660000122002310B55242064C4261064A08342A
:104670004360046001818181036182610377036289
:1046800010BDC046F4C6000001010001F0B51C00D9
:104690008FB00692012214AB1B780591079315ABDE
:1046A0000021595E16AB1B8805000893A3B2D01AEF
:1046B00093405B421BB289180C938BB2099304930D
:1046C000002300B2029003930D92039BA3427BDA76
:1046D000029B2700002B09DB0C9B671E02331AB2DA
:1046E0000C92029A3FB29B181BB202936B469B89B5
:1046F0000A9301339AB21BB203930B925300029AAE
:1047000001339B181BB20293039B9F422CDB079B38
:104710000D9A134212D00999BAB25300CB180699D8
:104720000B988A1A05992E68411808981BB20090B8
:10473000306A12B2060009B22800B0470222079B75
:10474000134211D00999BAB25300CB1806990B98AD
:104750008A1A0599089E091A28680096066A1BB2EB
:10476000280012B209B2B047BC4227D0079B0D9A6D
:1047700013420FD06B460A9910229B5E069A089E40
:10478000521A0599286809190096066A12B228007B
:1047900009B2B0470222079B13420FD06B460A9919
:1047A00010229B5E069A2868521A059912B2091BBC
:1047B000089C09B20094066A2800B047049B3C009C
:1047C00002339BB2049380E70FB0F0BDF0B51E003A
:1047D00004000F0087B00CAB1B880492059303689C
:1047E0005B69984704990598B2B253008A1A216808
:1047F0000090096A01330D00200039001BB212B28B
:10480000A847059B3900029300230193033320003E
:10481000049A00933300FFF739FF23682000DB6A16
:10482000984707B0F0BDF0B591B01D0016AB0292ED
:1048300000229B5E0700039317AB00269E5F18AB18
:1048400000229B5E039A049319AB1B880C0009930A
:10485000029B934200DCD7E0049A93421DDD049B47
:10486000039A934212DA1300049A0392029A029373
:104870002B003500260004921C000EE0029B039AD8
:104880000393230002922C001D00E8E7029B049A88
:104890000493230034001E0002923B6838005B69D9
:1048A0009847039B049A93421DD1A54202DD2B0039
:1048B00025001C00B54205DC231CB44200DA331C81
:1048C0002E001CB209993A6801340091A31B556A65
:1048D00031003800039A1BB2A8473B683800DB6AF6
:1048E000984711B0F0BDA3B2ADB205935B1B1BB2EC
:1048F0006A460D936B4691891B89B6B25A1A12B259
:104900000E92721B12B208926A46128A511A09B2AA
:104910000B910599D21A761A31B212B20C910F92FC
:104920000499029A0A928A4202D0013B1BB20A936E
:104930000023039E079306930A9B9E422ADC0E994E
:10494000069804F067FB28180B9904B2079804F046
:1049500061FB0D9A069B9446089A6344944606931D
:10496000079B2818634400B20793844202DD2300AA
:104970000400180009993A680091526A013094467F
:10498000031B32002100380064461BB20136A047E9
:1049900036B2D1E7029BF21A0C9B53430293039B5E
:1049A000089AF31A5A430392049B9E4200DD94E74F
:1049B0000F99029804F02EFB059B0B99181804B26E
:1049C000039804F027FB0C9A029B9446089A6344D0
:1049D00094460293039B2818634400B203938442D5
:1049E00002DD23000400180009993A680091526A18
:1049F00001309446031B32002100380064461BB28C
:104A00000136A04736B2CFE7039B049A934200DDFC
:104A100034E7029A029303922B000D002CE7F0B5C5
:104A20008DB0079312AB069200229B5E0591019315
:104A300013AB00229B5E0400089314AB1B88002676
:104A4000099315AB1B8835000A9303685B69984787
:104A50000722019B0B92D91DCB1713405B18DB106B
:104A6000029333009AB20392069A99B28A1812B24C
:104A70000492089A934227DA0023019A93421DDA9E
:104A80009AB200920B9A6D00EDB2134203D1079ACD
:104A9000DB109219D55C2368059A9B691F00009B67
:104AA00099186AB2099B09B2002A00DB0A9B200010
:104AB000049AB847009B01331BB2DEE7039B029ABE
:104AC00001331BB2B618CDE723682000DB6A984794
:104AD0000DB0F0BDF0B585B00AAC0025645F0BAD3C
:104AE0000026AD5F0DAF0CAE36883F880296039767
:104AF00001950094FFF793FF05B0F0BDF0B595B0B8
:104B00001D001AAB1B88049205931BAB1E881CABBF
:104B10001B78026A02931DAB1B7804000891039373
:104B2000002A00D0C4E00C22835E8B4200DC7DE0D2
:104B30000E22835E049A934278DD0623029A534341
:104B40005B18002B72DD039B049ADB009B18002B83
:104B50006CDD037F002B03D1AF2D01D90135EDB200
:104B6000236820005B69984705220023554307937B
:104B7000984B0B925B190F93079A0F9B9B5C0A93C0
:104B80006B469B8B09936B461B89099A0E936B4668
:104B90001F8C029B5343FB181BB20D9308230C93ED
:104BA0000023069301220A9B2068134252D06B46D1
:104BB0001A8B198A029B012B3AD1039B012B37D107
:104BC000099B52188569D919059B12B209B22000B8
:104BD000A847069B01335BB206930A9B5B080A93C6
:104BE0000C9B013BDBB20C93002BDBD1079B013309
:104BF0005BB207930B9B013BDBB20B93002BBBD14A
:104C0000059BB3420ED0029B2268012B3FD1039B30
:104C1000012B3CD105370096156A2000049A39B261
:104C20000733A84723682000DB6A984715B0F0BD1A
:104C30006B4608255B5F039D6A438A18059912B28B
:104C4000019169460C25495F0091C5690D992000C5
:104C5000A847BEE7059BB342BBD06B461A8B198AA7
:104C6000029B012B0AD1039B012B07D1099B5218F0
:104C7000D9198569330012B209B2A8E76B46082535
:104C80005B5F039D01966A438A1812B2D9E76B46AF
:104C900008215B5E05210E9801964143039879181F
:104CA000C0000090D5692000049A09B2A847B9E76E
:104CB000137A5168ED1A1268EDB2ED0013924A5B57
:104CC0004B1909929A780D92DA78119205229A5628
:104CD0009B790E925BB20F93029B012B02D8039B30
:104CE000012B56D96B4638229B5E0B936B463C22B8
:104CF0009B5E0C930027236820005B699847079709
:104D00000697119B069A9A4200D38BE76B461B8A43
:104D100000260A930C9B9B18039A53430A9AD318B4
:104D20001BB210933B000D9A96424BD25A1CD2B242
:104D300012920722134207D1099B0999139A013352
:104D4000525C9BB2079209936B461B7F5BB2002BB0
:104D500017DA6B46198C029B2068012B1DD1039B2F
:104D6000012B1AD10A9B0F9A9A18069BD2180E9BF8
:104D700012B2C918836989191D002000059B09B268
:104D8000A847079B01365B00DBB20793F6B2129B84
:104D9000C9E700230C930B93ACE76B4608229B5E9C
:104DA0000B9A029D92196A438918059A09B20192D9
:104DB0006A460C25525F0092C26920001500109AC5
:104DC000A847DEE7069D0D9B0135FF18EBB2FFB249
:104DD000069396E7F4C100007FB508AC258809ACBE
:104DE00026880AAC24780196009503940294FFF774
:104DF00085FE7FBDF0B5026A04000D0085B0002A73
:104E00002CD10A2908D1437E0282DB00628A9B18DA
:104E10006382012005B0F0BD0D29FAD01223C25ED5
:104E20001023C15E437E0393037E0293C38A0193E2
:104E3000838A00932B00FFF761FE227E238A312DA7
:104E400008D1042A02D113332382E2E7032A01D1D5
:104E50000E33F9E706214A439B18F5E70A2905D1E5
:104E600000230382127B437E5343CFE70D29D0D02A
:104E7000137A9942CDD3917AA942CAD3EB1A5168D9
:104E8000DBB2DB00CE18B178002929D0F378002BF3
:104E900026D0E37E007E677E002B13D00523F356D9
:104EA0005B1843439C461023E15E8C440C23E15E77
:104EB0008C4507DD1223E15E00232382137B7B43B5
:104EC0005B1863821223E25E1023E15EE38A0290A4
:104ED0000193A38A2000009303972B00FFF70EFE97
:104EE000227E33795343228AB6E70B1C002900D176
:104EF000012303764376704710B500F02DFB0022A6
:104F0000024B8000C35849331A7010BD841600202C
:104F1000F0B5040085B01E000AAB1B781030019379
:104F20000BAB1B78170002930CAB1B780D0003939F
:104F300000F094F92000243000F090F922000023C2
:104F40004832A363E3632364636413705370637232
:104F50009D4205D12721084B084A094805F0F8F879
:104F60002000019B25606371029B2771E371039B05
:104F7000A671237205B0F0BD4CC700005DC70000EC
:104F8000B1C7000030B5040085B002AD00680291E1
:104F9000039201F036FB6B79227AE1792068009365
:104FA000002301F0F7FC2979029A206801F04EFBFA
:104FB000206801F01CFB05B030BD000007B5837A06
:104FC00000910192002B07D09A070AD5EFF31083C6
:104FD0005A425341C37272B60099019AFFF7D2FF49
:104FE00007BDDB07F8D5C368014A9BB29360F3E7BE
:104FF0000018004010B5006801F00CFB10BD000067
:1050000010B5006801F01AFC03000020834203DBA6
:105010000C304343014A985810BDC04618C80000E0
:1050200010B5006801F00AFC002805DB0C2343439F
:105030000348C018406810BD01204042FBE7C0464D
:1050400018C8000010B5006801F0F8FB002805DB67
:105050000C2343430348C018806810BD0120404220
:10506000FBE7C04618C80000F0B506001036050082
:1050700089B0300000F048F900286CD12F002437A7
:10508000380000F041F9041E62D12800FFF7DAFF72
:10509000C1B2300000F018FA0221300000F038FAF6
:1050A00001222E49300000F00BFA300000F054FAD3
:1050B0002B4B8000C5502800FFF7B2FFC1B238006B
:1050C00000F002FA0221380000F022FA380000F065
:1050D00043FA234B8000C5502800FFF791FF0123BE
:1050E00001002200029330002300049403940194F1
:1050F000009400F033FAA8632800FFF781FF012332
:1051000002002100019338002300049403940294C8
:10511000009400F023FAE863402005F075F82A00B7
:1051200048322864079200280BD00123137068646A
:105130006B6C10221819E96B103405F079F8402CCB
:10514000F6D1079B1B78002B05D1380000F076F9CB
:10515000300000F073F909B0F0BDC046F94E000010
:105160008416002070B5437A0400002B03D101227D
:1051700043814272C360230048331B78002B02D165
:105180002000FFF771FF18263300082120790D4D0C
:105190004343EB18595603F075FD33000821A079FD
:1051A0004343EB18595603F06DFD082160794643DF
:1051B000AD19695603F066FD034B200006CBFFF7DF
:1051C000E1FE70BD20CE00007C1600201FB5094A0C
:1051D000094B0A4913600023938002930133019322
:1051E00016330093162201330548FFF791FE05B0F0
:1051F00000BDC0467C16002000093D00AC22002006
:1052000030160020084B1968002909D1EFF31080EF
:10521000064A002803D172B6BFF35F8F01311170C7
:105220001A6801321A60704748180020441800209C
:10523000084B1A68002A0CD01A68013A1A601B68D9
:10524000002B06D1044B1B78002B02D0BFF35F8FDD
:1052500062B670474818002044180020FF2310B59C
:105260000370C023002104009B00417041808380B3
:105270000C22083004F0E5FF200010BD01230A00D5
:1052800010B51A40194208D00C4A1370033343700A
:105290008368002B00D0984710BD0223194204D028
:1052A00006490B70C3684270F3E704231942F3D038
:1052B000024A1370033343700369EAE74E48004122
:1052C00010B5FFF79FFF0C4B1B8C1B071B0F0B2B05
:1052D0000FD80A4A9900885800280AD00F24084994
:1052E0000A78A24313430B70064B1978C9B2FFF733
:1052F000C5FFFFF79DFF10BD004800414C1800207E
:105300003F4800414E480041F8B5002302780500AF
:1053100018000B2A77D93C4E2B702B780B2B07D813
:1053200001229A403168114204D001332B70F4E716
:10533000012068E0FFF766FF3768344C002F2BD15F
:105340002022334B334859690A435A611022D969E4
:105350000A43DA6102222388390093432380238899
:10536000013A134323802C4B6063BF32A36304F0E4
:1053700068FFC0223900284804F063FF4022C120A2
:10538000264B80002380264B26491A601A5811406C
:10539000C02212040A431A5001231A0029783068E7
:1053A0008A40024332600F261F4A880085501F48FA
:1053B00031400278B2430A43027002201C4A11783D
:1053C00081431170117819431170297822698B403B
:1053D0009A43226160223F21636C934363642A797C
:1053E000636C0A40134912020B40032113436364A8
:1053F0006A79636C0A40104992050B401343636459
:10540000FFF716FF0020F8BD4018002000480041BB
:105410000004004080170020C0160020020F00008A
:1054200000E100E0FFFF00FF4C1800203F48004172
:1054300040480041FFC0FFFFFFFF3FFF70B5050080
:10544000FFF7E0FE6B785CB2062B2BD02B780224A2
:105450000B2B27D801229A40144B1968114221D0F6
:105460001968914319601B68002B14D14022104B1E
:10547000DA67BFF34F8FBFF36F8F21000D4A0E31F4
:105480001388A34313800C4BDA698A43DA615A69A3
:1054900010318A435A6100242B78084A9B009C50A3
:1054A000FF232B70FFF7C4FE200070BD40180020C2
:1054B00004E100E000480041000400404C180020D6
:1054C0000232920011507047037870B505000C004D
:1054D00001710B2B14D8FFF795FE29780F25094889
:1054E00029400378084AAB430B4303703F23516CB8
:1054F0001C40064B240219400C435464FFF798FEED
:1055000070BDC0463F48004100480041FFC0FFFF5A
:10551000037870B505000C0041710B2B14D8FFF710
:1055200071FE29780F25094829400378084AAB43C2
:105530000B4303700323516C1C40064BA405194018
:105540000C435464FFF774FE70BDC0463F480041F1
:1055500000480041FFFF3FFF00787047F0B587B07B
:1055600001930CAB1E780DAB1B78050002930EABBC
:105570001B780078039310AB1F78049105920B28D9
:1055800002D9002007B0F0BD6B78062BF9D0AB78BC
:10559000002B00D179E01021080004F02BFE002838
:1055A000EFD02B783B4A1B019B181A00D1680029C9
:1055B00004D0D1688B4201D0D268F7E7D0600122D5
:1055C0000223AA70964203D0DB18022E00D01300EB
:1055D00006240188114301800188A14301800188CC
:1055E0001234A1430180153C018826402A4C360222
:1055F00021400E430680029E0188284C164021401F
:10560000B6020E430680039E0188254C16402140B9
:10561000F6020E4306800188224E3A4031401203C2
:105620000A43072102800F9A114002884903D204DD
:10563000D20C0A4302806A4692884280049A4260F1
:10564000029A002A08D0019A41685A43002F01D0DB
:105650000F9CA2408A184260059A8260039A002A31
:1056600009D0019A84685A431300002F01D10F9A80
:105670009340E31883600023EA789A4203D02B78A2
:10568000044A1B019B18C3607CE7024B0001C01851
:1056900095E7C04680170020FFFCFFFFFFFBFFFFE0
:1056A000FFF7FFFFFFEFFFFFF0B5150005AA148815
:1056B000827E022A00D16BE0032A00D19FE0012AFA
:1056C00000D06DE0EA430589AD182DB2002D5EDBF8
:1056D0000826825FAA425ADD002902DA5B180021FF
:1056E0001BB20A22825EC818904201DD531A1BB217
:1056F000002B4CDDC8B2C2085E4992015219521803
:1057000007250100DBB2294028421CD008205A4D51
:10571000401AC0B22D5C834200D3A3E0FF26C71A13
:105720003E413540012C00D16EE0022C00D16FE0EB
:10573000002C2CD11678AE431670834227D308393B
:105740005B18DBB24032072B14D9022C63D1100056
:10575000190005780839ED43C9B2057040300729B2
:10576000F7D819000839C9B2C9080131890152189E
:1057700007210B40002B0AD04049CB5C012C58D0AC
:10578000022C5AD0002C02D1117899431170F0BD2F
:10579000EA434589C918AD1802892DB2511A09B2D8
:1057A000002DF4DB0A26825FAA42F0DD002902DA2E
:1057B0005B1800211BB20822825EC818904201DDEE
:1057C000531A1BB2002BE2DDEA1092015118294A4C
:1057D00001208A1807210D40A840C0B2012C2FD00B
:1057E000022C36D0002CD2D1C043C0B2013B1BB238
:1057F000591CCCD01178014011700132F6E7428972
:10580000C918511A09B261E716783543157094E743
:1058100016787540FAE7611E4842414115001800AC
:105820004942C9B20838C0B2297040350728F9D8B2
:1058300097E711780B431370A9E711784B40FAE70B
:10584000013B1BB2591CA2D01178014311700132E7
:10585000F6E7013B1BB2591C99D0117841401170F9
:105860000132F6E7012CCFD0022CD1D0002C00D091
:1058700065E75FE7F8010020F0010020E801002063
:10588000F0B50C0005A90D88817E02293CD00329C2
:1058900000D1A1E001293FD10189D2188A1A12B2A0
:1058A000002C00DA97E00A26815FA14200DC92E03A
:1058B000002A02DA9B1800221BB20821415ED01890
:1058C000884201DD8B1A1BB2002B00DC83E0E11063
:1058D00089018A185D490120511807221440A0400F
:1058E000C0B2012D00D17CE0022D00D182E0002D5C
:1058F00071D1C043C0B2013B1BB25A1C6BD00A78B5
:1059000002400A700131F6E7E1430489D2186418B5
:10591000418924B28A1A12B2002C5CDB0826815F0E
:10592000A14258DD002A02DA9B1800221BB20A218C
:10593000415ED018884201DD8B1A1BB2002B4ADD74
:10594000D2B2D10841488901091909181400072069
:10595000DBB2044002421AD001303D4A001BC0B203
:10596000125C834200D36AE0FF26C71A3E413240F0
:10597000012D48D0022D4AD0002D2CD10E7896430F
:105980000E70834227D3083C1B19DBB24031072B32
:1059900014D9022D3ED108001A000478083AE443D5
:1059A000D2B204704030072AF7D81A00083AD2B2AF
:1059B000D20801329201891807221340002B0AD025
:1059C000244AD35C012D33D0022D35D0002D02D1D5
:1059D0000A789A430A70F0BDE1434489641824B2FE
:1059E0005EE7013B1BB25A1CF5D00A7802430A70ED
:1059F0000131F6E7013B1BB25A1CECD00A78424059
:105A00000A700131F6E70E7832430A70B9E70E7872
:105A10007240FAE76A1E504242410C00180052429E
:105A2000D2B20838C0B2227040340728F9D8BCE797
:105A30000A7813430B70CEE70A785340FAE7012D3A
:105A4000E1D0022DE3D0002D9DD197E7F801002091
:105A5000F0010020E801002030B5002947DB0C25CB
:105A6000445F8C4243DD002A41DB0E25445F9442B3
:105A70003DDD847E022C1ED0032C25D0012C04D1C8
:105A8000D243008980180A0001B2012B22D0022BD8
:105A90002ED0002B2BD10720D31703409B18DB10EF
:105AA0009B0159180123024093401A00174C635C74
:105AB000934363541BE00489013C611AD443428937
:105AC00009B2121912B2E0E740890138401A1100F8
:105AD00002B2DAE70724D017204080182240934012
