:1000000000800020658300002D8300004F830000E6
:1000100000000000000000000000000000000000E0
:100020000000000000000000000000004F830000FE
:1000300000000000000000004F830000B9830000B2
:100040004F8300004F830000113C0000456000001A
:10005000F18200004F830000D15100005183000065
:100060004F830000D56100004F8300004F830000E4
:10007000AD3F00004F830000E56100004F830000AA
:100080004F8300004F8300004F8300004F83000028
:10009000496B00004F8300004F8300001160000097
:1000A0004F8300004F8300004F8300004F83000008
:1000B0000000000010B5064C2378002B07D1054B3B
:1000C000002B02D0044800E000BF0123237010BDC4
:1000D000300400200000000000D40000044B10B5E4
:1000E000002B03D00349044800E000BF10BDC04608
:1000F000000000003404002000D400000122014B65
:100100001A707047C50E002070B506000C2008F06C
:1001100005FB08250024300008F06AFB013D0419A6
:1001200024B2002DF7D10723E01718400019C010A2
:1001300080B270BD70B505000C00272917DD002ABC
:1001400000D00334782C00DD78242000FE245021D8
:100150002838FF344942604308F0E4FE8B239B00BB
:10016000C11889B20E20698008F0BAFB70BDEE217B
:10017000FF3141800E2008F0B3FB283C054B6400A2
:10018000E35E0A220D215A43AB80034803F086FF49
:10019000ECE7C0469AB800004C01002010B5438837
:1001A00004888B4215D20179104B5B1AA34200DD03
:1001B00023005B1803800188C2880023914205D385
:1001C0004379994200D31300038001230372007A1C
:1001D00010BD42791300A24206D80179034B5B1A85
:1001E000A34200DD23009BB29B1AE3E7FFFF000060
:1001F00010B5084C01233C220221200005F0A0FC90
:10020000200005F029FC200005F086FD024B63610B
:1002100010BDC0469C04002001000100F0B5324D25
:1002200085B02800002405F017FC202708260123AC
:10023000220021002800029303942C4B0197009682
:1002400004F0D0FB01232200310028000293039424
:10025000274B0197009604F0C5FB012322002800DC
:1002600002931021234B03940197009604F0BAFBEC
:10027000012322002800029318211F4B03940197A9
:10028000009604F0AFFB01232200390028000293FE
:1002900003941A4B0197009604F0A4FB012322005B
:1002A000280002932821164B03940197009604F02E
:1002B00099FB01232200280002933021114B039463
:1002C0000197009604F08EFB0123220038212800BC
:1002D000029303940C4B0197009604F083FB2800D3
:1002E00005F01AFD05B0F0BD9C040020520400206A
:1002F00042000020660000208A000020AE0000209E
:10030000D2000020F60000207604002010B5044C36
:10031000200005F0A1FB200005F0FEFC10BDC0464A
:100320009C04002010B50C4C200005F095FB20002B
:10033000022104F062FD002320002361074905F03B
:10034000C3FF80235B0306492361200005F0BCFF47
:10035000200005F0E1FC10BD9C040020F0B5000079
:10036000F5B5000010B50C4C200005F075FB200021
:10037000022104F042FD002320002361074905F01B
:10038000A3FF80235B0306492361200005F09CFF47
:10039000200005F0C1FC10BD9C040020F9B5000050
:1003A000FDB50000F0B58027032685B07F031E4C05
:1003B0004B25200005F050FB0221200004F01DFD1C
:1003C00000231A492361200005F07EFF1849200010
:1003D000276105F079FF200005F09EFC0A20013D11
:1003E00008F02EF8002DF9D1200005F035FB01238F
:1003F00003931F330193203320002A002900009328
:1004000002950C4B04F093FA200005F085FC4B2478
:100410000A20013C08F014F8002CF9D1013EB6B2D4
:10042000002EC4D105B0F0BD9C04002002B600002F
:10043000FDB500009AB70000F0B50025092791B07E
:1004400000900191019BAB422BDD174C200005F081
:1004500003FB2000022104F0D0FC144E2A003100DE
:10046000276103A80AF026FA200003A905F02CFF53
:100470000F4B009A23616B00D25A310003A80AF097
:1004800019FA200003A905F01FFF200005F044FC25
:1004900021240A20013C07F0D3FF002CF9D10135BB
:1004A000D0E711B0F0BDC0469C04002008B60000A3
:1004B00009001000AA4AF8B51168050001230800D8
:1004C0001840194202D1A74913608870A64A012337
:1004D000116808001840194202D1A44913608870BD
:1004E000A34A0123116808001840194202D1A1490A
:1004F00013608870A04A012311680800184019424F
:1005000002D19E49136088709D4A0123116808003A
:100510001840194202D19B49136088709A4A0123FE
:10052000116808001840194202D198491360887078
:10053000974F984E002D20D00123974A0B2413701B
:10054000964A1370964A1370964A1370964A13701F
:10055000964A13700023964A3B701370954A337085
:100560001370954A1370954A1370954A1370954A03
:100570001370954A13702000F8BD3B78002B21D0F2
:100580002900784803F062FB0B24002800D03D705E
:100590003778002F5CD00021744803F057FB002807
:1005A00001D000233370884B1D78002D00D194E0DA
:1005B0000021704803F04AFB0028DCD00023824A67
:1005C0001370D8E7032008F0CDFA03005A1E9341B8
:1005D000744A1370704B1B78002822D1674C002B93
:1005E0000BD032215F4803F023FB01232000774921
:1005F0003B7003F01DFB0B240EE02900200003F0EC
:1006000025FB0028F7D0FA210122694B2000490080
:100610001A70042403F00CFB624B5F4A1B781370C2
:10062000B6E7664C002B07D132214E4803F000FBA1
:1006300001233B702370DEE72378002BDBD05C4B7B
:1006400025701A780924002AE6D01D700234E3E7E9
:10065000042008F087FA03005A1E9341524A13708F
:100660004E4B002821D11978464D00290ED0322159
:100670003E4803F0DDFA012328005449337003F0AB
:10068000D7FA494B454A1B7813708CE7280003F0D2
:10069000DDFA0028F5D0FA210122464B2800490056
:1006A0001A70052403F0C4FAEBE71B78444D002BC5
:1006B00007D132212D4803F0BBFA012333702B7090
:1006C000DFE72B78002BDCD03A4B2F701A78002A0A
:1006D00001D01F70D5E70A24D3E7072008F042FABB
:1006E00003005A1E9341314A2D4F137000281DD12B
:1006F0003978264D00290ED032211E4803F098FA91
:100700000123314A31491370280003F091FA274B35
:100710001B783B702FE7280003F098FA0028F6D0EA
:100720000124FA21244B49001C70EDE73B78254E4B
:10073000002B08D132210F4803F07AFA0123224A14
:1007400033701370E3E73378002BE0D01A4B357029
:100750001A78002A01D01D70D9E70624D7E7C046D1
:10076000300E00204E0E0020380E0020580E0020C3
:10077000400E0020620E0020340E0020520E002099
:100780003C0E00205E0E0020440E0020680E00206B
:100790004A0E00204C0E00201D0100201E010020EA
:1007A0001F0100201A0100201B0100201C01002055
:1007B000560E00205C0E0020660E0020480E002021
:1007C000490E00204B0E00204D0E00201A040000A0
:1007D000F8B5242706260C2502242F4B0800198083
:1007E000012108F063F93A002C492D4809F06CFC0E
:1007F0002C4B3A002C492D481E8009F065FC2C4BEF
:100800002A002C492C481E8009F05EFC2B4B2A0044
:100810002B492C481C8009F057FC2B4B2A002B49F4
:100820002B481C8009F050FC2A4B2A002A492B48EF
:10083000AD191C8009F048FC294B2A0029492A4897
:100840001C8009F041FC294B2A0001342849294821
:100850001C8009F039FC284B2A00284928481C80B4
:1008600009F032FC274B3622274928481C8009F022
:100870002BFC0922264B27491A8027483A0009F009
:1008800023FC264B1822264926481E8009F01CFC12
:100890000422254B1A80F8BD4000002028BA000031
:1008A000980C00204A130020D4B90000E80700206B
:1008B0003E130020D8B80000600D00204C1300202B
:1008C0001CBA0000200700203C130020CCB8000018
:1008D000D00B00204813002010BA0000080B0020A5
:1008E000461300204CBA0000C80400203613002034
:1008F00000BF000090050020381300206CBF0000EE
:10090000580600203A13002012BF0000780900208A
:100910004213002048BF0000400A0020441300207A
:10092000F8B90000B00800204013002010B50129DC
:1009300007D1C8222F4909F0C7FB2F4B1B8818008D
:1009400010BD022905D1C8222C4909F0BDFB2C4B52
:10095000F4E7032905D1C8222A4909F0B5FB2A4B3F
:10096000ECE7042905D1C822284909F0ADFB284B42
:10097000E4E7052905D1C822264909F0A5FB264B45
:10098000DCE7062905D1C822244909F09DFB244B48
:10099000D4E7072905D1C822224909F095FB224B4B
:1009A000CCE7082905D1C822204909F08DFB204B4E
:1009B000C4E7092905D1C8221E4909F085FB1E4B51
:1009C000BCE70A2905D1C8221C4909F07DFB1C4B54
:1009D000B4E70B2905D1C8221A4909F075FB1A4B57
:1009E000ACE700230C29AAD1C822184909F06CFBF6
:1009F000174BA3E7980C00204A130020E8070020BB
:100A00003E130020600D00204C1300202007002022
:100A10003C130020D00B002048130020080B0020BE
:100A200046130020C8040020361300209005002043
:100A300038130020580600203A13002078090020BF
:100A400042130020400A002044130020B008002078
:100A500040130020F0B5B3B081B26846FFF766FFDF
:100A60000A210500154803F0E3F8002403212000C3
:100A700008F0CEF980B2A8421ED2104E00213000FC
:100A800003F0E4F80028F8D06B466946671C7F0045
:100A9000DA5B6300C95A0A4B188805F07FFF6A4683
:100AA000A31C5B00D15AD35B3000C91889B2033450
:100AB00003F0BEF8A4B2D9E733B0F0BD7013002044
:100AC00040000020F0B59C4C9C4DA5446B696A46E3
:100AD00029690600280005F011FAE022984C6946C1
:100AE0002000920009F0F0FA607CA37C00285ED11F
:100AF000002B58D1C8225200628002221900FF3216
:100B00006360A360E36022612675E38223838D4ADC
:100B1000D1520233642BFAD1002318008A4FD9191D
:100B200002330880522BFAD100239C468749624643
:100B30005818023302802A2BF9D12088DF23933002
:100B4000FF30861900209B00E6507E4A125A023080
:100B5000944666446428F8D1E6500023FA5A0233DA
:100B6000B618522BFAD1DF2300229B00E650885A98
:100B7000023236182A2AFAD1E02221009200684671
:100B8000E65009F0A1FA28006A69296905F0A4F97C
:100B90006A4628006B69296905F052F96C496D486D
:100BA00005F0A4FB0120E1239B009D44F0BD002043
:100BB0008342F8D1674D6849280005F097FB6749E3
:100BC000280005F093FB0A222188280005F0F7FB96
:100BD0000A226188280005F0F2FB0A22A188280079
:100BE00005F0EDFB0A22E188280005F0E8FB0A2267
:100BF0002189280005F0E3FB0A226189280005F01D
:100C0000DEFB0A22A189280005F0D9FB0A22E1892E
:100C1000280005F0D4FB0A22217C280005F0CFFB38
:100C20000A22617C280005F0CAFB0A22A17C280068
:100C300005F0C5FB0A22E17C280005F0C0FB0A2272
:100C4000217D280005F0BBFB0A22E18A280005F07F
:100C5000B6FB0A222800218B05F0B1FB2600718B20
:100C60000A22280005F0A7FB3D4F2800390005F0B7
:100C70002BFB3C4B02369E42F1D1280005F02EFBA7
:100C80000026314B0A22995B280005F094FB0236BE
:100C90003900280005F018FB522EF2D1280005F08B
:100CA0001DFB0026294B0A22995B280005F083FBD7
:100CB00002363900280005F007FB2A2EF2D1280061
:100CC00005F00CFB002263882088C018A3881B183D
:100CD000E088C01823891B186089C018A3891B18D5
:100CE000E089C018237C1B18607CC018A37C1B18EB
:100CF000E07CC018237D1B18E08AC018238B1B18CA
:100D00001048815A02325B18642AFAD100220E4937
:100D1000895A02325B18522AF9D100220B49895AAA
:100D200002325B182A2AF9D1DF229200A058C01A99
:100D300043425841C0B236E77CFCFFFFD00E002092
:100D4000F00E00200A0F00206E0F0020C00F0020C0
:100D50000DB60000801F00201AB600002FB600005C
:100D600040B60000540F00200839030010B50800F9
:100D7000082908D808F042F8353A07070707081E7F
:100D800005001D4AD38110BDFA22181CD2009342DF
:100D900000DD101C030400D50020322100B208F051
:100DA000C1F800B2144B3C3040001818C38801331E
:100DB000C380E8E7114A181C934200DD101C104B59
:100DC00002B29A4200DA181C0E4B00B2C01814216D
:100DD00008F0A8F8084A68304000835A013383526B
:100DE000D1E719004A1E9141034AD174581E83412C
:100DF000014A1375C7E7C046F00E0020041000003A
:100E0000E40C00001CF3FFFF00B5042809DC0028F7
:100E100009DB0138114B032806D807F0EFFF090D55
:100E20001115152814D000BDDA880132DA80FAE7EE
:100E30001A8901321A81F6E75A8901325A81F2E79A
:100E40009A8901329A81EEE79A8801329A80EAE71C
:100E5000024A138B01331383E5E7C046F00E0020EE
:100E600030B5294900204A880B88284C9B188A886D
:100E7000274D9B18CA88A5449B180A899B184A8944
:100E80009B188A899B18CA899B180A7C9B184A7CE4
:100E90009B188A7C9B18CA7C9B180A7D9B18CA8A5F
:100EA0009B180A8B9B18DF2292008B502C5A023021
:100EB0001B196428FAD18B500022164CA05A02321A
:100EC0001B18522AFAD1DF2200209200124D8B50BB
:100ED0002C5A02301B192A28FAD18B50E02268467E
:100EE000920009F0F1F80D4C20006269216904F0CC
:100EF000F3FF6A4620006369216904F0A1FFE12342
:100F00009B009D4430BDC046F00E00207CFCFFFFDE
:100F10000A0F00206E0F0020C00F0020D00E00200E
:100F2000F7B5A025A126009200220193124B6D0077
:100F30007600A224A4465F889C4464461F801F005C
:100F40002488A0373C80F1249F5B64005F531F5BC3
:100F50000132023C1F5302334F2AEAD1074B4A3277
:100F6000FF329852A03299520099A03299520199B9
:100F7000A0329952F7BDC046EA0F0020F00E0020C3
:100F800010B5374C3748A544436901696A4604F0F7
:100F9000B5FFE022344C92006946200009F094F835
:100FA0006A4623683148009363680193A3680293FB
:100FB000E3680393237C1382637C5382A37C938234
:100FC000E37CD382237D1383E38A5383238B938330
:100FD00000231A00C15A6A440233D183642BF8D12A
:100FE0008222002322486A44C15AD1520233A02BE4
:100FF000FAD19122002352001E486A44C15AD152AC
:101000000233A02BFAD1E122002352001A486A448D
:10101000C15AD1520233A02BFAD10023174A1848E3
:101020006A44C15AD1520233A02BFAD10023154A87
:1010300015486A44C15AD1520233522BFAD10023C7
:101040001248D5AAC15AD15202332A2BFAD1C02153
:101050006846FF31FFF7F0F9E0239B009D4410BD87
:1010600080FCFFFFD00E0020F00E00200A0F0020B1
:10107000EA0F00208A1000202A11002062020000DE
:10108000CA110020020300006E0F0020C00F0020D4
:10109000074B70B504001A003234057801305D83C7
:1010A0000233A042F9D1D182FFF7DAFE70BDC0460B
:1010B000F00E0020064B01001A0010B532315C8B97
:1010C0000233047001308842F9D1D08A10BDC04685
:1010D000F00E0020F0B595B007AF3800FFF7EAFF3B
:1010E00000243A4D0590280004F0B6FC02212800A7
:1010F00003F083FE280036492C6105F0E5F80C2347
:10110000059A03265343334A403B1BB21380A34244
:1011100033DA314B1C80059BA34212DD2E4E3B5D22
:101120000022B15E0222029200220192013200925C
:1011300028000F3203F0D8FD338801340C3333809C
:10114000E9E7280004F0E8FD15B0F0BD1F4804F001
:10115000E3FD0A2007F074F90A2007F071F90A206C
:1011600007F06EF90A2007F06BF90A2007F068F91A
:10117000013403E0013E002EE6D000240321154B8C
:1011800000229A5ED3170B409B189B100133A34299
:10119000F0DB042300255B4263430F4A1380059B69
:1011A000AB42D3DD0C4F07AB0022B95E0222EB5CF1
:1011B0000292002201920132009204480F3203F0A1
:1011C00093FD3B8801350C333B80E8E79C0400200D
:1011D00042B60000C2120020B00E0020F0B504009C
:1011E00085B0002905D0534B186808F045FE524BD6
:1011F00018600A2351480F214443E0170005000DF1
:1012000000190013584307F08DFE08F035FE051C49
:1012100008F078FE4A4C02000B002000494905F016
:101220006FF8454E4849306808F018FA8321071CCA
:10123000C905281C08F01EFB444908F00FFA011CE0
:10124000381C08F031FC051C08F05CFE0B000200A5
:101250003F49200005F054F83E4F20003A683E49CF
:1012600005F04EF8386808F007FE291C08F01CFC51
:10127000051C08F047FE02000B002000374905F06E
:101280003FF8FF21281C890508F0F4FA019008F0C6
:1012900039FE02000B002000314905F031F8314FD2
:1012A000281C396808F03EF82F49386008F0E2FA47
:1012B000029008F027FE02000B0020002B4905F0E9
:1012C0001FF82B4F386808F0D7FD011C281C08F0C8
:1012D000EBFB284908F0CEFA039008F013FE020059
:1012E0000B002000244905F00BF83068164908F07F
:1012F000B5F9019908F016F8029908F013F8039966
:1013000008F010F8306008F0FDFD02000B0020002E
:101310001A4904F0F5FF0C49306808F0ABFA041CD8
:101320003060281C08F088FD3860201C08F084FD1F
:1013300005B0F0BD280E0020C4130020E40C00000E
:10134000B422002046B600000000204100007A448C
:1013500056B600002C0E002061B600006DB60000ED
:101360007CB60000EC0E00208FC2F53C87B6000072
:10137000001300200AD7A33C92B600009DB60000DF
:1013800070B505000801074907F0CCFD0A210400EB
:10139000280007F0C7FD044B24181C60034B1D6098
:1013A00070BDC04618FCFFFF2C0E0020280E002048
:1013B00010B50449044804F0A3FFFA20800007F0A8
:1013C0003FF810BDA7B60000801F0020F7B505004C
:1013D0000C200E000192082707F0A0F90024280035
:1013E00007F006FA013F041924B2002FF7D10723B2
:1013F000E017184004192248E4104443E0170005A0
:10140000000D0019FA2400136043962107F08AFDAD
:1014100064251C4BC4186C431B4B9C4215DB1B4BB7
:101420009C4228DC20001A4907F07CFD194B05B2CC
:101430009C420CDC0123019A092013703370FFF7E2
:1014400009FBFEF7AFFF2800FEBD3D00F2E7124B9F
:101450009C4210DC019B19241F7001233370FEF79E
:1014600081FF0B20FFF7F6FA0A20013C06F0E8FFA7
:10147000002CF9D1E7E70023019A33701370E2E7FB
:10148000B80B00001CF3FFFF13FDFFFFE527010071
:10149000EE02000093110000DF2E000030B50021A5
:1014A00085B04748002404F0BBFAE022454B46498A
:1014B0009C709200454804F0ABFC6421444B14221C
:1014C0009C70444B96209C70434B8000D980FA213D
:1014D0005A80F6321C809A80404B89001C805980CB
:1014E0009A80D8803E4B3F481C805880C82080009E
:1014F0009A80D8803C4B0B2059803C491C809980B5
:10150000C8214900D9803A4B3A499A80423ADA8058
:10151000C8221C805980384B12015A800222FF32A7
:101520001C809A809622354D1201DA802880012194
:1015300007F0BCFA0023E85E210007F0E7FA304D1F
:1015400022002800302102F045FD00233222022132
:101550000092019328000294313A02F00BFE294BCD
:101560009C70294B9C70294B9C70294B9C70294B7B
:101570009C70294B9C70294B9C70294B9C70294B6B
:101580009C70294B9C70294B9C70294B9C70294B5B
:101590009C70294B9C70294B9C70294B9C70294B4B
:1015A0009C70294B9C70294B9C70294B9C70294B3B
:1015B0009C70294B9C70294B9C7005B030BDC04677
:1015C0009C0400207013002000BB0000D00E0020FF
:1015D00008130020720E0020760E0020C612002094
:1015E000E012002088130000C8130020010A000048
:1015F0001C1300206C070000721200204C04002015
:101600004C01002004130020A813002078130020B0
:10161000A0130020BC13002090130020881300208A
:101620007C1300208C13002080130020A4130020C2
:10163000981300209413002074130020C01300207E
:10164000681300206C130020B4130020B013002096
:10165000AC130020B8130020841300209C1300203A
:1016600073B51B4C06000421200003F0C6FB194B88
:10167000002163611E230A002000019100932233A0
:1016800002F0AEFE0A21300007F04CFC0A2501B240
:101690006D424D430F23AD19632E00DD0E4B2361C8
:1016A0000A22200004F087FE012301930233200068
:1016B00000931922262102F093FE2C2329000A22EE
:1016C0002361200004F077FE200004F025FB73BDA9
:1016D0009C04002001000100FCFF0000F0B5334C29
:1016E000060085B0200004F0B7F96425642E02DC02
:1016F000F543ED1735400321200003F07EFB2C4B12
:10170000002163611C230A0000932000019124330F
:1017100002F066FE092E3EDC264B290023610A22D8
:10172000200004F048FE0026012720230822200084
:1017300001930092322132001F4B0396029703F06F
:1017400051F9202308222000019300923A2132000F
:101750001A4B0396029703F045F9122300930C3BB2
:101760001A0020003621019702F03AFE0A203721A4
:1017700068434942019607F0D5FB0623123000B2B8
:101780001A0036210090200002F02AFE200004F00A
:10179000C3FA05B0F0BD132E01DC094BBDE7632E83
:1017A00001DC084BB9E78023DB02B6E79C0400208C
:1017B000010001001F0004000000002020000020A4
:1017C000120004000D000400F7B5041E1A4E03DBDE
:1017D0000F2812DC002811D10023019320333000A0
:1017E00000931E220421203302F0FAFD300004F0A1
:1017F00093FA300004F090FAF7BD0F24002501277A
:101800000723ADB2A900013500931E22300009B2B2
:101810000197053B2DB202F0E3FDAC42F0DA002364
:101820000134A4000193123300931E22300021B230
:101830002E3302F0D5FDDCE79C04002010B5094CE6
:101840000022A35E834200DA20800023E05EA6210E
:10185000533007F067FB00B2FFF7B6FF0023238089
:1018600010BDC0466C0E002013B50723011E0A4CA4
:101870000CD001220021019200931D32053B200073
:1018800002F0AEFD200004F047FA13BD00931E22C3
:1018900002230190F3E7C0469C040020F0B5002528
:1018A0000224012689B0FEF7A3FCCC4F380004F0D7
:1018B000D3F80221380003F0A0FAC94B3D617B61E7
:1018C0002A001B232900380002940195009603F09A
:1018D0000BFA41232A001C2138000294019500963E
:1018E00003F002FA1A232A003421380002940195E9
:1018F000009603F0F9F9380004F00EFA1022B94B03
:101900001D80B94B1A80B64B0793B84B1B78002B40
:1019100000D006E2B64D2B880B2B2DD10020FEF710
:10192000C9FDFA2128804900B24802F08FF9002849
:10193000F0D0B14BB14D0021595EAB4B00229A5E05
:101940002B78002B0FD0002301260193009616332D
:101950003800029403F0C8F92B785E402E703800EE
:1019600004F0DAF9D6E701202870009002943800DC
:10197000019303F0B9F9F2E7092B01D0042B32D11E
:101980009F4AA04E12883378013A0021934201D039
:101990000133D9B2317000250E232A0000931021A3
:1019A00016333800019502F01BFD3378964AD35C5C
:1019B000112B12D1102395493B61380004F084FCAF
:1019C000934B1B78002B35D1380004F0A5F900208B
:1019D000FEF770FD864B188097E7FA2B13D1102382
:1019E0008C493B61E9E70A2B01D0052B15D1854EC7
:1019F0003278531EDBB2002A03D1814B1B88013B96
:101A0000DBB23370C7E701221C21009238002A00A4
:101A10000294019503F068F9D2E7062B01D0012B5F
:101A2000CED1784B784A1B78D25CFA2A45D1784BD4
:101A3000F93A1A7000260125380004F00DF85923F0
:101A400032003100380002940196009503F04CF901
:101A50004E2332003421380002940196009503F0A1
:101A600043F9059606956A4E3378002BACD00020DA
:101A7000FEF720FD5E4B80B21880092802D00428B2
:101A800000D081E00025069B102229003800009339
:101A900002942B00019503F027F9069B1022009376
:101AA0003421182338000294019503F01DF9012315
:101AB0000593380004F030F9D5E7574B1B88112AFD
:101AC0003BD1002B11D00021544AD218013A117099
:101AD000013B1A1C9BB20F2B00D90F224E4B91B227
:101AE0001A804F480A2204F06AFC10220025402385
:101AF000290000923800019502F072FC464B394AE9
:101B0000198804291DD81580364E0023F15E424BFA
:101B10001B88AB4233DD344A404B0020125E00206C
:101B2000EB5C0190013000900294380003F0DCF887
:101B3000338801350C333380E6E73849CA54013322
:101B4000C7E70C235B424B4334331380254E0023FD
:101B5000F15E314B1B88AB4211DD234A2F4B002035
:101B6000125E0020EB5C019001300090029438007E
:101B700003F0BAF8338801350C333380E6E7194BAC
:101B80001A881D4B1A801BE70A2801D0052816D198
:101B90000025069B10222900380000930294182388
:101BA000019503F0A1F8069B1022009334212B002D
:101BB00038000294019503F097F8022378E706288D
:101BC00002D0012800D074E7059B022B2AD1074BD5
:101BD000069A1A70002333706BE7C0469C040020FD
:101BE00001000100B00E0020B40E0020B60E00204F
:101BF000900E0020720E0020B20E00206101002025
:101C00005A010020940E002020010020BAB60000E6
:101C10006E0E0020BEB60000C01200208C12002004
:101C2000801F0020059B0025012B78D138003570DE
:101C300003F012FF2100380003F0DFF8079B3D613D
:101C40007B61059B2A0029003800009302941B2326
:101C5000019503F049F8059B2A001C2138000093E8
:101C600002944123019503F03FF8059B2A0034219B
:101C70003800009302941A23019503F035F83800D8
:101C800004F04AF8102140230A0000913800019521
:101C900002F0A6FB744B754A1988042919D81580DF
:101CA000724E0023F15E704B1B88AB422FDD704AF1
:101CB000704B0020125E0020EB5C019006980294AD
:101CC0000090380003F010F8338801350C3333806E
:101CD000E6E70C235B424B4334331380634E00230F
:101CE000F15E614B1B88AB4211DD614A614B002004
:101CF000125E0020EB5C0190069802940090380080
:101D000002F0F2FF338801350C333380E6E7574B9E
:101D10001A88594B1A800022584B1A70C9E605954B
:101D2000C7E60024380003F097FE554938003C61AF
:101D300004F0CAFA4C4B53481A880C2353439BB205
:101D40001900403909B20180A1422CDA0226474B22
:101D50001C80454B1B88A34214DD444D444A454B2F
:101D60000021525E0020295E0020E35C01900130DA
:101D700000900296380002F0B7FF2B8801340C3334
:101D80002B80E6E7380003F0C7FF374B3948198846
:101D9000FFF77EF9C8240A20013C06F051FB002C15
:101DA000F9D109B0F0BD1400324988180138013C5E
:101DB00002D306784671F9E75700C81949000D00AB
:101DC00005240026391A013C06714E550138002CB5
:101DD000F8D125490A320A802A4A3833138003345D
:101DE00000250321274B00229A5ED3170B409B1836
:101DF0009B100133AB4233DB042300265B426B4371
:101E00001A4A1380184B1B88B34215DD174F184A26
:101E1000184B0021525E0020395E0220F35C0290D4
:101E20000020019001300090174802F05DFF3B88D0
:101E300001360C333B80E5E7134803F06DFF0A20C1
:101E400006F0FEFA0A2006F0FBFA0A2006F0F8FA7D
:101E50000A2006F0F5FA0A2006F0F2FA0135C0E78A
:101E6000013C002CBCD190E7C0120020B00E002035
:101E7000B40E00208C120020B20E0020940E002020
:101E800042B60000C21200209C040020F0B5B54DFF
:101E900087B02B88A12B1DD1B34C200003F0DCFDB3
:101EA0000121200002F0A9FFB04BB14923612000BD
:101EB00004F00AFA0123002201931F3311002000CD
:101EC0000093203302F0C0FA200003F025FF072022
:101ED000FEF7C0FD032006F045FE002803D10A20CE
:101EE00006F0AEFAF6E7042006F03CFE0028F6D035
:101EF00032260A20013E06F0A3FA002EF9D19D4CAD
:101F000001202670FEF7D6FA013623780493002BC1
:101F100015D10A2006F094FA0498FEF7CBFA964BF6
:101F2000188083B21A00093A012AEED9043B012B2A
:101F3000EBD9062801D00128E7D12670E5E72B88E8
:101F4000A12B5CD10025884C0226200003F084FDE3
:101F50000221200002F051FF88492000256104F091
:101F6000B3F91E2320002361854904F0ADF9854BA8
:101F70001F780296AF4244D101231D000093102226
:101F80003B0008212000019702F0AEFE2B000296D4
:101F900001970095173310222C21200002F0A4FE97
:101FA0000120FEF787FA01270A2006F049FA0020EF
:101FB000FEF780FA744B80B26B4E1880092801D06E
:101FC00004282DD10025022310220821300002937D
:101FD00001952B00009702F087FE02231022029346
:101FE0002A21163330000195009702F07DFE654BE3
:101FF0001D70049D5C4803F08FFE002DD4D107B006
:10200000F0BD01231F000093102217330821200088
:10201000019502F069FE2B00029601950097BAE740
:102020000A2801D0052817D10025022310220821F3
:102030003000029301951633009702F055FE0223FB
:10204000102202932A212B0030000195009702F004
:102050004BFE4C4B1F70CCE7062802D0049D012894
:10206000C8D10025200003F0F7FC3900200002F061
:10207000C4FE46492000256104F026F910231022F1
:102080000093290030332000019702F0DDF910237E
:1020900005936421280006F045FF059A03B200214C
:1020A000300000920197102202F09AF90A2006F0FF
:1020B000C7F90A2006F0C4F9300003F02DFECA2348
:1020C00040355B019D42E4D132250A20013D06F0F6
:1020D000B7F9002DF9D12B4E2D4B32781A75FEF73A
:1020E000BFFE33782000224E002B1DD003F0B4FC3D
:1020F0000221200002F081FE31002561200004F061
:10210000E3F880235B031D492361200004F0DCF821
:10211000200003F001FEC8350A20013D06F090F9C9
:10212000002DF9D1002565E703F096FC022120007F
:1021300002F063FE31002561200004F0C5F8802321
:102140005B030F492361200004F0BEF8200003F078
:10215000E3FDC8250A20013D06F072F9002DF9D1F2
:10216000E0E7C0464A0100209C04002011000C005A
:10217000C2B60000CC0E00203C01002078B7000061
:102180007FB70000BE120020900E0020C8B60000ED
:10219000F00E0020E121F0B5BC4D87B02800090207
:1021A00005F072FDBA49280004F0A0F8B94801F022
:1021B000C1FDB94801F026FDB84C02002080B849A5
:1021C000280004F09DF82388B64CDA0700D405E116
:1021D0002800B54904F08AF8102323800221072043
:1021E00006F064FC0221032006F060FC02210420BA
:1021F00006F05CFC01210D2006F058FC01210800CE
:1022000006F054FC01210D2006F080FC012108009D
:1022100006F07CFC20880300113B012B00D83CE336
:10222000152800D1ABE2A14B11201988FEF7D0FA96
:10223000FDF7DEFF0020FEF745FC002802D1012259
:102240009B4B1A709B4B1B7C002B00D105E101229C
:10225000994B9A481A7003F0FFFBFA2198488900BD
:1022600001F0E6FC944B1C78002C00D1E6E00F2036
:10227000FDF74AFF0A23934C0F2160430013584394
:1022800006F050FE904B18801220FDF73DFFD02342
:102290002721584306F046FE44438C4B241300216B
:1022A00087481C8001F0D2FC002848D0884B894F19
:1022B0001C683868210006F0ABFD874E21003860AD
:1022C000306806F0A5FD002300227C4C30600193AD
:1022D0002033110020000093123302F081F8012115
:1022E000200002F08AFD002320003A687B49236128
:1022F00004F006F880235B033268794923612000EB
:1023000003F0FEFF774A3B6877499B18322222612F
:10231000642B00D97549200003F0F2FFC821744AEC
:10232000336889009B18734A22618B4200D97EE092
:102330006D49200003F0E4FF200003F0EDFC642170
:102340006D4801F083FC002817D0624A5E4B11688B
:102350001B880D205B1813605F4A5C4B11681B885B
:102360005B18012113605A4A136801331360634BF1
:102370001A785140197006F0C9FB3221604801F00B
:1023800065FC002807D001215E4B0B201A785140D4
:10239000197006F0BBFBFA215B48490001F056FCBE
:1023A000002810D0434B0A222800198804F007F8AF
:1023B000564C57482278002A3BD000223C21FDF79A
:1023C000B9FE00232370072006F0CCFB002800D0C4
:1023D00048E7384B1874384B187043E79A0705D50F
:1023E00028004C4903F082FF1123F6E65A0705D571
:1023F0002800494903F07AFF1223EEE6DA0605D5F4
:102400002800464903F072FF1423E6E69A0605D534
:102410002800434903F06AFF1523DEE65B0600D47B
:10242000DCE628003F4903F061FF1623D5E62F497B
:102430007FE77821FDF77EFE0123C3E721000B2013
:1024400006F064FB01210D2006F060FB2200322122
:102450002F48FDF76FFEFEF703FD1320324A334984
:10246000FEF7B4FF0024324F38802000FFF736F922
:102470002100642006F056FD00250600AE4259D02A
:10248000012005F0DDFF0135F8E7C046801F002080
:10249000D2B60000E4130020E31300200E13002046
:1024A000DBB600000C130020E1B600004000002065
:1024B000BE0E0020F00E00205E1300209C040020C1
:1024C000B8130020B80B00001013002016130020D2
:1024D000AC0E0020601300206413002039B7000008
:1024E0003EB700004AFCFFFF43B7000046B70000BC
:1024F00050E2FFFF32001000B41300205F130020F1
:10250000B01300205D130020AC1300205C130020EA
:102510004C040020F6B6000002B700000EB7000021
:102520001DB700002CB70000BF0E0020C60E002013
:10253000920E00203B880134A34296DA64240A20DC
:10254000013C05F07DFF002CF9D1FDF7DFFEDC4EEC
:10255000F37C002B00D0BBE0FDF7D8FE0320FEF794
:1025600079FAF289D74B1A80002A00D1BAE0327D7D
:10257000D54BD6491A700023D54A1380D54A13800B
:10258000D54AD488201C8C4201D9D44800881080B8
:10259000D34A1380D34BD888021C884201D9CF4A32
:1025A0001288D149D1481A8001F042FBD04B1B78E8
:1025B000002B00D1EFE0032006F0D4FA002800D071
:1025C00094E0043006F0CEFA041E00D08EE0C94D2F
:1025D0002F78002F00D1B0E0C74F0125380003F05D
:1025E0003BFA3800012102F008FC3800C3493C6185
:1025F00003F06AFE102238000A27402321000195CB
:10260000009201F021FF05956421200006F08AFC6C
:10261000059AB94D0192102203B2002100922800C0
:1026200001F0DEFE380005F00BFF380005F008FF72
:10263000380005F005FF380005F002FF380005F00E
:10264000FFFE280003F068FBCA2340345B019C4274
:10265000DAD1C8240A20013C05F0F2FE002CF9D1A1
:10266000FDF754FEC8340A20013C05F0E9FE002CB9
:10267000F9D1280003F0F0F90121280002F0BDFB98
:102680009F4BA0492B61280003F01EFE01230193FC
:102690001F332200210028000093203301F0D4FED4
:1026A000280003F039FB0720FEF7D4F99134FF34FA
:1026B0000A20013C05F0C4FE002CF9D1FFF7EEF82A
:1026C0000123F3743375FDF721FE894B1C703EE046
:1026D000FEF700FDC8240A20013C05F0B1FE002CE5
:1026E000F9D139E73222F2811A8040E700217F4890
:1026F00001F0ACFA041E3BD1834B00229B5E012B00
:1027000025D102217A4A1070804A1180804A1070C7
:10271000804A1070804A1380804A1070804A10707E
:10272000804A1370804A1370FDF778FDFA217F48C4
:10273000890001F07DFA7E4BC8E77E4C0023E15E04
:1027400001290AD17C497D4801F072FA27800020D6
:10275000FDF7B0FE6C4B188028E70029F7D17748C9
:1027600001F074FA0028F2D001232B702380EEE7E9
:1027700000235F4A13700122644B1A80E7E7FEF7DB
:1027800043FB0020FEF79EF9002802D101226C4B8A
:102790001A70FEF765FB05F023FE6A4B494F18607F
:1027A00064233A880F205343674A0A249B184A4AF5
:1027B000614D5380FDF7A8FC684300130F2160436F
:1027C00006F0B0FB614B18800F2006F011F868434B
:1027D000000B0F21604306F01BFB5D4B18601220BD
:1027E000FDF792FCD0232721584306F09BFB030002
:1027F000FA216B43574A1B131380544A98B212882C
:102800008900504306F08EFB534B18801320FDF7D0
:102810007BFCFA23684300139621584306F082FBA1
:102820004E4C4A4B4E4E208019883000FDF7B6FCC6
:10283000059500283ED001224A4B1A70334B0025E3
:102840005D5F022D00D0EBE00127474D474E297810
:10285000474C3770002906D1344801F0F7F90028B9
:1028600000D18FE02F702378002B00D091E03378D7
:10287000002B00D1A6E001233E493F4A13202370DC
:10288000FEF7A4FD3D4B80B21880FEF727FFFA212A
:102890003B48890001F0CCF994E0122800D07AE797
:1028A0000020FEF70FF9002800D074E70122244B26
:1028B0001A7070E73388002BC0D12A4A1370BDE725
:1028C000F00E00205E010020BE120020FEFF00007E
:1028D000C6120020E0120020C813002098B70000A4
:1028E0001C1300207212002088130000C013002067
:1028F00048010020CB0E00209C0400204AB70000B5
:1029000008000C0055B700003C0100205C010020CD
:1029100050130020C40E002046010020CA0E0020E3
:10292000CE0E0020C00E0020600100208C1300207D
:102930004201002044010020B80B00006813002071
:10294000BE0E00205413002030F8FFFF10130020AB
:102950001813002016130020121300201413002057
:10296000760E0020C4120020C90E0020CF0E0020D9
:10297000BD0E0020C60E0020BF0E0020920E0020CB
:10298000781300202A782378002A00D06BE7002BE8
:1029900018D0C04D0021280001F058F9002806D1B8
:1029A000BD4B00229B5E012B0CD1BC4B35E0BB4CD8
:1029B0002378002B30D0FA212800890001F038F963
:1029C00000232370B64DB44E0022AB5EB54C022BF3
:1029D00001D000F055FFB44A1378002B01D100F06C
:1029E0009FFF04232B8000231370B04AB04913705B
:1029F000B04A0B70B0491370B04A0B7023700133AA
:102A00001370AF4AAF49B048137001F011F9FA21C1
:102A1000AE48890001F006F8A34B01221A70D1E7F5
:102A2000002D62D0042D01D000F033FCA84C217899
:102A300000291ED1A54801F009F9002819D001226A
:102A40009E4B21001A701320A24AFEF7BFFCA24B36
:102A500080B218802378002B0BD0FEF73FFE4B246A
:102A60000A20013C05F0ECFC002CF9D10122944B2A
:102A70001A70894B944C00229B5E0B2B00D037E2DE
:102A80000021200001F0E2F800280CD0934A1388BE
:102A900001331BB213801E2B00D024E20121904B86
:102AA000197000231380032006F05CF88D4D002878
:102AB00014D1043006F056F800280FD18A498B480B
:102AC00001F0B6F8032006F04DF8002800D117E217
:102AD0000120FDF7EFFC0022854B1A800023854A78
:102AE0002B701360844A13803CE0844B844E198819
:102AF0003000FDF753FB002814D001221424814B31
:102B000003201A70804B1C80FEF77EF90023FA5ECA
:102B1000714B35800021595E7C4B0020185E2300EC
:102B2000FEF7FEF97A4B1C78002C00D004E1794BBB
:102B3000794D1E78002E33D131000D2005F0E6FFCF
:102B4000280032006421FDF7F5FA2D2005F078FC0D
:102B5000012228003988FDF7EDFA01236F4A13702E
:102B60006B4A13704E4B00229B5E002B00D068E234
:102B7000032005F0F7FF002800D11EE2002168487D
:102B800001F064F8002800D15BE25C4B38881988BA
:102B9000FEF7F6FB0123634A1370634A137050E299
:102BA000220032212800FDF7C5FA21000D2005F092
:102BB000ADFF322005F044FC32260A240122310008
:102BC0005548FDF7B7FA0F2005F012FE059B0F21BF
:102BD0005843000B604306F01BF9544B81B2186058
:102BE0005348FDF7DBFA142005F02AFC07360F20C6
:102BF000FDF78AFA782EE1D10F2005F0F9FD059B4B
:102C00000F215843000B604306F002F93B4B0A24A6
:102C10001880122005F0ECFDD0232721584306F040
:102C2000F7F8FA21059B434A43431B0B1380334AB1
:102C300098B212888900504306F074F9334B18801B
:102C400000B2FEF7FBFD3D880A21701B06F06AF911
:102C5000010061434919304D01222800FDF76AFA4D
:102C60000F2005F0C5FD059B0F2158430A23000BDB
:102C7000584306F0CDF82D4B81B218602C48FDF773
:102C80008DFA062005F0DCFB0F20FDF73DFA013C34
:102C9000D9D25DE7781300203C010020BB0E002054
:102CA0005C01002050130020C30E0020CF0E002036
:102CB000E2130020BD0E0020C90E0020C10E00202E
:102CC000600100203075000088130020A013002050
:102CD000C60E0020BF0E0020920E0020960E00208F
:102CE000CD0E0020C80E0020EE020000841300204C
:102CF00070120020A80E00204E1300201013002098
:102D00001C130020C20E0020B80E00201213002059
:102D10006F0E0020BE1200204C040020C4120020C0
:102D20009C13002058010020FC12002018130020E2
:102D3000760E002016130020FA21D248890000F0F8
:102D400085FF002839D0D04AD04913680133136079
:102D50000A6801320A60062B2FD1CD4B64211888F6
:102D600006F056F8CB4BCC4C0021595E02B2002342
:102D7000E05E0023FEF7D4F80023E05E0E21FDF7AD
:102D8000F3FFC64BC64A1B88181C1BB2934200DDDA
:102D9000101CC44B02B29A4200DA181CC24B00B29B
:102DA000C018142106F0BEF8C04A68304000835AAB
:102DB000013383520022B44B1A60B84BBC4C1988C3
:102DC0002000FDF7EBF900281ED12388002B1BD132
:102DD000E288B849131C8A4201D9B74B1B8823806B
:102DE000B64BAA4C1D78002D72D0962322685B004A
:102DF0009A4209D3FDF7B6FA0B20FDF72BFE01220C
:102E0000AF4B1A7000232360AE4BAF4E19883000D1
:102E1000FDF7C4F9A04C002813D001201025AB4BBE
:102E20001870AB4B1D80FDF7EFFF002333800023AC
:102E3000FA5E984B0021595E0023E05E2B00FEF7FE
:102E40006FF8A44D21882800FDF7A8F9002814D0B8
:102E500001229E4B95491A7011239D4A1380CA88FE
:102E60000132CA8000222A8000217A5E894900202E
:102E7000095E0025605FFEF753F8854B9648198878
:102E8000FDF78CF9002800D06CE6934B1B88002BD3
:102E900000D067E601228D4B02301A708C4B113244
:102EA0001A80FDF7B1FF8C4B8249DA88131C8A42E5
:102EB00001D9814B1B88884A13800023FA5E754B29
:102EC0000021595E0023E05E1223FEF729F849E64F
:102ED00001261E70FDF746FA0B20FDF7BBFD784B6F
:102EE00025601E7090E720007C4900F0A1FEDAE525
:102EF00020007A4900F09CFE0022794B1A80D2E52E
:102F0000042005F02FFE041E00D0E1E52B78059388
:102F1000002B4CD17349744800F098FE002826D04D
:102F2000724E0320336801333360FDF793FD33683D
:102F30006F4C012B22D1200002F08EFD0823802649
:102F400023610221200001F058FF76036949200027
:102F500003F0BAF902212000266101F04EFF664914
:102F60002661200003F0B0F9614802F0D5FE01228D
:102F7000534B1A700B23614A1380A3E5022B04D133
:102F800080235B035E492361EBE7032B04D180239D
:102F90005B035C492361E4E7042BE5D120005A4937
:102FA00003F092F901232B70059B3360DCE7FEF7F9
:102FB0006DFF4E4B2C701C60D9E7072005F0D2FD49
:102FC000051E00D0DAE5514B494C1E78002E00D08A
:102FD000A8E001351D703B4B38881988FEF7D0F901
:102FE000200002F039FD2900200001F006FF484BC7
:102FF00048492361200003F067F9202332003100A3
:1030000000930195DB18200001F01EFA200002F069
:1030100083FE200002F020FD0720FDF71BFDFA20B3
:10302000800005F00DFA032005F09CFD002800D17A
:103030008EE00120FDF73EFA0122304B1880204B34
:103040001A702E4B1E4D00241C5F0B2C00D086E006
:103050000021314800F0FAFD002800D19DE0012355
:1030600000222B702D4B1A802D4B0020185E00285B
:1030700001D0FDF7EFFC0023F85EFEF7F1FA002324
:103080002B708EE094130020980E00209C0E0020E0
:1030900016130020920E002012130020141300209B
:1030A00004100000E40C00001CF3FFFFF00E0020F1
:1030B00072120020FEFF000098B70000C70E00202B
:1030C0006001002010130020C6120020C20E002054
:1030D000B80E0020E0120020C81300203075000058
:1030E000960E0020EE02000084130020A80E00209F
:1030F0009C0400205EB700000CB700003C010020DB
:1031000063B7000068B700006EB70000FC12002033
:1031100008000C0074B70000A413002070120020F7
:103120004E1300201870200002F096FC01212000B0
:1031300001F063FEC44BC5492361200003F0C4F8CD
:10314000012301931F3300932A00290020335AE7FB
:10315000072005F007FD002800D164E769E7002299
:10316000BB4B1A80012C5AD1FA21BA4EBA48338887
:1031700089000133338000F05BFD3388012B19D1C6
:10318000B64A1278002A13D0B5483C22022102F038
:10319000D7FCB44B1888FEF7A1FA2B78002B00D08F
:1031A00062E7B14B0020185EFEF748FBFFF70AFC10
:1031B0003280F2E79A1E022A2AD8A94C200002F097
:1031C0004BFC102302212361200001F016FEA749C9
:1031D000200003F079F880235B03236102212000A3
:1031E00001F00BFE3388032B0BD0042B0ED0A0492B
:1031F000022B07D0200002F08FFD0320FDF72AFCF0
:10320000CBE79C49200003F05FF8F3E79A49F9E720
:10321000052BC2D1994B1C7000233380BDE7042CD1
:1032200013D13A88772A05D80A323A8003221A80C5
:1032300001232B70924C2378002B1FD064219148DE
:1032400000F0F6FC0023237018E0092C04D13A8822
:10325000772AEFD80132E8E7052C06D13A88282AE8
:10326000E8D90A3A3A800422E1E70A2C04D13A88E4
:10327000282ADFD9013AF5E7062CDBD13A88131C5E
:10328000782A00D978239AB2282A00D228233B80B2
:1032900083E7012D00D018E27B4B7C4E1A78002A80
:1032A0002BD0002235701A700122794B1A703378B6
:1032B000784E002B09D03388934206D19621002303
:1032C00075488900338000F0B3FC3588002D27D184
:1032D000714F2900380000F0B9FC002801D1FFF738
:1032E0005FFB6E4C2378002B16D0962138008900A6
:1032F00000F09EFC2570FFF765FB3778002FD3D1D7
:10330000FDF710F83900664800F0A0FC0028CBD08B
:103310003570FCF7FBFFC7E702233380FFF752FB52
:10332000022D01D0FFF74EFB5E4F5F4D3B78002B27
:1033300053D02B78002B01D000232B70FDF790FD8C
:10334000002308262380132005F052FA059B9621BE
:103350005843FA23000B584305F05AFD2388013ED9
:10336000C0182080322005F06BF8002EEBD12388A6
:103370004E4ADB102380934207DD3100012005F027
:10338000C5FB01210B2005F0C1FB494C0323494A31
:103390000721200002F010FE200002F0E3FD0720CC
:1033A00004F066FF0121080005F0B0FB00210B20AE
:1033B00005F0ACFB642005F043F8FCF719FF2B780F
:1033C000002B01D1FFF7FEFA002301223B703A4B9C
:1033D0003A493B481A80FFF75DFA2B78002B01D160
:1033E000FFF7F0FA072005F0BDFB002811D00021FF
:1033F000334800F02BFC002800D062E1314B002262
:103400009B5E012B01D0FFF7DDFA2F4A1370FFF707
:10341000D9FA042005F0A6FB0028E8D12B4B1B7835
:10342000002B01D1FFF7CEFA294D01272A78002A77
:1034300000D0C9E0204C2388012B4FD125492648D4
:103440002280FFF727FAC04608000C007BB7000077
:103450004E13002070120020A4130020C10E002083
:103460009C040020920E0020121300207FB7000061
:103470000CB7000063B7000068B70000CD0E002055
:10348000FC1200209C13002042010020CA0E0020E4
:10349000CE0E002046010020BC130020BB0E0020F1
:1034A0008013002049010020C50E0020470D0000B8
:1034B000781C0020FD00000040010020E204000014
:1034C000901300203C010020C40E0020C00E0020FC
:1034D000BC0E00208813000074130020002B01D0C4
:1034E000FFF770FA0021CA4800F0B0FB002801D1B4
:1034F000FFF768FA01232B702380FFF763FA0A2095
:1035000004F09EFFAAE00A2802D0052800D0D4E0EB
:1035100000232370D1E0BF4B1B78002B54D0092629
:10352000BD4C6425200002F097FA0221200001F032
:1035300064FCBA4B0A2231002361200002F03BFFF9
:10354000200002F0E9FB0A20013D04F079FF002D84
:10355000F9D1013EE4D2FDF713FD200002F07CFA20
:10356000AF492561200002F0AFFE80235B03AD4927
:103570002361200002F0A8FE200002F0CDFB64359C
:103580000A20013D04F05CFF002DF9D1200002F07B
:1035900063FAA5492000256102F096FE80235B03B3
:1035A000A2492361200002F08FFE200002F0B4FB4C
:1035B000984B08201D70FDF74DFA200002F04CFAE0
:1035C0009B499C4800F034FB924B1B78002B01D1A7
:1035D000FFF7F8F9904C6425200002F03DFA022133
:1035E000200001F00AFC944B0022236120231100EB
:1035F000200000930197DB1800F026FF8849200087
:1036000002F062FE200002F087FB0720FDF722FA9D
:103610000A20013D04F014FF002DF9D102262000FC
:1036200002F01AFA20008549256102F04DFE2000C3
:1036300059231022290002960195009701F054FBAE
:1036400020004E231022342102960195009701F0AC
:103650004BFB200002F060FB794C2770072005F03F
:1036600081FA002800D14AE7042005F07BFA0028FF
:1036700000D144E7032005F075FA002800D13EE7A9
:103680003800FCF717FF2378002B00D143E7002018
:10369000FCF710FF6B4B604D1880092802D00428FE
:1036A00000D030E700235B4A28002370137002F03B
:1036B000D3F95F495F4800F0BBFA280002F02CFB09
:1036C000E1E701233B70FFF77DF9032D01D0FFF700
:1036D00079F95D4C2378002B43D15C4B1888103866
:1036E00004281FD805F08AFB5E037B1E5E000123C1
:1036F000494D0E221F21280000930C3300F0EEFFED
:1037000000260C23062200931E21093B2800019667
:1037100000F066FE03231422019600931E21280068
:1037200000F05EFEC8214A4800F090FA494B00289C
:1037300003D0012219784A401A701B78002B5CD004
:103740002023002100931E2233480191DB1800F052
:1037500047FE0021404800F079FA002851D00123AB
:10376000237000233D4A3E4913703E4A13803E4A6F
:1037700013803E4AD088021C884201D93C4A1288F4
:103780003A4802803B4A13803B4BD888021C88424F
:1037900001D9374A12881A80FCF7B8FDFDF760FBA3
:1037A000FFF710F901232F221B4D039319331F211B
:1037B000280002930192009300220B3B00F0BBFF14
:1037C00000260C23072200931E21093B28000196A6
:1037D00000F006FE03231522019600939EE70123C5
:1037E000002102931D330193223300930A00234BDF
:1037F0000948039101F09BF894E70F20FDF7E4FFDF
:10380000A7E72378002B01D1FFF7DCF8A9E7C04632
:1038100074130020BC0E00209C0400201C000A0031
:1038200083B70000BEB600008EB7000094B700005A
:10383000E2040000901300200A000A0088B700008C
:10384000BA0E00203C0100203E010020B80E0020EE
:103850006C130020700E00207C130020C20E00208C
:10386000FEFF0000C6120020E0120020C813002056
:1038700098B700001C13002072120020E4B800006A
:10388000002B00D0A7E00022B35E062B01D0012B55
:103890001ED104232B800023A74A23701370A74A4C
:1038A00006201370A64A1360A64A1360A64A137036
:1038B000A64A13600122A64B1A70FDF7CBF8A54962
:1038C000A54800F0B5F9FA21A448890000F0B0F944
:1038D000A34B1B78002B23D003232B800025012131
:1038E0000D20257005F0E2F801210D2005F00EF9FC
:1038F000924B9C491D70924B9B481D60914B1D60E3
:10390000914B1D70914B1D60984B1D7000F090F90C
:10391000FCF7FCFC2800FDF757FF0C20FDF79AF898
:103920002278934B934C002A00D0BEE00025012161
:103930000D201D7005F0EAF82800FDF795FF8E4B6D
:103940008E491D808E4B1D808E4BD888021C88426C
:1039500001D98D4A12881A808C4B1D808C4BD888D7
:10396000021C884201D9884A12881A80FA212288CA
:10397000884B89488900DA8100F068F9002816D060
:10398000E122864C920023680133236093420ED1DA
:10399000834D2B78002B00D1C7E00020FDF792F873
:1039A0000123002800D000232B7000232360002077
:1039B000FCF780FD308004F013FD7A4C7A4B2060D8
:1039C00022681B68D31A794A934201D9FEF7E3FEB5
:1039D00004F006FDF2E7042B32D10022744B1A707A
:1039E0000022B35E062B0BD1724B1B78002B1CD030
:1039F0000920FDF72FF8FCF7D5FC01226E4B1A7059
:103A00006E490B78002B8BD0002301220B70FA211A
:103A10006B48237003706B482A8003706A4B6B48B5
:103A20001A70890000F004F97AE7012242492270F5
:103A30000A70474A05202B801370FDF70BF8DFE76B
:103A4000012B19D162490A78002A00D168E70222C5
:103A50002A8000220A705F4922700B8058490A7040
:103A600058490A705C4A1370534A1370FCF7D6FB2E
:103A7000FA215A488900D5E7032B00D050E7384B8C
:103A80001A78D3B2002A00D04AE704322A800125EE
:103A9000294A237013702E4B2E492F481D7000F0B9
:103AA000C7F8454B1D70FEF7B2FF234A1278002A73
:103AB00000D13BE701221A703D4B1A78484B1B7826
:103AC000002B20D0002A27D0464D474B2978188854
:103AD000FDF784FB00232B70031C80B278280DD9DE
:103AE0007823424A99B21380414B42481A78FCF736
:103AF00021FB00210D2005F009F80DE09AB2282ADB
:103B0000EFD22823EDE721880B1C782908D97823E8
:103B100099B22380002AE7D10120FDF7A5FE25E711
:103B200089B22829F4D22823F2E70420FDF76CF9A2
:103B3000FDF796F939E7C046E2130020C60E0020D3
:103B4000980E00209C0E0020C70E0020A00E002022
:103B5000C10E00203075000088130020A013002043
:103B6000C20E0020DC0500007C1300203E01002076
:103B7000E80E00205E010020C6120020FEFF0000BB
:103B8000E0120020C813002098B700001C1300208A
:103B900072120020F00E0020A8130020A40E0020B6
:103BA000BE0E00205813002054130020A76100000F
:103BB0006F0E0020BF0E002060010020CD0E0020FF
:103BC000CA0E0020CE0E00204901002080130020E4
:103BD000C40E002046010020C00E00208C130020DF
:103BE000FC1200205801002010130020FA120020BF
:103BF000C41200204C0400200022014B1A707047B0
:103C0000E3130020014B1878C0B27047380400401D
:103C10000221064B1A788A431A70DA79D209FCD14C
:103C2000997901320A439A717047C04600100040EA
:103C30000B005A1E934170B505000C1E837004D012
:103C400004F0C8FB013C24182C8070BD70B584784A
:103C500005000E00002C0AD0048804F0BBFB074AC4
:103C6000231A9BB20024934205D95B42DCB2310097
:103C70002800FFF7DDFF200070BDC04660EA0000AD
:103C800000207047F8B505000E0017000024BC4264
:103C900008D02B682800315D1B689847002801D0A8
:103CA0000134F4E72000F8BD70470300FC33196AC3
:103CB000DA69914203D01B6AC018007E7047012068
:103CC0004042FBE70300FC33D8691B6AC01A01D5E8
:103CD0000130FF3070470000F7B50193FA238027C9
:103CE000002504009B008360114B7F0008330E0009
:103CF00045602900009203603A00183006F0EDF9A3
:103D000023002000FC332130DD613A001D622900D0
:103D1000FF3006F0E2F987239B00E3185D609D60A9
:103D2000009B20002375019B2661A5756375FEBD70
:103D300080BF000070B5040018260C49006902F02D
:103D4000DBFD206902F02AFC33000821207D084DAC
:103D50004343EB18595604F01DFF0821607D46438C
:103D6000AD19695604F016FF70BDC046A08601006B
:103D700020CD000070B504000D00006902F023FCA6
:103D80002900206902F0B8FD206902F007FC70BD2F
:103D90008A2300229B00C1540C3BC3185A609A60CE
:103DA0000123837570470200FC32536810B501335C
:103DB0009468DBB29C4202D054680155536010BD38
:103DC00010B50300827D002082420ED0872292002F
:103DD0009C186268A4680132D2B2A24205D0213395
:103DE000FF331800FFF7DFFF012010BD0300FC3395
:103DF00099685A68914206D09A68805C9A68013244
:103E0000D2B29A60704701204042FBE700228A2329
:103E100070B59B00827505000E00C15C006902F060
:103E200005FC002806D10321286902F0E9FB0224E1
:103E3000200070BD872328009B00EA18536894680F
:103E40002130FF301C1B01D50134FF34002C0ED073
:103E50002C69FFF7CBFFC1B2200002F025FC00283F
:103E6000E8D10321286902F0CBFB0324E0E7002E10
:103E7000DED00321286902F0C3FBD9E710B5012188
:103E8000FFF7C4FF10BD10B51830FFF7AFFF10BD2E
:103E900070B50400006902F029FC002814D02069E4
:103EA00002F032FC002810D0206902F09FFB0321B1
:103EB000206902F0A5FB8C239B00E558002D39D129
:103EC0000023FC34E361236270BD206902F026FC0C
:103ED000002809D0206902F01CFC002804D02069C9
:103EE00002F021FC0028DFD0206902F017FC002836
:103EF00026D1206902F003FC0028E5D0206902F0F9
:103F000012FC002837D087239B00E2185368926880
:103F10009B1A01D50133FF33FF21002B05D0200070
:103F20002130FF30FFF762FFC1B2206902F0CFFB02
:103F3000A075C9E7236820001B699847A847BFE719
:103F4000206902F053FB2069032102F059FB20692C
:103F500002F0E9FB0028B7D0872300229B00E3187A
:103F60005A609A600123A3758B239B00E358934208
:103F7000AAD09847A8E72200FC32D369126A01331D
:103F8000DBB22069934206D102F027FB03212069AE
:103F900002F036FB98E702F0CBFB0100200018305E
:103FA000FFF701FF206902F021FBEFE710B502489F
:103FB000FFF76EFF10BDC046E413002010B51523B7
:103FC000142202490248FFF787FE10BD8822002014
:103FD000E413002030B5234B002A37D0224A5A6020
:103FE0005A78D209FCD1214A9A605A78D209FCD178
:103FF0001F4A5A805A78D209FCD15F241D4A946422
:104000001D4CD46402221D4C25782A4322701C4A80
:104010005A605A78D209FCD101320271FF291CD9A9
:10402000FF210422016009021143164A11605A78E7
:10403000D209FCD1144A154911805978C909FCD11B
:10404000134911805A78D209FCD130BD114A124C63
:1040500014605A78D209FCD1DFE70029E1D101319F
:10406000DFE7C046000C00400507030005300000F4
:1040700001450000000800402810000044080040EE
:1040800004080300080C0040020C00401A44000021
:104090001B440000040C004004070300F8B50400B2
:1040A000182500200B0020492E0046438E599E42C1
:1040B00004D001300E28F7D1002034E000208342E4
:1040C00031DB01266B43C9184B68184D8868DB014A
:1040D0005B191D1840352F7840083E431B182E7081
:1040E000303318784D69CE682843C0B21870282341
:1040F0007343A4680E4D20000F69EB18944200D959
:1041000010009A69DB69002105F018F822000023ED
:1041100004F0F4FF28235E43AA59386093685B02D9
:104120001B0FFBD10120F8BDA4BF000000440041DB
:1041300068010020002010B5022913D828234B4322
:104140000B4CE318981CC2775B680220002A0AD047
:104150001A681043186028235943625893689B07D4
:10416000FCD4012010BD1A6882431A60F3E7C046F0
:1041700068010020F7B508AB30CB1E78009401959C
:104180000023022958D81C00012A17D0022A13D074
:10419000042A53D0082A54D0102A54D0402A55D08B
:1041A0000133FF339A4253D08023E024DB009A424C
:1041B0004AD00024012201E08024640028254D43D8
:1041C000244B5D196F686A613A6814436A1CD6779C
:1041D000AA683C6015680224002E00D11E4C2C43B6
:1041E000146028224A439C58A2685206FCD4019AC3
:1041F000009F9446002A02D1022F00D202272822D3
:10420000150000264D435D192D69664503D1BD4259
:1042100001D93D0066464A439A189561D661D26835
:104220001560A2685203FCD428224A439B1802332B
:10423000DA7FFFF77FFF01231800FEBD8024A40072
:10424000BCE7C024FBE78024E400B7E7A024FBE739
:10425000C024F9E76801002005000F007047F0B5A1
:1042600015000C001E0089B00EAB00229B5E0FAA49
:104270001288019005925A1BD11752184A40029297
:10428000321BD11752184A4003920399029A8A426C
:1042900005DD32001E00130022002C001500B44280
:1042A00005DD2A001D001300220034001600321B19
:1042B00091B20691591BC8170918414012B20791D3
:1042C000D10F8A1852100092012204929D4202DB03
:1042D00001235B420493B44222DC019B039A1B68D6
:1042E0009B691F00029B934216DD22002900059B5B
:1042F0000198B847009B079A9A1A11B293B200919D
:10430000120406D5049AAD18069A2DB2D3181BB222
:104310000093013424B2DEE72A002100059BE7E781
:1043200009B0F0BD704710B504682469A04710BDFE
:1043300037B506AC258804680095A46BA04737BD47
:1043400037B506AC258804680095E46BA04737BDF7
:1043500073B506AC0025655F07AC26880468019636
:104360000095246CA04773BDF0B5160004000D0045
:1043700085B003930AAB1F8803685B699847039B6A
:104380002268013B9B191BB2009301972B00290067
:104390002000976A3200B84723682000DB6A9847FC
:1043A00005B0F0BDF0B505001C000E00170085B08B
:1043B0000AAB1B88013C03930368A4195B69984707
:1043C00003992A68019100973100280023B2946A6A
:1043D0003A00A0472B682800DB6A984705B0F0BD7B
:1043E000F0B50E0087B003930CAB029200229B5EE7
:1043F000040004930DAB1B883500059303685B69CB
:104400009847039A2368B21895420BDA059A290057
:1044100000921B6A20001F00029A049B0135B847D6
:104420002DB2EEE72000DB6A984707B0F0BD13B568
:1044300001910E24015F0C22835E02680091146CCE
:1044400000221100A04713BDF0B5040015000E00B6
:1044500087B004930CAB00229B5E05930DAB1B88C9
:10446000039303685B699847039A236800923100BD
:104470002A0020005F6A049BB847059B03995A1ED7
:10448000236800915219310020005F6A12B2049B28
:10449000B847039A2368009231002A0020001F6A5F
:1044A000059BB8470499039A23680139009289193A
:1044B0002A0020001F6A09B2059BB8472368200024
:1044C000DB6A984707B0F0BD7047F0B585B002933E
:1044D0000AAB0027DF5F0BAB1B8816000393029B20
:1044E00004000D000268994210D1BE4202DD330083
:1044F0003E001F00039901370091BB1B976B1BB255
:10450000320029002000B84705B0F0BDBE420CD1F2
:10451000029B994201DD029D0291029B03990133A6
:104520005B1B0091D76B1BB2EAE753699847039A6C
:1045300023680192009720009F6A3200029B2900A5
:10454000B84723682000DB6A9847DDE703230B4068
:1045500010B583760822835E0A24025FC90702D45D
:104560008381C28110BD8281C381FBE74281C28108
:104570000122002310B55242064C4261064A08341B
:10458000436004600181818103618261037703627A
:1045900010BDC046F4C5000001010001F0B51C00CB
:1045A0008FB00692012214AB1B780591079315ABCF
:1045B0000021595E16AB1B8805000893A3B2D01AE0
:1045C00093405B421BB289180C938BB209930493FE
:1045D000002300B2029003930D92039BA3427BDA67
:1045E000029B2700002B09DB0C9B671E02331AB2CB
:1045F0000C92029A3FB29B181BB202936B469B89A6
:104600000A9301339AB21BB203930B925300029A9E
:1046100001339B181BB20293039B9F422CDB079B29
:104620000D9A134212D00999BAB25300CB180699C9
:104630000B988A1A05992E68411808981BB20090A9
:10464000306A12B2060009B22800B0470222079B66
:10465000134211D00999BAB25300CB1806990B989E
:104660008A1A0599089E091A28680096066A1BB2DC
:10467000280012B209B2B047BC4227D0079B0D9A5E
:1046800013420FD06B460A9910229B5E069A089E31
:10469000521A0599286809190096066A12B228006C
:1046A00009B2B0470222079B13420FD06B460A990A
:1046B00010229B5E069A2868521A059912B2091BAD
:1046C000089C09B20094066A2800B047049B3C008D
:1046D00002339BB2049380E70FB0F0BDF0B51E002B
:1046E00004000F0087B00CAB1B880492059303688D
:1046F0005B69984704990598B2B253008A1A2168F9
:104700000090096A01330D00200039001BB212B27B
:10471000A847059B3900029300230193033320002F
:10472000049A00933300FFF739FF23682000DB6A07
:10473000984707B0F0BDF0B591B01D0016AB0292DE
:1047400000229B5E0700039317AB00269E5F18AB09
:1047500000229B5E039A049319AB1B880C000993FB
:10476000029B934200DCD7E0049A93421DDD049B38
:10477000039A934212DA1300049A0392029A029364
:104780002B003500260004921C000EE0029B039AC9
:104790000393230002922C001D00E8E7029B049A79
:1047A0000493230034001E0002923B6838005B69CA
:1047B0009847039B049A93421DD1A54202DD2B002A
:1047C00025001C00B54205DC231CB44200DA331C72
:1047D0002E001CB209993A6801340091A31B556A56
:1047E00031003800039A1BB2A8473B683800DB6AE7
:1047F000984711B0F0BDA3B2ADB205935B1B1BB2DD
:104800006A460D936B4691891B89B6B25A1A12B249
:104810000E92721B12B208926A46128A511A09B29B
:104820000B910599D21A761A31B212B20C910F92ED
:104830000499029A0A928A4202D0013B1BB20A935F
:104840000023039E079306930A9B9E422ADC0E993F
:10485000069804F067FB28180B9904B2079804F037
:1048600061FB0D9A069B9446089A6344944606930E
:10487000079B2818634400B20793844202DD23009B
:104880000400180009993A680091526A0130944670
:10489000031B32002100380064461BB20136A047DA
:1048A00036B2D1E7029BF21A0C9B53430293039B4F
:1048B000089AF31A5A430392049B9E4200DD94E740
:1048C0000F99029804F02EFB059B0B99181804B25F
:1048D000039804F027FB0C9A029B9446089A6344C1
:1048E00094460293039B2818634400B203938442C6
:1048F00002DD23000400180009993A680091526A09
:1049000001309446031B32002100380064461BB27C
:104910000136A04736B2CFE7039B049A934200DDED
:1049200034E7029A029303922B000D002CE7F0B5B6
:104930008DB0079312AB069200229B5E0591019306
:1049400013AB00229B5E0400089314AB1B88002667
:10495000099315AB1B8835000A9303685B69984778
:104960000722019B0B92D91DCB1713405B18DB105C
:10497000029333009AB20392069A99B28A1812B23D
:104980000492089A934227DA0023019A93421DDA8F
:104990009AB200920B9A6D00EDB2134203D1079ABE
:1049A000DB109219D55C2368059A9B691F00009B58
:1049B00099186AB2099B09B2002A00DB0A9B200001
:1049C000049AB847009B01331BB2DEE7039B029AAF
:1049D00001331BB2B618CDE723682000DB6A984785
:1049E0000DB0F0BDF0B585B00AAC0025645F0BAD2D
:1049F0000026AD5F0DAF0CAE36883F880296039758
:104A000001950094FFF793FF05B0F0BDF0B595B0A8
:104A10001D001AAB1B88049205931BAB1E881CABB0
:104A20001B78026A02931DAB1B7804000891039364
:104A3000002A00D0C4E00C22835E8B4200DC7DE0C3
:104A40000E22835E049A934278DD0623029A534332
:104A50005B18002B72DD039B049ADB009B18002B74
:104A60006CDD037F002B03D1AF2D01D90135EDB2F1
:104A7000236820005B69984705220023554307936C
:104A8000984B0B925B190F93079A0F9B9B5C0A93B1
:104A90006B469B8B09936B461B89099A0E936B4659
:104AA0001F8C029B5343FB181BB20D9308230C93DE
:104AB0000023069301220A9B2068134252D06B46C2
:104AC0001A8B198A029B012B3AD1039B012B37D1F8
:104AD000099B52188569D919059B12B209B22000A9
:104AE000A847069B01335BB206930A9B5B080A93B7
:104AF0000C9B013BDBB20C93002BDBD1079B0133FA
:104B00005BB207930B9B013BDBB20B93002BBBD13A
:104B1000059BB3420ED0029B2268012B3FD1039B21
:104B2000012B3CD105370096156A2000049A39B252
:104B30000733A84723682000DB6A984715B0F0BD0B
:104B40006B4608255B5F039D6A438A18059912B27C
:104B5000019169460C25495F0091C5690D992000B6
:104B6000A847BEE7059BB342BBD06B461A8B198A98
:104B7000029B012B0AD1039B012B07D1099B5218E1
:104B8000D9198569330012B209B2A8E76B46082526
:104B90005B5F039D01966A438A1812B2D9E76B46A0
:104BA00008215B5E05210E98019641430398791810
:104BB000C0000090D5692000049A09B2A847B9E75F
:104BC000137A5168ED1A1268EDB2ED0013924A5B48
:104BD0004B1909929A780D92DA78119205229A5619
:104BE0009B790E925BB20F93029B012B02D8039B21
:104BF000012B56D96B4638229B5E0B936B463C22A9
:104C00009B5E0C930027236820005B6998470797F9
:104C10000697119B069A9A4200D38BE76B461B8A34
:104C200000260A930C9B9B18039A53430A9AD318A5
:104C30001BB210933B000D9A96424BD25A1CD2B233
:104C400012920722134207D1099B0999139A013343
:104C5000525C9BB2079209936B461B7F5BB2002BA1
:104C600017DA6B46198C029B2068012B1DD1039B20
:104C7000012B1AD10A9B0F9A9A18069BD2180E9BE9
:104C800012B2C918836989191D002000059B09B259
:104C9000A847079B01365B00DBB20793F6B2129B75
:104CA000C9E700230C930B93ACE76B4608229B5E8D
:104CB0000B9A029D92196A438918059A09B20192CA
:104CC0006A460C25525F0092C26920001500109AB6
:104CD000A847DEE7069D0D9B0135FF18EBB2FFB23A
:104CE000069396E7F4C000007FB508AC258809ACB0
:104CF00026880AAC24780196009503940294FFF765
:104D000085FE7FBDF0B5026A04000D0085B0002A63
:104D10002CD10A2908D1437E0282DB00628A9B18CB
:104D20006382012005B0F0BD0D29FAD01223C25EC6
:104D30001023C15E437E0393037E0293C38A0193D3
:104D4000838A00932B00FFF761FE227E238A312D98
:104D500008D1042A02D113332382E2E7032A01D1C6
:104D60000E33F9E706214A439B18F5E70A2905D1D6
:104D700000230382127B437E5343CFE70D29D0D01B
:104D8000137A9942CDD3917AA942CAD3EB1A5168CA
:104D9000DBB2DB00CE18B178002929D0F378002BE4
:104DA00026D0E37E007E677E002B13D00523F356CA
:104DB0005B1843439C461023E15E8C440C23E15E68
:104DC0008C4507DD1223E15E00232382137B7B43A6
:104DD0005B1863821223E25E1023E15EE38A029095
:104DE0000193A38A2000009303972B00FFF70EFE88
:104DF000227E33795343228AB6E70B1C002900D167
:104E0000012303764376704710B500F02DFB002296
:104E1000024B8000C35849331A7010BD6C16002035
:104E2000F0B5040085B01E000AAB1B78103001936A
:104E30000BAB1B78170002930CAB1B780D00039390
:104E400000F094F92000243000F090F922000023B3
:104E50004832A363E3632364636413705370637223
:104E60009D4205D12721084B084A094805F0BCF8A6
:104E70002000019B25606371029B2771E371039BF6
:104E8000A671237205B0F0BD4CC600005DC60000DF
:104E9000B1C6000030B5040085B002AD00680291D3
:104EA000039201F036FB6B79227AE1792068009356
:104EB000002301F0F7FC2979029A206801F04EFBEB
:104EC000206801F01CFB05B030BD000007B5837AF7
:104ED00000910192002B07D09A070AD5EFF31083B7
:104EE0005A425341C37272B60099019AFFF7D2FF3A
:104EF00007BDDB07F8D5C368014A9BB29360F3E7AF
:104F00000018004010B5006801F00CFB10BD000057
:104F100010B5006801F01AFC03000020834203DB97
:104F20000C304343014A985810BDC04618C70000D2
:104F300010B5006801F00AFC002805DB0C23434390
:104F40000348C018406810BD01204042FBE7C0463E
:104F500018C7000010B5006801F0F8FB002805DB59
:104F60000C2343430348C018806810BD0120404211
:104F7000FBE7C04618C70000F0B506001036050074
:104F800089B0300000F048F900286CD12F00243798
:104F9000380000F041F9041E62D12800FFF7DAFF63
:104FA000C1B2300000F018FA0221300000F038FAE7
:104FB00001222E49300000F00BFA300000F054FAC4
:104FC0002B4B8000C5502800FFF7B2FFC1B238005C
:104FD00000F002FA0221380000F022FA380000F056
:104FE00043FA234B8000C5502800FFF791FF0123AF
:104FF00001002200029330002300049403940194E2
:10500000009400F033FAA8632800FFF781FF012322
:1050100002002100019338002300049403940294B9
:10502000009400F023FAE863402005F039F82A00E4
:1050300048322864079200280BD00123137068645B
:105040006B6C10221819E96B103405F03DF8402CF8
:10505000F6D1079B1B78002B05D1380000F076F9BC
:10506000300000F073F909B0F0BDC046094E0000F1
:105070006C16002070B5437A0400002B03D1012286
:1050800043814272C360230048331B78002B02D156
:105090002000FFF771FF18263300082120790D4DFD
:1050A0004343EB18595603F075FD33000821A079EE
:1050B0004343EB18595603F06DFD082160794643D0
:1050C000AD19695603F066FD034B200006CBFFF7D0
:1050D000E1FE70BD20CD0000641600201FB5094A16
:1050E000094B0A4913600023938002930133019313
:1050F00016330093162201330548FFF791FE05B0E1
:1051000000BDC0466416002000093D008C2200202E
:1051100018160020084B1968002909D1EFF31080F8
:10512000064A002803D172B6BFF35F8F01311170B8
:105130001A6801321A6070472818002024180020CD
:10514000084B1A68002A0CD01A68013A1A601B68CA
:10515000002B06D1044B1B78002B02D0BFF35F8FCE
:1051600062B670472818002024180020FF2310B5CD
:105170000370C023002104009B00417041808380A4
:105180000C22083004F0A9FF200010BD01230A0002
:1051900010B51A40194208D00C4A137003334370FB
:1051A0008368002B00D0984710BD0223194204D019
:1051B00006490B70C3684270F3E704231942F3D029
:1051C000024A1370033343700369EAE74E48004113
:1051D00010B5FFF79FFF0C4B1B8C1B071B0F0B2BF6
:1051E0000FD80A4A9900885800280AD00F24084985
:1051F0000A78A24313430B70064B1978C9B2FFF724
:10520000C5FFFFF79DFF10BD004800412C1800208E
:105210003F4800414E480041F8B5002302780500A0
:1052200018000B2A77D93C4E2B702B780B2B07D804
:1052300001229A403168114204D001332B70F4E707
:10524000012068E0FFF766FF3768344C002F2BD150
:105250002022334B334859690A435A611022D969D5
:105260000A43DA610222238839009343238023888A
:10527000013A134323802C4B6063BF32A36304F0D5
:105280002CFFC0223900284804F027FF4022C1200B
:10529000264B80002380264B26491A601A5811405D
:1052A000C02212040A431A5001231A0029783068D8
:1052B0008A40024332600F261F4A880085501F48EB
:1052C00031400278B2430A43027002201C4A11782E
:1052D00081431170117819431170297822698B402C
:1052E0009A43226160223F21636C934363642A796D
:1052F000636C0A40134912020B4003211343636499
:105300006A79636C0A40104992050B401343636449
:10531000FFF716FF0020F8BD2018002000480041CC
:105320000004004060170020A0160020020F0000BB
:1053300000E100E0FFFF00FF2C1800203F48004183
:1053400040480041FFC0FFFFFFFF3FFF70B5050071
:10535000FFF7E0FE6B785CB2062B2BD02B78022493
:105360000B2B27D801229A40144B1968114221D0E7
:105370001968914319601B68002B14D14022104B0F
:10538000DA67BFF34F8FBFF36F8F21000D4A0E31E5
:105390001388A34313800C4BDA698A43DA615A6994
:1053A00010318A435A6100242B78084A9B009C5094
:1053B000FF232B70FFF7C4FE200070BD20180020D3
:1053C00004E100E000480041000400402C180020E7
:1053D0000232920011507047037870B505000C003E
:1053E00001710B2B14D8FFF795FE29780F2509487A
:1053F00029400378084AAB430B4303703F23516CA9
:105400001C40064B240219400C435464FFF798FEDD
:1054100070BDC0463F48004100480041FFC0FFFF4B
:10542000037870B505000C0041710B2B14D8FFF701
:1054300071FE29780F25094829400378084AAB43B3
:105440000B4303700323516C1C40064BA405194009
:105450000C435464FFF774FE70BDC0463F480041E2
:1054600000480041FFFF3FFF00787047F0B587B06C
:1054700001930CAB1E780DAB1B78050002930EABAD
:105480001B780078039310AB1F78049105920B28CA
:1054900002D9002007B0F0BD6B78062BF9D0AB78AD
:1054A000002B00D179E01021080004F0EFFD002866
:1054B000EFD02B783B4A1B019B181A00D1680029BA
:1054C00004D0D1688B4201D0D268F7E7D0600122C6
:1054D0000223AA70964203D0DB18022E00D01300DC
:1054E00006240188114301800188A14301800188BD
:1054F0001234A1430180153C018826402A4C360213
:1055000021400E430680029E0188284C164021400F
:10551000B6020E430680039E0188254C16402140AA
:10552000F6020E4306800188224E3A4031401203B3
:105530000A43072102800F9A114002884903D204CE
:10554000D20C0A4302806A4692884280049A4260E2
:10555000029A002A08D0019A41685A43002F01D0CC
:105560000F9CA2408A184260059A8260039A002A22
:1055700009D0019A84685A431300002F01D10F9A71
:105580009340E31883600023EA789A4203D02B7893
:10559000044A1B019B18C3607CE7024B0001C01842
:1055A00095E7C04660170020FFFCFFFFFFFBFFFFF1
:1055B000FFF7FFFFFFEFFFFFF0B5150005AA148806
:1055C000827E022A00D16BE0032A00D19FE0012AEB
:1055D00000D06DE0EA430589AD182DB2002D5EDBE9
:1055E0000826825FAA425ADD002902DA5B180021F0
:1055F0001BB20A22825EC818904201DD531A1BB208
:10560000002B4CDDC8B2C2085E49920152195218F3
:1056100007250100DBB2294028421CD008205A4D42
:10562000401AC0B22D5C834200D3A3E0FF26C71A04
:105630003E413540012C00D16EE0022C00D16FE0DC
:10564000002C2CD11678AE431670834227D308392C
:105650005B18DBB24032072B14D9022C63D1100047
:10566000190005780839ED43C9B2057040300729A3
:10567000F7D819000839C9B2C9080131890152188F
:1056800007210B40002B0AD04049CB5C012C58D09D
:10569000022C5AD0002C02D1117899431170F0BD20
:1056A000EA434589C918AD1802892DB2511A09B2C9
:1056B000002DF4DB0A26825FAA42F0DD002902DA1F
:1056C0005B1800211BB20822825EC818904201DDDF
:1056D000531A1BB2002BE2DDEA1092015118294A3D
:1056E00001208A1807210D40A840C0B2012C2FD0FC
:1056F000022C36D0002CD2D1C043C0B2013B1BB229
:10570000591CCCD01178014011700132F6E7428962
:10571000C918511A09B261E716783543157094E734
:1057200016787540FAE7611E48424141150018009D
:105730004942C9B20838C0B2297040350728F9D8A3
:1057400097E711780B431370A9E711784B40FAE7FC
:10575000013B1BB2591CA2D01178014311700132D8
:10576000F6E7013B1BB2591C99D0117841401170EA
:105770000132F6E7012CCFD0022CD1D0002C00D082
:1057800065E75FE7F0010020E8010020E00100206C
:10579000F0B50C0005A90D88817E02293CD00329B3
:1057A00000D1A1E001293FD10189D2188A1A12B291
:1057B000002C00DA97E00A26815FA14200DC92E02B
:1057C000002A02DA9B1800221BB20821415ED01881
:1057D000884201DD8B1A1BB2002B00DC83E0E11054
:1057E00089018A185D490120511807221440A04000
:1057F000C0B2012D00D17CE0022D00D182E0002D4D
:1058000071D1C043C0B2013B1BB25A1C6BD00A78A5
:1058100002400A700131F6E7E1430489D2186418A6
:10582000418924B28A1A12B2002C5CDB0826815FFF
:10583000A14258DD002A02DA9B1800221BB20A217D
:10584000415ED018884201DD8B1A1BB2002B4ADD65
:10585000D2B2D1084148890109190918140007205A
:10586000DBB2044002421AD001303D4A001BC0B2F4
:10587000125C834200D36AE0FF26C71A3E413240E1
:10588000012D48D0022D4AD0002D2CD10E78964300
:105890000E70834227D3083C1B19DBB24031072B23
:1058A00014D9022D3ED108001A000478083AE443C6
:1058B000D2B204704030072AF7D81A00083AD2B2A0
:1058C000D20801329201891807221340002B0AD016
:1058D000244AD35C012D33D0022D35D0002D02D1C6
:1058E0000A789A430A70F0BDE1434489641824B2EF
:1058F0005EE7013B1BB25A1CF5D00A7802430A70DE
:105900000131F6E7013B1BB25A1CECD00A78424049
:105910000A700131F6E70E7832430A70B9E70E7863
:105920007240FAE76A1E504242410C00180052428F
:10593000D2B20838C0B2227040340728F9D8BCE788
:105940000A7813430B70CEE70A785340FAE7012D2B
:10595000E1D0022DE3D0002D9DD197E7F00100208A
:10596000E8010020E001002030B5002947DB0C25CC
:10597000445F8C4243DD002A41DB0E25445F9442A4
:105980003DDD847E022C1ED0032C25D0012C04D1B9
:10599000D243008980180A0001B2012B22D0022BC9
:1059A0002ED0002B2BD10720D31703409B18DB10E0
:1059B0009B0159180123024093401A00174C635C65
:1059C000934363541BE00489013C611AD443428928
:1059D00009B2121912B2E0E740890138401A1100E9
:1059E00002B2DAE70724D017204080182240934003
:1059F000C010800141180948425C1343435430BD34
:105A00000720D31703409B18DB109B015918012373
:105A100002409340014C625C5340D2E7F001002009
:105A200070B504000D0020224021FEF79FFD094BB8
:105A3000FF220833236023002A331A702200012337
:105A400028325B42E38413702300293320001D7049
:105A500070BDC04660C70000802210B5002102481A
:105A6000520004F03AFB10BDF00100200300F7B52E
:105A70002B331B7804000D00002B03D01348FFF7D5
:105A800041FAF7BD082380260127009323001F2039
:105A9000083301931856002103F038F831001F2015
:105AA000E31D185629402E4200D0390003F02EF88D
:105AB0001F20019B3900185603F028F8009B760838
:105AC000013B0093002BE1D1DBE7C0461816002014
:105AD00070B5C31DDB7F04005BB20D0001331AD02B
